:100000000C946C370C949D370C949D370C949D3751
:100010000C949D370C949D370C949D370C949D3710
:100020000C949D370C949D370C949D370C949D3700
:100030000C949D370C94AAD30C949D370C949D3747
:100040000C949D370C944DE80C949D370C949D377F
:100050000C949D370C949D370D9434060D940E8AA4
:100060000C949D370C9438590C942E590C949D3750
:100070000C949D370C949D370C949D370C949D37B0
:100080000C9447510C949D370C949D370C949D37DC
:100090000C949D370C949D370C949D370C949D3790
:1000A0000C949D370C949D370C9419510C949D37EA
:1000B0000C949D370C949D370C949D370C94EB5009
:1000C0000C949D370C949D370C949D370C949D3760
:1000D0000C949D370C949D370C949D370C949D3750
:1000E0000C949D37220246021E0286021E021E0248
:1000F0001E021E021E021E021E021E021E021E0200
:100100001E021E021E021E021E021E021E021E02EF
:100110001E021E021E021E021E021E021E021E02DF
:10012000C2021E021E021E021E021E021E021E022B
:100130001E025C011E021E021E021E021E021E0282
:100140001E021E021E021E02CC0188026202200351
:1001500078024E022E01FA02FA0140026A02A2025D
:10016000A201FE012A030C03FA02840184027C012D
:10017000DC018001140258019202F8012C013802BE
:1001800098017A027001C602BA02B601F801DA02D9
:100190001A03B801C001520112030602CE02DA01AD
:1001A000CA02EC0150029E02A6016A01DE02D401DD
:1001B000F802AC020E0200021E031802B2014A014C
:1001C000E2019401FC026E020002E002B20264014C
:1001D000B802C201F0029402240130026E010C0246
:1001E0003402E40202032E027401E8023002EE023D
:1001F0004A02AC01084AD73B3BCE016E84BCBFFD2E
:10020000C12F3D6C74319ABD56833DDA3D00C77FE6
:1002100011BED9E4BB4C3E916BAAAABE000000807F
:100220003F05A84CCDB2D44EB93836A9020C50B90E
:10023000918688083CA6AAAA2ABE000000803F003A
:100240000C941D5C0C94E3840D9402890C94A29E82
:100250000C94B2830C9470640D94B87D0D94817AE3
:100260000C94A5830C944D5B0C94F75A0C94BFD757
:100270000C94E45A0C94A35B0C949E9A0C94235B0C
:100280000C94CB5A0C94735A0C94B7980D94B38277
:100290000C94AB850D94F8860D9492850C94FA64B9
:1002A0000C940F5A0D949B860C946B5C0C94D0D4D8
:1002B0000D94B17D0C9445640D942E1B0C949FD825
:1002C0000C94168C0C94E9D70D9418870C94999A79
:1002D0000C949F5A0D94B0860D9455810D940C8901
:1002E0000D94C57D0C94AB980D9449890C94949A07
:1002F0000D94B2850C94A4890D94147C0D949E8564
:100300000D94AA7D0D94EC390D94CA7B0C94F9944C
:100310000C94B0830C94655B0C943E5B0C94A95BCD
:100320000C94D4840C942F5B0D9402870C9498D772
:100330000D94BF7D0D94CA110C944A5C0C949AD410
:100340000C94AE830D94367B0C94308B0D94AD865B
:100350000C9431AF0C94F6590D9471890C948C5A0D
:100360000C94A5980D94F4860C943C640D94CF7D68
:100370000D94D97D0D9418190C94E8840C9449645B
:100380000D94C2860D94E9880C94675B0C94C45953
:100390000C94DB590D94F2810D94721B0C9472A491
:1003A0000D94EE390C94795B0D94E6860C94415AC9
:1003B0000C94C2830D94A4860D94A77D0D94D1173F
:1003C0000D94DD170D94FC860D94DD100C94B55B37
:1003D0000C94D2640C949C830D94B3860C941A8C68
:1003E0000D945B370C94B5D40C94775C0C942C95DD
:1003F0000D94DE7D0D94A67A0D949A850D945B7B09
:100400000D941D870D94ED940C94058C0D94C58668
:100410000C941AD60C94285A0D9414890D94DF86E6
:100420000D94EC2E0D940C820D94AE7D0D9496855A
:100430000D94EE860C942C5C0D9416950D94C719B2
:100440000D9479380D941F1B0C945C5B0D94A28560
:100450000C94AF5B0C943A9D0C94AD590D943A8971
:100460000D947B890C94BF9C0D941C890C943B5C6F
:100470000D94BB7D0C9479830C94B5AF0D94A68537
:100480000D94C97A0C947E9C0C947F5B0D948E190C
:100490000C9408D80D9467890C947FD40D945C7AE1
:1004A0000D94AA860C945A5A0C94915B0C947F5923
:1004B0000D9477380C94855B0C94CE840C948B5BF4
:1004C0000D9416150D94F5790D9481800C94735B41
:1004D0000C94FD8B0D94EC7A0D94EA390D940A87F7
:1004E0000C94018C0C940A5B0C945BAF0C940CDBA9
:1004F0000D94377A0D94C27D0D94AA850C94DE84F8
:100500000C94FD5B0D94D3110D94EF7B0D945B1B4C
:100510000D94C4190D9441830C94B1980D94B63B7D
:100520000C94DE9C0D94B47D0D94F8880C94975B2C
:100530000D94F0390D94F2390C9477A40D94C08683
:100540000C946D5B0D94117B0D9459540C9489AFF0
:100550000C94A4850D9410820D94D9860C94965910
:100560000D9489810D9414870D948A050D94733828
:100570000D94E4880D94CC7D0C947CA40C94329D55
:100580000C94D9840D94551B0D94D0110D94C97DF4
:100590000D946F810D94A7860C9449D40D94A18677
:1005A0000C94B7D70C947ED80D9471380C94BC621F
:1005B0000C942C880D94D37D0C94B25A0D94E38640
:1005C0000D9410870C942D640D9426890D94AE859E
:1005D0000D9453890D9421840C94595C0D945D897C
:1005E0000D94EE880D94EB100D94B6850C94085C78
:1005F0000D94D5860D94387C0D9406870C9464D4A4
:100600000C94CAD70D9430890D94D8810C94885ECF
:100610000C949D5B0C94AB860D94A57B0D941B19DB
:100620000D94A8130D949E860C94E6A00D941E19AB
:100630000C94015C0D94D67D0C94A39A0D94EA86DB
:100640000D94177A0D94BD810C9446640D94753801
:100650000D94CD110D94807B0D94BA850D94A381DA
:100660004E414E494E495459494E46CDCCCC3D0A97
:10067000D7233C17B7D13877CC2B329595E6241F7A
:10068000B14F0A000020410000C84200401C462033
:10069000BCBE4CCA1B0E5AAEC59D7400407A10F306
:1006A0005A00A0724E18090010A5D4E80000E876A0
:1006B00048170000E40B54020000CA9A3B000000F7
:1006C000E1F505000080969800000040420F000010
:1006D00000A08601000000102700000000E80300D1
:1006E0000000006400000000000A0000000000019B
:1006F00000000000002C76D888DC674F0823DFC19B
:10070000DFAE59E1B1B796E5E3E453C63AE6519955
:100710007696E8E6C28426EB898C9B62ED407C6F7E
:10072000FCEFBC9C9F40F2BAA56FA5F490055A2A35
:10073000F75C936B6CF9676DC11BFCE0E40D47FE41
:10074000F520E6B500D0ED902E0300943577050036
:1007500080841E080000204E0A000000C80C3333BD
:1007600033330F986E12831141EF8D2114893BE6CC
:100770005516CFFEE6DB18D1844B381BF77C1D9055
:100780001DA4BBE424203284725E228100C9F124BE
:10079000ECA1E53D27434F4D4D554E49434154494A
:1007A0004F4E0044525952554E004552524F5253EB
:1007B00000494E464F004543484F0047322F4733CC
:1007C0002062616420706172616D65746572730A84
:1007D0000057617274656E2E2E2E005A2050726F73
:1007E00062652050617374204265640A005A2D537B
:1007F0006F6E6465206175C39F657268616C62008D
:10080000205A3A200020593A200042656420583A84
:1008100020004D65736820706F696E74206F757469
:10082000206F662072616E67650A004B6C69636BAE
:10083000207A756D20466F72747365747A656E00E8
:100840004D6F746F72656E20616E6765736368616A
:100850006C74657400456E642066696C65206C6913
:1008600073740A00426567696E2066696C65206C66
:100870006973740A00286E6F2066696C65290043ED
:10088000757272656E742066696C653A2000534417
:10089000207072696E74696E6720627974652000D9
:1008A0004E6F74205344207072696E74696E670ACB
:1008B000002E0A0044656C6574696F6E206661697C
:1008C0006C65642C2046696C653A200046696C654D
:1008D0002064656C657465643A005072696E7420BA
:1008E00074696D653A20006F6B006F666600B6072D
:1008F000B107AA07A307950744454255473A004D5B
:100900003131322053687574646F776E004D313128
:100910003320530042657474206BC3BC686C742E22
:100920002E2E0042657474206865697A742E2E2E0E
:1009300000344D4158202D2076673372204F4646B3
:100940002E002F2F20004D31343520533C696E642A
:1009500065783E206F7574206F662072616E6765E2
:100960002028302D31290A003F4A206F7574206FEE
:10097000662072616E67652028302E303120746FDA
:1009800020302E33290A0046523A0020466C6F77F9
:100990003A200050726F7465637465642050696E0C
:1009A0000A00206F7574206F662072616E67650A99
:1009B00000536572766F20003A20002053657276EE
:1009C0006F200020643A0020693A0020703A004904
:1009D0006E76616C69642065787472756465720AFC
:1009E0000020643A0020693A0020703A006469737C
:1009F00000656E0043290A0061626C656420286D01
:100A0000696E2074656D702000436F6C642065789A
:100A10007472756465732061726520004F464600EC
:100A20004F4E0046696C616D656E742072756E6F15
:100A3000757420004D34323120696E636F727265B7
:100A4000637420706172616D657465722075736185
:100A500067650A004D65736820706F696E74206F5A
:100A60007574206F662072616E67650A0045455097
:100A7000524F4D204F4B0A0043617365206C6967EC
:100A800068743A200043617365206C696768743A42
:100A9000206F66660A004D383400446F6E65207022
:100AA00072696E74696E672066696C650A004D37FD
:100AB00037004D3331004572726F7220777269745E
:100AC000696E6720746F20454550524F4D210A00D2
:100AD000363726033C3D382A2E303E121A1C180A9F
:100AE0002C430809072C07084400014D343130001D
:100AF0004D313132004D31303800414E474548418B
:100B00004C54454E005072696E7465722073746F58
:100B1000707065642064756520746F206572726FF3
:100B200072732E2046697820746865206572726F32
:100B30007220616E6420757365204D3939392074D7
:100B40006F20726573746172742E202854656D7005
:100B5000657261747572652069732072657365745E
:100B60002E2053657420697420616674657220724A
:100B7000657374617274696E67290A004E6F204351
:100B80006865636B73756D2077697468206C696E36
:100B900065206E756D6265722C204C617374204CFB
:100BA000696E653A20004E6F20436865636B73750C
:100BB0006D2077697468206C696E65206E756D6252
:100BC00065722C204C617374204C696E653A20006C
:100BD000636865636B73756D206D69736D617463B4
:100BE000682C204C617374204C696E653A20004C6F
:100BF000696E65204E756D626572206973206E6F37
:100C000074204C617374204C696E65204E756D6262
:100C100065722B312C204C617374204C696E653ADF
:100C200020004D31313000534420726561642065ED
:100C300072726F720A002121204B494C4C20636173
:100C40007573656420627920746F6F206D756368B9
:100C500020696E6163746976652074696D65202D05
:100C60002063757272656E7420636F6D6D616E6462
:100C70003A2000627573793A20706175736564205B
:100C8000666F7220696E7075740A00627573793AC6
:100C90002070617573656420666F7220757365726C
:100CA0000A00627573793A2070726F6365737369B5
:100CB0006E670A004D656469756D20656E746665C2
:100CC000726E74004D656469756D2065726B616E3E
:100CD0006E74004D363030004269747465206E6564
:100CE000757374617274656E00445255434B45527E
:100CF00020474553544F5050540025533A20255314
:100D0000004142474542524F4348454E00507269A8
:100D10006E7465722068616C7465642E206B696CFA
:100D20006C28292063616C6C6564210A00414E4780
:100D30004548414C54454E005072696E74657220AE
:100D400073746F707065642064756520746F2065BE
:100D500072726F72732E2046697820746865206500
:100D600072726F7220616E6420757365204D39391F
:100D70003920746F20726573746172742E20285448
:100D8000656D706572617475726520697320726536
:100D90007365742E205365742069742061667465D0
:100DA000722072657374617274696E67290A004CEF
:100DB0006164656E206D6D00456E746C6164656E76
:100DC000206D6D0046696C616D656E74647572634B
:100DD000686D6573736572004520696E206D6DC224
:100DE000B3004D333033205531204525692053253C
:100DF0006900504944204175746F74756E65202AEE
:100E0000005049442D44202A005049442D49202AAD
:100E1000005049442D50202A0020082046616B7460
:100E20006F72002008206D6178002008206D696EC7
:100E30000061757300616E004175746F2054656DBB
:100E4000706572617475720043616E6E6F74206FAD
:100E500070656E2073756264697220002569730085
:100E600025696D20256973002569682025696D2035
:100E700025697300256964202569682025696D202E
:100E80002569730025697920256964202569682012
:100E900025696D20256973000A53746174733A20C3
:100EA00046696C616D656E7420757365643A2000E7
:100EB0002C204C6F6E67657374206A6F623A200055
:100EC000546F74616C2074696D653A2000537461CD
:100ED00074733A20002C204661696C65643A2000E6
:100EE0002C2046696E69736865643A200050726907
:100EF0006E74733A200053746174733A20006BC3AC
:100F0000BC686C742E2E2E006865697A742E2E2EA5
:100F100000452025530023646566696E65204445BD
:100F20004641554C545F00626564004B6420004BA1
:100F30006920004B702000504944204175746F7443
:100F4000756E652066696E697368656421205075E9
:100F50007420746865206C617374204B702C204B76
:100F60006920616E64204B6420636F6E7374616EE0
:100F700074732066726F6D2062656C6F7720696E86
:100F8000746F20436F6E66696775726174696F6E06
:100F90002E680A00504944204175746F74756E655F
:100FA000206661696C6564212074696D656F757474
:100FB0000A00504944204175746F74756E6520664F
:100FC00061696C6564212054656D7065726174752A
:100FD000726520746F6F20686967680A00204B642F
:100FE0003A2000204B693A2000204B703A20000A3A
:100FF00020436C617373696320504944200A0020C8
:101000004B643A2000204B693A2000204B703A2074
:10101000000A204E6F206F76657273686F6F740AD6
:10102000002054753A2000204B753A2000206D6155
:10103000783A2000206D696E3A200020643A200042
:1010400020626961733A2000504944204175746FF1
:1010500074756E652073746172740A00504944207F
:101060004175746F74756E65206661696C65642185
:101070002054656D706572617475726520746F6F50
:1010800020686967680A00504944204175746F748C
:10109000756E6500504944204175746F74756E65B6
:1010A000206661696C656421204261642065787402
:1010B0007275646572206E756D6265720A004572A4
:1010C000723A207574663820666F6E74206E6F7485
:1010D00020696E697469616C697A65642E00457275
:1010E000723A207574663820666F6E74206E6F7465
:1010F00020696E697469616C697A65642E00457255
:10110000723A207574663820666F6E74206E6F7444
:1011100020696E697469616C697A65642E0025685E
:10112000753A25303268750025303268753A2530B9
:1011300032687500256875642025303268753A2557
:101140003032687500000C0F00FE07022603BC0158
:10115000FFFE0AFE08FE05080806000040F0C888E9
:1011600088987810050808060000C0F888888888E4
:1011700088F80505050600012030F830200508082C
:101180000600002070F820202020E0050909060054
:10119000FF2070A8A8B88888702005060606000100
:1011A000E08CEA8C8A0A0509090600FFF8A88888FD
:1011B000888888A8F8050A0A0600FE20505050507A
:1011C00088A8A8887003030306000340A040FFFF1F
:1011D000FFFFFFFFFFFFFFFFFFFFFFFFFFFFFFFF1F
:1011E000FFFFFFFF0000000605FF010707060200E2
:1011F00080808080800080030303060105A0A0A0FA
:1012000005060606000050F85050F850050909067A
:1012100000FF2070A8A07028A8702005070706000E
:1012200000C8C8102040989805070706000040A095
:10123000A040A8906801030306020580808003098E
:10124000090601FF204040808080404020030909BA
:101250000601FF804040202020404080050707060F
:10126000000020A8702070A82005050506000120B8
:1012700020F820200203030601FFC0408005010181
:10128000060003F8020202060100C0C005070706B7
:10129000000008101020404080050707060000707D
:1012A0008898A8C8887003070706010040C040401E
:1012B0004040E0050707060000708808102040F84D
:1012C000050707060000F8081030088870050707B2
:1012D00006000010305090F81010050707060000B7
:1012E000F880F00808887005070706000030408085
:1012F000F0888870050707060000F8081010202005
:101300002005070706000070888870888870050728
:10131000070600007088887808106002050506013D
:1013200000C0C000C0C00206060601FFC0C000C069
:10133000408003050506010120408040200503038D
:10134000060002F800F80305050601018040204070
:101350008005070706000070881020200020050780
:10136000070600007088B8A8B88070050707060057
:1013700000708888F8888888050707060000F0480C
:1013800048704848F0050707060000708880808094
:101390008870050707060000F04848484848F005EF
:1013A0000707060000F88080F08080F80507070630
:1013B0000000F88080F0808080050707060000703C
:1013C000888080988870050707060000888888F85C
:1013D000888888030707060100E04040404040E05D
:1013E0000507070600003810101010906005070769
:1013F0000600008890A0C0A090880507070600009E
:10140000808080808080F805070706000088D8A8C3
:10141000888888880507070600008888C8A89888F3
:101420008805070706000070888888888870050787
:1014300007060000F08888F0808080050707060016
:101440000070888888A89068050707060000F08863
:1014500088F0A09088050707060000708880700853
:101460008870050707060000F820202020202005AE
:10147000070706000088888888888870050707069F
:1014800000008888888850502005070706000088DB
:10149000888888A8A850050707060000888850207B
:1014A00050888805070706000088885020202020E3
:1014B000050707060000F80810204080F803090916
:1014C0000601FFE080808080808080E005070706BD
:1014D0000000804040201010080309090601FFE0C9
:1014E00020202020202020E00503030600052050B6
:1014F000880501010600FEF803030306010580408C
:10150000200505050600007008788878050707069D
:1015100000008080F0888888F005050506000070CE
:10152000808088700507070600000808788888888A
:10153000780505050600007088F08070050707062D
:101540000000304840E04040400507070600FE70BC
:101550008888887808700507070600008080F08872
:101560008888880307070601004000C0404040E02B
:101570000409090601FE10003010101010906005DB
:10158000070706000080808890E090880307070620
:101590000100C04040404040E0050505060000D085
:1015A000A8A8A8A8050505060000B0C88888880571
:1015B000050506000070888888700507070600FE8C
:1015C000F0888888F080800507070600FE78888804
:1015D00088780808050505060000B0C880808005E9
:1015E000050506000078807008F005070706000072
:1015F0002020F8202020180505050600008888888E
:1016000098680505050600008888885020050505AE
:101610000600008888A8A850050505060000885027
:101620002050880507070600FE88888850204080E3
:10163000050505060000F8102040F8030909060119
:10164000FF2040404080404040200109090602FF41
:101650008080808080808080800309090601FF806F
:10166000404040204040408005030306000248A857
:1016700090FFFFFFFFFFFFFFFFFFFFFFFFFFFFFFE9
:10168000FFFFFFFFFFFFFFFFFFFFFFFFFFFFFFFF6A
:10169000FFFF0000000605FF0107070602008000AB
:1016A00080808080800507070600FF2070A8A0A822
:1016B0007020050707060000304840E04048B005AC
:1016C0000505060000A8508850A805070706000079
:1016D0008850F820F820200107070602008080804B
:1016E000008080800408080601007080609090608F
:1016F00010E0030101060107A006070706000078B5
:1017000084B4A4B4847803050506010460A06000D5
:10171000E00505050600002850A050280503030633
:101720000001F80808030101060103E006070706A7
:1017300000007884B4A4A48478050101060007F8A9
:101740000404040601056090906005070706000088
:101750002020F8202000F803050506010440A02001
:1017600040E0030505060104C0204020C003030338
:101770000601052040800507070600FE8888889836
:10178000E8808005080806000078E8E8E86828286E
:1017900028020202060203C0C00302020601FE2064
:1017A000C003050506010440C04040E003050506EE
:1017B000010540A04000E0050505060000A05028F6
:1017C00050A0050A0A06000040C048506050B050C2
:1017D0007810050A0A06000040C048506050A8086A
:1017E0001038050A0A060000C0204830E050B0500A
:1017F00078100507070600002000202040887005AB
:101800000A0A060000402000708888F88888880549
:101810000A0A060000102000708888F88888880569
:101820000A0A060000205000708888F88888880519
:101830000A0A06000068B000708888F88888880561
:1018400009090600005000708888F8888888050A11
:101850000A060000205020708888F88888880507CC
:101860000706000078A0A0F0A0A0B80509090600AE
:10187000FE708880808088701060050A0A0600006B
:10188000402000F88080F08080F8050A0A060000F9
:10189000102000F88080F08080F8050A0A06000019
:1018A000205000F88080F08080F8050909060000CB
:1018B0005000F88080F08080F8030A0A060100805A
:1018C0004000E04040404040E0030A0A060100209A
:1018D0004000E04040404040E0030A0A060100406A
:1018E000A000E04040404040E0030909060100A09C
:1018F00000E04040404040E0050707060000704817
:1019000048E8484870050A0A06000068B000888860
:10191000C8A8988888050A0A060000402000708838
:101920008888888870050A0A0600001020007088E0
:101930008888888870050A0A060000205000708890
:101940008888888870050A0A06000068B0007088D8
:10195000888888887005090906000050007088880A
:101960008888887005050506000188502050880584
:1019700009090600FF087098A8A8A8C87080050A81
:101980000A06000040200088888888888870050A38
:101990000A06000010200088888888888870050A58
:1019A0000A06000020500088888888888870050909
:1019B00009060000500088888888888870050A0A0F
:1019C00006000010200088885020202020040707EF
:1019D00006010080E0909090E08005070706000077
:1019E000708890A09088B00508080600004020008C
:1019F0007008788878050808060000102000700834
:101A0000788878050808060000205000700878885B
:101A10007805080806000068B00070087888780526
:101A20000707060000500070087888780508080647
:101A30000000205020700878887805050506000011
:101A4000702870A0780507070600FE7088808870EF
:101A500010600508080600004020007088F08070C3
:101A60000508080600001020007088F08070050846
:101A7000080600002050007088F0807005070706F7
:101A8000000050007088F080700308080601008094
:101A90004000C0404040E00308080601002040002C
:101AA000C0404040E003080806010040A000C040DC
:101AB0004040E0030707060100A000C0404040E0AE
:101AC00005090906000050205008788888887005AC
:101AD000080806000068B000B0C8888888050808B3
:101AE00006000040200070888888700508080600FD
:101AF0000010200070888888700508080600002003
:101B00005000708888887005080806000068B000DA
:101B10007088888870050707060000500070888864
:101B200088700505050600012000F8002005050560
:101B30000600007898A8C8F00508080600004020B4
:101B40000088888888700508080600001020008832
:101B5000888888700508080600002050008888885A
:101B6000887005070706000050008888888870057F
:101B70000A0A0600FE102000888888502040800550
:101B800009090600FE8080F0888888F080800509B9
:101B9000090600FE50008888885020408047323671
:101BA0002044C3BC7365206175666865697A656E9B
:101BB00000473236206865697A7420426574740083
:101BC00057616974696E6720666F72206865617419
:101BD00075702E0A004665737465204CC3A46E6749
:101BE00065205072696D65005072696D696E67207D
:101BF000666572746967004D616E75616C20707204
:101C0000696D696E672E2E2E00473236206162673D
:101C10006562726F6368656E004732362076657262
:101C20006C617373656E003F5370656369666965C7
:101C30006420582C5920636F6F7264696E617465FB
:101C4000206F7574206F6620626F756E64732E0A44
:101C5000003F28522965706561742076616C756556
:101C6000206E6F7420706C61757369626C653B20C7
:101C70006D757374206265206174206C6561737486
:101C800020312E0A003F53706563696669656420E0
:101C90006E6F7A7A6C652074656D706572617475AB
:101CA0007265206E6F7420706C61757369626C650B
:101CB0002E0A003F53706563696669656420666932
:101CC0006C616D656E742073697A65206E6F742027
:101CD000706C61757369626C652E0A003F537065A4
:101CE000636966696564207072696D65206C656EF4
:101CF000677468206E6F7420706C61757369626CB4
:101D0000652E0A003F537065636966696564206EDD
:101D10006F7A7A6C652073697A65206E6F742070B3
:101D20006C61757369626C652E0A003F526574724E
:101D3000616374696F6E204D756C7469706C696550
:101D400072206D75737420626520737065636966B7
:101D50006965642E0A003F5370656369666965644E
:101D60002052657472616374696F6E204D756C7476
:101D700069706C696572206E6F7420706C61757328
:101D800069626C652E0A003F537065636966696518
:101D900064206C6179657220686569676874206E7B
:101DA0006F7420706C61757369626C652E0A0043F4
:101DB000292E0A003F537065636966696564206275
:101DC00065642074656D7065726174757265206EEE
:101DD0006F7420706C61757369626C652028343093
:101DE0002D00473236207374617274696E672E2E2F
:101DF0002E0A004265776567756E67004D383400BE
:101E00004D6F746F72656E206465616B746976697D
:101E10006572656E004732380A4D343820503130D3
:101E2000004D343820536F6E64656E7465737400B2
:101E3000426574742D4E6976656C6C696572756E59
:101E400067004732385A00486F6D65205A004732A4
:101E5000385900486F6D652059004732385800489E
:101E60006F6D65205800473238004175746F204807
:101E70006F6D650048617570746D656EC3BC00243C
:101E800020457874722E20566F7277C3A4726D65E8
:101E90006E0024204265747420566F7277C3A4725A
:101EA0006D656E0054656D70657261747572004188
:101EB000626BC3BC686C656E002420566F7277C37A
:101EC000A4726D656E004CC3BC6674657200426599
:101ED00074740044C3BC73650048617570746D65AB
:101EE0006EC3BC004261627973746570205A00460B
:101EF0006C75737372617465004CC3BC66746572F3
:101F000000426574740044C3BC7365004765736325
:101F100068772E0048617570746D656EC3BC0044AF
:101F20007275636B206162676562726F6368656E6C
:101F3000004D323520500A4D3234005061757365C2
:101F40002E2E2E005761726E696E673A20436C65C3
:101F5000616E20436972636C652072657175697288
:101F600065732058590A005761726E696E673A208E
:101F7000526164697573204F7574206F66205261D9
:101F80006E67650A00496E6469676F00426C61752F
:101F9000004772C3BC6E0047656C62004F72616E91
:101FA000676500526F7400576569C39F0056696F7B
:101FB0006C657474005374616E6461726400426590
:101FC0006C6575636874756E67004E656F506978EF
:101FD000656C204C454427732054657374656E000E
:101FE0004C696368742D45696E7374656C6C756EAD
:101FF000670042656E75747A6572646566696E69BC
:102000006572740048656C6C69676B656974006122
:10201000757300616E0042656C6575636874756EFA
:1020200067004B6F6E66696775726174696F6E00E9
:102030003F005A7572C3BC636B0053746F70004BE2
:1020400065696E204D656469756D00447275636BDA
:1020500020766F6D204D656469756D0046696C6111
:102060006D656E74207765636873656C6E004B6F89
:102070006E66696775726174696F6E0054656D7024
:10208000657261747572004265776567756E670089
:1020900053442D447275636B20666F72747365745C
:1020A0007A656E004A757374696572756E67005360
:1020B000442D447275636B2061626272656368656A
:1020C0006E0053442D447275636B207061757369A3
:1020D0006572656E00C39C6265722064656E204403
:1020E0007275636B657200496E666F003F005374D2
:1020F0006172746520447275636B0041626272653F
:102100006368656E00447275636B656E0043616E53
:102110006E6F7420656E7465722073756264697287
:102120003A2000022E2E0048617570746D656EC3F2
:10213000BC006563686F3A004572726F723A004284
:10214000696C696E656172204C6576656C696E6755
:1021500020477269643A0A0021212053544F5020CD
:1021600063616C6C65642062656361757365206F83
:102170006620424C546F756368206572726F7220DE
:102180002D20726573746172742077697468204DB4
:102190003939390A0021212053544F502063616C92
:1021A0006C65642062656361757365206F662042AB
:1021B0004C546F756368206572726F72202D2072A7
:1021C0006573746172742077697468204D39393988
:1021D0000A00486F74656E6420746F6F20636F6CC3
:1021E000640A004D3630303A207A75206B616C7489
:1021F00000486F74656E6420746F6F20636F6C6449
:102200000A00507265737320627574746F6E207467
:102210006F20726573756D650A00496E736572741F
:102220002066696C616D656E7420616E64207072E9
:1022300065737320627574746F6E0A0050726573F3
:102240007320627574746F6E20746F20686561749A
:10225000206E6F7A7A6C650A0043616E6E6F74202F
:102260006F70656E2073756264697220005344203C
:1022700063617264206F6B0A006F70656E526F6FDE
:1022800074206661696C65640A00766F6C756D65B3
:102290002E696E6974206661696C65640A004E6F10
:1022A00020534420636172640A004D3234004D3281
:1022B000332025730046696C652073656C65637413
:1022C00065640A002053697A653A200046696C65A6
:1022D000206F70656E65643A2000454E442053556A
:1022E00042524F5554494E450A002220706F7300E8
:1022F0002220706172656E743A2200535542524F2B
:102300005554494E452043414C4C207461726765D9
:10231000743A220053756263616C6C204F7665726B
:10232000666C6F77004578636565646564206D61F0
:102330007820535542524F5554494E45206465709C
:1023400074683A310A0057726974696E6720746F55
:102350002066696C653A20002E0A006F70656E2059
:102360006661696C65642C2046696C653A2000667C
:102370007265736800646F696E67002066696C65DA
:102380003A20004E6F7720004F46460A00466164AF
:1023900065204865696768742000426564204C6563
:1023A00076656C696E6720004661696C65642074AF
:1023B0006F20656E61626C6520426564204C6576B5
:1023C000656C696E670A00496E76616C6964206DA0
:1023D0006573682E0A004D65737370756E6B7400BB
:1023E00025532025692F2569002E0A002F005072E1
:1023F0006F62696E67206D65736820706F696E74B7
:102400002000202844525952554E29004732392085
:102410004175746F20426564204C6576656C696E09
:1024200067003F20284C2C522C462C4229206F75E7
:1024300074206F6620626F756E64732E0A003F28E9
:1024400056296572626F7365206C6576656C2069CC
:102450006D706C61757369626C652028302D34294C
:102460002E0A00426164205A2076616C75650A006C
:102470004E6F2062696C696E656172206772696473
:102480000A0041627765696368756E670025533A93
:10249000202573005374616E646172642044657614
:1024A000696174696F6E3A20002052616E67653A07
:1024B0002000204D61783A2000204D696E3A2000BE
:1024C0004D65616E3A200046696E697368656421E6
:1024D0000A002072616E67653A2000206D61783ACB
:1024E0002000206D696E3A2000207369676D613AA3
:1024F0002000206D65616E3A20003A207A3A200073
:10250000206F662000476F696E6720746F3A20580D
:102510000043570A00206469723A0020616E676CBC
:10252000653A005374617274207261646975733A1C
:10253000004D34382050756E6B740025533A2025B9
:10254000642F256400506F736974696F6E696E67DC
:10255000207468652070726F62652E2E2E0A003F0F
:102560004E756D626572206F66206C6567732069B9
:102570006E206D6F76656D656E74206E6F74207061
:102580006C61757369626C652028302D3135292E98
:102590000A003F2028582C5929206F7574206F6637
:1025A00020626F756E64732E0A003F53616D706C0C
:1025B000652073697A65206E6F7420706C61757325
:1025C00069626C652028342D3530292E0A004D347F
:1025D00038205A2D50726F626520526570656174A3
:1025E0006162696C69747920546573740A003F28CC
:1025F00056296572626F7365206C6576656C20691B
:102600006D706C61757369626C652028302D34299A
:102610002E0A0020573A0020573A00496E76616C26
:1026200069642065787472756465720A0000091225
:102630001B242D363F48415A536C657E7719100B89
:10264000023D342F265158434A757C676E323B2039
:1026500029161F040D7A7368615E574C452B223989
:10266000300F061D14636A7178474E555C646D76B1
:102670007F4049525B2C253E3708011A137D746F49
:102680006659504B42353C272E1118030A565F44B9
:102690004D727B60691E170C053A3328214F465D49
:1026A000546B627970070E151C232A313841485348
:1026B0005A656C777E09001B122D243F3658514A0B
:1026C000437C756E671019020B343D262F737A61B7
:1026D00068575E454C3B3229201F160D046A63780B
:1026E000714E475C55222B3039060F141D252C37AF
:1026F0003E0108131A6D647F7649405B523C352ECB
:102700002718110A03747D666F5059424B171E0536
:102710000C333A21285F564D447B7269600E071CCA
:10272000152A233831464F545D626B70797C3C3EEC
:102730005E2B3D3F2F5B5D3B2C2A225C0001FFFF9F
:10274000FFFFFFFFFFFFFFFFFFFFFF0FFFFFFFFF89
:10275000FFFFFFFFFFFFFFFFFF1E00000000000064
:102760000000000007FFFF3800000000000000002C
:10277000000003FFFF7000000000000000000000E8
:1027800001FFFF600000000000000000000000FFEB
:10279000FF6000000000000000000000007FFFC09C
:1027A00000000000000000007800003FFFC00FC0E4
:1027B000FC00000000007818001FFFC03FE1FF0090
:1027C00000000000783C000FFFC07FF3FF80000096
:1027D0000000783C0007FFC0FFFFFFC000000000C2
:1027E000783C0003FFC1F87F87E00000000078001C
:1027F0000001FFC1F03F03E000000000780000008E
:10280000FFC1E01E01E01F0003E0783C03F07FC140
:10281000E01E01E07FC00FF8783C07FC3FC1E01EDE
:1028200001E1FFE01FFC783C0FFE1FC1E01E01E349
:10283000FFF03FFE783C1FFE0FC1E01E01E3F3F8FE
:102840003F3E783C3F3F07C1E01E01E7E0FC7C1FB4
:10285000783C3E1F07C1E01E01E7C07C7C0F783C3E
:102860003C0F03C1E01E01E7807C780F783C3C0FF1
:1028700003C1E01E01E7803C7800783C3C0F03C1B7
:10288000E01E01E7803C7800783C3C0F03C1E01E6D
:1028900001E7803C7800783C3C0F03C1E01E01E773
:1028A000C03C7800783C3C0F03C1E01E01E3E03CF3
:1028B00078007C3C3C0F03C1E01E01E3FF3FF800C1
:1028C0007FBC3C0F03C1E01E01E1FF3FF8003FBFAA
:1028D000FC0F03C1E01E01E0FF3FF8001FBFFC0F2B
:1028E00003C1E01E01E07F3FF8000FBFFC0F036053
:1028F0000000000000000000000000000760000071
:102900000000000000000000000006700000000051
:1029100000000000000000000E3800000000000071
:102920000000000000001C1E00000000000000006D
:1029300000000000780FFFFFFFFFFFFFFFFFFFFF1A
:10294000FFFFF001FFFFFFFFFFFFFFFFFFFFFFFFA4
:102950008001FFFFFFFFFFFFFFFFFFFFFFFFFF0FF4
:10296000FFFFFFFFFFFFFFFFFFFFFFFFFF1E000056
:10297000000000000000000007FFFF38000000001A
:1029800000000000000003FFFF70000000000000D6
:102990000000000001FFFF600000000000000000D8
:1029A000000000FFFF6000000000000000000000C9
:1029B000007FFFC000000000000000007800003F22
:1029C000FFC00FC0FC00000000007818001FFFC00F
:1029D0003FE1FF0000000000783C000FFFC07FF3E4
:1029E000FF8000000000783C0007FFC0FFFFFFC031
:1029F00000000000783C0003FFC1F87F87E0000082
:102A0000000078000001FFC1F03F03E0000000007B
:102A100078000000FFC1E01E01E01F0003E0783CE9
:102A200000007FC1E01E01E07FC00FF8783C00008D
:102A30003FC1E01E01E1FFE01FFC783C00001FC128
:102A4000E01E01E3FFF03FFE783C00000FC1E01EF6
:102A500001E3F3F83F3E783C000007C1E01E01E7C8
:102A6000E0FC7C1F783C000007C1E01E01E7C07C51
:102A70007C0F783C000003C1E01E01E7807C780FEA
:102A8000783C000003C1E01E01E7803C7800783C00
:102A9000000003C1E01E01E7803C7800783C0000A4
:102AA00003C1E01E01E7803C7800783C000003C1D0
:102AB000E01E01E7C03C7800783C000003C1E01E46
:102AC00001E3E03C78007C3C000003C1E01E01E330
:102AD000FF3FF8007FBC000003C1E01E01E1FF3FA3
:102AE000F8003FBF000003C1E01E01E0FF3FF80017
:102AF0001FBF000003C1E01E01E07F3FF8000FBFD1
:102B00000000036000000000000000000000000062
:102B100007600000000000000000000000000670D8
:102B20000000000000000000000000000E3800005F
:102B3000000000000000000000001C1E000000005B
:102B40000000000000000000780FFFFFFFFFFFFF04
:102B5000FFFFFFFFFFFFF001FFFFFFFFFFFFFFFF92
:102B6000FFFFFFFF8001FFFFFFFFFFFFFFFFFFFFF2
:102B7000FFFFFF0FFFFFFFFFFFFFFFFFFFFFFFFF55
:102B8000FF1E0000000000000000000007FFFF38EB
:102B90000000000000000000000003FFFF700000C4
:102BA000000000000000000001FFFF6000000000C6
:102BB00000000000000000FFFF60000000000000B7
:102BC00000000000007FFFC00000000000000000C7
:102BD0007800003FFFC00FC0FC000000000078003C
:102BE000001FFFC03FE1FF00000000007800000F61
:102BF000FFC07FF3FF800000000078000007FFC0E7
:102C0000FFFFFFC00000000078000003FFC1F87F55
:102C100087E00000000078000001FFC1F03F03E002
:102C20000000000078000000FFC1E01E01E01F006E
:102C300003E0780000007FC1E01E01E07FC00FF8D4
:102C4000780000003FC1E01E01E1FFE01FFC7800BA
:102C500000001FC1E01E01E3FFF03FFE780000000E
:102C60000FC1E01E01E3F3F83F3E7800000007C10A
:102C7000E01E01E7E0FC7C1F7800000007C1E01EB9
:102C800001E7C07C7C0F7800000003C1E01E01E773
:102C9000807C780F7800000003C1E01E01E7803CD3
:102CA00078007800000003C1E01E01E7803C780056
:102CB0007800000003C1E01E01E7803C7800780046
:102CC000000003C1E01E01E7C03C7800780000006E
:102CD00003C1E01E01E3E03C78007C00000003C17A
:102CE000E01E01E3FF3FF8007F00000003C1E01E8B
:102CF00001E1FF3FF8003F00000003C1E01E01E0DA
:102D0000FF3FF8001F00000003C1E01E01E07F3F0D
:102D1000F8000F0000000360000000000000000049
:102D2000000000000760000000000000000000003C
:102D3000000006700000000000000000000000001D
:102D40000E380000000000000000000000001C1E03
:102D5000000000000000000000000000780FFFFFEE
:102D6000FFFFFFFFFFFFFFFFFFFFF001FFFFFFFF80
:102D7000FFFFFFFFFFFFFFFF8001FFFFFFFFFFFFE0
:102D8000FFFFFFFFFFFFFF0FFFFFFFFFFFFFFFFF43
:102D9000FFFFFFFFFF1E000000000000000000001A
:102DA00007FFFF380000000000000000000003FFE4
:102DB000FF700000000000000000000001FFFF6045
:102DC0000000000000000000000000FFFF600000A5
:102DD0000000000000000000007FFFC000000000B5
:102DE000000000000000003FFFC00FC0FC0000001A
:102DF00000000000001FFFC03FE1FF0000000000D6
:102E00000000000FFFC07FF3FF8000000000000003
:102E10000007FFC0FFFFFFC000000000000000032C
:102E2000FFC1F87F87E00000000000000001FFC143
:102E3000F03F03E00000000000000000FFC1E01EC2
:102E400001E01F0003E0000000007FC1E01E01E080
:102E50007FC00FF8000000003FC1E01E01E1FFE06D
:102E60001FFC000000001FC1E01E01E3FFF03FFE59
:102E7000000000000FC1E01E01E3F3F83F3E000038
:102E8000000007C1E01E01E7E0FC7C1F000000001D
:102E900007C1E01E01E7C07C7C0F0000000003C1F9
:102EA000E01E01E7807C780F0000000003C1E01EF7
:102EB00001E7803C78000000000003C1E01E01E74C
:102EC000803C78000000000003C1E01E01E7803C68
:102ED00078000000000003C1E01E01E7C03C78005C
:102EE0000000000003C1E01E01E3E03C78000000A8
:102EF000000003C1E01E01E3FF3FF80000000000F6
:102F000003C1E01E01E1FF3FF8000000000003C123
:102F1000E01E01E0FF3FF8000000000003C1E01EDA
:102F200001E07F3FF80000000000036000000000A7
:102F3000000000000000000007600000000000002A
:102F4000000000000000067000000000000000000B
:102F5000000000000E38000000000000000000002B
:102F600000001C1E00000000000000000000000027
:102F7000780FFFFFFFFFFFFFFFFFFFFFFFFFF001E5
:102F8000FFFFFFFFFFFFFFFFFFFFFFFF8001FFFFCE
:102F9000FFFFFFFFFFFFFFFFFFFFFF0FFFFFFFFF31
:102FA000FFFFFFFFFFFFFFFFFF1E0000000000000C
:102FB0000000000007FFFF380000000000000000D4
:102FC000000003FFFF700000000000000000000090
:102FD00001FFFF600000000000000000000000FF93
:102FE000FF6000000000000000000000007FFFC044
:102FF00000000000000000000000003FFFC00FC004
:10300000FC00000000000000001FFFC03FE1FF00C7
:10301000000000000000000FFFC07FF3FF800000F1
:10302000000000000007FFC0FFFFFFC0000000001D
:1030300000000003FFC1F87F87E0000000000000EF
:103040000001FFC1F03F03E00000000000000000AD
:10305000FFC1E01E01E01F000000000000007FC172
:10306000E01E01E07FC00000000000003FC1E01E44
:1030700001E1FFE00000000000001FC1E01E01E3CD
:10308000FFF00000000000000FC1E01E01E3F3F8B4
:1030900000000000000007C1E01E01E7E0FC0000A6
:1030A0000000000007C1E01E01E7C07C0000000036
:1030B000000003C1E01E01E7807C0000000000006A
:1030C00003C1E01E01E7803C00000000000003C1D6
:1030D000E01E01E7803C00000000000003C1E01E8C
:1030E00001E7803C00000000000003C1E01E01E792
:1030F000C03C00000000000003C1E01E01E3E03C12
:1031000000000000000003C1E01E01E3FF3F0000DB
:103110000000000003C1E01E01E1FF3F00000000CD
:10312000000003C1E01E01E0FF3F000000000000BE
:1031300003C1E01E01E07F3F0000000000000360CB
:103140000000000000000000000000000760000018
:1031500000000000000000000000067000000000F9
:1031600000000000000000000E3800000000000019
:103170000000000000001C1E000000000000000015
:1031800000000000780FFFFFFFFFFFFFFFFFFFFFC2
:10319000FFFFF001FFFFFFFFFFFFFFFFFFFFFFFF4C
:1031A0008001FFFFFFFFFFFFFFFFFFFFFFFFFF0F9C
:1031B000FFFFFFFFFFFFFFFFFFFFFFFFFF1E0000FE
:1031C000000000000000000007FFFF3800000000C2
:1031D00000000000000003FFFF700000000000007E
:1031E0000000000001FFFF60000000000000000080
:1031F000000000FFFF600000000000000000000071
:10320000007FFFC000000000000000000000003F41
:10321000FFC00FC0FC00000000000000001FFFC046
:103220003FE1FF00000000000000000FFFC07FF33F
:10323000FF800000000000000007FFC0FFFFFFC08C
:103240000000000000000003FFC1F87F87E00000DD
:10325000000000000001FFC1F03F03E0000000009B
:1032600000000000FFC1E01E01E0000000000000BF
:1032700000007FC1E01E01E000000000000000002F
:103280003FC1E01E01E000000000000000001FC17F
:10329000E01E01E000000000000000000FC1E01E81
:1032A00001E0000000000000000007C1E01E01E096
:1032B000000000000000000007C1E01E01E0000067
:1032C00000000000000003C1E01E01E0000000005B
:1032D0000000000003C1E01E01E00000000000004B
:1032E000000003C1E01E01E000000000000000003B
:1032F00003C1E01E01E0000000000000000003C167
:10330000E01E01E0000000000000000003C1E01E1C
:1033100001E0000000000000000003C1E01E01E029
:10332000000000000000000003C1E01E01E00000FA
:1033300000000000000003C1E01E01E000000000EA
:103340000000000003C1E01E01E0000000000000DA
:10335000000003600000000000000000000000000A
:103360000760000000000000000000000000067080
:103370000000000000000000000000000E38000007
:10338000000000000000000000001C1E0000000003
:103390000000000000000000780FFFFFFFFFFFFFAC
:1033A000FFFFFFFFFFFFF001FFFFFFFFFFFFFFFF3A
:1033B000FFFFFFFF8001FFFFFFFFFFFFFFFFFFFF9A
:1033C000FFFFFF0FFFFFFFFFFFFFFFFFFFFFFFFFFD
:1033D000FF1E0000000000000000000007FFFF3893
:1033E0000000000000000000000003FFFF7000006C
:1033F000000000000000000001FFFF60000000006E
:1034000000000000000000FFFF600000000000005E
:1034100000000000007FFFC000000000000000006E
:103420000000003FFFC0000000000000000000009E
:10343000001FFFC000000000000000000000000F9F
:10344000FFC0000000000000000000000007FFC0F7
:10345000000000000000000000000003FFC00000AA
:1034600000000000000000000001FFC0000000009C
:103470000000000000000000FFC00000000000008D
:103480000000000000007FC00000000000000000FD
:10349000000000003FC0000000000000000000002D
:1034A00000001FC00000000000000000000000003D
:1034B0000FC000000000000000000000000007C076
:1034C00000000000000000000000000007C0000035
:1034D0000000000000000000000003C00000000029
:1034E000000000000000000003C000000000000019
:1034F00000000000000003C0000000000000000009
:103500000000000003C000000000000000000000F8
:10351000000003C0000000000000000000000000E8
:1035200003C000000000000000000000000003C015
:1035300000000000000000000000000003C00000C8
:103540000000000000000000000003C000000000B8
:10355000000000000000000003C0000000000000A8
:1035600000000000000003600000000000000000F8
:1035700000000000076000000000000000000000E4
:1035800000000670000000000000000000000000C5
:103590000E380000000000000000000000001C1EAB
:1035A000000000000000000000000000780FFFFF96
:1035B000FFFFFFFFFFFFFFFFFFFFF001FFFFFFFF28
:1035C000FFFFFFFFFFFFFFFF800200000000000081
:1035D00000000000000000000000000000000000EB
:1035E0000000000000000000000000047F03E00075
:1035F00001F8000F00007F8003F0000C7F03F00053
:1036000003F8001F80007FC007F0000C7F03F80064
:1036100007F8003F80007FC00FF0001C7F03FC0014
:103620000FF8003FC0003FE01FF0001C7F03FE00CA
:103630001FF8003FC0001FF03FF0003C7F01FF007B
:103640003FF8001FE0000FF87FF0003C7F00FF8094
:103650007FF8000FE00007F87FE0007C7F007FC06C
:10366000FFF8000FF00007FC3FC0007C7F003FE147
:10367000FFF80007F80003FE1F8000FC7F001FFF1B
:10368000FFF80187F80001FF0F0000FC7F030FFF28
:10369000FFF801C3FC0000FF860001FC7F0387FFE9
:1036A000F3F803E3FC00007F800001FC7F03C3FF0D
:1036B000E3F803E1FE00007FC00003FC7F03E1FFAD
:1036C000C3F807F1FE00003FE00003FC7FE3F0FFDA
:1036D00083F807F0FF00001FF00007FC7FE3F87F8E
:1036E00003F80FF07F00000FF00007FC7FE3F81EE7
:1036F00003F80FE07F80000FF8000FFC7FE3F80075
:1037000003F81FE3FF800387FC000FFC7FE3F80052
:1037100003F81FC3FFC007C3FE001FFC7FE3F800D0
:1037200003F83FC7FFC00FE1FE0000007F03F80071
:1037300003F83F87FFE01FF1FF0000007F03F80060
:1037400003F87F8FFFE03FF0FF8000007F03F80069
:1037500003F87F0FFFF07FF07FC000007F03F800C9
:1037600003F8FF0007F0FFE03FC000007F03F80010
:1037700003F8FE0007F8FFC03FE000007F03F800F9
:1037800003F9FE0003F8FF801FF000007F03F8003C
:1037900003F9FC0003FCFF000FF000007F03F800BA
:1037A00003FBFC0001FCFE000FF000000000000025
:1037B0000000000000000000000000000000000009
:1037C0000000000000000000000068747470733A8C
:1037D0002F2F6769742E696F2F666A587A720034CA
:1037E0004D415820322E302E3630303452656C2EFA
:1037F00000B533A1318D2F792D652B51293D2770CF
:10380000012C0190012701B0012201C0011D01F02E
:103810000118011002130130020E0160020901902B
:10382000020401C002FF000003FA004003F500801B
:1038300003F000D003EB002004E6007004E100E098
:1038400004DC004005D700C005D2004006CD00D002
:1038500006C8008007C3003008BE00F008B900C0E9
:1038600009B400B00AAF00B00BAA00D00CA500004C
:103870000EA000500F9B00C0109600501291000047
:10388000148C00C0158700B0178200B0197D00D0DD
:103890001B7800001E730040206E0090226900F02B
:1038A00024640040275F0090295A00E02B55001047
:1038B0002E500020304B0010324600E03341009083
:1038C000353C001037370070383200A0392D00B079
:1038D0003A2800A03B2300603C1E00103D190090D8
:1038E0003D1400103E0F00703E0A00C03E0500006F
:1038F0003F0000403FFBFF803FF6FFC03FF1FF204D
:1039000020506C616E6E65724275666665724279B2
:103910007465733A20002046726565204D656D6FB1
:1039200072793A2000436F6D70696C65643A20418A
:10393000756720323220323032300A00204C6173F9
:103940007420557064617465643A20323032302DD1
:1039500030372D3238207C20417574686F723A20E0
:103960002847336D316E315333727633722C2041D8
:103970006E79637562696320344D4158290A0034B9
:103980004D415820322E302E3630303452656C2E58
:103990000A004D61726C696E0020536F6674776126
:1039A00072652052657365740A00205761746368FC
:1039B000646F672052657365740A002042726F77E6
:1039C0006E206F75742052657365740A0020457807
:1039D0007465726E616C2052657365740A00506F75
:1039E00077657255700A0073746172740A006175AC
:1039F000746F25632E67004732385859004D3130B7
:103A00003031006572726F722077726974696E6707
:103A100020746F2066696C650A00446F6E652073C0
:103A20006176696E672066696C652E0A004D3239D1
:103A300000456E6473746F707000255320256320F9
:103A4000256320256320256300205A3A0020593A37
:103A50000020583A00656E6473746F707320686953
:103A6000743A20003F0041626272656368656E00CF
:103A700042657374C3A4746967656E004D3432384F
:103A8000005765726B7365696E7374656C6C756EE7
:103A900067656E0046696C616D656E740054656D96
:103AA000706572617475720053746570732F6D6DFB
:103AB00000536F6E64656E7665727361747A004A46
:103AC000756E6374696F6E2044657600426573633A
:103AD000686C65756E6967756E67004765736368C6
:103AE00077696E6469676B656974005365747A659C
:103AF00020486F6D657665727361747A004B6F6EE6
:103B000066696775726174696F6E003F004EC3A489
:103B10006368737465204B6F6F7264696E6174655E
:103B2000004665727469670057656974657200487C
:103B30006F6D696E672058595A004B6F6E666967E2
:103B40002E2073706569636865726E004B6F6E66D8
:103B500069672E206C6164656E0045636B656E203D
:103B60006E6976656C6C696572656E00536F6E6424
:103B7000656E7665727361747A205A00417573625E
:103B80006C656E6468C3B668650061757300616ECC
:103B900000426574742D4E6976656C6C696572754A
:103BA0006E67004732380A473239004732390042DF
:103BB000657474206E6976656C6C696572656E00FB
:103BC0004175746F20486F6D650042657765677554
:103BD0006E670045696E66616872656E0041757357
:103BE00066616872656E0053656C627374746573A8
:103BF00074005A7572C3BC636B7365747A656E002A
:103C000053572D4D6F64757300417573736368610D
:103C10006C742044656C6179004CC3BC6674657239
:103C2000204D6F746F726C617374004D6F746F729E
:103C30006C617374204D6F647573004CC3BC667403
:103C40006572204C6565726C61756600446F6E65C7
:103C50002E0A0050756C73696E6720202000556E27
:103C6000746F7563686564200066616C73650046F7
:103C700041494C3A204E6F20747269676765722023
:103C800064657465637465640A004641494C3A2072
:103C90004E6F697365206465746563746564202D77
:103CA00020706C656173652072652D72756E20746D
:103CB0006573740A002064657465637465642E0A14
:103CC000003D20424C546F75636820707265205629
:103CD000332E3120286F7220636F6D7061746962BA
:103CE0006C6529003D205A20536572766F20507212
:103CF0006F6265003D20424C546F756368205633F7
:103D00002E310020282B2F2D20346D73293A2000CE
:103D10003A2033306D73206F72206D6F72650A0028
:103D20002E2050756C7365207769647468002A2AA8
:103D300020506C65617365207472696767657220D5
:103D400070726F62652077697468696E2033302005
:103D5000736563202A2A0A004641494C3A20424CA6
:103D6000544F55434820656E61626C6564202D2078
:103D70005365742075702074686973206465766972
:103D80006365206173206120536572766F205072E5
:103D90006F6265207769746820494E5645525449D0
:103DA0004E472073657420746F20277472756527E1
:103DB0002E0A0020204445504C4F5945442073742E
:103DC0006174653A204C4F5720286C6F67696320F7
:103DD00030290020204445504C4F594544207374ED
:103DE0006174653A204849474820286C6F676963C9
:103DF000203129003D204D656368616E6963616C07
:103E000020537769746368206465746563746564BE
:103E10000A005741524E494E473A20494E564552A4
:103E200054494E472073657474696E672070726FD1
:103E30006261626C79206261636B77617264732E78
:103E40000A002E204465706C6F7920262073746FF1
:103E50007720342074696D65730A003D20424C540C
:103E60006F75636820436C617373696320312E3210
:103E70002C20312E332C20536D61727420312E3062
:103E80002C20322E302C20322E322C20332E302C6F
:103E900020332E312064657465637465642E0A00D6
:103EA0002E20436865636B20666F7220424C544F2E
:103EB0005543480A002E205A5F4D494E5F454E44F7
:103EC00053544F505F494E56455254494E473A203D
:103ED000002E2050726F6265205A5F4D494E5F5030
:103EE000494E3A20002C2073746F7720616E676C06
:103EF000653A202020002C206465706C6F79206169
:103F00006E676C653A2000536572766F2070726F31
:103F1000626520746573740A2E207573696E67205C
:103F2000696E6465783A2020005761746368696E31
:103F3000672070696E730A0064697300656E0061C2
:103F4000626C65640A00656E6473746F70206D6FD7
:103F50006E69746F722000204D393220580020584D
:103F60000020204D61783A2000200020204D696E0D
:103F70003A2000536F667420656E6473746F7073BB
:103F80003A2000496E76616C69642050696E204D5C
:103F90006F64650A0025290A00252000203B20289F
:103FA0000020440020410020490020204D373130BE
:103FB0002053003B20436F6E74726F6C6C657220EF
:103FC00046616E0A0020496E76616C6964206578EE
:103FD000747275646572200024F4D43050C38E204E
:103FE000C2A24017828B7011127A910D816CD90A8E
:103FF000A861E108C7586607615143061E4B5D057D
:10400000C145A7041A411104093D980371393103D0
:104010004036DB0265339102D4305402802E1D02FB
:10402000632CEE01752AC501B028A001102781017B
:104030008F2564012B244B01E0223401AC211F01A8
:104040008D200D01801FFC00841EED00971DDF00F8
:10405000B81CD200E61BC600201BBC00641AB200CC
:10406000B219A8000A19A0006A189900D117910086
:1040700040178B00B516840031167E00B315790009
:104080003A157300C7146F0058146A00EE136600E7
:104090008813630025135E00C7125B006C12570083
:1040A00015125400C111510070114F0021114B0025
:1040B000D61049008D1047004610440002104200FF
:1040C000C00F4000800F3E00420F3C00060F3B0037
:1040D000CB0E3800930E37005C0E3500270E3400EF
:1040E000F30D3200C10D3100900D3000600D2E0037
:1040F000320D2D00050D2C00D90C2B00AE0C290023
:10410000850C29005C0C2700350C27000E0C2600BE
:10411000E80B2400C40B2400A00B23007D0B23001C
:104120005A0B2100390B2100180B2000F80A1F0040
:10413000D90A1E00BB0A1E009D0A1D00800A1D0030
:10414000630A1C00470A1B002C0A1B00110A1A00F4
:10415000F7091A00DD091900C4091900AB09190093
:10416000920917007B091800630917004C09160013
:1041700036091600200916000A091500F508150071
:10418000E0081400CC081400B8081400A4081400B7
:10419000900813007D0812006B08130058081200E5
:1041A00046081200340811002308110012081100FB
:1041B00001081100F0071000E0071000D007100000
:1041C000C0071000B0070F00A107100091070E00F4
:1041D00083070F0074070F0065070E0057070E00D6
:1041E00049070E003B070D002E070E0020070D00AB
:1041F00013070D0006070D00F9060C00ED060D0073
:10420000E0060C00D4060C00C8060C00BC060C002E
:10421000B0060C00A4060B0099060C008D060B00DE
:1042200082060B0077060B006C060B0061060A0085
:1042300057060B004C060A0042060A0038060A0020
:104240002E060A0024060A001A060A0010060900B3
:1042500007060A00FD050900F4050900EB05090041
:10426000E2050900D9050900D0050900C7050900C4
:10427000BE050900B5050800AD050800A505090043
:104280009C050800940508008C05080084050800BA
:104290007C050800740508006C050700650508002A
:1042A0005D050700560508004E0507004705070095
:1042B0004005080038050700310507002A050700FA
:1042C000230507001C050600160507000F0507005B
:1042D0000805060002050700FB040600F5040700B8
:1042E000EE040600E8040600E2040700DB04060012
:1042F000D5040600CF040600C9040600C304060066
:10430000BD040600B7040600B1040500AC040600B5
:10431000A6040600A00405009B0406009504050001
:10432000900406008A040500850405008004060048
:104330007A04050075040500700405006B0405008F
:1043400066040500610405005C04050057040500CF
:10435000520405004D04050048040500430405000F
:104360003E0404003A04050035040500300404004E
:104370002C04050027040400230405001E04040087
:104380001A04040016040500110404000D040400BE
:10439000090405000404040000040400FC030400F4
:1043A000F8030400F4030400F0030400EC03040029
:1043B000E8030400E4030400E0030400DC03040059
:1043C000D8030400D4030400D0030400CC03040089
:1043D000C8030300C503030024F404D9201BC40C44
:1043E0005C0E9804C4095F0265077101F405F900C9
:1043F000FB04B30048048700C1036900580355005B
:1044000003034500BE023A008402310053022A0031
:104410002902250004022000E4011C00C801190043
:10442000AF011700980114008401130071011000FE
:104430006101100051010E0043010D0036010B0017
:104440002B010B0020010B00150109000C010900D4
:1044500003010800FB000800F3000800EB00070060
:10446000E4000600DE000600D8000600D2000600C8
:10447000CC000500C7000500C2000500BD00040017
:10448000B9000400B5000400B1000400AD00040050
:10449000A9000400A5000300A20003009F0004007F
:1044A0009B000300980003009500020093000300A6
:1044B000900003008D0002008B00030088000200C2
:1044C0008600020084000300810002007F000200D9
:1044D0007D0002007B0002007900020077000100ED
:1044E00076000200740002007200010071000200F8
:1044F0006F0002006D0001006C0002006A00010004
:10450000690002006700010066000100650001000B
:10451000640002006200010061000100600001000F
:104520005F0002005D0001005C0001005B00010013
:104530005A00010059000100580001005700010015
:104540005600010055000100540001005300000016
:104550005300010052000100510001005000010011
:104560004F0001004E0000004E0001004D00010010
:104570004C0001004B0000004B0001004A0001000C
:104580004900010048000000480001004700010008
:104590004600000046000100450000004500010003
:1045A00044000100430000004300010042000000FD
:1045B00042000100410000004100010040000100F4
:1045C0003F0000003F0001003E0000003E000100EF
:1045D0003D0000003D0001003C0000003C000000E8
:1045E0003C0001003B0000003B0001003A000000DD
:1045F0003A000100390000003900010038000000D5
:1046000038000000380001003700000037000100CA
:1046100036000000360000003600010035000000C2
:1046200035000000350001003400000034000000B7
:1046300034000100330000003300000033000100AB
:1046400032000000320000003200010031000000A2
:104650003100000031000100300000003000000097
:10466000300001002F0000002F0000002F0000008C
:104670002F0001002E0000002E0000002E0001007F
:104680002D0000002D0000002D0000002D00010075
:104690002C0000002C0000002C0000002C00010069
:1046A0002B0000002B0000002B0000002B0001005D
:1046B0002A0000002A0000002A0000002A00010051
:1046C0002900000029000000290000002900000046
:1046D0002900010028000000280000002800000038
:1046E000280000002800010027000000270000002B
:1046F000270000002700000027000100260000001E
:104700002600000026000000260000002600010010
:104710002500000025000000250000002500000005
:1047200025000000250001002400000024000000F6
:1047300024000000240000002400010023000000E9
:1047400023000000230000002300000023000000DD
:1047500023000000230001002200000022000000CE
:1047600022000000220000002200000022000100C0
:1047700021000000210000002100000021000000B5
:1047800021000000210000002100010020000000A5
:104790002000000020000000200000002000000099
:1047A0002000000020000000200001001F00000089
:1047B0001F0000001F0000001F0000001F0000007D
:1047C0001F0000001F0001001E0000001E0000006E
:1047D0001E0000001E0000003930000033250000DC
:1047E00087190000B00F0000DB080000BD040000C6
:1047F000740200003F010000447275636B20706119
:104800007573696572742E2E2E00344D4158202D1B
:104810002076673372206265726569740044727530
:10482000636B742E2E2E00220A00556E6B6E6F770E
:104830006E20636F6D6D616E643A202200DB0FC9DC
:104840003F45BCDA3F8FB30240FCF02740569461ED
:1048500040FE4B9B4084A5D840E0231841346A5663
:1048600041E859974164DBD5416E271742B4B755EB
:1048700042CE1A9742C8AED542B5885A43D4068470
:10488000BFA65FA7BF7443E0BF10B11AC01C2C586D
:10489000C0E8F697C0B849D6C04E4E17C124D355CC
:1048A000C1802497C1A0B5D5C1121A17C244AE5514
:1048B000C2781797C26CACD5C267885AC320746F90
:1048C0006F206C6F6E6720657874727573696F6E98
:1048D0002070726576656E7465640A0020636F6C83
:1048E0006420657874727573696F6E207072657676
:1048F000656E7465640A0020436F756E7420583AC3
:1049000000004265747400453100626564002C202B
:1049100073797374656D2073746F70706564212092
:104920004865617465725F49443A20004845495AB8
:10493000454E204552464F4C474C4F530048656109
:1049400074696E67206661696C656400202D20497A
:104950006E76616C69642065787472756465722026
:104960006E756D62657220210A002008204E494351
:104970004854204552524549434854005468657292
:104980006D616C2052756E6177617900200820C3DB
:104990009C42455253434852495454454E004D4160
:1049A0005854454D5020747269676765726564009C
:1049B000200820554E5445525343485249545445BB
:1049C0004E004D494E54454D5020747269676765DD
:1049D000726564000A0A0020205A5F4D494E3A0071
:1049E0002020595F4D494E3A002020585F4D494ED6
:1049F0003A00202F002042403A0020403A00464929
:104A00004C414D454E5420454E544C4144454E007A
:104A100046494C414D454E54204C4144454E00467C
:104A2000494C414D454E54205745434853454C0051
:104A3000426574740044C3BC7365004CC3BC6674A7
:104A40006572004B6F6E66696775726174696F6E2F
:104A5000005374616E646172647765727465206C72
:104A60006164656E004B6F6E6669672E206C6164D1
:104A7000656E004B6F6E6669672E207370656963A3
:104A80006865726E00242045696E7374656C6C7580
:104A90006E67656E0061757300616E0052756E6FB2
:104AA00075742D53656E736F7200424C546F75634D
:104AB000680042656C6575636874756E67004CC309
:104AC000BC66746572204B6F6E74726F6C6C65722D
:104AD00000536F6E64656E7665727361747A205AE6
:104AE000004572772E2045696E7374656C6C756E27
:104AF00067656E0048617570746D656EC3BC004D6E
:104B000037303220542564004D363030204230207A
:104B1000542564004D373032203B2564004D37303A
:104B20003120542564004D373032004D373031008C
:104B30004D3630302042300048617570746D656EBE
:104B4000C3BC00447275636B20776569746572003D
:104B500061757300616E0052756E6F75742D5365CB
:104B60006E736F72004D65687220656E746C61645F
:104B7000656E00464F5254532E204F5054494F4EAD
:104B8000454E3A00445255434B20504155534945F8
:104B9000525400202044C3BC73653A20004265741F
:104BA0007400476568C3A4757365003A0A00202045
:104BB0004D363033200020204D3431322053004612
:104BC000696C616D656E742072756E6F757420739B
:104BD000656E736F723A002055004C0046696C6137
:104BE0006D656E74206C6F61642F756E6C6F61649F
:104BF000206C656E677468733A0020204D3835313B
:104C00002058005A2D50726F6265204F666673659A
:104C1000740020440020490020204D3330342050BF
:104C20000020440020490020204D33303120500026
:104C30005049442073657474696E67733A00204666
:104C40000020420020480020204D31343520530000
:104C50004D6174657269616C20686561747570205E
:104C6000706172616D65746572733A00204A00204C
:104C700020473239205720490020204D343230203F
:104C800053004175746F20426564204C6576656CF5
:104C9000696E673A0020204D323036205800486F48
:104CA0006D65206F66667365743A00204A00205374
:104CB0000020204D323035204200416476616E6321
:104CC00065643A20423C6D696E5F7365676D656E21
:104CD000745F74696D655F75733E20533C6D696EDA
:104CE0005F66656564726174653E20543C6D696EF3
:104CF0005F74726176656C5F666565647261746528
:104D00003E204A3C6A756E635F6465763E002054BF
:104D10000020520020204D32303420500041636387
:104D2000656C65726174696F6E2028756E69747345
:104D30002F7332293A20503C7072696E745F616340
:104D400063656C3E20523C726574726163745F618E
:104D50006363656C3E20543C74726176656C5F6180
:104D60006363656C3E0020204D3230312058004D89
:104D70006178696D756D20416363656C65726174FE
:104D8000696F6E2028756E6974732F7332293A002B
:104D9000204500205A0020590020204D3230332079
:104DA00058004D6178696D756D2066656564726146
:104DB0007465732028756E6974732F73293A0053D4
:104DC000746570732070657220756E69743A002086
:104DD000440020204D32303020530020446973615C
:104DE000626C65640A0046696C616D656E7420735F
:104DF000657474696E67733A0020204D3134392030
:104E000043203B20556E69747320696E2043656CA6
:104E1000736975730A0020286D6D290020204732C0
:104E200031202020203B20556E69747320696E204C
:104E30006D6D00486F6D696E6720676573636865A7
:104E40006974657274006F70656E0054524947470B
:104E500045524544003A200066696C616D656E7488
:104E6000007A5F6D696E00795F6D696E00785F6DC5
:104E7000696E005265706F7274696E6720656E644A
:104E800073746F70207374617475730A0020746F8B
:104E90006F206C6F6E6720657874727573696F6EC2
:104EA0002070726576656E7465640A0020636F6CAD
:104EB0006420657874727573696F6E2070726576A0
:104EC000656E7465640A00566F726865722025739A
:104ED0002573257320686F6D656E001FE03FF03FFE
:104EE000F03FF01FE01FE03FF03FF03FF00FC00742
:104EF0008003001FE0201020102010102010202020
:104F000010201030300840048003003FFFF83E00BE
:104F1000F839F03831E01831E01821E1E820F3E801
:104F2000207FE82077E828EE282FDC082FFC082FC8
:104F30009E082F0F08300F18300F18381F383E000A
:104F4000F83FFFF83FFFF83E00F8383F38307E1852
:104F5000307C18287C082C38082F39C82FFFE82F00
:104F6000C7E82FFFE82739E8203868207C28307C04
:104F70001830FC1839F8383E00F83FFFF83FFFF8CA
:104F80003E00F8380F38341FD8361F982F1F082FCF
:104F90009E082FFC082FDC0827EFC82077E8207F29
:104FA000E820F3E821F1E833F0D837F05839E03859
:104FB0003E00F83FFFF83FFFF83E80F83980383771
:104FC00081D837C3D827C7E823C7F821FF88206CCA
:104FD00008206C08206C0823FF083FC7882FC7C82B
:104FE0003787D83703D83803383E02F83FFFF81F19
:104FF000FFF81FFFF80410400208200208200410E8
:10500000400820801041001041000820800410401A
:105010000000001FFFF81FFFF80000000000002143
:1050200000140706003372D1C089003F0B15210917
:10503000002D3A15220900214A15240900213A15AC
:1050400027A600000000000000FFFFFFFFFFC000D8
:1050500000000000000B1870E1C3801B0CF0E0E7BB
:10506000003B27F07076003B33F13030007B333368
:10507000B818007BB033B80C007BB0373C6E00032F
:1050800030377CE7000330360DC38000000000009D
:1050900000FFFFFFFFFFC00000000000000044739E
:1050A000CE0000004480490000006CF1CE000000FA
:1050B00038904900000010E3C90000000000000023
:1050C0000000000000000000000000000056206DFD
:1050D000696E204C65657266616872740056206D59
:1050E000696E200056206D617820450056206D6164
:1050F00078205A0056206D617820590056206D6145
:105100007820580041206D617820450041206D6174
:1051100078205A0041206D617820590041206D614E
:105120007820580041204C65657266616872740091
:10513000412045696E7A75670042657363686C65E6
:10514000756E6967756E6700536F6E64656E766520
:10515000727361747A205A00536F6E64656E76655F
:10516000727361747A205900536F6E64656E766550
:10517000727361747A205800452053746570732FE0
:105180006D6D005A2053746570732F6D6D0059203A
:1051900053746570732F6D6D005820537465707370
:1051A0002F6D6D004572772E2045696E7374656CA6
:1051B0006C756E67656E002E0A006F70656E2066F6
:1051C00061696C65642C2046696C653A20000000BA
:1051D0002110422063308440A550C660E7700881EA
:1051E00029914AA16BB18CC1ADD1CEE1EFF1311261
:1051F000100273325222B5529442F772D66239933A
:1052000018837BB35AA3BDD39CC3FFF3DEE36224B0
:10521000433420040114E664C774A44485546AA589
:105220004BB528850995EEE5CFF5ACC58DD5533640
:10523000722611163006D776F6669556B4465BB7D9
:105240007AA719973887DFF7FEE79DD7BCC7C44810
:10525000E5588668A7784008611802282338CCC929
:10526000EDD98EE9AFF9488969990AA92BB9F55AA0
:10527000D44AB77A966A711A500A333A122AFDDB79
:10528000DCCBBFFB9EEB799B588B3BBB1AABA66C70
:10529000877CE44CC55C222C033C600C411CAEEDC9
:1052A0008FFDECCDCDDD2AAD0BBD688D499D977E80
:1052B000B66ED55EF44E133E322E511E700E9FFF19
:1052C000BEEFDDDFFCCF1BBF3AAF599F788F8891CF
:1052D000A981CAB1EBA10CD12DC14EF16FE18010B3
:1052E000A100C230E3200450254046706760B983B6
:1052F0009893FBA3DAB33DC31CD37FE35EF3B10203
:105300009012F322D2323542145277625672EAB5C5
:10531000CBA5A89589856EF54FE52CD50DC5E23452
:10532000C324A01481046674476424540544DBA795
:10533000FAB79987B8975FE77EF71DC73CD7D326A2
:10534000F2369106B01657667676154634564CD925
:105350006DC90EF92FE9C899E9898AB9ABA94458F2
:10536000654806782768C018E1088238A3287DCBF5
:105370005CDB3FEB1EFBF98BD89BBBAB9ABB754A42
:10538000545A376A167AF10AD01AB32A923A2EFD85
:105390000FED6CDD4DCDAABD8BADE89DC98D267C92
:1053A000076C645C454CA23C832CE01CC10C1FEFD5
:1053B0003EFF5DCF7CDF9BAFBABFD98FF89F176EE2
:1053C000367E554E745E932EB23ED10EF01E2045B1
:1053D0003A00205A3A0020593A00583A0001021087
:1053E00020200808102040102040800201020108FF
:1053F00004020101020408102040808040201008AF
:105400000402018004020180402010080402010807
:105410000402010102040810204080010204081067
:1054200020408000002200250028002B002E0031A3
:1054300000340002010000050108010B010505050B
:1054400005070508080808020202020A0A080804FB
:105450000404040101010101010101030303030329
:10546000030303040707070C0C0C0C0C0C0C0C02B8
:1054700002020206060606060606060B0B0B0B0BBF
:105480000B0B0B486F6D657665727361747A2061E2
:105490006B746976004572723A20546F6F206661B2
:1054A000722100546F6F206661722066726F6D20EA
:1054B0007265666572656E636520706F696E740AE9
:1054C000004361703A004348414D4245525F5445A4
:1054D0004D50455241545552450042414259535452
:1054E000455050494E470041524353004D4F544997
:1054F0004F4E5F4D4F44455300544845524D414C2B
:105500005F50524F54454354494F4E004C4F4E4705
:105510005F46494C454E414D45004155544F52451B
:10552000504F52545F53445F5354415455530053AA
:1055300044434152440050524F4D50545F535550D4
:10554000504F525400454D455247454E43595F50C8
:10555000415253455200434153455F4C49474854DB
:105560005F4252494748544E45535300544F4747B2
:105570004C455F4C494748545300534F465457419C
:1055800052455F504F574552004255494C445F5079
:10559000455243454E54004C4556454C494E475F95
:1055A00044415441005A5F50524F42450052554EBB
:1055B0004F5554004155544F4C4556454C005052A0
:1055C000494E545F4A4F420050524F475245535341
:1055D000004155544F5245504F52545F54454D5021
:1055E00000564F4C554D4554524943004545505285
:1055F0004F4D0042494E4152595F46494C455F5418
:1056000052414E534645520053455249414C5F5812
:105610004F4E5F584F4646004649524D57415245FE
:105620005F4E414D453A4D61726C696E20344D417B
:105630005820322E302E3630303452656C2E2028D1
:1056400041756720323220323032302032323A34E3
:10565000393A33372920534F555243455F434F441E
:10566000455F55524C3A68747470733A2F2F6769CE
:10567000746875622E636F6D2F47656D696E69532F
:1056800065727665722F4D61726C696E2050524F53
:10569000544F434F4C5F56455253494F4E3A312E6B
:1056A00030204D414348494E455F545950453A34A6
:1056B0004D4158202D20766733722045585452555D
:1056C0004445525F434F554E543A31205555494455
:1056D0003A36616131343637652D666664352D3171
:1056E0003165392D386437312D33363262396531C1
:1056F00035353636370A00290A0020746F20003FFE
:105700005A206F7574206F662072616E676520285D
:1057100000290A0020746F20003F59206F75742003
:105720006F662072616E676520282D00290A0020AF
:10573000746F20003F58206F7574206F662072616F
:105740006E676520282D0050726F6265204F666677
:10575000736574205800220A00656E717565756561
:10576000696E672022006F6B00526573656E643A44
:1057700020000000A0C000000000000000000000A9
:10578000484200004842000020415761726E696E35
:10579000673A20486F6D696E672042756D702044CE
:1057A000697669736F72203C20310A00020204009E
:1057B00000A0400000A04000000040000054430052
:1057C00000574300009443FFFFFF0000000100006A
:1057D00000010000800055555500000040003333A3
:1057E0003300AAAA2A004992240000002000C771B1
:1057F0001C0099991900D1451700555515003BB16A
:1058000013002449120011111100000010000F0FA5
:105810000F00E3380E0043790D00CCCC0C00C330F0
:105820000C00E8A20B0064210B00AAAA0A00703D3C
:105830000A009DD80900427B090092240900DCD3AC
:105840000800888808001042080000000800F0C125
:1058500007008787070075500700711C07003EEBA3
:105860000600A1BC06006990060066660600703E50
:1058700006006118060017F4050074D105005BB03E
:105880000500B29005006272050055550500783993
:105890000500B81E0500050505004EEC040087D480
:1058A0000400A1BD040090A7040049920400C17D3A
:1058B0000400EE690400C7560400444404005C324E
:1058C00004000821040041100400000004003FF01F
:1058D0000300F8E0030026D20300C3C30300CCB5E5
:1058E00003003AA803000A9B0300388E0300C0811E
:1058F00003009F750300D0690300505E03001D5331
:10590000030034480300913D03003333030016299C
:105910000300381F030097150300300C0300030336
:1059200003000BFA020049F10200BAE802005CE051
:1059300002002DD802002DD0020059C80200B0C0CC
:10594000020031B90200DAB10200AAAA0200A0A343
:105950000200BC9C0200FA9502005C8F0200DF8806
:10596000020082820200457C020027760200277036
:105970000200436A02007C640200D05E02003F59CC
:105980000200C8530200FFFDFCFAF8F6F4F2F0EE54
:10599000ECEAE9E7E5E3E1E0DEDCDAD9D7D5D4D219
:1059A000D0CFCDCBCAC8C7C5C3C2C0BFBDBCBAB9B2
:1059B000B7B6B4B3B2B0AFADACAAA9A8A6A5A4A21D
:1059C000A1A09E9D9C9A99989795949392908F8E62
:1059D0008D8B8A8988878684838281807F7E7D7B88
:1059E0007A797877767574737271706F6E6D6C6B8F
:1059F0006A696867666564636261605F5E5D5C5B7F
:105A00005A5958585756555453525150504F4E4D5D
:105A10004C4B4A4A49484746464544434242414026
:105A20003F3E3E3D3C3B3B3A3938383736353534DE
:105A30003332323130302F2E2E2D2C2B2B2A292988
:105A400028272726252524232322212120201F1E25
:105A50001E1D1C1C1B1B1A191918181716161515B4
:105A600014131312121111100F0F0E0E0D0D0C0C3A
:105A70000B0A0A09090808070706060505040403B6
:105A8000030202010000454550524F4D20646174ED
:105A90006173697A65206572726F722E0A00290A35
:105AA000002062797465733B206372632000207369
:105AB000746F7265642073657474696E67732072A5
:105AC0006574726965766564202800202863616CBE
:105AD00063756C6174656429210A0020213D2000F2
