:100000000C94BC300C94ED300C94ED300C94ED302D
:100010000C94ED300C94ED300C94ED300C94ED30EC
:100020000C94ED300C94ED300C94ED300C94ED30DC
:100030000C94ED300D9421060C94ED300C94ED30C1
:100040000C94ED300D94572F0C94ED300C94ED3052
:100050000C94ED300C94ED300C949BB90D94373723
:100060000C94ED300C9422500C9418500C94ED30FC
:100070000C94ED300C94ED300C94ED300C94ED308C
:100080000C94B1480C94ED300C94ED300C94ED30A0
:100090000C94ED300C94ED300C94ED300C94ED306C
:1000A0000C94ED300C94ED300C9483480C94ED30AE
:1000B0000C94ED300C94ED300C94ED300C94ED304C
:1000C0000C94ED300C94ED300C94ED300C94ED303C
:1000D0000C94ED300C94ED300C94ED300C94ED302C
:1000E0000C94ED30316E146E176E346E1A6E1D6EF8
:1000F000206E2C6E236E3F6E266E296EB9E5DBE511
:10010000FBE520E645E6FCE76AE68DE6B0E6D5E6E7
:10011000FAE61FE744E769E7FCE78EE7B3E7D8E7CD
:100120006BE96EE972E975E978E9A2E97CE97FE9B2
:1001300083E986E989E98DE990E993E9A2E997E9FC
:100140009AE99DE9B202700122029A016A01CE0287
:10015000AE01E802CC024C010602B40120025401B7
:10016000CE02A402040232013601EC024E019201D9
:100170000A026E01A601A0019C02AE023C01CC0164
:10018000F8016A026E017002DA02AC011E026E0210
:100190008A01F0028A018A018A018A018A018A01A0
:1001A0008A018A018A018A018A018A018A018A01F7
:1001B0008A018A018A018A018A018A018A018A01E7
:1001C0008A018A018A018A01B4028A018A018A01AC
:1001D0008A018A018A018A018A0130028A018A0120
:1001E0008A018A018A018A018A018A018A018A01B7
:1001F00094028802084AD73B3BCE016E84BCBFFD07
:10020000C12F3D6C74319ABD56833DDA3D00C77FE6
:1002100011BED9E4BB4C3E916BAAAABE000000807F
:100220003F05A84CCDB2D44EB93836A9020C50B90E
:10023000918688083CA6AAAA2ABE000000803F003A
:100240000D9466000C9472E90C9453970C946E70A4
:100250000C94FF8B0D9476000C94425C0D94AA4193
:100260000C9487970D94AD0C0C94ED690D944E0F82
:100270000D9466120C9422A10D949A0F0C94CAA1AD
:100280000C9413A10C941A6A0C94D8E70C94D39C88
:100290000C94389B0C947EA20D948D0C0D94580FE9
:1002A0000C94236E0C94206E0D949F0C0C9493E987
:1002B0000C9424980C94266E0C946AE60C9475E9C0
:1002C0000D9428020C945D6A0C94F6500C94E86D21
:1002D0000C94FE6F0D94740C0D946C120D94E50F3C
:1002E0000D947B0C0C94646E0C94099D0C94F46D2D
:1002F0000D946C000D9468000C94E7960C94516A70
:100300000C946BE90C94416E0C94FD690C947CE99F
:100310000C9403700D9415130C943F6E0D946A00A9
:100320000C944C660D94620F0C94D06B0C94159D3C
:100330000C94A2E90D946E0C0C9486A20C94EC5FC4
:100340000D947E0F0D9470000C9444E70D94760F7D
:100350000C94FCE70C940B980D94DB0F0D947F0C20
:100360000C94FBE50C94266A0D94970C0C94316E5A
:100370000C94E9690C94F99B0C94EE6F0C94F96958
:100380000C94C4A10C94F2970C94B8A10C941DA1E8
:100390000C9478E90C94B0E60D94A40F0C94E68BC1
:1003A0000C941FE70C9433660C94146E0C942C97E9
:1003B0000C9465660C94F46F0C9488740C94FB8B0D
:1003C0000C941E9F0C94296E0C941D6E0C94299C09
:1003D0000C94145C0C94DC9C0C9469500C940BA24F
:1003E0000D9474000C94909B0C9418A10C94D767F6
:1003F0000D94B30F0D9445050C9499710C94219DA7
:100400000C94176E0C9450FF0D94A90C0D94910C44
:100410000C94146A0D946C0F0C9486E90C940F7371
:100420000C94FE660C946A500C9445E60C9480A4DF
:100430000C941B9D0D9469120C9420E60D946D1480
:100440000D949B0C0D946A0C0C9475700C94DBE568
:100450000C94449C0C94719B0C942B5C0D94720036
:100460000D947C140C942D9F0D946F050C9428987A
:100470000C94C56F0C94FD9C0C94BEA10C94F96F68
:100480000C94AD970C9469E70C946C970C942066CF
:100490000C94A4A70C94CD6F0C94FAE60C9489E903
:1004A0000C9463B90C940F9D0C94F19C0C946EE920
:1004B0000C94EB9C0C94176A0C948DE60C941A9790
:1004C0000C948EE70C94F5990D946E000C941A9C84
:1004D0000C942AA20D94BD0F0C94279D0D94DC1250
:1004E0000D94C70F0C94096A0C94529B0C940870DD
:1004F0000C949BA10C941A6E0C9443630C946D5055
:100500000C94B9E50C947FE90C94849C0C94BA6F1C
:100510000D9412130C943A970C94C6970C9418A34C
:100520000C94C4A60C94C36F0D94C0140C94386A38
:100530000D94C9050C94D5E60D94860F0D949D0578
:100540000C94F1690C9497E90D94A50C0C940D6A28
:100550000C94B7800C94D9970C948DE90D94900F5E
:100560000C949AE90D94780C0D94A3140D94744096
:100570000C94EA8B0C94039D0C949DE90C94E28BF3
:100580000C94576A0C949A970C94939C0C944B6A15
:100590000C94116A0C9494500D94890C0D94B20C27
:1005A0000C94016A0C94346E0C94C16F0C94056A1F
:1005B0000C942C6E0D94D10F0C94945F0C94F569EF
:1005C0000C94B3E70C9483E90C9490E90C94389C58
:1005D0000D94830C0C94F79C0D94530F0C94B2A1C2
:1005E0000D94A9144E414E494E495459494E46CD99
:1005F000CCCC3D0AD7233C17B7D13877CC2B3295DA
:1006000095E6241FB14F0A000020410000C84200B7
:10061000401C4620BCBE4CCA1B0E5AAEC59D740081
:10062000407A10F35A00A0724E18090010A5D4E8C1
:100630000000E87648170000E40B54020000CA9A54
:100640003B000000E1F505000080969800000040A6
:10065000420F000000A086010000001027000000EB
:1006600000E803000000006400000000000A000031
:100670000000000100000000002C76D888DC674FE5
:100680000823DFC1DFAE59E1B1B796E5E3E453C615
:100690003AE651997696E8E6C28426EB898C9B620D
:1006A000ED407C6FFCEFBC9C9F40F2BAA56FA5F4B7
:1006B00090055A2AF75C936B6CF9676DC11BFCE0DF
:1006C000E40D47FEF520E6B500D0ED902E03009432
:1006D0003577050080841E080000204E0A000000C7
:1006E000C80C333333330F986E12831141EF8D21D1
:1006F00014893BE65516CFFEE6DB18D1844B381B38
:10070000F77C1D901DA4BBE424203284725E2281FC
:1007100000C9F124ECA1E53D27434F4D4D554E490D
:10072000434154494F4E0044525952554E00455290
:10073000524F525300494E464F004543484F002008
:10074000746F6F206C6F6E67206578747275736953
:100750006F6E2070726576656E7465640A00206342
:100760006F6C6420657874727573696F6E20707237
:100770006576656E7465640A0057617274656E2EE5
:100780002E2E004B6C69636B207A756D20466F725C
:10079000747365747A656E004D6F746F72656E2048
:1007A000616E6765736368616C74657400456E643F
:1007B0002066696C65206C6973740A00426567691C
:1007C0006E2066696C65206C6973740A004E6F2038
:1007D0006D656469610A00286E6F2066696C652921
:1007E0000043757272656E742066696C653A20000C
:1007F0005344207072696E74696E67206279746503
:1008000020004E6F74205344207072696E74696EBC
:10081000670A002E0A0044656C6574696F6E206675
:1008200061696C65642C2046696C653A20004669F4
:100830006C652064656C657465643A0043616E6E36
:100840006F74206F70656E2073756264697220002A
:100850002569730025696D20256973002569682065
:1008600025696D2025697300256964202569682044
:1008700025696D2025697300256979202569642023
:100880002569682025696D20256973005072696E9D
:10089000742074696D653A20006BC3BC686C742E5B
:1008A0002E2E006865697A742E2E2E004520255361
:1008B000006F6B006F6666003A0735072E07270743
:1008C000190744454255473A004D313132205368AB
:1008D0007574646F776E004D313133205300416E73
:1008E00079637562696320344D4158204F46462E26
:1008F000004348414D4245525F54454D5045524199
:100900005455524500424142595354455050494E66
:10091000470041524353004D4F54494F4E5F4D4F96
:1009200044455300544845524D414C5F50524F543A
:10093000454354494F4E004C4F4E475F46494C4546
:100940004E414D45004155544F5245504F52545F12
:1009500053445F535441545553005344434152440C
:100960000050524F4D50545F535550504F52540009
:10097000454D455247454E43595F504152534552AC
:1009800000434153455F4C494748545F42524947F1
:1009900048544E45535300544F47474C455F4C49CC
:1009A0004748545300534F4654574152455F504FA8
:1009B000574552004255494C445F50455243454EBD
:1009C00054004C4556454C494E475F444154410004
:1009D0005A5F50524F42450052554E4F55540041B8
:1009E00055544F4C4556454C005052494E545F4A61
:1009F0004F420050524F4752455353004155544FB8
:100A00005245504F52545F54454D5000564F4C552F
:100A10004D455452494300454550524F4D004249BF
:100A20004E4152595F46494C455F5452414E5346E0
:100A300045520053455249414C5F584F4E5F584F05
:100A40004646004649524D574152455F4E414D453D
:100A50003A4D61726C696E20344D415820322E300F
:100A60002E3732303352454C2E20284665622020E6
:100A70003720323032312031313A32343A30332972
:100A800020534F555243455F434F44455F55524CA9
:100A90003A68747470733A2F2F6769746875622EA0
:100AA000636F6D2F47656D696E6953657276657208
:100AB0002F4D61726C696E2050524F544F434F4C12
:100AC0005F56455253494F4E3A312E30204D4143E7
:100AD00048494E455F545950453A416E79637562B5
:100AE000696320344D41582045585452554445526D
:100AF0005F434F554E543A3120555549443A36617B
:100B00006131343764322D666664352D3131653993
:100B10002D386437312D333632623965313535360B
:100B200036370A002F2F20004D31343520533C69D1
:100B30006E6465783E206F7574206F662072616EFA
:100B400067652028302D31290A0020520041636357
:100B5000656C65726174696F6E3A2050003F4A207F
:100B60006F7574206F662072616E67652028302E65
:100B7000303120746F20302E33290A0046523A005B
:100B800020466C6F773A200020643A0020693A00D2
:100B900020703A00496E76616C69642065787472E1
:100BA000756465720A0064697300656E0043290A02
:100BB0000061626C656420286D696E2074656D70DB
:100BC0002000436F6C6420657874727564657320CF
:100BD00061726520004F4646004F4E0046696C61C9
:100BE0006D656E742072756E6F75742000486F6D40
:100BF000657665727361747A20616B7469760045FD
:100C000072723A20546F6F206661722100546F6FC8
:100C1000206661722066726F6D207265666572650E
:100C20006E636520706F696E740A00454550524FBF
:100C30004D204F4B0A004D383400446F6E652070D4
:100C400072696E74696E672066696C650A004D375B
:100C500037004D333100496E76616C6964206578E8
:100C60007472756465720A004572726F72207772D1
:100C70006974696E6720746F20454550524F4D214D
:100C80000A00363726033C3D380E2E303E121A1C21
:100C9000180A2C4309072C07084400014D34313051
:100CA000004D313132004D31303800414E4745481A
:100CB000414C54454E005072696E746572207374D5
:100CC0006F707065642064756520746F2065727242
:100CD0006F72732E20466978207468652065727281
:100CE0006F7220616E6420757365204D393939202B
:100CF000746F20726573746172742E202854656D50
:100D000070657261747572652069732072657365B0
:100D1000742E205365742069742061667465722096
:100D200072657374617274696E67290A004E6F2070
:100D3000436865636B73756D2077697468206C69AF
:100D40006E65206E756D6265722C204C6173742027
:100D50004C696E653A20004E6F20436865636B7383
:100D6000756D2077697468206C696E65206E756D8D
:100D70006265722C204C617374204C696E653A2058
:100D800000636865636B73756D206D69736D617465
:100D900063682C204C617374204C696E653A2000A6
:100DA0004C696E65204E756D626572206973206EA8
:100DB0006F74204C617374204C696E65204E756DA4
:100DC0006265722B312C204C617374204C696E6506
:100DD0003A20004D31313000534420726561642067
:100DE0006572726F720A002121204B494C4C2063BE
:100DF000617573656420627920746F6F206D75630F
:100E00006820696E6163746976652074696D652018
:100E10002D2063757272656E7420636F6D6D616EE7
:100E2000643A2000627573793A2070617573656465
:100E300020666F7220696E7075740A00627573792E
:100E40003A2070617573656420666F7220757365F2
:100E5000720A00627573793A2070726F63657373FA
:100E6000696E670A004D656469756D20656E74660C
:100E700065726E74004D656469756D2065726B6195
:100E80006E6E74004D3630300020573A0042657463
:100E900074206BC3BC686C742E2E2E004265747473
:100EA000206865697A742E2E2E0023646566696E4B
:100EB000652044454641554C545F004B6420004B2F
:100EC0006920004B702000504944204175746F74B4
:100ED000756E652066696E6973686564212050755A
:100EE0007420746865206C617374204B702C204BE7
:100EF0006920616E64204B6420636F6E7374616E51
:100F000074732066726F6D2062656C6F7720696EF6
:100F1000746F20436F6E66696775726174696F6E76
:100F20002E680A00504944204175746F74756E65CF
:100F3000206661696C6564212074696D656F7574E4
:100F40000A00504944204175746F74756E652066BF
:100F500061696C6564212054656D7065726174759A
:100F6000726520746F6F20686967680A00204B649F
:100F70003A2000204B693A2000204B703A20000AAA
:100F800020436C617373696320504944200A002038
:100F900054753A2000204B753A2000206D61783A54
:100FA0002000206D696E3A200020643A2000206203
:100FB0006961733A2000504944204175746F74751B
:100FC0006E652073746172740A0050494420417543
:100FD000746F74756E65206661696C656421205458
:100FE000656D706572617475726520746F6F2068CD
:100FF0006967680A00504944204175746F74756EC2
:101000006500504944204175746F74756E652066A3
:1010100061696C6564212042616420657874727531
:10102000646572206E756D6265720A004572723A6F
:10103000207574663820666F6E74206E6F74206938
:101040006E697469616C697A65642E004572723AE2
:10105000207574663820666F6E74206E6F74206918
:101060006E697469616C697A65642E004572723AC2
:10107000207574663820666F6E74206E6F742069F8
:101080006E697469616C697A65642E002568753AC9
:1010900025303268750025303268753A253032685F
:1010A0007500256875642025303268753A25303220
:1010B000687500000C0F00FE07022503BB01FFFE50
:1010C0000AFE08FE05080806000040F0C888889857
:1010D0007810050808060000C0F88888888888F815
:1010E0000505050600012030F83020050808060037
:1010F000002070F820202020E00509090600FF20CC
:1011000070A8A8B888887020070505070001D86C6A
:10111000366CD80509090600FFF8A88888888888F1
:10112000A8F8050A0A0600FE205050505088A8A8CA
:10113000887003030306000340A040FFFFFFFFFF8A
:10114000FFFFFFFFFFFFFFFFFFFFFFFFFFFFFFFFAF
:10115000FF0000000605FF010707060200808080EF
:1011600080800080030303060105A0A0A0050606F9
:1011700006000050F85050F8500509090600FF20FD
:1011800070A8A07028A87020050707060000C8C82E
:10119000102040989805070706000040A0A040A82E
:1011A0009068010303060205808080030909060197
:1011B000FF2040408080804040200309090601FF55
:1011C0008040402020204040800507070600002086
:1011D000A8702070A8200505050600012020F82031
:1011E000200203030601FFC0408005010106000341
:1011F000F8020202060100C0C00507070600000849
:10120000101020404080050707060000708898A84D
:10121000C8887003070706010040C040404040E016
:10122000050707060000708808102040F80507072A
:10123000060000F80810300888700507070600004F
:1012400010305090F81010050707060000F880F0E5
:1012500008088870050707060000304080F088887D
:1012600070050707060000F8081010202020050769
:1012700007060000708888708888700507070600D8
:101280000070888878081060020505060100C0C05B
:1012900000C0C00206060601FFC0C000C0408003B7
:1012A00005050601012040804020050303060002D9
:1012B000F800F8030505060101804020408005077D
:1012C0000706000070881020200020050707060090
:1012D000007088B8A8B880700507070600007088FD
:1012E00088F8888888050707060000F04848704895
:1012F00048F0050707060000708880808088700528
:101300000707060000F04848484848F00507070668
:101310000000F88080F08080F8050707060000F8DC
:101320008080F0808080050707060000708880803C
:10133000988870050707060000888888F8888888DC
:10134000030707060100E04040404040E005070772
:101350000600003810101010906005070706000006
:101360008890A0C0A09088050707060000808080B4
:10137000808080F805070706000088D8A88888883C
:10138000880507070600008888C8A8988888050788
:10139000070600007088888888887005070706009F
:1013A00000F08888F08080800507070600007088BC
:1013B0008888A89068050707060000F08888F0A0D4
:1013C00090880507070600007088807008887005FF
:1013D0000707060000F82020202020200507070628
:1013E00000008888888888887005070706000088BC
:1013F000888888505020050707060000888888885C
:10140000A8A8500507070600008888502050888843
:1014100005070706000088885020202020050707C0
:10142000060000F80810204080F80309090601FFB3
:10143000E080808080808080E005070706000080D3
:101440004040201010080309090601FFE020202079
:1014500020202020E0050303060005205088050118
:10146000010600FEF8030303060105804020050580
:1014700005060000700878887805070706000080D8
:1014800080F0888888F00505050600007080808857
:101490007005070706000008087888888878050521
:1014A000050600007088F080700507070600003010
:1014B0004840E04040400507070600FE70888888E5
:1014C0007808700507070600008080F08888888803
:1014D0000307070601004000C0404040E00409093E
:1014E0000601FE100030101010109060050707066E
:1014F000000080808890E09088030707060100C004
:101500004040404040E0050505060000D0A8A8A8DE
:10151000A8050505060000B0C888888805050506E9
:10152000000070888888700507070600FEF088882C
:1015300088F080800507070600FE7888888878088C
:1015400008050505060000B0C88080800505050671
:10155000000078807008F00507070600002020F8DA
:101560002020201805050506000088888898680551
:10157000050506000088888850200505050600003E
:101580008888A8A8500505050600008850205088C6
:101590000507070600FE888888502040800505055D
:1015A000060000F8102040F80309090601FF20405A
:1015B000404080404040200109090602FF808080B1
:1015C0008080808080800309090601FF80404040C0
:1015D000204040408005030306000248A890FFFF1A
:1015E000FFFFFFFFFFFFFFFFFFFFFFFFFFFFFFFF0B
:1015F000FFFFFFFFFFFFFFFFFFFFFFFFFFFFFF00FA
:1016000000000605FF0107070602008000808080B9
:1016100080800507070600FF2070A8A0A87020059D
:101620000707060000304840E04048B005050506C1
:101630000000A8508850A80507070600008850F849
:1016400020F82020010707060200808080008080AB
:101650008004080806010070806090906010E0032C
:101660000101060107A00607070600007884B4A45C
:10167000B4847803050506010460A06000E0050558
:10168000050600002850A05028050303060001F8B5
:101690000808030101060103E006070706000078B9
:1016A00084B4A4A48478050101060007F8040404A6
:1016B000060105609090600507070600002020F8ED
:1016C000202000F803050506010440A02040E003A7
:1016D0000505060104C0204020C0030303060105E0
:1016E0002040800507070600FE88888898E88080EB
:1016F00005080806000078E8E8E8682828280202BB
:1017000002060203C0C00302020601FE20C0030558
:101710000506010440C04040E00305050601054000
:10172000A04000E0050505060000A0502850A005D7
:101730000A0A06000040C048506050B050781005BA
:101740000A0A06000040C048506050A8081038053A
:101750000A0A060000C0204830E050B0507810055A
:10176000070706000020002020408870050A0A06AE
:101770000000402000708888F8888888050A0A06DA
:101780000000102000708888F8888888050A0A06FA
:101790000000205000708888F8888888050A0A06AA
:1017A000000068B000708888F888888805090906F4
:1017B00000005000708888F8888888050A0A0600AA
:1017C00000205020708888F8888888050707060060
:1017D0000078A0A0F0A0A0B80509090600FE708856
:1017E00080808088701060050A0A06000040200092
:1017F000F88080F08080F8050A0A060000102000BA
:10180000F88080F08080F8050A0A06000020500069
:10181000F88080F08080F80509090600005000F883
:101820008080F08080F8030A0A060100804000E012
:101830004040404040E0030A0A060100204000E02A
:101840004040404040E0030A0A06010040A000E09A
:101850004040404040E0030909060100A000E0408C
:1018600040404040E0050707060000704848E8484F
:101870004870050A0A06000068B0008888C8A89861
:101880008888050A0A060000402000708888888839
:101890008870050A0A060000102000708888888871
:1018A0008870050A0A060000205000708888888821
:1018B0008870050A0A06000068B000708888888869
:1018C000887005090906000050007088888888889B
:1018D0007005050506000188502050880509090695
:1018E00000FF087098A8A8A8C87080050A0A06001A
:1018F0000040200088888888888870050A0A0600C9
:101900000010200088888888888870050A0A0600E8
:10191000002050008888888888887005090906009A
:1019200000500088888888888870050A0A060000A8
:10193000102000888850202020200407070601007E
:1019400080E0909090E08005070706000070889086
:10195000A09088B0050808060000402000700878B4
:10196000887805080806000010200070087888783C
:1019700005080806000020500070087888780508DF
:101980000806000068B00070087888780507070628
:1019900000005000700878887805080806000020CC
:1019A00050207008788878050505060000702870BA
:1019B000A0780507070600FE708880887010600513
:1019C00008080600004020007088F08070050808B4
:1019D0000600001020007088F080700508080600DE
:1019E000002050007088F080700507070600005046
:1019F000007088F08070030808060100804000C075
:101A0000404040E0030808060100204000C040407C
:101A100040E003080806010040A000C0404040E04C
:101A2000030707060100A000C0404040E005090987
:101A3000060000502050087888888870050808063D
:101A4000000068B000B0C888888805080806000053
:101A50004020007088888870050808060000102063
:101A60000070888888700508080600002050007003
:101A70008888887005080806000068B000708888AB
:101A80008870050707060000500070888888700578
:101A900005050600012000F80020050505060000E8
:101AA0007898A8C8F005080806000040200088883B
:101AB000888870050808060000102000888888883B
:101AC0007005080806000020500088888888700586
:101AD000070706000050008888888870050A0A06F3
:101AE00000FE1020008888885020408005090906E3
:101AF00000FE8080F0888888F08080050909060053
:101B0000FE5000888888502040804C6164656E20BB
:101B10006D6D00456E746C6164656E206D6D004680
:101B2000696C616D656E7464757263686D657373FD
:101B30006572004520696E206D6DC2B3004D333073
:101B400033205531204525692053256900504944EB
:101B5000204175746F74756E65202A005049442DBC
:101B600044202A005049442D49202A005049442D40
:101B700050202A0020082046616B746F72002008F4
:101B8000206D6178002008206D696E00617573001A
:101B9000616E004175746F2054656D70657261747B
:101BA00075720046494C414D454E5420454E544CAB
:101BB0004144454E0046494C414D454E54204C4110
:101BC00044454E0046494C414D454E5420574543EF
:101BD0004853454C005374616E646172647765725A
:101BE0007465206C6164656E004B6F6E6669672E6C
:101BF000206C6164656E004B6F6E6669672E2073A2
:101C0000706569636865726E00242045696E73743F
:101C1000656C6C756E67656E0061757300616E0052
:101C200052756E6F75742D53656E736F72004CC371
:101C3000BC66746572204B6F6E74726F6C6C6572EB
:101C4000004572772E2045696E7374656C6C756EF5
:101C500067656E0048617570746D656EC3BC004D3C
:101C600037303220542564004D3630302042302049
:101C7000542564004D373032203B2564004D373009
:101C80003120542564004D373032004D373031005B
:101C90004D3630302042300048617570746D656E8D
:101CA000C3BC00447275636B20776569746572000C
:101CB00061757300616E0052756E6F75742D53659A
:101CC0006E736F72004D65687220656E746C61642E
:101CD000656E00464F5254532E204F5054494F4E7C
:101CE000454E3A00445255434B20504155534945C7
:101CF000525400202044C3BC73653A2000447275DE
:101D0000636B206973740070617573696572742EFA
:101D10002E2E00005761727465206175662064651F
:101D20006E005374617274206465730046696C615F
:101D30006D656E747765636873656C732E2E2E0007
:101D400057617274652061756600456E746E6168D6
:101D50006D65006465732046696C616D656E7473B2
:101D60002E2E2E0044C3BC7365206865697A7420EA
:101D70006175660062697474652077617274656E5E
:101D80002E2E2E00004B6E6F7066206472C3BC63F3
:101D90006B656E20756D0044C3BC7365206175660C
:101DA0007A756865697A656E000046696C616D6573
:101DB0006E742065696E6C6567656E00756E642073
:101DC0004B6E6F7066206472C3BC636B656E00758A
:101DD0006D20666F72747A757365747A656E0057DC
:101DE0006172746520617566004C6164656E206483
:101DF00065730046696C616D656E74732E2E2E00DE
:101E00004B6E6F7066206472C3BC636B656E207529
:101E10006D00447275636B20666F72747A757365BA
:101E2000747A656E00005761727465206175660092
:101E3000466F72747365747A656E206465730044CE
:101E40007275636B732E2E2E00576172746520615C
:101E50007566005370C3BC6C756E67006465722054
:101E600044C3BC73652E2E2E003135300035004240
:101E700045443A204550434F53203130304B0052B7
:101E8000756E617761792057617463683A20414EBD
:101E9000004D61782054656D7000323735004D6912
:101EA0006E2054656D7000350045313A2045504331
:101EB0004F53203130304B004E65747A7465696C35
:101EC00000532D3330302D31320050726F746F6BF0
:101ED0006F6C6C00312E3000426175647261746504
:101EE0000032353030303000416E7963756269639D
:101EF0002052414D505320312E34002100486F7440
:101F0000656E64207A75206B616C74005A7572C3BB
:101F1000BC636B00576569746572004265776567DD
:101F2000756E67004D6F746F72656E206465616BCE
:101F3000746976696572656E004D38340045636B6F
:101F4000656E206E6976656C6C696572656E0048B9
:101F50006F6D65205A004732385A00486F6D652012
:101F600059004732385900486F6D65205800473294
:101F70003858004175746F20486F6D6500473238DE
:101F80000048617570746D656EC3BC00242045788F
:101F900074722E20566F7277C3A4726D656E002422
:101FA000204265747420566F7277C3A4726D656E9B
:101FB0000054656D706572617475720041626BC327
:101FC000BC686C656E002420566F7277C3A4726D76
:101FD000656E004CC3BC6674657200426574740023
:101FE00044C3BC73650048617570746D656EC3BC95
:101FF00000466C75737372617465004CC3BC667483
:10200000657200426574740044C3BC736500476523
:10201000736368772E0048617570746D656EC3BC1C
:1020200000FFFDFCFAF8F6F4F2F0EEECEAE9E7E581
:10203000E3E1E0DEDCDAD9D7D5D4D2D0CFCDCBCA3C
:10204000C8C7C5C3C2C0BFBDBCBAB9B7B6B4B3B2C6
:10205000B0AFADACAAA9A8A6A5A4A2A1A09E9D9C24
:102060009A99989795949392908F8E8D8B8A898860
:10207000878684838281807F7E7D7B7A797877767C
:102080007574737271706F6E6D6C6B6A6968676678
:102090006564636261605F5E5D5C5B5A5958585766
:1020A00056555453525150504F4E4D4C4B4A4A493D
:1020B00048474646454443424241403F3E3E3D3C00
:1020C0003B3B3A39383837363535343332323130B4
:1020D000302F2E2E2D2C2B2B2A2929282727262559
:1020E0002524232322212120201F1E1E1D1C1C1BF2
:1020F0001B1A19191818171616151514131312127E
:102100001111100F0F0E0E0D0D0C0C0B0A0A090900
:102110000808070706060505040403030202010078
:102120000000005A4300005A43000096430000A0FC
:10213000C0000000000000000045696E7374656C0B
:102140006C2E206765737065692E00290A00206275
:10215000797465733B2063726320005365747469FE
:102160006E67732053746F7265642028004669653A
:102170006C64206261636B6C6173685F6469737423
:10218000616E63655F6D6D206D69736D6174636809
:102190002E0A004669656C642066635F736574741B
:1021A000696E6773206D69736D617463682E0A00D0
:1021B0004669656C6420706C616E6E65725F736BEE
:1021C00065775F666163746F72206D69736D6174AA
:1021D00063682E0A004669656C6420636F6F7264E1
:1021E000696E6174655F73797374656D206D697371
:1021F0006D617463682E0A004669656C64206D6FBA
:10220000746F725F63757272656E745F73657474F8
:10221000696E67206D69736D617463682E0A00468C
:1022200069656C6420706C616E6E65725F65787450
:1022300072756465725F616476616E63655F4B2081
:102240006D69736D617463682E0A004669656C641C
:1022500020746D635F737465616C74685F656E6133
:10226000626C6564206D69736D617463682E0A0029
:102270004669656C6420746D635F68796272696435
:102280005F7468726573686F6C64206D69736D61EB
:102290007463682E0A004669656C6420746D635F20
:1022A000737465707065725F63757272656E7420A9
:1022B0006D69736D617463682E0A004669656C64AC
:1022C000207061727365725F766F6C756D65747284
:1022D00069635F656E61626C6564206D69736D61D1
:1022E0007463682E0A004669656C642066777265BF
:1022F00074726163745F73657474696E6773206D63
:1023000069736D617463682E0A004669656C6420A8
:102310007265636F766572795F656E61626C656424
:10232000206D69736D617463682E0A004669656C7F
:102330006420636F6E74726F6C6C657246616E5F61
:1023400073657474696E6773206D69736D6174630E
:10235000682E0A004669656C64206C63645F636F75
:102360006E7472617374206D69736D617463682E2D
:102370000A004669656C6420706F7765725F6D6FE7
:102380006E69746F725F666C616773206D69736DDF
:10239000617463682E0A004669656C642062656436
:1023A000504944206D69736D617463682E0A00465C
:1023B00069656C64206C70715F6C656E206D69730B
:1023C0006D617463682E0A004669656C6420686FED
:1023D00074656E64504944206D69736D61746368FF
:1023E0002E0A004669656C642075695F6D617465CD
:1023F0007269616C5F707265736574206D69736D6D
:10240000617463682E0A004669656C6420626C74AE
:102410006F7563685F6C6173745F777269747465FC
:102420006E5F6D6F6465206D69736D617463682E96
:102430000A004669656C6420736572766F5F616E31
:10244000676C6573206D69736D617463682E0A0033
:102450004669656C6420706C616E6E65725F6C6558
:1024600076656C696E675F616374697665206D6916
:10247000736D617463682E0A004669656C64207030
:10248000726F62655F6F6666736574206D69736DE8
:10249000617463682E0A004669656C642072756E0B
:1024A0006F75745F73656E736F725F656E61626C7A
:1024B0006564206D69736D617463682E0A004669F6
:1024C000656C6420686F6D655F6F66667365742008
:1024D0006D69736D617463682E0A004669656C648A
:1024E00020657374657070657273206D69736D61BA
:1024F0007463682E0A00486F6D696E6720676573A4
:102500006368656974657274006F70656E0054521B
:1025100049474745524544003A200066696C616D61
:10252000656E74007A5F6D696E00795F6D696E002B
:10253000785F6D696E005265706F7274696E6720A6
:10254000656E6473746F70207374617475730A00C0
:10255000566F726865722025732573257320686F26
:102560006D656E000000A0C00000000000000000CB
:102570000000484200004842000020415761726E4E
:10258000696E673A20486F6D696E672042756D709D
:102590002044697669736F72203C20310A00020280
:1025A000040000A0400000A0400000004000005FC8
:1025B0004300005A4300009643FFFFFF0000000164
:1025C000000000010000800055555500000040004B
:1025D00033333300AAAA2A004992240000002000C5
:1025E000C7711C0099991900D14517005555150060
:1025F0003BB113002449120011111100000010001A
:102600000F0F0F00E3380E0043790D00CCCC0C0007
:10261000C3300C00E8A20B0064210B00AAAA0A0038
:10262000703D0A009DD80900427B090092240900F0
:10263000DCD3080088880800104208000000080069
:10264000F0C107008787070075500700711C07005D
:102650003EEB0600A1BC0600699006006666060017
:10266000703E06006118060017F4050074D10500DD
:102670005BB00500B290050062720500555505007B
:1026800078390500B81E0500050505004EEC04006C
:1026900087D40400A1BD040090A70400499204005F
:1026A000C17D0400EE690400C756040044440400E0
:1026B0005C32040008210400411004000000040002
:1026C0003FF00300F8E0030026D20300C3C3030079
:1026D000CCB503003AA803000A9B0300388E030020
:1026E000C08103009F750300D0690300505E0300A2
:1026F0001D53030034480300913D030033330300AE
:1027000016290300381F030097150300300C03003F
:10271000030303000BFA020049F10200BAE80200C9
:102720005CE002002DD802002DD0020059C8020042
:10273000B0C0020031B90200DAB10200AAAA020058
:10274000A0A30200BC9C0200FA9502005C8F02006C
:10275000DF88020082820200457C020027760200A8
:1027600027700200436A02007C640200D05E02000F
:102770003F590200C853020001FFFFFFFFFFFFFFA8
:10278000FFFFFFFFFFFF0FFFFFFFFFFFFFFFFFFF49
:10279000FFFFFFFF1E000000000000000000000718
:1027A000FFFF380000000000000000000003FFFFF2
:1027B000700000000000000000000001FFFF60004A
:1027C00000000000000000000000FFFF60000000AB
:1027D00000000000000000007FFFC00000000000BB
:1027E0000000007800003FFFC00FC0FC00000000A8
:1027F000007818001FFFC03FE1FF000000000078D4
:102800003C000FFFC07FF3FF8000000000783C0019
:1028100007FFC0FFFFFFC000000000783C0003FF7F
:10282000C1F87F87E00000000078000001FFC1F0E0
:102830003F03E00000000078000000FFC1E01E013F
:10284000E01F0003E0783C03F07FC1E01E01E07F61
:10285000C00FF8783C07FC3FC1E01E01E1FFE01F1C
:10286000FC783C0FFE1FC1E01E01E3FFF03FFE7845
:102870003C1FFE0FC1E01E01E3F3F83F3E783C3FF2
:102880003F07C1E01E01E7E0FC7C1F783C3E1F07CC
:10289000C1E01E01E7C07C7C0F783C3C0F03C1E027
:1028A0001E01E7807C780F783C3C0F03C1E01E01DD
:1028B000E7803C7800783C3C0F03C1E01E01E780D4
:1028C0003C7800783C3C0F03C1E01E01E7803C7877
:1028D00000783C3C0F03C1E01E01E7C03C78007863
:1028E0003C3C0F03C1E01E01E3E03C78007C3C3C33
:1028F0000F03C1E01E01E3FF3FF8007FBC3C0F0364
:10290000C1E01E01E1FF3FF8003FBFFC0F03C1E043
:102910001E01E0FF3FF8001FBFFC0F03C1E01E01D6
:10292000E07F3FF8000FBFFC0F03600000000000D5
:102930000000000000000007600000000000000030
:102940000000000000067000000000000000000011
:102950000000000E38000000000000000000000031
:10296000001C1E00000000000000000000000078B5
:102970000FFFFFFFFFFFFFFFFFFFFFFFFFF001FF64
:10298000FFFFFFFFFFFFFFFFFFFFFF8001FFFFFFD4
:10299000FFFFFFFFFFFFFFFFFFFF0FFFFFFFFFFF37
:1029A000FFFFFFFFFFFFFFFF1E0000000000000011
:1029B00000000007FFFF38000000000000000000DA
:1029C0000003FFFF70000000000000000000000195
:1029D000FFFF600000000000000000000000FFFF9B
:1029E0006000000000000000000000007FFFC00049
:1029F000000000000000007800003FFFC00FC0FC96
:102A000000000000007818001FFFC03FE1FF000039
:102A1000000000783C000FFFC07FF3FF8000000043
:102A200000783C0007FFC0FFFFFFC00000000078F7
:102A30003C0003FFC1F87F87E00000000078000041
:102A400001FFC1F03F03E00000000078000000FF3C
:102A5000C1E01E01E01F0003E0783C00007FC1E000
:102A60001E01E07FC00FF8783C00003FC1E01E016E
:102A7000E1FFE01FFC783C00001FC1E01E01E3FF06
:102A8000F03FFE783C00000FC1E01E01E3F3F83F89
:102A90003E783C000007C1E01E01E7E0FC7C1F78A7
:102AA0003C000007C1E01E01E7C07C7C0F783C00C1
:102AB0000003C1E01E01E7807C780F783C00000332
:102AC000C1E01E01E7803C7800783C000003C1E0D3
:102AD0001E01E7803C7800783C000003C1E01E0145
:102AE000E7803C7800783C000003C1E01E01E7C0AD
:102AF0003C7800783C000003C1E01E01E3E03C7834
:102B0000007C3C000003C1E01E01E3FF3FF8007FB2
:102B1000BC000003C1E01E01E1FF3FF8003FBF0021
:102B20000003C1E01E01E0FF3FF8001FBF000003EB
:102B3000C1E01E01E07F3FF8000FBF00000360000E
:102B4000000000000000000000000007600000001E
:102B500000000000000000000006700000000000FF
:102B6000000000000000000E38000000000000001F
:102B700000000000001C1E0000000000000000001B
:102B8000000000780FFFFFFFFFFFFFFFFFFFFFFFC9
:102B9000FFF001FFFFFFFFFFFFFFFFFFFFFFFF80D1
:102BA00001FFFFFFFFFFFFFFFFFFFFFFFFFF0FFF23
:102BB000FFFFFFFFFFFFFFFFFFFFFFFF1E00000003
:102BC0000000000000000007FFFF380000000000C8
:102BD000000000000003FFFF700000000000000084
:102BE00000000001FFFF6000000000000000000086
:102BF0000000FFFF60000000000000000000000077
:102C00007FFFC000000000000000007800003FFFD0
:102C1000C00FC0FC00000000007800001FFFC03F94
:102C2000E1FF00000000007800000FFFC07FF3FF0D
:102C3000800000000078000007FFC0FFFFFFC00019
:102C400000000078000003FFC1F87F87E00000006B
:102C50000078000001FFC1F03F03E00000000078B1
:102C6000000000FFC1E01E01E01F0003E07800004B
:102C7000007FC1E01E01E07FC00FF8780000003F38
:102C8000C1E01E01E1FFE01FFC780000001FC1E071
:102C90001E01E3FFF03FFE780000000FC1E01E01BF
:102CA000E3F3F83F3E7800000007C1E01E01E7E0D3
:102CB000FC7C1F7800000007C1E01E01E7C07C7C9F
:102CC0000F7800000003C1E01E01E7807C780F78D8
:102CD00000000003C1E01E01E7803C78007800009E
:102CE0000003C1E01E01E7803C780078000000038B
:102CF000C1E01E01E7803C78007800000003C1E0DD
:102D00001E01E7C03C78007800000003C1E01E010E
:102D1000E3E03C78007C00000003C1E01E01E3FF1B
:102D20003FF8007F00000003C1E01E01E1FF3FF813
:102D3000003F00000003C1E01E01E0FF3FF8001F5C
:102D400000000003C1E01E01E07F3FF8000F00001B
:102D50000003600000000000000000000000000709
:102D6000600000000000000000000000000670008D
:102D700000000000000000000000000E380000000D
:102D80000000000000000000001C1E000000000009
:102D900000000000000000780FFFFFFFFFFFFFFFB3
:102DA000FFFFFFFFFFF001FFFFFFFFFFFFFFFFFF40
:102DB000FFFFFF8001FFFFFFFFFFFFFFFFFFFFFFA0
:102DC000FFFF0FFFFFFFFFFFFFFFFFFFFFFFFFFF03
:102DD0001E0000000000000000000007FFFF380098
:102DE00000000000000000000003FFFF7000000072
:102DF0000000000000000001FFFF60000000000074
:102E0000000000000000FFFF600000000000000064
:102E1000000000007FFFC000000000000000000074
:102E200000003FFFC00FC0FC0000000000000000D9
:102E30001FFFC03FE1FF00000000000000000FFF87
:102E4000C07FF3FF800000000000000007FFC0FF0C
:102E5000FFFFC00000000000000003FFC1F87F87F3
:102E6000E00000000000000001FFC1F03F03E000AF
:102E700000000000000000FFC1E01E01E01F000391
:102E8000E0000000007FC1E01E01E07FC00FF800FD
:102E90000000003FC1E01E01E1FFE01FFC00000058
:102EA000001FC1E01E01E3FFF03FFE000000000F25
:102EB000C1E01E01E3F3F83F3E0000000007C1E05F
:102EC0001E01E7E0FC7C1F0000000007C1E01E01BE
:102ED000E7C07C7C0F0000000003C1E01E01E7801A
:102EE0007C780F0000000003C1E01E01E7803C7801
:102EF000000000000003C1E01E01E7803C780000F4
:102F000000000003C1E01E01E7803C7800000000E3
:102F10000003C1E01E01E7C03C7800000000000390
:102F2000C1E01E01E3E03C78000000000003C1E0C6
:102F30001E01E3FF3FF8000000000003C1E01E0196
:102F4000E1FF3FF8000000000003C1E01E01E0FFC8
:102F50003FF8000000000003C1E01E01E07F3FF8E1
:102F600000000000000360000000000000000000FE
:102F700000000007600000000000000000000000EA
:102F80000006700000000000000000000000000EBD
:102F9000380000000000000000000000001C1E00BF
:102FA0000000000000000000000000780FFFFFFF9D
:102FB000FFFFFFFFFFFFFFFFFFF001FFFFFFFFFF2E
:102FC000FFFFFFFFFFFFFF8001FFFFFFFFFFFFFF8E
:102FD000FFFFFFFFFFFF0FFFFFFFFFFFFFFFFFFFF1
:102FE000FFFFFFFF1E0000000000000000000007C0
:102FF000FFFF380000000000000000000003FFFF9A
:10300000700000000000000000000001FFFF6000F1
:1030100000000000000000000000FFFF6000000052
:1030200000000000000000007FFFC0000000000062
:103030000000000000003FFFC00FC0FC00000000C7
:10304000000000001FFFC03FE1FF00000000000083
:1030500000000FFFC07FF3FF8000000000000000B1
:1030600007FFC0FFFFFFC00000000000000003FFDB
:10307000C1F87F87E00000000000000001FFC1F000
:103080003F03E00000000000000000FFC1E01E015F
:10309000E01F000000000000007FC1E01E01E07F93
:1030A000C00000000000003FC1E01E01E1FFE000A1
:1030B00000000000001FC1E01E01E3FFF00000005F
:1030C0000000000FC1E01E01E3F3F8000000000063
:1030D0000007C1E01E01E7E0FC000000000000075F
:1030E000C1E01E01E7C07C00000000000003C1E059
:1030F0001E01E7807C00000000000003C1E01E010B
:10310000E7803C00000000000003C1E01E01E780F2
:103110003C00000000000003C1E01E01E7803C000D
:10312000000000000003C1E01E01E7C03C000000F9
:1031300000000003C1E01E01E3E03C0000000000CD
:103140000003C1E01E01E3FF3F0000000000000398
:10315000C1E01E01E1FF3F00000000000003C1E0EC
:103160001E01E0FF3F00000000000003C1E01E015F
:10317000E07F3F000000000000036000000000004E
:1031800000000000000000076000000000000000D8
:1031900000000000000670000000000000000000B9
:1031A0000000000E380000000000000000000000D9
:1031B000001C1E000000000000000000000000785D
:1031C0000FFFFFFFFFFFFFFFFFFFFFFFFFF001FF0C
:1031D000FFFFFFFFFFFFFFFFFFFFFF8001FFFFFF7C
:1031E000FFFFFFFFFFFFFFFFFFFF0FFFFFFFFFFFDF
:1031F000FFFFFFFFFFFFFFFF1E00000000000000B9
:1032000000000007FFFF3800000000000000000081
:103210000003FFFF7000000000000000000000013C
:10322000FFFF600000000000000000000000FFFF42
:103230006000000000000000000000007FFFC000F0
:10324000000000000000000000003FFFC00FC0FCB5
:1032500000000000000000001FFFC03FE1FF000071
:103260000000000000000FFFC07FF3FF800000009F
:103270000000000007FFC0FFFFFFC00000000000CB
:10328000000003FFC1F87F87E0000000000000009D
:1032900001FFC1F03F03E00000000000000000FF5C
:1032A000C1E01E01E000000000000000007FC1E05E
:1032B0001E01E000000000000000003FC1E01E0110
:1032C000E000000000000000001FC1E01E01E0005F
:1032D000000000000000000FC1E01E01E00000003F
:1032E000000000000007C1E01E01E0000000000037
:1032F00000000007C1E01E01E00000000000000027
:103300000003C1E01E01E000000000000000000317
:10331000C1E01E01E0000000000000000003C1E069
:103320001E01E0000000000000000003C1E01E01DB
:10333000E0000000000000000003C1E01E01E0000A
:103340000000000000000003C1E01E01E0000000DA
:10335000000000000003C1E01E01E00000000000CA
:1033600000000003C1E01E01E000000000000000BA
:103370000003C1E01E01E0000000000000000003A7
:10338000C1E01E01E000000000000000000360003A
:1033900000000000000000000000000760000000C6
:1033A00000000000000000000006700000000000A7
:1033B000000000000000000E3800000000000000C7
:1033C00000000000001C1E000000000000000000C3
:1033D000000000780FFFFFFFFFFFFFFFFFFFFFFF71
:1033E000FFF001FFFFFFFFFFFFFFFFFFFFFFFF8079
:1033F00001FFFFFFFFFFFFFFFFFFFFFFFFFF0FFFCB
:10340000FFFFFFFFFFFFFFFFFFFFFFFF1E000000AA
:103410000000000000000007FFFF3800000000006F
:10342000000000000003FFFF70000000000000002B
:1034300000000001FFFF600000000000000000002D
:103440000000FFFF6000000000000000000000001E
:103450007FFFC000000000000000000000003FFFF0
:10346000C000000000000000000000001FFFC000BE
:10347000000000000000000000000FFFC00000007E
:10348000000000000000000007FFC0000000000076
:1034900000000000000003FFC0000000000000006A
:1034A0000000000001FFC00000000000000000005C
:1034B000000000FFC000000000000000000000004D
:1034C000007FC00000000000000000000000003F7E
:1034D000C00000000000000000000000001FC0004D
:1034E00000000000000000000000000FC00000000D
:1034F00000000000000000000007C0000000000005
:103500000000000000000007C000000000000000F4
:10351000000000000003C0000000000000000000E8
:1035200000000003C00000000000000000000000D8
:103530000003C000000000000000000000000003C5
:10354000C000000000000000000000000003C000F8
:10355000000000000000000000000003C0000000A8
:1035600000000000000000000003C0000000000098
:103570000000000000000003C00000000000000088
:10358000000000000003C000000000000000000078
:1035900000000003C0000000000000000000000068
:1035A00000036000000000000000000000000007B1
:1035B0006000000000000000000000000006700035
:1035C00000000000000000000000000E38000000B5
:1035D0000000000000000000001C1E0000000000B1
:1035E00000000000000000780FFFFFFFFFFFFFFF5B
:1035F000FFFFFFFFFFF001FFFFFFFFFFFFFFFFFFE8
:10360000FFFFFF800000000000000000000000003D
:1036100000000000000000000000000000000000AA
:103620000000000000047F03E00001F8000F00002C
:103630007F8003F0000C7F03F00003F8001F800080
:103640007FC007F0000C7F03F80007F8003F800000
:103650007FC00FF0001C7F03FC000FF8003FC0008C
:103660003FE01FF0001C7F03FE001FF8003FC0007A
:103670001FF03FF0003C7F01FF003FF8001FE0001B
:103680000FF87FF0003C7F00FF807FF8000FE00024
:1036900007F87FE0007C7F007FC0FFF8000FF0009C
:1036A00007FC3FC0007C7F003FE1FFF80007F80007
:1036B00003FE1F8000FC7F001FFFFFF80187F8005A
:1036C00001FF0F0000FC7F030FFFFFF801C3FC00A8
:1036D00000FF860001FC7F0387FFF3F803E3FC0093
:1036E000007F800001FC7F03C3FFE3F803E1FE00DD
:1036F000007FC00003FC7F03E1FFC3F807F1FE0079
:10370000003FE00003FC7FE3F0FF83F807F0FF00D9
:10371000001FF00007FC7FE3F87F03F80FF07F0045
:10372000000FF00007FC7FE3F81E03F80FE07F8036
:10373000000FF8000FFC7FE3F80003F81FE3FF80A1
:103740000387FC000FFC7FE3F80003F81FC3FFC0F2
:1037500007C3FE001FFC7FE3F80003F83FC7FFC06C
:103760000FE1FE0000007F03F80003F83F87FFE051
:103770001FF1FF0000007F03F80003F87F8FFFE0D8
:103780003FF0FF8000007F03F80003F87F0FFFF099
:103790007FF07FC000007F03F80003F8FF0007F010
:1037A000FFE03FC000007F03F80003F8FE0007F8C9
:1037B000FFC03FE000007F03F80003F9FE0003F8BC
:1037C000FF801FF000007F03F80003F9FC0003FCFA
:1037D000FF000FF000007F03F80003FBFC0001FC7A
:1037E000FE000FF0000000000000000000000000DC
:1037F00000000000000000000000000000000000C9
:103800000000000068747470733A2F2F6769742E7B
:10381000696F2F666A587A7200344D415820322EF3
:10382000302E3732303352454C2E00F033DC31C865
:103830002FB42DA02B8C29782770012C0190012703
:1038400001B0012201C0011D01F001180110021395
:103850000130020E016002090190020401C002FF62
:10386000000003FA004003F5008003F000D003EBF2
:10387000002004E6007004E100E004DC004005D70D
:1038800000C005D2004006CD00D006C8008007C3A6
:10389000003008BE00F008B900C009B400B00AAF9B
:1038A00000B00BAA00D00CA500000EA000500F9B8A
:1038B00000C01096005012910000148C00C01587B3
:1038C00000B0178200B0197D00D01B7800001E7375
:1038D0000040206E0090226900F024640040275FC1
:1038E0000090295A00E02B5500102E500020304B3C
:1038F0000010324600E033410090353C001037376D
:103900000070383200A0392D00B03A2800A03B23C7
:1039100000603C1E00103D1900903D1400103E0F49
:1039200000703E0A00C03E0500003F0000403FFB23
:10393000FF803FF6FFC03FF1FF2020506C616E6EAC
:10394000657242756666657242797465733A2000E5
:103950002046726565204D656D6F72793A2000438F
:103960006F6D70696C65643A20466562202037206F
:10397000323032310A00204C61737420557064611A
:103980007465643A20323032302D31302D3135209B
:103990007C20417574686F723A202847336D316E10
:1039A000315333727633722C20416E7963756269BC
:1039B0006320344D4158290A00344D415820322E9D
:1039C000302E3732303352454C2E0A004D61726C26
:1039D000696E0020536F667477617265205265735B
:1039E00065740A00205761746368646F67205265CC
:1039F0007365740A002042726F776E206F757420B1
:103A000052657365740A002045787465726E616C46
:103A10002052657365740A00506F77657255700A9D
:103A20000073746172740A006175746F25632E6788
:103A3000004732385859004D3130303100657272CC
:103A40006F722077726974696E6720746F2066697F
:103A50006C650A00446F6E6520736176696E67203D
:103A600066696C652E0A004D323900456E647374C8
:103A70006F70700025532025632025632025632067
:103A8000256300205A3A0020593A0020583A006530
:103A90006E6473746F7073206869743A20004472A6
:103AA00075636B206162676562726F6368656E0043
:103AB0004D323520500A4D32340050617573652EF9
:103AC0002E2E005761726E696E673A20436C6561F5
:103AD0006E20436972636C652072657175697265E9
:103AE000732058590A005761726E696E673A205206
:103AF0006164697573204F7574206F662052616E22
:103B000067650A003F0041626272656368656E0026
:103B100042657374C3A4746967656E004D343238AE
:103B2000005765726B7365696E7374656C6C756E46
:103B300067656E0046696C616D656E740054656DF5
:103B4000706572617475720053746570732F6D6D5A
:103B5000004A756E6374696F6E2044657600426535
:103B60007363686C65756E6967756E67004765732A
:103B7000636877696E6469676B656974005365741F
:103B80007A6520486F6D657665727361747A004B53
:103B90006F6E66696775726174696F6E003F004E83
:103BA000C3A46368737465204B6F6F7264696E6140
:103BB000746500466572746967005765697465725B
:103BC0000058595A20686F6D656E004175737363B4
:103BD00068616C742044656C6179004CC3BC667488
:103BE0006572204D6F746F726C617374004D6F74E9
:103BF0006F726C617374204D6F647573004CC3BC3D
:103C000066746572204C6565726C6175660042650C
:103C100074740044C3BC7365004CC3BC66746572A5
:103C2000004B6F6E66696775726174696F6E0045EF
:103C30007874727564657200310068747470733AD8
:103C40002F2F6769742E696F2F666A587A72004148
:103C50006E79637562696320344D415800323032A9
:103C6000302D31302D313500344D415820322E3039
:103C70002E3732303352454C2E004D61726C696ED6
:103C800000546865726D6973746F72656E00426F7F
:103C90006172642D496E666F00447275636B657264
:103CA0002D496E666F0048617570746D656EC3BC9A
:103CB000003F005A7572C3BC636B0053746F700091
:103CC0004B65696E204D656469756D00447275635E
:103CD0006B20766F6D204D656469756D0046696C6B
:103CE000616D656E74207765636873656C6E004BFB
:103CF0006F6E66696775726174696F6E0054656D89
:103D000070657261747572004265776567756E677C
:103D10000053442D447275636B20666F7274736533
:103D2000747A656E00C39C6265722064656E20447F
:103D30007275636B6572004A757374696572756E2E
:103D4000670053442D447275636B20616262726533
:103D50006368656E0053442D447275636B20706117
:103D60007573696572656E00496E666F003F00533A
:103D7000746172746520447275636B004162627293
:103D8000656368656E00447275636B656E004361C0
:103D90006E6E6F7420656E746572207375626469EF
:103DA000723A2000022E2E0048617570746D656EA7
:103DB000C3BC001FE03FF03FF03FF01FE01FE03FBB
:103DC000F03FF03FF00FC0078003001FE0201020FD
:103DD0001020101020102020102010303008400437
:103DE0008003003FFFF83E00F839F03831E0183129
:103DF000E01821E1E820F3E8207FE82077E828EECA
:103E0000282FDC082FFC082F9E082F0F08300F18D2
:103E1000300F18381F383E00F83FFFF83FFFF83EDC
:103E200000F8383F38307E18307C18287C082C3851
:103E3000082F39C82FFFE82FC7E82FFFE82739E8F8
:103E4000203868207C28307C1830FC1839F8383E3F
:103E500000F83FFFF83FFFF83E00F8380F38341FF6
:103E6000D8361F982F1F082F9E082FFC082FDC081C
:103E700027EFC82077E8207FE820F3E821F1E83336
:103E8000F0D837F05839E0383E00F83FFFF83FFFF0
:103E9000F83E80F83980383781D837C3D827C7E84B
:103EA00023C7F821FF88206C08206C08206C0823A9
:103EB000FF083FC7882FC7C83787D83703D83803CC
:103EC000383E02F83FFFF81FFFF81FFFF8041040CC
:103ED0000208200208200410400820801041001031
:103EE00041000820800410400000001FFFF81FFF61
:103EF000F82100140706003372D1C089003F0B156A
:103F00002109002D3A15220900214A152409002112
:103F10003A1527A600000000000000FFFFFFFFFF8A
:103F2000C00000000000000B1870E1C3801B0CF003
:103F3000E0E7003B27F07076003B33F13030007B48
:103F40003333B818007BB033B80C007BB0373C6E0D
:103F5000000330377CE7000330360DC380000000DB
:103F6000000000FFFFFFFFFFC0000000000000078F
:103F7000000008400009649D2F0E000F54A1295035
:103F8000000954A12950000957BDEF5E00000080D0
:103F9000000000000780000000000000000000009A
:103FA000000000000024F4D43050C38E20C2A24090
:103FB00017828B7011127A910D816CD90AA861E178
:103FC00008C7586607615143061E4B5D05C145A7EA
:103FD000041A411104093D9803713931034036DB5D
:103FE0000265339102D4305402802E1D02632CEE00
:103FF00001752AC501B028A001102781018F256411
:10400000012B244B01E0223401AC211F018D200D36
:1040100001801FFC00841EED00971DDF00B81CD23C
:1040200000E61BC600201BBC00641AB200B219A82F
:10403000000A19A0006A189900D117910040178B47
:1040400000B516840031167E00B31579003A157359
:1040500000C7146F0058146A00EE136600881363DB
:104060000025135E00C7125B006C12570015125436
:1040700000C111510070114F0021114B00D61049A1
:10408000008D1047004610440002104200C00F404F
:1040900000800F3E00420F3C00060F3B00CB0E3865
:1040A00000930E37005C0E3500270E3400F30D32FE
:1040B00000C10D3100900D3000600D2E00320D2D2D
:1040C00000050D2C00D90C2B00AE0C2900850C2905
:1040D000005C0C2700350C27000E0C2600E80B2492
:1040E00000C40B2400A00B23007D0B23005A0B21DE
:1040F00000390B2100180B2000F80A1F00D90A1EF6
:1041000000BB0A1E009D0A1D00800A1D00630A1CD8
:1041100000470A1B002C0A1B00110A1A00F7091A93
:1041200000DD091900C4091900AB0919009209172B
:10413000007B091800630917004C091600360916A0
:1041400000200916000A091500F5081500E00814FA
:1041500000CC081400B8081400A408140090081338
:10416000007D0812006B0813005808120046081260
:104170000034081100230811001208110001081171
:1041800000F0071000E0071000D0071000C0071073
:1041900000B0070F00A107100091070E0083070F62
:1041A0000074070F0065070E0057070E0049070E41
:1041B000003B070D002E070E0020070D0013070D12
:1041C0000006070D00F9060C00ED060D00E0060CD8
:1041D00000D4060C00C8060C00BC060C00B0060C8F
:1041E00000A4060B0099060C008D060B0082060B3E
:1041F0000077060B006C060B0061060A0057060BE1
:10420000004C060A0042060A0038060A002E060A7A
:104210000024060A001A060A001006090007060A0A
:1042200000FD050900F4050900EB050900E2050998
:1042300000D9050900D0050900C7050900BE050918
:1042400000B5050800AD050800A50509009C050896
:1042500000940508008C050800840508007C05080A
:1042600000740508006C050700650508005D05077A
:1042700000560508004E05070047050700400508E1
:104280000038050700310507002A05070023050748
:10429000001C050600160507000F050700080506A7
:1042A0000002050700FB040600F5040700EE040603
:1042B00000E8040600E2040700DB040600D504065B
:1042C00000CF040600C9040600C3040600BD0406AE
:1042D00000B7040600B1040500AC040600A60406FD
:1042E00000A00405009B0406009504050090040648
:1042F000008A04050085040500800406007A040590
:104300000075040500700405006B040500660405D3
:1043100000610405005C0405005704050052040513
:10432000004D04050048040500430405003E040454
:10433000003A04050035040500300404002C04058F
:104340000027040400230405001E0404001A0404CA
:104350000016040500110404000D040400090405FE
:10436000000404040000040400FC030400F8030437
:1043700000F4030400F0030400EC030400E8030469
:1043800000E4030400E0030400DC030400D8030499
:1043900000D4030400D0030400CC030400C80303CA
:1043A00000C503030024F404D9201BC40C5C0E9840
:1043B00004C4095F0265077101F405F900FB04B349
:1043C0000048048700C103690058035500030345F2
:1043D00000BE023A008402310053022A002902255D
:1043E0000004022000E4011C00C8011900AF0117FD
:1043F0000098011400840113007101100061011084
:104400000051010E0043010D0036010B002B010B82
:104410000020010B00150109000C0109000301082F
:1044200000FB000800F3000800EB000700E40006B2
:1044300000DE000600D8000600D2000600CC000511
:1044400000C7000500C2000500BD000400B900045B
:1044500000B5000400B1000400AD000400A9000490
:1044600000A5000300A20003009F0004009B0003BE
:1044700000980003009500020093000300900003E1
:10448000008D0002008B00030088000200860002FD
:104490000084000300810002007F0002007D000212
:1044A000007B000200790002007700010076000224
:1044B000007400020072000100710002006F00022F
:1044C000006D0001006C0002006A0001006900023A
:1044D0000067000100660001006500010064000241
:1044E000006200010061000100600001005F000245
:1044F000005D0001005C0001005B0001005A00014A
:104500000059000100580001005700010056000149
:104510000055000100540001005300000053000149
:10452000005200010051000100500001004F000145
:10453000004E0000004E0001004D0001004C000143
:10454000004B0000004B0001004A0001004900013F
:10455000004800000048000100470001004600003C
:104560000046000100450000004500010044000134
:10457000004300000043000100420000004200012F
:10458000004100000041000100400001003F000028
:10459000003F0001003E0000003E0001003D000021
:1045A000003D0001003C0000003C0000003C000118
:1045B000003B0000003B0001003A0000003A00010F
:1045C0000039000000390001003800000038000008
:1045D00000380001003700000037000100360000FD
:1045E00000360000003600010035000000350000F4
:1045F00000350001003400000034000000340001E8
:1046000000330000003300000033000100320000DE
:1046100000320000003200010031000000310000D3
:1046200000310001003000000030000000300001C7
:10463000002F0000002F0000002F0000002F0001BD
:10464000002E0000002E0000002E0001002D0000B2
:10465000002D0000002D0000002D0001002C0000A6
:10466000002C0000002C0000002C0001002B00009A
:10467000002B0000002B0000002B0001002A00008E
:10468000002A0000002A0000002A00010029000082
:104690000029000000290000002900000029000175
:1046A000002800000028000000280000002800006A
:1046B000002800010027000000270000002700005C
:1046C000002700000027000100260000002600004F
:1046D0000026000000260000002600010025000042
:1046E0000025000000250000002500000025000036
:1046F0000025000100240000002400000024000028
:10470000002400000024000100230000002300001A
:10471000002300000023000000230000002300000D
:1047200000230001002200000022000000220000FF
:1047300000220000002200000022000100210000F1
:1047400000210000002100000021000000210000E5
:1047500000210000002100010020000000200000D6
:1047600000200000002000000020000000200000C9
:104770000020000000200001001F0000001F0000BA
:10478000001F0000001F0000001F0000001F0000AD
:10479000001F0001001E0000001E0000001E00009F
:1047A000001E00000039300000332500008719008A
:1047B00000B00F0000DB080000BD04000074020020
:1047C000003F01000020436F756E7420583A0020AE
:1047D00053004D313036205000004265747400455E
:1047E0003100626564002C2073797374656D2073E9
:1047F000746F7070656421204865617465725F49EB
:10480000443A20004845495A454E204552464F4CAF
:10481000474C4F530048656174696E672066616953
:104820006C656400202D20496E76616C696420659A
:1048300078747275646572206E756D626572202180
:104840000A002008204E4943485420455252454909
:1048500043485400546865726D616C2052756E61F6
:1048600077617900200820C39C4245525343485247
:10487000495454454E004D415854454D5020747292
:104880006967676572656400200820554E5445527B
:1048900053434852495454454E004D494E54454D9A
:1048A0005020747269676765726564000A0A0020A7
:1048B000205A5F4D494E3A002020595F4D494E3AEB
:1048C000002020585F4D494E3A00220A00556E6B79
:1048D0006E6F776E20636F6D6D616E643A2022009B
:1048E000DB0FC93F45BCDA3F8FB30240FCF02740E5
:1048F00056946140FE4B9B4084A5D840E02318416C
:10490000346A5641E859974164DBD5416E27174216
:10491000B4B75542CE1A9742C8AED542B5885A436D
:10492000D40684BFA65FA7BF7443E0BF10B11AC00E
:104930001C2C58C0E8F697C0B849D6C04E4E17C1D7
:1049400024D355C1802497C1A0B5D5C1121A17C26E
:1049500044AE55C2781797C26CACD5C267885AC3AB
:1049600020746F6F206C6F6E67206578747275733A
:10497000696F6E2070726576656E7465640A0020DA
:10498000636F6C6420657874727573696F6E2070E4
:10499000726576656E7465640A00202F00204240BF
:1049A0003A0020403A0020573A000009121B242DFB
:1049B000363F48415A536C657E7719100B023D34DF
:1049C0002F265158434A757C676E323B2029161FAB
:1049D000040D7A7368615E574C452B2239300F06FF
:1049E0001D14636A7178474E555C646D767F40494B
:1049F000525B2C253E3708011A137D746F6659509F
:104A00004B42353C272E1118030A565F444D727BEA
:104A100060691E170C053A3328214F465D546B62BE
:104A20007970070E151C232A31384148535A656C9A
:104A3000777E09001B122D243F3658514A437C755E
:104A40006E671019020B343D262F737A6168575E2A
:104A5000454C3B3229201F160D046A6378714E477E
:104A60005C55222B3039060F141D252C373E0108CA
:104A7000131A6D647F7649405B523C352E2718111E
:104A80000A03747D666F5059424B171E050C333A6A
:104A900021285F564D447B7269600E071C152A233E
:104AA0003831464F545D626B70797C3C3E5E2B3DE5
:104AB0003F2F5B5D3B2C2A225C00446F6E652E0A03
:104AC0000050756C73696E6720202000556E746FFE
:104AD000756368656420005A5F50524F42455F53CA
:104AE0004552564F5F4E52206E6F7420736574208E
:104AF00075702E0A005761746368696E672070696B
:104B00006E730A0064697300656E0061626C6564AF
:104B10000A00656E6473746F70206D6F6E69746FD8
:104B2000722000204D393220580020580020204D9E
:104B300061783A2000200020204D696E3A20005311
:104B40006F667420656E6473746F70733A20002012
:104B50006F7574206F662072616E67650A00536519
:104B600072766F20003A200020536572766F200025
:104B700025290A00252000203B2028002044002071
:104B8000410020490020204D3731302053003B2088
:104B9000436F6E74726F6C6C65722046616E0A00B2
:104BA00020496E76616C69642065787472756465FD
:104BB0007220005A5F53544F505F50494E005A5F65
:104BC000535445505F50494E005A5F4D494E5F5017
:104BD000494E005A5F454E41424C455F50494E0098
:104BE0005A5F4449525F50494E00595F53544F50E9
:104BF0005F50494E00595F535445505F50494E0035
:104C0000595F4D494E5F50494E00595F454E4142F4
:104C10004C455F50494E00595F4449525F50494EE0
:104C200000585F53544F505F50494E00585F5354E3
:104C300045505F50494E00585F4D494E5F50494EB8
:104C400000585F454E41424C455F50494E00585F09
:104C50004449525F50494E0053535F50494E0053F0
:104C60004552564F335F50494E00534552564F32CE
:104C70005F50494E00534552564F315F50494E00E8
:104C8000534552564F305F50494E005344535300E2
:104C900053445F4445544543545F50494E00534389
:104CA0004B5F50494E0052414D50535F44395F5065
:104CB000494E0052414D50535F44385F50494E00B9
:104CC00052414D50535F4431305F50494E004D4F7B
:104CD00053495F50494E004D49534F5F50494E0074
:104CE0004D4158363637355F53535F50494E004C6F
:104CF00045445F50494E004C43445F50494E535F1A
:104D00005253004C43445F50494E535F454E41421D
:104D10004C45004C43445F50494E535F4437004C70
:104D200043445F50494E535F4436004C43445F5008
:104D3000494E535F4435004C43445F50494E535FE6
:104D40004434004845415445525F4245445F504910
:104D50004E004845415445525F305F50494E004631
:104D6000494C5F52554E4F55545F50494E00464195
:104D70004E325F50494E0046414E315F50494E0021
:104D800046414E5F50494E0045315F535445505F98
:104D900050494E0045315F454E41424C455F5049B8
:104DA0004E0045315F4449525F50494E0045315FE6
:104DB00043535F50494E0045305F535445505F5058
:104DC000494E0045305F454E41424C455F50494E8B
:104DD0000045305F4449525F50494E0045305F41C5
:104DE00055544F5F46414E5F50494E00455F4D550B
:104DF00058325F50494E00455F4D5558315F50491C
:104E00004E00455F4D5558305F50494E00444F4766
:104E10004C43445F53434B00444F474C43445F4D26
:104E20004F534900434F4E54524F4C4C45525F46EE
:104E3000414E5F50494E0042544E5F454E43004242
:104E4000544E5F454E320042544E5F454E31004253
:104E500045455045525F50494E004156525F5353AD
:104E60005F50494E004156525F53434B5F50494E8D
:104E7000004156525F4D4F53495F50494E004156D5
:104E8000525F4D49534F5F50494E0054454D505F5E
:104E90004245445F50494E0054454D505F315F508C
:104EA000494E0054454D505F305F50494E005458B4
:104EB000443000525844300050574D3A2020253499
:104EC000640050574D3A20202534640050574D3A25
:104ED00020202534640050574D3A202025346400AA
:104EE00050574D3A20202534640050574D3A202029
:104EF0002534640050574D3A202025346400505723
:104F00004D3A20202534640050574D3A2020253456
:104F1000640050574D3A20202534640050574D3AD4
:104F200020202534640050574D3A20202534640059
:104F300050574D3A20202534640050574D3A2020D8
:104F40002534640050574D3A2020253464005057D2
:104F50004D3A2020253464003A20002020202043B0
:104F60004F4D002020206E6F6E2D7374616E646152
:104F700072642050574D206D6F64650020202063BF
:104F80006F6D7061726520696E7465727275707490
:104F900020656E61626C6564002020206F7665720A
:104FA000666C6F7720696E746572727570742065B7
:104FB0006E61626C6564003A200020202020544914
:104FC0004D534B00423A20002020202054434352AE
:104FD00000413A200020202020544343520020204A
:104FE000202043533A20002020202057474D3A20CC
:104FF0000050574D3A20202534640050574D3A2038
:10500000202534640047004800000088008A008C96
:1050100000B300B400000098009A009C00A800AA09
:1050200000AC0028012A012C012020202054494DE9
:10503000455200440045006E00800081006F00B0C2
:1050400000B1007000900091007100A000A10072FA
:105050000020012101730020697320616C736F20AF
:105060007469656420746F20746869732070696E58
:105070000054494D45523143000A202E00202000A3
:1050800000000A0B02090C0D0E08070304010000C2
:105090000000000000000000000000000000000010
:1050A00000000000000000000000000012111000CD
:1050B00000000000000000000000000000000000F0
:1050C00000000000000000000000000000000000E0
:1050D000010210202008081020401020408002010A
:1050E00002010804020101020408102040808040EF
:1050F00020100804020180040201804020100804EE
:10510000020108040201010204081020408001028B
:10511000040810204080100804088010204004403B
:1051200080102040048005050505070508080808CB
:10513000020202020A0A080804040404010101012F
:10514000010101010303030303030303040707072A
:105150000C0C0C0C0C0C0C0C0202020206060606CF
:10516000060606060B0B0B0B0B0B0B0B07070A0AAD
:105170000A0A0A0A05050504040408082020506FDD
:1051800072743A200020202000202020416E616CA3
:105190006F6720696E203D2025356C64003C756E7C
:1051A000757365642F756E6B6E6F776E3E00202889
:1051B0004125326429202000253364200050494EC7
:1051C0003A20004F7574707574203D2000496E7050
:1051D000757420203D2000416E616C6F6720696E00
:1051E000203D2025356C640070726F7465637465B2
:1051F00064200020284125326429202000253364C2
:10520000200050494E3A2000B34E0001AE4E01013D
:10521000A34E4300984E45008B4E44007E4E320113
:10522000714E3301654E34015A4E35014F4E250102
:10523000474E21013F4E1F01374E2301244E0701E7
:10524000184E33010D4E3401024E2801F74D2A014C
:10525000EC4D2C01DC4D2C01D14D1C01C34D18012E
:10526000B74D1A01AD4D2C01A24D2201944D1E01E6
:10527000884D2401804D0901774D07016E4D2C01A9
:105280005F4D0401524D0A01434D0801374D17018E
:105290002B4D19011F4D1B01134D1D01034D110114
:1052A000F74C1001EF4C0D01E04C4201D74C32019C
:1052B000CE4C3301C04C0A01B34C0801A64C090185
:1052C0009E4C3401904C31018B4C3501804C0B01CC
:1052D000754C06016A4C05015F4C0401584C3501C0
:1052E0004E4C3701414C2601374C03012C4C360102
:1052F000214C0301174C3D010A4C3801004C0E01B2
:10530000F54B3C01EA4B0E01E04B3001D34B3E0123
:10531000C94B1201BE4B2E01B34B12014361703ACF
:105320000047322F47332062616420706172616DE3
:1053300065746572730A00220A00656E7175657581
:1053400065696E672022006F6B00526573656E643D
:105350003A200000002110422063308440A550C64E
:1053600060E770088129914AA16BB18CC1ADD1CEA3
:10537000E1EFF13112100273325222B5529442F72A
:1053800072D662399318837BB35AA3BDD39CC3FFF3
:10539000F3DEE36224433420040114E664C774A4FA
:1053A0004485546AA54BB528850995EEE5CFF5AC43
:1053B000C58DD55336722611163006D776F666950A
:1053C00056B4465BB77AA719973887DFF7FEE79D93
:1053D000D7BCC7C448E5588668A77840086118025A
:1053E000282338CCC9EDD98EE9AFF9488969990AE3
:1053F000A92BB9F55AD44AB77A966A711A500A336A
:105400003A122AFDDBDCCBBFFB9EEB799B588B3B32
:10541000BB1AABA66C877CE44CC55C222C033C60B9
:105420000C411CAEED8FFDECCDCDDD2AAD0BBD6882
:105430008D499D977EB66ED55EF44E133E322E5149
:105440001E700E9FFFBEEFDDDFFCCF1BBF3AAF59D2
:105450009F788F8891A981CAB1EBA10CD12DC14E43
:10546000F16FE18010A100C230E3200450254046D6
:10547000706760B9839893FBA3DAB33DC31CD37FF5
:10548000E35EF3B1029012F322D232354214527726
:10549000625672EAB5CBA5A89589856EF54FE52CC5
:1054A000D50DC5E234C324A0148104667447642476
:1054B000540544DBA7FAB79987B8975FE77EF71DD5
:1054C000C73CD7D326F2369106B0165766767615C6
:1054D0004634564CD96DC90EF92FE9C899E9898A25
:1054E000B9ABA94458654806782768C018E1088216
:1054F00038A3287DCB5CDB3FEB1EFBF98BD89BBB35
:10550000AB9ABB754A545A376A167AF10AD01AB365
:105510002A923A2EFD0FED6CDD4DCDAABD8BADE884
:105520009DC98D267C076C645C454CA23C832CE0B5
:105530001CC10C1FEF3EFF5DCF7CDF9BAFBABFD914
:105540008FF89F176E367E554E745E932EB23ED105
:105550000EF01E20453A00205A3A0020593A0058D1
:105560003A0056206D696E204C65657266616872FE
:10557000740056206D696E200056206D61782045BC
:105580000056206D6178205A0056206D61782059B0
:105590000056206D617820580041206D61782045CB
:1055A0000041206D6178205A0041206D61782059BA
:1055B0000041206D617820580041204C656572667D
:1055C0006168727400412045696E7A7567004265B2
:1055D0007363686C65756E6967756E670045205307
:1055E000746570732F6D6D005A2053746570732F3E
:1055F0006D6D00592053746570732F6D6D005820C8
:1056000053746570732F6D6D004572772E20456958
:105610006E7374656C6C756E67656E004D32340028
:105620004D3233202573002E0A006F70656E2066A0
:1056300061696C65642C2046696C653A2000466996
:105640006C652073656C65637465640A002053693A
:105650007A653A200046696C65206F70656E6564F6
:105660003A2000454E4420535542524F5554494E1E
:10567000450A002220706F73002220706172656EEF
:10568000743A2200535542524F5554494E452043D7
:10569000414C4C207461726765743A220053756204
:1056A00063616C6C20C3BC626572736368726974F9
:1056B00074656E004578636565646564206D617826
:1056C00020535542524F5554494E452064657074DD
:1056D000683A310A0057726974696E6720746F20E6
:1056E00066696C653A2000667265736800646F696C
:1056F0006E67002066696C653A20004E6F77200067
:10570000025045544700504C410000002100240045
:1057100027002A002D0030003300010100000401A1
:1057200007010A0100002200250028002B002E009E
:105730003100340002010000050108010B010000E6
:1057400020002300260029002C002F003200000139
:105750000000030106010901050505050705080804
:105760000808020202020A0A0808040404040101EB
:105770000101010101010303030303030303040700
:1057800007070C0C0C0C0C0C0C0C02020202060697
:105790000606060606060B0B0B0B0B0B0B0B01028A
:1057A0001020200808102040102040800201020133
:1057B00008040201010204081020408080402010EB
:1057C0000804020180040201804020100804020144
:1057D00008040201010204081020408001020408AC
:1057E0001020408000000A0B02090C0D0E08070370
:1057F00004010000000000000000000000000000A4
:105800000000000000000000000000000000000098
:105810001211100000000000000000000000000055
:105820000000000000000000000000202573206D33
:105830006D0020302C312020206D6D0020312C3067
:105840002020206D6D0031302C302020206D6D0027
:1058500041636873656E206265776567656E0042B7
:105860006577656765204578747275646572004276
:105870006577656765205A004265776567652059D9
:1058800000426577656765205800065701574669ED
:105890006C616D656E74207765636873656C6E000E
:1058A00046696C616D656E7420656E746C616465CB
:1058B0006E0046696C616D656E74206C6164656E26
:1058C0000062656E75747A65726465662E2048653F
:1058D000697A656E002420566F7277C3A4726D6575
:1058E0006E005A7572C3BC636B00426574740047E6
:1058F0006568C3A475736500454550524F4D2064DB
:1059000061746173697A65206572726F722E0A0024
:10591000290A002062797465733B2063726320005A
:105920002073746F7265642073657474696E677335
:10593000207265747269657665642028002028638A
:10594000616C63756C6174656429210A0020213DD6
:105950002000454550524F4D20435243206D6973FE
:105960006D61746368202D202873746F72656429DB
:1059700020002053697A653A2000496E6465783AC0
:1059800020004669656C64206261636B6C617368BA
:105990005F64697374616E63655F6D6D206D6973BB
:1059A0006D617463682E0A004669656C64206663E5
:1059B0005F73657474696E6773206D69736D61746C
:1059C00063682E0A004669656C6420706C616E6EB7
:1059D00065725F736B65775F666163746F72206D6C
:1059E00069736D617463682E0A004669656C642092
:1059F000636F6F7264696E6174655F7379737465E8
:105A00006D206D69736D617463682E0A00444947A7
:105A100049504F5453204C6F616465640A004449F7
:105A20004749504F5453204C6F6164696E670A00B8
:105A30004669656C64206D6F746F725F6375727216
:105A4000656E745F73657474696E67206D69736DDC
:105A5000617463682E0A004669656C6420706C612D
:105A60006E6E65725F65787472756465725F61648D
:105A700076616E63655F4B206D69736D61746368F9
:105A80002E0A004669656C6420746D635F737465EB
:105A9000616C74685F656E61626C6564206D6973CA
:105AA0006D617463682E0A004669656C6420746DCC
:105AB000635F736774206D69736D617463682E0A28
:105AC000004669656C6420746D635F687962726911
:105AD000645F7468726573686F6C64206D69736D60
