:100000000C9405390C9436390C9436390C943639E5
:100010000C9436390C9436390C9436390C943639A4
:100020000C9436390C9436390C9436390C94363994
:100030000C9436390D9468160C9436390C94363974
:100040000C9436390D94B3200C9436390C9436390F
:100050000C9436390C9436390C940F8C0D94839B88
:100060000C9436390C94EC5D0C94E25D0C943639AA
:100070000C9436390C9436390C9436390C94363944
:100080000C940C520C9436390C9436390C94363945
:100090000C9436390C9436390C9436390C94363924
:1000A0000C9436390C9436390C94DE510C94363954
:1000B0000C9436390C9436390C9436390C94363904
:1000C0000C9436390C9436390C9436390C943639F4
:1000D0000C9436390C9436390C9436390C943639E4
:1000E0000C943639B853F4533E542155DD54B85569
:1000F000085726572F5740021A022E0234022E02AA
:100100002E022E022E022E022E022E022E022E026F
:100110002E022E022E022E022E022E022E022E025F
:100120002E022E022E022E022E022E022E022E024F
:100130002E029C012E022E022E022E022E022E02D2
:100140002E022E026E012E022E022E022E022E02F0
:100150002E022E022E022E022E02C2010E03980142
:100160001A0302026603B6024A022A0232020A0295
:10017000CA027A02C202BE024203DC02D401DC01DE
:100180005602A00206033E038C0138036A023603BE
:10019000C00156024E017C023C0126037C0124036F
:1001A000080366020E025A01FC01CE02E0015E0263
:1001B0004001700298020E026C01B4025603C002A4
:1001C0001603DE029E017E010403F802E2025403DC
:1001D0002002C401B20250035201CC025C01E201D0
:1001E000D601D80222034A035003B0029C02440104
:1001F000680306026402640158038A017201500216
:10020000E401A602EA016001D001A2028A016201B2
:1002100082027A01084AD73B3BCE016E84BCBFFD07
:10022000C12F3D6C74319ABD56833DDA3D00C77FC6
:1002300011BED9E4BB4C3E916BAAAABE000000805F
:100240003F05A84CCDB2D44EB93836A9020C50B9EE
:10025000918688083CA6AAAA2ABE000000803F001A
:100260000D9462510C94F4990D94CF180D94D147CC
:100270000D94D2630C94B8550D940F8C0D941356B5
:100280000D94C48D0D9462520D94EE990D94798560
:100290000D9412860D94F5550D94E1630D94C58B64
:1002A0000C9426570D94C0990C94CBCB0D94075603
:1002B0000D94A1520D94B38D0D94CA990D944F577E
:1002C0000D94AF9A0D94D29A0D946D9A0C94386F48
:1002D0000C9472850C941D9A0D94CE8D0D94F1653D
:1002E0000C94159F0D94819A0D94CB590C94F99907
:1002F0000D94E9170D94E69A0D94A58D0D948094B4
:100300000D94E0790C943E540D94AB820D940757F4
:100310000D9412190D94F09A0D940C8B0C9499CDA8
:100320000D9419560C94EA990D94D5180C942155F6
:100330000D948C890C941A7E0D9418660D9412936A
:100340000C9403C90D9484880D9401560C9486D2A4
:100350000D940D560D9435160C94D4980C94356F5D
:100360000D94ED550C94E0D40D94E1180C94E79A9B
:100370000D941F560D94D5470C94EFCC0C94317E00
:100380000D94A08B0D9435660D94AF990C94D6986E
:100390000D9475520D9470880D94097A0D948837D8
:1003A0000D94BE9A0D9418190D94578A0D94D299F4
:1003B0000C94B87E0D94EC1A0D947C8A0D94F982FD
:1003C0000D94BD8D0D94CE990D94919A0D94FB557D
:1003D0000D94261F0D94A59A0D945E420D94DD4751
:1003E0000C94F4530C94487E0D9440570D94B351E3
:1003F0000D94C3550D947C880D94B68D0C941C9C63
:100400000C94AC980D9468890D94CE510D945E9A1D
:100410000D9496170D9474890D94D7470D94D98D2A
:100420000C9408570D948C370C94BC7E0C949D9DB5
:100430000D94EB860D9451640D9484370D944F52B6
:100440000D94AB990D94E9510C94D8980D94F4A5A2
:100450000D94D3520D9471890D942B560D948A648A
:100460000D9461560D947D890D941E660D94DB17D5
:100470000C94A6890D9402520D94C2170D946C88A9
:100480000D94E2650D94BA520C94AE830D94CC1881
:100490000C945F6F0D946E890C94FE990D942B4211
:1004A0000D94899A0D9437560D94CC550D94338C38
:1004B0000C9403CB0D94E1470D94DB470D94C08D54
:1004C0000D9406190D94DF820D94639A0D94AF8DEF
:1004D0000D947D510D94568B0D9468880D9425577D
:1004E0000D94C78D0D9464880D9442560D94A917F0
:1004F0000C94B8530D9477890D94EA8B0C94DD54C9
:100500000C94EF990D94DC9A0C949C9A0C9494980A
:100510000C94E4990D9425560D941A1F0D945C8843
:100520000D9416570D94D2180D94DB840D948A45C2
:100530000D94CA8D0D945F1C0D94EA990D94365458
:100540000D94A18A0D94C89A0C94F2CA0D949B9AAA
:100550000D949D370C94B7CB0C9401CF0D94DA59C0
:100560000D94E6990D94B5990D94D18D0D946B89E8
:100570000D94B2470D94DF470D9478880D94F0895F
:100580000D9456940D947A890D9419440D94A137C5
:100590000D9431570D948A890D94C4990D94BA8D98
:1005A0000C9463CB0C94D1CB0C94969A0D947682D8
:1005B0000D94D8990C9480D20D94328A0D940C939A
:1005C0000C94E09A0D94B9990D94C5820C94346FF3
:1005D0000D9491820D9498510C94DAE20D94F85692
:1005E0000D941B520C9471980C94BFCB0C94C16F5A
:1005F0000D9471940C94CD980C942F570D94808881
:100600000C94348B0D94D3470D948D940D94C48A1F
:100610000D94AC8D0D94B4550C9406D50D9487644F
:100620000D948E520D9431560D941DA60D943C934D
:100630000D9442820D9465890D940B160D945C8285
:100640000D9474880D94DC990D94A98D0D94A28D50
:100650000C946EA10D945E570C9401CB0D94C6635F
:100660000C94A4980C94F7CA0C94FCCA0D947B8B40
:100670000D94318B0D940C190C9444CB0D94E78A96
:100680000C94884E0D94128A0D94D9470C94A1A015
:100690000C9445D10D94E0990D9403430D9434527C
:1006A0000D94F3990D94F3180D94BC990D94D48D79
:1006B0000D94779A0C945F7E0D94EC520C94E96F34
:1006C0000D94C9630D94D7560D9460880D948F894D
:1006D0000D94599A4E414E494E495459494E46CD72
:1006E000CCCC3D0AD7233C17B7D13877CC2B3295E9
:1006F00095E6241FB14F0A000020410000C84200C7
:10070000401C4620BCBE4CCA1B0E5AAEC59D740090
:10071000407A10F35A00A0724E18090010A5D4E8D0
:100720000000E87648170000E40B54020000CA9A63
:100730003B000000E1F505000080969800000040B5
:10074000420F000000A086010000001027000000FA
:1007500000E803000000006400000000000A000040
:100760000000000100000000002C76D888DC674FF4
:100770000823DFC1DFAE59E1B1B796E5E3E453C624
:100780003AE651997696E8E6C28426EB898C9B621C
:10079000ED407C6FFCEFBC9C9F40F2BAA56FA5F4C6
:1007A00090055A2AF75C936B6CF9676DC11BFCE0EE
:1007B000E40D47FEF520E6B500D0ED902E03009441
:1007C0003577050080841E080000204E0A000000D6
:1007D000C80C333333330F986E12831141EF8D21E0
:1007E00014893BE65516CFFEE6DB18D1844B381B47
:1007F000F77C1D901DA4BBE424203284725E22810C
:1008000000C9F124ECA1E53D27434F4D4D554E491C
:10081000434154494F4E0044525952554E0045529F
:10082000524F525300494E464F004543484F0047F0
:10083000322F47332062616420706172616D65748C
:100840006572730A0057617274656E2E2E2E005AFF
:100850002050726F62652050617374204265640A93
:10086000005A2D536F6E6465206175C39F65726871
:10087000616C6200205A3A200020593A20004265FB
:100880006420583A20004D65736820706F696E745B
:10089000206F7574206F662072616E67650A004B69
:1008A0006C69636B207A756D20466F727473657422
:1008B0007A656E004D6F746F72656E20616E67654C
:1008C000736368616C74657400456E642066696C5E
:1008D00065206C6973740A00426567696E206669F9
:1008E0006C65206C6973740A004E6F206D656469D5
:1008F000610A00286E6F2066696C65290043757275
:1009000072656E742066696C653A200053442070ED
:1009100072696E74696E67206279746520004E6F2B
:1009200074205344207072696E74696E670A0053B4
:100930007769746368696E6720746F2042696E61BD
:1009400072792050726F746F636F6C0A0050726915
:100950006E742074696D653A20006F6B006F666677
:10096000002A0825081E081708090844454255476B
:100970003A004D3131322053687574646F776E00E0
:100980004D31313320530042657474206BC3BC6811
:100990006C742E2E2E0042657474206865697A741A
:1009A0002E2E2E00344D4158202D20766733722094
:1009B0004F46462E002F2F20004D31343520533C1A
:1009C000696E6465783E206F7574206F6620726171
:1009D0006E67652028302D31290A003F4A206F7547
:1009E00074206F662072616E67652028302E30316A
:1009F00020746F20302E33290A0046523A002046D8
:100A00006C6F773A2000206F7574206F66207261DA
:100A10006E67650A00536572766F20003A200020E9
:100A2000536572766F200020643A0020693A0020F6
:100A3000703A00496E76616C6964206578747275ED
:100A40006465720A0020643A0020693A0020703A16
:100A50000064697300656E0043290A0061626C6579
:100A60006420286D696E2074656D702000436F6C82
:100A70006420657874727564657320617265200006
:100A80004F4646004F4E0046696C616D656E74209E
:100A900072756E6F757420004D34323120696E634B
:100AA0006F727265637420706172616D65746572D6
:100AB0002075736167650A004D65736820706F6902
:100AC0006E74206F7574206F662072616E67650AA0
:100AD00000454550524F4D204F4B0A004F46460AA5
:100AE0000043617365206C696768743A20004D3873
:100AF0003400446F6E65207072696E74696E672091
:100B000066696C650A004D3737004D333100457218
:100B1000726F722077726974696E6720746F2045F6
:100B20004550524F4D210A00363726033C3D380EC2
:100B30002E303E12131A1C180A2C4309072C0708E2
:100B40004400015046543A696F6572726F720A0030
:100B50005046543A737563636573730A0050544684
:100B60003A696E76616C69640A005046543A73754E
:100B700063636573730A005046543A696F65727215
:100B80006F720A005046543A696E76616C69640A65
:100B9000005046543A696E76616C69640A005046AA
:100BA000543A6661696C0A005046543A737563633F
:100BB0006573730A005046543A627573790A002CC3
:100BC000003A636F6D70726573696F6E3A68656144
:100BD00074736872696E6B2C002E002E00504654A0
:100BE0003A76657273696F6E3A00556E7375707000
:100BF0006F727465642042696E6172792050726F01
:100C0000746F636F6C0A00556E6B6E6F776E204267
:100C1000696E61727950726F746F636F6C436F6E3F
:100C200074726F6C205061636B65740A00666500B6
:100C30004461746173747265616D2074696D656F70
:100C400075740A00727300526573656E6420726574
:100C5000717565737420006F6B0029207061796C69
:100C60006F616420636F72727570740A0050616303
:100C70006B657428004461746173747265616D20E2
:100C80007061636B6574206461746120627566666F
:100C90006572206F76657272756E0A003F29206357
:100CA0006F72727570740A005061636B65742068AE
:100CB0006561646572280044617461737472656172
:100CC0006D207061636B6574206F7574206F662092
:100CD0006F726465720A006F6B002E002E002C008C
:100CE0002C007373004D343130004D313132004DE2
:100CF00031303800414E474548414C54454E005034
:100D000072696E7465722073746F707065642064AC
:100D1000756520746F206572726F72732E2046693C
:100D20007820746865206572726F7220616E64202D
:100D3000757365204D39393920746F20726573746D
:100D40006172742E202854656D70657261747572BD
:100D5000652069732072657365742E205365742055
:100D6000697420616674657220726573746172744F
:100D7000696E67290A004E6F20436865636B73755F
:100D80006D2077697468206C696E65206E756D6280
:100D900065722C204C617374204C696E653A20009A
:100DA0004E6F20436865636B73756D207769746857
:100DB000206C696E65206E756D6265722C204C61C9
:100DC0007374204C696E653A2000636865636B73C9
:100DD000756D206D69736D617463682C204C61734F
:100DE00074204C696E653A20004C696E65204E7522
:100DF0006D626572206973206E6F74204C6173742C
:100E0000204C696E65204E756D6265722B312C2009
:100E10004C617374204C696E653A20004D3131305D
:100E20000053442072656164206572726F720A001B
:100E30002121204B494C4C2063617573656420620D
:100E40007920746F6F206D75636820696E616374BB
:100E50006976652074696D65202D206375727265F1
:100E60006E7420636F6D6D616E643A2000627573FD
:100E7000793A2070617573656420666F7220696EBF
:100E80007075740A00627573793A207061757365C4
:100E90006420666F7220757365720A0062757379DB
:100EA0003A2070726F63657373696E670A004D65EF
:100EB0006469756D20656E746665726E74004D654B
:100EC0006469756D2065726B616E6E74004D3630AD
:100ED0003000507265737320627574746F6E207485
:100EE0006F2068656174206E6F7A7A6C650A0047BE
:100EF00032362044C3BC7365206175666865697AC3
:100F0000656E00473236206865697A7420426574E0
:100F1000740057616974696E6720666F7220686536
:100F2000617475702E0A004665737465204CC3A405
:100F30006E6765205072696D65005072696D696EEB
:100F40006720666572746967004D616E75656C6CCB
:100F5000205072696D652E2E2E0047323620616258
:100F6000676562726F6368656E004732362076652A
:100F7000726C617373656E003F5370656369666977
:100F8000656420582C5920636F6F7264696E6174B8
:100F900065206F7574206F6620626F756E64732EA6
:100FA0000A003F28522965706561742076616C756E
:100FB00065206E6F7420706C61757369626C653B3F
:100FC000206D757374206265206174206C65617397
:100FD0007420312E0A003F53706563696669656449
:100FE000206E6F7A7A6C652074656D7065726174BD
:100FF000757265206E6F7420706C61757369626CB8
:10100000652E0A003F5370656369666965642066F2
:10101000696C616D656E742073697A65206E6F749A
:1010200020706C61757369626C652E0A003F5370A5
:1010300065636966696564207072696D65206C65B9
:101040006E677468206E6F7420706C61757369626E
:101050006C652E0A003F537065636966696564209C
:101060006E6F7A7A6C652073697A65206E6F742072
:10107000706C61757369626C652E0A003F5265740D
:1010800072616374696F6E204D756C7469706C6900
:101090006572206D75737420626520737065636975
:1010A000666965642E0A003F537065636966696509
:1010B000642052657472616374696F6E204D756C43
:1010C0007469706C696572206E6F7420706C6175E4
:1010D0007369626C652E0A003F53706563696669C7
:1010E0006564206C61796572206865696768742041
:1010F0006E6F7420706C61757369626C652E0A0086
:1011000043292E0A003F5370656369666965642050
:101110006265642074656D706572617475726520B6
:101120006E6F7420706C61757369626C6520283411
:10113000302D00473236207374617274696E672EE9
:101140002E2E0A0043616E6E6F74206F70656E20E4
:1011500073756264697220002569730025696D20CA
:10116000256973002569682025696D20256973004C
:10117000256964202569682025696D20256973002B
:1011800025697920256964202569682025696D20F5
:10119000256973000A53746174733A2046696C615F
:1011A0006D656E7420757365643A20002C204C6F59
:1011B0006E67657374206A6F623A2000546F7461C1
:1011C0006C2074696D653A200053746174733A2021
:1011D000002C204661696C65643A20002C20466929
:1011E0006E69736865643A20005072696E74733A70
:1011F000200053746174733A20006BC3BC686C7434
:101200002E2E2E006865697A742E2E2E004520251C
:10121000530023646566696E652044454641554C1C
:10122000545F00626564004B6420004B6920004BF2
:10123000702000504944204175746F74756E6520AC
:1012400066696E69736865642120507574207468DE
:1012500065206C617374204B702C204B6920616E8B
:1012600064204B6420636F6E7374616E74732066C8
:10127000726F6D2062656C6F7720696E746F2043AA
:101280006F6E66696775726174696F6E2E680A00A9
:10129000504944204175746F74756E6520666169AC
:1012A0006C6564212074696D656F75740A0050491E
:1012B00044204175746F74756E65206661696C6554
:1012C00064212054656D7065726174757265207457
:1012D0006F6F20686967680A00204B643A2000201D
:1012E0004B693A2000204B703A20000A20436C6181
:1012F0007373696320504944200A00204B643A20EC
:1013000000204B693A2000204B703A20000A204E02
:101310006F206F76657273686F6F740A0020547562
:101320003A2000204B753A2000206D61783A200069
:10133000206D696E3A200020643A200020626961C5
:10134000733A2000504944204175746F74756E657E
:101350002073746172740A00504944204175746F9F
:1013600074756E65206661696C6564212054656DD5
:10137000706572617475726520746F6F206869673B
:10138000680A00504944204175746F74756E650099
:10139000504944204175746F74756E6520666169AB
:1013A0006C6564212042616420657874727564659F
:1013B00072206E756D6265720A004572723A207510
:1013C00074663820666F6E74206E6F7420696E6963
:1013D0007469616C697A65642E004572723A207591
:1013E00074663820666F6E74206E6F7420696E6943
:1013F0007469616C697A65642E004572723A207571
:1014000074663820666F6E74206E6F7420696E6922
:101410007469616C697A65642E002568753A2530B7
:101420003268750025303268753A253032687500AB
:10143000256875642025303268753A253032687524
:1014400000000C0F00FE07022503BB01FFFE0AFE91
:1014500008FE05080806000040F0C8888898781043
:10146000050808060000C0F88888888888F80505FF
:10147000050600012030F83020050808060000208D
:1014800070F820202020E00509090600FF2070A840
:10149000A8B888887020070505070001D86C366C4D
:1014A000D80509090600FFF8A88888888888A8F860
:1014B000050A0A0600FE205050505088A8A88870DF
:1014C00003030306000340A040FFFFFFFFFFFFFFF1
:1014D000FFFFFFFFFFFFFFFFFFFFFFFFFFFFFF001B
:1014E00000000605FF01070706020080808080805B
:1014F0000080030303060105A0A0A0050606060060
:101500000050F85050F8500509090600FF2070A857
:10151000A07028A87020050707060000C8C8102082
:1015200040989805070706000040A0A040A89068D2
:101530000103030602058080800309090601FF20DC
:1015400040408080804040200309090601FF804020
:101550004020202040408005070706000020A8709A
:101560002070A8200505050600012020F820200293
:1015700003030601FFC04080050101060003F802D5
:101580000202060100C0C00507070600000810108F
:1015900020404080050707060000708898A8C8888A
:1015A0007003070706010040C040404040E00507C7
:1015B00007060000708808102040F805070706009D
:1015C00000F8081030088870050707060000103082
:1015D0005090F81010050707060000F880F0080882
:1015E0008870050707060000304080F08888700585
:1015F0000707060000F8081010202020050707063E
:1016000000007088887088887005070706000070E1
:10161000888878081060020505060100C0C000C077
:10162000C00206060601FFC0C000C04080030505D9
:101630000601012040804020050303060002F80057
:10164000F8030505060101804020408005070706D4
:101650000000708810202000200507070600007099
:1016600088B8A8B88070050707060000708888F859
:10167000888888050707060000F04848704848F049
:1016800005070706000070888080808870050707BE
:10169000060000F04848484848F0050707060000E3
:1016A000F88080F08080F8050707060000F8808049
:1016B000F080808005070706000070888080988889
:1016C00070050707060000888888F888888803075F
:1016D00007060100E04040404040E00507070600E3
:1016E0000038101010109060050707060000889061
:1016F000A0C0A09088050707060000808080808039
:1017000080F805070706000088D8A888888888051B
:1017100007070600008888C8A89888880507070674
:10172000000070888888888870050707060000F028
:101730008888F08080800507070600007088888808
:10174000A89068050707060000F08888F0A0908838
:101750000507070600007088807008887005070775
:10176000060000F8202020202020050707060000A2
:101770008888888888887005070706000088888818
:101780008850502005070706000088888888A8A888
:1017900050050707060000888850205088880507F4
:1017A0000706000088885020202020050707060033
:1017B00000F80810204080F80309090601FFE080C6
:1017C000808080808080E005070706000080404020
:1017D000201010080309090601FFE0202020202026
:1017E0002020E005030306000520508805010106BE
:1017F00000FEF803030306010580402005050506E9
:10180000000070087888780507070600008080F0DF
:10181000888888F0050505060000708080887005BE
:1018200007070600000808788888887805050506F7
:1018300000007088F08070050707060000304840FF
:10184000E04040400507070600FE70888888780859
:10185000700507070600008080F0888888880307E5
:10186000070601004000C0404040E00409090601AD
:10187000FE100030101010109060050707060000E1
:1018800080808890E09088030707060100C04040F0
:10189000404040E0050505060000D0A8A8A8A8051E
:1018A0000505060000B0C888888805050506000003
:1018B00070888888700507070600FEF0888888F021
:1018C00080800507070600FE788888887808080564
:1018D0000505060000B0C8808080050505060000EB
:1018E00078807008F00507070600002020F8202007
:1018F00020180505050600008888889868050505F4
:1019000006000088888850200505050600008888A4
:10191000A8A8500505050600008850205088050736
:10192000070600FE888888502040800505050600CF
:1019300000F8102040F80309090601FF204040404C
:1019400080404040200109090602FF80808080809D
:10195000808080800309090601FF804040402040CC
:1019600040408005030306000248A890FFFFFFFFE8
:10197000FFFFFFFFFFFFFFFFFFFFFFFFFFFFFFFF77
:10198000FFFFFFFFFFFFFFFFFFFFFFFFFF00000064
:101990000605FF0107070602008000808080808026
:1019A0000507070600FF2070A8A0A87020050707FC
:1019B000060000304840E04048B00505050600003C
:1019C000A8508850A80507070600008850F820F89E
:1019D00020200107070602008080800080808004AC
:1019E000080806010070806090906010E00301011B
:1019F000060107A00607070600007884B4A4B48493
:101A00007803050506010460A06000E005050506F1
:101A100000002850A05028050303060001F808081C
:101A2000030101060103E00607070600007884B4FD
:101A3000A4A48478050101060007F8040404060143
:101A400005609090600507070600002020F8202020
:101A500000F803050506010440A02040E003050549
:101A6000060104C0204020C00303030601052040F6
:101A7000800507070600FE88888898E880800508AA
:101A80000806000078E8E8E868282828020202062C
:101A90000203C0C00302020601FE20C003050506C2
:101AA000010440C04040E003050506010540A04098
:101AB00000E0050505060000A0502850A0050A0A10
:101AC00006000040C048506050B0507810050A0A27
:101AD00006000040C048506050A8081038050A0AA7
:101AE000060000C0204830E050B0507810050707CD
:101AF00006000020002020408870050A0A06000029
:101B0000402000708888F8888888050A0A06000046
:101B1000102000708888F8888888050A0A06000066
:101B2000205000708888F8888888050A0A06000016
:101B300068B000708888F888888805090906000060
:101B40005000708888F8888888050A0A06000020F6
:101B50005020708888F88888880507070600007874
:101B6000A0A0F0A0A0B80509090600FE708880803A
:101B70008088701060050A0A060000402000F88086
:101B800080F08080F8050A0A060000102000F88026
:101B900080F08080F8050A0A060000205000F880D6
:101BA00080F08080F80509090600005000F8808068
:101BB000F08080F8030A0A060100804000E04040FF
:101BC000404040E0030A0A060100204000E0404097
:101BD000404040E0030A0A06010040A000E0404007
:101BE000404040E0030909060100A000E0404040F9
:101BF0004040E0050707060000704848E848487084
:101C0000050A0A06000068B0008888C8A898888875
:101C1000050A0A06000040200070888888888870BD
:101C2000050A0A06000010200070888888888870DD
:101C3000050A0A060000205000708888888888708D
:101C4000050A0A06000068B00070888888888870D5
:101C5000050909060000500070888888888870058A
:101C6000050506000188502050880509090600FF77
:101C7000087098A8A8A8C87080050A0A0600004045
:101C8000200088888888888870050A0A0600001065
:101C9000200088888888888870050A0A0600002045
:101CA00050008888888888887005090906000050D7
:101CB0000088888888888870050A0A060000102035
:101CC000008888502020202004070706010080E0BB
:101CD000909090E080050707060000708890A09023
:101CE00088B0050808060000402000700878887851
:101CF000050808060000102000700878887805089C
:101D0000080600002050007008788878050808064A
:101D1000000068B0007008788878050707060000A2
:101D200050007008788878050808060000205020C8
:101D30007008788878050505060000702870A0787E
:101D40000507070600FE7088808870106005080887
:101D50000600004020007088F0807005080806002A
:101D6000001020007088F080700508080600002030
:101D700050007088F0807005070706000050007062
:101D800088F08070030808060100804000C04040D1
:101D900040E0030808060100204000C0404040E049
:101DA00003080806010040A000C0404040E00307CF
:101DB00007060100A000C0404040E00509090600F8
:101DC00000502050087888888870050808060000B0
:101DD00068B000B0C8888888050808060000402060
:101DE00000708888887005080806000010200070C0
:101DF00088888870050808060000205000708888D0
:101E0000887005080806000068B00070888888702F
:101E100005070706000050007088888870050505D2
:101E20000600012000F8002005050506000078984E
:101E3000A8C8F005080806000040200088888888A7
:101E40007005080806000010200088888888700542
:101E50000808060000205000888888887005070759
:101E600006000050008888888870050A0A0600FE6F
:101E7000102000888888502040800509090600FE4F
:101E80008080F0888888F080800509090600FE506F
:101E900000888888502040804C6164656E206D6D9C
:101EA00000456E746C6164656E206D6D0046696CF2
:101EB000616D656E7464757263686D657373657268
:101EC000004520696E206D6DC2B3004D3330332064
:101ED000553120452569205325690050494420414A
:101EE00075746F74756E65202A005049442D442026
:101EF0002A005049442D49202A005049442D5020A1
:101F00002A0020082046616B746F72002008206D43
:101F10006178002008206D696E0061757300616E44
:101F2000004175746F2054656D70657261747572CF
:101F30000056206D696E204C65657266616872742A
:101F40000056206D696E200056206D617820450096
:101F500056206D6178205A0056206D617820590016
:101F600056206D617820580020436F756E7420589C
:101F70003A002053004D3130362050000042657445
:101F80007400453100626564002C207379737465B8
:101F90006D2073746F70706564212048656174658D
:101FA000725F49443A20004845495A454E204552FF
:101FB000464F4C474C4F530048656174696E67202B
:101FC0006661696C656400202D20496E76616C69DC
:101FD00064206578747275646572206E756D6265D3
:101FE0007220210A002008204E49434854204552BF
:101FF00052454943485400546865726D616C2052E3
:10200000756E6177617900200820C39C4245525368
:10201000434852495454454E004D415854454D5043
:102020002074726967676572656400200820554EE8
:1020300054455253434852495454454E004D494E1D
:1020400054454D5020747269676765726564000A73
:102050000A0020205A5F4D41583A0020205A5F4D17
:10206000494E3A002020595F4D494E3A00202058F1
:102070005F4D494E3A00202F002042403A00204058
:102080003A0020573A002100486F74656E64207A48
:1020900075206B616C74005A7572C3BC636B00571A
:1020A0006569746572004265776567756E67004D96
:1020B0006F746F72656E206465616B7469766965B3
:1020C00072656E004D3834004D343820536F6E64A5
:1020D000656E7465737400473238204F0A4D34388A
:1020E0002050313000426574742D4E6976656C6CF9
:1020F000696572756E6700486F6D65205A004732DA
:10210000385A00486F6D65205900473238590048E9
:102110006F6D6520580047323858004175746F2044
:10212000486F6D65004732380048617570746D65A1
:102130006EC3BC002420457874722E20566F7277CF
:10214000C3A4726D656E0024204265747420566FBE
:102150007277C3A4726D656E0054656D70657261AF
:102160007475720041626BC3BC686C656E0024209C
:10217000566F7277C3A4726D656E004CC3BC6674F3
:10218000657200426574740044C3BC7365004861A5
:102190007570746D656EC3BC00426162797374655D
:1021A00070205A00466C75737372617465004CC37D
:1021B000BC6674657200426574740044C3BC736588
:1021C000004765736368772E0048617570746D65AC
:1021D0006EC3BC00486F6D696E6720676573636886
:1021E000656974657274006F70656E00545249477A
:1021F0004745524544003A200066696C616D656E42
:1022000074007A5F6D6178007A5F6D696E00795F46
:102210006D696E00785F6D696E005265706F7274E3
:10222000696E6720656E6473746F70207374617477
:1022300075730A0020746F6F206C6F6E672065786D
:1022400074727573696F6E2070726576656E7465F1
:10225000640A0020636F6C6420657874727573691A
:102260006F6E2070726576656E7465640A00566FD5
:10227000726865722025732573257320686F6D65FC
:102280006E000000A0C00000000000000000000080
:10229000484200004842000020415761726E696E5A
:1022A000673A20486F6D696E672042756D702044F3
:1022B000697669736F72203C20310A0002020400C3
:1022C00000A0400000A04000000040000054430077
:1022D00000574300009443FFFFFF0000000100008F
:1022E00000010000800055555500000040003333C8
:1022F0003300AAAA2A004992240000002000C771D6
:102300001C0099991900D1451700555515003BB18E
:1023100013002449120011111100000010000F0FCA
:102320000F00E3380E0043790D00CCCC0C00C33015
:102330000C00E8A20B0064210B00AAAA0A00703D61
:102340000A009DD80900427B090092240900DCD3D1
:102350000800888808001042080000000800F0C14A
:1023600007008787070075500700711C07003EEBC8
:102370000600A1BC06006990060066660600703E75
:1023800006006118060017F4050074D105005BB063
:102390000500B290050062720500555505007839B8
:1023A0000500B81E0500050505004EEC040087D4A5
:1023B0000400A1BD040090A7040049920400C17D5F
:1023C0000400EE690400C7560400444404005C3273
:1023D00004000821040041100400000004003FF044
:1023E0000300F8E0030026D20300C3C30300CCB50A
:1023F00003003AA803000A9B0300388E0300C08143
:1024000003009F750300D0690300505E03001D5355
:10241000030034480300913D0300333303001629C1
:102420000300381F030097150300300C030003035B
:1024300003000BFA020049F10200BAE802005CE076
:1024400002002DD802002DD0020059C80200B0C0F1
:10245000020031B90200DAB10200AAAA0200A0A368
:102460000200BC9C0200FA9502005C8F0200DF882B
:10247000020082820200457C02002776020027705B
:102480000200436A02007C640200D05E02003F59F1
:102490000200C8530200FFFDFCFAF8F6F4F2F0EE79
:1024A000ECEAE9E7E5E3E1E0DEDCDAD9D7D5D4D23E
:1024B000D0CFCDCBCAC8C7C5C3C2C0BFBDBCBAB9D7
:1024C000B7B6B4B3B2B0AFADACAAA9A8A6A5A4A242
:1024D000A1A09E9D9C9A99989795949392908F8E87
:1024E0008D8B8A8988878684838281807F7E7D7BAD
:1024F0007A797877767574737271706F6E6D6C6BB4
:102500006A696867666564636261605F5E5D5C5BA3
:102510005A5958585756555453525150504F4E4D82
:102520004C4B4A4A4948474646454443424241404B
:102530003F3E3E3D3C3B3B3A393838373635353403
:102540003332323130302F2E2E2D2C2B2B2A2929AD
:1025500028272726252524232322212120201F1E4A
:102560001E1D1C1C1B1B1A191918181716161515D9
:1025700014131312121111100F0F0E0E0D0D0C0C5F
:102580000B0A0A09090808070706060505040403DB
:1025900003020201000000004F4300005743000007
:1025A00094430000A0C00000000000000000456946
:1025B0006E7374656C6C2E206765737065692E0090
:1025C000290A002062797465733B206372632000DE
:1025D00053657474696E67732053746F72656420F9
:1025E00028004669656C64206261636B6C61736886
:1025F0005F64697374616E63655F6D6D206D69738F
:102600006D617463682E0A004669656C64206663B8
:102610005F73657474696E6773206D69736D61743F
:1026200063682E0A004669656C6420706C616E6E8A
:1026300065725F736B65775F666163746F72206D3F
:1026400069736D617463682E0A004669656C642065
:10265000636F6F7264696E6174655F7379737465BB
:102660006D206D69736D617463682E0A004669653B
:102670006C64206D6F746F725F63757272656E74D7
:102680005F73657474696E67206D69736D617463DF
:10269000682E0A004669656C6420706C616E6E6518
:1026A000725F65787472756465725F616476616E7D
:1026B00063655F4B206D69736D617463682E0A00FA
:1026C0004669656C6420746D635F737465616C74D6
:1026D000685F656E61626C6564206D69736D6174BD
:1026E00063682E0A004669656C6420746D635F68D8
:1026F00079627269645F7468726573686F6C642074
:102700006D69736D617463682E0A004669656C6457
:1027100020746D635F737465707065725F6375724A
:1027200072656E74206D69736D617463682E0A0042
:102730004669656C64207061727365725F766F6C58
:10274000756D65747269635F656E61626C65642046
:102750006D69736D617463682E0A004669656C6407
:10276000206677726574726163745F7365747469EF
:102770006E6773206D69736D617463682E0A00461D
:1027800069656C64207265636F766572795F656EEA
:1027900061626C6564206D69736D617463682E0A93
:1027A000004669656C6420636F6E74726F6C6C6553
:1027B0007246616E5F73657474696E6773206D69CC
:1027C000736D617463682E0A004669656C64206CE1
:1027D00063645F636F6E7472617374206D69736D8F
:1027E000617463682E0A004669656C6420706F77B7
:1027F00065725F6D6F6E69746F725F666C6167732F
:10280000206D69736D617463682E0A004669656C9A
:102810006420626564504944206D69736D6174631E
:10282000682E0A004669656C64206C70715F6C6587
:102830006E206D69736D617463682E0A0046696568
:102840006C6420686F74656E64504944206D6973D0
:102850006D617463682E0A004669656C6420756951
:102860005F6D6174657269616C5F707265736574C8
:10287000206D69736D617463682E0A004669656C2A
:102880006420626C746F7563685F6C6173745F77EA
:1028900072697474656E5F6D6F6465206D69736DC8
:1028A000617463682E0A004669656C642073657202
:1028B000766F5F616E676C6573206D69736D6174AF
:1028C00063682E0A004669656C6420706C616E6EE8
:1028D00065725F6C6576656C696E675F616374696C
:1028E0007665206D69736D617463682E0A004669B0
:1028F000656C642070726F62655F6F666673657485
:10290000206D69736D617463682E0A004669656C99
:10291000642072756E6F75745F73656E736F725F2E
:10292000656E61626C6564206D69736D6174636866
:102930002E0A004669656C6420686F6D655F6F667E
:1029400066736574206D69736D617463682E0A0027
:102950004669656C64206573746570706572732078
:102960006D69736D617463682E0A0020573A0049DF
:102970006E76616C69642065787472756465720A3C
:10298000000009121B242D363F48415A536C657EC6
:102990007719100B023D342F265158434A757C6736
:1029A0006E323B2029161F040D7A7368615E574C06
:1029B000452B2239300F061D14636A7178474E5536
:1029C0005C646D767F4049525B2C253E3708011AC6
:1029D000137D746F6659504B42353C272E111803F6
:1029E0000A565F444D727B60691E170C053A332806
:1029F000214F465D546B627970070E151C232A31F6
:102A0000384148535A656C777E09001B122D243FCC
:102A10003658514A437C756E671019020B343D26B7
:102A20002F737A6168575E454C3B3229201F160D83
:102A3000046A6378714E475C55222B3039060F14B7
:102A40001D252C373E0108131A6D647F7649405BC3
:102A5000523C352E2718110A03747D666F50594277
:102A60004B171E050C333A21285F564D447B726983
:102A7000600E071C152A233831464F545D626B7077
:102A8000797C3C3E5E2B3D3F2F5B5D3B2C2A225CDC
:102A90000048656C6C69676B65697400496E7465A4
:102AA0006E736974C3A47420576569C39F00496E2F
:102AB00074656E736974C3A47420426C61750049B7
:102AC0006E74656E736974C3A474204772C3BC6E60
:102AD00000496E74656E736974C3A47420526F7478
:102AE000004C696368742D537465756572756E6703
:102AF0000048656C6C69676B656974004B6F6E6646
:102B0000696775726174696F6E0042656C657563A3
:102B10006874756E670042656E75747A6572646577
:102B200066696E69657274004C696368742D4569E5
:102B30006E7374656C6C756E67005374616E64615E
:102B400072640061757300616E004C6963687400A3
:102B500048617570746D656EC3BC003F005A757234
:102B6000C3BC636B0053746F70004B65696E204D7E
:102B7000656469756D00447275636B20766F6D20B6
:102B80004D656469756D0046696C616D656E742094
:102B90007765636873656C6E004B6F6E6669677509
:102BA000726174696F6E0054656D706572617475E1
:102BB00072004265776567756E670053442D4472F5
:102BC00075636B20666F72747365747A656E00C38B
:102BD0009C6265722064656E20447275636B6572D9
:102BE000004A757374696572756E670053442D44AD
:102BF0007275636B2061626272656368656E005313
:102C0000442D447275636B207061757369657265DC
:102C10006E00496E666F003F0053746172746520E8
:102C2000447275636B0041626272656368656E0031
:102C3000447275636B656E0043616E6E6F742065E0
:102C40006E746572207375626469723A2000022E98
:102C50002E0048617570746D656EC3BC0042697466
:102C60007465206E65757374617274656E0044528C
:102C700055434B455220474553544F50505400251F
:102C8000533A202553004142474542524F4348455D
:102C90004E005072696E7465722068616C74656470
:102CA0002E206B696C6C28292063616C6C65642133
:102CB0000A00414E474548414C54454E0050726908
:102CC0006E7465722073746F7070656420647565CE
:102CD00020746F206572726F72732E20466978209F
:102CE000746865206572726F7220616E64207573FE
:102CF00065204D39393920746F20726573746172A3
:102D0000742E202854656D7065726174757265202B
:102D100069732072657365742E205365742069741D
:102D20002061667465722072657374617274696E75
:102D300067290A006563686F3A004572726F723ADC
:102D40000042696C696E656172204C6576656C69DC
:102D50006E6720477269643A0A0021212053544F5C
:102D6000502063616C6C6564206265636175736596
:102D7000206F6620424C546F756368206572726FD5
:102D800072202D2072657374617274207769746883
:102D9000204D3939390A0021212053544F502063E6
:102DA000616C6C65642062656361757365206F6634
:102DB00020424C546F756368206572726F72202DCB
:102DC00020726573746172742077697468204D395C
:102DD00039390A00486F74656E6420746F6F206320
:102DE0006F6C640A00507265737320627574746F3F
:102DF0006E20746F20726573756D650A00496E737D
:102E00006572742066696C616D656E7420616E64B4
:102E100020707265737320627574746F6E0A001F80
:102E2000E03FF03FF03FF01FE01FE03FF03FF03F9A
:102E3000F00FC0078003001FE020102010201010AA
:102E40002010202010201030300840048003003F64
:102E5000FFF83E00F839F03831E01831E01821E190
:102E6000E820F3E8207FE82077E828EE282FDC0828
:102E70002FFC082F9E082F0F08300F18300F18381E
:102E80001F383E00F83FFFF83FFFF83E00F8383F9C
:102E900038307E18307C18287C082C38082F39C828
:102EA0002FFFE82FC7E82FFFE82739E820386820F0
:102EB0007C28307C1830FC1839F8383E00F83FFF89
:102EC000F83FFFF83E00F8380F38341FD8361F9807
:102ED0002F1F082F9E082FFC082FDC0827EFC82083
:102EE00077E8207FE820F3E821F1E833F0D837F0E5
:102EF0005839E0383E00F83FFFF83FFFF83E80F8D1
:102F00003980383781D837C3D827C7E823C7F82195
:102F1000FF88206C08206C08206C0823FF083FC73E
:102F2000882FC7C83787D83703D83803383E02F808
:102F30003FFFF81FFFF81FFFF804104002082002AF
:102F40000820041040082080104100104100082093
:102F5000800410400000001FFFF81FFFF800000071
:102F60000000002100140706003372D1C089003F21
:102F70000B152109002D3A15220900214A152409B3
:102F800000213A1527A600000000000000FFFFFF07
:102F9000FFFFC00000000000000B1870E1C3801BA1
:102FA0000CF0E0E7003B27F07076003B33F1303067
:102FB000007B3333B818007BB033B80C007BB037DC
:102FC0003C6E000330377CE7000330360DC38000D1
:102FD0000000000000FFFFFFFFFFC0000000000036
:102FE00000004473CE0000004480490000006CF1F2
:102FF000CE00000038904900000010E3C900000036
:1030000000000000000000000000000000000000C0
:1030100000454550524F4D206461746173697A6573
:10302000206572726F722E0A00290A00206279747C
:1030300065733B2063726320002073746F72656454
:103040002073657474696E67732072657472696544
:10305000766564202800202863616C63756C617458
:10306000656429210A0020213D2000454550524F2A
:103070004D20435243206D69736D61746368202D48
:10308000202873746F7265642920002053697A6563
:103090003A2000496E6465783A20004669656C64A0
:1030A00020636173656C696768745F6272696768E1
:1030B000746E657373206D69736D617463682E0A35
:1030C000004669656C64206261636B6C6173685F64
:1030D00064697374616E63655F6D6D206D69736D96
:1030E000617463682E0A004669656C642066635FDC
:1030F00073657474696E6773206D69736D61746351
:10310000682E0A004669656C6420706C616E6E659D
:10311000725F736B65775F666163746F72206D6950
:10312000736D617463682E0A004669656C64206380
:103130006F6F7264696E6174655F73797374656DC6
:10314000206D69736D617463682E0A0044494749B4
:10315000504F5453204C6F616465640A00444947E2
:1031600049504F5453204C6F6164696E670A0046A2
:1031700069656C64206D6F746F725F6375727265E0
:103180006E745F73657474696E67206D69736D61C9
:103190007463682E0A004669656C6420706C616E09
:1031A0006E65725F65787472756465725F6164766E
:1031B000616E63655F4B206D69736D617463682E2A
:1031C0000A004669656C6420746D635F73746561A1
:1031D0006C74685F656E61626C6564206D69736DA7
:1031E000617463682E0A004669656C6420746D63BF
:1031F0005F736774206D69736D617463682E0A0074
:103200004669656C6420746D635F68796272696495
:103210005F7468726573686F6C64206D69736D614B
:103220007463682E0A004669656C6420746D635F80
:10323000737465707065725F63757272656E742009
:103240006D69736D617463682E0A004669656C640C
:10325000207061727365725F766F6C756D657472E4
:1032600069635F656E61626C6564206D69736D6131
:103270007463682E0A004669656C6420667772651F
:1032800074726163745F73657474696E6773206DC3
:1032900069736D617463682E0A004669656C642009
:1032A0007265636F766572795F656E61626C656485
:1032B000206D69736D617463682E0A004669656CE0
:1032C0006420636F6E74726F6C6C657246616E5FC2
:1032D00073657474696E6773206D69736D6174636F
:1032E000682E0A004669656C64206C63645F636FD6
:1032F0006E7472617374206D69736D617463682E8E
:103300000A004669656C6420706F7765725F6D6F47
:103310006E69746F725F666C616773206D69736D3F
:10332000617463682E0A004669656C64206C707174
:103330005F6C656E206D69736D617463682E0A0041
:103340004669656C642075695F6D61746572696159
:103350006C5F707265736574206D69736D61746301
:10336000682E0A004669656C6420626C746F756330
:10337000685F6C6173745F7772697474656E5F6D9A
:103380006F6465206D69736D617463682E0A004611
:1033900069656C6420736572766F5F616E676C65DA
:1033A00073206D69736D617463682E0A00466965E8
:1033B0006C6420706C616E6E65725F6C6576656CB6
:1033C000696E675F616374697665206D69736D61AD
:1033D0007463682E0A004669656C642070726F62BF
:1033E000655F6F6666736574206D69736D61746384
:1033F000682E0A004669656C642072756E6F75747C
:103400005F73656E736F725F656E61626C65642079
:103410006D69736D617463682E0A004669656C643A
:1034200020686F6D655F6F6666736574206D697384
:103430006D617463682E0A004669656C642065736B
:1034400074657070657273206D69736D6174636803
:103450002E0A00204D61726C696E3D563832290A81
:1034600000454550524F4D2076657273696F6E204E
:103470006D69736D617463682028454550524F4DE6
:103480003D00454550524F4D20496E697469616C4D
:10349000697A65640A0048617264636F64656420D8
:1034A00044656661756C742053657474696E6773E6
:1034B000204C6F616465640A00000096430000962A
:1034C00043000020410000C8411552A0423256A0DE
:1034D00042B51FC7430A57CC42DC050000DC05009B
:1034E0000064000000102700003B20003A0A002082
:1034F000204D363033200020204D3431322053000F
:1035000046696C616D656E742072756E6F7574209E
:1035100073656E736F723A002055004C0046696CFB
:10352000616D656E74206C6F61642F756E6C6F6178
:1035300064206C656E677468733A0020204D3835DE
:10354000312058005A2D50726F6265204F666673A5
:1035500065740020440020490020204D3330342081
:10356000500020440020490020204D3330312050AD
:10357000005049442073657474696E67733A002083
:10358000460020420020480020204D313435205391
:10359000004D6174657269616C2068656174757055
:1035A00020706172616D65746572733A00204A0023
:1035B0002020473239205720490020204D34323016
:1035C0002053004175746F20426564204C65766518
:1035D0006C696E673A0020204D3230362058004822
:1035E0006F6D65206F66667365743A00204A00202F
:1035F000530020204D323035204200416476616E08
:103600006365643A20423C6D696E5F7365676D6502
:103610006E745F74696D655F75733E20533C6D69B0
:103620006E5F66656564726174653E20543C6D69C9
:103630006E5F74726176656C5F66656564726174F5
:10364000653E204A3C6A756E635F6465763E002085
:10365000540020520020204D32303420500041636D
:1036600063656C65726174696F6E2028756E69742C
:10367000732F7332293A20503C7072696E745F6107
:103680006363656C3E20523C726574726163745F63
:10369000616363656C3E20543C74726176656C5F57
:1036A000616363656C3E0020204D3230312058004C
:1036B0004D6178696D756D20416363656C657261FC
:1036C00074696F6E2028756E6974732F7332293A8E
:1036D00000204500205A0020590020204D32303370
:1036E0002058004D6178696D756D2066656564725E
:1036F000617465732028756E6974732F73293A009D
:1037000053746570732070657220756E69743A0029
:1037100020440020204D3230302053002044697373
:1037200061626C65640A0046696C616D656E742047
:1037300073657474696E67733A0020204D313439B3
:103740002043203B20556E69747320696E204365C9
:103750006C736975730A0020286D6D29002020475D
:103760003231202020203B20556E69747320696E11
:10377000206D6D00447275636B20706175736965AF
:1037800072742E2E2E00496E736572742066696CF9
:10379000616D656E7420616E642070726573732054
:1037A000627574746F6E0A00344D4158202D207676
:1037B0006733722062657265697400447275636B69
:1037C000742E2E2E00220A00556E6B6E6F776E20BF
:1037D000636F6D6D616E643A202200DB0FC93F4557
:1037E000BCDA3F8FB30240FCF0274056946140FEA4
:1037F0004B9B4084A5D840E0231841346A5641E8E9
:1038000059974164DBD5416E271742B4B75542CE74
:103810001A9742C8AED542B5885A43D40684BFA68B
:103820005FA7BF7443E0BF10B11AC01C2C58C0E89A
:10383000F697C0B849D6C04E4E17C124D355C180A3
:103840002497C1A0B5D5C1121A17C244AE55C2788B
:103850001797C26CACD5C267885AC320746F6F20AB
:103860006C6F6E6720657874727573696F6E207007
:10387000726576656E7465640A0020636F6C6420FF
:10388000657874727573696F6E2070726576656E97
:103890007465640A005045544700504C41000000D4
:1038A00020002300260029002C002F0032000001F8
:1038B000000003010601090100000A0B02090C0DBA
:1038C0000E080703040100000000000000000000D3
:1038D00000000000000000000000000000000000E8
:1038E00000000000121110000000000000000000A5
:1038F00000000000000000000000000000000020A8
:103900002573206D6D0020302C312020206D6D003E
:1039100020312C302020206D6D0031302C302020C3
:10392000206D6D0041636873656E20626577656721
:10393000656E0042657765676520457874727564C9
:10394000657200426577656765205A004265776554
:1039500067652059004265776567652058009A3889
:10396000953846696C616D656E7420776563687320
:10397000656C6E0046696C616D656E7420656E7471
:103980006C6164656E0046696C616D656E74206C77
:103990006164656E0062656E75747A6572646566F1
:1039A0002E204865697A656E002420566F7277C3B1
:1039B000A4726D656E005A7572C3BC636B0044726D
:1039C00075636B20766F6D204D656469756D005071
:1039D000726F62696E67204661696C65640A0050A7
:1039E000726F62696E672067657363686569746585
:1039F000727400205A3A200020593A20004265642F
:103A000020583A200001FFFFFFFFFFFFFFFFFFFFED
:103A1000FFFFFF0FFFFFFFFFFFFFFFFFFFFFFFFFA6
:103A2000FF1E0000000000000000000007FFFF383C
:103A30000000000000000000000003FFFF70000015
:103A4000000000000000000001FFFF600000000017
:103A500000000000000000FFFF6000000000000008
:103A600000000000007FFFC0000000000000000018
:103A70007800003FFFC00FC0FC0000000000781875
:103A8000001FFFC03FE1FF0000000000783C000F76
:103A9000FFC07FF3FF8000000000783C0007FFC0FC
:103AA000FFFFFFC000000000783C0003FFC1F87F6B
:103AB00087E00000000078000001FFC1F03F03E054
:103AC0000000000078000000FFC1E01E01E01F00C0
:103AD00003E0783C03F07FC1E01E01E07FC00FF8F7
:103AE000783C07FC3FC1E01E01E1FFE01FFC783C91
:103AF0000FFE1FC1E01E01E3FFF03FFE783C1FFEFA
:103B00000FC1E01E01E3F3F83F3E783C3F3F07C1A1
:103B1000E01E01E7E0FC7C1F783C3E1F07C1E01E71
:103B200001E7C07C7C0F783C3C0F03C1E01E01E73D
:103B3000807C780F783C3C0F03C1E01E01E7803C9D
:103B40007800783C3C0F03C1E01E01E7803C780020
:103B5000783C3C0F03C1E01E01E7803C7800783CD4
:103B60003C0F03C1E01E01E7C03C7800783C3C0FED
:103B700003C1E01E01E3E03C78007C3C3C0F03C144
:103B8000E01E01E3FF3FF8007FBC3C0F03C1E01ED5
:103B900001E1FF3FF8003FBFFC0F03C1E01E01E061
:103BA000FF3FF8001FBFFC0F03C1E01E01E07F3F95
:103BB000F8000FBFFC0F03600000000000000000D1
:103BC000000000000760000000000000000000008E
:103BD000000006700000000000000000000000006F
:103BE0000E380000000000000000000000001C1E55
:103BF000000000000000000000000000780FFFFF40
:103C0000FFFFFFFFFFFFFFFFFFFFF001FFFFFFFFD1
:103C1000FFFFFFFFFFFFFFFF8001FFFFFFFFFFFF31
:103C2000FFFFFFFFFFFFFF0FFFFFFFFFFFFFFFFF94
:103C3000FFFFFFFFFF1E000000000000000000006B
:103C400007FFFF380000000000000000000003FF35
:103C5000FF700000000000000000000001FFFF6096
:103C60000000000000000000000000FFFF600000F6
:103C70000000000000000000007FFFC00000000006
:103C8000000000007800003FFFC00FC0FC000000F3
:103C900000007818001FFFC03FE1FF000000000097
:103CA000783C000FFFC07FF3FF8000000000783CED
:103CB0000007FFC0FFFFFFC000000000783C0003CA
:103CC000FFC1F87F87E00000000078000001FFC11D
:103CD000F03F03E00000000078000000FFC1E01E9C
:103CE00001E01F0003E0783C00007FC1E01E01E01E
:103CF0007FC00FF8783C00003FC1E01E01E1FFE00B
:103D00001FFC783C00001FC1E01E01E3FFF03FFEF6
:103D1000783C00000FC1E01E01E3F3F83F3E783C21
:103D2000000007C1E01E01E7E0FC7C1F783C0000BA
:103D300007C1E01E01E7C07C7C0F783C000003C196
:103D4000E01E01E7807C780F783C000003C1E01E94
:103D500001E7803C7800783C000003C1E01E01E7E9
:103D6000803C7800783C000003C1E01E01E7803C05
:103D70007800783C000003C1E01E01E7C03C7800F9
:103D8000783C000003C1E01E01E3E03C78007C3C8D
:103D9000000003C1E01E01E3FF3FF8007FBC00000C
:103DA00003C1E01E01E1FF3FF8003FBF000003C177
:103DB000E01E01E0FF3FF8001FBF000003C1E01E4E
:103DC00001E07F3FF8000FBF00000360000000002B
:103DD000000000000000000007600000000000007C
:103DE000000000000000067000000000000000005D
:103DF000000000000E38000000000000000000007D
:103E000000001C1E00000000000000000000000078
:103E1000780FFFFFFFFFFFFFFFFFFFFFFFFFF00136
:103E2000FFFFFFFFFFFFFFFFFFFFFFFF8001FFFF1F
:103E3000FFFFFFFFFFFFFFFFFFFFFF0FFFFFFFFF82
:103E4000FFFFFFFFFFFFFFFFFF1E0000000000005D
:103E50000000000007FFFF38000000000000000025
:103E6000000003FFFF7000000000000000000000E1
:103E700001FFFF600000000000000000000000FFE4
:103E8000FF6000000000000000000000007FFFC095
:103E900000000000000000007800003FFFC00FC0DD
:103EA000FC00000000007800001FFFC03FE1FF00A1
:103EB000000000007800000FFFC07FF3FF800000CB
:103EC000000078000007FFC0FFFFFFC000000000F7
:103ED00078000003FFC1F87F87E000000000780051
:103EE0000001FFC1F03F03E0000000007800000087
:103EF000FFC1E01E01E01F0003E0780000007FC169
:103F0000E01E01E07FC00FF8780000003FC1E01E16
:103F100001E1FFE01FFC780000001FC1E01E01E38B
:103F2000FFF03FFE780000000FC1E01E01E3F3F850
:103F30003F3E7800000007C1E01E01E7E0FC7C1F67
:103F40007800000007C1E01E01E7C07C7C0F78000C
:103F5000000003C1E01E01E7807C780F78000000BC
:103F600003C1E01E01E7803C78007800000003C137
:103F7000E01E01E7803C78007800000003C1E01EED
:103F800001E7803C78007800000003C1E01E01E7F3
:103F9000C03C78007800000003C1E01E01E3E03C73
:103FA00078007C00000003C1E01E01E3FF3FF80041
:103FB0007F00000003C1E01E01E1FF3FF8003F0069
:103FC000000003C1E01E01E0FF3FF8001F000000F9
:103FD00003C1E01E01E07F3FF8000F000000036016
:103FE000000000000000000000000000076000006A
:103FF000000000000000000000000670000000004B
:1040000000000000000000000E380000000000006A
:104010000000000000001C1E000000000000000066
:1040200000000000780FFFFFFFFFFFFFFFFFFFFF13
:10403000FFFFF001FFFFFFFFFFFFFFFFFFFFFFFF9D
:104040008001FFFFFFFFFFFFFFFFFFFFFFFFFF0FED
:10405000FFFFFFFFFFFFFFFFFFFFFFFFFF1E00004F
:10406000000000000000000007FFFF380000000013
:1040700000000000000003FFFF70000000000000CF
:104080000000000001FFFF600000000000000000D1
:10409000000000FFFF6000000000000000000000C2
:1040A000007FFFC000000000000000000000003F93
:1040B000FFC00FC0FC00000000000000001FFFC098
:1040C0003FE1FF00000000000000000FFFC07FF391
:1040D000FF800000000000000007FFC0FFFFFFC0DE
:1040E0000000000000000003FFC1F87F87E000002F
:1040F000000000000001FFC1F03F03E000000000ED
:1041000000000000FFC1E01E01E01F0003E000000E
:1041100000007FC1E01E01E07FC00FF8000000003A
:104120003FC1E01E01E1FFE01FFC000000001FC1D5
:10413000E01E01E3FFF03FFE000000000FC1E01EA3
:1041400001E3F3F83F3E0000000007C1E01E01E775
:10415000E0FC7C1F0000000007C1E01E01E7C07CFE
:104160007C0F0000000003C1E01E01E7807C780F97
:104170000000000003C1E01E01E7803C7800000061
:10418000000003C1E01E01E7803C78000000000051
:1041900003C1E01E01E7803C78000000000003C17D
:1041A000E01E01E7C03C78000000000003C1E01EF3
:1041B00001E3E03C78000000000003C1E01E01E3E1
:1041C000FF3FF8000000000003C1E01E01E1FF3FD7
:1041D000F8000000000003C1E01E01E0FF3FF8000E
:1041E0000000000003C1E01E01E07F3FF800000076
:1041F000000003600000000000000000000000005C
:1042000007600000000000000000000000000670D1
:104210000000000000000000000000000E38000058
:10422000000000000000000000001C1E0000000054
:104230000000000000000000780FFFFFFFFFFFFFFD
:10424000FFFFFFFFFFFFF001FFFFFFFFFFFFFFFF8B
:10425000FFFFFFFF8001FFFFFFFFFFFFFFFFFFFFEB
:10426000FFFFFF0FFFFFFFFFFFFFFFFFFFFFFFFF4E
:10427000FF1E0000000000000000000007FFFF38E4
:104280000000000000000000000003FFFF700000BD
:10429000000000000000000001FFFF6000000000BF
:1042A00000000000000000FFFF60000000000000B0
:1042B00000000000007FFFC00000000000000000C0
:1042C0000000003FFFC00FC0FC0000000000000025
:1042D000001FFFC03FE1FF00000000000000000FD2
:1042E000FFC07FF3FF800000000000000007FFC058
:1042F000FFFFFFC00000000000000003FFC1F87FC7
:1043000087E00000000000000001FFC1F03F03E073
:104310000000000000000000FFC1E01E01E01F00DF
:104320000000000000007FC1E01E01E07FC000002F
:10433000000000003FC1E01E01E1FFE000000000BE
:1043400000001FC1E01E01E3FFF0000000000000BC
:104350000FC1E01E01E3F3F800000000000007C1F8
:10436000E01E01E7E0FC00000000000007C1E01EC5
:1043700001E7C07C00000000000003C1E01E01E76F
:10438000807C00000000000003C1E01E01E7803CCB
:1043900000000000000003C1E01E01E7803C0000B7
:1043A0000000000003C1E01E01E7803C00000000A7
:1043B000000003C1E01E01E7C03C00000000000057
:1043C00003C1E01E01E3E03C00000000000003C167
:1043D000E01E01E3FF3F00000000000003C1E01EFB
:1043E00001E1FF3F00000000000003C1E01E01E00A
:1043F000FF3F00000000000003C1E01E01E07F3F1E
:104400000000000000000360000000000000000049
:104410000000000007600000000000000000000035
:104420000000067000000000000000000000000016
:104430000E380000000000000000000000001C1EFC
:10444000000000000000000000000000780FFFFFE7
:10445000FFFFFFFFFFFFFFFFFFFFF001FFFFFFFF79
:10446000FFFFFFFFFFFFFFFF8001FFFFFFFFFFFFD9
:10447000FFFFFFFFFFFFFF0FFFFFFFFFFFFFFFFF3C
:10448000FFFFFFFFFF1E0000000000000000000013
:1044900007FFFF380000000000000000000003FFDD
:1044A000FF700000000000000000000001FFFF603E
:1044B0000000000000000000000000FFFF6000009E
:1044C0000000000000000000007FFFC000000000AE
:1044D000000000000000003FFFC00FC0FC00000013
:1044E00000000000001FFFC03FE1FF0000000000CF
:1044F0000000000FFFC07FF3FF80000000000000FD
:104500000007FFC0FFFFFFC0000000000000000325
:10451000FFC1F87F87E00000000000000001FFC13C
:10452000F03F03E00000000000000000FFC1E01EBB
:1045300001E000000000000000007FC1E01E01E07B
:1045400000000000000000003FC1E01E01E000008C
:104550000000000000001FC1E01E01E0000000009C
:10456000000000000FC1E01E01E00000000000009C
:10457000000007C1E01E01E0000000000000000094
:1045800007C1E01E01E0000000000000000003C1C0
:10459000E01E01E0000000000000000003C1E01E7A
:1045A00001E0000000000000000003C1E01E01E087
:1045B000000000000000000003C1E01E01E0000058
:1045C00000000000000003C1E01E01E00000000048
:1045D0000000000003C1E01E01E000000000000038
:1045E000000003C1E01E01E0000000000000000028
:1045F00003C1E01E01E0000000000000000003C154
:10460000E01E01E0000000000000000003C1E01E09
:1046100001E0000000000000000003600000000056
:104620000000000000000000076000000000000023
:104630000000000000000670000000000000000004
:10464000000000000E380000000000000000000024
:1046500000001C1E00000000000000000000000020
:10466000780FFFFFFFFFFFFFFFFFFFFFFFFFF001DE
:10467000FFFFFFFFFFFFFFFFFFFFFFFF8001FFFFC7
:10468000FFFFFFFFFFFFFFFFFFFFFF0FFFFFFFFF2A
:10469000FFFFFFFFFFFFFFFFFF1E00000000000005
:1046A0000000000007FFFF380000000000000000CD
:1046B000000003FFFF700000000000000000000089
:1046C00001FFFF600000000000000000000000FF8C
:1046D000FF6000000000000000000000007FFFC03D
:1046E00000000000000000000000003FFFC00000CC
:1046F0000000000000000000001FFFC000000000DC
:10470000000000000000000FFFC0000000000000DB
:10471000000000000007FFC00000000000000000D3
:1047200000000003FFC000000000000000000000C7
:104730000001FFC0000000000000000000000000B9
:10474000FFC00000000000000000000000007FC06B
:104750000000000000000000000000003FC000005A
:10476000000000000000000000001FC0000000006A
:1047700000000000000000000FC00000000000006A
:1047800000000000000007C0000000000000000062
:104790000000000007C00000000000000000000052
:1047A000000003C000000000000000000000000046
:1047B00003C000000000000000000000000003C073
:1047C00000000000000000000000000003C0000026
:1047D0000000000000000000000003C00000000016
:1047E000000000000000000003C000000000000006
:1047F00000000000000003C00000000000000000F6
:104800000000000003C000000000000000000000E5
:10481000000003C0000000000000000000000000D5
:1048200003C0000000000000000000000000036062
:104830000000000000000000000000000760000011
:1048400000000000000000000000067000000000F2
:1048500000000000000000000E3800000000000012
:104860000000000000001C1E00000000000000000E
:1048700000000000780FFFFFFFFFFFFFFFFFFFFFBB
:10488000FFFFF001FFFFFFFFFFFFFFFFFFFFFFFF45
:104890008002000000000000000000000000000096
:1048A0000000000000000000000000000000000008
:1048B000000000047F03E00001F8000F00007F808B
:1048C00003F0000C7F03F00003F8001F80007FC09E
:1048D00007F0000C7F03F80007F8003F80007FC05E
:1048E0000FF0001C7F03FC000FF8003FC0003FE00A
:1048F0001FF0001C7F03FE001FF8003FC0001FF0E8
:104900003FF0003C7F01FF003FF8001FE0000FF880
:104910007FF0003C7F00FF807FF8000FE00007F889
:104920007FE0007C7F007FC0FFF8000FF00007FCF5
:104930003FC0007C7F003FE1FFF80007F80003FE66
:104940001F8000FC7F001FFFFFF80187F80001FFB8
:104950000F0000FC7F030FFFFFF801C3FC0000FF06
:10496000860001FC7F0387FFF3F803E3FC00007F70
:10497000800001FC7F03C3FFE3F803E1FE00007F3A
:10498000C00003FC7F03E1FFC3F807F1FE00003F16
:10499000E00003FC7FE3F0FF83F807F0FF00001F57
:1049A000F00007FC7FE3F87F03F80FF07F00000FB3
:1049B000F00007FC7FE3F81E03F80FE07F80000F94
:1049C000F8000FFC7FE3F80003F81FE3FF80038784
:1049D000FC000FFC7FE3F80003F81FC3FFC007C310
:1049E000FE001FFC7FE3F80003F83FC7FFC00FE1A4
:1049F000FE0000007F03F80003F83F87FFE01FF18F
:104A0000FF0000007F03F80003F87F8FFFE03FF016
:104A1000FF8000007F03F80003F87F0FFFF07FF0B6
:104A20007FC000007F03F80003F8FF0007F0FFE0FD
:104A30003FC000007F03F80003F8FE0007F8FFC046
:104A40003FE000007F03F80003F9FE0003F8FF8059
:104A50001FF000007F03F80003F9FC0003FCFF00D7
:104A60000FF000007F03F80003FBFC0001FCFE00D8
:104A70000FF0000000000000000000000000000037
:104A80000000000000000000000000000000000026
:104A9000000068747470733A2F2F6769742E696F01
:104AA0002F666A587A7200344D415820322E302ECB
:104AB0003732303352454C2E007D466944554241D1
:104AC000402D3E193C053A70012C0190012701B0A0
:104AD000012201C0011D01F0011801100213013073
:104AE000020E016002090190020401C002FF0000F1
:104AF00003FA004003F5008003F000D003EB002030
:104B000004E6007004E100E004DC004005D700C0CA
:104B100005D2004006CD00D006C8008007C3003093
:104B200008BE00F008B900C009B400B00AAF00B078
:104B30000BAA00D00CA500000EA000500F9B00C0D7
:104B40001096005012910000148C00C0158700B020
:104B5000178200B0197D00D01B7800001E73004042
:104B6000206E0090226900F024640040275F0090CE
:104B7000295A00E02B5500102E500020304B001019
:104B8000324600E033410090353C0010373700706A
:104B9000383200A0392D00B03A2800A03B23006035
:104BA0003C1E00103D1900903D1400103E0F007097
:104BB0003E0A00C03E0500003F0000403FFBFF8072
:104BC0003FF6FFC03FF1FF2020506C616E6E6572B2
:104BD00042756666657242797465733A20002046B4
:104BE000726565204D656D6F72793A2000436F6D77
:104BF00070696C65643A2046656220203720323047
:104C000032310A00204C6173742055706461746500
:104C1000643A20323032302D31302D3135207C2035
:104C2000417574686F723A202847336D316E315385
:104C300033727633722C20416E796375626963201A
:104C4000344D4158290A00344D415820322E302E1F
:104C50003732303352454C2E0A004D61726C696E0A
:104C60000020536F667477617265205265736574B6
:104C70000A00205761746368646F6720526573652A
:104C8000740A002042726F776E206F75742052652F
:104C90007365740A002045787465726E616C2052E9
:104CA000657365740A00506F77657255700A0073FA
:104CB000746172740A006175746F25632E67004712
:104CC00032385859004D31303031006572726F7290
:104CD0002077726974696E6720746F2066696C65ED
:104CE0000A00446F6E6520736176696E672066699D
:104CF0006C652E0A004D323900456E6473746F7016
:104D0000700025532025632025632025632025631B
:104D100000205A3A0020593A0020583A00656E6443
:104D200073746F7073206869743A200046494C416F
:104D30004D454E5420454E544C4144454E00464945
:104D40004C414D454E54204C4144454E0046494C43
:104D5000414D454E54205745434853454C0042650C
:104D600074740044C3BC7365004CC3BC6674657244
:104D7000004B6F6E66696775726174696F6E005380
:104D800074616E646172647765727465206C6164CD
:104D9000656E004B6F6E6669672E206C6164656E90
:104DA000004B6F6E6669672E207370656963686576
:104DB000726E00242045696E7374656C6C756E6745
:104DC000656E0061757300616E0052756E6F75746B
:104DD0002D53656E736F7200424C546F756368009B
:104DE0004C696368742D537465756572756E6700E0
:104DF0004CC3BC66746572204B6F6E74726F6C6CC2
:104E0000657200536F6E64656E7665727361747A55
:104E1000205A004572772E2045696E7374656C6C5C
:104E2000756E67656E0048617570746D656EC3BCA4
:104E3000004D37303220542564004D36303020424A
:104E40003020542564004D373032203B2564004D1E
:104E500037303120542564004D373032004D373023
:104E600031004D3630302042300048617570746D2D
:104E7000656EC3BC0061757300616E0052756E6F24
:104E800075742D53656E736F72004D656872206581
:104E90006E746C6164656E00447275636B20776537
:104EA0006974657200464F5254532E204F50544936
:104EB0004F4E454E3A00445255434B2050415553B6
:104EC0004945525400202044C3BC73653A20002455
:104ED000F4D43050C38E20C2A24017828B701112BE
:104EE0007A910D816CD90AA861E108C758660761FB
:104EF0005143061E4B5D05C145A7041A4111040923
:104F00003D9803713931034036DB0265339102D499
:104F1000305402802E1D02632CEE01752AC501B0AB
:104F200028A001102781018F2564012B244B01E06B
:104F3000223401AC211F018D200D01801FFC008453
:104F40001EED00971DDF00B81CD200E61BC6002036
:104F50001BBC00641AB200B219A8000A19A0006AAA
:104F6000189900D117910040178B00B516840031B5
:104F7000167E00B31579003A157300C7146F0058F8
:104F8000146A00EE1366008813630025135E00C7E1
:104F9000125B006C12570015125400C111510070C1
:104FA000114F0021114B00D61049008D10470046CB
:104FB00010440002104200C00F4000800F3E00422B
:104FC0000F3C00060F3B00CB0E3800930E37005C01
:104FD0000E3500270E3400F30D3200C10D31009064
:104FE0000D3000600D2E00320D2D00050D2C00D966
:104FF0000C2B00AE0C2900850C29005C0C27003519
:105000000C27000E0C2600E80B2400C40B2400A083
:105010000B23007D0B23005A0B2100390B210018B4
:105020000B2000F80A1F00D90A1E00BB0A1E009DB3
:105030000A1D00800A1D00630A1C00470A1B002C81
:105040000A1B00110A1A00F7091A00DD091900C429
:10505000091900AB091900920917007B09180063B0
:105060000917004C09160036091600200916000A17
:10507000091500F5081500E0081400CC081400B864
:10508000081400A4081400900813007D0812006B97
:1050900008130058081200460812003408110023B3
:1050A0000811001208110001081100F0071000E0BB
:1050B000071000D0071000C0071000B0070F00A1B4
:1050C00007100091070E0083070F0074070F00659B
:1050D000070E0057070E0049070E003B070D002E74
:1050E000070E0020070D0013070D0006070D00F93D
:1050F000060C00ED060D00E0060C00D4060C00C8FE
:10510000060C00BC060C00B0060C00A4060B0099AF
:10511000060C008D060B0082060B0077060B006C58
:10512000060B0061060A0057060B004C060A0042F7
:10513000060A0038060A002E060A0024060A001A8B
:10514000060A001006090007060A00FD050900F41A
:10515000050900EB050900E2050900D9050900D0A1
:10516000050900C7050900BE050900B5050800AD21
:10517000050800A50509009C050800940508008C99
:10518000050800840508007C050800740508006C0B
:10519000050700650508005D050700560508004E77
:1051A00005070047050700400508003805070031DE
:1051B0000507002A050700230507001C0506001641
:1051C0000507000F0507000805060002050700FB9C
:1051D000040600F5040700EE040600E8040600E2F9
:1051E000040700DB040600D5040600CF040600C94E
:1051F000040600C3040600BD040600B7040600B19F
:10520000040500AC040600A6040600A00405009BEB
:1052100004060095040500900406008A0405008534
:10522000040500800406007A04050075040500707A
:105230000405006B04050066040500610405005CBC
:1052400004050057040500520405004D04050048FC
:10525000040500430405003E0404003A040500353B
:10526000040500300404002C040500270404002376
:105270000405001E0404001A0404001604050011AD
:105280000404000D040400090405000404040000E3
:10529000040400FC030400F8030400F4030400F019
:1052A000030400EC030400E8030400E4030400E04A
:1052B000030400DC030400D8030400D4030400D07A
:1052C000030400CC030400C8030300C50303002447
:1052D000F404D9201BC40C5C0E9804C4095F026559
:1052E000077101F405F900FB04B30048048700C10D
:1052F0000369005803550003034500BE023A0084C9
:1053000002310053022A002902250004022000E491
:10531000011C00C8011900AF011700980114008496
:10532000011300710110006101100051010E0043D2
:10533000010D0036010B002B010B0020010B0015A5
:105340000109000C01090003010800FB000800F33B
:10535000000800EB000700E4000600DE000600D8AD
:10536000000600D2000600CC000500C7000500C200
:10537000000500BD000400B9000400B5000400B140
:10538000000400AD000400A9000400A5000300A271
:105390000003009F0004009B000300980003009599
:1053A00000020093000300900003008D0002008BB8
:1053B00000030088000200860002008400030081D0
:1053C0000002007F0002007D0002007B00020079E5
:1053D00000020077000100760002007400020072F3
:1053E000000100710002006F0002006D0001006CFE
:1053F0000002006A00010069000200670001006607
:10540000000100650001006400020062000100610B
:10541000000100600001005F0002005D0001005C0F
:105420000001005B0001005A000100590001005812
:105430000001005700010056000100550001005412
:105440000001005300000053000100520001005110
:10545000000100500001004F0001004E0000004E0E
:105460000001004D0001004C0001004B0000004B0A
:105470000001004A00010049000100480000004806
:105480000001004700010046000000460001004501
:1054900000000045000100440001004300000043FB
:1054A00000010042000000420001004100000041F4
:1054B000000100400001003F0000003F0001003EED
:1054C0000000003E0001003D0000003D0001003CE6
:1054D0000000003C0000003C0001003B0000003BDD
:1054E0000001003A0000003A0001003900000039D4
:1054F00000010038000000380000003800010037CB
:1055000000000037000100360000003600000036C1
:1055100000010035000000350000003500010034B6
:1055200000000034000000340001003300000033AC
:1055300000000033000100320000003200000032A1
:105540000001003100000031000000310001003096
:1055500000000030000000300001002F0000002F8C
:105560000000002F0000002F0001002E0000002E80
:105570000000002E0001002D0000002D0000002D75
:105580000000002D0001002C0000002C0000002C69
:105590000000002C0001002B0000002B0000002B5D
:1055A0000000002B0001002A0000002A0000002A51
:1055B0000000002A00010029000000290000002945
:1055C0000000002900000029000100280000002838
:1055D000000000280000002800000028000100272B
:1055E000000000270000002700000027000000271F
:1055F0000001002600000026000000260000002612
:105600000000002600010025000000250000002504
:1056100000000025000000250000002500010024F6
:1056200000000024000000240000002400000024EA
:1056300000010023000000230000002300000023DD
:1056400000000023000000230000002300010022CE
:1056500000000022000000220000002200000022C2
:1056600000000022000100210000002100000021B4
:1056700000000021000000210000002100000021A6
:105680000001002000000020000000200000002099
:10569000000000200000002000000020000000208A
:1056A0000001001F0000001F0000001F0000001F7D
:1056B0000000001F0000001F0000001F0001001E6E
:1056C0000000001E0000001E0000001E0000003947
:1056D0003000003325000087190000B00F0000DB08
:1056E000080000BD040000740200003F0100004FEC
:1056F00046460A004661646520486569676874200B
:1057000000426564204C6576656C696E67200046D2
:1057100061696C656420746F20656E61626C6520E0
:10572000426564204C6576656C696E670A00496E57
:1057300076616C6964206D6573682E0A004D65732F
:105740007370756E6B740025532025692F256900D1
:105750002E0A002F0050726F62696E67206D6573AC
:105760006820706F696E7420002028445259525589
:105770004E2900473239204175746F2042656420FC
:105780004C6576656C696E67003F20284C2C522C66
:10579000462C4229206F7574206F6620626F756EEB
:1057A00064732E0A003F2856296572626F73652064
:1057B0006C6576656C20696D706C61757369626C7F
:1057C000652028302D34292E0A00426164205A2099
:1057D00076616C75650A004E6F2062696C696E6552
:1057E000617220677269640A004162776569636863
:1057F000756E670025533A2025730046696E6973FC
:10580000686564210A003A207A3A2000206F6620F9
:1058100000476F696E6720746F3A20580043570A3B
:1058200000206469723A0020616E676C653A00532B
:1058300074617274207261646975733A004D343812
:105840002050756E6B740025533A2025642F256413
:1058500000506F736974696F6E696E672074686554
:105860002070726F62652E2E2E0A003F4C656773A2
:10587000206F66206D6F76656D656E7420696D7042
:105880006C61757369626C652028302D3135292E65
:105890000A003F2028582C5929206F7574206F6604
:1058A00020626F756E64732E0A005A7520776569E1
:1058B000742064726175C39F656E003F53616D70A3
:1058C0006C652073697A65206E6F7420706C6175E9
:1058D0007369626C652028342D3530292E0A004DFD
:1058E0003438205A2D50726F6265205265706561A0
:1058F000746162696C69747920546573740A003F3D
:105900002856296572626F7365206C6576656C2018
:10591000696D706C61757369626C652028302D3417
:10592000292E0A00447275636B206162676562729A
:105930006F6368656E004D323520500A4D32340079
:1059400050617573652E2E2E005761726E696E67F9
:105950003A20436C65616E20436972636C65207206
:10596000657175697265732058590A005761726EC6
:10597000696E673A20526164697573204F757420AF
:105980006F662052616E67650A0041206D61782064
:10599000450041206D6178205A0041206D617820DA
:1059A000590041206D617820580041204C65657296
:1059B000666168727400412045696E7A75670042BD
:1059C000657363686C65756E6967756E6700536FA4
:1059D0006E64656E7665727361747A205A00536FD7
:1059E0006E64656E7665727361747A205900536FC8
:1059F0006E64656E7665727361747A205800452016
:105A000053746570732F6D6D005A205374657073F5
:105A10002F6D6D00592053746570732F6D6D005894
:105A20002053746570732F6D6D004572772E20457D
:105A3000696E7374656C6C756E67656E003F0041CE
:105A4000626272656368656E0042657374C3A474B4
:105A50006967656E004D343238005765726B736547
:105A6000696E7374656C6C756E67656E0046696C03
:105A7000616D656E740054656D70657261747572E8
:105A80000053746570732F6D6D00536F6E64656E97
:105A90007665727361747A004A756E6374696F6EAD
:105AA000204465760042657363686C65756E69674E
:105AB000756E6700476573636877696E6469676BC5
:105AC000656974005365747A6520486F6D65766505
:105AD000727361747A004B6F6E6669677572617478
