:100000000C94552D0C94862D0C94862D0C94862DD5
:100010000C94862D0C94862D0C94862D0C94862D94
:100020000C94862D0C94862D0C94862D0C94862D84
:100030000C94862D0D94B3020C94862D0C94862D71
:100040000C94862D0D94E92B0C94862D0C94862D02
:100050000C94862D0C94862D0C942DB60D94C933DA
:100060000C94862D0C94B54C0C94AB4C0C94862DB2
:100070000C94862D0C94862D0C94862D0C94862D34
:100080000C9444450C94862D0C94862D0C94862D4E
:100090000C94862D0C94862D0C94862D0C94862D14
:1000A0000C94862D0C94862D0C9416450C94862D5C
:1000B0000C94862D0C94862D0C94862D0C94862DF4
:1000C0000C94862D0C94862D0C94862D0C94862DE4
:1000D0000C94862D0C94862D0C94862D0C94862DD4
:1000E0000C94862DC46AA76AAA6AC76AAD6AB06A08
:1000F000B36ABF6AB66AD26AB96ABC6A4BE26DE299
:100100008DE2B2E2D7E28EE4FCE21FE342E367E372
:100110008CE3B1E3D6E3FBE38EE420E445E46AE458
:10012000FDE500E604E607E60AE634E60EE611E63B
:1001300015E618E61BE61FE622E625E634E629E684
:100140002CE62FE6B202700122029A016A01CE0269
:10015000AE01E802CC024C010602B40120025401B7
:10016000CE02A402040232013601EC024E019201D9
:100170000A026E01A601A0019C02AE023C01CC0164
:10018000F8016A026E017002DA02AC011E026E0210
:100190008A01F0028A018A018A018A018A018A01A0
:1001A0008A018A018A018A018A018A018A018A01F7
:1001B0008A018A018A018A018A018A018A018A01E7
:1001C0008A018A018A018A01B4028A018A018A01AC
:1001D0008A018A018A018A018A0130028A018A0120
:1001E0008A018A018A018A018A018A018A018A01B7
:1001F00094028802084AD73B3BCE016E84BCBFFD07
:10020000C12F3D6C74319ABD56833DDA3D00C77FE6
:1002100011BED9E4BB4C3E916BAAAABE000000807F
:100220003F05A84CCDB2D44EB93836A9020C50B90E
:10023000918688083CA6AAAA2ABE000000803F003A
:100240000C94F8FC0C9404E60C94E5930C94016D6A
:100250000C9491880C9408FD0C94D5580D943C3E58
:100260000C9419940D943F090C9480660D94E00B46
:100270000D94F80E0C94B49D0D942C0C0C945C9E73
:100280000C94A59D0C94AD660C946AE40C9465994D
:100290000C94CA970C94109F0D941F090D94EA0BAF
:1002A0000C94B66A0C94B36A0D9431090C9425E64B
:1002B0000C94B6940C94B96A0C94FCE20C9407E686
:1002C0000C94BAFE0C94F0660C94894D0C947B6AE5
:1002D0000C94916C0D9406090D94FE0E0D94770C00
:1002E0000D940D090C94F76A0C949B990C94876AF1
:1002F0000C94FEFC0C94FAFC0C9479930C94E46638
:100300000C94FDE50C94D46A0C9490660C940EE663
:100310000C94966C0D94A70F0C94D26A0C94FCFC70
:100320000C94DF620D94F40B0C9463680C94A79901
:100330000C9434E60D9400090C94189F0C947F5C87
:100340000D94100C0C9402FD0C94D6E30D94080C43
:100350000C948EE40C949D940D946D0C0D941109E5
:100360000C948DE20C94B9660D9429090C94C46A1E
:100370000C947C660C948B980C94816C0C948C6619
:100380000C94569E0C9484940C944A9E0C94AF9DAD
:100390000C940AE60C9442E30D94360C0C94788885
:1003A0000C94B1E30C94C6620C94A76A0C94BE93AF
:1003B0000C94F8620C94876C0C941B710C948D88CF
:1003C0000C94B09B0C94BC6A0C94B06A0C94BB98CF
:1003D0000C94A7580C946E990C94FC4C0C949D9E14
:1003E0000C9406FD0C9422980C94AA9D0C946A64BB
:1003F0000D94450C0D94D7010C942C6E0C94B3996C
:100400000C94AA6A0C94E2FB0D943B090D94230909
:100410000C94A7660D94FE0B0C9418E60C94A26F36
:100420000C9491630C94FD4C0C94D7E20C9412A1A3
:100430000C94AD990D94FB0E0C94B2E20D94FF1048
:100440000D942D090D94FC080C94086D0C946DE22C
:100450000C94D6980C9403980C94BE580C9404FDFC
:100460000D940E110C94BF9B0D9401020C94BA9440
:100470000C94586C0C948F990C94509E0C948C6C2A
:100480000C943F940C94FBE30C94FE930C94B36295
:100490000C9436A40C94606C0C948CE30C941BE6C6
:1004A0000C94F5B50C94A1990C9483990C9400E6E6
:1004B0000C947D990C94AA660C941FE30C94AC9355
:1004C0000C9420E40C9487960C9400FD0C94AC984A
:1004D0000C94BC9E0D944F0C0C94B9990D946E0F16
:1004E0000D94590C0C949C660C94E4970C949B6CA2
:1004F0000C942D9E0C94AD6A0C94D65F0C94004D18
:100500000C944BE20C9411E60C9416990C944D6CDF
:100510000D94A40F0C94CC930C9458940C94AA9F13
:100520000C9456A30C94566C0D9452110C94CB66FB
:100530000D945B020C9467E30D94180C0D942F023C
:100540000C9484660C9429E60D9437090C94A066EB
:100550000C944A7D0C946B940C941FE60D94220C21
:100560000C942CE60D940A090D9435110D94063D5A
:100570000C947C880C9495990C942FE60C947488B8
:100580000C94EA660C942C940C9425990C94DE66D9
:100590000C94A4660C94274D0D941B090D944409EA
:1005A0000C9494660C94C76A0C94546C0C949866E2
:1005B0000C94BF6A0D94630C0C94275C0C948866B1
:1005C0000C9445E40C9415E60C9422E60C94CA981D
:1005D0000D9415090C9489990D94E50B0C94449E87
:1005E0000D943B114E414E494E495459494E46CD0A
:1005F000CCCC3D0AD7233C17B7D13877CC2B3295DA
:1006000095E6241FB14F0A000020410000C84200B7
:10061000401C4620BCBE4CCA1B0E5AAEC59D740081
:10062000407A10F35A00A0724E18090010A5D4E8C1
:100630000000E87648170000E40B54020000CA9A54
:100640003B000000E1F505000080969800000040A6
:10065000420F000000A086010000001027000000EB
:1006600000E803000000006400000000000A000031
:100670000000000100000000002C76D888DC674FE5
:100680000823DFC1DFAE59E1B1B796E5E3E453C615
:100690003AE651997696E8E6C28426EB898C9B620D
:1006A000ED407C6FFCEFBC9C9F40F2BAA56FA5F4B7
:1006B00090055A2AF75C936B6CF9676DC11BFCE0DF
:1006C000E40D47FEF520E6B500D0ED902E03009432
:1006D0003577050080841E080000204E0A000000C7
:1006E000C80C333333330F986E12831141EF8D21D1
:1006F00014893BE65516CFFEE6DB18D1844B381B38
:10070000F77C1D901DA4BBE424203284725E2281FC
:1007100000C9F124ECA1E53D27434F4D4D554E490D
:10072000434154494F4E0044525952554E00455290
:10073000524F525300494E464F004543484F002008
:10074000746F6F206C6F6E67206578747275736953
:100750006F6E2070726576656E7465640A00206342
:100760006F6C6420657874727573696F6E20707237
:100770006576656E7465640A00536C6565702E2E2F
:100780002E00436C69636B20746F20526573756D26
:10079000652E2E2E004E6F204D6F76652E00456E15
:1007A000642066696C65206C6973740A0042656731
:1007B000696E2066696C65206C6973740A004E6FFF
:1007C000206D656469610A00286E6F2066696C653A
:1007D000290043757272656E742066696C653A20F3
:1007E000005344207072696E74696E672062797478
:1007F0006520004E6F74205344207072696E7469D6
:100800006E670A002E0A0044656C6574696F6E207D
:100810006661696C65642C2046696C653A20004607
:10082000696C652064656C657465643A0043616E4B
:100830006E6F74206F70656E2073756264697220CC
:10084000002569730025696D202569730025696895
:100850002025696D20256973002569642025696854
:100860002025696D20256973002569792025696433
:10087000202569682025696D2025697300507269FB
:100880006E742074696D653A2000436F6F6C696EF9
:10089000672E2E2E0048656174696E672E2E2E001D
:1008A00045202553006F6B006F6666003A073507D9
:1008B0002E072707190744454255473A004D313165
:1008C000322053687574646F776E004D3131332078
:1008D0005300416E79637562696320344D4158203D
:1008E0004F46462E004348414D4245525F54454DC8
:1008F0005045524154555245004241425953544586
:100900005050494E470041524353004D4F54494FB8
:100910004E5F4D4F44455300544845524D414C5F46
:1009200050524F54454354494F4E004C4F4E475F31
:1009300046494C454E414D45004155544F52455056
:100940004F52545F53445F535441545553005344E2
:10095000434152440050524F4D50545F53555050F4
:100960004F525400454D455247454E43595F504103
:100970005253455200434153455F4C494748545FE9
:100980004252494748544E45535300544F47474CF1
:10099000455F4C494748545300534F4654574152C2
:1009A000455F504F574552004255494C445F5045B2
:1009B0005243454E54004C4556454C494E475F44C2
:1009C000415441005A5F50524F42450052554E4FDC
:1009D0005554004155544F4C4556454C00505249D2
:1009E0004E545F4A4F420050524F475245535300B6
:1009F0004155544F5245504F52545F54454D50004D
:100A0000564F4C554D455452494300454550524F61
:100A10004D0042494E4152595F46494C455F545240
:100A2000414E534645520053455249414C5F584F41
:100A30004E5F584F4646004649524D574152455F1A
:100A40004E414D453A4D61726C696E20344D4158AE
:100A500020322E302E373230314245544120284E3C
:100A60006F7620203120323032302031323A33302C
:100A70003A35382920534F555243455F434F44453B
:100A80005F55524C3A68747470733A2F2F676974CB
:100A90006875622E636F6D2F47656D696E6953656A
:100AA000727665722F4D61726C696E2050524F5490
:100AB0004F434F4C5F56455253494F4E3A312E30BB
:100AC000204D414348494E455F545950453A416E87
:100AD00079637562696320344D41582045585452FA
:100AE000554445525F434F554E543A312055554970
:100AF000443A36616131343764322D666664352D8F
:100B0000313165392D386437312D333632623965EC
:100B10003135353636370A002F2F20004D31343528
:100B200020533C696E6465783E206F7574206F6653
:100B30002072616E67652028302D31290A0020520D
:100B400000416363656C65726174696F6E3A205031
:100B5000003F4A206F7574206F662072616E676572
:100B60002028302E303120746F20302E33290A0097
:100B700046523A0020466C6F773A200020643A00D3
:100B800020693A0020703A00496E76616C696420F1
:100B900065787472756465720A0064697300656EC5
:100BA0000043290A0061626C656420286D696E202B
:100BB00074656D702000436F6C6420657874727585
:100BC0006465732061726520004F4646004F4E00F9
:100BD00046696C616D656E742072756E6F757420F8
:100BE000004F666673657473204170706C6965644C
:100BF000004572723A20546F6F2066617221005472
:100C00006F6F206661722066726F6D207265666517
:100C100072656E636520706F696E740A0045455099
:100C2000524F4D204F4B0A004D383400446F6E65D3
:100C3000207072696E74696E672066696C650A005F
:100C40004D3737004D333100496E76616C69642051
:100C500065787472756465720A004572726F7220ED
:100C600077726974696E6720746F20454550524FE2
:100C70004D210A00363726033C3D380E2E303E12F9
:100C80001A1C180A2C4309072C07084400014D348C
:100C90003130004D313132004D3130380053544F36
:100CA000505045442E20005072696E746572207356
:100CB000746F707065642064756520746F20657250
:100CC000726F72732E204669782074686520657291
:100CD000726F7220616E6420757365204D393939E9
:100CE00020746F20726573746172742E20285465AD
:100CF0006D706572617475726520697320726573B9
:100D000065742E2053657420697420616674657261
:100D10002072657374617274696E67290A004E6F80
:100D200020436865636B73756D2077697468206C08
:100D3000696E65206E756D6265722C204C617374EE
:100D4000204C696E653A20004E6F20436865636BE6
:100D500073756D2077697468206C696E65206E7597
:100D60006D6265722C204C617374204C696E653A1B
:100D70002000636865636B73756D206D69736D61C9
:100D80007463682C204C617374204C696E653A2042
:100D9000004C696E65204E756D6265722069732026
:100DA0006E6F74204C617374204C696E65204E75B3
:100DB0006D6265722B312C204C617374204C696E0E
:100DC000653A20004D313130005344207265616432
:100DD000206572726F720A002121204B494C4C2011
:100DE00063617573656420627920746F6F206D751F
:100DF000636820696E6163746976652074696D65E6
:100E0000202D2063757272656E7420636F6D6D6145
:100E10006E643A2000627573793A2070617573656B
:100E20006420666F7220696E7075740A0062757353
:100E3000793A2070617573656420666F72207573EE
:100E400065720A00627573793A2070726F63657318
:100E500073696E670A004D656469612052656D6F44
:100E6000766564004D6564696120496E73657274CE
:100E70006564004D3630300020573A0042656420EA
:100E8000436F6F6C696E672E2E2E0042656420489A
:100E9000656174696E672E2E2E0023646566696E27
:100EA000652044454641554C545F004B6420004B3F
:100EB0006920004B702000504944204175746F74C4
:100EC000756E652066696E6973686564212050756A
:100ED0007420746865206C617374204B702C204BF7
:100EE0006920616E64204B6420636F6E7374616E61
:100EF00074732066726F6D2062656C6F7720696E07
:100F0000746F20436F6E66696775726174696F6E86
:100F10002E680A00504944204175746F74756E65DF
:100F2000206661696C6564212074696D656F7574F4
:100F30000A00504944204175746F74756E652066CF
:100F400061696C6564212054656D706572617475AA
:100F5000726520746F6F20686967680A00204B64AF
:100F60003A2000204B693A2000204B703A20000ABA
:100F700020436C617373696320504944200A002048
:100F800054753A2000204B753A2000206D61783A64
:100F90002000206D696E3A200020643A2000206213
:100FA0006961733A2000504944204175746F74752B
:100FB0006E652073746172740A0050494420417553
:100FC000746F74756E65206661696C656421205468
:100FD000656D706572617475726520746F6F2068DD
:100FE0006967680A00504944204175746F74756ED2
:100FF0006500504944204175746F74756E652066B4
:1010000061696C6564212042616420657874727541
:10101000646572206E756D6265720A004572723A7F
:10102000207574663820666F6E74206E6F74206948
:101030006E697469616C697A65642E004572723AF2
:10104000207574663820666F6E74206E6F74206928
:101050006E697469616C697A65642E004572723AD2
:10106000207574663820666F6E74206E6F74206908
:101070006E697469616C697A65642E002568753AD9
:1010800025303268750025303268753A253032686F
:101090007500256875642025303268753A25303230
:1010A000687500000C0F00FE07022503BB017FFEE0
:1010B00008FE08FE05080806000040F0C888889869
:1010C0007810050808060000C0F88888888888F825
:1010D0000505050600012030F83020050808060047
:1010E000002070F820202020E00509090600FF20DC
:1010F00070A8A8B888887020070505070001D86C7B
:10110000366CD80509090600FFF8A8888888888801
:10111000A8F8050A0A0600FE205050505088A8A8DA
:10112000887003030306000340A040FFFFFFFFFF9A
:10113000FFFFFFFFFFFFFFFFFFFFFFFFFFFFFFFFBF
:10114000FF0000000605FF010707060200808080FF
:1011500080800080030303060105A0A0A005060609
:1011600006000050F85050F8500509090600FF200D
:1011700070A8A07028A87020050707060000C8C83E
:10118000102040989805070706000040A0A040A83E
:1011900090680103030602058080800309090601A7
:1011A000FF2040408080804040200309090601FF65
:1011B0008040402020204040800507070600002096
:1011C000A8702070A8200505050600012020F82041
:1011D000200203030601FFC0408005010106000351
:1011E000F8020202060100C0C00507070600000859
:1011F000101020404080050707060000708898A85E
:10120000C8887003070706010040C040404040E026
:10121000050707060000708808102040F80507073A
:10122000060000F80810300888700507070600005F
:1012300010305090F81010050707060000F880F0F5
:1012400008088870050707060000304080F088888D
:1012500070050707060000F8081010202020050779
:1012600007060000708888708888700507070600E8
:101270000070888878081060020505060100C0C06B
:1012800000C0C00206060601FFC0C000C0408003C7
:1012900005050601012040804020050303060002E9
:1012A000F800F8030505060101804020408005078D
:1012B00007060000708810202000200507070600A0
:1012C000007088B8A8B8807005070706000070880D
:1012D00088F8888888050707060000F048487048A5
:1012E00048F0050707060000708880808088700538
:1012F0000707060000F04848484848F00507070679
:101300000000F88080F08080F8050707060000F8EC
:101310008080F0808080050707060000708880804C
:10132000988870050707060000888888F8888888EC
:10133000030707060100E04040404040E005070782
:101340000600003810101010906005070706000016
:101350008890A0C0A09088050707060000808080C4
:10136000808080F805070706000088D8A88888884C
:10137000880507070600008888C8A8988888050798
:1013800007060000708888888888700507070600AF
:1013900000F08888F08080800507070600007088CC
:1013A0008888A89068050707060000F08888F0A0E4
:1013B000908805070706000070888070088870050F
:1013C0000707060000F82020202020200507070638
:1013D00000008888888888887005070706000088CC
:1013E000888888505020050707060000888888886C
:1013F000A8A8500507070600008888502050888854
:1014000005070706000088885020202020050707D0
:10141000060000F80810204080F80309090601FFC3
:10142000E080808080808080E005070706000080E3
:101430004040201010080309090601FFE020202089
:1014400020202020E0050303060005205088050128
:10145000010600FEF8030303060105804020050590
:1014600005060000700878887805070706000080E8
:1014700080F0888888F00505050600007080808867
:101480007005070706000008087888888878050531
:10149000050600007088F080700507070600003020
:1014A0004840E04040400507070600FE70888888F5
:1014B0007808700507070600008080F08888888813
:1014C0000307070601004000C0404040E00409094E
:1014D0000601FE100030101010109060050707067E
:1014E000000080808890E09088030707060100C014
:1014F0004040404040E0050505060000D0A8A8A8EF
:10150000A8050505060000B0C888888805050506F9
:10151000000070888888700507070600FEF088883C
:1015200088F080800507070600FE7888888878089C
:1015300008050505060000B0C88080800505050681
:10154000000078807008F00507070600002020F8EA
:101550002020201805050506000088888898680561
:10156000050506000088888850200505050600004E
:101570008888A8A8500505050600008850205088D6
:101580000507070600FE888888502040800505056D
:10159000060000F8102040F80309090601FF20406A
:1015A000404080404040200109090602FF808080C1
:1015B0008080808080800309090601FF80404040D0
:1015C000204040408005030306000248A890FF4CDD
:1015D0006F6164206D6D00556E6C6F6164206D6D80
:1015E0000046696C2E204469612E004520696E20FA
:1015F0006D6DC2B3004D3330332055312045256920
:101600002053256900504944204175746F74756EEC
:1016100065202A005049442D44202A005049442D79
:1016200049202A005049442D50202A0020082046F5
:10163000616374002008204D6178002008204D6906
:101640006E004F6666004F6E004175746F74656D75
:101650007000554E4C4F41442046494C414D454E3B
:1016600054004C4F41442046494C414D454E540096
:1016700046494C414D454E54204348414E47450054
:10168000526573746F72652044656661756C74731E
:10169000004C6F61642053657474696E6773005306
:1016A000746F72652053657474696E67730050724D
:1016B0006568656174202420436F6E66004F66661E
:1016C000004F6E0052756E6F75742053656E736FA8
:1016D0007200436F6E74726F6C6C65722046616E3F
:1016E00000416476616E6365642053657474696E4D
:1016F0006773004D61696E004D37303220542564A8
:10170000004D36303020423020542564004D3730B3
:1017100032203B2564004D37303120542564004D84
:10172000373032004D373031004D363030204230C6
:10173000004D61696E00436F6E74696E7565004F90
:101740006666004F6E0052756E6F75742053656E3D
:10175000736F72005075726765206D6F726500520D
:101760004553554D45204F5054494F4E533A005024
:1017700052494E54205041555345440020204E6F4D
:101780007A7A6C653A20005061726B696E672E2E12
:101790002E0000005761697420666F720066696CE4
:1017A000616D656E74206368616E676500746F209B
:1017B0007374617274005761697420666F72006699
:1017C000696C616D656E7420756E6C6F616400008C
:1017D0004E6F7A7A6C652068656174696E67005037
:1017E0006C6561736520776169742E2E2E00005040
:1017F0007265737320627574746F6E00746F206805
:10180000656174206E6F7A7A6C650000496E73654D
:1018100072742066696C616D656E7400616E64201F
:10182000707265737320627574746F6E00746F20CC
:10183000636F6E74696E7565005761697420666FB9
:10184000720066696C616D656E74206C6F61640016
:1018500000507265737320427574746F6E00746FFC
:1018600020726573756D65207072696E7400005723
:1018700061697420666F72207072696E7400746F93
:1018800020726573756D652E2E2E00005761697488
:1018900020666F720066696C616D656E742070758C
:1018A00072676500003135300035004245443A200A
:1018B0004550434F53203130304B0052756E6177A5
:1018C00061792057617463683A204F4E004D61780A
:1018D0002054656D7000323735004D696E205465B7
:1018E0006D7000350045313A204550434F5320314B
:1018F00030304B0050535500532D3330302D3132A2
:101900000050726F746F636F6C00312E3000426153
:1019100075640032353030303000416E7963756265
:1019200069632052414D505320312E34002100482C
:101930006F74656E6420746F6F20636F6C64004217
:1019400061636B0050726F63656564004D6F74690D
:101950006F6E0044697361626C65205374657070CA
:10196000657273004D3834004C6576656C20436FAA
:10197000726E65727300486F6D65205A0047323889
:101980005A00486F6D652059004732385900486F3A
:101990006D6520580047323858004175746F2048F3
:1019A0006F6D6500473238004D61696E0050726599
:1019B00068656174202420456E6400507265686516
:1019C00061742024204265640054656D7065726105
:1019D0007475726500436F6F6C646F776E00507240
:1019E000656865617420240046616E2053706565EA
:1019F0006400426564004E6F7A7A6C65004D6169DF
:101A00006E00466C6F770046616E205370656564AA
:101A100000426564004E6F7A7A6C650053706565AC
:101A200064004D61696E00FFFDFCFAF8F6F4F2F017
:101A3000EEECEAE9E7E5E3E1E0DEDCDAD9D7D5D49C
:101A4000D2D0CFCDCBCAC8C7C5C3C2C0BFBDBCBA38
:101A5000B9B7B6B4B3B2B0AFADACAAA9A8A6A5A4A5
:101A6000A2A1A09E9D9C9A99989795949392908FED
:101A70008E8D8B8A8988878684838281807F7E7D14
:101A80007B7A797877767574737271706F6E6D6C1E
:101A90006B6A696867666564636261605F5E5D5C0E
:101AA0005B5A5958585756555453525150504F4EEF
:101AB0004D4C4B4A4A4948474646454443424241B9
:101AC000403F3E3E3D3C3B3B3A3938383736353572
:101AD000343332323130302F2E2E2D2C2B2B2A291D
:101AE0002928272726252524232322212120201FBA
:101AF0001E1E1D1C1C1B1B1A19191818171616154B
:101B00001514131312121111100F0F0E0E0D0D0CD0
:101B10000C0B0A0A0909080807070606050504044C
:101B20000303020201000000005A4300005A430070
:101B30000096430000A0C000000000000000005319
:101B4000657474696E67732053746F7265640029DD
:101B50000A002062797465733B206372632000532E
:101B6000657474696E67732053746F72656420289E
:101B7000004669656C64206261636B6C6173685FC9
:101B800064697374616E63655F6D6D206D69736DFB
:101B9000617463682E0A004669656C642066635F41
:101BA00073657474696E6773206D69736D617463B6
:101BB000682E0A004669656C6420706C616E6E6503
:101BC000725F736B65775F666163746F72206D69B6
:101BD000736D617463682E0A004669656C642063E6
:101BE0006F6F7264696E6174655F73797374656D2C
:101BF000206D69736D617463682E0A004669656CB7
:101C000064206D6F746F725F63757272656E745F5E
:101C100073657474696E67206D69736D6174636850
:101C20002E0A004669656C6420706C616E6E657288
:101C30005F65787472756465725F616476616E6306
:101C4000655F4B206D69736D617463682E0A004691
:101C500069656C6420746D635F737465616C74682E
:101C60005F656E61626C6564206D69736D6174633C
:101C7000682E0A004669656C6420746D635F68793C
:101C8000627269645F7468726573686F6C64206DFA
:101C900069736D617463682E0A004669656C64201F
:101CA000746D635F737465707065725F6375727273
:101CB000656E74206D69736D617463682E0A0046E9
:101CC00069656C64207061727365725F766F6C75A4
:101CD0006D65747269635F656E61626C6564206DC9
:101CE00069736D617463682E0A004669656C6420CF
:101CF0006677726574726163745F73657474696E1C
:101D00006773206D69736D617463682E0A0046699C
:101D1000656C64207265636F766572795F656E616C
:101D2000626C6564206D69736D617463682E0A006E
:101D30004669656C6420636F6E74726F6C6C65725B
:101D400046616E5F73657474696E6773206D697345
:101D50006D617463682E0A004669656C64206C636B
:101D6000645F636F6E7472617374206D69736D610B
:101D70007463682E0A004669656C6420706F77652D
:101D8000725F6D6F6E69746F725F666C61677320EE
:101D90006D69736D617463682E0A004669656C64D1
:101DA00020626564504944206D69736D6174636895
:101DB0002E0A004669656C64206C70715F6C656EFC
:101DC000206D69736D617463682E0A004669656CE5
:101DD0006420686F74656E64504944206D69736D4A
:101DE000617463682E0A004669656C642075695FDA
:101DF0006D6174657269616C5F7072657365742082
:101E00006D69736D617463682E0A004669656C6460
:101E100020626C746F7563685F6C6173745F777256
:101E2000697474656E5F6D6F6465206D69736D6153
:101E30007463682E0A004669656C64207365727667
:101E40006F5F616E676C6573206D69736D6174633C
:101E5000682E0A004669656C6420706C616E6E6560
:101E6000725F6C6576656C696E675F6163746976D5
:101E700065206D69736D617463682E0A004669653B
:101E80006C642070726F62655F6F66667365742044
:101E90006D69736D617463682E0A004669656C64D0
:101EA0002072756E6F75745F73656E736F725F65A8
:101EB0006E61626C6564206D69736D617463682E18
:101EC0000A004669656C6420686F6D655F6F6666C1
:101ED000736574206D69736D617463682E0A0046C2
:101EE00069656C6420657374657070657273206DCC
:101EF00069736D617463682E0A00486F6D696E675F
:101F0000204661696C6564006F70656E00545249CB
:101F1000474745524544003A200066696C616D654B
:101F20006E74007A5F6D696E00795F6D696E00781E
:101F30005F6D696E005265706F7274696E672065BF
:101F40006E6473746F70207374617475730A0048E3
:101F50006F6D652025732573257320466972737430
:101F6000000000A0C00000000000000000000048C9
:101F70004200004842000020415761726E696E675E
:101F80003A20486F6D696E672042756D7020446914
:101F90007669736F72203C20310A0002020400004F
:101FA000A0400000A0400000004000005F4300008F
:101FB0005A4300009643FFFFFF00000001000000AD
:101FC00001000080005555550000004000333333B8
:101FD00000AAAA2A004992240000002000C7711C10
:101FE0000099991900D1451700555515003BB113BB
:101FF000002449120011111100000010000F0F0FF2
:1020000000E3380E0043790D00CCCC0C00C3300C3B
:1020100000E8A20B0064210B00AAAA0A00703D0A86
:10202000009DD80900427B090092240900DCD308F6
:1020300000888808001042080000000800F0C1076E
:10204000008787070075500700711C07003EEB06EC
:1020500000A1BC06006990060066660600703E0698
:10206000006118060017F4050074D105005BB00587
:1020700000B29005006272050055550500783905DB
:1020800000B81E0500050505004EEC040087D404C9
:1020900000A1BD040090A7040049920400C17D0482
:1020A00000EE690400C7560400444404005C320496
:1020B000000821040041100400000004003FF00368
:1020C00000F8E0030026D20300C3C30300CCB5032D
:1020D000003AA803000A9B0300388E0300C0810366
:1020E000009F750300D0690300505E03001D530379
:1020F0000034480300913D030033330300162903E5
:1021000000381F030097150300300C03000303037E
:10211000000BFA020049F10200BAE802005CE0029A
:10212000002DD802002DD0020059C80200B0C00214
:102130000031B90200DAB10200AAAA0200A0A3028B
:1021400000BC9C0200FA9502005C8F0200DF88024E
:102150000082820200457C0200277602002770027E
:1021600000436A02007C640200D05E02003F590214
:1021700000C853020001FFFFFFFFFFFFFFFFFFFF4B
:10218000FFFFFF0FFFFFFFFFFFFFFFFFFFFFFFFF4F
:10219000FF1E0000000000000000000007FFFF38E5
:1021A0000000000000000000000003FFFF700000BE
:1021B000000000000000000001FFFF6000000000C0
:1021C00000000000000000FFFF60000000000000B1
:1021D00000000000007FFFC00000000000000000C1
:1021E0007800003FFFC00FC0FC000000000078181E
:1021F000001FFFC03FE1FF0000000000783C000F1F
:10220000FFC07FF3FF8000000000783C0007FFC0A4
:10221000FFFFFFC000000000783C0003FFC1F87F13
:1022200087E00000000078000001FFC1F03F03E0FC
:102230000000000078000000FFC1E01E01E01F0068
:1022400003E0783C03F07FC1E01E01E07FC00FF89F
:10225000783C07FC3FC1E01E01E1FFE01FFC783C39
:102260000FFE1FC1E01E01E3FFF03FFE783C1FFEA2
:102270000FC1E01E01E3F3F83F3E783C3F3F07C14A
:10228000E01E01E7E0FC7C1F783C3E1F07C1E01E1A
:1022900001E7C07C7C0F783C3C0F03C1E01E01E7E6
:1022A000807C780F783C3C0F03C1E01E01E7803C46
:1022B0007800783C3C0F03C1E01E01E7803C7800C9
:1022C000783C3C0F03C1E01E01E7803C7800783C7D
:1022D0003C0F03C1E01E01E7C03C7800783C3C0F96
:1022E00003C1E01E01E3E03C78007C3C3C0F03C1ED
:1022F000E01E01E3FF3FF8007FBC3C0F03C1E01E7E
:1023000001E1FF3FF8003FBFFC0F03C1E01E01E009
:10231000FF3FF8001FBFFC0F03C1E01E01E07F3F3D
:10232000F8000FBFFC0F0360000000000000000079
:102330000000000007600000000000000000000036
:102340000000067000000000000000000000000017
:102350000E380000000000000000000000001C1EFD
:10236000000000000000000000000000780FFFFFE8
:10237000FFFFFFFFFFFFFFFFFFFFF001FFFFFFFF7A
:10238000FFFFFFFFFFFFFFFF8001FFFFFFFFFFFFDA
:10239000FFFFFFFFFFFFFF0FFFFFFFFFFFFFFFFF3D
:1023A000FFFFFFFFFF1E0000000000000000000014
:1023B00007FFFF380000000000000000000003FFDE
:1023C000FF700000000000000000000001FFFF603F
:1023D0000000000000000000000000FFFF6000009F
:1023E0000000000000000000007FFFC000000000AF
:1023F000000000007800003FFFC00FC0FC0000009C
:1024000000007818001FFFC03FE1FF00000000003F
:10241000783C000FFFC07FF3FF8000000000783C95
:102420000007FFC0FFFFFFC000000000783C000372
:10243000FFC1F87F87E00000000078000001FFC1C5
:10244000F03F03E00000000078000000FFC1E01E44
:1024500001E01F0003E0783C00007FC1E01E01E0C6
:102460007FC00FF8783C00003FC1E01E01E1FFE0B3
:102470001FFC783C00001FC1E01E01E3FFF03FFE9F
:10248000783C00000FC1E01E01E3F3F83F3E783CCA
:10249000000007C1E01E01E7E0FC7C1F783C000063
:1024A00007C1E01E01E7C07C7C0F783C000003C13F
:1024B000E01E01E7807C780F783C000003C1E01E3D
:1024C00001E7803C7800783C000003C1E01E01E792
:1024D000803C7800783C000003C1E01E01E7803CAE
:1024E0007800783C000003C1E01E01E7C03C7800A2
:1024F000783C000003C1E01E01E3E03C78007C3C36
:10250000000003C1E01E01E3FF3FF8007FBC0000B4
:1025100003C1E01E01E1FF3FF8003FBF000003C11F
:10252000E01E01E0FF3FF8001FBF000003C1E01EF6
:1025300001E07F3FF8000FBF0000036000000000D3
:102540000000000000000000076000000000000024
:102550000000000000000670000000000000000005
:10256000000000000E380000000000000000000025
:1025700000001C1E00000000000000000000000021
:10258000780FFFFFFFFFFFFFFFFFFFFFFFFFF001DF
:10259000FFFFFFFFFFFFFFFFFFFFFFFF8001FFFFC8
:1025A000FFFFFFFFFFFFFFFFFFFFFF0FFFFFFFFF2B
:1025B000FFFFFFFFFFFFFFFFFF1E00000000000006
:1025C0000000000007FFFF380000000000000000CE
:1025D000000003FFFF70000000000000000000008A
:1025E00001FFFF600000000000000000000000FF8D
:1025F000FF6000000000000000000000007FFFC03E
:1026000000000000000000007800003FFFC00FC085
:10261000FC00000000007800001FFFC03FE1FF0049
:10262000000000007800000FFFC07FF3FF80000073
:10263000000078000007FFC0FFFFFFC0000000009F
:1026400078000003FFC1F87F87E0000000007800F9
:102650000001FFC1F03F03E000000000780000002F
:10266000FFC1E01E01E01F0003E0780000007FC111
:10267000E01E01E07FC00FF8780000003FC1E01EBF
:1026800001E1FFE01FFC780000001FC1E01E01E334
:10269000FFF03FFE780000000FC1E01E01E3F3F8F9
:1026A0003F3E7800000007C1E01E01E7E0FC7C1F10
:1026B0007800000007C1E01E01E7C07C7C0F7800B5
:1026C000000003C1E01E01E7807C780F7800000065
:1026D00003C1E01E01E7803C78007800000003C1E0
:1026E000E01E01E7803C78007800000003C1E01E96
:1026F00001E7803C78007800000003C1E01E01E79C
:10270000C03C78007800000003C1E01E01E3E03C1B
:1027100078007C00000003C1E01E01E3FF3FF800E9
:102720007F00000003C1E01E01E1FF3FF8003F0011
:10273000000003C1E01E01E0FF3FF8001F000000A1
:1027400003C1E01E01E07F3FF8000F0000000360BE
:102750000000000000000000000000000760000012
:1027600000000000000000000000067000000000F3
:1027700000000000000000000E3800000000000013
:102780000000000000001C1E00000000000000000F
:1027900000000000780FFFFFFFFFFFFFFFFFFFFFBC
:1027A000FFFFF001FFFFFFFFFFFFFFFFFFFFFFFF46
:1027B0008001FFFFFFFFFFFFFFFFFFFFFFFFFF0F96
:1027C000FFFFFFFFFFFFFFFFFFFFFFFFFF1E0000F8
:1027D000000000000000000007FFFF3800000000BC
:1027E00000000000000003FFFF7000000000000078
:1027F0000000000001FFFF6000000000000000007A
:10280000000000FFFF60000000000000000000006A
:10281000007FFFC000000000000000000000003F3B
:10282000FFC00FC0FC00000000000000001FFFC040
:102830003FE1FF00000000000000000FFFC07FF339
:10284000FF800000000000000007FFC0FFFFFFC086
:102850000000000000000003FFC1F87F87E00000D7
:10286000000000000001FFC1F03F03E00000000095
:1028700000000000FFC1E01E01E01F0003E00000B7
:1028800000007FC1E01E01E07FC00FF800000000E3
:102890003FC1E01E01E1FFE01FFC000000001FC17E
:1028A000E01E01E3FFF03FFE000000000FC1E01E4C
:1028B00001E3F3F83F3E0000000007C1E01E01E71E
:1028C000E0FC7C1F0000000007C1E01E01E7C07CA7
:1028D0007C0F0000000003C1E01E01E7807C780F40
:1028E0000000000003C1E01E01E7803C780000000A
:1028F000000003C1E01E01E7803C780000000000FA
:1029000003C1E01E01E7803C78000000000003C125
:10291000E01E01E7C03C78000000000003C1E01E9B
:1029200001E3E03C78000000000003C1E01E01E389
:10293000FF3FF8000000000003C1E01E01E1FF3F7F
:10294000F8000000000003C1E01E01E0FF3FF800B6
:102950000000000003C1E01E01E07F3FF80000001E
:102960000000036000000000000000000000000004
:10297000076000000000000000000000000006707A
:102980000000000000000000000000000E38000001
:10299000000000000000000000001C1E00000000FD
:1029A0000000000000000000780FFFFFFFFFFFFFA6
:1029B000FFFFFFFFFFFFF001FFFFFFFFFFFFFFFF34
:1029C000FFFFFFFF8001FFFFFFFFFFFFFFFFFFFF94
:1029D000FFFFFF0FFFFFFFFFFFFFFFFFFFFFFFFFF7
:1029E000FF1E0000000000000000000007FFFF388D
:1029F0000000000000000000000003FFFF70000066
:102A0000000000000000000001FFFF600000000067
:102A100000000000000000FFFF6000000000000058
:102A200000000000007FFFC0000000000000000068
:102A30000000003FFFC00FC0FC00000000000000CD
:102A4000001FFFC03FE1FF00000000000000000F7A
:102A5000FFC07FF3FF800000000000000007FFC000
:102A6000FFFFFFC00000000000000003FFC1F87F6F
:102A700087E00000000000000001FFC1F03F03E01C
:102A80000000000000000000FFC1E01E01E01F0088
:102A90000000000000007FC1E01E01E07FC00000D8
:102AA000000000003FC1E01E01E1FFE00000000067
:102AB00000001FC1E01E01E3FFF000000000000065
:102AC0000FC1E01E01E3F3F800000000000007C1A1
:102AD000E01E01E7E0FC00000000000007C1E01E6E
:102AE00001E7C07C00000000000003C1E01E01E718
:102AF000807C00000000000003C1E01E01E7803C74
:102B000000000000000003C1E01E01E7803C00005F
:102B10000000000003C1E01E01E7803C000000004F
:102B2000000003C1E01E01E7C03C000000000000FF
:102B300003C1E01E01E3E03C00000000000003C10F
:102B4000E01E01E3FF3F00000000000003C1E01EA3
:102B500001E1FF3F00000000000003C1E01E01E0B2
:102B6000FF3F00000000000003C1E01E01E07F3FC6
:102B700000000000000003600000000000000000F2
:102B800000000000076000000000000000000000DE
:102B900000000670000000000000000000000000BF
:102BA0000E380000000000000000000000001C1EA5
:102BB000000000000000000000000000780FFFFF90
:102BC000FFFFFFFFFFFFFFFFFFFFF001FFFFFFFF22
:102BD000FFFFFFFFFFFFFFFF8001FFFFFFFFFFFF82
:102BE000FFFFFFFFFFFFFF0FFFFFFFFFFFFFFFFFE5
:102BF000FFFFFFFFFF1E00000000000000000000BC
:102C000007FFFF380000000000000000000003FF85
:102C1000FF700000000000000000000001FFFF60E6
:102C20000000000000000000000000FFFF60000046
:102C30000000000000000000007FFFC00000000056
:102C4000000000000000003FFFC00FC0FC000000BB
:102C500000000000001FFFC03FE1FF000000000077
:102C60000000000FFFC07FF3FF80000000000000A5
:102C70000007FFC0FFFFFFC00000000000000003CE
:102C8000FFC1F87F87E00000000000000001FFC1E5
:102C9000F03F03E00000000000000000FFC1E01E64
:102CA00001E000000000000000007FC1E01E01E024
:102CB00000000000000000003FC1E01E01E0000035
:102CC0000000000000001FC1E01E01E00000000045
:102CD000000000000FC1E01E01E000000000000045
:102CE000000007C1E01E01E000000000000000003D
:102CF00007C1E01E01E0000000000000000003C169
:102D0000E01E01E0000000000000000003C1E01E22
:102D100001E0000000000000000003C1E01E01E02F
:102D2000000000000000000003C1E01E01E0000000
:102D300000000000000003C1E01E01E000000000F0
:102D40000000000003C1E01E01E0000000000000E0
:102D5000000003C1E01E01E00000000000000000D0
:102D600003C1E01E01E0000000000000000003C1FC
:102D7000E01E01E0000000000000000003C1E01EB2
:102D800001E00000000000000000036000000000FF
:102D900000000000000000000760000000000000CC
:102DA00000000000000006700000000000000000AD
:102DB000000000000E3800000000000000000000CD
:102DC00000001C1E000000000000000000000000C9
:102DD000780FFFFFFFFFFFFFFFFFFFFFFFFFF00187
:102DE000FFFFFFFFFFFFFFFFFFFFFFFF8001FFFF70
:102DF000FFFFFFFFFFFFFFFFFFFFFF0FFFFFFFFFD3
:102E0000FFFFFFFFFFFFFFFFFF1E000000000000AD
:102E10000000000007FFFF38000000000000000075
:102E2000000003FFFF700000000000000000000031
:102E300001FFFF600000000000000000000000FF34
:102E4000FF6000000000000000000000007FFFC0E5
:102E500000000000000000000000003FFFC0000074
:102E60000000000000000000001FFFC00000000084
:102E7000000000000000000FFFC000000000000084
:102E8000000000000007FFC000000000000000007C
:102E900000000003FFC00000000000000000000070
:102EA0000001FFC000000000000000000000000062
:102EB000FFC00000000000000000000000007FC014
:102EC0000000000000000000000000003FC0000003
:102ED000000000000000000000001FC00000000013
:102EE00000000000000000000FC000000000000013
:102EF00000000000000007C000000000000000000B
:102F00000000000007C000000000000000000000FA
:102F1000000003C0000000000000000000000000EE
:102F200003C000000000000000000000000003C01B
:102F300000000000000000000000000003C00000CE
:102F40000000000000000000000003C000000000BE
:102F5000000000000000000003C0000000000000AE
:102F600000000000000003C000000000000000009E
:102F70000000000003C0000000000000000000008E
:102F8000000003C00000000000000000000000007E
:102F900003C000000000000000000000000003600B
:102FA00000000000000000000000000007600000BA
:102FB000000000000000000000000670000000009B
:102FC00000000000000000000E38000000000000BB
:102FD0000000000000001C1E0000000000000000B7
:102FE00000000000780FFFFFFFFFFFFFFFFFFFFF64
:102FF000FFFFF001FFFFFFFFFFFFFFFFFFFFFFFFEE
:103000008000000000000000000000000000000040
:1030100000000000000000000000000000000000B0
:103020000000047F03E00001F8000F00007F800330
:10303000F0000C7F03F00003F8001F80007FC00742
:10304000F0000C7F03F80007F8003F80007FC00FFE
:10305000F0001C7F03FC000FF8003FC0003FE01FA2
:10306000F0001C7F03FE001FF8003FC0001FF03F70
:10307000F0003C7F01FF003FF8001FE0000FF87FE9
:10308000F0003C7F00FF807FF8000FE00007F87F32
:10309000E0007C7F007FC0FFF8000FF00007FC3FDE
:1030A000C0007C7F003FE1FFF80007F80003FE1F2F
:1030B0008000FC7F001FFFFFF80187F80001FF0F71
:1030C0000000FC7F030FFFFFF801C3FC0000FF8638
:1030D0000001FC7F0387FFF3F803E3FC00007F801F
:1030E0000001FC7F03C3FFE3F803E1FE00007FC0A3
:1030F0000003FC7F03E1FFC3F807F1FE00003FE09F
:103100000003FC7FE3F0FF83F807F0FF00001FF0EF
:103110000007FC7FE3F87F03F80FF07F00000FF05B
:103120000007FC7FE3F81E03F80FE07F80000FF834
:10313000000FFC7FE3F80003F81FE3FF800387FC28
:10314000000FFC7FE3F80003F81FC3FFC007C3FEB6
:10315000001FFC7FE3F80003F83FC7FFC00FE1FE4C
:103160000000007F03F80003F83F87FFE01FF1FF36
:103170000000007F03F80003F87F8FFFE03FF0FFBF
:103180008000007F03F80003F87F0FFFF07FF07FDF
:10319000C000007F03F80003F8FF0007F0FFE03FE6
:1031A000C000007F03F80003F8FE0007F8FFC03FEF
:1031B000E000007F03F80003F9FE0003F8FF801F22
:1031C000F000007F03F80003F9FC0003FCFF000F90
:1031D000F000007F03F80003FBFC0001FCFE000F81
:1031E000F0000000000000000000000000000000EF
:1031F00000000000000000000000000000000000CF
:103200000068747470733A2F2F6769742E696F2F7A
:10321000666A587A7200344D415820322E302E376B
:103220003230314245544100ED2DD92BC529B1270B
:103230009D258923752170012C0190012701B00182
:103240002201C0011D01F00118011002130130021A
:103250000E016002090190020401C002FF00000398
:10326000FA004003F5008003F000D003EB002004D7
:10327000E6007004E100E004DC004005D700C00572
:10328000D2004006CD00D006C8008007C300300839
:10329000BE00F008B900C009B400B00AAF00B00B1E
:1032A000AA00D00CA500000EA000500F9B00C0107B
:1032B00096005012910000148C00C0158700B017C2
:1032C0008200B0197D00D01B7800001E73004020E2
:1032D0006E0090226900F024640040275F0090296E
:1032E0005A00E02B5500102E500020304B001032B9
:1032F0004600E033410090353C001037370070380D
:103300003200A0392D00B03A2800A03B2300603CD9
:103310001E00103D1900903D1400103E0F00703E3D
:103320000A00C03E0500003F0000403FFBFF803F19
:10333000F6FFC03FF1FF2020506C616E6E65724257
:10334000756666657242797465733A20002046722C
:103350006565204D656D6F72793A2000436F6D7021
:10336000696C65643A204E6F76202031203230320D
:10337000300A00204C617374205570646174656478
:103380003A20323032302D31302D3135207C204101
:103390007574686F723A202847336D316E3153333C
:1033A000727633722C20416E7963756269632034C2
:1033B0004D4158290A00344D415820322E302E37C5
:1033C000323031424554410A004D61726C696E00E1
:1033D00020536F6674776172652052657365740A55
:1033E00000205761746368646F6720526573657469
:1033F0000A002042726F776E206F757420526573D9
:1034000065740A002045787465726E616C2052659F
:103410007365740A00506F77657255700A00737493
:103420006172740A006175746F25632E67004732FC
:10343000385859004D31303031006572726F72204A
:1034400077726974696E6720746F2066696C650AAB
:1034500000446F6E6520736176696E672066696CE3
:10346000652E0A004D323900456E6473746F7073B7
:103470000025532025632025632025632025630034
:10348000205A3A0020593A0020583A00656E647379
:10349000746F7073206869743A20005072696E749A
:1034A0002041626F72746564004D323520500A4DC0
:1034B00032340050617573696E672E2E2E0057618D
:1034C000726E696E673A20436C65616E2043697263
:1034D000636C652072657175697265732058590A4D
:1034E000005761726E696E673A2052616469757344
:1034F000204F7574206F662052616E67650A003F29
:103500000043616E63656C00496E6974004D34322E
:103510003800496E697469616C697A652045455067
:10352000524F4D0046696C616D656E740054656D57
:1035300070657261747572650053746570732F6D78
:103540006D004A756E6374696F6E20446576004144
:103550006363656C65726174696F6E0056656C6F4C
:10356000636974790053657420486F6D65204F66F8
:10357000667365747300436F6E6669677572617414
:10358000696F6E003F004E65787420506F696E74ED
:1035900000446F6E65004E65787400486F6D696E0B
:1035A000672058595A0049646C6520506572696FEC
:1035B00064004163746976652053706565640041F9
:1035C00075746F204D6F64650049646C652053709D
:1035D00065656400426564004E6F7A7A6C650046EA
:1035E000616E20537065656400436F6E6669677530
:1035F000726174696F6E0045787472756465727378
:1036000000310068747470733A2F2F6769742E69E3
:103610006F2F666A587A7200416E796375626963CA
:1036200020344D415800323032302D31302D31357B
:1036300000344D415820322E302E37323031424541
:103640005441004D61726C696E00546865726D6919
:1036500073746F727300426F61726420496E666F9B
:10366000005072696E74657220496E666F004D611C
:10367000696E003F004261636B0053746F70004ECF
:103680006F204D65646961005072696E74206672C6
:103690006F6D204D65646961004368616E676520E8
:1036A00046696C616D656E7400436F6E666967751F
:1036B000726174696F6E0054656D706572617475C6
:1036C0007265004D6F74696F6E00526573756D653C
:1036D000205072696E740041626F75742050726977
:1036E0006E7465720054756E650053746F7020506F
:1036F00072696E74005061757365205072696E74E2
:1037000000496E666F2053637265656E003F00531B
:1037100074617274205072696E740043616E6365E7
:103720006C005072696E740043616E6E6F74206538
:103730006E746572207375626469723A2000022E9D
:103740002E004D61696E001FE03FF03FF03FF01F1B
:10375000E01FE03FF03FF03FF00FC0078003001F85
:10376000E0201020102010102010202010201030F9
:10377000300840048003003FFFF83E00F839F0387D
:1037800031E01831E01821E1E820F3E8207FE8205B
:1037900077E828EE282FDC082FFC082F9E082F0F33
:1037A00008300F18300F18381F383E00F83FFFF868
:1037B0003FFFF83E00F8383F38307E18307C18283C
:1037C0007C082C38082F39C82FFFE82FC7E82FFFB7
:1037D000E82739E8203868207C28307C1830FC182D
:1037E00039F8383E00F83FFFF83FFFF83E00F83860
:1037F0000F38341FD8361F982F1F082F9E082FFC14
:10380000082FDC0827EFC82077E8207FE820F3E8BE
:1038100021F1E833F0D837F05839E0383E00F83F6E
:10382000FFF83FFFF83E80F83980383781D837C33A
:10383000D827C7E823C7F821FF88206C08206C0828
:10384000206C0823FF083FC7882FC7C83787D837A1
:1038500003D83803383E02F83FFFF81FFFF81FFF78
:10386000F8041040020820020820041040082080BC
:103870001041001041000820800410400000001F8B
:10388000FFF81FFFF82100140706003372D1C0892A
:10389000003F0B152109002D3A15220900214A1578
:1038A000240900213A1527A600000000000000FFAF
:1038B000FFFFFFFFC00000000000000B1870E1C315
:1038C000801B0CF0E0E7003B27F07076003B33F103
:1038D0003030007B3333B818007BB033B80C007B3A
:1038E000B0373C6E000330377CE7000330360DC341
:1038F00080000000000000FFFFFFFFFFC00000008D
:1039000000000007000008400009649D2F0E000F12
:1039100054A12950000954A12950000957BDEF5E58
:103920000000008000000000078000000000000090
:1039300000000000000000000024F4D43050C38ECA
:1039400020C2A24017828B7011127A910D816CD91E
:103950000AA861E108C7586607615143061E4B5D1E
:1039600005C145A7041A411104093D980371393175
:10397000034036DB0265339102D4305402802E1DA1
:1039800002632CEE01752AC501B028A00110278121
:10399000018F2564012B244B01E0223401AC211F4F
:1039A000018D200D01801FFC00841EED00971DDF9E
:1039B00000B81CD200E61BC600201BBC00641AB273
:1039C00000B219A8000A19A0006A189900D117912D
:1039D0000040178B00B516840031167E00B31579B0
:1039E000003A157300C7146F0058146A00EE13668E
:1039F000008813630025135E00C7125B006C12572A
:103A00000015125400C111510070114F0021114BCB
:103A100000D61049008D10470046104400021042A5
:103A200000C00F4000800F3E00420F3C00060F3BDD
:103A300000CB0E3800930E37005C0E3500270E3495
:103A400000F30D3200C10D3100900D3000600D2EDD
:103A500000320D2D00050D2C00D90C2B00AE0C29C9
:103A600000850C29005C0C2700350C27000E0C2665
:103A700000E80B2400C40B2400A00B23007D0B23C3
:103A8000005A0B2100390B2100180B2000F80A1FE7
:103A900000D90A1E00BB0A1E009D0A1D00800A1DD7
:103AA00000630A1C00470A1B002C0A1B00110A1A9B
:103AB00000F7091A00DD091900C4091900AB09193A
:103AC00000920917007B091800630917004C0916BA
:103AD0000036091600200916000A091500F5081518
:103AE00000E0081400CC081400B8081400A408145E
:103AF00000900813007D0812006B0813005808128C
:103B000000460812003408110023081100120811A1
:103B10000001081100F0071000E0071000D00710A6
:103B200000C0071000B0070F00A107100091070E9A
:103B30000083070F0074070F0065070E0057070E7C
:103B40000049070E003B070D002E070E0020070D51
:103B50000013070D0006070D00F9060C00ED060D19
:103B600000E0060C00D4060C00C8060C00BC060CD5
:103B700000B0060C00A4060B0099060C008D060B85
:103B80000082060B0077060B006C060B0061060A2C
:103B90000057060B004C060A0042060A0038060AC7
:103BA000002E060A0024060A001A060A001006095A
:103BB0000007060A00FD050900F4050900EB0509E8
:103BC00000E2050900D9050900D0050900C705096B
:103BD00000BE050900B5050800AD050800A50509EA
:103BE000009C050800940508008C05080084050861
:103BF000007C050800740508006C050700650508D1
:103C0000005D050700560508004E0507004705073B
:103C1000004005080038050700310507002A0507A0
:103C200000230507001C050600160507000F050701
:103C3000000805060002050700FB040600F504075E
:103C400000EE040600E8040600E2040700DB0406B8
:103C500000D5040600CF040600C9040600C304060C
:103C600000BD040600B7040600B1040500AC04065C
:103C700000A6040600A00405009B040600950405A8
:103C800000900406008A04050085040500800406EF
:103C9000007A04050075040500700405006B040536
:103CA0000066040500610405005C04050057040576
:103CB00000520405004D04050048040500430405B6
:103CC000003E0404003A04050035040500300404F5
:103CD000002C04050027040400230405001E04042E
:103CE000001A04040016040500110404000D040465
:103CF00000090405000404040000040400FC03049B
:103D000000F8030400F4030400F0030400EC0304CF
:103D100000E8030400E4030400E0030400DC0304FF
:103D200000D8030400D4030400D0030400CC03042F
:103D300000C8030300C503030024F404D9201BC4F6
:103D40000C5C0E9804C4095F0265077101F405F963
:103D500000FB04B30048048700C103690058035501
:103D60000003034500BE023A008402310053022AD8
:103D7000002902250004022000E4011C00C80119EA
:103D800000AF0117009801140084011300710110A5
:103D9000006101100051010E0043010D0036010BBE
:103DA000002B010B0020010B00150109000C01097B
:103DB0000003010800FB000800F3000800EB000707
:103DC00000E4000600DE000600D8000600D200066F
:103DD00000CC000500C7000500C2000500BD0004BE
:103DE00000B9000400B5000400B1000400AD0004F7
:103DF00000A9000400A5000300A20003009F000426
:103E0000009B00030098000300950002009300034C
:103E100000900003008D0002008B00030088000268
:103E2000008600020084000300810002007F00027F
:103E3000007D0002007B0002007900020077000193
:103E4000007600020074000200720001007100029E
:103E5000006F0002006D0001006C0002006A0001AA
:103E600000690002006700010066000100650001B2
:103E700000640002006200010061000100600001B6
:103E8000005F0002005D0001005C0001005B0001BA
:103E9000005A0001005900010058000100570001BC
:103EA00000560001005500010054000100530000BD
:103EB00000530001005200010051000100500001B8
:103EC000004F0001004E0000004E0001004D0001B7
:103ED000004C0001004B0000004B0001004A0001B3
:103EE00000490001004800000048000100470001AF
:103EF00000460000004600010045000000450001AA
:103F000000440001004300000043000100420000A3
:103F1000004200010041000000410001004000019A
:103F2000003F0000003F0001003E0000003E000195
:103F3000003D0000003D0001003C0000003C00008E
:103F4000003C0001003B0000003B0001003A000083
:103F5000003A00010039000000390001003800007B
:103F60000038000000380001003700000037000171
:103F70000036000000360000003600010035000069
:103F8000003500000035000100340000003400005E
:103F90000034000100330000003300000033000152
:103FA0000032000000320000003200010031000049
:103FB000003100000031000100300000003000003E
:103FC00000300001002F0000002F0000002F000033
:103FD000002F0001002E0000002E0000002E000126
:103FE000002D0000002D0000002D0000002D00011C
:103FF000002C0000002C0000002C0000002C000110
:10400000002B0000002B0000002B0000002B000103
:10401000002A0000002A0000002A0000002A0001F7
:1040200000290000002900000029000000290000EC
:1040300000290001002800000028000000280000DE
:1040400000280000002800010027000000270000D1
:1040500000270000002700000027000100260000C4
:1040600000260000002600000026000000260001B7
:1040700000250000002500000025000000250000AC
:10408000002500000025000100240000002400009D
:104090000024000000240000002400010023000090
:1040A0000023000000230000002300000023000084
:1040B0000023000000230001002200000022000075
:1040C0000022000000220000002200000022000167
:1040D000002100000021000000210000002100005C
:1040E000002100000021000000210001002000004C
:1040F0000020000000200000002000000020000040
:10410000002000000020000000200001001F00002F
:10411000001F0000001F0000001F0000001F000023
:10412000001F0000001F0001001E0000001E000014
:10413000001E0000001E0000003930000033250082
:104140000087190000B00F0000DB080000BD04006C
:1041500000740200003F01000020436F756E742060
:10416000583A002053004D3130362050000042654F
:104170006400453100626564002C207379737465B6
:104180006D2073746F70706564212048656174657B
:10419000725F49443A200048656174696E67204641
:1041A00061696C65640048656174696E6720666169
:1041B000696C656400202D20496E76616C6964200D
:1041C0006578747275646572206E756D62657220B3
:1041D000210A00544845524D414C2052554E4157FA
:1041E000415900546865726D616C2052756E61773B
:1041F0006179004572723A204D415854454D500046
:104200004D415854454D5020747269676765726519
:1042100064004572723A204D494E54454D50004D50
:10422000494E54454D5020747269676765726564E4
:10423000000A0A0020205A5F4D494E3A00202059BA
:104240005F4D494E3A002020585F4D494E3A0022BA
:104250000A00556E6B6E6F776E20636F6D6D616EC9
:10426000643A202200DB0FC93F45BCDA3F8FB3021E
:1042700040FCF0274056946140FE4B9B4084A5D8FB
:1042800040E0231841346A5641E859974164DBD530
:10429000416E271742B4B75542CE1A9742C8AED5E1
:1042A00042B5885A43D40684BFA65FA7BF7443E0D3
:1042B000BF10B11AC01C2C58C0E8F697C0B849D638
:1042C000C04E4E17C124D355C1802497C1A0B5D587
:1042D000C1121A17C244AE55C2781797C26CACD53A
:1042E000C267885AC320746F6F206C6F6E67206539
:1042F0007874727573696F6E2070726576656E740E
:1043000065640A0020636F6C64206578747275734D
:10431000696F6E2070726576656E7465640A002040
:104320002F002042403A0020403A0020573A000037
:1043300009121B242D363F48415A536C657E77196C
:10434000100B023D342F265158434A757C676E325C
:104350003B2029161F040D7A7368615E574C452B6C
:104360002239300F061D14636A7178474E555C641C
:104370006D767F4049525B2C253E3708011A137D2C
:10438000746F6659504B42353C272E1118030A565C
:104390005F444D727B60691E170C053A3328214F2C
:1043A000465D546B627970070E151C232A31384123
:1043B00048535A656C777E09001B122D243F3658EE
:1043C000514A437C756E671019020B343D262F73DA
:1043D0007A6168575E454C3B3229201F160D046AEE
:1043E0006378714E475C55222B3039060F141D251A
:1043F0002C373E0108131A6D647F7649405B523CAE
:10440000352E2718110A03747D666F5059424B17D9
:104410001E050C333A21285F564D447B7269600EAD
:10442000071C152A233831464F545D626B70797C26
:104430003C3E5E2B3D3F2F5B5D3B2C2A225C0044C3
:104440006F6E652E0A0050756C73696E67202020B0
:1044500000556E746F756368656420005A5F505232
:104460004F42455F534552564F5F4E52206E6F7418
:10447000207365742075702E0A0057617463686933
:104480006E672070696E730A0064697300656E0060
:1044900061626C65640A00656E6473746F70206D90
:1044A0006F6E69746F722000204D393220580020E1
:1044B000580020204D61783A2000200020204D69CE
:1044C0006E3A2000536F667420656E6473746F706B
:1044D000733A2000206F7574206F662072616E67DA
:1044E000650A00536572766F20003A2000205365FC
:1044F00072766F200025290A00252000203B202805
:104500000020440020410020490020204D37313058
:104510002053003B20436F6E74726F6C6C65722089
:1045200046616E0A0020496E76616C696420657888
:1045300074727564657220005A5F53544F505F5017
:10454000494E005A5F535445505F50494E005A5FE0
:104550004D494E5F50494E005A5F454E41424C45D1
:104560005F50494E005A5F4449525F50494E0059CE
:104570005F53544F505F50494E00595F535445505C
:104580005F50494E00595F4D494E5F50494E0059AA
:104590005F454E41424C455F50494E00595F44498A
:1045A000525F50494E00585F53544F505F50494E30
:1045B00000585F535445505F50494E00585F4D4975
:1045C0004E5F50494E00585F454E41424C455F504A
:1045D000494E00585F4449525F50494E0053535F63
:1045E00050494E00534552564F335F50494E005389
:1045F0004552564F325F50494E00534552564F3147
:104600005F50494E00534552564F305F50494E005F
:10461000534453530053445F4445544543545F50FF
:10462000494E0053434B5F50494E0052414D505349
:104630005F44395F50494E0052414D50535F4438FA
:104640005F50494E0052414D50535F4431305F50EE
:10465000494E004D4F53495F50494E004D49534F0D
:104660005F50494E004D4158363637355F53535FE2
:1046700050494E004C45445F50494E004C43445F06
:1046800050494E535F5253004C43445F50494E5380
:104690005F454E41424C45004C43445F50494E53A8
:1046A0005F4437004C43445F50494E535F443600EB
:1046B0004C43445F50494E535F4435004C43445F84
:1046C00050494E535F4434004845415445525F427F
:1046D00045445F50494E004845415445525F305F64
:1046E00050494E0046494C5F52554E4F55545F500D
:1046F000494E0046414E325F50494E0046414E31D0
:104700005F50494E0046414E5F50494E0045315F73
:10471000535445505F50494E0045315F454E41422C
:104720004C455F50494E0045315F4449525F504906
:104730004E0045315F43535F50494E0045305F5353
:104740005445505F50494E0045305F454E41424C04
:10475000455F50494E0045305F4449525F50494ED5
:104760000045305F4155544F5F46414E5F50494EC2
:1047700000455F4D5558325F50494E00455F4D55DD
:1047800058315F50494E00455F4D5558305F504994
:104790004E00444F474C43445F53434B00444F4704
:1047A0004C43445F4D4F534900434F4E54524F4C7E
:1047B0004C45525F46414E5F50494E0042544E5F59
:1047C000454E430042544E5F454E320042544E5FC8
:1047D000454E31004245455045525F50494E0041DB
:1047E00056525F53535F50494E004156525F5343F8
:1047F0004B5F50494E004156525F4D4F53495F50F9
:10480000494E004156525F4D49534F5F50494E004B
:1048100054454D505F4245445F50494E0054454D0C
:10482000505F315F50494E0054454D505F305F50EE
:10483000494E005458443000525844300050574DAF
:104840003A20202534640050574D3A202025346406
:104850000050574D3A20202534640050574D3A20DF
:10486000202534640050574D3A20202534640050F0
:10487000574D3A20202534640050574D3A202025CA
:1048800034640050574D3A20202534640050574D71
:104890003A20202534640050574D3A2020253464B6
:1048A0000050574D3A20202534640050574D3A208F
:1048B000202534640050574D3A20202534640050A0
:1048C000574D3A20202534640050574D3A2020257A
:1048D00034640050574D3A2020253464003A2000BB
:1048E00020202020434F4D002020206E6F6E2D731E
:1048F00074616E646172642050574D206D6F646501
:1049000000202020636F6D7061726520696E746590
:10491000727275707420656E61626C65640020202F
:10492000206F766572666C6F7720696E746572723F
:1049300075707420656E61626C6564003A200020B9
:1049400020202054494D534B00423A200020202083
:10495000205443435200413A200020202020544359
:104960004352002020202043533A200020202020C2
:1049700057474D3A200050574D3A202025346400C7
:1049800050574D3A2020253464004700480000006D
:1049900088008A008C00B300B400000098009A00E0
:1049A0009C00A800AA00AC0028012A012C012020AC
:1049B000202054494D455200440045006E008000BF
:1049C00081006F00B000B100700090009100710094
:1049D000A000A10072002001210173002069732052
:1049E000616C736F207469656420746F20746869EA
:1049F000732070696E0054494D45523143000A20BE
:104A00002E0020200000000A0B02090C0D0E0807E2
:104A1000030401000000000000000000000000008E
:104A20000000000000000000000000000000000086
:104A30000012111000000000000000000000000043
:104A40000000000000000000000000000000000066
:104A50000000000000010210202008081020401073
:104A60002040800201020108040201010204081032
:104A70002040808040201008040201800402018050
:104A80004020100804020108040201010204081079
:104A90002040800102040810204080100804088093
:104AA00010204004408010204004800505050507C3
:104AB0000508080808020202020A0A080804040499
:104AC00004010101010101010103030303030303C5
:104AD00003040707070C0C0C0C0C0C0C0C02020254
:104AE0000206060606060606060B0B0B0B0B0B0B47
:104AF0000B07070A0A0A0A0A0A050505040404083E
:104B0000082020506F72743A2000202020002020BE
:104B100020416E616C6F6720696E203D2025356CE9
:104B200064003C756E757365642F756E6B6E6F7780
:104B30006E3E002028412532642920200025336460
:104B4000200050494E3A20004F7574707574203D16
:104B50002000496E70757420203D2000416E616C0C
:104B60006F6720696E203D2025356C640070726F80
:104B7000746563746564200020284125326429200F
:104B80002000253364200050494E3A200038480068
:104B90000133480101284843001D4845001048449E
:104BA0000003483201F6473301EA473401DF473555
:104BB00001D4472501CC472101C4471F01BC47232D
:104BC00001A94707019D47330192473401874728D0
:104BD000017C472A0171472C0161472C0156471C73
:104BE00001484718013C471A0132472C0127472248
:104BF0000119471E010D47240105470901FC46071D
:104C000001F3462C01E4460201D7460A01C84608D2
:104C100001BC461701B0461901A4461B0198461D68
:104C200001884611017C46100174460D016546421B
:104C3000015C4632015346330145460A01384608B5
:104C4000012B460901234634011546310110463532
:104C50000105460B01FA450601EF450501E445044F
:104C600001DD453501D3453701C6452601BC450365
:104C700001B1453601A64503019C453D018F4538EC
:104C80000185450E017A453C016F450E01654530B1
:104C90000158453E014E45120143452E013845124B
:104CA000014361703A0047322F473320626164202C
:104CB000706172616D65746572730A00220A006525
:104CC0006E7175657565696E672022006F6B0052A5
:104CD0006573656E643A2000000021104220633045
:104CE0008440A550C660E770088129914AA16BB144
:104CF0008CC1ADD1CEE1EFF13112100273325222EC
:104D0000B5529442F772D662399318837BB35AA393
:104D1000BDD39CC3FFF3DEE36224433420040114BB
:104D2000E664C774A44485546AA54BB528850995E3
:104D3000EEE5CFF5ACC58DD553367226111630068B
:104D4000D776F6669556B4465BB77AA71997388733
:104D5000DFF7FEE79DD7BCC7C448E5588668A7784B
:104D60004008611802282338CCC9EDD98EE9AFF983
:104D7000488969990AA92BB9F55AD44AB77A966A2B
:104D8000711A500A333A122AFDDBDCCBBFFB9EEBD3
:104D9000799B588B3BBB1AABA66C877CE44CC55CFB
:104DA000222C033C600C411CAEED8FFDECCDCDDD23
:104DB0002AAD0BBD688D499D977EB66ED55EF44ECB
:104DC000133E322E511E700E9FFFBEEFDDDFFCCF73
:104DD0001BBF3AAF599F788F8891A981CAB1EBA1C7
:104DE0000CD12DC14EF16FE18010A100C230E32043
:104DF0000450254046706760B9839893FBA3DAB3EB
:104E00003DC31CD37FE35EF3B1029012F322D23292
:104E10003542145277625672EAB5CBA5A8958985BA
:104E20006EF54FE52CD50DC5E234C324A0148104E2
:104E30006674476424540544DBA7FAB79987B8978A
:104E40005FE77EF71DC73CD7D326F2369106B01632
:104E500057667676154634564CD96DC90EF92FE94A
:104E6000C899E9898AB9ABA9445865480678276882
:104E7000C018E1088238A3287DCB5CDB3FEB1EFB2A
:104E8000F98BD89BBBAB9ABB754A545A376A167AD2
:104E9000F10AD01AB32A923A2EFD0FED6CDD4DCDFA
:104EA000AABD8BADE89DC98D267C076C645C454C22
:104EB000A23C832CE01CC10C1FEF3EFF5DCF7CDFCA
:104EC0009BAFBABFD98FF89F176E367E554E745E72
:104ED000932EB23ED10EF01E20453A00205A3A00E1
:104EE00020593A00583A005654726176204D696E46
:104EF00000566D696E00566D6178204500566D61F3
:104F000078205A00566D6178205900566D617820DE
:104F10005800416D6178204500416D6178205A004C
:104F2000416D6178205900416D6178205800412D14
:104F300054726176656C00412D52657472616374C0
:104F400000416363656C00452073746570732F6D59
:104F50006D005A2053746570732F6D6D0059205386
:104F6000746570732F6D6D00582053746570732FC6
:104F70006D6D00416476616E636564205365747481
:104F8000696E6773004D3234004D32332025730053
:104F90002E0A006F70656E206661696C65642C2056
:104FA00046696C653A200046696C652073656C65DE
:104FB000637465640A002053697A653A2000466983
:104FC0006C65206F70656E65643A2000454E442024
:104FD000535542524F5554494E450A002220706F96
:104FE00073002220706172656E743A22005355423C
:104FF000524F5554494E452043414C4C20746172E8
:105000006765743A220053756263616C6C204F7659
:105010006572666C6F7700457863656564656420CA
:105020006D617820535542524F5554494E45206486
:10503000657074683A310A0057726974696E672046
:10504000746F2066696C653A20006672657368004B
:10505000646F696E67002066696C653A20004E6F68
:10506000772000025045544700504C410000002179
:1050700000240027002A002D003000330001010029
:1050800000040107010A0100002200250028002B6E
:10509000002E003100340002010000050108010B60
:1050A00001000020002300260029002C002F0032E0
:1050B00000000100000301060109010505050507BF
:1050C0000508080808020202020A0A080804040483
:1050D00004010101010101010103030303030303AF
:1050E00003040707070C0C0C0C0C0C0C0C0202023E
:1050F0000206060606060606060B0B0B0B0B0B0B31
:105100000B010210202008081020401020408002CF
:1051100001020108040201010204081020408080FD
:105120004020100804020180040201804020100881
:105130000402010804020101020408102040800159
:105140000204081020408000000A0B02090C0D0E1A
:105150000807030401000000000000000000000038
:10516000000000000000000000000000000000003F
:1051700000000012111000000000000000000000FC
:1051800000000000000000000000000000004D6F63
:1051900076652025736D6D004D6F766520302E315C
:1051A0006D6D004D6F766520316D6D004D6F7665CC
:1051B0002031306D6D004D6F766520417869730048
:1051C0004578747275646572004D6F7665205A007B
:1051D0004D6F76652059004D6F76652058006950F7
:1051E00064504368616E67652046696C616D656EE9
:1051F0007400556E6C6F61642046696C616D656EFC
:1052000074004C6F61642046696C616D656E74005A
:105210005072656865617420437573746F6D0050DA
:105220007265686561742024004261636B004265A9
:105230006400456E636C6F7375726500454550522E
:105240004F4D206461746173697A65206572726F75
:10525000722E0A00290A002062797465733B20636C
:10526000726320002073746F7265642073657474B8
:10527000696E67732072657472696576656420284B
:1052800000202863616C63756C6174656429210A70
:105290000020213D2000454550524F4D20435243B0
:1052A000206D69736D61746368202D202873746F9D
:1052B0007265642920002053697A653A2000496E9E
:1052C0006465783A20004669656C64206261636BAE
:1052D0006C6173685F64697374616E63655F6D6D43
:1052E000206D69736D617463682E0A004669656C90
:1052F000642066635F73657474696E6773206D699B
:10530000736D617463682E0A004669656C64207071
:105310006C616E6E65725F736B65775F66616374F7
:105320006F72206D69736D617463682E0A0046693F
:10533000656C6420636F6F7264696E6174655F731E
:10534000797374656D206D69736D617463682E0A7D
:105350000044494749504F5453204C6F6164656481
:105360000A0044494749504F5453204C6F616469C7
:105370006E670A004669656C64206D6F746F725FBA
:1053800063757272656E745F73657474696E67209D
:105390006D69736D617463682E0A004669656C649B
:1053A00020706C616E6E65725F657874727564658D
:1053B000725F616476616E63655F4B206D69736DCA
:1053C000617463682E0A004669656C6420746D63BD
:1053D0005F737465616C74685F656E61626C65644F
:1053E000206D69736D617463682E0A004669656C8F
:1053F0006420746D635F736774206D69736D61748D
:1054000063682E0A004669656C6420746D635F688A
:1054100079627269645F7468726573686F6C642026
:105420006D69736D617463682E0A004669656C640A
:1054300020746D635F737465707065725F637572FD
:1054400072656E74206D69736D617463682E0A00F5
:105450004669656C64207061727365725F766F6C0B
:10546000756D65747269635F656E61626C656420F9
:105470006D69736D617463682E0A004669656C64BA
:10548000206677726574726163745F7365747469A2
:105490006E6773206D69736D617463682E0A0046D0
:1054A00069656C64207265636F766572795F656E9D
:1054B00061626C6564206D69736D617463682E0A46
:1054C000004669656C6420636F6E74726F6C6C6506
:1054D0007246616E5F73657474696E6773206D697F
:1054E000736D617463682E0A004669656C64206C94
:1054F00063645F636F6E7472617374206D69736D42
:10550000617463682E0A004669656C6420706F7769
:1055100065725F6D6F6E69746F725F666C616773E1
:10552000206D69736D617463682E0A004669656C4D
:1055300064206C70715F6C656E206D69736D617451
:1055400063682E0A004669656C642075695F6D6149
:1055500074657269616C5F707265736574206D69E2
:10556000736D617463682E0A004669656C6420621D
:105570006C746F7563685F6C6173745F7772697464
:1055800074656E5F6D6F6465206D69736D617463C2
:10559000682E0A004669656C6420736572766F5FD9
:1055A000616E676C6573206D69736D617463682EDD
:1055B0000A004669656C6420706C616E6E65725F8E
:1055C0006C6576656C696E675F616374697665208A
:1055D0006D69736D617463682E0A004669656C6459
:1055E0002070726F62655F6F6666736574206D69A7
:1055F000736D617463682E0A004669656C6420727D
:10560000756E6F75745F73656E736F725F656E61D3
:10561000626C6564206D69736D617463682E0A0045
:105620004669656C6420686F6D655F6F666673655B
:1056300074206D69736D617463682E0A0046696534
:105640006C6420657374657070657273206D697326
:105650006D617463682E0A00204D61726C696E3D45
:10566000563832290A00454550524F4D2076657212
:1056700073696F6E206D69736D617463682028456E
:105680004550524F4D3D00506C6561736520526529
:10569000736574005052494E5445522048414C5451
:1056A00045440025533A202553004B494C4C454472
:1056B0002E20005072696E7465722068616C74658A
:1056C000642E206B696C6C28292063616C6C6564A6
:1056D000210A006563686F3A004572726F723A0082
:1056E000486F74656E6420746F6F20636F6C640A1A
:1056F00000507265737320627574746F6E20746FDE
:1057000020726573756D650A00496E736572742049
:1057100066696C616D656E7420616E64207072657F
:10572000737320627574746F6E0A005072657373C0
:1057300020627574746F6E20746F206865617420C8
:105740006E6F7A7A6C650A0043616E6E6F74206FBB
:1057500070656E207375626469722000534420493D
:105760006E6974204661696C005344206361726401
:10577000206F6B0A006F70656E526F6F74206661E8
:10578000696C65640A00766F6C756D652E696E696B
:1057900074206661696C65640A004E6F2053442072
:1057A000636172640A005072696E7420506175738F
:1057B0006564005072696E742066726F6D204D656D
:1057C00064696100496E736572742066696C616D0D
:1057D000656E7420616E64207072657373206275EB
:1057E00074746F6E0A00416E796375626963203468
:1057F0004D41582052656164792E005072696E7473
:10580000696E672E2E2E00454550524F4D20496E31
:10581000697469616C697A65640A004861726463DD
:105820006F6465642044656661756C7420536574AB
:1058300074696E6773204C6F616465640A000000D0
:10584000964300009643000020410000C84100003C
:10585000A0420000A0420000C8433333B942DC0537
:105860000000DC05000064000000102700003B2061
:105870000020204D363033200020204D343132209E
:10588000530046696C616D656E742072756E6F753C
:10589000742073656E736F723A002055004C004699
:1058A000696C616D656E74206C6F61642F756E6CD0
:1058B0006F6164206C656E677468733A0020440001
:1058C00020490020204D33303120500050494420E1
:1058D00073657474696E67733A0020460020420055
:1058E00020480020204D3134352053004D6174652F
:1058F0007269616C20686561747570207061726195
:105900006D65746572733A0020204D323036205830
:1059100000486F6D65206F66667365743A00204AB3
:105920000020530020204D32303520420041647663
:10593000616E6365643A20423C6D696E5F736567B2
:105940006D656E745F74696D655F75733E20533C61
:105950006D696E5F66656564726174653E20543C76
:105960006D696E5F74726176656C5F6665656472A1
:105970006174653E204A3C6A756E635F6465763E7D
:105980000020540020520020204D3230342050009E
:10599000416363656C65726174696F6E2028756E12
:1059A0006974732F7332293A20503C7072696E7497
:1059B0005F616363656C3E20523C72657472616323
:1059C000745F616363656C3E20543C7472617665FC
:1059D0006C5F616363656C3E0020204D3230312086
:1059E00058004D6178696D756D20416363656C6524
:1059F000726174696F6E2028756E6974732F7332CB
:105A0000293A00204500205A0020590020204D321C
:105A100030332058004D6178696D756D206665657D
:105A20006472617465732028756E6974732F7329AD
:105A30003A0053746570732070657220756E6974D6
:105A40003A0020440020204D3230302053002044C2
:105A5000697361626C65640A0046696C616D656EAC
:105A6000742073657474696E67733A0020204D3139
:105A700034392043203B20556E69747320696E20B1
:105A800043656C736975730A0020286D6D290020C9
:105A900020473231202020203B20556E697473202E
:105AA000696E206D6D00B6022E0111241FBECFEF6E
:105AB000D1E2DEBFCDBF00E00CBF13E0A0E0B2E05A
:105AC000E0E6FDE902E00BBF02C007900D92AE33A5
:105AD000B107D9F726E1AEE3B3E001C01D92A931C9
