:100000000C94E22C0C94132D0C94132D0C94132DA2
:100010000C94132D0C94132D0C94132D0C94132D60
:100020000C94132D0C94132D0C94132D0C94132D50
:100030000C94132D0C94B8FC0C94132D0C94132DCC
:100040000C94132D0D943E2C0C94132D0C94132D05
:100050000C94132D0C94132D0C940BB50D940334A8
:100060000C94132D0C940A4C0C94004C0C94132DEE
:100070000C94132D0C94132D0C94132D0C94132D00
:100080000C9495440C94132D0C94132D0C94132D57
:100090000C94132D0C94132D0C94132D0C94132DE0
:1000A0000C94132D0C94132D0C9467440C94132D65
:1000B0000C94132D0C94132D0C94132D0C94132DC0
:1000C0000C94132D0C94132D0C94132D0C94132DB0
:1000D0000C94132D0C94132D0C94132D0C94132DA0
:1000E0000C94132DCCA2AFA2B2A2CFA2B5A2B8A2FB
:1000F000BBA2C7A2BEA2DAA2C1A2C4A2E4EE06EFCE
:1001000026EF4BEF70EF27F195EFB8EFDBEF00F044
:1001100025F04AF06FF094F027F1B9F0DEF003F12A
:1001200096F299F29DF2A0F2A3F2CDF2A7F2AAF212
:10013000AEF2B1F2B4F2B8F2BBF2BEF2CDF2C2F25C
:10014000C5F2C8F2E8015A01220264011202AE02AD
:100150007402C2017C019E029A0172018002BE02F9
:10016000AE02CA015A024C01BC019402C402F00161
:10017000A6022A0244019C029C01A8024E017001C1
:10018000660224022A026C019001C6017C02500121
:10019000CE027802CE02CE02CE02CE02CE02CE0235
:1001A000CE02CE02CE02CE02CE02CE02CE02CE02CF
:1001B000CE02CE02CE02CE02CE02CE02CE02CE02BF
:1001C000CE02CE02CE02CE022002CE02CE02CE025D
:1001D000CE02CE02CE02CE02CE02AA02CE02CE02C3
:1001E000CE02CE02CE02CE02CE02CE02CE02CE028F
:1001F0005402B202084AD73B3BCE016E84BCBFFD1D
:10020000C12F3D6C74319ABD56833DDA3D00C77FE6
:1002100011BED9E4BB4C3E916BAAAABE000000807F
:100220003F05A84CCDB2D44EB93836A9020C50B90E
:10023000918688083CA6AAAA2ABE000000803F003A
:100240000C9434FC0C941E950D940D040D9419041B
:100250000C94F78F0D941B040C94AD9E0C94179581
:100260000C94C7A20C947E950D9413040C941C95C9
:100270000C94FD9E0C94BEA20C9429640C94DBEFAC
:100280000C94AAF20C943A8B0D94050C0C9461908A
:100290000C94B19A0C94B8F20D943C090D94290C6D
:1002A0000D94B00F0C94FB920C94F19E0C946FF093
:1002B0000C947B8B0D940A090C94554C0C94B1F260
:1002C0000C9405970C94D7900D94FD080D943A0F5B
:1002D0000C947A740C949E9B0D94560C0C94696348
:1002E0000D94330C0D9426090C94C8F20C94C78F0E
:1002F0000C94F79E0C94CDF20D9418090C9499F27D
:100300000C948F740D94623E0C94BA9E0C940D95CF
:100310000C94A1900C94D07F0C94514C0C948D9E15
:100320000D94600C0C9404930C9472740C945F63A1
:100330000D9417040D9420090D94150C0C943D5B3D
:100340000C94088B0C94C38D0C946C9B0C94496397
:100350000C94AEF20C94948B0C94999E0C94F28BAA
:100360000C9452630C9494F00C94688B0C944BEFA7
:100370000C948B740C947C4C0D94DD0B0C94068FB8
:100380000C94D3B40D9412090C94BBA20D946A0C76
:100390000C94D2950D9434090C94919E0C948FA2D8
:1003A0000C945A630C94DE4C0C9425F00C94EF9052
:1003B0000C9424930C94B4F20C9454630C94C08B5E
:1003C0000C94BD570C9406900C94CA660C94506320
:1003D0000D9407090C9442630C946BA00C9460FC80
:1003E0000D94F10B0C94B8A20C94E88F0C94A3F22A
:1003F0000C94B49E0C9403F10C94558B0C94BEF2A7
:100400000D941D040C94B5A20C94AA900C9406FCB7
:100410000C94FA8A0C94707F0C9412900C94EB9EBE
:100420000C94B9F00D9403090C94AFA20C946C9643
:100430000C94D89E0C9414A30C94EC5E0C94CCA257
:100440000D9477110D94F9080D944C0C0C9427F130
:100450000C94EC610D94740C0C94C5F20C94A99E50
:100460000C945E8F0C94C1A20C94F5900C9476744D
:100470000C94EB570C94A59E0C94D1900C94309353
:100480000C94D98B0C94BF900C94A19E0C94D457CF
:100490000C9443680C94CB900C94B8EF0C94DA95C0
:1004A0000C94DD900C949DF20D9494110C94899E03
:1004B0000C94EC920D9438090C941E930C9483A226
:1004C0000C9464630C94599B0D94F7020D94420CA8
:1004D0000D9415040C94779C0C949D9E0C94B79EDF
:1004E0000C94C5900C946D980D940E090C94959EE7
:1004F0000D947D110C94955B0D9441110C94DEF0DC
:100500000D942A090C94B9900C94524C0C9495EFCC
:100510000C94218B0C9454650D94400F0C9470EF47
:100520000C94F68B0C944AF00D94E20B0C94E99029
:100530000C94C4A20C94C9610D940D0C0D941C096B
:100540000C94A78B0C9400F00D94363D0D94FB0B8E
:100550000D941F0C0D9450110C9496F20D944109BA
:100560000C94B19E0D94E60F0D940F040C94C69E4E
:100570000C94CFA20D943D0F0D94CF050D942E0930
:100580000C9412950C94E4EE0D94E70B0C94DCFBA8
:100590000C94859B0C943F8F0C94A37F0D94E90FD2
:1005A0000C945F950C94A7F20C9430640C94DAA22E
:1005B0000C9426EF0C94C2F20C9406EF0C94A0F26B
:1005C0000C9452900C94B2A20C94E3900C94BBF255
:1005D0000D9411040C94208F0C942A934E414E4993
:1005E0004E495459494E46CDCCCC3D0AD7233C17F1
:1005F000B7D13877CC2B329595E6241FB14F0A003E
:100600000020410000C84200401C4620BCBE4CCA2D
:100610001B0E5AAEC59D7400407A10F35A00A072AA
:100620004E18090010A5D4E80000E876481700002D
:10063000E40B54020000CA9A3B000000E1F50500FB
:100640000080969800000040420F000000A0860144
:10065000000000102700000000E803000000006414
:1006600000000000000A000000000001000000007F
:10067000002C76D888DC674F0823DFC1DFAE59E154
:10068000B1B796E5E3E453C63AE651997696E8E6C3
:10069000C28426EB898C9B62ED407C6FFCEFBC9C96
:1006A0009F40F2BAA56FA5F490055A2AF75C936BA8
:1006B0006CF9676DC11BFCE0E40D47FEF520E6B563
:1006C00000D0ED902E0300943577050080841E083D
:1006D0000000204E0A000000C80C333333330F985B
:1006E0006E12831141EF8D2114893BE65516CFFE22
:1006F000E6DB18D1844B381BF77C1D901DA4BBE4AE
:1007000024203284725E228100C9F124ECA1E53DEF
:1007100027434F4D4D554E49434154494F4E004498
:10072000525952554E004552524F525300494E466F
:100730004F004543484F0020746F6F206C6F6E6709
:1007400020657874727573696F6E20707265766556
:100750006E7465640A0020636F6C6420657874723F
:100760007573696F6E2070726576656E7465640A64
:1007700000536C6565702E2E2E00436C69636B20F0
:10078000746F20526573756D652E2E2E004E6F208E
:100790004D6F76652E00456E642066696C65206C31
:1007A0006973740A00426567696E2066696C65202A
:1007B0006C6973740A00286E6F2066696C65290085
:1007C00043757272656E742066696C653A200053D9
:1007D00044207072696E74696E6720627974652056
:1007E000004E6F74205344207072696E74696E6796
:1007F0000A002E0A0044656C6574696F6E2066619C
:10080000696C65642C2046696C653A200046696C09
:10081000652064656C657465643A0025697300251C
:10082000696D20256973002569682025696D20257B
:10083000697300256964202569682025696D202574
:100840006973002569792025696420256968202558
:10085000696D20256973005072696E742074696D2A
:10086000653A2000496E76616C69642050696E209B
:100870004D6F64650A00436F6F6C696E672E2E2E94
:100880000048656174696E672E2E2E004520255341
:10089000006F6B006F66660032072D0726071F0783
:1008A000110744454255473A004D313132205368D3
:1008B0007574646F776E004D313133205300416E93
:1008C00079637562696320344D4158204F46462E46
:1008D000004348414D4245525F54454D50455241B9
:1008E0005455524500424142595354455050494E87
:1008F000470041524353004D4F54494F4E5F4D4FB7
:1009000044455300544845524D414C5F50524F545A
:10091000454354494F4E004C4F4E475F46494C4566
:100920004E414D45004155544F5245504F52545F32
:1009300053445F535441545553005344434152442C
:100940000050524F4D50545F535550504F52540029
:10095000454D455247454E43595F504152534552CC
:1009600000434153455F4C494748545F4252494711
:1009700048544E45535300544F47474C455F4C49EC
:100980004748545300534F4654574152455F504FC8
:10099000574552004255494C445F50455243454EDD
:1009A00054004C4556454C494E475F444154410024
:1009B0005A5F50524F42450052554E4F55540041D8
:1009C00055544F4C4556454C005052494E545F4A81
:1009D0004F420050524F4752455353004155544FD8
:1009E0005245504F52545F54454D5000564F4C5550
:1009F0004D455452494300454550524F4D004249E0
:100A00004E4152595F46494C455F5452414E534600
:100A100045520053455249414C5F584F4E5F584F25
:100A20004646004649524D574152455F4E414D455D
:100A30003A4D61726C696E20344D415820322E302F
:100A40002E3631303052656C2E20284E6F762020A5
:100A50003120323032302031313A35343A3439298C
:100A600020534F555243455F434F44455F55524CC9
:100A70003A68747470733A2F2F6769746875622EC0
:100A8000636F6D2F47656D696E6953657276657228
:100A90002F4D61726C696E2050524F544F434F4C32
:100AA0005F56455253494F4E3A312E30204D414307
:100AB00048494E455F545950453A416E79637562D5
:100AC000696320344D41582045585452554445528D
:100AD0005F434F554E543A3120555549443A36619B
:100AE0006131343764322D666664352D31316539B4
:100AF0002D386437312D333632623965313535362C
:100B000036370A002F2F20004D31343520533C69F1
:100B10006E6465783E206F7574206F662072616E1A
:100B200067652028302D31290A0020520041636377
:100B3000656C65726174696F6E3A2050003F4A209F
:100B40006F7574206F662072616E67652028302E85
:100B5000303120746F20302E33290A0046523A007B
:100B600020466C6F773A200050726F74656374652D
:100B7000642050696E0A0020643A0020693A00201F
:100B8000703A00496E76616C69642065787472759C
:100B90006465720A0064697300656E0043290A0087
:100BA00061626C656420286D696E2074656D7020CB
:100BB00000436F6C6420657874727564657320619E
:100BC000726520004F4646004F4E0046696C616DCD
:100BD000656E742072756E6F757420004F66667353
:100BE000657473204170706C696564004572723A77
:100BF00020546F6F206661722100546F6F20666110
:100C0000722066726F6D207265666572656E6365CF
:100C100020706F696E740A00454550524F4D204F49
:100C20004B0A004D383400446F6E65207072696E57
:100C300074696E672066696C650A004D3737004D30
:100C4000333100496E76616C696420657874727521
:100C50006465720A004572726F72207772697469F6
:100C60006E6720746F20454550524F4D210A003663
:100C70003726033C3D380E2E303E121A1C180A2C23
:100C8000430809072C07084400014D343130004D5A
:100C9000313132004D3130380053544F50504544BB
:100CA0002E20005072696E7465722073746F7070BC
:100CB00065642064756520746F206572726F72734D
:100CC0002E2046697820746865206572726F7220E4
:100CD000616E6420757365204D39393920746F2039
:100CE000726573746172742E202854656D7065721C
:100CF00061747572652069732072657365742E2046
:100D0000536574206974206166746572207265731E
:100D100074617274696E67290A004E6F20436865BA
:100D2000636B73756D2077697468206C696E6520DC
:100D30006E756D6265722C204C617374204C696E07
:100D4000653A20004E6F20436865636B73756D20B4
:100D500077697468206C696E65206E756D62657266
:100D60002C204C617374204C696E653A20006368D6
:100D700065636B73756D206D69736D617463682C49
:100D8000204C617374204C696E653A20004C696E8A
:100D900065204E756D626572206973206E6F7420D8
:100DA0004C617374204C696E65204E756D6265727E
:100DB0002B312C204C617374204C696E653A2000F5
:100DC0004D31313000534420726561642065727288
:100DD0006F720A002121204B494C4C2063617573CE
:100DE000656420627920746F6F206D756368206977
:100DF0006E6163746976652074696D65202D20636A
:100E0000757272656E7420636F6D6D616E643A20E9
:100E100000627573793A2070617573656420666F3E
:100E20007220696E7075740A00627573793A207069
:100E3000617573656420666F7220757365720A0050
:100E4000627573793A2070726F63657373696E6748
:100E50000A004D656469612052656D6F76656400B6
:100E60004D6564696120496E736572746564004DF7
:100E70003630300020573A0042656420436F6F6C73
:100E8000696E672E2E2E0042656420486561746984
:100E90006E672E2E2E0023646566696E65204445BC
:100EA0004641554C545F004B6420004B6920004B79
:100EB000702000504944204175746F74756E652030
:100EC00066696E6973686564212050757420746862
:100ED00065206C617374204B702C204B6920616E0F
:100EE00064204B6420636F6E7374616E747320664C
:100EF000726F6D2062656C6F7720696E746F20432E
:100F00006F6E66696775726174696F6E2E680A002C
:100F1000504944204175746F74756E65206661692F
:100F20006C6564212074696D656F75740A005049A1
:100F300044204175746F74756E65206661696C65D7
:100F400064212054656D70657261747572652074DA
:100F50006F6F20686967680A00204B643A200020A0
:100F60004B693A2000204B703A20000A20436C6104
:100F70007373696320504944200A002054753A2055
:100F800000204B753A2000206D61783A2000206DDA
:100F9000696E3A200020643A200020626961733A49
:100FA0002000504944204175746F74756E6520733C
:100FB000746172740A00504944204175746F7475ED
:100FC0006E65206661696C6564212054656D70658D
:100FD00072617475726520746F6F20686967680A42
:100FE00000504944204175746F74756E6500504916
:100FF00044204175746F74756E65206661696C6517
:101000006421204261642065787472756465722081
:101010006E756D6265720A004572723A207574666B
:101020003820666F6E74206E6F7420696E69746903
:10103000616C697A65642E004572723A2075746637
:101040003820666F6E74206E6F7420696E697469E3
:10105000616C697A65642E004572723A2075746617
:101060003820666F6E74206E6F7420696E697469C3
:10107000616C697A65642E002568753A253032689E
:10108000750025303268753A25303268750025685C
:1010900075642025303268753A2530326875000055
:1010A0000C0F00FE07022603BC017FFE08FE08FEAF
:1010B00005080806000040F0C888889878100508E0
:1010C00008060000C0F88888888888F805050506A5
:1010D00000012030F830200508080600002070F8D4
:1010E00020202020E00509090600FF2070A8A8B8EC
:1010F00088887020050606060001E08CEA8C8A0AC2
:101100000509090600FFF8A88888888888A8F805D6
:101110000A0A0600FE205050505088A8A888700384
:10112000030306000340A040FFFFFFFFFFFFFFFF98
:10113000FFFFFFFFFFFFFFFFFFFFFFFFFFFF0000BD
:10114000000605FF010707060200808080808000FE
:1011500080030303060105A0A0A005060606000003
:1011600050F85050F8500509090600FF2070A8A05B
:101170007028A87020050707060000C8C810204086
:10118000989805070706000040A0A040A8906801B5
:1011900003030602058080800309090601FF204041
:1011A000408080804040200309090601FF804040C4
:1011B00020202040408005070706000020A870205E
:1011C00070A8200505050600012020F82020020354
:1011D000030601FFC04080050101060003F802027A
:1011E00002060100C0C00507070600000810102015
:1011F000404080050707060000708898A8C88870DE
:1012000003070706010040C040404040E0050707D3
:10121000060000708808102040F805070706000047
:10122000F8081030088870050707060000103050D5
:1012300090F81010050707060000F880F0080888ED
:1012400070050707060000304080F08888700507A9
:1012500007060000F80810102020200507070600E8
:1012600000708888708888700507070600007088FD
:101270008878081060020505060100C0C000C0C0E3
:101280000206060601FFC0C000C040800305050637
:1012900001012040804020050303060002F800F809
:1012A0000305050601018040204080050707060070
:1012B00000708810202000200507070600007088B5
:1012C000B8A8B88070050707060000708888F888FD
:1012D0008888050707060000F04848704848F00570
:1012E0000707060000708880808088700507070661
:1012F0000000F04848484848F0050707060000F895
:101300008080F08080F8050707060000F88080F0F4
:1013100080808005070706000070888080988870AC
:10132000050707060000888888F88888880307076B
:10133000060100E04040404040E00507070600008D
:10134000381010101090600507070600008890A064
:10135000C0A09088050707060000808080808080FC
:10136000F805070706000088D8A888888888050738
:10137000070600008888C8A898888805070706001F
:101380000070888888888870050707060000F08844
:1013900088F080808005070706000070888888A88C
:1013A0009068050707060000F08888F0A09088057F
:1013B0000707060000708880700888700507070618
:1013C0000000F820202020202005070706000088C4
:1013D00088888888887005070706000088888888BC
:1013E00050502005070706000088888888A8A85064
:1013F00005070706000088885020508888050707E1
:1014000006000088885020202020050707060000DD
:10141000F80810204080F80309090601FFE08080E9
:101420008080808080E00507070600008040402023
:101430001010080309090601FFE0202020202020C9
:1014400020E0050303060005205088050101060081
:10145000FEF803030306010580402005050506008C
:101460000070087888780507070600008080F088FB
:101470008888F005050506000070808088700507E3
:1014800007060000080878888888780505050600A2
:10149000007088F08070050707060000304840E0C3
:1014A0004040400507070600FE708888887808706D
:1014B0000507070600008080F088888888030707F2
:1014C0000601004000C0404040E00409090601FE5A
:1014D0001000301010101090600507070600008003
:1014E000808890E09088030707060100C0404040D4
:1014F0004040E0050505060000D0A8A8A8A80505FD
:1015000005060000B0C8888888050505060000703B
:10151000888888700507070600FEF0888888F080B4
:10152000800507070600FE78888888780808050582
:1015300005060000B0C8808080050505060000781B
:10154000807008F00507070600002020F820202002
:1015500018050505060000888888986805050506B1
:10156000000088888850200505050600008888A8A6
:10157000A85005050506000088502050880507077B
:101580000600FE888888502040800505050600007A
:10159000F8102040F80309090601FF204040408070
:1015A000404040200109090602FF80808080808041
:1015B0008080800309090601FF80404040204040B0
:1015C000408005030306000248A890FF4C6F616449
:1015D000206D6D00556E6C6F6164206D6D00466905
:1015E0006C2E204469612E004520696E206D6DC20D
:1015F000B3004D3330332055312045256920532524
:101600006900504944204175746F74756E65202AD5
:10161000005049442D44202A005049442D49202A95
:10162000005049442D50202A002008204661637450
:10163000002008204D6178002008204D696E004F81
:101640006666004F6E004175746F74656D70004D75
:101650006F74696F6E0044697361626C65205374C6
:10166000657070657273004D3834004C6576656C3A
:1016700020436F726E65727300486F6D65205A006B
:101680004732385A00486F6D652059004732385943
:1016900000486F6D65205800473238580041757416
:1016A0006F20486F6D6500473238004D61696E00EC
:1016B00050726568656174202420456E6400507224
:1016C00065686561742024204265640054656D700E
:1016D0006572617475726500436F6F6C646F776ECD
:1016E000005072656865617420240046616E205365
:1016F0007065656400426564004E6F7A7A6C6500BF
:101700004D61696E00466C6F770046616E205370C4
:1017100065656400426564004E6F7A7A6C650053BB
:1017200070656564004D61696E00FFFDFCFAF8F6B6
:10173000F4F2F0EEECEAE9E7E5E3E1E0DEDCDAD949
:10174000D7D5D4D2D0CFCDCBCAC8C7C5C3C2C0BFEE
:10175000BDBCBAB9B7B6B4B3B2B0AFADACAAA9A864
:10176000A6A5A4A2A1A09E9D9C9A999897959493B2
:1017700092908F8E8D8B8A898887868483828180E0
:101780007F7E7D7B7A797877767574737271706FEE
:101790006E6D6C6B6A696867666564636261605FE1
:1017A0005E5D5C5B5A5958585756555453525150C8
:1017B000504F4E4D4C4B4A4A494847464645444394
:1017C000424241403F3E3E3D3C3B3B3A3938383750
:1017D000363535343332323130302F2E2E2D2C2BFE
:1017E0002B2A29292827272625252423232221219E
:1017F00020201F1E1E1D1C1C1B1B1A191918181730
:101800001616151514131312121111100F0F0E0EB8
:101810000D0D0C0C0B0A0A09090808070706060536
:101820000504040303020201000000005A43000003
:101830005A43000096430000A0C0000000000000D2
:10184000000053657474696E67732053746F72651A
:101850006400290A002062797465733B2063726317
:10186000200053657474696E67732053746F7265DA
:10187000642028004669656C64206261636B6C615A
:1018800073685F64697374616E63655F6D6D206D0D
:1018900069736D617463682E0A004669656C642023
:1018A00066635F73657474696E6773206D69736DC9
:1018B000617463682E0A004669656C6420706C610F
:1018C0006E6E65725F736B65775F666163746F726E
:1018D000206D69736D617463682E0A004669656CDA
:1018E0006420636F6F7264696E6174655F7379738E
:1018F00074656D206D69736D617463682E0A0046AE
:1019000069656C64206D6F746F725F637572726568
:101910006E745F73657474696E67206D69736D6151
:101920007463682E0A004669656C6420706C616E91
:101930006E65725F65787472756465725F616476F6
:10194000616E63655F4B206D69736D617463682EB2
:101950000A004669656C6420746D635F7374656129
:101960006C74685F656E61626C6564206D69736D2F
:10197000617463682E0A004669656C6420746D6347
:101980005F6879627269645F7468726573686F6CAE
:1019900064206D69736D617463682E0A0046696521
:1019A0006C6420746D635F737465707065725F63DF
:1019B000757272656E74206D69736D617463682EE3
:1019C0000A004669656C64207061727365725F76A7
:1019D0006F6C756D65747269635F656E61626C656D
:1019E00064206D69736D617463682E0A00466965D1
:1019F0006C64206677726574726163745F7365747A
:101A000074696E6773206D69736D617463682E0A03
:101A1000004669656C64207265636F766572795FF4
:101A2000656E61626C6564206D69736D6174636875
:101A30002E0A004669656C6420636F6E74726F6C69
:101A40006C657246616E5F73657474696E6773204E
:101A50006D69736D617463682E0A004669656C6414
:101A6000206C63645F636F6E7472617374206D6960
:101A7000736D617463682E0A004669656C6420703A
:101A80006F7765725F6D6F6E69746F725F666C61A0
:101A90006773206D69736D617463682E0A0046690F
:101AA000656C6420626564504944206D69736D61A2
:101AB0007463682E0A004669656C64206C70715FFF
:101AC0006C656E206D69736D617463682E0A0046E3
:101AD00069656C6420686F74656E64504944206D5C
:101AE00069736D617463682E0A004669656C6420D1
:101AF00075695F6D6174657269616C5F7072657341
:101B00006574206D69736D617463682E0A0046699F
:101B1000656C6420626C746F7563685F6C6173746C
:101B20005F7772697474656E5F6D6F6465206D694F
:101B3000736D617463682E0A004669656C64207376
:101B40006572766F5F616E676C6573206D69736D2A
:101B5000617463682E0A004669656C6420706C616C
:101B60006E6E65725F6C6576656C696E675F6163EA
:101B700074697665206D69736D617463682E0A00FF
:101B80004669656C642070726F62655F6F6666732C
:101B90006574206D69736D617463682E0A0046690F
:101BA000656C642072756E6F75745F73656E736FAC
:101BB000725F656E61626C6564206D69736D6174DE
:101BC00063682E0A004669656C6420686F6D655F06
:101BD0006F6666736574206D69736D617463682EDA
:101BE0000A004669656C642065737465707065727F
:101BF00073206D69736D617463682E0A0050726999
:101C00006E742041626F72746564004D32352050ED
:101C10000A4D32340050617573696E672E2E2E00A6
:101C20005761726E696E673A20436C65616E20433E
:101C30006972636C6520726571756972657320588D
:101C4000590A005761726E696E673A205261646981
:101C50007573204F7574206F662052616E67650A38
:101C600000486F6D696E67204661696C6564006F3E
:101C700070656E00545249474745524544003A202A
:101C80000066696C616D656E74007A5F6D696E00E7
:101C9000795F6D696E00785F6D696E005265706F77
:101CA0007274696E6720656E6473746F70207374EC
:101CB000617475730A00486F6D652025732573255F
:101CC00073204669727374000000A0C00000000019
:101CD000000000000000484200004842000020418F
:101CE0005761726E696E673A20486F6D696E672042
:101CF00042756D702044697669736F72203C2031A3
:101D00000A000202040000A0400000A04000000001
:101D10004000005F4300005A4300009643FFFFFF6E
:101D20000000000100000001000080005555550032
:101D30000000400033333300AAAA2A00499224004D
:101D400000002000C7711C0099991900D1451700A7
:101D5000555515003BB11300244912001111110013
:101D6000000010000F0F0F00E3380E0043790D0044
:101D7000CCCC0C00C3300C00E8A20B0064210B009B
:101D8000AAAA0A00703D0A009DD80900427B0900FA
:101D900092240900DCD3080088880800104208005B
:101DA00000000800F0C10700878707007550070092
:101DB000711C07003EEB0600A1BC060069900600FE
:101DC00066660600703E06006118060017F40500FE
:101DD00074D105005BB00500B29005006272050089
:101DE0005555050078390500B81E050005050500A4
:101DF0004EEC040087D40400A1BD040090A70400A9
:101E000049920400C17D0400EE690400C756040035
:101E1000444404005C320400082104004110040022
:101E2000000004003FF00300F8E0030026D20300A6
:101E3000C3C30300CCB503003AA803000A9B030008
:101E4000388E0300C08103009F750300D069030032
:101E5000505E03001D53030034480300913D03000E
:101E60003333030016290300381F030097150300BE
:101E7000300C0300030303000BFA020049F10200D7
:101E8000BAE802005CE002002DD802002DD002006A
:101E900059C80200B0C0020031B90200DAB1020034
:101EA000AAAA0200A0A30200BC9C0200FA950200AC
:101EB0005C8F0200DF88020082820200457C020003
:101EC0002776020027700200436A02007C64020049
:101ED000D05E02003F590200C85302003F00436138
:101EE0006E63656C00496E6974004D343238004988
:101EF0006E697469616C697A6520454550524F4D31
:101F00000046696C616D656E740054656D70657234
:101F100061747572650053746570732F6D6D004A3E
:101F2000756E6374696F6E20446576004163636506
:101F30006C65726174696F6E0056656C6F6369746D
:101F4000790053657420486F6D65204F6666736530
:101F5000747300436F6E66696775726174696F6E42
:101F6000003F004E65787420506F696E7400446FB6
:101F70006E65004E65787400486F6D696E67205815
:101F8000595A0049646C6520506572696F6400415C
:101F90006374697665205370656564004175746F7C
:101FA000204D6F64650049646C65205370656564FD
:101FB00000426564004E6F7A7A6C650046616E205F
:101FC000537065656400436F6E666967757261740E
:101FD000696F6E0050535500532D3330302D313220
:101FE0000050726F746F636F6C00312E300042616D
:101FF00075640032353030303000416E796375627F
:1020000069632052414D505320312E34004578747D
:1020100072756465727300310068747470733A2F5E
:102020002F6769742E696F2F666A587A7200416E45
:1020300079637562696320344D4158003230323023
:102040002D30382D323800344D415820322E302E6C
:102050003631303052656C2E004D61726C696E0005
:10206000546865726D6973746F727300426F617248
:102070006420496E666F005072696E746572204903
:102080006E666F004D61696E003F004261636B00D8
:1020900053746F70004E6F204D656469610050721B
:1020A000696E742066726F6D204D656469610043CE
:1020B00068616E67652046696C616D656E7400438A
:1020C0006F6E66696775726174696F6E0054656DD5
:1020D0007065726174757265004D6F74696F6E0022
:1020E000526573756D65205072696E740041626F40
:1020F0007574205072696E7465720054756E650057
:1021000053746F70205072696E74005061757365FE
:10211000205072696E7400496E666F205363726559
:10212000656E003F005374617274205072696E7462
:102130000043616E63656C005072696E74004361A8
:102140006E6E6F7420656E7465722073756264695B
:10215000723A2000022E2E004D61696E0001FFFFD1
:10216000FFFFFFFFFFFFFFFFFFFFFF0FFFFFFFFF6F
:10217000FFFFFFFFFFFFFFFFFF1E0000000000004A
:102180000000000007FFFF38000000000000000012
:10219000000003FFFF7000000000000000000000CE
:1021A00001FFFF600000000000000000000000FFD1
:1021B000FF6000000000000000000000007FFFC082
:1021C00000000000000000007800003FFFC00FC0CA
:1021D000FC00000000007818001FFFC03FE1FF0076
:1021E00000000000783C000FFFC07FF3FF8000007C
:1021F0000000783C0007FFC0FFFFFFC000000000A8
:10220000783C0003FFC1F87F87E000000000780001
:102210000001FFC1F03F03E0000000007800000073
:10222000FFC1E01E01E01F0003E0783C03F07FC126
:10223000E01E01E07FC00FF8783C07FC3FC1E01EC4
:1022400001E1FFE01FFC783C0FFE1FC1E01E01E32F
:10225000FFF03FFE783C1FFE0FC1E01E01E3F3F8E4
:102260003F3E783C3F3F07C1E01E01E7E0FC7C1F9A
:10227000783C3E1F07C1E01E01E7C07C7C0F783C24
:102280003C0F03C1E01E01E7807C780F783C3C0FD7
:1022900003C1E01E01E7803C7800783C3C0F03C19D
:1022A000E01E01E7803C7800783C3C0F03C1E01E53
:1022B00001E7803C7800783C3C0F03C1E01E01E759
:1022C000C03C7800783C3C0F03C1E01E01E3E03CD9
:1022D00078007C3C3C0F03C1E01E01E3FF3FF800A7
:1022E0007FBC3C0F03C1E01E01E1FF3FF8003FBF90
:1022F000FC0F03C1E01E01E0FF3FF8001FBFFC0F11
:1023000003C1E01E01E07F3FF8000FBFFC0F036038
:102310000000000000000000000000000760000056
:102320000000000000000000000006700000000037
:1023300000000000000000000E3800000000000057
:102340000000000000001C1E000000000000000053
:1023500000000000780FFFFFFFFFFFFFFFFFFFFF00
:10236000FFFFF001FFFFFFFFFFFFFFFFFFFFFFFF8A
:102370008001FFFFFFFFFFFFFFFFFFFFFFFFFF0FDA
:10238000FFFFFFFFFFFFFFFFFFFFFFFFFF1E00003C
:10239000000000000000000007FFFF380000000000
:1023A00000000000000003FFFF70000000000000BC
:1023B0000000000001FFFF600000000000000000BE
:1023C000000000FFFF6000000000000000000000AF
:1023D000007FFFC000000000000000007800003F08
:1023E000FFC00FC0FC00000000007818001FFFC0F5
:1023F0003FE1FF0000000000783C000FFFC07FF3CA
:10240000FF8000000000783C0007FFC0FFFFFFC016
:1024100000000000783C0003FFC1F87F87E0000067
:10242000000078000001FFC1F03F03E00000000061
:1024300078000000FFC1E01E01E01F0003E0783CCF
:1024400000007FC1E01E01E07FC00FF8783C000073
:102450003FC1E01E01E1FFE01FFC783C00001FC10E
:10246000E01E01E3FFF03FFE783C00000FC1E01EDC
:1024700001E3F3F83F3E783C000007C1E01E01E7AE
:10248000E0FC7C1F783C000007C1E01E01E7C07C37
:102490007C0F783C000003C1E01E01E7807C780FD0
:1024A000783C000003C1E01E01E7803C7800783CE6
:1024B000000003C1E01E01E7803C7800783C00008A
:1024C00003C1E01E01E7803C7800783C000003C1B6
:1024D000E01E01E7C03C7800783C000003C1E01E2C
:1024E00001E3E03C78007C3C000003C1E01E01E316
:1024F000FF3FF8007FBC000003C1E01E01E1FF3F89
:10250000F8003FBF000003C1E01E01E0FF3FF800FC
:102510001FBF000003C1E01E01E07F3FF8000FBFB6
:102520000000036000000000000000000000000048
:1025300007600000000000000000000000000670BE
:102540000000000000000000000000000E38000045
:10255000000000000000000000001C1E0000000041
:102560000000000000000000780FFFFFFFFFFFFFEA
:10257000FFFFFFFFFFFFF001FFFFFFFFFFFFFFFF78
:10258000FFFFFFFF8001FFFFFFFFFFFFFFFFFFFFD8
:10259000FFFFFF0FFFFFFFFFFFFFFFFFFFFFFFFF3B
:1025A000FF1E0000000000000000000007FFFF38D1
:1025B0000000000000000000000003FFFF700000AA
:1025C000000000000000000001FFFF6000000000AC
:1025D00000000000000000FFFF600000000000009D
:1025E00000000000007FFFC00000000000000000AD
:1025F0007800003FFFC00FC0FC0000000000780022
:10260000001FFFC03FE1FF00000000007800000F46
:10261000FFC07FF3FF800000000078000007FFC0CC
:10262000FFFFFFC00000000078000003FFC1F87F3B
:1026300087E00000000078000001FFC1F03F03E0E8
:102640000000000078000000FFC1E01E01E01F0054
:1026500003E0780000007FC1E01E01E07FC00FF8BA
:10266000780000003FC1E01E01E1FFE01FFC7800A0
:1026700000001FC1E01E01E3FFF03FFE78000000F4
:102680000FC1E01E01E3F3F83F3E7800000007C1F0
:10269000E01E01E7E0FC7C1F7800000007C1E01E9F
:1026A00001E7C07C7C0F7800000003C1E01E01E759
:1026B000807C780F7800000003C1E01E01E7803CB9
:1026C00078007800000003C1E01E01E7803C78003C
:1026D0007800000003C1E01E01E7803C780078002C
:1026E000000003C1E01E01E7C03C78007800000054
:1026F00003C1E01E01E3E03C78007C00000003C160
:10270000E01E01E3FF3FF8007F00000003C1E01E70
:1027100001E1FF3FF8003F00000003C1E01E01E0BF
:10272000FF3FF8001F00000003C1E01E01E07F3FF3
:10273000F8000F000000036000000000000000002F
:102740000000000007600000000000000000000022
:102750000000067000000000000000000000000003
:102760000E380000000000000000000000001C1EE9
:10277000000000000000000000000000780FFFFFD4
:10278000FFFFFFFFFFFFFFFFFFFFF001FFFFFFFF66
:10279000FFFFFFFFFFFFFFFF8001FFFFFFFFFFFFC6
:1027A000FFFFFFFFFFFFFF0FFFFFFFFFFFFFFFFF29
:1027B000FFFFFFFFFF1E0000000000000000000000
:1027C00007FFFF380000000000000000000003FFCA
:1027D000FF700000000000000000000001FFFF602B
:1027E0000000000000000000000000FFFF6000008B
:1027F0000000000000000000007FFFC0000000009B
:10280000000000000000003FFFC00FC0FC000000FF
:1028100000000000001FFFC03FE1FF0000000000BB
:102820000000000FFFC07FF3FF80000000000000E9
:102830000007FFC0FFFFFFC0000000000000000312
:10284000FFC1F87F87E00000000000000001FFC129
:10285000F03F03E00000000000000000FFC1E01EA8
:1028600001E01F0003E0000000007FC1E01E01E066
:102870007FC00FF8000000003FC1E01E01E1FFE053
:102880001FFC000000001FC1E01E01E3FFF03FFE3F
:10289000000000000FC1E01E01E3F3F83F3E00001E
:1028A000000007C1E01E01E7E0FC7C1F0000000003
:1028B00007C1E01E01E7C07C7C0F0000000003C1DF
:1028C000E01E01E7807C780F0000000003C1E01EDD
:1028D00001E7803C78000000000003C1E01E01E732
:1028E000803C78000000000003C1E01E01E7803C4E
:1028F00078000000000003C1E01E01E7C03C780042
:102900000000000003C1E01E01E3E03C780000008D
:10291000000003C1E01E01E3FF3FF80000000000DB
:1029200003C1E01E01E1FF3FF8000000000003C109
:10293000E01E01E0FF3FF8000000000003C1E01EC0
:1029400001E07F3FF800000000000360000000008D
:102950000000000000000000076000000000000010
:1029600000000000000006700000000000000000F1
:10297000000000000E380000000000000000000011
:1029800000001C1E0000000000000000000000000D
:10299000780FFFFFFFFFFFFFFFFFFFFFFFFFF001CB
:1029A000FFFFFFFFFFFFFFFFFFFFFFFF8001FFFFB4
:1029B000FFFFFFFFFFFFFFFFFFFFFF0FFFFFFFFF17
:1029C000FFFFFFFFFFFFFFFFFF1E000000000000F2
:1029D0000000000007FFFF380000000000000000BA
:1029E000000003FFFF700000000000000000000076
:1029F00001FFFF600000000000000000000000FF79
:102A0000FF6000000000000000000000007FFFC029
:102A100000000000000000000000003FFFC00FC0E9
:102A2000FC00000000000000001FFFC03FE1FF00AD
:102A3000000000000000000FFFC07FF3FF800000D7
:102A4000000000000007FFC0FFFFFFC00000000003
:102A500000000003FFC1F87F87E0000000000000D5
:102A60000001FFC1F03F03E0000000000000000093
:102A7000FFC1E01E01E01F000000000000007FC158
:102A8000E01E01E07FC00000000000003FC1E01E2A
:102A900001E1FFE00000000000001FC1E01E01E3B3
:102AA000FFF00000000000000FC1E01E01E3F3F89A
:102AB00000000000000007C1E01E01E7E0FC00008C
:102AC0000000000007C1E01E01E7C07C000000001C
:102AD000000003C1E01E01E7807C00000000000050
:102AE00003C1E01E01E7803C00000000000003C1BC
:102AF000E01E01E7803C00000000000003C1E01E72
:102B000001E7803C00000000000003C1E01E01E777
:102B1000C03C00000000000003C1E01E01E3E03CF7
:102B200000000000000003C1E01E01E3FF3F0000C1
:102B30000000000003C1E01E01E1FF3F00000000B3
:102B4000000003C1E01E01E0FF3F000000000000A4
:102B500003C1E01E01E07F3F0000000000000360B1
:102B600000000000000000000000000007600000FE
:102B700000000000000000000000067000000000DF
:102B800000000000000000000E38000000000000FF
:102B90000000000000001C1E0000000000000000FB
:102BA00000000000780FFFFFFFFFFFFFFFFFFFFFA8
:102BB000FFFFF001FFFFFFFFFFFFFFFFFFFFFFFF32
:102BC0008001FFFFFFFFFFFFFFFFFFFFFFFFFF0F82
:102BD000FFFFFFFFFFFFFFFFFFFFFFFFFF1E0000E4
:102BE000000000000000000007FFFF3800000000A8
:102BF00000000000000003FFFF7000000000000064
:102C00000000000001FFFF60000000000000000065
:102C1000000000FFFF600000000000000000000056
:102C2000007FFFC000000000000000000000003F27
:102C3000FFC00FC0FC00000000000000001FFFC02C
:102C40003FE1FF00000000000000000FFFC07FF325
:102C5000FF800000000000000007FFC0FFFFFFC072
:102C60000000000000000003FFC1F87F87E00000C3
:102C7000000000000001FFC1F03F03E00000000081
:102C800000000000FFC1E01E01E0000000000000A5
:102C900000007FC1E01E01E0000000000000000015
:102CA0003FC1E01E01E000000000000000001FC165
:102CB000E01E01E000000000000000000FC1E01E67
:102CC00001E0000000000000000007C1E01E01E07C
:102CD000000000000000000007C1E01E01E000004D
:102CE00000000000000003C1E01E01E00000000041
:102CF0000000000003C1E01E01E000000000000031
:102D0000000003C1E01E01E0000000000000000020
:102D100003C1E01E01E0000000000000000003C14C
:102D2000E01E01E0000000000000000003C1E01E02
:102D300001E0000000000000000003C1E01E01E00F
:102D4000000000000000000003C1E01E01E00000E0
:102D500000000000000003C1E01E01E000000000D0
:102D60000000000003C1E01E01E0000000000000C0
:102D700000000360000000000000000000000000F0
:102D80000760000000000000000000000000067066
:102D90000000000000000000000000000E380000ED
:102DA000000000000000000000001C1E00000000E9
:102DB0000000000000000000780FFFFFFFFFFFFF92
:102DC000FFFFFFFFFFFFF001FFFFFFFFFFFFFFFF20
:102DD000FFFFFFFF8001FFFFFFFFFFFFFFFFFFFF80
:102DE000FFFFFF0FFFFFFFFFFFFFFFFFFFFFFFFFE3
:102DF000FF1E0000000000000000000007FFFF3879
:102E00000000000000000000000003FFFF70000051
:102E1000000000000000000001FFFF600000000053
:102E200000000000000000FFFF6000000000000044
:102E300000000000007FFFC0000000000000000054
:102E40000000003FFFC00000000000000000000084
:102E5000001FFFC000000000000000000000000F85
:102E6000FFC0000000000000000000000007FFC0DD
:102E7000000000000000000000000003FFC0000090
:102E800000000000000000000001FFC00000000082
:102E90000000000000000000FFC000000000000073
:102EA0000000000000007FC00000000000000000E3
:102EB000000000003FC00000000000000000000013
:102EC00000001FC000000000000000000000000023
:102ED0000FC000000000000000000000000007C05C
:102EE00000000000000000000000000007C000001B
:102EF0000000000000000000000003C0000000000F
:102F0000000000000000000003C0000000000000FE
:102F100000000000000003C00000000000000000EE
:102F20000000000003C000000000000000000000DE
:102F3000000003C0000000000000000000000000CE
:102F400003C000000000000000000000000003C0FB
:102F500000000000000000000000000003C00000AE
:102F60000000000000000000000003C0000000009E
:102F7000000000000000000003C00000000000008E
:102F800000000000000003600000000000000000DE
:102F900000000000076000000000000000000000CA
:102FA00000000670000000000000000000000000AB
:102FB0000E380000000000000000000000001C1E91
:102FC000000000000000000000000000780FFFFF7C
:102FD000FFFFFFFFFFFFFFFFFFFFF001FFFFFFFF0E
:102FE000FFFFFFFFFFFFFFFF800000000000000069
:102FF00000000000000000000000000000000000D1
:1030000000000000000000000000047F03E0000159
:10301000F8000F00007F8003F0000C7F03F0000336
:10302000F8001F80007FC007F0000C7F03F8000746
:10303000F8003F80007FC00FF0001C7F03FC000FF2
:10304000F8003FC0003FE01FF0001C7F03FE001FA0
:10305000F8003FC0001FF03FF0003C7F01FF003F41
:10306000F8001FE0000FF87FF0003C7F00FF807F3A
:10307000F8000FE00007F87FE0007C7F007FC0FFD2
:10308000F8000FF00007FC3FC0007C7F003FE1FF2D
:10309000F80007F80003FE1F8000FC7F001FFFFF01
:1030A000F80187F80001FF0F0000FC7F030FFFFF0E
:1030B000F801C3FC0000FF860001FC7F0387FFF3DB
:1030C000F803E3FC00007F800001FC7F03C3FFE303
:1030D000F803E1FE00007FC00003FC7F03E1FFC3B3
:1030E000F807F1FE00003FE00003FC7FE3F0FF8300
:1030F000F807F0FF00001FF00007FC7FE3F87F03F4
:10310000F80FF07F00000FF00007FC7FE3F81E03CC
:10311000F80FE07F80000FF8000FFC7FE3F800035A
:10312000F81FE3FF800387FC000FFC7FE3F8000338
:10313000F81FC3FFC007C3FE001FFC7FE3F80003B6
:10314000F83FC7FFC00FE1FE0000007F03F8000357
:10315000F83F87FFE01FF1FF0000007F03F8000346
:10316000F87F8FFFE03FF0FF8000007F03F800034F
:10317000F87F0FFFF07FF07FC000007F03F80003AF
:10318000F8FF0007F0FFE03FC000007F03F80003F6
:10319000F8FE0007F8FFC03FE000007F03F80003DF
:1031A000F9FE0003F8FF801FF000007F03F8000322
:1031B000F9FC0003FCFF000FF000007F03F80003A0
:1031C000FBFC0001FCFE000FF0000000000000000E
:1031D00000000000000000000000000000000000EF
:1031E00000000000000000000068747470733A2F43
:1031F0002F6769742E696F2F666A587A7200344D92
:10320000415820322E302E3631303052656C2E002F
:10321000D52DC12BAD299927852571235D217001FD
:103220002C0190012701B0012201C0011D01F00114
:1032300018011002130130020E0160020901900210
:103240000401C002FF000003FA004003F500800300
:10325000F000D003EB002004E6007004E100E0047D
:10326000DC004005D700C005D2004006CD00D006E6
:10327000C8008007C3003008BE00F008B900C009CC
:10328000B400B00AAF00B00BAA00D00CA500000E2D
:10329000A000500F9B00C010960050129100001427
:1032A0008C00C0158700B0178200B0197D00D01BBC
:1032B0007800001E730040206E0090226900F02408
:1032C000640040275F0090295A00E02B5500102E23
:1032D000500020304B0010324600E0334100903562
:1032E0003C001037370070383200A0392D00B03A5A
:1032F0002800A03B2300603C1E00103D1900903DBB
:103300001400103E0F00703E0A00C03E0500003F52
:103310000000403FFBFF803FF6FFC03FF1FF202051
:10332000506C616E6E657242756666657242797444
:1033300065733A20002046726565204D656D6F7299
:10334000793A2000436F6D70696C65643A204E6F66
:103350007620203120323032300A00204C617374E4
:1033600020557064617465643A20323032302D30FB
:10337000382D3238207C20417574686F723A2028CD
:1033800047336D316E315333727633722C20416E78
:1033900079637562696320344D4158290A00344DC0
:1033A000415820322E302E3631303052656C2E0A84
:1033B000004D61726C696E0020536F6674776172A4
:1033C000652052657365740A0020576174636864F0
:1033D0006F672052657365740A002042726F776EC2
:1033E000206F75742052657365740A0020457874E7
:1033F00065726E616C2052657365740A00506F7758
:10340000657255700A0073746172740A0061757494
:103410006F25632E67004732385859004D313030E0
:1034200031006572726F722077726974696E6720FD
:10343000746F2066696C650A00446F6E6520736165
:1034400076696E672066696C652E0A004D32390018
:10345000456E6473746F70730025532025632025B7
:103460006320256320256300205A3A0020593A0042
:1034700020583A00656E6473746F707320686974C5
:103480003A2000554E4C4F41442046494C414D4551
:103490004E54004C4F41442046494C414D454E54FA
:1034A0000046494C414D454E54204348414E474506
:1034B000004C6F61642053657474696E67730052C9
:1034C0006573746F72652044656661756C74730012
:1034D00053746F72652053657474696E677300501E
:1034E000726568656174202420436F6E66004F66C4
:1034F00066004F6E0052756E6F75742053656E7363
:103500006F7200436F6E74726F6C6C6572204661EF
:103510006E00416476616E636564205365747469FE
:103520006E6773004D61696E004D3730322054254F
:1035300064004D36303020423020542564004D3731
:103540003032203B2564004D373031205425640053
:103550004D373032004D373031004D36303020425B
:1035600030004D61696E00436F6E74696E75650061
:103570004F6666004F6E0052756E6F75742053650E
:103580006E736F72005075726765206D6F726500A3
:10359000524553554D45204F5054494F4E533A00D4
:1035A0005052494E54205041555345440020204E1E
:1035B0006F7A7A6C653A20005061726B696E672E83
:1035C0002E2E0000005761697420666F72006669D4
:1035D0006C616D656E74206368616E676500746F01
:1035E000207374617274005761697420666F720091
:1035F00066696C616D656E7420756E6C6F616400D8
:10360000004E6F7A7A6C652068656174696E670038
:10361000506C6561736520776169742E2E2E0000F1
:10362000507265737320627574746F6E00746F20CE
:1036300068656174206E6F7A7A6C650000496E73FC
:103640006572742066696C616D656E7400616E648C
:1036500020707265737320627574746F6E00746F7E
:1036600020636F6E74696E756500576169742066BA
:103670006F720066696C616D656E74206C6F616459
:103680000000507265737320427574746F6E00741D
:103690006F20726573756D65207072696E740000BD
:1036A0005761697420666F72207072696E7400745D
:1036B0006F20726573756D652E2E2E00005761693F
:1036C0007420666F720066696C616D656E7420703F
:1036D0007572676500003135300035004245443A67
:1036E0004550434F53203130304B0052756E617757
:1036F00061792057617463683A204F4E004D6178BC
:103700002054656D7000323735004D696E20546568
:103710006D7000350045313A204550434F532031FC
:1037200030304B001FE03FF03FF03FF01FE01FE064
:103730003FF03FF03FF00FC0078003001FE0201074
:1037400020102010102010202010201030300840B1
:10375000048003003FFFF83E00F839F03831E018EC
:1037600031E01821E1E820F3E8207FE82077E8281D
:10377000EE282FDC082FFC082F9E082F0F08300F93
:1037800018300F18381F383E00F83FFFF83FFFF899
:103790003E00F8383F38307E18307C18287C082CE2
:1037A00038082F39C82FFFE82FC7E82FFFE827393F
:1037B000E8203868207C28307C1830FC1839F8382C
:1037C0003E00F83FFFF83FFFF83E00F8380F38346E
:1037D0001FD8361F982F1F082F9E082FFC082FDC9C
:1037E0000827EFC82077E8207FE820F3E821F1E8F8
:1037F00033F0D837F05839E0383E00F83FFFF83F53
:10380000FFF83E80F83980383781D837C3D827C7CA
:10381000E823C7F821FF88206C08206C08206C087A
:1038200023FF083FC7882FC7C83787D83703D83842
:1038300003383E02F83FFFF81FFFF81FFFF804109F
:103840004002082002082004104008208010410097
:103850001041000820800410400000001FFFF81FE6
:10386000FFF82100140706003372D1C089003F0B16
:10387000152109002D3A15220900214A15240900B5
:10388000213A1527A600000000000000FFFFFFFFFF
:10389000FFC00000000000000B1870E1C3801B0C8B
:1038A000F0E0E7003B27F07076003B33F13030006A
:1038B0007B3333B818007BB033B80C007BB0373C97
:1038C0006E000330377CE7000330360DC380000004
:1038D00000000000FFFFFFFFFFC00000000000002D
:1038E00007000008400009649D2F0E000F54A12915
:1038F00050000954A12950000957BDEF5E00000097
:1039000080000000000780000000000000000000B0
:1039100000000000000024F4D43050C38E20C2A266
:103920004017828B7011127A910D816CD90AA861AF
:10393000E108C7586607615143061E4B5D05C14546
:10394000A7041A411104093D980371393103403627
:10395000DB0265339102D4305402802E1D02632CA9
:10396000EE01752AC501B028A001102781018F251D
:1039700064012B244B01E0223401AC211F018D2076
:103980000D01801FFC00841EED00971DDF00B81C98
:10399000D200E61BC600201BBC00641AB200B2199C
:1039A000A8000A19A0006A189900D11791004017C1
:1039B0008B00B516840031167E00B31579003A15D8
:1039C0007300C7146F0058146A00EE136600881362
:1039D000630025135E00C7125B006C1257001512BE
:1039E0005400C111510070114F0021114B00D6102D
:1039F00049008D1047004610440002104200C00FDD
:103A00004000800F3E00420F3C00060F3B00CB0EF3
:103A10003800930E37005C0E3500270E3400F30D8E
:103A20003200C10D3100900D3000600D2E00320DBE
:103A30002D00050D2C00D90C2B00AE0C2900850C97
:103A400029005C0C2700350C27000E0C2600E80B23
:103A50002400C40B2400A00B23007D0B23005A0B71
:103A60002100390B2100180B2000F80A1F00D90A89
:103A70001E00BB0A1E009D0A1D00800A1D00630A6D
:103A80001C00470A1B002C0A1B00110A1A00F70928
:103A90001A00DD091900C4091900AB0919009209BF
:103AA00017007B091800630917004C091600360936
:103AB0001600200916000A091500F5081500E0088F
:103AC0001400CC081400B8081400A40814009008CE
:103AD00013007D0812006B081300580812004608F6
:103AE0001200340811002308110012081100010807
:103AF0001100F0071000E0071000D0071000C00709
:103B00001000B0070F00A107100091070E008307F7
:103B10000F0074070F0065070E0057070E004907D6
:103B20000E003B070D002E070E0020070D001307A7
:103B30000D0006070D00F9060C00ED060D00E0066D
:103B40000C00D4060C00C8060C00BC060C00B00625
:103B50000C00A4060B0099060C008D060B008206D3
:103B60000B0077060B006C060B0061060A00570677
:103B70000B004C060A0042060A0038060A002E0610
:103B80000A0024060A001A060A00100609000706A1
:103B90000A00FD050900F4050900EB050900E2052E
:103BA0000900D9050900D0050900C7050900BE05AF
:103BB0000900B5050800AD050800A50509009C052C
:103BC0000800940508008C050800840508007C05A1
:103BD0000800740508006C050700650508005D0510
:103BE0000700560508004E05070047050700400579
:103BF000080038050700310507002A0507002305DE
:103C000007001C050600160507000F05070008053C
:103C1000060002050700FB040600F5040700EE0499
:103C20000600E8040600E2040700DB040600D504F1
:103C30000600CF040600C9040600C3040600BD0444
:103C40000600B7040600B1040500AC040600A60493
:103C50000600A00405009B040600950405009004DE
:103C600006008A04050085040500800406007A0425
:103C7000050075040500700405006B04050066046A
:103C80000500610405005C040500570405005204AA
:103C900005004D04050048040500430405003E04EA
:103CA00004003A04050035040500300404002C0427
:103CB000050027040400230405001E0404001A0460
:103CC000040016040500110404000D040400090496
:103CD00005000404040000040400FC030400F803CD
:103CE0000400F4030400F0030400EC030400E80300
:103CF0000400E4030400E0030400DC030400D80330
:103D00000400D4030400D0030400CC030400C8035F
:103D10000300C503030024F404D9201BC40C5C0E6B
:103D20009804C4095F0265077101F405F900FB04FA
:103D3000B30048048700C10369005803550003031A
:103D40004500BE023A008402310053022A002902D3
:103D5000250004022000E4011C00C8011900AF0185
:103D60001700980114008401130071011000610113
:103D7000100051010E0043010D0036010B002B0114
:103D80000B0020010B00150109000C0109000301C3
:103D90000800FB000800F3000800EB000700E40047
:103DA0000600DE000600D8000600D2000600CC00A7
:103DB0000500C7000500C2000500BD000400B900F1
:103DC0000400B5000400B1000400AD000400A90027
:103DD0000400A5000300A20003009F0004009B0054
:103DE0000300980003009500020093000300900078
:103DF00003008D0002008B00030088000200860093
:103E0000020084000300810002007F0002007D00A8
:103E100002007B00020079000200770001007600BA
:103E200002007400020072000100710002006F00C5
:103E300002006D0001006C0002006A0001006900D0
:103E400002006700010066000100650001006400D7
:103E500002006200010061000100600001005F00DB
:103E600002005D0001005C0001005B0001005A00DF
:103E700001005900010058000100570001005600E0
:103E800001005500010054000100530000005300E0
:103E900001005200010051000100500001004F00DC
:103EA00001004E0000004E0001004D0001004C00DA
:103EB00001004B0000004B0001004A0001004900D6
:103EC00001004800000048000100470001004600D2
:103ED00000004600010045000000450001004400CC
:103EE00001004300000043000100420000004200C6
:103EF00001004100000041000100400001003F00BE
:103F000000003F0001003E0000003E0001003D00B7
:103F100000003D0001003C0000003C0000003C00AF
:103F200001003B0000003B0001003A0000003A00A5
:103F3000010039000000390001003800000038009D
:103F40000000380001003700000037000100360093
:103F5000000036000000360001003500000035008A
:103F6000000035000100340000003400000034007F
:103F70000100330000003300000033000100320074
:103F8000000032000000320001003100000031006A
:103F9000000031000100300000003000000030005F
:103FA00001002F0000002F0000002F0000002F0054
:103FB00001002E0000002E0000002E0001002D0048
:103FC00000002D0000002D0000002D0001002C003D
:103FD00000002C0000002C0000002C0001002B0031
:103FE00000002B0000002B0000002B0001002A0025
:103FF00000002A0000002A0000002A000100290019
:10400000000029000000290000002900000029000C
:1040100001002800000028000000280000002800FF
:1040200000002800010027000000270000002700F2
:1040300000002700000027000100260000002600E5
:1040400000002600000026000000260001002500D8
:1040500000002500000025000000250000002500CC
:1040600000002500010024000000240000002400BE
:1040700000002400000024000100230000002300B1
:1040800000002300000023000000230000002300A4
:104090000000230001002200000022000000220096
:1040A0000000220000002200000022000100210088
:1040B000000021000000210000002100000021007C
:1040C000000021000000210001002000000020006D
:1040D0000000200000002000000020000000200060
:1040E000000020000000200001001F0000001F0051
:1040F00000001F0000001F0000001F0000001F0044
:1041000000001F0001001E0000001E0000001E0035
:1041100000001E0000003930000033250000871920
:104120000000B00F0000DB080000BD0400007402B6
:1041300000003F01000020436F756E7420583A0064
:104140002053004D31303620500000426564004558
:104150003100626564002C2073797374656D20737F
:10416000746F7070656421204865617465725F4981
:10417000443A200048656174696E67204661696C45
:1041800065640048656174696E67206661696C6585
:104190006400202D20496E76616C69642065787416
:1041A0007275646572206E756D62657220210A00F9
:1041B000544845524D414C2052554E4157415900AB
:1041C000546865726D616C2052756E61776179001B
:1041D0004572723A204D415854454D50004D41585A
:1041E00054454D5020747269676765726564004577
:1041F00072723A204D494E54454D50004D494E542F
:10420000454D5020747269676765726564000A0ADB
:104210000020205A5F4D494E3A002020595F4D49F9
:104220004E3A002020585F4D494E3A004361703AA3
:104230000047322F47332062616420706172616DE4
:1042400065746572730A00220A00656E7175657582
:1042500065696E672022006F6B00526573656E643E
:104260003A200043616E6E6F74206F70656E20732C
:1042700075626469722000220A00556E6B6E6F775A
:104280006E20636F6D6D616E643A202200DB0FC992
:104290003F45BCDA3F8FB30240FCF02740569461A3
:1042A00040FE4B9B4084A5D840E0231841346A5619
:1042B00041E859974164DBD5416E271742B4B755A1
:1042C00042CE1A9742C8AED542B5885A43D4068426
:1042D000BFA65FA7BF7443E0BF10B11AC01C2C5823
:1042E000C0E8F697C0B849D6C04E4E17C124D35582
:1042F000C1802497C1A0B5D5C1121A17C244AE55CA
:10430000C2781797C26CACD5C267885AC320746F45
:104310006F206C6F6E6720657874727573696F6E4D
:104320002070726576656E7465640A0020636F6C38
:104330006420657874727573696F6E20707265762B
:10434000656E7465640A00202F002042403A002008
:10435000403A0020573A000009121B242D363F48EE
:10436000415A536C657E7719100B023D342F26514C
:1043700058434A757C676E323B2029161F040D7A1C
:104380007368615E574C452B2239300F061D14634C
:104390006A7178474E555C646D767F4049525B2C5C
:1043A000253E3708011A137D746F6659504B42350C
:1043B0003C272E1118030A565F444D727B60691E1C
:1043C000170C053A3328214F465D546B627970070C
:1043D0000E151C232A31384148535A656C777E09E3
:1043E000001B122D243F3658514A437C756E6710CE
:1043F00019020B343D262F737A6168575E454C3B9A
:104400003229201F160D046A6378714E475C5522CD
:104410002B3039060F141D252C373E0108131A6D59
:10442000647F7649405B523C352E2718110A03748D
:104430007D666F5059424B171E050C333A21285F99
:10444000564D447B7269600E071C152A233831468D
:104450004F545D626B70797C3C3E5E2B3D3F2F5B21
:104460005D3B2C2A225C00446F6E652E0A0050755D
:104470006C73696E6720202000556E746F756368D9
:10448000656420005A5F50524F42455F5345525673
:104490004F5F4E52206E6F74207365742075702EBE
:1044A0000A005761746368696E672070696E730AE9
:1044B0000064697300656E0061626C65640A006582
:1044C0006E6473746F70206D6F6E69746F7220000C
:1044D000204D393220580020580020204D61783A74
:1044E0002000200020204D696E3A2000536F667432
:1044F00020656E6473746F70733A2000206F75745A
:10450000206F662072616E67650A00536572766F70
:1045100020003A200020536572766F200025290A7A
:1045200000252000203B20280020440020410020BE
:10453000490020204D3731302053003B20436F6E1F
:1045400074726F6C6C65722046616E0A0020496E51
:1045500076616C6964206578747275646572200098
:104560005A5F53544F505F50494E005A5F53544561
:10457000505F50494E005A5F4D494E5F50494E00C2
:104580005A5F454E41424C455F50494E005A5F4488
:1045900049525F50494E00595F53544F505F504944
:1045A0004E00595F535445505F50494E00595F4D7E
:1045B000494E5F50494E00595F454E41424C455F60
:1045C00050494E00595F4449525F50494E00585F70
:1045D00053544F505F50494E00585F535445505FFD
:1045E00050494E00585F4D494E5F50494E00585F4C
:1045F000454E41424C455F50494E00585F44495238
:104600005F50494E0053535F50494E005345525638
:104610004F335F50494E00534552564F325F504919
:104620004E00534552564F315F50494E005345524C
:10463000564F305F50494E00534453530053445F2C
:104640004445544543545F50494E0053434B5F50DB
:10465000494E0052414D50535F44395F50494E001E
:1046600052414D50535F44385F50494E0052414DC6
:1046700050535F4431305F50494E004D4F53495FB6
:1046800050494E004D49534F5F50494E004D4158DF
:10469000363637355F53535F50494E004C45445FC3
:1046A00050494E004C43445F50494E535F525300B3
:1046B0004C43445F50494E535F454E41424C450088
:1046C0004C43445F50494E535F4437004C43445F72
:1046D00050494E535F4436004C43445F50494E535B
:1046E0005F4435004C43445F50494E535F443400AF
:1046F0004845415445525F4245445F50494E004849
:1047000045415445525F305F50494E0046494C5F29
:1047100052554E4F55545F50494E0046414E325F00
:1047200050494E0046414E315F50494E0046414E81
:104730005F50494E0045315F535445505F50494EDC
:104740000045315F454E41424C455F50494E004562
:10475000315F4449525F50494E0045315F43535FDA
:1047600050494E0045305F535445505F50494E000C
:1047700045305F454E41424C455F50494E00453003
:104780005F4449525F50494E0045305F4155544F98
:104790005F46414E5F50494E00455F4D5558325F70
:1047A00050494E00455F4D5558315F50494E0045C8
:1047B0005F4D5558305F50494E00444F474C43447D
:1047C0005F53434B00444F474C43445F4D4F534965
:1047D00000434F4E54524F4C4C45525F46414E5F42
:1047E00050494E0042544E5F454E430042544E5F86
:1047F000454E320042544E5F454E310042454550D1
:1048000045525F50494E004156525F53535F5049E5
:104810004E004156525F53434B5F50494E00415644
:10482000525F4D4F53495F50494E004156525F4DC4
:1048300049534F5F50494E0054454D505F424544E7
:104840005F50494E0054454D505F315F50494E0016
:1048500054454D505F305F50494E0054584430002D
:10486000525844300050574D3A20202534640050AF
:10487000574D3A20202534640050574D3A202025CA
:1048800034640050574D3A20202534640050574D71
:104890003A20202534640050574D3A2020253464B6
:1048A0000050574D3A20202534640050574D3A208F
:1048B000202534640050574D3A20202534640050A0
:1048C000574D3A20202534640050574D3A2020257A
:1048D00034640050574D3A20202534640050574D21
:1048E0003A20202534640050574D3A202025346466
:1048F0000050574D3A20202534640050574D3A203F
:1049000020253464003A200020202020434F4D0011
:104910002020206E6F6E2D7374616E64617264204E
:1049200050574D206D6F646500202020636F6D70BF
:1049300061726520696E7465727275707420656E3F
:1049400061626C6564002020206F766572666C6F12
:104950007720696E7465727275707420656E61621D
:104960006C6564003A20002020202054494D534BB0
:1049700000423A2000202020205443435200413A74
:104980002000202020205443435200202020204398
:10499000533A20002020202057474D3A20005057FE
:1049A0004D3A20202534640050574D3A20202534BC
:1049B000640047004800000088008A008C00B300B3
:1049C000B400000098009A009C00A800AA00AC0067
:1049D00028012A012C012020202054494D45520055
:1049E000440045006E00800081006F00B000B100FF
:1049F0007000900091007100A000A10072002001E1
:104A00002101730020697320616C736F20746965E4
:104A10006420746F20746869732070696E00544953
:104A20004D45523143000A202E0020200020205006
:104A30006F72743A200020202000202020416E61F7
:104A40006C6F6720696E203D2025356C64003C75D5
:104A50006E757365642F756E6B6E6F776E3E00209A
:104A60002841253264292020002533642000504944
:104A70004E3A20004F7574707574203D2000496EC9
:104A800070757420203D2000416E616C6F67206955
:104A90006E203D2025356C640070726F7465637400
:104AA0006564200020284125326429202000253318
:104AB00064200050494E3A2000604800015B4801E4
:104AC000015048430045484500384844002B4832CF
:104AD000011E4833011248340107483501FC4725BF
:104AE00001F4472101EC471F01E4472301D14707A7
:104AF00001C5473301BA473401AF472801A4472A0B
:104B00000199472C0189472C017E471C01704718E9
:104B10000164471A015A472C014F47220141471EA1
:104B200001354724012D470901244707011B472C64
:104B3000010C470201FF460A01F0460801E446174E
:104B400001D8461901CC461B01C0461D01B04611D3
:104B500001A44610019C460D018D46420184463257
:104B6000017B4633016D460A016046080153460940
:104B7000014B4634013D463101384635012D460B87
:104B80000122460601174605010C4604010546357B
:104B900001FB453701EE452601E4450301D94536C1
:104BA00001CE450301C4453D01B7453801AD450E71
:104BB00001A2453C0197450E018D45300180453EDF
:104BC00001764512016B452E01604512012E0A0047
:104BD0006F70656E206661696C65642C2046696C37
:104BE000653A200000002110422063308440A55027
:104BF000C660E770088129914AA16BB18CC1ADD123
:104C0000CEE1EFF13112100273325222B5529442CA
:104C1000F772D662399318837BB35AA3BDD39CC372
:104C2000FFF3DEE36224433420040114E664C77416
:104C3000A44485546AA54BB528850995EEE5CFF5C2
:104C4000ACC58DD55336722611163006D776F6666A
:104C50009556B4465BB77AA719973887DFF7FEE712
:104C60009DD7BCC7C448E5588668A7784008611836
:104C700002282338CCC9EDD98EE9AFF94889699962
:104C80000AA92BB9F55AD44AB77A966A711A500A0A
:104C9000333A122AFDDBDCCBBFFB9EEB799B588BB2
:104CA0003BBB1AABA66C877CE44CC55C222C033C56
:104CB000600C411CAEED8FFDECCDCDDD2AAD0BBD02
:104CC000688D499D977EB66ED55EF44E133E322EAA
:104CD000511E700E9FFFBEEFDDDFFCCF1BBF3AAF52
:104CE000599F788F8891A981CAB1EBA10CD12DC1B0
:104CF0004EF16FE18010A100C230E3200450254046
:104D000046706760B9839893FBA3DAB33DC31CD3A5
:104D10007FE35EF3B1029012F322D2323542145295
:104D200077625672EAB5CBA5A89589856EF54FE5F1
:104D30002CD50DC5E234C324A014810466744764E5
:104D400024540544DBA7FAB79987B8975FE77EF745
:104D50001DC73CD7D326F2369106B0165766767635
:104D6000154634564CD96DC90EF92FE9C899E98911
:104D70008AB9ABA94458654806782768C018E10885
:104D80008238A3287DCB5CDB3FEB1EFBF98BD89BE5
:104D9000BBAB9ABB754A545A376A167AF10AD01AD5
:104DA000B32A923A2EFD0FED6CDD4DCDAABD8BAD31
:104DB000E89DC98D267C076C645C454CA23C832C25
:104DC000E01CC10C1FEF3EFF5DCF7CDF9BAFBABF85
:104DD000D98FF89F176E367E554E745E932EB23E75
:104DE000D10EF01E20453A00205A3A0020593A00D0
:104DF000583A004D3234004D323320257300466955
:104E00006C652073656C65637465640A0020536982
:104E10007A653A200046696C65206F70656E65643E
:104E20003A2000454E4420535542524F5554494E66
:104E3000450A002220706F73002220706172656E37
:104E4000743A2200535542524F5554494E4520431F
:104E5000414C4C207461726765743A22005375624C
:104E600063616C6C204F766572666C6F7700457875
:104E7000636565646564206D617820535542524FC7
:104E80005554494E452064657074683A310A00579C
:104E9000726974696E6720746F2066696C653A2068
:104EA000002E0A006F70656E206661696C65642C67
:104EB0002046696C653A2000667265736800646F0D
:104EC000696E67002066696C653A20004E6F772036
:104ED00000025654726176204D696E00566D696EFF
:104EE00000566D6178204500566D6178205A005655
:104EF0006D6178205900566D6178205800416D61D0
:104F000078204500416D6178205A00416D6178201C
:104F10005900416D6178205800412D5472617665C9
:104F20006C00412D52657472616374004163636566
:104F30006C00452073746570732F6D6D005A20539B
:104F4000746570732F6D6D00592053746570732FE5
:104F50006D6D00582053746570732F6D6D00416442
:104F600076616E6365642053657474696E6773005F
:104F70005045544700504C410000002100240027B8
:104F8000002A002D00300033000101000004010759
:104F9000010A0100002200250028002B002E00310C
:104FA00000340002010000050108010B010000208F
:104FB000002300260029002C002F003200000100F1
:104FC0000003010601090105050505070508080894
:104FD00008020202020A0A0808040404040101018A
:104FE0000101010101030303030303030304070792
:104FF000070C0C0C0C0C0C0C0C0202020206060630
:1050000006060606060B0B0B0B0B0B0B0B01021017
:1050100020200808102040102040800201020108D2
:105020000402010102040810204080804020100882
:1050300004020180040201804020100804020108DB
:10504000040201010204081020408001020408103B
:1050500020408000000A0B02090C0D0E0807030413
:10506000010000000000000000000000000000003F
:10507000000000000000000000000000000000121E
:1050800011100000000000000000000000000000FF
:10509000000000000000000000004D6F7665202534
:1050A000736D6D004D6F766520302E316D6D004D46
:1050B0006F766520316D6D004D6F76652031306DF6
:1050C0006D004D6F7665204178697300486F746597
:1050D0006E6420746F6F20636F6C64004578747227
:1050E00075646572004D6F7665205A004D6F766568
:1050F0002059004D6F7665205800754F704F4368FA
:10510000616E67652046696C616D656E7400556EF1
:105110006C6F61642046696C616D656E74004C6FE4
:1051200061642046696C616D656E740050726568DB
:1051300065617420437573746F6D005072656865A6
:1051400061742024004261636B0042656400456E17
:10515000636C6F7375726500454550524F4D206406
:1051600061746173697A65206572726F722E0A00CC
:10517000290A002062797465733B20637263200002
:105180002073746F7265642073657474696E6773DD
:105190002072657472696576656420280020286332
:1051A000616C63756C6174656429210A0020213D7E
:1051B0002000454550524F4D20435243206D6973A6
:1051C0006D61746368202D202873746F7265642983
:1051D00020002053697A653A2000496E6465783A68
:1051E00020004669656C64206261636B6C61736862
:1051F0005F64697374616E63655F6D6D206D697363
:105200006D617463682E0A004669656C642066638C
:105210005F73657474696E6773206D69736D617413
:1052200063682E0A004669656C6420706C616E6E5E
:1052300065725F736B65775F666163746F72206D13
:1052400069736D617463682E0A004669656C642039
:10525000636F6F7264696E6174655F73797374658F
:105260006D206D69736D617463682E0A004669650F
:105270006C64206D6F746F725F63757272656E74AB
:105280005F73657474696E67206D69736D617463B3
:10529000682E0A004669656C6420706C616E6E65EC
:1052A000725F65787472756465725F616476616E51
:1052B00063655F4B206D69736D617463682E0A00CE
:1052C0004669656C6420746D635F737465616C74AA
:1052D000685F656E61626C6564206D69736D617491
:1052E00063682E0A004669656C6420746D635F73A1
:1052F0006774206D69736D617463682E0A00466976
:10530000656C6420746D635F6879627269645F7450
:1053100068726573686F6C64206D69736D61746326
:10532000682E0A004669656C6420746D635F73744F
:1053300065707065725F63757272656E74206D69F9
:10534000736D617463682E0A004669656C64207031
:1053500061727365725F766F6C756D657472696387
:105360005F656E61626C6564206D69736D61746305
:10537000682E0A004669656C6420667772657472EF
:105380006163745F73657474696E6773206D6973AC
:105390006D617463682E0A004669656C64207265ED
:1053A000636F766572795F656E61626C6564206DAE
:1053B00069736D617463682E0A004669656C6420C8
:1053C000636F6E74726F6C6C657246616E5F73654D
:1053D0007474696E6773206D69736D617463682E90
:1053E0000A004669656C64206C63645F636F6E7469
:1053F00072617374206D69736D617463682E0A0045
:105400004669656C6420706F7765725F6D6F6E6959
:10541000746F725F666C616773206D69736D617420
:1054200063682E0A004669656C64206C70715F6C5D
:10543000656E206D69736D617463682E0A0046693C
:10544000656C642075695F6D6174657269616C5F1C
:10545000707265736574206D69736D617463682E15
:105460000A004669656C6420626C746F7563685FDE
:105470006C6173745F7772697474656E5F6D6F646D
:1054800065206D69736D617463682E0A00466965F5
:105490006C6420736572766F5F616E676C657320F4
:1054A0006D69736D617463682E0A004669656C648A
:1054B00020706C616E6E65725F6C6576656C696E8E
:1054C000675F616374697665206D69736D6174638C
:1054D000682E0A004669656C642070726F62655FB1
:1054E0006F6666736574206D69736D617463682E91
:1054F0000A004669656C642072756E6F75745F731F
:10550000656E736F725F656E61626C6564206D6954
:10551000736D617463682E0A004669656C64206867
:105520006F6D655F6F6666736574206D69736D611D
:105530007463682E0A004669656C6420657374653F
:105540007070657273206D69736D617463682E0A83
:1055500000204D61726C696E3D563831290A004554
:105560004550524F4D2076657273696F6E206D699C
:10557000736D617463682028454550524F4D3D005E
:10558000506C6561736520526573657400505249B3
:105590004E5445522048414C5445440025533A202E
:1055A0002553004B494C4C45442E20005072696EE7
:1055B0007465722068616C7465642E206B696C6C14
:1055C00028292063616C6C6564210A006563686F3B
:1055D0003A004572726F723A00486F74656E6420CB
:1055E000746F6F20636F6C640A004D3630303A2060
:1055F000546F6F20436F6C6400486F74656E642055
:10560000746F6F20636F6C640A005072657373204F
:10561000627574746F6E20746F20726573756D653A
:105620000A00496E736572742066696C616D656EFF
:105630007420616E64207072657373206275747477
:105640006F6E0A00507265737320627574746F6EAA
:1056500020746F2068656174206E6F7A7A6C650AB9
:105660000043616E6E6F74206F70656E207375629B
:105670006469722000534420496E69742046616950
:105680006C0053442063617264206F6B0A006F707A
:10569000656E526F6F74206661696C65640A00768E
:1056A0006F6C756D652E696E6974206661696C65D5
:1056B000640A004E6F20534420636172640A0050F4
:1056C00072696E7420506175736564005072696E02
:1056D000742066726F6D204D6564696100496E7358
:1056E0006572742066696C616D656E7420616E64AC
:1056F00020707265737320627574746F6E0A004156
:105700006E79637562696320344D4158205265613A
:1057100064792E005072696E74696E672E2E2E00A9
:10572000454550524F4D20496E697469616C697AE4
:1057300065640A0048617264636F6465642044654F
:105740006661756C742053657474696E6773204C60
:105750006F616465640A0000009643000096430090
:105760000020410000C8410000A0420000A042000B
:1057700000C8433333B942DC050000DC0500006497
:10578000000000102700003B200020204D36303361
:10579000200020204D34313220530046696C616D69
:1057A000656E742072756E6F75742073656E736F9D
:1057B000723A002055004C0046696C616D656E744C
:1057C000206C6F61642F756E6C6F6164206C656E08
:1057D000677468733A0020440020490020204D334C
:1057E00030312050005049442073657474696E67ED
:1057F000733A0020460020420020480020204D310E
:1058000034352053004D6174657269616C206865A0
:105810006174757020706172616D65746572733A40
:105820000020204D323036205800486F6D65206FC3
:1058300066667365743A00204A0020530020204DAC
:10584000323035204200416476616E6365643A20EF
:10585000423C6D696E5F7365676D656E745F7469F8
:105860006D655F75733E20533C6D696E5F6665655F
:1058700064726174653E20543C6D696E5F74726140
:1058800076656C5F66656564726174653E204A3C4E
:105890006A756E635F6465763E0020540020520096
:1058A00020204D323034205000416363656C6572B6
:1058B0006174696F6E2028756E6974732F73322955
:1058C0003A20503C7072696E745F616363656C3E30
:1058D00020523C726574726163745F616363656CCE
:1058E0003E20543C74726176656C5F616363656CE5
:1058F0003E0020204D3230312058004D6178696DD6
:10590000756D20416363656C65726174696F6E20AB
:1059100028756E6974732F7332293A002045002070
:105920005A0020590020204D3230332058004D615C
:1059300078696D756D206665656472617465732044
:1059400028756E6974732F73293A005374657073E8
:105950002070657220756E69743A00204400202022
:105960004D3230302053002044697361626C6564AD
:105970000A0046696C616D656E74207365747469A4
:105980006E67733A0020204D3134392043203B208C
:10599000556E69747320696E2043656C7369757305
:1059A0000A0020286D6D2900202047323120202058
:1059B000203B20556E69747320696E206D6D000068
:1059C000A402820111241FBECFEFD1E2DEBFCDBF02
:1059D00000E00CBF13E0A0E0B2E0ECEAFDE902E079
:1059E0000BBF02C007900D92AC33B107D9F726E187
:1059F000ACE3B3E001C01D92A731B207E1F71CE2AE
:105A0000C1EEDCE200E006C021970109802FFE0113
:105A10000F94154BC03ED10780E00807A9F70F94FB
:105A200026360D94C44E0C9400002F923F924F9254
:105A30005F926F927F928F929F92AF92BF92CF921E
:105A4000DF92EF92FF920F931F93CF93DF93CDB727
:105A5000DEB7E0970FB6F894DEBF0FBECDBF8FA7BD
:105A6000209187152EA7FF24F394F092871580913B
:105A7000D3078D3409F476C2843511F40C94DE3CDE
:105A8000873411F00C94033D2091D1073091D20757
:105A90002C30310509F45CC19CF4243031053CF410
:105AA000223031050CF0FDC037FF29C057C2243029
:105AB000310509F404C12530310509F43FC14EC256
:105AC0002C31310509F4B7C154F42531310511F4F5
:105AD0000C94053D2B31310509F492C13FC22B35A1
