:100000000C9445300C9476300C9476300C94763009
:100010000C9476300C9476300C9476300C947630C8
:100020000C9476300C9476300C9476300C947630B8
:100030000C9476300D941B000C9476300C94763032
:100040000C9476300D94A12F0C9476300C9476306D
:100050000C9476300C9476300C946EB80D94663710
:100060000C9476300C946D4F0C94634F0C94763056
:100070000C9476300C9476300C9476300C94763068
:100080000C94F8470C9476300C9476300C947630BF
:100090000C9476300C9476300C9476300C94763048
:1000A0000C9476300C9476300C94CA470C947630CD
:1000B0000C9476300C9476300C9476300C94763028
:1000C0000C9476300C9476300C9476300C94763018
:1000D0000C9476300C9476300C9476300C94763008
:1000E0000C9476302FA612A615A632A618A61BA62B
:1000F0001EA62AA621A63DA624A627A647F269F297
:1001000089F2AEF2D3F28AF4F8F21BF33EF363F312
:1001100088F3ADF3D2F3F7F38AF41CF441F466F4F8
:10012000F9F5FCF500F603F606F630F60AF60DF6DC
:1001300011F614F617F61BF61EF621F630F625F624
:1001400028F62BF6E8015A01220264011202AE02DF
:100150007402C2017C019E029A0172018002BE02F9
:10016000AE02CA015A024C01BC019402C402F00161
:10017000A6022A0244019C029C01A8024E017001C1
:10018000660224022A026C019001C6017C02500121
:10019000CE027802CE02CE02CE02CE02CE02CE0235
:1001A000CE02CE02CE02CE02CE02CE02CE02CE02CF
:1001B000CE02CE02CE02CE02CE02CE02CE02CE02BF
:1001C000CE02CE02CE02CE022002CE02CE02CE025D
:1001D000CE02CE02CE02CE02CE02AA02CE02CE02C3
:1001E000CE02CE02CE02CE02CE02CE02CE02CE028F
:1001F0005402B202084AD73B3BCE016E84BCBFFD1D
:10020000C12F3D6C74319ABD56833DDA3D00C77FE6
:1002100011BED9E4BB4C3E916BAAAABE000000807F
:100220003F05A84CCDB2D44EB93836A9020C50B90E
:10023000918688083CA6AAAA2ABE000000803F003A
:100240000C9497FF0C9481980D9470070D947C0783
:100250000C945A930D947E070C9410A20C947A98E7
:100260000C942AA60C94E1980D9476070C947F9830
:100270000C9460A20C9421A60C948C670C943EF311
:100280000C940DF60C949D8E0D94680F0C94C493F1
:100290000C94149E0C941BF60D949F0C0D948C0FD3
:1002A0000D9413130C945E960C9454A20C94D2F3F8
:1002B0000C94DE8E0D946D0C0C94B84F0C9414F6C7
:1002C0000C94689A0C943A940D94600C0D949D12C1
:1002D0000C94DD770C94019F0D94B90F0C94CC66AF
:1002E0000D94960F0D94890C0C942BF60C942A9374
:1002F0000C945AA20C9430F60D947B0C0C94FCF5E3
:100300000C94F2770D94C5410C941DA20C94709836
:100310000C9404940C9433830C94B44F0C94F0A17B
:100320000D94C30F0C9467960C94D5770C94C26609
:100330000D947A070D94830C0D94780F0C94A05EA5
:100340000C946B8E0C9426910C94CF9E0C94AC66FE
:100350000C9411F60C94F78E0C94FCA10C94558F10
:100360000C94B5660C94F7F30C94CB8E0C94AEF20F
:100370000C94EE770C94DF4F0D94400F0C9469921F
:100380000C9436B80D94750C0C941EA60D94CD0FDC
:100390000C9435990D94970C0C94F4A10C94F2A53F
:1003A0000C94BD660C9441500C9488F30C945294B8
:1003B0000C9487960C9417F60C94B7660C94238FC4
:1003C0000C94205B0C9469930C942D6A0C94B36686
:1003D0000D946A0C0C94A5660C94CEA30C94C3FFE8
:1003E0000D94540F0C941BA60C944B930C9406F68E
:1003F0000C9417A20C9466F40C94B88E0C9421F60D
:100400000D9480070C9418A60C940D940C9469FF1D
:100410000C945D8E0C94D3820C9475930C944EA224
:100420000C941CF40D94660C0C9412A60C94CF99A9
:100430000C943BA20C9477A60C944F620C942FA6BC
:100440000D94DA140D945C0C0D94AF0F0C948AF497
:100450000C944F650D94D70F0C9428F60C940CA2B5
:100460000C94C1920C9424A60C9458940C94D977B3
:100470000C944E5B0C9408A20C9434940C949396B8
:100480000C943C8F0C9422940C9404A20C94375B33
:100490000C94A66B0C942E940C941BF30C943D9925
:1004A0000C9440940C9400F60D94F7140C94ECA169
:1004B0000C944F960D949B0C0C9481960C94E6A58D
:1004C0000C94C7660C94BC9E0D945A060D94A50F0F
:1004D0000D9478070C94DA9F0C9400A20C941AA245
:1004E0000C9428940C94D09B0D94710C0C94F8A14E
:1004F0000D94E0140C94F85E0D94A4140C9441F443
:100500000D948D0C0C941C940C94B54F0C94F8F233
:100510000C94848E0C94B7680D94A3120C94D3F2AF
:100520000C94598F0C94ADF30D94450F0C944C948E
:100530000C9427A60C942C650D94700F0D947F0CD1
:100540000C940A8F0C9463F30D9499400D945E0FF4
:100550000D94820F0D94B3140C94F9F50D94A40C22
:100560000C9414A20D9449130D9472070C9429A2B3
:100570000C9432A60D94A0120D9432090D94910C96
:100580000C9475980C9447F20D944A0F0C943FFF0D
:100590000C94E89E0C94A2920C9406830D944C1338
:1005A0000C94C2980C940AF60C9493670C943DA694
:1005B0000C9489F20C9425F60C9469F20C9403F6D1
:1005C0000C94B5930C9415A60C9446940C941EF6BA
:1005D0000D9474070C9483920C948D964E414E4961
:1005E0004E495459494E46CDCCCC3D0AD7233C17F1
:1005F000B7D13877CC2B329595E6241FB14F0A003E
:100600000020410000C84200401C4620BCBE4CCA2D
:100610001B0E5AAEC59D7400407A10F35A00A072AA
:100620004E18090010A5D4E80000E876481700002D
:10063000E40B54020000CA9A3B000000E1F50500FB
:100640000080969800000040420F000000A0860144
:10065000000000102700000000E803000000006414
:1006600000000000000A000000000001000000007F
:10067000002C76D888DC674F0823DFC1DFAE59E154
:10068000B1B796E5E3E453C63AE651997696E8E6C3
:10069000C28426EB898C9B62ED407C6FFCEFBC9C96
:1006A0009F40F2BAA56FA5F490055A2AF75C936BA8
:1006B0006CF9676DC11BFCE0E40D47FEF520E6B563
:1006C00000D0ED902E0300943577050080841E083D
:1006D0000000204E0A000000C80C333333330F985B
:1006E0006E12831141EF8D2114893BE65516CFFE22
:1006F000E6DB18D1844B381BF77C1D901DA4BBE4AE
:1007000024203284725E228100C9F124ECA1E53DEF
:1007100027434F4D4D554E49434154494F4E004498
:10072000525952554E004552524F525300494E466F
:100730004F004543484F0020746F6F206C6F6E6709
:1007400020657874727573696F6E20707265766556
:100750006E7465640A0020636F6C6420657874723F
:100760007573696F6E2070726576656E7465640A64
:100770000057617274656E2E2E2E004B6C69636B90
:10078000207A756D20466F72747365747A656E0099
:100790004D6F746F72656E20616E6765736368611B
:1007A0006C74657400456E642066696C65206C69C4
:1007B00073740A00426567696E2066696C65206C17
:1007C0006973740A00286E6F2066696C652900439E
:1007D000757272656E742066696C653A20005344C8
:1007E000207072696E74696E67206279746520008A
:1007F0004E6F74205344207072696E74696E670A7C
:10080000002E0A0044656C6574696F6E206661692C
:100810006C65642C2046696C653A200046696C65FD
:100820002064656C657465643A0025697300256908
:100830006D20256973002569682025696D2025696B
:100840007300256964202569682025696D20256964
:100850007300256979202569642025696820256948
:100860006D20256973005072696E742074696D651E
:100870003A2000496E76616C69642050696E204DA3
:100880006F64650A006BC3BC686C742E2E2E006802
:1008900065697A742E2E2E0045202553006F6B005B
:1008A0006F66660032072D0726071F0711074445AC
:1008B0004255473A004D3131322053687574646FA8
:1008C000776E004D313133205300416E796375628C
:1008D000696320344D4158204F46462E004348411D
:1008E0004D4245525F54454D504552415455524535
:1008F00000424142595354455050494E47004152DD
:100900004353004D4F54494F4E5F4D4F44455300A4
:10091000544845524D414C5F50524F544543544901
:100920004F4E004C4F4E475F46494C454E414D455A
:10093000004155544F5245504F52545F53445F53FA
:100940005441545553005344434152440050524F74
:100950004D50545F535550504F525400454D4552E1
:1009600047454E43595F504152534552004341530E
:10097000455F4C494748545F4252494748544E45A9
:10098000535300544F47474C455F4C4947485453D5
:1009900000534F4654574152455F504F5745520000
:1009A0004255494C445F50455243454E54004C45D6
:1009B00056454C494E475F44415441005A5F50529E
:1009C0004F42450052554E4F5554004155544F4CDF
:1009D0004556454C005052494E545F4A4F420050D4
:1009E000524F4752455353004155544F5245504F73
:1009F00052545F54454D5000564F4C554D4554523E
:100A0000494300454550524F4D0042494E415259CD
:100A10005F46494C455F5452414E53464552005340
:100A2000455249414C5F584F4E5F584F464600462D
:100A300049524D574152455F4E414D453A4D6172C5
:100A40006C696E20344D415820322E302E363130B4
:100A50003052656C2E20284E6F76202031203230A7
:100A600032302031313A35353A31332920534F5520
:100A70005243455F434F44455F55524C3A68747446
:100A800070733A2F2F6769746875622E636F6D2FCC
:100A900047656D696E695365727665722F4D617237
:100AA0006C696E2050524F544F434F4C5F56455225
:100AB00053494F4E3A312E30204D414348494E451F
:100AC0005F545950453A416E7963756269632034C9
:100AD0004D41582045585452554445525F434F5557
:100AE0004E543A3120555549443A366161313437D4
:100AF00064322D666664352D313165392D386437A1
:100B0000312D3336326239653135353636370A00A4
:100B10002F2F20004D31343520533C696E646578A9
:100B20003E206F7574206F662072616E67652028A5
:100B3000302D31290A00205200416363656C6572D3
:100B40006174696F6E3A2050003F4A206F757420BF
:100B50006F662072616E67652028302E30312074F8
:100B60006F20302E33290A0046523A0020466C6F1F
:100B7000773A200050726F74656374656420506921
:100B80006E0A0020643A0020693A0020703A004959
:100B90006E76616C69642065787472756465720A3A
:100BA0000064697300656E0043290A0061626C6528
:100BB0006420286D696E2074656D702000436F6C31
:100BC00064206578747275646573206172652000B5
:100BD0004F4646004F4E0046696C616D656E74204D
:100BE00072756E6F75742000486F6D6576657273EF
:100BF00061747A20616B746976004572723A205490
:100C00006F6F206661722100546F6F2066617220E1
:100C100066726F6D207265666572656E63652070C1
:100C20006F696E740A00454550524F4D204F4B0A74
:100C3000004D383400446F6E65207072696E7469BF
:100C40006E672066696C650A004D3737004D333199
:100C500000496E76616C69642065787472756465AC
:100C6000720A004572726F722077726974696E67DA
:100C700020746F20454550524F4D210A00363726CB
:100C8000033C3D380E2E303E121A1C180A2C430825
:100C900009072C07084400014D343130004D313133
:100CA00032004D31303800414E474548414C5445A3
:100CB0004E005072696E7465722073746F70706547
:100CC000642064756520746F206572726F72732E74
:100CD0002046697820746865206572726F722061A1
:100CE0006E6420757365204D39393920746F207218
:100CF0006573746172742E202854656D706572611D
:100D0000747572652069732072657365742E205343
:100D100065742069742061667465722072657374ED
:100D2000617274696E67290A004E6F2043686563BB
:100D30006B73756D2077697468206C696E65206EC1
:100D4000756D6265722C204C617374204C696E6500
:100D50003A20004E6F20436865636B73756D207792
:100D6000697468206C696E65206E756D6265722CA1
:100D7000204C617374204C696E653A20006368658D
:100D8000636B73756D206D69736D617463682C207E
:100D90004C617374204C696E653A20004C696E6535
:100DA000204E756D626572206973206E6F74204CE1
:100DB000617374204C696E65204E756D6265722B8F
:100DC000312C204C617374204C696E653A20004DC3
:100DD0003131300053442072656164206572726F56
:100DE000720A002121204B494C4C206361757365C8
:100DF0006420627920746F6F206D75636820696E5E
:100E00006163746976652074696D65202D20637552
:100E10007272656E7420636F6D6D616E643A20004E
:100E2000627573793A2070617573656420666F72BC
:100E300020696E7075740A00627573793A2070616A
:100E40007573656420666F7220757365720A00623F
:100E50007573793A2070726F63657373696E670A90
:100E6000004D656469756D20656E746665726E749B
:100E7000004D656469756D2065726B616E6E7400FE
:100E80004D3630300020573A0042657474206BC3F1
:100E9000BC686C742E2E2E004265747420686569DF
:100EA0007A742E2E2E0023646566696E6520444593
:100EB0004641554C545F004B6420004B6920004B69
:100EC000702000504944204175746F74756E652020
:100ED00066696E6973686564212050757420746852
:100EE00065206C617374204B702C204B6920616EFF
:100EF00064204B6420636F6E7374616E747320663C
:100F0000726F6D2062656C6F7720696E746F20431D
:100F10006F6E66696775726174696F6E2E680A001C
:100F2000504944204175746F74756E65206661691F
:100F30006C6564212074696D656F75740A00504991
:100F400044204175746F74756E65206661696C65C7
:100F500064212054656D70657261747572652074CA
:100F60006F6F20686967680A00204B643A20002090
:100F70004B693A2000204B703A20000A20436C61F4
:100F80007373696320504944200A002054753A2045
:100F900000204B753A2000206D61783A2000206DCA
:100FA000696E3A200020643A200020626961733A39
:100FB0002000504944204175746F74756E6520732C
:100FC000746172740A00504944204175746F7475DD
:100FD0006E65206661696C6564212054656D70657D
:100FE00072617475726520746F6F20686967680A32
:100FF00000504944204175746F74756E6500504906
:1010000044204175746F74756E65206661696C6506
:101010006421204261642065787472756465722071
:101020006E756D6265720A004572723A207574665B
:101030003820666F6E74206E6F7420696E697469F3
:10104000616C697A65642E004572723A2075746627
:101050003820666F6E74206E6F7420696E697469D3
:10106000616C697A65642E004572723A2075746607
:101070003820666F6E74206E6F7420696E697469B3
:10108000616C697A65642E002568753A253032688E
:10109000750025303268753A25303268750025684C
:1010A00075642025303268753A2530326875000045
:1010B0000C0F00FE07022603BC01FFFE0AFE08FE1D
:1010C00005080806000040F0C888889878100508D0
:1010D00008060000C0F88888888888F80505050695
:1010E00000012030F830200508080600002070F8C4
:1010F00020202020E00509090600FF2070A8A8B8DC
:1011000088887020050606060001E08CEA8C8A0AB1
:101110000509090600FFF8A88888888888A8F805C6
:101120000A0A0600FE205050505088A8A888700374
:10113000030306000340A040FFFFFFFFFFFFFFFF88
:10114000FFFFFFFFFFFFFFFFFFFFFFFFFFFF0000AD
:10115000000605FF010707060200808080808000EE
:1011600080030303060105A0A0A0050606060000F3
:1011700050F85050F8500509090600FF2070A8A04B
:101180007028A87020050707060000C8C810204076
:10119000989805070706000040A0A040A8906801A5
:1011A00003030602058080800309090601FF204031
:1011B000408080804040200309090601FF804040B4
:1011C00020202040408005070706000020A870204E
:1011D00070A8200505050600012020F82020020344
:1011E000030601FFC04080050101060003F802026A
:1011F00002060100C0C00507070600000810102005
:10120000404080050707060000708898A8C88870CD
:1012100003070706010040C040404040E0050707C3
:10122000060000708808102040F805070706000037
:10123000F8081030088870050707060000103050C5
:1012400090F81010050707060000F880F0080888DD
:1012500070050707060000304080F0888870050799
:1012600007060000F80810102020200507070600D8
:1012700000708888708888700507070600007088ED
:101280008878081060020505060100C0C000C0C0D3
:101290000206060601FFC0C000C040800305050627
:1012A00001012040804020050303060002F800F8F9
:1012B0000305050601018040204080050707060060
:1012C00000708810202000200507070600007088A5
:1012D000B8A8B88070050707060000708888F888ED
:1012E0008888050707060000F04848704848F00560
:1012F0000707060000708880808088700507070651
:101300000000F04848484848F0050707060000F884
:101310008080F08080F8050707060000F88080F0E4
:10132000808080050707060000708880809888709C
:10133000050707060000888888F88888880307075B
:10134000060100E04040404040E00507070600007D
:10135000381010101090600507070600008890A054
:10136000C0A09088050707060000808080808080EC
:10137000F805070706000088D8A888888888050728
:10138000070600008888C8A898888805070706000F
:101390000070888888888870050707060000F08834
:1013A00088F080808005070706000070888888A87C
:1013B0009068050707060000F08888F0A09088056F
:1013C0000707060000708880700888700507070608
:1013D0000000F820202020202005070706000088B4
:1013E00088888888887005070706000088888888AC
:1013F00050502005070706000088888888A8A85054
:1014000005070706000088885020508888050707D0
:1014100006000088885020202020050707060000CD
:10142000F80810204080F80309090601FFE08080D9
:101430008080808080E00507070600008040402013
:101440001010080309090601FFE0202020202020B9
:1014500020E0050303060005205088050101060071
:10146000FEF803030306010580402005050506007C
:101470000070087888780507070600008080F088EB
:101480008888F005050506000070808088700507D3
:101490000706000008087888888878050505060092
:1014A000007088F08070050707060000304840E0B3
:1014B0004040400507070600FE708888887808705D
:1014C0000507070600008080F088888888030707E2
:1014D0000601004000C0404040E00409090601FE4A
:1014E00010003010101010906005070706000080F3
:1014F000808890E09088030707060100C0404040C4
:101500004040E0050505060000D0A8A8A8A80505EC
:1015100005060000B0C8888888050505060000702B
:10152000888888700507070600FEF0888888F080A4
:10153000800507070600FE78888888780808050572
:1015400005060000B0C8808080050505060000780B
:10155000807008F00507070600002020F8202020F2
:1015600018050505060000888888986805050506A1
:10157000000088888850200505050600008888A896
:10158000A85005050506000088502050880507076B
:101590000600FE888888502040800505050600006A
:1015A000F8102040F80309090601FF204040408060
:1015B000404040200109090602FF80808080808031
:1015C0008080800309090601FF80404040204040A0
:1015D000408005030306000248A890FFFFFFFFFFBD
:1015E000FFFFFFFFFFFFFFFFFFFFFFFFFFFFFFFF0B
:1015F000FFFFFFFFFFFFFFFFFFFFFFFF00000006F1
:1016000005FF0107070602008000808080808005BA
:1016100007070600FF2070A8A0A87020050707068E
:101620000000304840E04048B0050505060000A82D
:10163000508850A80507070600008850F820F820B9
:101640002001070706020080808000808080040857
:101650000806010070806090906010E003010106B0
:101660000107A00607070600007884B4A4B48478B4
:1016700003050506010460A06000E00505050600FD
:10168000002850A05028050303060001F8080803AD
:101690000101060103E00607070600007884B4A4F0
:1016A000A48478050101060007F804040406010576
:1016B000609090600507070600002020F8202000B9
:1016C000F803050506010440A02040E003050506D7
:1016D0000104C0204020C003030306010520408010
:1016E0000507070600FE88888898E88080050808B6
:1016F00006000078E8E8E8682828280202020602C6
:1017000003C0C00302020601FE20C0030505060156
:101710000440C04040E003050506010540A040002C
:10172000E0050505060000A0502850A0050A0A069D
:10173000000040C048506050B0507810050A0A06BA
:10174000000040C048506050A8081038050A0A063A
:101750000000C0204830E050B05078100507070660
:10176000000020002020408870050A0A0600004082
:101770002000708888F8888888050A0A060000100A
:101780002000708888F8888888050A0A06000020EA
:101790005000708888F8888888050A0A0600006862
:1017A000B000708888F8888888050909060000500C
:1017B00000708888F8888888050A0A06000020508A
:1017C00020708888F888888805070706000078A0B8
:1017D000A0F0A0A0B80509090600FE7088808080EE
:1017E00088701060050A0A060000402000F880801A
:1017F000F08080F8050A0A060000102000F88080BA
:10180000F08080F8050A0A060000205000F8808069
:10181000F08080F80509090600005000F88080F08B
:101820008080F8030A0A060100804000E040404042
:101830004040E0030A0A060100204000E04040402A
:101840004040E0030A0A06010040A000E04040409A
:101850004040E0030909060100A000E0404040408C
:1018600040E0050707060000704848E84848700552
:101870000A0A06000068B0008888C8A89888880509
:101880000A0A060000402000708888888888700551
:101890000A0A060000102000708888888888700571
:1018A0000A0A060000205000708888888888700521
:1018B0000A0A06000068B000708888888888700569
:1018C000090906000050007088888888887005051E
:1018D0000506000188502050880509090600FF0808
:1018E0007098A8A8A8C87080050A0A0600004020C1
:1018F0000088888888888870050A0A0600001020F9
:101900000088888888888870050A0A0600002050A8
:1019100000888888888888700509090600005000BA
:1019200088888888888870050A0A060000102000C8
:101930008888502020202004070706010080E090BE
:101940009090E080050707060000708890A09088BE
:10195000B005080806000040200070087888780567
:10196000080806000010200070087888780508082C
:1019700006000020500070087888780508080600E6
:101980000068B000700878887805070706000050E6
:10199000007008788878050808060000205020703C
:1019A00008788878050505060000702870A078057D
:1019B00007070600FE70888088701060050808061A
:1019C00000004020007088F08070050808060000C4
:1019D0001020007088F08070050808060000205074
:1019E000007088F0807005070706000050007088BE
:1019F000F08070030808060100804000C0404040AD
:101A0000E0030808060100204000C0404040E00319
:101A1000080806010040A000C0404040E00307075E
:101A2000060100A000C0404040E005090906000092
:101A300050205008788888887005080806000068DB
:101A4000B000B0C88888880508080600004020005B
:101A500070888888700508080600001020007088CB
:101A60008888700508080600002050007088888863
:101A70007005080806000068B00070888888700546
:101A80000707060000500070888888700505050665
:101A900000012000F800200505050600007898A840
:101AA000C8F0050808060000402000888888887073
:101AB000050808060000102000888888887005083E
:101AC00008060000205000888888887005070706EF
:101AD000000050008888888870050A0A0600FE10F9
:101AE0002000888888502040800509090600FE8073
:101AF00080F0888888F080800509090600FE500083
:101B0000888888502040804C6164656E206D6D002F
:101B1000456E746C6164656E206D6D0046696C6124
:101B20006D656E7464757263686D6573736572005C
:101B30004520696E206D6DC2B3004D3330332055A2
:101B400031204525692053256900504944204175BD
:101B5000746F74756E65202A005049442D44202A04
:101B6000005049442D49202A005049442D50202A34
:101B70000020082046616B746F72002008206D61A0
:101B800078002008206D696E0061757300616E0039
:101B90004175746F2054656D706572617475720063
:101BA0004265776567756E67004D6F746F72656E1D
:101BB000206465616B746976696572656E004D3885
:101BC000340045636B656E206E6976656C6C696583
:101BD00072656E00486F6D65205A004732385A00B2
:101BE000486F6D652059004732385900486F6D6560
:101BF00020580047323858004175746F20486F6D87
:101C000065004732380048617570746D656EC3BCFD
:101C1000002420457874722E20566F7277C3A47208
:101C20006D656E0024204265747420566F7277C310
:101C3000A4726D656E0054656D7065726174757225
:101C40000041626BC3BC686C656E002420566F72E5
:101C500077C3A4726D656E004CC3BC667465720078
:101C6000426574740044C3BC736500486175707448
:101C70006D656EC3BC00466C7573737261746500EC
:101C80004CC3BC6674657200426574740044C3BC86
:101C90007365004765736368772E004861757074DB
:101CA0006D656EC3BC00FFFDFCFAF8F6F4F2F0EED1
:101CB000ECEAE9E7E5E3E1E0DEDCDAD9D7D5D4D236
:101CC000D0CFCDCBCAC8C7C5C3C2C0BFBDBCBAB9CF
:101CD000B7B6B4B3B2B0AFADACAAA9A8A6A5A4A23A
:101CE000A1A09E9D9C9A99989795949392908F8E7F
:101CF0008D8B8A8988878684838281807F7E7D7BA5
:101D00007A797877767574737271706F6E6D6C6BAB
:101D10006A696867666564636261605F5E5D5C5B9B
:101D20005A5958585756555453525150504F4E4D7A
:101D30004C4B4A4A49484746464544434242414043
:101D40003F3E3E3D3C3B3B3A3938383736353534FB
:101D50003332323130302F2E2E2D2C2B2B2A2929A5
:101D600028272726252524232322212120201F1E42
:101D70001E1D1C1C1B1B1A191918181716161515D1
:101D800014131312121111100F0F0E0E0D0D0C0C57
:101D90000B0A0A09090808070706060505040403D3
:101DA00003020201000000005A4300005A430000F1
:101DB00096430000A0C0000000000000000045693C
:101DC0006E7374656C6C2E206765737065692E0088
:101DD000290A002062797465733B206372632000D6
:101DE00053657474696E67732053746F72656420F1
:101DF00028004669656C64206261636B6C6173687E
:101E00005F64697374616E63655F6D6D206D697386
:101E10006D617463682E0A004669656C64206663B0
:101E20005F73657474696E6773206D69736D617437
:101E300063682E0A004669656C6420706C616E6E82
:101E400065725F736B65775F666163746F72206D37
:101E500069736D617463682E0A004669656C64205D
:101E6000636F6F7264696E6174655F7379737465B3
:101E70006D206D69736D617463682E0A0046696533
:101E80006C64206D6F746F725F63757272656E74CF
:101E90005F73657474696E67206D69736D617463D7
:101EA000682E0A004669656C6420706C616E6E6510
:101EB000725F65787472756465725F616476616E75
:101EC00063655F4B206D69736D617463682E0A00F2
:101ED0004669656C6420746D635F737465616C74CE
:101EE000685F656E61626C6564206D69736D6174B5
:101EF00063682E0A004669656C6420746D635F68D0
:101F000079627269645F7468726573686F6C64206B
:101F10006D69736D617463682E0A004669656C644F
:101F200020746D635F737465707065725F63757242
:101F300072656E74206D69736D617463682E0A003A
:101F40004669656C64207061727365725F766F6C50
:101F5000756D65747269635F656E61626C6564203E
:101F60006D69736D617463682E0A004669656C64FF
:101F7000206677726574726163745F7365747469E7
:101F80006E6773206D69736D617463682E0A004615
:101F900069656C64207265636F766572795F656EE2
:101FA00061626C6564206D69736D617463682E0A8B
:101FB000004669656C6420636F6E74726F6C6C654B
:101FC0007246616E5F73657474696E6773206D69C4
:101FD000736D617463682E0A004669656C64206CD9
:101FE00063645F636F6E7472617374206D69736D87
:101FF000617463682E0A004669656C6420706F77AF
:1020000065725F6D6F6E69746F725F666C61677326
:10201000206D69736D617463682E0A004669656C92
:102020006420626564504944206D69736D61746316
:10203000682E0A004669656C64206C70715F6C657F
:102040006E206D69736D617463682E0A0046696560
:102050006C6420686F74656E64504944206D6973C8
:102060006D617463682E0A004669656C6420756949
:102070005F6D6174657269616C5F707265736574C0
:10208000206D69736D617463682E0A004669656C22
:102090006420626C746F7563685F6C6173745F77E2
:1020A00072697474656E5F6D6F6465206D69736DC0
:1020B000617463682E0A004669656C6420736572FA
:1020C000766F5F616E676C6573206D69736D6174A7
:1020D00063682E0A004669656C6420706C616E6EE0
:1020E00065725F6C6576656C696E675F6163746964
:1020F0007665206D69736D617463682E0A004669A8
:10210000656C642070726F62655F6F66667365747C
:10211000206D69736D617463682E0A004669656C91
:10212000642072756E6F75745F73656E736F725F26
:10213000656E61626C6564206D69736D617463685E
:102140002E0A004669656C6420686F6D655F6F6676
:1021500066736574206D69736D617463682E0A001F
:102160004669656C64206573746570706572732070
:102170006D69736D617463682E0A00447275636BD8
:10218000206162676562726F6368656E004D32350B
:1021900020500A4D32340050617573652E2E2E008A
:1021A0005761726E696E673A20436C65616E2043B9
:1021B0006972636C65207265717569726573205808
:1021C000590A005761726E696E673A2052616469FC
:1021D0007573204F7574206F662052616E67650AB3
:1021E00000486F6D696E6720676573636865697421
:1021F000657274006F70656E0054524947474552CE
:102200004544003A200066696C616D656E74007A21
:102210005F6D696E00795F6D696E00785F6D696EE4
:10222000005265706F7274696E6720656E647374B6
:102230006F70207374617475730A00566F726865ED
:10224000722025732573257320686F6D656E0000FD
:1022500000A0C00000000000000000000048420094
:10226000004842000020415761726E696E673A2053
:10227000486F6D696E672042756D7020446976699C
:10228000736F72203C20310A000202040000A0405B
:102290000000A0400000004000005F4300005A43DF
:1022A00000009643FFFFFF00000001000000010056
:1022B000008000555555000000400033333300AA1C
:1022C000AA2A004992240000002000C7711C00992E
:1022D000991900D1451700555515003BB11300243D
:1022E00049120011111100000010000F0F0F00E340
:1022F000380E0043790D00CCCC0C00C3300C00E844
:10230000A20B0064210B00AAAA0A00703D0A009DDE
:10231000D80900427B090092240900DCD308008818
:102320008808001042080000000800F0C10700877C
:1023300087070075500700711C07003EEB0600A1DF
:10234000BC06006990060066660600703E060061E5
:1023500018060017F4050074D105005BB00500B243
:10236000900500627205005555050078390500B8E2
:102370001E0500050505004EEC040087D40400A1ED
:10238000BD040090A7040049920400C17D0400EE42
:10239000690400C7560400444404005C3204000889
:1023A00021040041100400000004003FF00300F885
:1023B000E0030026D20300C3C30300CCB503003AF8
:1023C000A803000A9B0300388E0300C08103009F0E
:1023D000750300D0690300505E03001D53030034F1
:1023E000480300913D0300333303001629030038EE
:1023F0001F030097150300300C0300030303000BB9
:10240000FA020049F10200BAE802005CE002002D85
:10241000D802002DD0020059C80200B0C00200311D
:10242000B90200DAB10200AAAA0200A0A30200BC0D
:102430009C0200FA9502005C8F0200DF8802008295
:10244000820200457C0200277602002770020043CA
:102450006A02007C640200D05E02003F590200C89C
:102460005302003F0041626272656368656E00421C
:10247000657374C3A4746967656E004D34323800A7
:102480005765726B7365696E7374656C6C756E6796
:10249000656E0046696C616D656E740054656D70A3
:1024A0006572617475720053746570732F6D6D0081
:1024B0004A756E6374696F6E204465760042657379
:1024C00063686C65756E6967756E670047657363F1
:1024D0006877696E6469676B656974005365747ABF
:1024E0006520486F6D657665727361747A004B6F15
:1024F0006E66696775726174696F6E003F004EC3E6
:10250000A46368737465204B6F6F7264696E617445
:102510006500466572746967005765697465720085
:10252000486F6D696E672058595A0041757373631F
:1025300068616C742044656C6179004CC3BC66743E
:102540006572204D6F746F726C617374004D6F749F
:102550006F726C617374204D6F647573004CC3BCF3
:1025600066746572204C6565726C617566004265C3
:1025700074740044C3BC7365004CC3BC667465725C
:10258000004B6F6E66696775726174696F6E004E9D
:1025900065747A7465696C00532D3330302D313297
:1025A0000050726F746F6B6F6C6C00312E30004294
:1025B00061756472617465003235303030300041CD
:1025C0006E7963756269632052414D505320312EFC
:1025D00034004578747275646572003100687474F3
:1025E00070733A2F2F6769742E696F2F666A587A55
:1025F0007200416E79637562696320344D41580001
:10260000323032302D30382D323800344D415820A0
:10261000322E302E3631303052656C2E004D6172C4
:102620006C696E00546865726D6973746F72656E63
:1026300000426F6172642D496E666F00447275636B
:102640006B65722D496E666F0048617570746D65BB
:102650006EC3BC003F005A7572C3BC636B005374F9
:102660006F70004B65696E204D656469756D00443F
:102670007275636B20766F6D204D656469756D00B2
:1026800046696C616D656E74207765636873656C0F
:102690006E004B6F6E66696775726174696F6E006C
:1026A00054656D7065726174757200426577656717
:1026B000756E670053442D447275636B20666F72AC
:1026C000747365747A656E00C39C6265722064657C
:1026D0006E20447275636B6572004A757374696528
:1026E00072756E670053442D447275636B2061628E
:1026F0006272656368656E0053442D447275636B46
:102700002070617573696572656E00496E666F0051
:102710003F0053746172746520447275636B0041AD
:10272000626272656368656E00447275636B656EA4
:102730000043616E6E6F7420656E746572207375F0
:10274000626469723A2000022E2E0048617570742E
:102750006D656EC3BC0001FFFFFFFFFFFFFFFFFFC2
:10276000FFFFFFFF0FFFFFFFFFFFFFFFFFFFFFFF69
:10277000FFFF1E0000000000000000000007FFFF38
:10278000380000000000000000000003FFFF7000A0
:1027900000000000000000000001FFFF60000000DA
:1027A0000000000000000000FFFF600000000000CB
:1027B0000000000000007FFFC000000000000000DB
:1027C000007800003FFFC00FC0FC00000000007850
:1027D00018001FFFC03FE1FF0000000000783C0030
:1027E0000FFFC07FF3FF8000000000783C0007FF70
:1027F000C0FFFFFFC000000000783C0003FFC1F8ED
:102800007F87E00000000078000001FFC1F03F0377
:10281000E00000000078000000FFC1E01E01E01FA2
:102820000003E0783C03F07FC1E01E01E07FC00FB1
:10283000F8783C07FC3FC1E01E01E1FFE01FFC7897
:102840003C0FFE1FC1E01E01E3FFF03FFE783C1F7E
:10285000FE0FC1E01E01E3F3F83F3E783C3F3F0727
:10286000C1E01E01E7E0FC7C1F783C3E1F07C1E091
:102870001E01E7C07C7C0F783C3C0F03C1E01E01C9
:10288000E7807C780F783C3C0F03C1E01E01E780B5
:102890003C7800783C3C0F03C1E01E01E7803C78A7
:1028A00000783C3C0F03C1E01E01E7803C780078D3
:1028B0003C3C0F03C1E01E01E7C03C7800783C3C83
:1028C0000F03C1E01E01E3E03C78007C3C3C0F03B9
:1028D000C1E01E01E3FF3FF8007FBC3C0F03C1E0F5
:1028E0001E01E1FF3FF8003FBFFC0F03C1E01E01E6
:1028F000E0FF3FF8001FBFFC0F03C1E01E01E07FB7
:102900003FF8000FBFFC0F03600000000000000054
:102910000000000000076000000000000000000050
:102920000000000670000000000000000000000031
:10293000000E380000000000000000000000001C35
:102940001E000000000000000000000000780FFFE3
:10295000FFFFFFFFFFFFFFFFFFFFFFF001FFFFFF94
:10296000FFFFFFFFFFFFFFFFFF8001FFFFFFFFFFF4
:10297000FFFFFFFFFFFFFFFF0FFFFFFFFFFFFFFF57
:10298000FFFFFFFFFFFF1E0000000000000000002F
:102990000007FFFF380000000000000000000003F7
:1029A000FFFF700000000000000000000001FFFFBA
:1029B000600000000000000000000000FFFF600059
:1029C000000000000000000000007FFFC0000000C9
:1029D00000000000007800003FFFC00FC0FC0000B6
:1029E0000000007818001FFFC03FE1FF000000005A
:1029F00000783C000FFFC07FF3FF800000000078EC
:102A00003C0007FFC0FFFFFFC000000000783C0053
:102A100003FFC1F87F87E00000000078000001FF9D
:102A2000C1F03F03E00000000078000000FFC1E0BB
:102A30001E01E01F0003E0783C00007FC1E01E01A2
:102A4000E07FC00FF8783C00003FC1E01E01E1FFCD
:102A5000E01FFC783C00001FC1E01E01E3FFF03FD7
:102A6000FE783C00000FC1E01E01E3F3F83F3E7822
:102A70003C000007C1E01E01E7E0FC7C1F783C0041
:102A80000007C1E01E01E7C07C7C0F783C0000031A
:102A9000C1E01E01E7807C780F783C000003C1E0B4
:102AA0001E01E7803C7800783C000003C1E01E0175
:102AB000E7803C7800783C000003C1E01E01E7801D
:102AC0003C7800783C000003C1E01E01E7C03C7880
:102AD00000783C000003C1E01E01E3E03C78007C8C
:102AE0003C000003C1E01E01E3FF3FF8007FBC0093
:102AF0000003C1E01E01E1FF3FF8003FBF000003FB
:102B0000C1E01E01E0FF3FF8001FBF000003C1E06D
:102B10001E01E07F3FF8000FBF00000360000000CF
:102B2000000000000000000000076000000000003E
:102B3000000000000000000670000000000000001F
:102B400000000000000E380000000000000000003F
:102B50000000001C1E00000000000000000000003B
:102B600000780FFFFFFFFFFFFFFFFFFFFFFFFFF0FA
:102B700001FFFFFFFFFFFFFFFFFFFFFFFF8001FFE0
:102B8000FFFFFFFFFFFFFFFFFFFFFFFF0FFFFFFF45
:102B9000FFFFFFFFFFFFFFFFFFFF1E000000000021
:102BA000000000000007FFFF3800000000000000E8
:102BB00000000003FFFF70000000000000000000A4
:102BC0000001FFFF600000000000000000000000A6
:102BD000FFFF6000000000000000000000007FFF19
:102BE000C000000000000000007800003FFFC00FA0
:102BF000C0FC00000000007800001FFFC03FE1FFA4
:102C000000000000007800000FFFC07FF3FF80008D
:102C100000000078000007FFC0FFFFFFC0000000B9
:102C20000078000003FFC1F87F87E0000000007813
:102C3000000001FFC1F03F03E00000000078000049
:102C400000FFC1E01E01E01F0003E0780000007FEC
:102C5000C1E01E01E07FC00FF8780000003FC1E036
:102C60001E01E1FFE01FFC780000001FC1E01E0113
:102C7000E3FFF03FFE780000000FC1E01E01E3F328
:102C8000F83F3E7800000007C1E01E01E7E0FC7C51
:102C90001F7800000007C1E01E01E7C07C7C0F78B0
:102CA00000000003C1E01E01E7807C780F7800007F
:102CB0000003C1E01E01E7803C78007800000003BB
:102CC000C1E01E01E7803C78007800000003C1E00D
:102CD0001E01E7803C78007800000003C1E01E017F
:102CE000E7C03C78007800000003C1E01E01E3E08B
:102CF0003C78007C00000003C1E01E01E3FF3FF8C8
:102D0000007F00000003C1E01E01E1FF3FF8003F2B
:102D100000000003C1E01E01E0FF3FF8001F0000BB
:102D20000003C1E01E01E07F3FF8000F0000000338
:102D300060000000000000000000000000076000CC
:102D4000000000000000000000000006700000000D
:102D50000000000000000000000E3800000000002D
:102D6000000000000000001C1E0000000000000029
:102D70000000000000780FFFFFFFFFFFFFFFFFFFD5
:102D8000FFFFFFF001FFFFFFFFFFFFFFFFFFFFFF60
:102D9000FF8001FFFFFFFFFFFFFFFFFFFFFFFFFFC0
:102DA0000FFFFFFFFFFFFFFFFFFFFFFFFFFF1E0003
:102DB00000000000000000000007FFFF38000000D6
:102DC0000000000000000003FFFF70000000000092
:102DD000000000000001FFFF600000000000000094
:102DE00000000000FFFF6000000000000000000085
:102DF00000007FFFC0000000000000000000000095
:102E00003FFFC00FC0FC00000000000000001FFFDB
:102E1000C03FE1FF00000000000000000FFFC07F86
:102E2000F3FF800000000000000007FFC0FFFFFF6D
:102E3000C00000000000000003FFC1F87F87E00031
:102E400000000000000001FFC1F03F03E0000000AF
:102E50000000000000FFC1E01E01E01F0003E000D1
:102E60000000007FC1E01E01E07FC00FF8000000FD
:102E7000003FC1E01E01E1FFE01FFC000000001F59
:102E8000C1E01E01E3FFF03FFE000000000FC1E0C3
:102E90001E01E3F3F83F3E0000000007C1E01E0101
:102EA000E7E0FC7C1F0000000007C1E01E01E7C056
:102EB0007C7C0F0000000003C1E01E01E7807C78ED
:102EC0000F0000000003C1E01E01E7803C78000015
:102ED00000000003C1E01E01E7803C780000000014
:102EE0000003C1E01E01E7803C7800000000000301
:102EF000C1E01E01E7C03C78000000000003C1E013
:102F00001E01E3E03C78000000000003C1E01E0168
:102F1000E3FF3FF8000000000003C1E01E01E1FFF5
:102F20003FF8000000000003C1E01E01E0FF3FF891
:102F3000000000000003C1E01E01E07F3FF8000038
:102F4000000000036000000000000000000000001E
:102F50000007600000000000000000000000000604
:102F6000700000000000000000000000000E3800AB
:102F700000000000000000000000001C1E00000017
:102F8000000000000000000000780FFFFFFFFFFFBF
:102F9000FFFFFFFFFFFFFFF001FFFFFFFFFFFFFF4E
:102FA000FFFFFFFFFF8001FFFFFFFFFFFFFFFFFFAE
:102FB000FFFFFFFF0FFFFFFFFFFFFFFFFFFFFFFF11
:102FC000FFFF1E0000000000000000000007FFFFE0
:102FD000380000000000000000000003FFFF700048
:102FE00000000000000000000001FFFF6000000082
:102FF0000000000000000000FFFF60000000000073
:103000000000000000007FFFC00000000000000082
:10301000000000003FFFC00FC0FC000000000000E7
:1030200000001FFFC03FE1FF0000000000000000A3
:103030000FFFC07FF3FF800000000000000007FFCB
:10304000C0FFFFFFC00000000000000003FFC1F848
:103050007F87E00000000000000001FFC1F03F0397
:10306000E00000000000000000FFC1E01E01E01FC2
:10307000000000000000007FC1E01E01E07FC000F2
:1030800000000000003FC1E01E01E1FFE000000081
:103090000000001FC1E01E01E3FFF000000000007F
:1030A000000FC1E01E01E3F3F8000000000000077C
:1030B000C1E01E01E7E0FC00000000000007C1E0E5
:1030C0001E01E7C07C00000000000003C1E01E01FB
:1030D000E7807C00000000000003C1E01E01E780E3
:1030E0003C00000000000003C1E01E01E7803C003E
:1030F000000000000003C1E01E01E7803C0000006A
:1031000000000003C1E01E01E7C03C000000000019
:103110000003C1E01E01E3E03C00000000000003EA
:10312000C1E01E01E3FF3F00000000000003C1E01A
:103130001E01E1FF3F00000000000003C1E01E018E
:10314000E0FF3F00000000000003C1E01E01E07F3F
:103150003F000000000000036000000000000000CD
:1031600000000000000760000000000000000000F8
:1031700000000006700000000000000000000000D9
:10318000000E380000000000000000000000001CDD
:103190001E000000000000000000000000780FFF8B
:1031A000FFFFFFFFFFFFFFFFFFFFFFF001FFFFFF3C
:1031B000FFFFFFFFFFFFFFFFFF8001FFFFFFFFFF9C
:1031C000FFFFFFFFFFFFFFFF0FFFFFFFFFFFFFFFFF
:1031D000FFFFFFFFFFFF1E000000000000000000D7
:1031E0000007FFFF3800000000000000000000039F
:1031F000FFFF700000000000000000000001FFFF62
:10320000600000000000000000000000FFFF600000
:10321000000000000000000000007FFFC000000070
:1032200000000000000000003FFFC00FC0FC0000D5
:103230000000000000001FFFC03FE1FF0000000091
:10324000000000000FFFC07FF3FF800000000000BF
:10325000000007FFC0FFFFFFC000000000000000EB
:1032600003FFC1F87F87E00000000000000001FFBD
:10327000C1F03F03E00000000000000000FFC1E0DB
:103280001E01E000000000000000007FC1E01E0100
:10329000E000000000000000003FC1E01E01E0006F
:1032A000000000000000001FC1E01E01E00000005F
:1032B00000000000000FC1E01E01E000000000005F
:1032C00000000007C1E01E01E00000000000000057
:1032D0000007C1E01E01E000000000000000000344
:1032E000C1E01E01E0000000000000000003C1E09A
:1032F0001E01E0000000000000000003C1E01E010C
:10330000E0000000000000000003C1E01E01E0003A
:103310000000000000000003C1E01E01E00000000A
:10332000000000000003C1E01E01E00000000000FA
:1033300000000003C1E01E01E000000000000000EA
:103340000003C1E01E01E0000000000000000003D7
:10335000C1E01E01E0000000000000000003C1E029
:103360001E01E000000000000000000360000000FB
:1033700000000000000000000007600000000000E6
:1033800000000000000000067000000000000000C7
:1033900000000000000E38000000000000000000E7
:1033A0000000001C1E0000000000000000000000E3
:1033B00000780FFFFFFFFFFFFFFFFFFFFFFFFFF0A2
:1033C00001FFFFFFFFFFFFFFFFFFFFFFFF8001FF88
:1033D000FFFFFFFFFFFFFFFFFFFFFFFF0FFFFFFFED
:1033E000FFFFFFFFFFFFFFFFFFFF1E0000000000C9
:1033F000000000000007FFFF380000000000000090
:1034000000000003FFFF700000000000000000004B
:103410000001FFFF6000000000000000000000004D
:10342000FFFF6000000000000000000000007FFFC0
:10343000C000000000000000000000003FFFC000CE
:10344000000000000000000000001FFFC00000009E
:1034500000000000000000000FFFC000000000009E
:1034600000000000000007FFC00000000000000096
:103470000000000003FFC00000000000000000008A
:10348000000001FFC000000000000000000000007C
:1034900000FFC00000000000000000000000007FEE
:1034A000C00000000000000000000000003FC0005D
:1034B00000000000000000000000001FC00000002D
:1034C0000000000000000000000FC000000000002D
:1034D0000000000000000007C00000000000000025
:1034E000000000000007C000000000000000000015
:1034F00000000003C0000000000000000000000009
:103500000003C000000000000000000000000003F5
:10351000C000000000000000000000000003C00028
:10352000000000000000000000000003C0000000D8
:1035300000000000000000000003C00000000000C8
:103540000000000000000003C000000000000000B8
:10355000000000000003C0000000000000000000A8
:1035600000000003C0000000000000000000000098
:103570000003C00000000000000000000000000385
:103580006000000000000000000000000007600074
:1035900000000000000000000000000670000000B5
:1035A0000000000000000000000E380000000000D5
:1035B000000000000000001C1E00000000000000D1
:1035C0000000000000780FFFFFFFFFFFFFFFFFFF7D
:1035D000FFFFFFF001FFFFFFFFFFFFFFFFFFFFFF08
:1035E000FF8000000000000000000000000000005C
:1035F00000000000000000000000000000000000CB
:10360000000000047F03E00001F8000F00007F804D
:1036100003F0000C7F03F00003F8001F80007FC060
:1036200007F0000C7F03F80007F8003F80007FC020
:103630000FF0001C7F03FC000FF8003FC0003FE0CC
:103640001FF0001C7F03FE001FF8003FC0001FF0AA
:103650003FF0003C7F01FF003FF8001FE0000FF843
:103660007FF0003C7F00FF807FF8000FE00007F84C
:103670007FE0007C7F007FC0FFF8000FF00007FCB8
:103680003FC0007C7F003FE1FFF80007F80003FE29
:103690001F8000FC7F001FFFFFF80187F80001FF7B
:1036A0000F0000FC7F030FFFFFF801C3FC0000FFC9
:1036B000860001FC7F0387FFF3F803E3FC00007F33
:1036C000800001FC7F03C3FFE3F803E1FE00007FFD
:1036D000C00003FC7F03E1FFC3F807F1FE00003FD9
:1036E000E00003FC7FE3F0FF83F807F0FF00001F1A
:1036F000F00007FC7FE3F87F03F80FF07F00000F76
:10370000F00007FC7FE3F81E03F80FE07F80000F56
:10371000F8000FFC7FE3F80003F81FE3FF80038746
:10372000FC000FFC7FE3F80003F81FC3FFC007C3D2
:10373000FE001FFC7FE3F80003F83FC7FFC00FE166
:10374000FE0000007F03F80003F83F87FFE01FF151
:10375000FF0000007F03F80003F87F8FFFE03FF0D9
:10376000FF8000007F03F80003F87F0FFFF07FF079
:103770007FC000007F03F80003F8FF0007F0FFE0C0
:103780003FC000007F03F80003F8FE0007F8FFC009
:103790003FE000007F03F80003F9FE0003F8FF801C
:1037A0001FF000007F03F80003F9FC0003FCFF009A
:1037B0000FF000007F03F80003FBFC0001FCFE009B
:1037C0000FF00000000000000000000000000000FA
:1037D00000000000000000000000000000000000E9
:1037E000000068747470733A2F2F6769742E696FC4
:1037F0002F666A587A7200344D415820322E302E8E
:103800003631303052656C2E00CE33BA31A62F924D
:103810002D7E2B6A29562770012C0190012701B0BB
:10382000012201C0011D01F0011801100213013035
:10383000020E016002090190020401C002FF0000B3
:1038400003FA004003F5008003F000D003EB0020F2
:1038500004E6007004E100E004DC004005D700C08D
:1038600005D2004006CD00D006C8008007C3003056
:1038700008BE00F008B900C009B400B00AAF00B03B
:103880000BAA00D00CA500000EA000500F9B00C09A
:103890001096005012910000148C00C0158700B0E3
:1038A000178200B0197D00D01B7800001E73004005
:1038B000206E0090226900F024640040275F009091
:1038C000295A00E02B5500102E500020304B0010DC
:1038D000324600E033410090353C0010373700702D
:1038E000383200A0392D00B03A2800A03B230060F8
:1038F0003C1E00103D1900903D1400103E0F00705A
:103900003E0A00C03E0500003F0000403FFBFF8034
:103910003FF6FFC03FF1FF2020506C616E6E657274
:1039200042756666657242797465733A2000204676
:10393000726565204D656D6F72793A2000436F6D39
:1039400070696C65643A204E6F76202031203230E9
:1039500032300A00204C61737420557064617465C4
:10396000643A20323032302D30382D3238207C20ED
:10397000417574686F723A202847336D316E315348
:1039800033727633722C20416E79637562696320DD
:10399000344D4158290A00344D415820322E302EE2
:1039A0003631303052656C2E0A004D61726C696E92
:1039B0000020536F66747761726520526573657479
:1039C0000A00205761746368646F672052657365ED
:1039D000740A002042726F776E206F7574205265F2
:1039E0007365740A002045787465726E616C2052AC
:1039F000657365740A00506F77657255700A0073BD
:103A0000746172740A006175746F25632E670047D4
:103A100032385859004D31303031006572726F7252
:103A20002077726974696E6720746F2066696C65AF
:103A30000A00446F6E6520736176696E672066695F
:103A40006C652E0A004D323900456E6473746F70D8
:103A500070002553202563202563202563202563DE
:103A600000205A3A0020593A0020583A00656E6406
:103A700073746F7073206869743A200046494C4132
:103A80004D454E5420454E544C4144454E00464908
:103A90004C414D454E54204C4144454E0046494C06
:103AA000414D454E54205745434853454C004B6FBC
:103AB0006E6669672E206C6164656E005374616E7A
:103AC000646172647765727465206C6164656E0010
:103AD0004B6F6E6669672E207370656963686572E7
:103AE0006E00242045696E7374656C6C756E676535
:103AF0006E0061757300616E0052756E6F75742D86
:103B000053656E736F72004CC3BC66746572204B54
:103B10006F6E74726F6C6C6572004572772E204503
:103B2000696E7374656C6C756E67656E004861755F
:103B300070746D656EC3BC004D37303220542564FF
:103B4000004D36303020423020542564004D37304F
:103B500032203B2564004D37303120542564004D20
:103B6000373032004D373031004D36303020423062
:103B70000048617570746D656EC3BC0044727563F6
:103B80006B207765697465720061757300616E0002
:103B900052756E6F75742D53656E736F72004D653F
:103BA000687220656E746C6164656E00464F525495
:103BB000532E204F5054494F4E454E3A00445255D3
:103BC000434B20504155534945525400202044C393
:103BD000BC73653A2000447275636B20697374008E
:103BE00070617573696572742E2E2E0000576172B4
:103BF0007465206175662064656E0053746172742B
:103C0000206465730046696C616D656E74776563E9
:103C10006873656C732E2E2E005761727465206177
:103C20007566004865726175736E61686D650064E4
:103C300065732046696C616D656E74732E2E2E005F
:103C400044C3BC7365206865697A74206175660039
:103C500062697474652077617274656E2E2E2E0011
:103C6000004B6E6F7066206472C3BC636B656E2020
:103C7000756D0044C3BC7365206175667A756865AF
:103C8000697A656E000046696C616D656E742065C9
:103C9000696E6C6567656E00756E64204B6E6F7043
:103CA00066206472C3BC636B656E00756D20666FC1
:103CB00072747A757365747A656E00576172746593
:103CC00020617566004C6164656E20646573004612
:103CD000696C616D656E74732E2E2E004B6E6F7065
:103CE00066206472C3BC636B656E20756D004472A0
:103CF00075636B20666F72747A757365747A656E1E
:103D0000000057617274652061756600466F7274B9
:103D10007365747A656E2064657300447275636BB5
:103D2000732E2E2E005761727465206175660045F2
:103D30006E746C6164656E206465730046696C61C5
:103D40006D656E74732E2E2E0031353000350042B5
:103D500045443A4550434F53203130304B00527563
:103D60006E617761792057617463683A204F4E0025
:103D70004D61782054656D7000323735004D696EA5
:103D80002054656D7000350045313A204550434F51
:103D900053203130304B001FE03FF03FF03FF01F29
:103DA000E01FE03FF03FF03FF00FC0078003001F2F
:103DB000E0201020102010102010202010201030A3
:103DC000300840048003003FFFF83E00F839F03827
:103DD00031E01831E01821E1E820F3E8207FE82005
:103DE00077E828EE282FDC082FFC082F9E082F0FDD
:103DF00008300F18300F18381F383E00F83FFFF812
:103E00003FFFF83E00F8383F38307E18307C1828E5
:103E10007C082C38082F39C82FFFE82FC7E82FFF60
:103E2000E82739E8203868207C28307C1830FC18D6
:103E300039F8383E00F83FFFF83FFFF83E00F83809
:103E40000F38341FD8361F982F1F082F9E082FFCBD
:103E5000082FDC0827EFC82077E8207FE820F3E868
:103E600021F1E833F0D837F05839E0383E00F83F18
:103E7000FFF83FFFF83E80F83980383781D837C3E4
:103E8000D827C7E823C7F821FF88206C08206C08D2
:103E9000206C0823FF083FC7882FC7C83787D8374B
:103EA00003D83803383E02F83FFFF81FFFF81FFF22
:103EB000F804104002082002082004104008208066
:103EC0001041001041000820800410400000001F35
:103ED000FFF81FFFF82100140706003372D1C089D4
:103EE000003F0B152109002D3A15220900214A1522
:103EF000240900213A1527A600000000000000FF59
:103F0000FFFFFFFFC00000000000000B1870E1C3BE
:103F1000801B0CF0E0E7003B27F07076003B33F1AC
:103F20003030007B3333B818007BB033B80C007BE3
:103F3000B0373C6E000330377CE7000330360DC3EA
:103F400080000000000000FFFFFFFFFFC000000036
:103F500000000007000008400009649D2F0E000FBC
:103F600054A12950000954A12950000957BDEF5E02
:103F7000000000800000000007800000000000003A
:103F800000000000000000000024F4D43050C38E74
:103F900020C2A24017828B7011127A910D816CD9C8
:103FA0000AA861E108C7586607615143061E4B5DC8
:103FB00005C145A7041A411104093D98037139311F
:103FC000034036DB0265339102D4305402802E1D4B
:103FD00002632CEE01752AC501B028A001102781CB
:103FE000018F2564012B244B01E0223401AC211FF9
:103FF000018D200D01801FFC00841EED00971DDF48
:1040000000B81CD200E61BC600201BBC00641AB21C
:1040100000B219A8000A19A0006A189900D11791D6
:104020000040178B00B516840031167E00B3157959
:10403000003A157300C7146F0058146A00EE136637
:10404000008813630025135E00C7125B006C1257D3
:104050000015125400C111510070114F0021114B75
:1040600000D61049008D104700461044000210424F
:1040700000C00F4000800F3E00420F3C00060F3B87
:1040800000CB0E3800930E37005C0E3500270E343F
:1040900000F30D3200C10D3100900D3000600D2E87
:1040A00000320D2D00050D2C00D90C2B00AE0C2973
:1040B00000850C29005C0C2700350C27000E0C260F
:1040C00000E80B2400C40B2400A00B23007D0B236D
:1040D000005A0B2100390B2100180B2000F80A1F91
:1040E00000D90A1E00BB0A1E009D0A1D00800A1D81
:1040F00000630A1C00470A1B002C0A1B00110A1A45
:1041000000F7091A00DD091900C4091900AB0919E3
:1041100000920917007B091800630917004C091663
:104120000036091600200916000A091500F50815C1
:1041300000E0081400CC081400B8081400A4081407
:1041400000900813007D0812006B08130058081235
:10415000004608120034081100230811001208114B
:104160000001081100F0071000E0071000D0071050
:1041700000C0071000B0070F00A107100091070E44
:104180000083070F0074070F0065070E0057070E26
:104190000049070E003B070D002E070E0020070DFB
:1041A0000013070D0006070D00F9060C00ED060DC3
:1041B00000E0060C00D4060C00C8060C00BC060C7F
:1041C00000B0060C00A4060B0099060C008D060B2F
:1041D0000082060B0077060B006C060B0061060AD6
:1041E0000057060B004C060A0042060A0038060A71
:1041F000002E060A0024060A001A060A0010060904
:104200000007060A00FD050900F4050900EB050991
:1042100000E2050900D9050900D0050900C7050914
:1042200000BE050900B5050800AD050800A5050993
:10423000009C050800940508008C0508008405080A
:10424000007C050800740508006C0507006505087A
:10425000005D050700560508004E050700470507E5
:10426000004005080038050700310507002A05074A
:1042700000230507001C050600160507000F0507AB
:10428000000805060002050700FB040600F5040708
:1042900000EE040600E8040600E2040700DB040662
:1042A00000D5040600CF040600C9040600C30406B6
:1042B00000BD040600B7040600B1040500AC040606
:1042C00000A6040600A00405009B04060095040552
:1042D00000900406008A0405008504050080040699
:1042E000007A04050075040500700405006B0405E0
:1042F0000066040500610405005C04050057040520
:1043000000520405004D040500480405004304055F
:10431000003E0404003A040500350405003004049E
:10432000002C04050027040400230405001E0404D7
:10433000001A04040016040500110404000D04040E
:1043400000090405000404040000040400FC030444
:1043500000F8030400F4030400F0030400EC030479
:1043600000E8030400E4030400E0030400DC0304A9
:1043700000D8030400D4030400D0030400CC0304D9
:1043800000C8030300C503030024F404D9201BC4A0
:104390000C5C0E9804C4095F0265077101F405F90D
:1043A00000FB04B30048048700C1036900580355AB
:1043B0000003034500BE023A008402310053022A82
:1043C000002902250004022000E4011C00C8011994
:1043D00000AF01170098011400840113007101104F
:1043E000006101100051010E0043010D0036010B68
:1043F000002B010B0020010B00150109000C010925
:104400000003010800FB000800F3000800EB0007B0
:1044100000E4000600DE000600D8000600D2000618
:1044200000CC000500C7000500C2000500BD000467
:1044300000B9000400B5000400B1000400AD0004A0
:1044400000A9000400A5000300A20003009F0004CF
:10445000009B0003009800030095000200930003F6
:1044600000900003008D0002008B00030088000212
:10447000008600020084000300810002007F000229
:10448000007D0002007B000200790002007700013D
:104490000076000200740002007200010071000248
:1044A000006F0002006D0001006C0002006A000154
:1044B000006900020067000100660001006500015C
:1044C0000064000200620001006100010060000160
:1044D000005F0002005D0001005C0001005B000164
:1044E000005A000100590001005800010057000166
:1044F0000056000100550001005400010053000067
:104500000053000100520001005100010050000161
:10451000004F0001004E0000004E0001004D000160
:10452000004C0001004B0000004B0001004A00015C
:104530000049000100480000004800010047000158
:104540000046000000460001004500000045000153
:10455000004400010043000000430001004200004D
:104560000042000100410000004100010040000144
:10457000003F0000003F0001003E0000003E00013F
:10458000003D0000003D0001003C0000003C000038
:10459000003C0001003B0000003B0001003A00002D
:1045A000003A000100390000003900010038000025
:1045B000003800000038000100370000003700011B
:1045C0000036000000360000003600010035000013
:1045D0000035000000350001003400000034000008
:1045E00000340001003300000033000000330001FC
:1045F00000320000003200000032000100310000F3
:1046000000310000003100010030000000300000E7
:1046100000300001002F0000002F0000002F0000DC
:10462000002F0001002E0000002E0000002E0001CF
:10463000002D0000002D0000002D0000002D0001C5
:10464000002C0000002C0000002C0000002C0001B9
:10465000002B0000002B0000002B0000002B0001AD
:10466000002A0000002A0000002A0000002A0001A1
:104670000029000000290000002900000029000096
:104680000029000100280000002800000028000088
:10469000002800000028000100270000002700007B
:1046A000002700000027000000270001002600006E
:1046B0000026000000260000002600000026000161
:1046C0000025000000250000002500000025000056
:1046D0000025000000250001002400000024000047
:1046E000002400000024000000240001002300003A
:1046F000002300000023000000230000002300002E
:10470000002300000023000100220000002200001E
:104710000022000000220000002200000022000110
:104720000021000000210000002100000021000005
:1047300000210000002100000021000100200000F5
:1047400000200000002000000020000000200000E9
:10475000002000000020000000200001001F0000D9
:10476000001F0000001F0000001F0000001F0000CD
:10477000001F0000001F0001001E0000001E0000BE
:10478000001E0000001E000000393000003325002C
:104790000087190000B00F0000DB080000BD040016
:1047A00000740200003F01000020436F756E74200A
:1047B000583A002053004D313036205000004265F9
:1047C000747400453100626564002C207379737441
:1047D000656D2073746F7070656421204865617425
:1047E00065725F49443A20004845495A454E204584
:1047F00052464F4C474C4F530048656174696E6791
:10480000206661696C656400202D20496E76616CBC
:104810006964206578747275646572206E756D6266
:10482000657220210A002008204E49434854204543
:104830005252454943485400546865726D616C207A
:1048400052756E6177617900200820C39C42455201
:1048500053434852495454454E004D415854454DD8
:10486000502074726967676572656400200820557E
:104870004E54455253434852495454454E004D49B5
:104880004E54454D502074726967676572656400C7
:104890000A0A0020205A5F4D494E3A002020595FF5
:1048A0004D494E3A002020585F4D494E3A00436131
:1048B000703A0047322F4733206261642070617282
:1048C000616D65746572730A00220A00656E717508
:1048D000657565696E672022006F6B0052657365B0
:1048E0006E643A200043616E6E6F74206F70656E67
:1048F000207375626469722000220A00556E6B6E27
:104900006F776E20636F6D6D616E643A202200DBFD
:104910000FC93F45BCDA3F8FB30240FCF027405639
:10492000946140FE4B9B4084A5D840E0231841345D
:104930006A5641E859974164DBD5416E271742B466
:10494000B75542CE1A9742C8AED542B5885A43D41D
:104950000684BFA65FA7BF7443E0BF10B11AC01C96
:104960002C58C0E8F697C0B849D6C04E4E17C1249F
:10497000D355C1802497C1A0B5D5C1121A17C2441E
:10498000AE55C2781797C26CACD5C267885AC3209F
:10499000746F6F206C6F6E672065787472757369C1
:1049A0006F6E2070726576656E7465640A002063B0
:1049B0006F6C6420657874727573696F6E207072A5
:1049C0006576656E7465640A00202F002042403AC7
:1049D0000020403A0020573A000009121B242D36CF
:1049E0003F48415A536C657E7719100B023D342FB6
:1049F000265158434A757C676E323B2029161F04A6
:104A00000D7A7368615E574C452B2239300F061DB5
:104A100014636A7178474E555C646D767F404952E5
:104A20005B2C253E3708011A137D746F6659504B75
:104A300042353C272E1118030A565F444D727B60A5
:104A4000691E170C053A3328214F465D546B627975
:104A500070070E151C232A31384148535A656C776C
:104A60007E09001B122D243F3658514A437C756E37
:104A7000671019020B343D262F737A6168575E4523
:104A80004C3B3229201F160D046A6378714E475C37
:104A900055222B3039060F141D252C373E010813E3
:104AA0001A6D647F7649405B523C352E2718110AF7
:104AB00003747D666F5059424B171E050C333A2123
:104AC000285F564D447B7269600E071C152A2338F7
:104AD00031464F545D626B70797C3C3E5E2B3D3FAE
:104AE0002F5B5D3B2C2A225C00446F6E652E0A0012
:104AF00050756C73696E6720202000556E746F7559
:104B00006368656420005A5F50524F42455F5345C9
:104B100052564F5F4E52206E6F742073657420752D
:104B2000702E0A005761746368696E672070696E41
:104B3000730A0064697300656E0061626C65640AE3
:104B400000656E6473746F70206D6F6E69746F7240
:104B50002000204D393220580020580020204D617F
:104B6000783A2000200020204D696E3A2000536FD3
:104B7000667420656E6473746F70733A2000206FE2
:104B80007574206F662072616E67650A00536572E6
:104B9000766F20003A200020536572766F20002542
:104BA000290A00252000203B202800204400204125
:104BB0000020490020204D3731302053003B204356
:104BC0006F6E74726F6C6C65722046616E0A0020A5
:104BD000496E76616C69642065787472756465727B
:104BE00020005A5F53544F505F50494E005A5F5354
:104BF0005445505F50494E005A5F4D494E5F5049F1
:104C00004E005A5F454E41424C455F50494E005A56
:104C10005F4449525F50494E00595F53544F505FB3
:104C200050494E00595F535445505F50494E00590A
:104C30005F4D494E5F50494E00595F454E41424CD1
:104C4000455F50494E00595F4449525F50494E00FC
:104C5000585F53544F505F50494E00585F5354456E
:104C6000505F50494E00585F4D494E5F50494E00CD
:104C7000585F454E41424C455F50494E00585F4495
:104C800049525F50494E0053535F50494E005345BF
:104C900052564F335F50494E00534552564F325F84
:104CA00050494E00534552564F315F50494E0053C4
:104CB0004552564F305F50494E00534453530053B2
:104CC000445F4445544543545F50494E0053434B61
:104CD0005F50494E0052414D50535F44395F504937
:104CE0004E0052414D50535F44385F50494E005280
:104CF000414D50535F4431305F50494E004D4F534A
:104D0000495F50494E004D49534F5F50494E004D49
:104D10004158363637355F53535F50494E004C4546
:104D2000445F50494E004C43445F50494E535F52DC
:104D300053004C43445F50494E535F454E41424CF3
:104D400045004C43445F50494E535F4437004C4349
:104D5000445F50494E535F4436004C43445F5049D2
:104D60004E535F4435004C43445F50494E535F44BB
:104D700034004845415445525F4245445F50494ED6
:104D8000004845415445525F305F50494E00464906
:104D90004C5F52554E4F55545F50494E0046414E60
:104DA000325F50494E0046414E315F50494E0046F9
:104DB000414E5F50494E0045315F535445505F505E
:104DC000494E0045315F454E41424C455F50494E8A
:104DD0000045315F4449525F50494E0045315F43C1
:104DE000535F50494E0045305F535445505F504922
:104DF0004E0045305F454E41424C455F50494E00A4
:104E000045305F4449525F50494E0045305F41553F
:104E1000544F5F46414E5F50494E00455F4D5558D7
:104E2000325F50494E00455F4D5558315F50494EF5
:104E300000455F4D5558305F50494E00444F474C38
:104E400043445F53434B00444F474C43445F4D4FF3
:104E5000534900434F4E54524F4C4C45525F4641CC
:104E60004E5F50494E0042544E5F454E43004254FF
:104E70004E5F454E320042544E5F454E3100424532
:104E8000455045525F50494E004156525F53535F63
:104E900050494E004156525F53434B5F50494E00BC
:104EA0004156525F4D4F53495F50494E0041565253
:104EB0005F4D49534F5F50494E0054454D505F423E
:104EC00045445F50494E0054454D505F315F504955
:104ED0004E0054454D505F305F50494E0054584489
:104EE0003000525844300050574D3A202025346449
:104EF0000050574D3A20202534640050574D3A2039
:104F0000202534640050574D3A2020253464005049
:104F1000574D3A20202534640050574D3A20202523
:104F200034640050574D3A20202534640050574DCA
:104F30003A20202534640050574D3A20202534640F
:104F40000050574D3A20202534640050574D3A20E8
:104F5000202534640050574D3A20202534640050F9
:104F6000574D3A20202534640050574D3A202025D3
:104F700034640050574D3A20202534640050574D7A
:104F80003A2020253464003A200020202020434F7E
:104F90004D002020206E6F6E2D7374616E646172FF
:104FA000642050574D206D6F646500202020636F92
:104FB0006D7061726520696E7465727275707420AF
:104FC000656E61626C6564002020206F7665726694
:104FD0006C6F7720696E7465727275707420656E7F
:104FE00061626C6564003A20002020202054494D05
:104FF000534B00423A2000202020205443435200CB
:10500000413A2000202020205443435200202020F9
:105010002043533A20002020202057474D3A2000BB
:1050200050574D3A20202534640050574D3A2020E7
:105030002534640047004800000088008A008C0086
:10504000B300B400000098009A009C00A800AA00D9
:10505000AC0028012A012C012020202054494D4574
:105060005200440045006E00800081006F00B000D7
:10507000B1007000900091007100A000A1007200CA
:1050800020012101730020697320616C736F20740B
:1050900069656420746F20746869732070696E009C
:1050A00054494D45523143000A202E002020002053
:1050B00020506F72743A20002020200020202041D0
:1050C0006E616C6F6720696E203D2025356C640031
:1050D0003C756E757365642F756E6B6E6F776E3E83
:1050E0000020284125326429202000253364200037
:1050F00050494E3A20004F7574707574203D200061
:10510000496E70757420203D2000416E616C6F67A0
:1051100020696E203D2025356C640070726F7465C7
:105120006374656420002028412532642920200012
:10513000253364200050494E3A2000E24E0001DD44
:105140004E0101D24E4300C74E4500BA4E4400AD59
:105150004E3201A04E3301944E3401894E35017E0A
:105160004E2501764E21016E4E1F01664E230153DE
:105170004E0701474E33013C4E3401314E28012683
:105180004E2A011B4E2C010B4E2C01004E1C01F22D
:105190004D1801E64D1A01DC4D2C01D14D2201C301
:1051A0004D1E01B74D2401AF4D0901A64D07019DCC
:1051B0004D2C018E4D0201814D0A01724D08016690
:1051C0004D17015A4D19014E4D1B01424D1D013223
:1051D0004D1101264D10011E4D0D010F4D420106CE
:1051E0004D3201FD4C3301EF4C0A01E24C0801D570
:1051F0004C0901CD4C3401BF4C3101BA4C3501AFE3
:105200004C0B01A44C0601994C05018E4C040187FE
:105210004C35017D4C3701704C2601664C03015B17
:105220004C3601504C0301464C3D01394C38012F9E
:105230004C0E01244C3C01194C0E010F4C30010264
:105240004C3E01F84B1201ED4B2E01E24B12012EA8
:105250000A006F70656E206661696C65642C20467B
:10526000696C653A200000002110422063308440C0
:10527000A550C660E770088129914AA16BB18CC125
:10528000ADD1CEE1EFF13112100273325222B5529C
:105290009442F772D662399318837BB35AA3BDD375
:1052A0009CC3FFF3DEE36224433420040114E6646C
:1052B000C774A44485546AA54BB528850995EEE5C5
:1052C000CFF5ACC58DD55336722611163006D7767C
:1052D000F6669556B4465BB77AA719973887DFF715
:1052E000FEE79DD7BCC7C448E5588668A778400844
:1052F000611802282338CCC9EDD98EE9AFF9488965
:1053000069990AA92BB9F55AD44AB77A966A711ADB
:10531000500A333A122AFDDBDCCBBFFB9EEB799BB4
:10532000588B3BBB1AABA66C877CE44CC55C222C2B
:10533000033C600C411CAEED8FFDECCDCDDD2AAD04
:105340000BBD688D499D977EB66ED55EF44E133EBB
:10535000322E511E700E9FFFBEEFDDDFFCCF1BBF54
:105360003AAF599F788F8891A981CAB1EBA10CD12E
:105370002DC14EF16FE18010A100C230E320045036
:10538000254046706760B9839893FBA3DAB33DC3A9
:105390001CD37FE35EF3B1029012F322D232354286
:1053A000145277625672EAB5CBA5A89589856EF539
:1053B0004FE52CD50DC5E234C324A01481046674D6
:1053C000476424540544DBA7FAB79987B8975FE789
:1053D0007EF71DC73CD7D326F2369106B016576626
:1053E0007676154634564CD96DC90EF92FE9C89911
:1053F000E9898AB9ABA94458654806782768C01876
:10540000E1088238A3287DCB5CDB3FEB1EFBF98BE8
:10541000D89BBBAB9ABB754A545A376A167AF10AC5
:10542000D01AB32A923A2EFD0FED6CDD4DCDAABDF8
:105430008BADE89DC98D267C076C645C454CA23C15
:10544000832CE01CC10C1FEF3EFF5DCF7CDF9BAFC8
:10545000BABFD98FF89F176E367E554E745E932E65
:10546000B23ED10EF01E20453A00205A3A00205993
:105470003A00583A004D3234004D32332025730043
:1054800046696C652073656C65637465640A002009
:1054900053697A653A200046696C65206F70656EC5
:1054A00065643A2000454E4420535542524F5554AE
:1054B000494E450A002220706F73002220706172ED
:1054C000656E743A2200535542524F5554494E4529
:1054D0002043414C4C207461726765743A2200533A
:1054E000756263616C6C204F766572666C6F7700D5
:1054F0004578636565646564206D61782053554225
:10550000524F5554494E452064657074683A310ACB
:105510000057726974696E6720746F2066696C65E4
:105520003A20002E0A006F70656E206661696C6516
:10553000642C2046696C653A2000667265736800C9
:10554000646F696E67002066696C653A20004E6F73
:105550007720000256206D696E204C656572666189
:105560006872740056206D696E200056206D617857
:1055700020450056206D6178205A0056206D6178D4
:1055800020590056206D617820580041206D6178C7
:1055900020450041206D6178205A0041206D6178DE
:1055A00020590041206D617820580041204C6565EC
:1055B00072666168727400412045696E7A75670091
:1055C00042657363686C65756E6967756E670045E3
:1055D0002053746570732F6D6D005A20537465707D
:1055E000732F6D6D00592053746570732F6D6D00AE
:1055F000582053746570732F6D6D004572772E209F
:1056000045696E7374656C6C756E67656E005045A8
:10561000544700504C410000002100240027002A7C
:10562000002D003000330001010000040107010AD1
:105630000100002200250028002B002E003100343C
:105640000002010000050108010B010000200023F9
:1056500000260029002C002F00320000010000036A
:1056600001060109010505050507050808080802E6
:105670000202020A0A0808040404040101010101EB
:105680000101010303030303030303040707070CDA
:105690000C0C0C0C0C0C0C02020202060606060690
:1056A0000606060B0B0B0B0B0B0B0B01021020203D
:1056B0000808102040102040800201020108040266
:1056C00001010204081020408080402010080402DC
:1056D0000180040201804020100804020108040235
:1056E000010102040810204080010204081020403B
:1056F0008000000A0B02090C0D0E080703040100CC
:105700000000000000000000000000000000000099
:105710000000000000000000000000000012111056
:105720000000000000000000000000000000000079
:105730000000000000000000202573206D6D002097
:10574000302C312020206D6D0020312C3020202085
:105750006D6D0031302C302020206D6D004163686C
:1057600073656E206265776567656E00486F746566
:105770006E64207A75206B616C7400426577656792
:105780006520457874727564657200426577656757
:1057900065205A0042657765676520590042657744
:1057A00065676520580013560E5646696C616D6535
:1057B0006E74207765636873656C6E0046696C6112
:1057C0006D656E7420656E746C6164656E0046690B
:1057D0006C616D656E74206C6164656E0062656EEF
:1057E00075747A65726465662E204865697A656E9F
:1057F000002420566F7277C3A4726D656E005A75CF
:1058000072C3BC636B004265747400476568C3A4CF
:1058100075736500454550524F4D20646174617346
:10582000697A65206572726F722E0A00290A00205B
:1058300062797465733B2063726320002073746F18
:105840007265642073657474696E67732072657421
:10585000726965766564202800202863616C637531
:105860006C6174656429210A0020213D20004545B2
:1058700050524F4D20435243206D69736D617463E4
:1058800068202D202873746F7265642920002053CE
:10589000697A653A2000496E6465783A2000466965
:1058A000656C64206261636B6C6173685F646973CB
:1058B00074616E63655F6D6D206D69736D61746396
:1058C000682E0A004669656C642066635F736574C0
:1058D00074696E6773206D69736D617463682E0AF5
:1058E000004669656C6420706C616E6E65725F73F2
:1058F0006B65775F666163746F72206D69736D614C
:105900007463682E0A004669656C6420636F6F7269
:1059100064696E6174655F73797374656D206D6918
:10592000736D617463682E0A004669656C64206D4E
:105930006F746F725F63757272656E745F73657496
:1059400074696E67206D69736D617463682E0A00F7
:105950004669656C6420706C616E6E65725F657817
:105960007472756465725F616476616E63655F4BC6
:10597000206D69736D617463682E0A004669656CF9
:105980006420746D635F737465616C74685F656EC9
:1059900061626C6564206D69736D617463682E0A61
:1059A000004669656C6420746D635F736774206D75
:1059B00069736D617463682E0A004669656C6420C2
:1059C000746D635F6879627269645F74687265732D
:1059D000686F6C64206D69736D617463682E0A0072
:1059E0004669656C6420746D635F7374657070657F
:1059F000725F63757272656E74206D69736D617428
:105A000063682E0A004669656C6420706172736574
:105A1000725F766F6C756D65747269635F656E61D8
:105A2000626C6564206D69736D617463682E0A0031
:105A30004669656C64206677726574726163745F31
:105A400073657474696E6773206D69736D617463D7
:105A5000682E0A004669656C64207265636F76651E
:105A600072795F656E61626C6564206D69736D61EA
:105A70007463682E0A004669656C6420636F6E74F7
:105A8000726F6C6C657246616E5F73657474696E7B
:105A90006773206D69736D617463682E0A004669CF
:105AA000656C64206C63645F636F6E7472617374A1
:105AB000206D69736D617463682E0A004669656CB8
:105AC0006420706F7765725F6D6F6E69746F725F5F
:105AD000666C616773206D69736D617463682E0A0B
