:100000000C9446300C9477300C9477300C94773005
:100010000C9477300C9477300C9477300C947730C4
:100020000C9477300C9477300C9477300C947730B4
:100030000C9477300C94BC8E0C9477300C94773001
:100040000C9477300C94D0BE0C9477300C947730AD
:100050000C9477300C9477300C948AC60D94463704
:100060000C9477300C94BD4F0C94B34F0C947730B4
:100070000C9477300C9477300C9477300C94773064
:100080000C9442480C9477300C9477300C94773071
:100090000C9477300C9477300C9477300C94773044
:1000A0000C9477300C9477300C9414480C9477307F
:1000B0000C9477300C9477300C9477300C94E6479E
:1000C0000C9477300C9477300C9477300C94773014
:1000D0000C9477300C9477300C9477300C94773004
:1000E0000C94773058BD3BBD3EBD5BBD41BD44BDAA
:1000F00047BD53BD4ABD66BD4DBD50BDF0F512F6BE
:1001000032F657F67CF633F8A1F6C4F6E7F60CF7AC
:1001100031F756F77BF7A0F733F8C5F7EAF70FF892
:10012000A2F9A5F9A9F9ACF9AFF9D9F9B3F9B6F97A
:10013000BAF9BDF9C0F9C4F9C7F9CAF9D9F9CEF9C4
:10014000D1F9D4F994013402A602B6011402640272
:10015000460282020E0270011802BC022801F00160
:100160006402E602B802C801CC02D2012A02EC0104
:10017000E0028C025C02A4019E023C024A02E201FF
:10018000A2015A028C020A02A60182019402AA016B
:100190007602920176027602760276027602760284
:1001A000760276027602760276027602760276028F
:1001B000760276027602760276027602760276027F
:1001C00076027602760276022201760276027602C4
:1001D000760276027602760276021C0276027602B9
:1001E000760276027602760276027602760276024F
:1001F000DA01AE01084AD73B3BCE016E84BCBFFD9D
:10020000C12F3D6C74319ABD56833DDA3D00C77FE6
:1002100011BED9E4BB4C3E916BAAAABE000000807F
:100220003F05A84CCDB2D44EB93836A9020C50B90E
:10023000918688083CA6AAAA2ABE000000803F003A
:100240000C94587C0D94CE210C9480B90C94787742
:100250000D942C120C94FC660C94247F0D94911F29
:100260000C94F0F50C9423960C947CB90C9489B9F9
:100270000C94A2F90C9456F70C943F7D0C949C7B43
:100280000C94D9F90C9460B90C94307F0C946C7F69
:100290000C948D680C9478B90C944AB70C94325C29
:1002A0000C94BF7C0C940FF80C94827E0C94E7F6AF
:1002B0000C94717C0C942E5C0C94977C0C9432F60C
:1002C0000C94B57B0C947CF60C94B07C0C944A7422
:1002D0000C9466BD0C9464B90C944DBD0C94427F93
:1002E0000D941E120C9480700C9431F70C94607F66
:1002F0000C9404500C9460770C94D4F90C94FC6E1C
:100300000C94836A0D94C8140C94537B0C94B6F926
:100310000C94046F0C94CE7B0C9406670C940850DC
:100320000C9470B90D94D4210D9409120C94836629
:100330000C9420670C941BBD0C94EC670C94367FD6
:100340000C94817B0D94A0140D946B140D94BE1429
:100350000C941F780D9407200C9491500D943D201F
:100360000C946AB60C94D1F90C94926D0D94FF1113
:100370000C94E77B0C940FBD0C94305C0C944E9F56
:100380000C9468B90C9457F60D94D03F0D94971FB8
:100390000D943E120C94F7BA0C94F4670C94016718
:1003A0000C94E85D0D9440140C94BDF90C94517BB1
:1003B0000C9486B90D94EB210C94648E0C94ACF9DA
:1003C0000C941D810D9491140C94A46D0C9444BD57
:1003D0000C94CAF90C9479660D944F140C943C96C5
:1003E0000D9430120C94847C0C9450BD0C946F6D61
:1003F0000C9480610C945C6F0C945BBD0C949867BA
:100400000C94CEF90C94B6770C94007C0C942A7F53
:100410000C94517D0D94B4140C94D2810D941A1245
:100420000C940E810C9452C60D9405120C949B6D85
:100430000D9422120C943BBD0D94A7210C94345CB6
:100440000C941A820C94667F0C94BAF90C944B7B32
:100450000C9438960D9445140C946F730C94A0F77B
:100460000C9405500C94F6710D940C120C942667A4
:100470000C94A1F60C942C7C0D947D140C943EBD30
:100480000C947BF70C9458B90C940CF70D94101243
:100490000C942C670D9487140C9479670C94C4F910
:1004A0000C941F960C9490850C94547F0C94B3F983
:1004B0000C94FE6E0D94AA140D9463140C9456794A
:1004C0000C9427960C944ABD0D9443120C94977784
:1004D0000C94365C0C94197C0C947E660C94697DAB
:1004E0000C94556F0C944F7B0D94941F0D944020E9
:1004F0000C94A9F90C9458BD0C94388E0C943F7C44
:100500000C9432670D9414120C946A7B0C9483B98A
:100510000C941B690C945D7D0D94D2140C94C5F75A
:100520000C945CB90C94CC800D9498210C9474B903
:100530000C94C4F60C94FA6E0C94FF7C0D94731416
:100540000C9440780C944E740C94487F0D94FB11DD
:100550000C94C0F90C9412F60C94C76C0C942F50A8
:100560000C945A7F0C948B7F0C943C7F0C941B9FB3
:100570000D943A120C9447BD0D9428120C9433F844
:100580000C946CB90C9441BD0C9438670C946BBE00
:100590000C94A5F90C9474660D943B140C94AFF96B
:1005A0000C94EAF70C94E08D0C9453BD0C941D76DA
:1005B0000C943F610C944D7B0C9485830C944E7F7E
:1005C0000D9459140C940A8E0D94A63E0D94361277
:1005D0000C94C7F90C943C740C94CD7F4E414E4959
:1005E0004E495459494E46CDCCCC3D0AD7233C17F1
:1005F000B7D13877CC2B329595E6241FB14F0A003E
:100600000020410000C84200401C4620BCBE4CCA2D
:100610001B0E5AAEC59D7400407A10F35A00A072AA
:100620004E18090010A5D4E80000E876481700002D
:10063000E40B54020000CA9A3B000000E1F50500FB
:100640000080969800000040420F000000A0860144
:10065000000000102700000000E803000000006414
:1006600000000000000A000000000001000000007F
:10067000002C76D888DC674F0823DFC1DFAE59E154
:10068000B1B796E5E3E453C63AE651997696E8E6C3
:10069000C28426EB898C9B62ED407C6FFCEFBC9C96
:1006A0009F40F2BAA56FA5F490055A2AF75C936BA8
:1006B0006CF9676DC11BFCE0E40D47FEF520E6B563
:1006C00000D0ED902E0300943577050080841E083D
:1006D0000000204E0A000000C80C333333330F985B
:1006E0006E12831141EF8D2114893BE65516CFFE22
:1006F000E6DB18D1844B381BF77C1D901DA4BBE4AE
:1007000024203284725E228100C9F124ECA1E53DEF
:1007100027434F4D4D554E49434154494F4E004498
:10072000525952554E004552524F525300494E466F
:100730004F004543484F0020746F6F206C6F6E6709
:1007400020657874727573696F6E20707265766556
:100750006E7465640A0020636F6C6420657874723F
:100760007573696F6E2070726576656E7465640A64
:100770000057617274656E2E2E2E004B6C69636B90
:10078000207A756D20466F72747365747A656E0099
:100790004D6F746F72656E20616E6765736368611B
:1007A0006C74657400456E642066696C65206C69C4
:1007B00073740A00426567696E2066696C65206C17
:1007C0006973740A00286E6F2066696C652900439E
:1007D000757272656E742066696C653A20005344C8
:1007E000207072696E74696E67206279746520008A
:1007F0004E6F74205344207072696E74696E670A7C
:10080000002E0A0044656C6574696F6E206661692C
:100810006C65642C2046696C653A200046696C65FD
:100820002064656C657465643A0025697300256908
:100830006D20256973002569682025696D2025696B
:100840007300256964202569682025696D20256964
:100850007300256979202569642025696820256948
:100860006D20256973005072696E742074696D651E
:100870003A2000496E76616C69642050696E204DA3
:100880006F64650A006BC3BC686C742E2E2E006802
:1008900065697A742E2E2E0045202553006F6B005B
:1008A0006F66660032072D0726071F0711074445AC
:1008B0004255473A004D3131322053687574646FA8
:1008C000776E004D313133205300416E796375628C
:1008D000696320344D4158204F46462E004348411D
:1008E0004D4245525F54454D504552415455524535
:1008F00000424142595354455050494E47004152DD
:100900004353004D4F54494F4E5F4D4F44455300A4
:10091000544845524D414C5F50524F544543544901
:100920004F4E004C4F4E475F46494C454E414D455A
:10093000004155544F5245504F52545F53445F53FA
:100940005441545553005344434152440050524F74
:100950004D50545F535550504F525400454D4552E1
:1009600047454E43595F504152534552004341530E
:10097000455F4C494748545F4252494748544E45A9
:10098000535300544F47474C455F4C4947485453D5
:1009900000534F4654574152455F504F5745520000
:1009A0004255494C445F50455243454E54004C45D6
:1009B00056454C494E475F44415441005A5F50529E
:1009C0004F42450052554E4F5554004155544F4CDF
:1009D0004556454C005052494E545F4A4F420050D4
:1009E000524F4752455353004155544F5245504F73
:1009F00052545F54454D5000564F4C554D4554523E
:100A0000494300454550524F4D0042494E415259CD
:100A10005F46494C455F5452414E53464552005340
:100A2000455249414C5F584F4E5F584F464600462D
:100A300049524D574152455F4E414D453A4D6172C5
:100A40006C696E20344D415820322E302E363030B5
:100A50003252656C2E2028417567203139203230A2
:100A600032302031303A33383A35382920534F5517
:100A70005243455F434F44455F55524C3A68747446
:100A800070733A2F2F6769746875622E636F6D2FCC
:100A900047656D696E695365727665722F4D617237
:100AA0006C696E2050524F544F434F4C5F56455225
:100AB00053494F4E3A312E30204D414348494E451F
:100AC0005F545950453A416E7963756269632034C9
:100AD0004D41582045585452554445525F434F5557
:100AE0004E543A3120555549443A366161313437D4
:100AF00064322D666664352D313165392D386437A1
:100B0000312D3336326239653135353636370A00A4
:100B10002F2F20004D31343520533C696E646578A9
:100B20003E206F7574206F662072616E67652028A5
:100B3000302D31290A00205200416363656C6572D3
:100B40006174696F6E3A2050003F4A206F757420BF
:100B50006F662072616E67652028302E30312074F8
:100B60006F20302E33290A0046523A0020466C6F1F
:100B7000773A200050726F74656374656420506921
:100B80006E0A0020643A0020693A0020703A004959
:100B90006E76616C69642065787472756465720A3A
:100BA0000064697300656E0043290A0061626C6528
:100BB0006420286D696E2074656D702000436F6C31
:100BC00064206578747275646573206172652000B5
:100BD0004F4646004F4E0046696C616D656E74204D
:100BE00072756E6F75742000486F6D6576657273EF
:100BF00061747A20616B746976004572723A205490
:100C00006F6F206661722100546F6F2066617220E1
:100C100066726F6D207265666572656E63652070C1
:100C20006F696E740A00454550524F4D204F4B0A74
:100C3000004D383400446F6E65207072696E7469BF
:100C40006E672066696C650A004D3737004D333199
:100C500000496E76616C69642065787472756465AC
:100C6000720A004572726F722077726974696E67DA
:100C700020746F20454550524F4D210A00363726CB
:100C8000033C3D382A2E303E121A1C180A2C430809
:100C900009072C07084400014D343130004D313133
:100CA00032004D31303800414E474548414C5445A3
:100CB0004E005072696E7465722073746F70706547
:100CC000642064756520746F206572726F72732E74
:100CD0002046697820746865206572726F722061A1
:100CE0006E6420757365204D39393920746F207218
:100CF0006573746172742E202854656D706572611D
:100D0000747572652069732072657365742E205343
:100D100065742069742061667465722072657374ED
:100D2000617274696E67290A004E6F2043686563BB
:100D30006B73756D2077697468206C696E65206EC1
:100D4000756D6265722C204C617374204C696E6500
:100D50003A20004E6F20436865636B73756D207792
:100D6000697468206C696E65206E756D6265722CA1
:100D7000204C617374204C696E653A20006368658D
:100D8000636B73756D206D69736D617463682C207E
:100D90004C617374204C696E653A20004C696E6535
:100DA000204E756D626572206973206E6F74204CE1
:100DB000617374204C696E65204E756D6265722B8F
:100DC000312C204C617374204C696E653A20004DC3
:100DD0003131300053442072656164206572726F56
:100DE000720A002121204B494C4C206361757365C8
:100DF0006420627920746F6F206D75636820696E5E
:100E00006163746976652074696D65202D20637552
:100E10007272656E7420636F6D6D616E643A20004E
:100E2000627573793A2070617573656420666F72BC
:100E300020696E7075740A00627573793A2070616A
:100E40007573656420666F7220757365720A00623F
:100E50007573793A2070726F63657373696E670A90
:100E6000004D656469756D20656E746665726E749B
:100E7000004D656469756D2065726B616E6E7400FE
:100E80004D3630300043616E6E6F74206F70656E4A
:100E900020737562646972200020573A00426574BD
:100EA00074206BC3BC686C742E2E2E004265747463
:100EB000206865697A742E2E2E0023646566696E3B
:100EC000652044454641554C545F004B6420004B1F
:100ED0006920004B702000504944204175746F74A4
:100EE000756E652066696E6973686564212050754A
:100EF0007420746865206C617374204B702C204BD7
:100F00006920616E64204B6420636F6E7374616E40
:100F100074732066726F6D2062656C6F7720696EE6
:100F2000746F20436F6E66696775726174696F6E66
:100F30002E680A00504944204175746F74756E65BF
:100F4000206661696C6564212074696D656F7574D4
:100F50000A00504944204175746F74756E652066AF
:100F600061696C6564212054656D7065726174758A
:100F7000726520746F6F20686967680A00204B648F
:100F80003A2000204B693A2000204B703A20000A9A
:100F900020436C617373696320504944200A002028
:100FA00054753A2000204B753A2000206D61783A44
:100FB0002000206D696E3A200020643A20002062F3
:100FC0006961733A2000504944204175746F74750B
:100FD0006E652073746172740A0050494420417533
:100FE000746F74756E65206661696C656421205448
:100FF000656D706572617475726520746F6F2068BD
:101000006967680A00504944204175746F74756EB1
:101010006500504944204175746F74756E65206693
:1010200061696C6564212042616420657874727521
:10103000646572206E756D6265720A004572723A5F
:10104000207574663820666F6E74206E6F74206928
:101050006E697469616C697A65642E004572723AD2
:10106000207574663820666F6E74206E6F74206908
:101070006E697469616C697A65642E004572723AB2
:10108000207574663820666F6E74206E6F742069E8
:101090006E697469616C697A65642E002568753AB9
:1010A00025303268750025303268753A253032684F
:1010B0007500256875642025303268753A25303210
:1010C000687500000C0F00FE07022603BC01FFFE3E
:1010D0000AFE08FE05080806000040F0C888889847
:1010E0007810050808060000C0F88888888888F805
:1010F0000505050600012030F83020050808060027
:10110000002070F820202020E00509090600FF20BB
:1011100070A8A8B888887020050606060001E08C33
:10112000EA8C8A0A0509090600FFF8A888888888D9
:1011300088A8F8050A0A0600FE205050505088A8DA
:10114000A8887003030306000340A040FFFFFFFFD1
:10115000FFFFFFFFFFFFFFFFFFFFFFFFFFFFFFFF9F
:10116000FFFF0000000605FF010707060200808060
:101170008080800080030303060105A0A0A005066F
:101180000606000050F85050F8500509090600FF07
:101190002070A8A07028A87020050707060000C8C6
:1011A000C8102040989805070706000040A0A040FE
:1011B000A8906801030306020580808003090906E0
:1011C00001FF204040808080404020030909060143
:1011D000FF80404020202040408005070706000097
:1011E00020A8702070A8200505050600012020F821
:1011F00020200203030601FFC04080050101060014
:1012000003F8020202060100C0C00507070600003D
:1012100008101020404080050707060000708898DD
:10122000A8C8887003070706010040C0404040403E
:10123000E0050707060000708808102040F8050741
:1012400007060000F8081030088870050707060038
:101250000010305090F81010050707060000F880C5
:10126000F008088870050707060000304080F08805
:101270008870050707060000F808101020202005D8
:1012800007070600007088887088887005070706C1
:10129000000070888878081060020505060100C00B
:1012A000C000C0C00206060601FFC0C000C04080EA
:1012B00003050506010120408040200503030600C8
:1012C00002F800F803050506010180402040800572
:1012D0000707060000708810202000200507070679
:1012E00000007088B8A8B880700507070600007075
:1012F0008888F8888888050707060000F048487045
:101300004848F005070706000070888080808870D4
:10131000050707060000F04848484848F005070759
:10132000060000F88080F08080F8050707060000BE
:10133000F88080F0808080050707060000708880B4
:1013400080988870050707060000888888F88888D4
:1013500088030707060100E04040404040E00507E1
:1013600007060000381010101090600507070600EF
:10137000008890A0C0A09088050707060000808024
:1013800080808080F805070706000088D8A8888834
:1013900088880507070600008888C8A898888805F7
:1013A0000707060000708888888888700507070688
:1013B0000000F08888F08080800507070600007034
:1013C000888888A89068050707060000F08888F0DC
:1013D000A090880507070600007088807008887054
:1013E000050707060000F820202020202005070719
:1013F000060000888888888888700507070600002E
:10140000888888885050200507070600008888884B
:1014100088A8A85005070706000088885020508833
:10142000880507070600008888502020202005072F
:1014300007060000F80810204080F803090906019B
:10144000FFE080808080808080E005070706000044
:10145000804040201010080309090601FFE0202009
:101460002020202020E005030306000520508805E9
:1014700001010600FEF80303030601058040200574
:101480000505060000700878887805070706000043
:101490008080F0888888F00505050600007080804F
:1014A000887005070706000008087888888878058E
:1014B00005050600007088F080700507070600002B
:1014C000304840E04040400507070600FE7088882D
:1014D000887808700507070600008080F0888888F3
:1014E000880307070601004000C0404040E00409AF
:1014F000090601FE1000301010101090600507075B
:1015000006000080808890E09088030707060100AD
:10151000C04040404040E0050505060000D0A8A8B6
:10152000A8A8050505060000B0C888888805050537
:1015300006000070888888700507070600FEF0889E
:101540008888F080800507070600FE7888888878FC
:101550000808050505060000B0C88080800505055F
:1015600006000078807008F00507070600002020BC
:10157000F82020201805050506000088888898684E
:101580000505050600008888885020050505060029
:10159000008888A8A850050505060000885020503E
:1015A000880507070600FE888888502040800505CA
:1015B00005060000F8102040F80309090601FF2085
:1015C00040404080404040200109090602FF8080E1
:1015D000808080808080800309090601FF80404070
:1015E00040204040408005030306000248A890FFC9
:1015F000FFFFFFFFFFFFFFFFFFFFFFFFFFFFFFFFFB
:10160000FFFFFFFFFFFFFFFFFFFFFFFFFFFFFFFFEA
:101610000000000605FF0107070602008000808029
:101620008080800507070600FF2070A8A0A8702012
:10163000050707060000304840E04048B0050505B2
:10164000060000A8508850A805070706000088502B
:10165000F820F82020010707060200808080008023
:10166000808004080806010070806090906010E09F
:10167000030101060107A00607070600007884B4ED
:10168000A4B4847803050506010460A06000E005A9
:1016900005050600002850A0502805030306000198
:1016A000F80808030101060103E006070706000029
:1016B0007884B4A4A48478050101060007F8040422
:1016C00004060105609090600507070600002020D1
:1016D000F8202000F803050506010440A02040E0A2
:1016E000030505060104C0204020C00303030601D2
:1016F000052040800507070600FE88888898E88056
:101700008005080806000078E8E8E868282828022C
:101710000202060203C0C00302020601FE20C0034B
:10172000050506010440C04040E00305050601052B
:1017300040A04000E0050505060000A0502850A08C
:10174000050A0A06000040C048506050B0507810AA
:10175000050A0A06000040C048506050A80810382A
:10176000050A0A060000C0204830E050B05078104A
:1017700005070706000020002020408870050A0A9F
:10178000060000402000708888F8888888050A0ACA
:10179000060000102000708888F8888888050A0AEA
:1017A000060000205000708888F8888888050A0A9A
:1017B00006000068B000708888F8888888050909E4
:1017C0000600005000708888F8888888050A0A0694
:1017D0000000205020708888F88888880507070650
:1017E000000078A0A0F0A0A0B80509090600FE70CE
:1017F0008880808088701060050A0A0600004020FA
:1018000000F88080F08080F8050A0A0600001020A9
:1018100000F88080F08080F8050A0A060000205059
:1018200000F88080F08080F805090906000050006B
:10183000F88080F08080F8030A0A060100804000EA
:10184000E04040404040E0030A0A0601002040001A
:10185000E04040404040E0030A0A06010040A0008A
:10186000E04040404040E0030909060100A000E0DC
:101870004040404040E0050707060000704848E847
:10188000484870050A0A06000068B0008888C8A8A1
:10189000988888050A0A0600004020007088888819
:1018A000888870050A0A0600001020007088888861
:1018B000888870050A0A0600002050007088888811
:1018C000888870050A0A06000068B0007088888859
:1018D000888870050909060000500070888888888B
:1018E0008870050505060001885020508805090903
:1018F0000600FF087098A8A8A8C87080050A0A0604
:10190000000040200088888888888870050A0A06B8
:10191000000010200088888888888870050A0A06D8
:10192000000020500088888888888870050909068A
:101930000000500088888888888870050A0A060098
:10194000001020008888502020202004070706016E
:101950000080E0909090E080050707060000708806
:1019600090A09088B005080806000040200070088C
:10197000788878050808060000102000700878882C
:10198000780508080600002050007008788878055F
:10199000080806000068B000700878887805070716
:1019A00006000050007008788878050808060000D6
:1019B00020502070087888780505050600007028FA
:1019C00070A0780507070600FE7088808870106098
:1019D0000508080600004020007088F080700508A7
:1019E000080600001020007088F0807005080806C6
:1019F00000002050007088F0807005070706000086
:101A000050007088F08070030808060100804000D4
:101A1000C0404040E0030808060100204000C040EC
:101A20004040E003080806010040A000C0404040DC
:101A3000E0030707060100A000C0404040E00509A0
:101A4000090600005020500878888888700508082A
:101A500006000068B000B0C888888805080806003D
:101A60000040200070888888700508080600001073
:101A70002000708888887005080806000020500043
:101A8000708888887005080806000068B0007088B3
:101A900088887005070706000050007088888870E5
:101AA0000505050600012000F800200505050600D3
:101AB000007898A8C8F005080806000040200088B3
:101AC000888888700508080600001020008888882B
:101AD00088700508080600002050008888888870F3
:101AE00005070706000050008888888870050A0AE4
:101AF0000600FE10200088888850204080050909D3
:101B00000600FE8080F0888888F08080050909063C
:101B100000FE5000888888502040804D33303320AC
:101B200055312045256920532569005049442041FD
:101B300075746F74756E65202A005049442D4420D9
:101B40002A005049442D49202A005049442D502054
:101B50002A0020082046616B746F72002008206DF7
:101B60006178002008206D696E0061757300616EF8
:101B7000004175746F2054656D7065726174757283
:101B80000056206D696E204C6565726661687274DE
:101B90000056206D696E200056206D61782045004A
:101BA00056206D6178205A0056206D6178205900CA
:101BB00056206D617820580041206D6178204500E5
:101BC00041206D6178205A0041206D6178205900D4
:101BD00041206D617820580041204C656572666136
:101BE00068727400412045696E7A756700426573BA
:101BF00063686C65756E6967756E67004E65747AAB
:101C00007465696C00532D3330302D3132003A2029
:101C10000050726F746F6B6F6C6C00312E30003A35
:101C20002000426175647261746500323530303075
:101C300030003A2000416E79637562696320524139
:101C40004D505320312E340045787472756465729E
:101C50000031003A200068747470733A2F2F67695E
:101C6000742E696F2F666A587A7200416E796375B7
:101C700062696320344D415800323032302D3037A4
:101C80002D323800344D415820322E302E3630302F
:101C90003252656C2E004D61726C696E005468653D
:101CA000726D6973746F72656E00426F6172642D3C
:101CB000496E666F00447275636B65722D496E667E
:101CC0006F0048617570746D656EC3BC003F005A4B
:101CD0007572C3BC636B0053746F70004B65696EA3
:101CE000204D656469756D00447275636B20766F75
:101CF0006D204D656469756D0046696C616D656E3A
:101D000074207765636873656C6E004B6F6E6669EF
:101D10006775726174696F6E0054656D706572618C
:101D2000747572004265776567756E670053442D60
:101D3000447275636B20666F72747365747A656E36
:101D400000C39C6265722064656E20447275636B8B
:101D50006572004A757374696572756E67005344E5
:101D60002D447275636B2061626272656368656E93
:101D70000053442D447275636B20706175736965FF
:101D800072656E00496E666F003F00537461727435
:101D90006520447275636B004162627265636865B9
:101DA0006E00447275636B656E0043616E6E6F7496
:101DB00020656E746572207375626469723A2000E2
:101DC000022E2E0048617570746D656EC3BC0042B2
:101DD00065776567756E67004D3834004D6F746FB9
:101DE00072656E206465616B746976696572656E93
:101DF0000045636B656E206E6976656C6C69657213
:101E0000656E004732385A00486F6D65205A0047AA
:101E100032385900486F6D652059004732385800F4
:101E2000486F6D65205800473238004175746F2047
:101E3000486F6D650048617570746D656EC3BC0058
:101E40002420457874722E20566F7277C3A4726D69
:101E5000656E0024204265747420566F7277C3A4A7
:101E6000726D656E0054656D706572617475720097
:101E700041626BC3BC686C656E002420566F72773C
:101E8000C3A4726D656E004CC3BC6674657200427B
:101E90006574740044C3BC73650048617570746DEB
:101EA000656EC3BC00466C75737372617465004CDB
:101EB000C3BC6674657200426574740044C3BC732D
:101EC00065004765736368772E0048617570746DAF
:101ED000656EC3BC0001FFFFFFFFFFFFFFFFFFFFB9
:101EE000FFFFFF0FFFFFFFFFFFFFFFFFFFFFFFFFF2
:101EF000FF1E0000000000000000000007FFFF3888
:101F00000000000000000000000003FFFF70000060
:101F1000000000000000000001FFFF600000000062
:101F200000000000000000FFFF6000000000000053
:101F300000000000007FFFC0000000000000000063
:101F40007800003FFFC00FC0FC00000000007818C0
:101F5000001FFFC03FE1FF0000000000783C000FC1
:101F6000FFC07FF3FF8000000000783C0007FFC047
:101F7000FFFFFFC000000000783C0003FFC1F87FB6
:101F800087E00000000078000001FFC1F03F03E09F
:101F90000000000078000000FFC1E01E01E01F000B
:101FA00003E0783C03F07FC1E01E01E07FC00FF842
:101FB000783C07FC3FC1E01E01E1FFE01FFC783CDC
:101FC0000FFE1FC1E01E01E3FFF03FFE783C1FFE45
:101FD0000FC1E01E01E3F3F83F3E783C3F3F07C1ED
:101FE000E01E01E7E0FC7C1F783C3E1F07C1E01EBD
:101FF00001E7C07C7C0F783C3C0F03C1E01E01E789
:10200000807C780F783C3C0F03C1E01E01E7803CE8
:102010007800783C3C0F03C1E01E01E7803C78006B
:10202000783C3C0F03C1E01E01E7803C7800783C1F
:102030003C0F03C1E01E01E7C03C7800783C3C0F38
:1020400003C1E01E01E3E03C78007C3C3C0F03C18F
:10205000E01E01E3FF3FF8007FBC3C0F03C1E01E20
:1020600001E1FF3FF8003FBFFC0F03C1E01E01E0AC
:10207000FF3FF8001FBFFC0F03C1E01E01E07F3FE0
:10208000F8000FBFFC0F036000000000000000001C
:1020900000000000076000000000000000000000D9
:1020A00000000670000000000000000000000000BA
:1020B0000E380000000000000000000000001C1EA0
:1020C000000000000000000000000000780FFFFF8B
:1020D000FFFFFFFFFFFFFFFFFFFFF001FFFFFFFF1D
:1020E000FFFFFFFFFFFFFFFF8001FFFFFFFFFFFF7D
:1020F000FFFFFFFFFFFFFF0FFFFFFFFFFFFFFFFFE0
:10210000FFFFFFFFFF1E00000000000000000000B6
:1021100007FFFF380000000000000000000003FF80
:10212000FF700000000000000000000001FFFF60E1
:102130000000000000000000000000FFFF60000041
:102140000000000000000000007FFFC00000000051
:10215000000000007800003FFFC00FC0FC0000003E
:1021600000007818001FFFC03FE1FF0000000000E2
:10217000783C000FFFC07FF3FF8000000000783C38
:102180000007FFC0FFFFFFC000000000783C000315
:10219000FFC1F87F87E00000000078000001FFC168
:1021A000F03F03E00000000078000000FFC1E01EE7
:1021B00001E01F0003E0783C00007FC1E01E01E069
:1021C0007FC00FF8783C00003FC1E01E01E1FFE056
:1021D0001FFC783C00001FC1E01E01E3FFF03FFE42
:1021E000783C00000FC1E01E01E3F3F83F3E783C6D
:1021F000000007C1E01E01E7E0FC7C1F783C000006
:1022000007C1E01E01E7C07C7C0F783C000003C1E1
:10221000E01E01E7807C780F783C000003C1E01EDF
:1022200001E7803C7800783C000003C1E01E01E734
:10223000803C7800783C000003C1E01E01E7803C50
:102240007800783C000003C1E01E01E7C03C780044
:10225000783C000003C1E01E01E3E03C78007C3CD8
:10226000000003C1E01E01E3FF3FF8007FBC000057
:1022700003C1E01E01E1FF3FF8003FBF000003C1C2
:10228000E01E01E0FF3FF8001FBF000003C1E01E99
:1022900001E07F3FF8000FBF000003600000000076
:1022A00000000000000000000760000000000000C7
:1022B00000000000000006700000000000000000A8
:1022C000000000000E3800000000000000000000C8
:1022D00000001C1E000000000000000000000000C4
:1022E000780FFFFFFFFFFFFFFFFFFFFFFFFFF00182
:1022F000FFFFFFFFFFFFFFFFFFFFFFFF8001FFFF6B
:10230000FFFFFFFFFFFFFFFFFFFFFF0FFFFFFFFFCD
:10231000FFFFFFFFFFFFFFFFFF1E000000000000A8
:102320000000000007FFFF38000000000000000070
:10233000000003FFFF70000000000000000000002C
:1023400001FFFF600000000000000000000000FF2F
:10235000FF6000000000000000000000007FFFC0E0
:1023600000000000000000007800003FFFC00FC028
:10237000FC00000000007800001FFFC03FE1FF00EC
:10238000000000007800000FFFC07FF3FF80000016
:10239000000078000007FFC0FFFFFFC00000000042
:1023A00078000003FFC1F87F87E00000000078009C
:1023B0000001FFC1F03F03E00000000078000000D2
:1023C000FFC1E01E01E01F0003E0780000007FC1B4
:1023D000E01E01E07FC00FF8780000003FC1E01E62
:1023E00001E1FFE01FFC780000001FC1E01E01E3D7
:1023F000FFF03FFE780000000FC1E01E01E3F3F89C
:102400003F3E7800000007C1E01E01E7E0FC7C1FB2
:102410007800000007C1E01E01E7C07C7C0F780057
:10242000000003C1E01E01E7807C780F7800000007
:1024300003C1E01E01E7803C78007800000003C182
:10244000E01E01E7803C78007800000003C1E01E38
:1024500001E7803C78007800000003C1E01E01E73E
:10246000C03C78007800000003C1E01E01E3E03CBE
:1024700078007C00000003C1E01E01E3FF3FF8008C
:102480007F00000003C1E01E01E1FF3FF8003F00B4
:10249000000003C1E01E01E0FF3FF8001F00000044
:1024A00003C1E01E01E07F3FF8000F000000036061
:1024B00000000000000000000000000007600000B5
:1024C0000000000000000000000006700000000096
:1024D00000000000000000000E38000000000000B6
:1024E0000000000000001C1E0000000000000000B2
:1024F00000000000780FFFFFFFFFFFFFFFFFFFFF5F
:10250000FFFFF001FFFFFFFFFFFFFFFFFFFFFFFFE8
:102510008001FFFFFFFFFFFFFFFFFFFFFFFFFF0F38
:10252000FFFFFFFFFFFFFFFFFFFFFFFFFF1E00009A
:10253000000000000000000007FFFF38000000005E
:1025400000000000000003FFFF700000000000001A
:102550000000000001FFFF6000000000000000001C
:10256000000000FFFF60000000000000000000000D
:10257000007FFFC000000000000000000000003FDE
:10258000FFC00FC0FC00000000000000001FFFC0E3
:102590003FE1FF00000000000000000FFFC07FF3DC
:1025A000FF800000000000000007FFC0FFFFFFC029
:1025B0000000000000000003FFC1F87F87E000007A
:1025C000000000000001FFC1F03F03E00000000038
:1025D00000000000FFC1E01E01E01F0003E000005A
:1025E00000007FC1E01E01E07FC00FF80000000086
:1025F0003FC1E01E01E1FFE01FFC000000001FC121
:10260000E01E01E3FFF03FFE000000000FC1E01EEE
:1026100001E3F3F83F3E0000000007C1E01E01E7C0
:10262000E0FC7C1F0000000007C1E01E01E7C07C49
:102630007C0F0000000003C1E01E01E7807C780FE2
:102640000000000003C1E01E01E7803C78000000AC
:10265000000003C1E01E01E7803C7800000000009C
:1026600003C1E01E01E7803C78000000000003C1C8
:10267000E01E01E7C03C78000000000003C1E01E3E
:1026800001E3E03C78000000000003C1E01E01E32C
:10269000FF3FF8000000000003C1E01E01E1FF3F22
:1026A000F8000000000003C1E01E01E0FF3FF80059
:1026B0000000000003C1E01E01E07F3FF8000000C1
:1026C00000000360000000000000000000000000A7
:1026D000076000000000000000000000000006701D
:1026E0000000000000000000000000000E380000A4
:1026F000000000000000000000001C1E00000000A0
:102700000000000000000000780FFFFFFFFFFFFF48
:10271000FFFFFFFFFFFFF001FFFFFFFFFFFFFFFFD6
:10272000FFFFFFFF8001FFFFFFFFFFFFFFFFFFFF36
:10273000FFFFFF0FFFFFFFFFFFFFFFFFFFFFFFFF99
:10274000FF1E0000000000000000000007FFFF382F
:102750000000000000000000000003FFFF70000008
:10276000000000000000000001FFFF60000000000A
:1027700000000000000000FFFF60000000000000FB
:1027800000000000007FFFC000000000000000000B
:102790000000003FFFC00FC0FC0000000000000070
:1027A000001FFFC03FE1FF00000000000000000F1D
:1027B000FFC07FF3FF800000000000000007FFC0A3
:1027C000FFFFFFC00000000000000003FFC1F87F12
:1027D00087E00000000000000001FFC1F03F03E0BF
:1027E0000000000000000000FFC1E01E01E01F002B
:1027F0000000000000007FC1E01E01E07FC000007B
:10280000000000003FC1E01E01E1FFE00000000009
:1028100000001FC1E01E01E3FFF000000000000007
:102820000FC1E01E01E3F3F800000000000007C143
:10283000E01E01E7E0FC00000000000007C1E01E10
:1028400001E7C07C00000000000003C1E01E01E7BA
:10285000807C00000000000003C1E01E01E7803C16
:1028600000000000000003C1E01E01E7803C000002
:102870000000000003C1E01E01E7803C00000000F2
:10288000000003C1E01E01E7C03C000000000000A2
:1028900003C1E01E01E3E03C00000000000003C1B2
:1028A000E01E01E3FF3F00000000000003C1E01E46
:1028B00001E1FF3F00000000000003C1E01E01E055
:1028C000FF3F00000000000003C1E01E01E07F3F69
:1028D0000000000000000360000000000000000095
:1028E0000000000007600000000000000000000081
:1028F0000000067000000000000000000000000062
:102900000E380000000000000000000000001C1E47
:10291000000000000000000000000000780FFFFF32
:10292000FFFFFFFFFFFFFFFFFFFFF001FFFFFFFFC4
:10293000FFFFFFFFFFFFFFFF8001FFFFFFFFFFFF24
:10294000FFFFFFFFFFFFFF0FFFFFFFFFFFFFFFFF87
:10295000FFFFFFFFFF1E000000000000000000005E
:1029600007FFFF380000000000000000000003FF28
:10297000FF700000000000000000000001FFFF6089
:102980000000000000000000000000FFFF600000E9
:102990000000000000000000007FFFC000000000F9
:1029A000000000000000003FFFC00FC0FC0000005E
:1029B00000000000001FFFC03FE1FF00000000001A
:1029C0000000000FFFC07FF3FF8000000000000048
:1029D0000007FFC0FFFFFFC0000000000000000371
:1029E000FFC1F87F87E00000000000000001FFC188
:1029F000F03F03E00000000000000000FFC1E01E07
:102A000001E000000000000000007FC1E01E01E0C6
:102A100000000000000000003FC1E01E01E00000D7
:102A20000000000000001FC1E01E01E000000000E7
:102A3000000000000FC1E01E01E0000000000000E7
:102A4000000007C1E01E01E00000000000000000DF
:102A500007C1E01E01E0000000000000000003C10B
:102A6000E01E01E0000000000000000003C1E01EC5
:102A700001E0000000000000000003C1E01E01E0D2
:102A8000000000000000000003C1E01E01E00000A3
:102A900000000000000003C1E01E01E00000000093
:102AA0000000000003C1E01E01E000000000000083
:102AB000000003C1E01E01E0000000000000000073
:102AC00003C1E01E01E0000000000000000003C19F
:102AD000E01E01E0000000000000000003C1E01E55
:102AE00001E00000000000000000036000000000A2
:102AF000000000000000000007600000000000006F
:102B0000000000000000067000000000000000004F
:102B1000000000000E38000000000000000000006F
:102B200000001C1E0000000000000000000000006B
:102B3000780FFFFFFFFFFFFFFFFFFFFFFFFFF00129
:102B4000FFFFFFFFFFFFFFFFFFFFFFFF8001FFFF12
:102B5000FFFFFFFFFFFFFFFFFFFFFF0FFFFFFFFF75
:102B6000FFFFFFFFFFFFFFFFFF1E00000000000050
:102B70000000000007FFFF38000000000000000018
:102B8000000003FFFF7000000000000000000000D4
:102B900001FFFF600000000000000000000000FFD7
:102BA000FF6000000000000000000000007FFFC088
:102BB00000000000000000000000003FFFC0000017
:102BC0000000000000000000001FFFC00000000027
:102BD000000000000000000FFFC000000000000027
:102BE000000000000007FFC000000000000000001F
:102BF00000000003FFC00000000000000000000013
:102C00000001FFC000000000000000000000000004
:102C1000FFC00000000000000000000000007FC0B6
:102C20000000000000000000000000003FC00000A5
:102C3000000000000000000000001FC000000000B5
:102C400000000000000000000FC0000000000000B5
:102C500000000000000007C00000000000000000AD
:102C60000000000007C0000000000000000000009D
:102C7000000003C000000000000000000000000091
:102C800003C000000000000000000000000003C0BE
:102C900000000000000000000000000003C0000071
:102CA0000000000000000000000003C00000000061
:102CB000000000000000000003C000000000000051
:102CC00000000000000003C0000000000000000041
:102CD0000000000003C00000000000000000000031
:102CE000000003C000000000000000000000000021
:102CF00003C00000000000000000000000000360AE
:102D0000000000000000000000000000076000005C
:102D1000000000000000000000000670000000003D
:102D200000000000000000000E380000000000005D
:102D30000000000000001C1E000000000000000059
:102D400000000000780FFFFFFFFFFFFFFFFFFFFF06
:102D5000FFFFF001FFFFFFFFFFFFFFFFFFFFFFFF90
:102D600080000000000000000000000000000000E3
:102D70000000000000000000000000000000000053
:102D80000000047F03E00001F8000F00007F8003D3
:102D9000F0000C7F03F00003F8001F80007FC007E5
:102DA000F0000C7F03F80007F8003F80007FC00FA1
:102DB000F0001C7F03FC000FF8003FC0003FE01F45
:102DC000F0001C7F03FE001FF8003FC0001FF03F13
:102DD000F0003C7F01FF003FF8001FE0000FF87F8C
:102DE000F0003C7F00FF807FF8000FE00007F87FD5
:102DF000E0007C7F007FC0FFF8000FF00007FC3F81
:102E0000C0007C7F003FE1FFF80007F80003FE1FD1
:102E10008000FC7F001FFFFFF80187F80001FF0F13
:102E20000000FC7F030FFFFFF801C3FC0000FF86DA
:102E30000001FC7F0387FFF3F803E3FC00007F80C1
:102E40000001FC7F03C3FFE3F803E1FE00007FC045
:102E50000003FC7F03E1FFC3F807F1FE00003FE041
:102E60000003FC7FE3F0FF83F807F0FF00001FF092
:102E70000007FC7FE3F87F03F80FF07F00000FF0FE
:102E80000007FC7FE3F81E03F80FE07F80000FF8D7
:102E9000000FFC7FE3F80003F81FE3FF800387FCCB
:102EA000000FFC7FE3F80003F81FC3FFC007C3FE59
:102EB000001FFC7FE3F80003F83FC7FFC00FE1FEEF
:102EC0000000007F03F80003F83F87FFE01FF1FFD9
:102ED0000000007F03F80003F87F8FFFE03FF0FF62
:102EE0008000007F03F80003F87F0FFFF07FF07F82
:102EF000C000007F03F80003F8FF0007F0FFE03F89
:102F0000C000007F03F80003F8FE0007F8FFC03F91
:102F1000E000007F03F80003F9FE0003F8FF801FC4
:102F2000F000007F03F80003F9FC0003FCFF000F32
:102F3000F000007F03F80003FBFC0001FCFE000F23
:102F4000F000000000000000000000000000000091
:102F50000000000000000000000000000000000071
:102F60000068747470733A2F2F6769742E696F2F1D
:102F7000666A587A7200344D415820322E302E360F
:102F800030303252656C2E004D2B39292527112502
:102F9000FD22E920D51E70012C0190012701B0010E
:102FA0002201C0011D01F0011801100213013002BD
:102FB0000E016002090190020401C002FF0000033B
:102FC000FA004003F5008003F000D003EB0020047A
:102FD000E6007004E100E004DC004005D700C00515
:102FE000D2004006CD00D006C8008007C3003008DC
:102FF000BE00F008B900C009B400B00AAF00B00BC1
:10300000AA00D00CA500000EA000500F9B00C0101D
:1030100096005012910000148C00C0158700B01764
:103020008200B0197D00D01B7800001E7300402084
:103030006E0090226900F024640040275F00902910
:103040005A00E02B5500102E500020304B0010325B
:103050004600E033410090353C00103737007038AF
:103060003200A0392D00B03A2800A03B2300603C7C
:103070001E00103D1900903D1400103E0F00703EE0
:103080000A00C03E0500003F0000403FFBFF803FBC
:10309000F6FFC03FF1FF2020506C616E6E657242FA
:1030A000756666657242797465733A2000204672CF
:1030B0006565204D656D6F72793A2000436F6D70C4
:1030C000696C65643A2041756720313920323032AD
:1030D000300A00204C61737420557064617465641B
:1030E0003A20323032302D30372D3238207C20419A
:1030F0007574686F723A202847336D316E315333DF
:10310000727633722C20416E796375626963203464
:103110004D4158290A00344D415820322E302E3668
:1031200030303252656C2E0A004D61726C696E004F
:1031300020536F6674776172652052657365740AF7
:1031400000205761746368646F672052657365740B
:103150000A002042726F776E206F7574205265737B
:1031600065740A002045787465726E616C20526542
:103170007365740A00506F77657255700A00737436
:103180006172740A006175746F25632E670047329F
:10319000385859004D31303031006572726F7220ED
:1031A00077726974696E6720746F2066696C650A4E
:1031B00000446F6E6520736176696E672066696C86
:1031C000652E0A004D323900456E6473746F70705D
:1031D00000255320256320256320256320256300D7
:1031E000205A3A0020593A0020583A00656E64731C
:1031F000746F7073206869743A20004520537465B9
:1032000070732F6D6D005A2053746570732F6D6D40
:1032100000592053746570732F6D6D0058205374DE
:103220006570732F6D6D004572772E2045696E7342
:1032300074656C6C756E67656E003F00416262720A
:10324000656368656E0042657374C3A474696765DD
:103250006E004D343238005765726B7365696E735A
:1032600074656C6C756E67656E0046696C616D6542
:103270006E740054656D706572617475720053747C
:103280006570732F6D6D004A756E6374696F6E2083
:103290004465760042657363686C65756E69677531
:1032A0006E6700476573636877696E6469676B650D
:1032B0006974005365747A6520486F6D6576657230
:1032C0007361747A004B6F6E6669677572617469B9
:1032D0006F6E003F004EC3A46368737465204B6F2C
:1032E0006F7264696E617465004665727469670027
:1032F00057656974657200486F6D696E672058592B
:103300005A00417573736368616C742044656C6125
:1033100079004CC3BC66746572204D6F746F726C1B
:10332000617374004D6F746F726C617374204D6FB4
:10333000647573004CC3BC66746572204C6565721D
:103340006C61756600426574740044C3BC736500AB
:103350004CC3BC66746572004B6F6E6669677572AC
:103360006174696F6E004265747400476568C3A438
:10337000757365004C6164656E206D6D00456E74FB
:103380006C6164656E206D6D0046696C616D656E83
:103390007464757263686D65737365720045206946
:1033A0006E206D6DC2B3001FE03FF03FF03FF01F95
:1033B000E01FE03FF03FF03FF00FC0078003001F29
:1033C000E02010201020101020102020102010309D
:1033D000300840048003003FFFF83E00F839F03821
:1033E00031E01831E01821E1E820F3E8207FE820FF
:1033F00077E828EE282FDC082FFC082F9E082F0FD7
:1034000008300F18300F18381F383E00F83FFFF80B
:103410003FFFF83E00F8383F38307E18307C1828DF
:103420007C082C38082F39C82FFFE82FC7E82FFF5A
:10343000E82739E8203868207C28307C1830FC18D0
:1034400039F8383E00F83FFFF83FFFF83E00F83803
:103450000F38341FD8361F982F1F082F9E082FFCB7
:10346000082FDC0827EFC82077E8207FE820F3E862
:1034700021F1E833F0D837F05839E0383E00F83F12
:10348000FFF83FFFF83E80F83980383781D837C3DE
:10349000D827C7E823C7F821FF88206C08206C08CC
:1034A000206C0823FF083FC7882FC7C83787D83745
:1034B00003D83803383E02F83FFFF81FFFF81FFF1C
:1034C000F804104002082002082004104008208060
:1034D0001041001041000820800410400000001F2F
:1034E000FFF81FFFF82100140706003372D1C089CE
:1034F000003F0B152109002D3A15220900214A151C
:10350000240900213A1527A600000000000000FF52
:10351000FFFFFFFFC00000000000000B1870E1C3B8
:10352000801B0CF0E0E7003B27F07076003B33F1A6
:103530003030007B3333B818007BB033B80C007BDD
:10354000B0373C6E000330377CE7000330360DC3E4
:1035500080000000000000FFFFFFFFFFC000000030
:1035600000000007000008400009649D2F0E000FB6
:1035700054A12950000954A12950000957BDEF5EFC
:103580000000008000000000078000000000000034
:1035900000000000000000000053442063617264DA
:1035A000206F6B0A006F70656E526F6F74206661DA
:1035B000696C65640A00766F6C756D652E696E695D
:1035C00074206661696C65640A004E6F2053442064
:1035D000636172640A004D3234004D32332025732A
:1035E0000046696C652073656C65637465640A00E8
:1035F0002053697A653A200046696C65206F7065D2
:103600006E65643A2000454E4420535542524F5552
:1036100054494E450A002220706F730022207061C9
:1036200072656E743A2200535542524F5554494EBA
:10363000452043414C4C207461726765743A220006
:1036400053756263616C6C204F766572666C6F7740
:10365000004578636565646564206D617820535525
:1036600042524F5554494E452064657074683A3152
:103670000A0057726974696E6720746F2066696CFE
:10368000653A20002E0A006F70656E206661696CD5
:1036900065642C2046696C653A2000667265736823
:1036A00000646F696E67002066696C653A20004EA1
:1036B0006F77200002447275636B206162676562F8
:1036C000726F6368656E004D323520500A4D32349A
:1036D0000050617573652E2E2E005761726E696EF3
:1036E000673A20436C65616E20436972636C6520A4
:1036F00072657175697265732058590A0057617255
:103700006E696E673A20526164697573204F7574F3
:10371000206F662052616E67650A0024F4D4305031
:10372000C38E20C2A24017828B7011127A910D8134
:103730006CD90AA861E108C7586607615143061EA3
:103740004B5D05C145A7041A411104093D98037159
:103750003931034036DB0265339102D430540280A4
:103760002E1D02632CEE01752AC501B028A00110A0
:103770002781018F2564012B244B01E0223401AC09
:10378000211F018D200D01801FFC00841EED00977C
:103790001DDF00B81CD200E61BC600201BBC006465
:1037A0001AB200B219A8000A19A0006A189900D12B
:1037B00017910040178B00B516840031167E00B3B8
:1037C0001579003A157300C7146F0058146A00EE9B
:1037D0001366008813630025135E00C7125B006C3C
:1037E00012570015125400C111510070114F0021E1
:1037F000114B00D61049008D1047004610440002BE
:10380000104200C00F4000800F3E00420F3C0006F7
:103810000F3B00CB0E3800930E37005C0E350027AF
:103820000E3400F30D3200C10D3100900D300060F8
:103830000D2E00320D2D00050D2C00D90C2B00AEE5
:103840000C2900850C29005C0C2700350C27000E84
:103850000C2600E80B2400C40B2400A00B23007DE1
:103860000B23005A0B2100390B2100180B2000F804
:103870000A1F00D90A1E00BB0A1E009D0A1D0080F7
:103880000A1D00630A1C00470A1B002C0A1B0011BA
:103890000A1A00F7091A00DD091900C4091900AB5A
:1038A000091900920917007B091800630917004CD9
:1038B00009160036091600200916000A091500F538
:1038C000081500E0081400CC081400B8081400A47F
:1038D000081400900813007D0812006B08130058AC
:1038E00008120046081200340811002308110012C3
:1038F00008110001081100F0071000E0071000D0C7
:10390000071000C0071000B0070F00A107100091BA
:10391000070E0083070F0074070F0065070E00579E
:10392000070E0049070E003B070D002E070E002072
:10393000070D0013070D0006070D00F9060C00ED3A
:10394000060D00E0060C00D4060C00C8060C00BCF6
:10395000060C00B0060C00A4060B0099060C008DA6
:10396000060B0082060B0077060B006C060B00614D
:10397000060A0057060B004C060A0042060A0038E9
:10398000060A002E060A0024060A001A060A00107B
:1039900006090007060A00FD050900F4050900EB09
:1039A000050900E2050900D9050900D0050900C78D
:1039B000050900BE050900B5050800AD050800A50C
:1039C0000509009C050800940508008C0508008482
:1039D0000508007C050800740508006C05070065F3
:1039E0000508005D050700560508004E050700475D
:1039F0000507004005080038050700310507002AC3
:103A0000050700230507001C050600160507000F23
:103A10000507000805060002050700FB040600F57F
:103A2000040700EE040600E8040600E2040700DBD9
:103A3000040600D5040600CF040600C9040600C32E
:103A4000040600BD040600B7040600B1040500AC7E
:103A5000040600A6040600A00405009B04060095C9
:103A6000040500900406008A040500850405008012
:103A70000406007A04050075040500700405006B57
:103A800004050066040500610405005C0405005798
:103A9000040500520405004D0405004804050043D8
:103AA0000405003E0404003A040500350405003016
:103AB0000404002C04050027040400230405001E50
:103AC0000404001A04040016040500110404000D87
:103AD000040400090405000404040000040400FCBC
:103AE000030400F8030400F4030400F0030400ECF2
:103AF000030400E8030400E4030400E0030400DC22
:103B0000030400D8030400D4030400D0030400CC51
:103B1000030400C8030300C503030024F404D920F0
:103B20001BC40C5C0E9804C4095F0265077101F4A4
:103B300005F900FB04B30048048700C1036900587D
:103B400003550003034500BE023A008402310053CE
:103B5000022A002902250004022000E4011C00C8FA
:103B6000011900AF011700980114008401130071BE
:103B70000110006101100051010E0043010D0036DB
:103B8000010B002B010B0020010B00150109000C9B
:103B900001090003010800FB000800F3000800EB26
:103BA000000700E4000600DE000600D8000600D290
:103BB000000600CC000500C7000500C2000500BDDE
:103BC000000400B9000400B5000400B1000400AD19
:103BD000000400A9000400A5000300A20003009F48
:103BE0000004009B0003009800030095000200936E
:103BF000000300900003008D0002008B000300888A
:103C00000002008600020084000300810002007FA1
:103C10000002007D0002007B0002007900020077B4
:103C200000010076000200740002007200010071C1
:103C30000002006F0002006D0001006C0002006ACB
:103C400000010069000200670001006600010065D4
:103C500000010064000200620001006100010060D8
:103C60000001005F0002005D0001005C0001005BDC
:103C70000001005A000100590001005800010057DE
:103C800000010056000100550001005400010053DE
:103C900000000053000100520001005100010050DB
:103CA0000001004F0001004E0000004E0001004DD9
:103CB0000001004C0001004B0000004B0001004AD5
:103CC00000010049000100480000004800010047D1
:103CD00000010046000000460001004500000045CC
:103CE00000010044000100430000004300010042C5
:103CF00000000042000100410000004100010040BE
:103D00000001003F0000003F0001003E0000003EB7
:103D10000001003D0000003D0001003C0000003CAF
:103D20000000003C0001003B0000003B0001003AA5
:103D30000000003A0001003900000039000100389D
:103D40000000003800000038000100370000003794
:103D5000000100360000003600000036000100358A
:103D60000000003500000035000100340000003480
:103D70000000003400010033000000330000003375
:103D8000000100320000003200000032000100316A
:103D90000000003100000031000100300000003060
:103DA000000000300001002F0000002F0000002F55
:103DB0000000002F0001002E0000002E0000002E49
:103DC0000001002D0000002D0000002D0000002D3E
:103DD0000001002C0000002C0000002C0000002C32
:103DE0000001002B0000002B0000002B0000002B26
:103DF0000001002A0000002A0000002A0000002A1A
:103E0000000100290000002900000029000000290D
:103E10000000002900010028000000280000002800
:103E200000000028000000280001002700000027F3
:103E300000000027000000270000002700010026E6
:103E400000000026000000260000002600000026DA
:103E500000010025000000250000002500000025CD
:103E600000000025000000250001002400000024BF
:103E700000000024000000240000002400010023B2
:103E800000000023000000230000002300000023A6
:103E90000000002300000023000100220000002297
:103EA000000000220000002200000022000000228A
:103EB000000100210000002100000021000000217D
:103EC000000000210000002100000021000100206E
:103ED0000000002000000020000000200000002062
:103EE0000000002000000020000000200001001F52
:103EF0000000001F0000001F0000001F0000001F46
:103F00000000001F0000001F0001001E0000001E36
:103F10000000001E0000001E0000003930000033C9
:103F200025000087190000B00F0000DB080000BD6D
:103F3000040000740200003F01000000005A43002A
:103F4000005A43000096430000A0C000000000009B
:103F500000000045696E7374656C6C2E2067657394
:103F60007065692E00290A002062797465733B2010
:103F7000637263200053657474696E6773205374B1
:103F80006F7265642028004669656C642062616315
:103F90006B6C6173685F64697374616E63655F6D98
:103FA0006D206D69736D617463682E0A00466965E2
:103FB0006C642066635F73657474696E6773206DEB
:103FC00069736D617463682E0A004669656C6420CC
:103FD000706C616E6E65725F736B65775F6661634F
:103FE000746F72206D69736D617463682E0A004688
:103FF00069656C6420636F6F7264696E6174655F7C
:1040000073797374656D206D69736D617463682E67
:104010000A004669656C64206D6F746F725F63752A
:104020007272656E745F73657474696E67206D6912
:10403000736D617463682E0A004669656C64207054
:104040006C616E6E65725F65787472756465725FBF
:10405000616476616E63655F4B206D69736D617439
:1040600063682E0A004669656C6420746D635F7333
:104070007465616C74685F656E61626C6564206D07
:1040800069736D617463682E0A004669656C64200B
:10409000746D635F6879627269645F746872657376
:1040A000686F6C64206D69736D617463682E0A00BB
:1040B0004669656C6420746D635F737465707065C8
:1040C000725F63757272656E74206D69736D617471
:1040D00063682E0A004669656C64207061727365BE
:1040E000725F766F6C756D65747269635F656E6122
:1040F000626C6564206D69736D617463682E0A007B
:104100004669656C64206677726574726163745F7A
:1041100073657474696E6773206D69736D61746320
:10412000682E0A004669656C64207265636F766567
:1041300072795F656E61626C6564206D69736D6133
:104140007463682E0A004669656C6420636F6E7440
:10415000726F6C6C657246616E5F73657474696EC4
:104160006773206D69736D617463682E0A00466918
:10417000656C64206C63645F636F6E7472617374EA
:10418000206D69736D617463682E0A004669656C01
:104190006420706F7765725F6D6F6E69746F725FA8
:1041A000666C616773206D69736D617463682E0A54
:1041B000004669656C6420626564504944206D69FD
:1041C000736D617463682E0A004669656C64206CC7
:1041D00070715F6C656E206D69736D617463682EBC
:1041E0000A004669656C6420686F74656E645049A6
:1041F00044206D69736D617463682E0A00466965B9
:104200006C642075695F6D6174657269616C5F7063
:104210007265736574206D69736D617463682E0ACD
:10422000004669656C6420626C746F7563685F6CCE
:104230006173745F7772697474656E5F6D6F6465C6
:10424000206D69736D617463682E0A004669656C40
:104250006420736572766F5F616E676C6573206D45
:1042600069736D617463682E0A004669656C642029
:10427000706C616E6E65725F6C6576656C696E6799
:104280005F616374697665206D69736D61746368DD
:104290002E0A004669656C642070726F62655F6FFC
:1042A0006666736574206D69736D617463682E0A48
:1042B000004669656C642072756E6F75745F736516
:1042C0006E736F725F656E61626C6564206D697399
:1042D0006D617463682E0A004669656C6420686FBE
:1042E0006D655F6F6666736574206D69736D61746B
:1042F00063682E0A004669656C6420657374657096
:1043000070657273206D69736D617463682E0A0045
:1043100046494C414D454E5420454E544C41444530
:104320004E0046494C414D454E54204C4144454E6B
:104330000046494C414D454E54205745434853454E
:104340004C004B6F6E6669672E206C6164656E0071
:104350005374616E646172647765727465206C6118
:1043600064656E004B6F6E6669672E2073706569B9
:10437000636865726E00242045696E7374656C6CA9
:10438000756E67656E0061757300616E0052756EC3
:104390006F75742D53656E736F72004CC3BC667479
:1043A0006572204B6F6E74726F6C6C657200457233
:1043B000772E2045696E7374656C6C756E67656EDB
:1043C0000048617570746D656EC3BC004D37303246
:1043D00020542564004D363030204230205425646E
:1043E000004D373032203B2564004D3730312054AA
:1043F0002564004D373032004D373031004D3630B6
:10440000302042300048617570746D656EC3BC0029
:10441000447275636B2077656974657200617573AA
:1044200000616E0052756E6F75742D53656E736FFB
:1044300072004D65687220656E746C6164656E0013
:10444000464F5254532E204F5054494F4E454E3AEA
:1044500000445255434B2050415553494552540056
:10446000202044C3BC73653A2000447275636B20FE
:104470006973740070617573696572742E2E2E00F5
:10448000005761727465206175662064656E005323
:1044900074617274206465730046696C616D656E49
:1044A000747765636873656C732E2E2E0057617286
:1044B000746520617566004865726175736E616828
:1044C0006D65006465732046696C616D656E74731B
:1044D0002E2E2E0044C3BC7365206865697A742053
:1044E0006175660062697474652077617274656EC7
:1044F0002E2E2E00004B6E6F7066206472C3BC635C
:104500006B656E20756D0044C3BC73652061756674
:104510007A756865697A656E000046696C616D65DB
:104520006E742065696E6C6567656E00756E6420DB
:104530004B6E6F7066206472C3BC636B656E0075F2
:104540006D20666F72747A757365747A656E005744
:104550006172746520617566004C6164656E2064EB
:1045600065730046696C616D656E74732E2E2E0046
:104570004B6E6F7066206472C3BC636B656E207592
:104580006D00447275636B20666F72747A75736523
:10459000747A656E000057617274652061756600FB
:1045A000466F72747365747A656E20646573004437
:1045B0007275636B732E2E2E0057617274652061C5
:1045C000756600456E746C6164656E206465730089
:1045D00046696C616D656E74732E2E2E0031353018
:1045E000003A200035003A20004245443A45504305
:1045F0004F53203130304B0052756E617761792016
:1046000057617463683A204F4E004D6178205465BD
:104610006D7000323735003A20004D696E205465C8
:104620006D700035003A200045313A204550434F27
:1046300053203130304B000000A0C00000000000CB
:10464000000000000048420000484200002041579E
:1046500061726E696E673A20486F6D696E672042BD
:10466000756D702044697669736F72203C20310A41
:10467000000202040000A0400000A0400000004032
:1046800000005F4300005A4300009643FFFFFF0015
:104690000000010000000100008000555555000099
:1046A00000400033333300AAAA2A004992240000B4
:1046B000002000C7711C0099991900D145170055B9
:1046C0005515003BB11300244912001111110000CF
:1046D0000010000F0F0F00E3380E0043790D00CCDF
:1046E000CC0C00C3300C00E8A20B0064210B00AA24
:1046F000AA0A00703D0A009DD80900427B09009279
:10470000240900DCD3080088880800104208000053
:10471000000800F0C1070087870700755007007187
:104720001C07003EEB0600A1BC060069900600666F
:10473000660600703E06006118060017F405007456
:10474000D105005BB00500B290050062720500550E
:1047500055050078390500B81E0500050505004E11
:10476000EC040087D40400A1BD040090A704004914
:10477000920400C17D0400EE690400C756040044A1
:104780004404005C320400082104004110040000CD
:104790000004003FF00300F8E0030026D20300C34A
:1047A000C30300CCB503003AA803000A9B030038FA
:1047B0008E0300C08103009F750300D06903005081
:1047C0005E03001D53030034480300913D03003392
:1047D00033030016290300381F0300971503003028
:1047E0000C0300030303000BFA020049F10200BAB4
:1047F000E802005CE002002DD802002DD002005932
:10480000C80200B0C0020031B90200DAB10200AA49
:10481000AA0200A0A30200BC9C0200FA9502005C60
:104820008F0200DF88020082820200457C0200279E
:1048300076020027700200436A02007C640200D006
:104840005E02003F590200C8530200FFFDFCFAF867
:10485000F6F4F2F0EEECEAE9E7E5E3E1E0DEDCDADB
:10486000D9D7D5D4D2D0CFCDCBCAC8C7C5C3C2C083
:10487000BFBDBCBAB9B7B6B4B3B2B0AFADACAAA9FC
:10488000A8A6A5A4A2A1A09E9D9C9A99989795944C
:104890009392908F8E8D8B8A89888786848382817C
:1048A000807F7E7D7B7A797877767574737271708C
:1048B0006F6E6D6C6B6A6968676665646362616080
:1048C0005F5E5D5C5B5A5958585756555453525168
:1048D00050504F4E4D4C4B4A4A4948474646454436
:1048E00043424241403F3E3E3D3C3B3B3A393838F3
:1048F00037363535343332323130302F2E2E2D2CA1
:104900002B2B2A2929282727262525242323222142
:104910002120201F1E1E1D1C1C1B1B1A19191818D4
:10492000171616151514131312121111100F0F0E5E
:104930000E0D0D0C0C0B0A0A0909080807070606DC
:10494000050504040303020201000020436F756E95
:104950007420583A00004265747400453100626565
:1049600064002C2073797374656D2073746F70709C
:10497000656421204865617465725F49443A20008E
:104980004845495A454E204552464F4C474C4F5397
:104990000048656174696E67206661696C656400D2
:1049A000202D20496E76616C69642065787472757B
:1049B000646572206E756D62657220210A002008A0
:1049C000204E4943485420455252454943485400DB
:1049D000546865726D616C2052756E617761790003
:1049E000200820C39C4245525343485249545445E1
:1049F0004E004D415854454D5020747269676765AB
:104A000072656400200820554E5445525343485265
:104A1000495454454E004D494E54454D50207472F2
:104A200069676765726564000A0A0020205A5F4D55
:104A3000494E3A002020595F4D494E3A00202058F7
:104A40005F4D494E3A00220A00556E6B6E6F776ECD
:104A500020636F6D6D616E643A202200DB0FC93FE9
:104A600045BCDA3F8FB30240FCF0274056946140CA
:104A7000FE4B9B4084A5D840E0231841346A564140
:104A8000E859974164DBD5416E271742B4B75542C8
:104A9000CE1A9742C8AED542B5885A43D40684BFD1
:104AA000A65FA7BF7443E0BF10B11AC01C2C58C04A
:104AB000E8F697C0B849D6C04E4E17C124D355C1A9
:104AC000802497C1A0B5D5C1121A17C244AE55C2F1
:104AD000781797C26CACD5C267885AC320746F6FC1
:104AE000206C6F6E6720657874727573696F6E20C5
:104AF00070726576656E7465640A0020636F6C641D
:104B000020657874727573696F6E20707265766552
:104B10006E7465640A00446F6E652E0A0050756CF1
:104B200073696E6720202000556E746F7563686529
:104B30006420005A5F50524F42455F534552564FD2
:104B40005F4E52206E6F74207365742075702E0A4C
:104B5000005761746368696E672070696E730A003C
:104B600064697300656E0061626C65640A00656E5D
:104B70006473746F70206D6F6E69746F72200020A3
:104B80004D393220580020580020204D61783A20BD
:104B900000200020204D696E3A2000536F6674207B
:104BA000656E6473746F70733A2000206F757420A3
:104BB0006F662072616E67650A00536572766F20BA
:104BC000003A200020536572766F200025290A00E4
:104BD000252000203B2028002044002041002049BF
:104BE0000020204D3731302053003B20436F6E743E
:104BF000726F6C6C65722046616E0A0020496E7699
:104C0000616C696420657874727564657220004314
:104C100061703A0047322F4733206261642070612F
:104C200072616D65746572730A00220A00656E71A7
:104C300075657565696E672022006F6B005265733C
:104C4000656E643A20005A5F53544F505F50494E8E
:104C5000005A5F535445505F50494E005A5F4D49CA
:104C60004E5F50494E005A5F454E41424C455F50A1
:104C7000494E005A5F4449525F50494E00595F53B4
:104C8000544F505F50494E00595F535445505F5048
:104C9000494E00595F4D494E5F50494E00595F459E
:104CA0004E41424C455F50494E00595F4449525F66
:104CB00050494E00585F53544F505F50494E005872
:104CC0005F535445505F50494E00585F4D494E5F09
:104CD00050494E00585F454E41424C455F50494E49
:104CE00000585F4449525F50494E0053535F50494A
:104CF0004E00534552564F335F50494E0053455274
:104D0000564F325F50494E00534552564F315F5017
:104D1000494E00534552564F305F50494E00534460
:104D200053530053445F4445544543545F50494EE8
:104D30000053434B5F50494E0052414D50535F4426
:104D4000395F50494E0052414D50535F44385F50D7
:104D5000494E0052414D50535F4431305F50494EEF
:104D6000004D4F53495F50494E004D49534F5F50DE
:104D7000494E004D4158363637355F53535F5049E1
:104D80004E004C45445F50494E004C43445F5049EF
:104D90004E535F5253004C43445F50494E535F455E
:104DA0004E41424C45004C43445F50494E535F4492
:104DB00037004C43445F50494E535F4436004C43E8
:104DC000445F50494E535F4435004C43445F504963
:104DD0004E535F4434004845415445525F42454478
:104DE0005F50494E004845415445525F305F50493D
:104DF0004E0046494C5F52554E4F55545F50494EF8
:104E00000046414E325F50494E0046414E315F50A0
:104E1000494E0046414E5F50494E0045315F535464
:104E200045505F50494E0045315F454E41424C452B
:104E30005F50494E0045315F4449525F50494E0032
:104E400045315F43535F50494E0045305F535445F1
:104E5000505F50494E0045305F454E41424C455FE2
:104E600050494E0045305F4449525F50494E00451D
:104E7000305F4155544F5F46414E5F50494E0045AB
:104E80005F4D5558325F50494E00455F4D55583182
:104E90005F50494E00455F4D5558305F50494E00B8
:104EA000444F474C43445F53434B00444F474C43AC
:104EB000445F4D4F534900434F4E54524F4C4C4565
:104EC000525F46414E5F50494E0042544E5F454E40
:104ED000430042544E5F454E320042544E5F454EB1
:104EE00031004245455045525F50494E00415652AF
:104EF0005F53535F50494E004156525F53434B5FDF
:104F000050494E004156525F4D4F53495F50494EF4
:104F1000004156525F4D49534F5F50494E00544532
:104F20004D505F4245445F50494E0054454D505FDF
:104F3000315F50494E0054454D505F305F50494EEF
:104F4000005458443000525844300050574D3A20D5
:104F5000202534640050574D3A20202534640050F9
:104F6000574D3A20202534640050574D3A202025D3
:104F700034640050574D3A20202534640050574D7A
:104F80003A20202534640050574D3A2020253464BF
:104F90000050574D3A20202534640050574D3A2098
:104FA000202534640050574D3A20202534640050A9
:104FB000574D3A20202534640050574D3A20202583
:104FC00034640050574D3A20202534640050574D2A
:104FD0003A20202534640050574D3A20202534646F
:104FE0000050574D3A2020253464003A20002020FC
:104FF0002020434F4D002020206E6F6E2D73746172
:105000006E646172642050574D206D6F646500209E
:105010002020636F6D7061726520696E74657272B5
:1050200075707420656E61626C6564002020206F6D
:10503000766572666C6F7720696E746572727570D2
:105040007420656E61626C6564003A200020202047
:105050002054494D534B00423A2000202020205438
:1050600043435200413A2000202020205443435221
:10507000002020202043533A2000202020205747A2
:105080004D3A200050574D3A2020253464005057A7
:105090004D3A202025346400470048000000880075
:1050A0008A008C00B300B400000098009A009C00B5
:1050B000A800AA00AC0028012A012C0120202020F1
:1050C00054494D455200440045006E008000810067
:1050D0006F00B000B1007000900091007100A0005E
:1050E000A100720020012101730020697320616C0E
:1050F000736F207469656420746F2074686973200D
:1051000070696E0054494D45523143000A202E000B
:105110002020002020506F72743A200020202000B0
:10512000202020416E616C6F6720696E203D202534
:10513000356C64003C756E757365642F756E6B6EAF
:105140006F776E3E002028412532642920200025FB
:105150003364200050494E3A20004F7574707574C6
:10516000203D2000496E70757420203D2000416E66
:10517000616C6F6720696E203D2025356C6400707E
:10518000726F746563746564200020284125326461
:1051900029202000253364200050494E3A20004643
:1051A0004F0001414F0101364F43002B4F45001E78
:1051B0004F4400114F3201044F3301F84E3401EDDA
:1051C0004E3501E24E2501DA4E2101D24E1F01CAB1
:1051D0004E2301B74E0701AB4E3301A04E3401956B
:1051E0004E28018A4E2A017F4E2C016F4E2C0164FD
:1051F0004E1C01564E18014A4E1A01404E2C0135E4
:105200004E2201274E1E011B4E2401134E09010A96
:105210004E0701014E2C01F24D0201E54D0A01D667
:105220004D0801CA4D1701BE4D1901B24D1B01A613
:105230004D1D01964D11018A4D1001824D0D0173D6
:105240004D42016A4D3201614D3301534D0A014611
:105250004D0801394D0901314D3401234D31011EF5
:105260004D3501134D0B01084D0601FD4C0501F2B2
:105270004C0401EB4C3501E14C3701D44C2601CAFA
:105280004C0301BF4C3601B44C0301AA4C3D019DB7
:105290004C3801934C2A01884C3C017D4C2A017307
:1052A0004C3001664C3E015C4C1201514C2E0146C3
:1052B0004C12012E0A006F70656E206661696C6584
:1052C000642C2046696C653A2000000021104220C1
:1052D00063308440A550C660E770088129914AA1D7
:1052E0006BB18CC1ADD1CEE1EFF13112100273324E
:1052F0005222B5529442F772D662399318837BB327
:105300005AA3BDD39CC3FFF3DEE3622443342004DD
:105310000114E664C774A44485546AA54BB5288576
:105320000995EEE5CFF5ACC58DD55336722611162D
:105330003006D776F6669556B4465BB77AA71997C6
:105340003887DFF7FEE79DD7BCC7C448E5588668B5
:10535000A7784008611802282338CCC9EDD98EE916
:10536000AFF9488969990AA92BB9F55AD44AB77A8D
:10537000966A711A500A333A122AFDDBDCCBBFFB66
:105380009EEB799B588B3BBB1AABA66C877CE44C9D
:10539000C55C222C033C600C411CAEED8FFDECCDB6
:1053A000CDDD2AAD0BBD688D499D977EB66ED55E6D
:1053B000F44E133E322E511E700E9FFFBEEFDDDF06
:1053C000FCCF1BBF3AAF599F788F8891A981CAB192
:1053D000EBA10CD12DC14EF16FE18010A100C230C4
:1053E000E3200450254046706760B9839893FBA37F
:1053F000DAB33DC31CD37FE35EF3B1029012F32214
:10540000D2323542145277625672EAB5CBA5A895CE
:1054100089856EF54FE52CD50DC5E234C324A01463
:1054200081046674476424540544DBA7FAB799875E
:10543000B8975FE77EF71DC73CD7D326F2369106B3
:10544000B01657667676154634564CD96DC90EF9A6
:105450002FE9C899E9898AB9ABA944586548067803
:105460002768C018E1088238A3287DCB5CDB3FEBBE
:105470001EFBF98BD89BBBAB9ABB754A545A376A53
:10548000167AF10AD01AB32A923A2EFD0FED6CDD8E
:105490004DCDAABD8BADE89DC98D267C076C645CA3
:1054A000454CA23C832CE01CC10C1FEF3EFF5DCF9E
:1054B0007CDF9BAFBABFD98FF89F176E367E554EF3
:1054C000745E932EB23ED10EF01E20453A00205A53
:1054D0003A0020593A00583A00202F002042403A22
:1054E0000020403A0020573A000009121B242D36B4
:1054F0003F48415A536C657E7719100B023D342F9B
:10550000265158434A757C676E323B2029161F048A
:105510000D7A7368615E574C452B2239300F061D9A
:1055200014636A7178474E555C646D767F404952CA
:105530005B2C253E3708011A137D746F6659504B5A
:1055400042353C272E1118030A565F444D727B608A
:10555000691E170C053A3328214F465D546B62795A
:1055600070070E151C232A31384148535A656C7751
:105570007E09001B122D243F3658514A437C756E1C
:10558000671019020B343D262F737A6168575E4508
:105590004C3B3229201F160D046A6378714E475C1C
:1055A00055222B3039060F141D252C373E010813C8
:1055B0001A6D647F7649405B523C352E2718110ADC
:1055C00003747D666F5059424B171E050C333A2108
:1055D000285F564D447B7269600E071C152A2338DC
:1055E00031464F545D626B70797C3C3E5E2B3D3F93
:1055F0002F5B5D3B2C2A225C00454550524F4D20CD
:10560000496E697469616C697A65640A00486172FF
:1056100064636F6465642044656661756C742053CF
:10562000657474696E6773204C6F616465640A0009
:105630000000964300009643000020410000C8414E
:105640000000A0420000A0420000C8433333B9422A
:10565000DC050000DC0500006400000010270000ED
:105660003B200020204D363033200020204D3431A7
:105670003220530046696C616D656E742072756EE0
:105680006F75742073656E736F723A002055004C0D
:105690000046696C616D656E74206C6F61642F7576
:1056A0006E6C6F6164206C656E677468733A00207D
:1056B000440020490020204D333031205000504913
:1056C000442073657474696E67733A002046002045
:1056D000420020480020204D3134352053004D61D8
:1056E00074657269616C20686561747570207061A1
:1056F00072616D65746572733A0020204D323036E8
:10570000205800486F6D65206F66667365743A00B7
:10571000204A0020530020204D32303520420041E5
:105720006476616E6365643A20423C6D696E5F73B6
:1057300065676D656E745F74696D655F75733E2036
:10574000533C6D696E5F66656564726174653E2089
:10575000543C6D696E5F74726176656C5F666565F9
:1057600064726174653E204A3C6A756E635F64656D
:10577000763E0020540020520020204D323034204C
:105780005000416363656C65726174696F6E2028B7
:10579000756E6974732F7332293A20503C707269A8
:1057A0006E745F616363656C3E20523C7265747217
:1057B0006163745F616363656C3E20543C74726125
:1057C00076656C5F616363656C3E0020204D32300E
:1057D000312058004D6178696D756D2041636365B6
:1057E0006C65726174696F6E2028756E6974732FB1
:1057F0007332293A00204500205A00205900202009
:105800004D3230332058004D6178696D756D2066DA
:1058100065656472617465732028756E6974732F91
:1058200073293A0053746570732070657220756E29
:1058300069743A0020440020204D3230302053005B
:105840002044697361626C65640A0046696C616D2D
:10585000656E742073657474696E67733A002020F6
:105860004D3134392043203B20556E6974732069D3
:105870006E2043656C736975730A0020286D6D296D
:10588000002020473231202020203B20556E6974B3
:105890007320696E206D6D00486F6D696E672067BB
:1058A00065736368656974657274006F70656E0016
:1058B000545249474745524544003A200066696CB6
:1058C000616D656E74007A5F6D696E00795F6D69F8
:1058D0006E00785F6D696E005265706F7274696EEC
:1058E0006720656E6473746F702073746174757370
:1058F0000A00566F72686572202573257325732020
:10590000686F6D656E005045544700504C41000073
:10591000002100240027002A002D00300033000160
:10592000010000040107010A0100002200250028EF
:10593000002B002E00310034000201000005010898
:10594000010B01000020002300260029002C002F5D
:1059500000320000010000030106010901050505F0
:1059600005070508080808020202020A0A080804D6
:105970000404040101010101010101030303030304
:10598000030303040707070C0C0C0C0C0C0C0C0293
:1059900002020206060606060606060B0B0B0B0B9A
:1059A0000B0B0B0102102020080810204010204093
:1059B00080020102010804020101020408102040D3
:1059C00080804020100804020180040201804020F1
:1059D000100804020108040201010204081020401A
:1059E00080010204081020408000000A0B02090C0C
:1059F0000D0E080703040100000000000000000075
:105A00000000000000000000000000000000000096
:105A10000000000000121110000000000000000053
:105A20000000000000000000000000000000002056
:105A30002573206D6D000020302C312020206D6DED
:105A40000020312C302020206D6D0031302C302092
:105A500020206D6D0041636873656E206265776517
:105A600067656E00486F74656E64207A75206B619F
:105A70006C7400426577656765204578747275645B
:105A8000657200426577656765205A0042657765F3
:105A900067652059004265776567652058000B5996
:105AA000065946696C616D656E742077656368732D
:105AB000656C6E0046696C616D656E7420656E7410
:105AC0006C6164656E0046696C616D656E74206C16
:105AD0006164656E0062656E75747A657264656690
