:100000000C9454380C9485380C9485380C948538AD
:100010000C9485380C9485380C9485380C9485386C
:100020000C9485380C9485380C9485380C9485385C
:100030000C9485380D94239A0C9485380C9485384B
:100040000C9485380D94743A0C9485380C9485384A
:100050000C9485380C9485380D94C1300D94D99941
:100060000C9485380C942ACB0C9420CB0C948538B6
:100070000C9485380C9485380C9485380C9485380C
:100080000C94BD690C9485380C9485380C94853893
:100090000C9485380C9485380C9485380C948538EC
:1000A0000C9485380C9485380C948F690C948538A1
:1000B0000C9485380C9485380C9485380C948538CC
:1000C0000C9485380C9485380C9485380C948538BC
:1000D0000C9485380C9485380C9485380C948538AC
:1000E0000C948538084AD73B3BCE016E84BCBFFDDB
:1000F000C12F3D6C74319ABD56833DDA3D00C77FF8
:1001000011BED9E4BB4C3E916BAAAABE0000008090
:100110003F05A84CCDB2D44EB93836A9020C50B91F
:10012000918688083CA6AAAA2ABE000000803F004B
:100130000D94F6190D9473790C94EDD00C94EDCCCC
:100140000C94B5380C94B66A0C943C740C94916A77
:100150000C9413650C9492F90C941F470D94F919A3
:100160000C94BD4C0D94466C0D94A66C0C946B6B6A
:100170000C94E53B0C9440D70C94CDCD0D9466A027
:100180000C946EE80C94C5CE0D94656C0C9419D546
:100190000D9494980C9457CF0D94A7750D945F1EF1
:1001A0000C9438390C9484CE0C9421740C94D7D4CC
:1001B0000C9464D80D948A980C94ABEE0C94AEE336
:1001C0000C9439CE0C94878F0C94E3D40D942F9813
:1001D0000C9482F90C944C6A0D9404120C94E5D0A2
:1001E0000C949AF90C948DD30C94C0E80C940BE207
:1001F0000C94A6F90D94BC980C9452D00C9463D630
:100200000C94CAD50C9400E20D945D6C0D942A9860
:100210000C94DFD00C943B8E0C94D7E10C94FF6BC4
:100220000D94146C0C9456D00D943DA00C9422CDDA
:100230000D94B1780C94F58D0C94B08F0C946ED213
:100240000D94F96D0C9452CE0D949E980C9423CF7E
:100250000D940D1A0C94858C0D94426C0C94FBD467
:100260000C9464E80C9468E80C9495D00D946F0A93
:100270000C9473620C94206A0D94FB0B0C940ACFBF
:100280000C94D8D30C94718D0C9414740C94DB6A78
:100290000C94CC380D943E6C0C94B56B0C94906B14
:1002A0000C9413D50C94713E0C941AE20C94327495
:1002B0000C9415550D944A6C0C94FA3E0C948F5086
:1002C0000C9456DA0C9476D40D94001F0D94FF19FB
:1002D0000D94A2770D94081A0D94B2980C941B7487
:1002E0000C94EEDC0C94E4E30C9400F10C949FCE9F
:1002F0000C945FDE0D94AE750C941DEA0C94FE6AAE
:100300000D944D6C0C94D2620D944A1A0C94E338FF
:100310000C9491CD0C94496C0C9478CD0D943D7750
:100320000D94121A0C94466B0D94536C0D949377A4
:100330000C94DDD40C9468DE0D9422980C94246CFB
:100340000C94F1CE0C945AD00D94051A0C9444F1EF
:100350000C940AF10C94AAF90C94AC4E0C9470D243
:100360000C94D9D00D94BF140C946BD00C94A5D3DD
:100370000D947A100D94FC190C9416D40C94B4D3EB
:100380000C94BDE30D9443980D947D6C0D940F1A5D
:100390000C9466CD0D944D980D94151A0C94983EBE
:1003A0000C94DA6B0D94E8190C94D3D00C94AAD366
:1003B0000D9467980C94F8E10C941E740C9433E738
:1003C0000C948EF90C9425740C94F3DA0C948AF93D
:1003D0000C9439390D94576C0C9462DE0C9465DEE4
:1003E0000C9405F10C948ADA0C949E380C94978B3B
:1003F0000C94C9D40D946F6C0C940DDB0C9443D801
:100400000D94796C0D94156C0C94F7D30C94B9D3AE
:100410000C9482D30C94B2CE0C94A2F90C9477DE97
:100420000D946B6C0C941ECE0C942BD50D94601710
:100430000D94786C0D94736C0C942ECD0C94A4DAFE
:100440000C94F3E30C9494620C94D18B0C941FD510
:100450000C944DCD0C9428740D9439980C949CD325
:100460000C9417740C94BFDA0D94A8980C942C7407
:100470000D947B980C94A58F0D945D980C949EF927
:100480000C9486F90C94DD3B0C9466E00C94367465
:100490000C94216B0C94B9E80C9407D50C9443741C
:1004A0000D94CC080D94F3190C9470E80C9425D598
:1004B0000C94A3D90D94386C0C9487380C9435D4D3
:1004C0000C9440740C94E8CD0C941B470C946E6211
:1004D0000C942F740C94F5D40D9429070C9470DAB5
:1004E0000D94FA020C946FD00C94D9DA0C94E47346
:1004F0000C9410CD0C94D1D40C9485D00D944D0E49
:100500000C9429EA0C9441CD0C940DD50C94AFD3E6
:100510000C9472E80C9403CE0C946D6C0C946C6A81
:100520000C94E6380C94D5E30D949A0F0C9496F93C
:100530000C9401D50D9471980C9466E80C946BCED4
:100540000C9429E20C94E9D40C9472D20C946CE8CB
:100550000C947CD30C94C6E30C94EBD00C943974BB
:100560000C94B2CD0C94DECE0D94021A0C949DD056
:100570000C94EFD40C94A4CD0D94616C0C946AE8A7
:100580000C94AA600D9455980D94DB0C0C94E973AF
:100590004E414E494E495459494E46CDCCCC3D0A68
:1005A000D7233C17B7D13877CC2B329595E6241F4B
:1005B000B14F0A000020410000C84200401C462004
:1005C000BCBE4CCA1B0E5AAEC59D7400407A10F3D7
:1005D0005A00A0724E18090010A5D4E80000E87671
:1005E00048170000E40B54020000CA9A3B000000C8
:1005F000E1F505000080969800000040420F0000E1
:1006000000A08601000000102700000000E80300A1
:100610000000006400000000000A0000000000016B
:1006200000000000002C76D888DC674F0823DFC16B
:10063000DFAE59E1B1B796E5E3E453C63AE6519926
:100640007696E8E6C28426EB898C9B62ED407C6F4F
:10065000FCEFBC9C9F40F2BAA56FA5F490055A2A06
:10066000F75C936B6CF9676DC11BFCE0E40D47FE12
:10067000F520E6B500D0ED902E0300943577050007
:1006800080841E080000204E0A000000C80C33338E
:1006900033330F986E12831141EF8D2114893BE69D
:1006A0005516CFFEE6DB18D1844B381BF77C1D9026
:1006B0001DA4BBE424203284725E228100C9F1248F
:1006C000ECA1E53D275A5F53544F505F50494E000F
:1006D0005A5F535445505F50494E005A5F4D494E42
:1006E0005F50494E005A5F4D41585F50494E005A85
:1006F0005F454E41424C455F50494E005A5F444968
:10070000525F50494E00595F53544F505F50494E0D
:1007100000595F535445505F50494E00595F4D4951
:100720004E5F50494E00595F454E41424C455F5027
:10073000494E00595F4449525F50494E00585F533B
:10074000544F505F50494E00585F535445505F50CE
:10075000494E00585F4D494E5F50494E00585F4525
:100760004E41424C455F50494E00585F4449525FEC
:1007700050494E0053535F50494E00534552564F17
:10078000335F50494E00534552564F325F50494EE9
:1007900000534552564F315F50494E005345525613
:1007A0004F305F50494E00534453530053445F440D
:1007B00045544543545F50494E0053434B5F5049A5
:1007C0004E004E454F504958454C5F50494E0052DF
:1007D000414D50535F44395F50494E0052414D5096
:1007E000535F44385F50494E0052414D50535F446F
:1007F00031305F50494E004D4F53495F50494E00D4
:100800004D49534F5F50494E004D415836363735AC
:100810005F53535F50494E004C45445F50494E0072
:100820004C43445F50494E535F5253004C43445F26
:1008300050494E535F454E41424C45004C43445F46
:1008400050494E535F4437004C43445F50494E5328
:100850005F4436004C43445F50494E535F4435007B
:100860004C43445F50494E535F4434004845415423
:1008700045525F4245445F50494E0048454154450A
:10088000525F305F50494E0046494C5F52554E4FC3
:1008900055545F50494E0046414E325F50494E001C
:1008A00046414E315F50494E0046414E5F50494EE1
:1008B0000045315F535445505F50494E0045315F0C
:1008C000454E41424C455F50494E0045315F4449D9
:1008D000525F50494E0045315F43535F50494E00CF
:1008E00045305F535445505F50494E0045305F4599
:1008F0004E41424C455F50494E0045305F4449529D
:100900005F50494E0045305F4155544F5F46414E60
:100910005F50494E00455F4D5558325F50494E007B
:10092000455F4D5558315F50494E00455F4D555814
:10093000305F50494E00444F474C43445F53434B54
:1009400000444F474C43445F4D4F534900434F4E83
:1009500054524F4C4C45525F46414E5F50494E00F9
:10096000434153455F4C494748545F50494E00420C
:10097000544E5F454E430042544E5F454E32004256
:10098000544E5F454E31004245455045525F5049F7
:100990004E004156525F53535F50494E00415652EC
:1009A0005F53434B5F50494E004156525F4D4F538A
:1009B000495F50494E004156525F4D49534F5F5079
:1009C000494E0054454D505F4245445F50494E00EA
:1009D00054454D505F315F50494E0054454D505F76
:1009E000305F50494E005458443000525844300053
:1009F000434F4D4D554E49434154494F4E0044528B
:100A00005952554E004552524F525300494E464F8F
:100A1000004543484F004572726F722077726974C7
:100A2000696E6720746F20454550524F4D210A0072
:100A3000363726033C3D380E2E303E12131A1C1852
:100A40000A2C4309072C07084400015046543A6910
:100A50006F6572726F720A005046543A7375636321
:100A60006573730A005054463A696E76616C696426
:100A70000A005046543A737563636573730A0050F5
:100A800046543A696F6572726F720A005046543A62
:100A9000696E76616C69640A005046543A696E76F4
:100AA000616C69640A005046543A6661696C0A00D8
:100AB0005046543A737563636573730A0050465425
:100AC0003A627573790A002C003A636F6D70726533
:100AD00073696F6E3A68656174736872696E6B2CC6
:100AE000002E002E005046543A76657273696F6E80
:100AF0003A00556E737570706F7274656420426948
:100B00006E6172792050726F746F636F6C0A00555A
:100B10006E6B6E6F776E2042696E61727950726F84
:100B2000746F636F6C436F6E74726F6C205061638F
:100B30006B65740A00666500446174617374726564
:100B4000616D2074696D656F75740A00727300526F
:100B50006573656E64207265717565737420006FCE
:100B60006B0029207061796C6F616420636F727211
:100B70007570740A005061636B6574280044617479
:100B80006173747265616D207061636B657420645C
:100B900061746120627566666572206F7665727237
:100BA000756E0A003F2920636F72727570740A00B7
:100BB0005061636B657420686561646572280044E8
:100BC00061746173747265616D207061636B6574CB
:100BD000206F7574206F66206F726465720A006FF3
:100BE0006B002E002E002C002C007373004D34314E
:100BF00030004D313132004D31303800414E4745E3
:100C000048414C54454E005072696E7465722073B1
:100C1000746F707065642064756520746F206572F0
:100C2000726F72732E204669782074686520657231
:100C3000726F7220616E6420757365204D39393989
:100C400020746F20726573746172742E202854654D
:100C50006D70657261747572652069732072657359
:100C600065742E2053657420697420616674657202
:100C70002072657374617274696E67290A004E6F21
:100C800020436865636B73756D2077697468206CA9
:100C9000696E65206E756D6265722C204C6173748F
:100CA000204C696E653A20004E6F20436865636B87
:100CB00073756D2077697468206C696E65206E7538
:100CC0006D6265722C204C617374204C696E653ABC
:100CD0002000636865636B73756D206D69736D616A
:100CE0007463682C204C617374204C696E653A20E3
:100CF000004C696E65204E756D62657220697320C7
:100D00006E6F74204C617374204C696E65204E7553
:100D10006D6265722B312C204C617374204C696EAE
:100D2000653A20004D3131300053442072656164D2
:100D3000206572726F720A002121204B494C4C20B1
:100D400063617573656420627920746F6F206D75BF
:100D5000636820696E6163746976652074696D6586
:100D6000202D2063757272656E7420636F6D6D61E6
:100D70006E643A2000627573793A2070617573650C
:100D80006420666F7220696E7075740A00627573F4
:100D9000793A2070617573656420666F722075738F
:100DA00065720A00627573793A2070726F636573B9
:100DB00073696E670A004D656469756D20656E74B0
:100DC0006665726E74004D656469756D2065726B41
:100DD000616E6E74004D3630300042697474652067
:100DE0006E65757374617274656E00445255434B41
:100DF000455220474553544F5050540025533A20F4
:100E00002553004142474542524F4348454E00500A
:100E100072696E7465722068616C7465642E206BF3
:100E2000696C6C28292063616C6C6564210A00413F
:100E30004E474548414C54454E005072696E7465AA
:100E4000722073746F707065642064756520746FB0
:100E5000206572726F72732E2046697820746865FF
:100E6000206572726F7220616E6420757365204D0B
:100E700039393920746F20726573746172742E2051
:100E80002854656D70657261747572652069732090
:100E900072657365742E20536574206974206166D1
:100EA0007465722072657374617274696E67290A61
:100EB000006563686F3A004572726F723A0042696A
:100EC0006C696E656172204C6576656C696E672031
:100ED000477269643A0A0021212053544F5020631D
:100EE000616C6C65642062656361757365206F6613
:100EF00020424C546F756368206572726F72202DAA
:100F000020726573746172742077697468204D393A
:100F100039390A0021212053544F502063616C6CF1
:100F200065642062656361757365206F6620424C5D
:100F3000546F756368206572726F72202D20726520
:100F400073746172742077697468204D3939390A75
:100F500000486F74656E6420746F6F20636F6C64FB
:100F60000A00507265737320627574746F6E20741A
:100F70006F20726573756D650A00496E73657274D2
:100F80002066696C616D656E7420616E642070729C
:100F900065737320627574746F6E0A0050726573A6
:100FA0007320627574746F6E20746F20686561744D
:100FB000206E6F7A7A6C650A004732362044C3BCD3
:100FC0007365206175666865697A656E00473236BB
:100FD000206865697A742042657474005761697489
:100FE000696E6720666F72206865617475702E0A7D
:100FF000004665737465204CC3A46E67652050720B
:10100000696D65005072696D696E672066657274FE
:101010006967004D616E75656C6C205072696D6515
:101020002E2E2E00473236206162676562726F6332
:1010300068656E00473236207665726C6173736541
:101040006E003F53706563696669656420582C596A
:1010500020636F6F7264696E617465206F757420B0
:101060006F6620626F756E64732E0A003F285229E6
:1010700065706561742076616C7565206E6F742093
:10108000706C61757369626C653B206D757374205B
:101090006265206174206C6561737420312E0A00D2
:1010A0003F537065636966696564206E6F7A7A6C18
:1010B000652074656D7065726174757265206E6F00
:1010C0007420706C61757369626C652E0A003F5301
:1010D00070656369666965642066696C616D656EDB
:1010E000742073697A65206E6F7420706C617573FB
:1010F00069626C652E0A003F5370656369666965B5
:1011000064207072696D65206C656E677468206E0E
:101110006F7420706C61757369626C652E0A003F94
:10112000537065636966696564206E6F7A7A6C6571
:101130002073697A65206E6F7420706C61757369B5
:10114000626C652E0A003F52657472616374696F48
:101150006E204D756C7469706C696572206D757365
:1011600074206265207370656369666965642E0A20
:10117000003F5370656369666965642052657472E7
:10118000616374696F6E204D756C7469706C69650C
:1011900072206E6F7420706C61757369626C652E5D
:1011A0000A003F537065636966696564206C617904
:1011B000657220686569676874206E6F7420706C52
:1011C00061757369626C652E0A0043292E0A003F1F
:1011D000537065636966696564206265642074653F
:1011E0006D7065726174757265206E6F7420706CBD
:1011F00061757369626C65202834302D0047323682
:10120000207374617274696E672E2E2E0A004F4629
:10121000460A004661646520486569676874200075
:10122000426564204C6576656C696E672000466196
:10123000696C656420746F20656E61626C65204224
:101240006564204C6576656C696E670A00496E7648
:10125000616C6964206D6573682E0A004D65737357
:1012600070756E6B740025532025692F2569002E3B
:101270000A002F0050726F62696E67206D65736897
:1012800020706F696E742000202844525952554EC8
:101290002900473239204175746F20426564204C23
:1012A0006576656C696E67003F20284C2C522C4691
:1012B0002C4229206F7574206F6620626F756E64F2
:1012C000732E0A003F2856296572626F7365206C81
:1012D0006576656C20696D706C61757369626C65AB
:1012E0002028302D34292E0A00426164205A2076AD
:1012F000616C75650A004E6F2062696C696E65618C
:101300007220677269640A00416277656963687573
:101310006E670025533A2025730046696E6973682D
:101320006564210A003A207A3A2000206F66200086
:10133000476F696E6720746F3A20580043570A0060
:10134000206469723A0020616E676C653A005374DC
:10135000617274207261646975733A004D3438208B
:1013600050756E6B740025533A2025642F25640058
:10137000506F736974696F6E696E67207468652059
:1013800070726F62652E2E2E0A003F4C65677320C7
:101390006F66206D6F76656D656E7420696D706C1B
:1013A00061757369626C652028302D3135292E0AEC
:1013B000003F2028582C5929206F7574206F662013
:1013C000626F756E64732E0A005A752077656974B2
:1013D0002064726175C39F656E003F53616D706CD0
:1013E000652073697A65206E6F7420706C61757307
:1013F00069626C652028342D3530292E0A004D3461
:1014000038205A2D50726F62652052657065617484
:101410006162696C69747920546573740A003F28AD
:1014200056296572626F7365206C6576656C2069FC
:101430006D706C61757369626C652028302D34297C
:101440002E0A005374616E6461726420446576698B
:101450006174696F6E3A20002052616E67653A20B0
:1014600000204D61783A2000204D696E3A2000201E
:101470005369676D613A20004D65616E3A20002026
:101480005200416363656C65726174696F6E3A20E6
:1014900050003F4A206F7574206F662072616E673E
:1014A000652028302E303120746F20302E33290AE9
:1014B0000020643A0020693A0020703A00496E76B4
:1014C000616C69642065787472756465720A005095
:1014D000574D3A20202534640050574D3A2020259E
:1014E00034640050574D3A20202534640050574D45
:1014F0003A20202534640050574D3A20202534648A
:101500000050574D3A20202534640050574D3A2062
:10151000202534640050574D3A2020253464005073
:10152000574D3A20202534640050574D3A2020254D
:1015300034640050574D3A20202534640050574DF4
:101540003A20202534640050574D3A202025346439
:101550000050574D3A20202534640050574D3A2012
:10156000202534640050574D3A2020253464003A39
:10157000200020202020434F4D002020206E6F6E41
:101580002D7374616E646172642050574D206D6FCD
:10159000646500202020636F6D7061726520696E44
:1015A0007465727275707420656E61626C6564003A
:1015B0002020206F766572666C6F7720696E746587
:1015C000727275707420656E61626C6564003A2099
:1015D000002020202054494D534B00423A20002047
:1015E0002020205443435200413A20002020202054
:1015F00054434352002020202043533A200020200F
:10160000202057474D3A200050574D3A202025348E
:10161000640050574D3A20202534640047004800AC
:10162000000088008A008C00B300B400000098001D
:101630009A009C00A800AA00AC0028012A012C01F5
:101640002020202054494D455200440045006E00A2
:10165000800081006F00B000B10070009000910028
:101660007100A000A1007200200121017300206917
:101670007320616C736F207469656420746F2074CB
:101680006869732070696E0054494D4552314300BA
:101690000A202E0020200000000A0B02090C0D0E6B
:1016A0000807030401000000000000000000000023
:1016B000000000000000000000000000000000002A
:1016C00000000012111000000000000000000000E7
:1016D000000000000000000000000000000000000A
:1016E0000000000000000001021020200808102067
:1016F000401020408002010201080402010102049E
:10170000081020408080402010080402018004025C
:1017100001804020100804020108040201010204B3
:1017200008102040800102040810204080100804A6
:1017300008801020400440801020400480050505EA
:1017400005070508080808020202020A0A08080438
:101750000404040101010101010101030303030366
:10176000030303040707070C0C0C0C0C0C0C0C02F5
:1017700002020206060606060606060B0B0B0B0BFC
:101780000B0B0B07070A0A0A0A0A0A0505050404D7
:101790000408082020506F72743A20002020200096
:1017A000202020416E616C6F6720696E203D2025EE
:1017B000356C64003C756E757365642F756E6B6E69
:1017C0006F776E3E002028412532642920200025B5
:1017D0003364200050494E3A20004F757470757480
:1017E000203D2000496E70757420203D2000416E20
:1017F000616C6F6720696E203D2025356C64007038
:10180000726F74656374656420002028412532641A
:1018100029202000253364200050494E3A2000EB57
:10182000090001E6090101DB094300D0094500C3B5
:10183000094400B6093201A90933019D0934019216
:10184000093501870925017F09210177091F016FEA
:10185000092301600904014D0907014109330136DB
:101860000934012B09280120092A0115092C010539
:10187000092C01FA081C01EC081801E0081A01D62D
:10188000082C01CB082201BD081E01B1082401A9C2
:10189000080901A008070197082C01880804017BAA
:1018A000080A016C0808016008170154081901486A
:1018B000081B013C081D012C08110120081001180B
:1018C000080D010908420100083201F7073301E958
:1018D000070A01DC070801CF070901C2070401BAA2
:1018E000073401AC073101A70735019C070B0191B3
:1018F000070601860705017B070401740735016AA5
:101900000737015D07260153070301480736013DEC
:1019100007030133073D01260738011C070E01119B
:10192000073C0106070E01FC063001EF063E01E50B
:10193000061301DB061201D0062E01C50612014472
:101940006F6E652E0A0050756C73696E67202020DB
:1019500000556E746F7563686564200066616C7312
:1019600065004641494C3A204E6F207472696767A2
:1019700065722064657465637465640A0046414954
:101980004C3A204E6F6973652064657465637465B5
:1019900064202D20706C656173652072652D7275F1
:1019A0006E20746573740A002064657465637465E1
:1019B000642E0A003D20424C546F7563682070729B
:1019C000652056332E3120286F7220636F6D706151
:1019D0007469626C6529003D205A20536572766FE8
:1019E0002050726F6265003D20424C546F756368F1
:1019F0002056332E310020282B2F2D20346D7329B3
:101A00003A20003A2033306D73206F72206D6F7270
:101A1000650A002E2050756C7365207769647468C0
:101A2000002A2A20506C65617365207472696767AB
:101A300065722070726F62652077697468696E20C4
:101A4000333020736563202A2A0A004641494C3A04
:101A500020424C544F55434820656E61626C65646A
:101A6000202D20536574207570207468697320647C
:101A70006576696365206173206120536572766FB6
:101A80002050726F6265207769746820494E564510
:101A90005254494E472073657420746F2027747226
:101AA0007565272E0A0020204445504C4F59454467
:101AB0002073746174653A204C4F5720286C6F670F
:101AC00069632030290020204445504C4F5945443B
:101AD0002073746174653A204849474820286C6F28
:101AE000676963203129003D204D656368616E6937
:101AF00063616C20537769746368206465746563FF
:101B00007465640A005741524E494E473A20494E87
:101B100056455254494E472073657474696E672068
:101B200070726F6261626C79206261636B7761725F
:101B300064732E0A002E204465706C6F7920262075
:101B400073746F7720342074696D65730A003D20CB
:101B5000424C546F75636820436C617373696320F2
:101B6000312E322C20312E332C20536D6172742093
:101B7000312E302C20322E302C20322E322C20339D
:101B80002E302C20332E31206465746563746564B7
:101B90002E0A002E20436865636B20666F72204218
:101BA0004C544F5543480A002E205A5F4D494E5F12
:101BB000454E4453544F505F494E56455254494E3A
:101BC000473A20002E2050726F6265205A5F4D49BF
:101BD0004E5F50494E3A20002C2073746F7720617D
:101BE0006E676C653A202020002C206465706C6F55
:101BF0007920616E676C653A2000536572766F20BC
:101C000070726F626520746573740A2E2075736933
:101C10006E6720696E6465783A20200057617463AE
:101C200068696E672070696E730A00646973006585
:101C30006E0061626C65640A00656E6473746F7037
:101C4000206D6F6E69746F72200020580020204D47
:101C500061783A2000200020204D696E3A20005320
:101C60006F667420656E6473746F70733A2000251C
:101C7000290A00252000203B202800204400204184
:101C80000020490020204D3731302053003B2043B5
:101C90006F6E74726F6C6C65722046616E0A002004
:101CA000496E76616C6964206578747275646572DA
:101CB000200047322F4733206261642070617261D7
:101CC0006D65746572730A0057617274656E2E2EAD
:101CD0002E005A2050726F6265205061737420424A
:101CE00065640A005A2D536F6E6465206175C39F49
:101CF000657268616C6200205A3A200020593A20CF
:101D00000042656420583A20004D65736820706F6A
:101D1000696E74206F7574206F662072616E6765DE
:101D20000A004B6C69636B207A756D20466F727484
:101D30007365747A656E004D6F746F72656E2061A5
:101D40006E6765736368616C74657400456E6420CA
:101D500066696C65206C6973740A00426567696E18
:101D60002066696C65206C6973740A004E6F206D83
:101D7000656469610A00286E6F2066696C652900D8
:101D800043757272656E742066696C653A20005303
:101D900044207072696E74696E6720627974652080
:101DA000004E6F74205344207072696E74696E67C0
:101DB0000A00537769746368696E6720746F204204
:101DC000696E6172792050726F746F636F6C0A0074
:101DD0005072696E742074696D653A20006F6B00F3
:101DE0006F666600110A0C0A050AFE09F0094445EF
:101DF0004255473A004D3131322053687574646F53
:101E0000776E004D31313320530042657474206B7E
:101E1000C3BC686C742E2E2E0042657474206865F5
:101E2000697A742E2E2E00344D4158202D2076676D
:101E30003372204F46462E002F2F20004D3134356F
:101E400020533C696E6465783E206F7574206F6620
:101E50002072616E67652028302D31290A004652B4
:101E60003A0020466C6F773A2000206F7574206F1F
:101E7000662072616E67650A00536572766F200096
:101E80003A200020536572766F200020643A0020CB
:101E9000693A0020703A0064697300656E00432956
:101EA0000A0061626C656420286D696E2074656D3E
:101EB000702000436F6C642065787472756465737C
:101EC0002061726520004F4646004F4E0046696C07
:101ED000616D656E742072756E6F757420004D347F
:101EE000323120696E636F72726563742070617243
:101EF000616D657465722075736167650A004D6573
:101F0000736820706F696E74206F7574206F66201F
:101F100072616E67650A00454550524F4D204F4B28
:101F20000A004F46460A0043617365206C69676882
:101F3000743A2000486F6D657665727361747A201B
:101F4000616B746976004572723A20546F6F206637
:101F500061722100546F6F206661722066726F6D2E
:101F6000207265666572656E636520706F696E7458
:101F70000A004361703A004348414D4245525F5464
:101F8000454D5045524154555245004241425953E6
:101F900054455050494E470041524353004D4F5411
:101FA000494F4E5F4D4F44455300544845524D41B3
:101FB0004C5F50524F54454354494F4E004C4F4E86
:101FC000475F46494C454E414D45004155544F529F
:101FD00045504F52545F53445F535441545553003E
:101FE0005344434152440050524F4D50545F535557
:101FF00050504F525400454D455247454E43595F4E
:1020000050415253455200434153455F4C49474864
:10201000545F4252494748544E45535300544F472A
:10202000474C455F4C494748545300534F4654571B
:102030004152455F504F574552004255494C445F0D
:1020400050455243454E54004C4556454C494E4729
:102050005F44415441005A5F50524F42450052552F
:102060004E4F5554004155544F4C4556454C005029
:1020700052494E545F4A4F420050524F47524553C7
:1020800053004155544F5245504F52545F54454DA3
:102090005000564F4C554D4554524943004545500C
:1020A000524F4D0042494E4152595F46494C455F9F
:1020B0005452414E534645520053455249414C5F9C
:1020C000584F4E5F584F4646004649524D57415271
:1020D000455F4E414D453A4D61726C696E20344DFD
:1020E000415820322E302E3732303452454C2E207B
:1020F000284D617220313120323032312031383A6E
:1021000030353A33332920534F555243455F434FBF
:1021100044455F55524C3A68747470733A2F2F6778
:1021200069746875622E636F6D2F47656D696E699E
:102130005365727665722F4D61726C696E205052D4
:102140004F544F434F4C5F56455253494F4E3A31CF
:102150002E30204D414348494E455F545950453A31
:10216000344D4158202D2076673372204558545203
:10217000554445525F434F554E543A3120555549C9
:10218000443A36616131343637652D666664352DE3
:10219000313165392D386437312D33363262396546
:1021A0003135353636370A00290A0020746F200091
:1021B0003F5A206F7574206F662072616E676520CC
:1021C0002800290A0020746F20003F59206F757481
:1021D000206F662072616E676520282D00290A0035
:1021E00020746F20003F58206F7574206F66207236
:1021F000616E676520282D0050726F6265204F6602
:1022000066736574205800220A00656E71756575E5
:1022100065696E672022006F6B00526573656E649E
:102220003A20004D383400446F6E65207072696E3C
:1022300074696E672066696C650A004D3737004D1A
:1022400033310043616E6E6F74206F70656E207362
:10225000756264697220002569730025696D202507
:102260006973002569682025696D2025697300253B
:102270006964202569682025696D2025697300251A
:10228000697920256964202569682025696D2025E4
:102290006973000A53746174733A2046696C616D06
:1022A000656E7420757365643A20002C204C6F6E47
:1022B00067657374206A6F623A2000546F74616CB2
:1022C0002074696D653A200053746174733A20007C
:1022D0002C204661696C65643A20002C2046696EAA
:1022E00069736865643A20005072696E74733A20AD
:1022F0000053746174733A20006BC3BC686C742E15
:102300002E2E006865697A742E2E2E0045202553E6
:102310000023646566696E652044454641554C540A
:102320005F00626564004B6420004B6920004B70C5
:102330002000504944204175746F74756E652066A5
:10234000696E6973686564212050757420746865CE
:10235000206C617374204B702C204B6920616E647B
:10236000204B6420636F6E7374616E7473206672A9
:102370006F6D2062656C6F7720696E746F20436F9C
:102380006E66696775726174696F6E2E680A0050B7
:102390004944204175746F74756E65206661696C7F
:1023A0006564212074696D656F75740A0050494435
:1023B000204175746F74756E65206661696C656423
:1023C000212054656D706572617475726520746F3B
:1023D0006F20686967680A00204B643A2000204B30
:1023E000693A2000204B703A20000A20436C617348
:1023F00073696320504944200A00204B643A20004E
:10240000204B693A2000204B703A20000A204E6F82
:10241000206F76657273686F6F740A002054753A86
:102420002000204B753A2000206D61783A20002072
:102430006D696E3A200020643A2000206269617361
:102440003A2000504944204175746F74756E6520C0
:1024500073746172740A00504944204175746F743A
:10246000756E65206661696C6564212054656D70C8
:102470006572617475726520746F6F206869676832
:102480000A00504944204175746F74756E650050A0
:102490004944204175746F74756E65206661696C7E
:1024A0006564212042616420657874727564657288
:1024B000206E756D6265720A004572723A207574FD
:1024C000663820666F6E74206E6F7420696E697452
:1024D00069616C697A65642E004572723A20757480
:1024E000663820666F6E74206E6F7420696E697432
:1024F00069616C697A65642E004572723A20757460
:10250000663820666F6E74206E6F7420696E697411
:1025100069616C697A65642E002568753A253032E8
:1025200068750025303268753A25303268750025A7
:102530006875642025303268753A25303268750038
:102540004265747400476568C3A4757365004C6187
:1025500064656E206D6D00456E746C6164656E20FF
:102560006D6D0046696C616D656E7464757263684B
:102570006D6573736572004520696E206D6DC2B321
:10258000004D3330332055312045256920532569CE
:1025900000504944204175746F74756E65202A009F
:1025A0005049442D44202A005049442D49202A00F6
:1025B0005049442D50202A0020082046616B746F3A
:1025C00072002008206D6178002008206D696E007F
:1025D00061757300616E004175746F2054656D7094
:1025E0006572617475720056206D696E204C656568
:1025F0007266616872740056206D696E2000562004
:102600006D617820450056206D6178205A00562073
:102610006D617820590056206D6178205800000CBB
:102620000F00FE07022503BB01FFFE0AFE08FE05A0
:10263000080806000040F0C8888898781005080847
:10264000060000C0F88888888888F8050505060017
:10265000012030F830200508080600002070F8201E
:10266000202020E00509090600FF2070A8A8B888EE
:10267000887020070505070001D86C366CD805095D
:10268000090600FFF8A88888888888A8F8050A0A3B
:102690000600FE205050505088A8A88870030303FD
:1026A00006000340A040FFFFFFFFFFFFFFFFFFFF0B
:1026B000FFFFFFFFFFFFFFFFFFFFFFFF0000000620
:1026C00005FF0107070602008080808080008003EC
:1026D0000303060105A0A0A005060606000050F8A9
:1026E0005050F8500509090600FF2070A8A0702876
:1026F000A87020050707060000C8C8102040989859
:1027000005070706000040A0A040A8906801030349
:102710000602058080800309090601FF20404080F1
:1027200080804040200309090601FF8040402020AE
:102730002040408005070706000020A8702070A8F0
:10274000200505050600012020F8202002030306CD
:1027500001FFC04080050101060003F802020206E5
:102760000100C0C005070706000008101020404007
:1027700080050707060000708898A8C888700307BE
:102780000706010040C040404040E0050707060042
:1027900000708808102040F8050707060000F808B8
:1027A000103008887005070706000010305090F8B8
:1027B0001010050707060000F880F008088870056B
:1027C0000707060000304080F0888870050707067C
:1027D0000000F808101020202005070706000070F0
:1027E00088887088887005070706000070888878D8
:1027F000081060020505060100C0C000C0C0020646
:10280000060601FFC0C000C04080030505060101A7
:102810002040804020050303060002F800F803056D
:102820000506010180402040800507070600007072
:102830008810202000200507070600007088B8A82F
:10284000B88070050707060000708888F8888888B7
:10285000050707060000F04848704848F0050707DC
:1028600006000070888080808870050707060000D9
:10287000F04848484848F0050707060000F88080FF
:10288000F08080F8050707060000F88080F080805F
:10289000800507070600007088808098887005070B
:1028A00007060000888888F88888880307070601DB
:1028B00000E04040404040E00507070600003810B7
:1028C00010101090600507070600008890A0C0A0B7
:1028D0009088050707060000808080808080F805CA
:1028E000070706000088D8A8888888880507070693
:1028F00000008888C8A89888880507070600007027
:10290000888888888870050707060000F08888F0A6
:1029100080808005070706000070888888A8906876
:10292000050707060000F08888F0A09088050707D3
:102930000600007088807008887005070706000090
:10294000F82020202020200507070600008888881E
:102950008888887005070706000088888888505096
:102960002005070706000088888888A8A850050762
:102970000706000088885020508888050707060051
:102980000088885020202020050707060000F8084E
:1029900010204080F80309090601FFE08080808054
:1029A000808080E00507070600008040402010106E
:1029B000080309090601FFE020202020202020E054
:1029C0000503030600052050880501010600FEF8F6
:1029D000030303060105804020050505060000707D
:1029E000087888780507070600008080F0888888C6
:1029F000F005050506000070808088700507070651
:102A000000000808788888887805050506000070A9
:102A100088F08070050707060000304840E040401D
:102A2000400507070600FE7088888878087005074B
:102A3000070600008080F088888888030707060161
:102A4000004000C0404040E00409090601FE1000BB
:102A50003010101010906005070706000080808875
:102A600090E09088030707060100C04040404040C6
:102A7000E0050505060000D0A8A8A8A805050506DC
:102A80000000B0C8888888050505060000708888A1
:102A900088700507070600FEF0888888F0808005AA
:102AA00007070600FE788888887808080505050667
:102AB0000000B0C8808080050505060000788070A1
:102AC00008F00507070600002020F8202020180540
:102AD0000505060000888888986805050506000039
:102AE00088888850200505050600008888A8A85019
:102AF00005050506000088502050880507070600D8
:102B0000FE88888850204080050505060000F810E2
:102B10002040F80309090601FF2040404080404062
:102B200040200109090602FF80808080808080802B
:102B3000800309090601FF8040404020404040805A
:102B400005030306000248A890FFFFFFFFFFFFFFF9
:102B5000FFFFFFFFFFFFFFFFFFFFFFFFFFFFFFFF85
:102B6000FFFFFFFFFFFFFFFFFFFF0000000605FF65
:102B7000010707060200800080808080800507072B
:102B80000600FF2070A8A0A8702005070706000017
:102B9000304840E04048B0050505060000A85088D0
:102BA00050A80507070600008850F820F8202001EB
:102BB00007070602008080800080808004080806E5
:102BC000010070806090906010E003010106010731
:102BD000A00607070600007884B4A4B4847803052F
:102BE0000506010460A06000E00505050600002858
:102BF00050A05028050303060001F808080301014E
:102C0000060103E00607070600007884B4A4A48444
:102C100078050101060007F8040404060105609028
:102C200090600507070600002020F8202000F80328
:102C3000050506010440A02040E003050506010447
:102C4000C0204020C0030303060105204080050783
:102C5000070600FE88888898E88080050808060036
:102C60000078E8E8E868282828020202060203C083
:102C7000C00302020601FE20C00305050601044050
:102C8000C04040E003050506010540A04000E00506
:102C90000505060000A0502850A0050A0A060000FD
:102CA00040C048506050B0507810050A0A06000035
:102CB00040C048506050A8081038050A0A060000B5
:102CC000C0204830E050B0507810050707060000DB
:102CD00020002020408870050A0A060000402000DD
:102CE000708888F8888888050A0A06000010200085
:102CF000708888F8888888050A0A06000020500035
:102D0000708888F8888888050A0A06000068B0007C
:102D1000708888F8888888050909060000500070C6
:102D20008888F8888888050A0A06000020502070E4
:102D30008888F888888805070706000078A0A0F032
:102D4000A0A0B80509090600FE7088808080887000
:102D50001060050A0A060000402000F88080F0801C
:102D600080F8050A0A060000102000F88080F08034
:102D700080F8050A0A060000205000F88080F080E4
:102D800080F80509090600005000F88080F0808076
:102D9000F8030A0A060100804000E040404040403D
:102DA000E0030A0A060100204000E04040404040A5
:102DB000E0030A0A06010040A000E0404040404015
:102DC000E0030909060100A000E04040404040E067
:102DD000050707060000704848E8484870050A0AD9
:102DE00006000068B0008888C8A8988888050A0A84
:102DF00006000040200070888888888870050A0ACC
:102E000006000010200070888888888870050A0AEB
:102E100006000020500070888888888870050A0A9B
:102E200006000068B00070888888888870050909E5
:102E3000060000500070888888888870050505069F
:102E4000000188502050880509090600FF08709885
:102E5000A8A8A8C87080050A0A06000040200088BB
:102E6000888888888870050A0A0600001020008873
:102E7000888888888870050A0A0600002050008823
:102E800088888888887005090906000050008888AD
:102E90008888888870050A0A060000102000888843
:102EA000502020202004070706010080E090909029
:102EB000E080050707060000708890A09088B005A4
:102EC0000808060000402000700878887805080887
:102ED00006000010200070087888780508080600B1
:102EE00000205000700878887805080806000068FF
:102EF000B000700878887805070706000050007059
:102F000008788878050808060000205020700878A6
:102F10008878050505060000702870A07805070769
:102F20000600FE70888088701060050808060000A2
:102F30004020007088F0807005080806000010200E
:102F4000007088F0807005080806000020500070AE
:102F500088F0807005070706000050007088F08038
:102F600070030808060100804000C0404040E003B4
:102F70000808060100204000C0404040E003080867
:102F800006010040A000C0404040E00307070601E2
:102F900000A000C0404040E00509090600005020A4
:102FA0005008788888887005080806000068B00016
:102FB000B0C888888805080806000040200070888E
:102FC000888870050808060000102000708888882E
:102FD0007005080806000020500070888888700579
:102FE000080806000068B000708888887005070728
:102FF00006000050007088888870050505060001ED
:103000002000F800200505050600007898A8C8F003
:103010000508080600004020008888888870050898
:1030200008060000102000888888887005080806B7
:103030000000205000888888887005070706000077
:1030400050008888888870050A0A0600FE10200053
:10305000888888502040800509090600FE8080F09D
:10306000888888F080800509090600FE500088885D
:10307000885020408046494C414D454E5420454E95
:10308000544C4144454E0046494C414D454E542018
:103090004C4144454E0046494C414D454E54205705
:1030A00045434853454C0041206D6178204500411F
:1030B000206D6178205A0041206D617820590041CF
:1030C000206D617820580041204C6565726661680A
:1030D000727400412045696E7A75670042657363BA
:1030E000686C65756E6967756E6700536F6E6465B1
:1030F0006E7665727361747A205A00536F6E6465E0
:103100006E7665727361747A205900536F6E6465D0
:103110006E7665727361747A205800452053746529
:1031200070732F6D6D005A2053746570732F6D6D21
:1031300000592053746570732F6D6D0058205374BF
:103140006570732F6D6D004572772E2045696E7323
:1031500074656C6C756E67656E003F0041626272EB
:10316000656368656E0042657374C3A474696765BE
:103170006E004D343238005765726B7365696E733B
:1031800074656C6C756E67656E0046696C616D6523
:103190006E740054656D706572617475720053745D
:1031A0006570732F6D6D00536F6E64656E7665721A
:1031B0007361747A004A756E6374696F6E2044653A
:1031C000760042657363686C65756E6967756E67D6
:1031D00000476573636877696E6469676B656974D6
:1031E000005365747A6520486F6D6576657273610A
:1031F000747A004B6F6E66696775726174696F6E81
:10320000003F004EC3A46368737465204B6F6F72F8
:1032100064696E617465004665727469670057651C
:10322000697465720058595A20686F6D656E004B5D
:103230006F6E6669672E2073706569636865726E6C
:10324000004B6F6E6669672E206C6164656E004589
:10325000636B656E206E6976656C6C696572656E10
:1032600000536F6E64656E7665727361747A205A6E
:1032700000417573626C656E6468C3B66865006111
:10328000757300616E00426574742D4E6976656CCD
:103290006C696572756E670042657474206E69763C
:1032A000656C6C696572656E004732380A47323961
:1032B00000473239004175746F20486F6D650042D8
:1032C00065776567756E670045696E6661687265EA
:1032D0006E0041757366616872656E0053656C625D
:1032E000737474657374005A7572C3BC636B7365D1
:1032F000747A656E0053572D4D6F64757300417578
:1033000073736368616C742044656C6179004CC3AD
:10331000BC66746572204D6F746F726C617374005B
:103320004D6F746F726C617374204D6F64757300B0
:103330004CC3BC66746572204C6565726C617566C1
:1033400000426574740044C3BC7365004CC3BC6622
:10335000746572004B6F6E66696775726174696F30
:103360006E005374616E6461726477657274652077
:103370006C6164656E004B6F6E6669672E206C61D0
:1033800064656E004B6F6E6669672E2073706569A9
:10339000636865726E00242045696E7374656C6C99
:1033A000756E67656E0061757300616E0052756EB3
:1033B0006F75742D53656E736F7200424C546F7548
:1033C0006368004C696368742D5374657565727524
:1033D0006E67004CC3BC66746572204B6F6E74726E
:1033E0006F6C6C657200536F6E64656E7665727398
:1033F00061747A205A004572772E2045696E737485
:10340000656C6C756E67656E0048617570746D658E
:103410006EC3BC004D37303220542564004D363029
:103420003020423020542564004D373032203B2577
:1034300064004D37303120542564004D3730320060
:103440004D373031004D3630302042300048617504
:1034500070746D656EC3BC00447275636B207765D4
:10346000697465720061757300616E0052756E6FEC
:1034700075742D53656E736F72004D6568722065AB
:103480006E746C6164656E00464F5254532E204F2B
:103490005054494F4E454E3A00445255434B2050EC
:1034A0004155534945525400202044C3BC73653AEA
:1034B0002000447275636B206973740070617573CA
:1034C000696572742E2E2E0000576172746520613A
:1034D00075662064656E0053746172742064657350
:1034E0000046696C616D656E747765636873656CC1
:1034F000732E2E2E0057617274652061756600452B
:103500006E746E61686D65006465732046696C61F8
:103510006D656E74732E2E2E0044C3BC73652068D7
:1035200065697A74206175660062697474652077D4
:10353000617274656E2E2E2E00004B6E6F706620C9
:103540006472C3BC636B656E20756D0044C3BC734D
:1035500065206175667A756865697A656E000046F2
:10356000696C616D656E742065696E6C6567656E0A
:1035700000756E64204B6E6F7066206472C3BC630E
:103580006B656E00756D20666F72747A7573657405
:103590007A656E00576172746520617566004C61D2
:1035A00064656E206465730046696C616D656E7458
:1035B000732E2E2E004B6E6F7066206472C3BC6338
:1035C0006B656E20756D00447275636B20666F725B
:1035D000747A757365747A656E00005761727465EC
:1035E0002061756600466F72747365747A656E202B
:1035F00064657300447275636B732E2E2E005761E1
:1036000072746520617566005370C3BC6C756E671B
:10361000006465722044C3BC73652E2E2E003E20CC
:1036200000256C642E25696D00476573616D7420FB
:1036300045787472756469657274003E20004CC3ED
:10364000A46E6773746520447275636B7A656974E0
:10365000003E2000476573616D7465204472756398
:103660006B7A656974004B6F6D706C65747465205E
:10367000447275636B65003A2000476573616D7431
:103680006520447275636B65003A20003135300067
:1036900035004245443A204550434F5320313030A5
:1036A0004B0052756E617761792057617463683A97
:1036B00020414E004D61782054656D7000323735E1
:1036C000004D696E2054656D7000350045313A201B
:1036D0004550434F53203130304B004E65747A745F
:1036E00065696C00532D3330302D31320050726FCC
:1036F000746F6B6F6C6C00312E30004261756472B8
:103700006174650032353030303000416E79637558
:103710006269632052414D505320312E340042697A
:103720006C696E65617265204E6976656C6C2E0001
:1037300045787472756465720031006874747073D2
:103740003A2F2F6769742E696F2F666A587A720054
:10375000344D4158202D207667337200323032309C
:103760002D31302D313500344D415820322E302E40
:103770003732303452454C2E004D61726C696E0008
:10378000447275636B65722D5374617469737469E7
:103790006B00546865726D6973746F72656E004278
:1037A0006F6172642D496E666F00447275636B655C
:1037B000722D496E666F0048617570746D656EC3D9
:1037C000BC00496E6469676F00426C6175004772A6
:1037D000C3BC6E0047656C62004F72616E67650026
:1037E000526F740056696F6C65747400576569C3D5
:1037F0009F0048656C6C69676B65697400496E74FD
:10380000656E736974C3A47420576569C39F0049CA
:103810006E74656E736974C3A47420426C61750024
:10382000496E74656E736974C3A474204772C3BC17
:103830006E00496E74656E736974C3A47420526F10
:1038400074004C696368742D537465756572756E88
:10385000670048656C6C69676B656974004B6F6ED7
:1038600066696775726174696F6E0042656C657533
:10387000636874756E670042656E75747A6572640C
:103880006566696E69657274004C696368742D457C
:10389000696E7374656C6C756E67005374616E64E9
:1038A0006172640061757300616E004C69636874D5
:1038B0000048617570746D656EC3BC003F005A7539
:1038C00072C3BC636B0053746F70004B65696E20EC
:1038D0004D656469756D00447275636B20766F6D1C
:1038E000204D656469756D0046696C616D656E7427
:1038F000207765636873656C6E004B6F6E666967F1
:1039000075726174696F6E0054656D706572617473
:103910007572004265776567756E670053442D4484
:103920007275636B20666F72747365747A656E006E
:10393000C39C6265722064656E20447275636B651A
:1039400072004A757374696572756E670053442D11
:10395000447275636B2061626272656368656E00B4
:1039600053442D447275636B207061757369657281
:10397000656E00496E666F003F0053746172746536
:1039800020447275636B0041626272656368656EA4
:1039900000447275636B656E0043616E6E6F7420D8
:1039A000656E746572207375626469723A200002F4
:1039B0002E2E0048617570746D656EC3BC002100C9
:1039C000486F74656E64207A75206B616C74005A60
:1039D0007572C3BC636B005765697465720042659C
:1039E000776567756E67004D6F746F72656E2064E2
:1039F00065616B746976696572656E004D38340077
:103A00004D343820536F6E64656E7465737400476F
:103A10003238204F0A4D343820503130004265741E
:103A2000742D4E6976656C6C696572756E670048B9
:103A30006F6D65205A004732385A00486F6D652017
:103A400059004732385900486F6D65205800473299
:103A50003858004175746F20486F6D6500473238E3
:103A60000048617570746D656EC3BC002420457894
:103A700074722E20566F7277C3A4726D656E002427
:103A8000204265747420566F7277C3A4726D656EA0
:103A90000054656D706572617475720041626BC32C
:103AA000BC686C656E002420566F7277C3A4726D7B
:103AB000656E004CC3BC6674657200426574740028
:103AC00044C3BC73650048617570746D656EC3BC9A
:103AD000004261627973746570205A00466C757398
:103AE0007372617465004CC3BC6674657200426594
:103AF00074740044C3BC7365004765736368772EB4
:103B00000048617570746D656EC3BC001FE03FF0C6
:103B10003FF03FF01FE01FE03FF03FF03FF00FC0ED
:103B2000078003001FE0201020102010102010201C
:103B30002010201030300840048003003FFFF83E82
:103B400000F839F03831E01831E01821E1E820F3CD
:103B5000E8207FE82077E828EE282FDC082FFC08F3
:103B60002F9E082F0F08300F18300F18381F383EBF
:103B700000F83FFFF83FFFF83E00F8383F38307E4E
:103B800018307C18287C082C38082F39C82FFFE8FB
:103B90002FC7E82FFFE82739E8203868207C283035
:103BA0007C1830FC1839F8383E00F83FFFF83FFF2A
:103BB000F83E00F8380F38341FD8361F982F1F08EA
:103BC0002F9E082FFC082FDC0827EFC82077E8205D
:103BD0007FE820F3E821F1E833F0D837F05839E0F6
:103BE000383E00F83FFFF83FFFF83E80F839803854
:103BF0003781D837C3D827C7E823C7F821FF8820E3
:103C00006C08206C08206C0823FF083FC7882FC76A
:103C1000C83787D83703D83803383E02F83FFFF853
:103C20001FFFF81FFFF804104002082002082004BC
:103C3000104008208010410010410008208004102E
:103C4000400000001FFFF81FFFF800000000000008
:103C50002100140706003372D1C089003F0B1521E3
:103C600009002D3A15220900214A15240900213A9C
:103C70001527A600000000000000FFFFFFFFFFC0A7
:103C80000000000000000B1870E1C3801B0CF0E086
:103C9000E7003B27F07076003B33F13030007B3398
:103CA00033B818007BB033B80C007BB0373C6E00E3
:103CB0000330377CE7000330360DC380000000007E
:103CC0000000FFFFFFFFFFC00000000000000044F5
:103CD00073CE0000004480490000006CF1CE00006B
:103CE0000038904900000010E3C900000000000007
:103CF000000000000000000000000000000044720E
:103D000075636B206162676562726F6368656E00E0
:103D10004D323520500A4D32340050617573652E96
:103D20002E2E005761726E696E673A20436C656192
:103D30006E20436972636C65207265717569726586
:103D4000732058590A005761726E696E673A2052A3
:103D50006164697573204F7574206F662052616EBF
:103D600067650A00486F6D696E67206765736368F1
:103D7000656974657274006F70656E0054524947CE
:103D80004745524544003A200066696C616D656E96
:103D900074007A5F6D6178007A5F6D696E00795F9B
:103DA0006D696E00785F6D696E005265706F727438
:103DB000696E6720656E6473746F702073746174CC
:103DC00075730A0020746F6F206C6F6E67206578C2
:103DD00074727573696F6E2070726576656E746546
:103DE000640A0020636F6C6420657874727573696F
:103DF0006F6E2070726576656E7465640A00566F2A
:103E0000726865722025732573257320686F6D6550
:103E10006E000000A0C000000000000000000000D4
:103E2000484200004842000020415761726E696EAE
:103E3000673A20486F6D696E672042756D70204447
:103E4000697669736F72203C20310A000202040017
:103E500000A0400000A040000000400000544300CB
:103E600000574300009443FFFFFF000000010000E3
:103E7000000100008000555555000000400033331C
:103E80003300AAAA2A004992240000002000C7712A
:103E90001C0099991900D1451700555515003BB1E3
:103EA00013002449120011111100000010000F0F1F
:103EB0000F00E3380E0043790D00CCCC0C00C3306A
:103EC0000C00E8A20B0064210B00AAAA0A00703DB6
:103ED0000A009DD80900427B090092240900DCD326
:103EE0000800888808001042080000000800F0C19F
:103EF00007008787070075500700711C07003EEB1D
:103F00000600A1BC06006990060066660600703EC9
:103F100006006118060017F4050074D105005BB0B7
:103F20000500B2900500627205005555050078390C
:103F30000500B81E0500050505004EEC040087D4F9
:103F40000400A1BD040090A7040049920400C17DB3
:103F50000400EE690400C7560400444404005C32C7
:103F600004000821040041100400000004003FF098
:103F70000300F8E0030026D20300C3C30300CCB55E
:103F800003003AA803000A9B0300388E0300C08197
:103F900003009F750300D0690300505E03001D53AA
:103FA000030034480300913D030033330300162916
:103FB0000300381F030097150300300C03000303B0
:103FC00003000BFA020049F10200BAE802005CE0CB
:103FD00002002DD802002DD0020059C80200B0C046
:103FE000020031B90200DAB10200AAAA0200A0A3BD
:103FF0000200BC9C0200FA9502005C8F0200DF8880
:10400000020082820200457C0200277602002770AF
:104010000200436A02007C640200D05E02003F5945
:104020000200C8530200FFFDFCFAF8F6F4F2F0EECD
:10403000ECEAE9E7E5E3E1E0DEDCDAD9D7D5D4D292
:10404000D0CFCDCBCAC8C7C5C3C2C0BFBDBCBAB92B
:10405000B7B6B4B3B2B0AFADACAAA9A8A6A5A4A296
:10406000A1A09E9D9C9A99989795949392908F8EDB
:104070008D8B8A8988878684838281807F7E7D7B01
:104080007A797877767574737271706F6E6D6C6B08
:104090006A696867666564636261605F5E5D5C5BF8
:1040A0005A5958585756555453525150504F4E4DD7
:1040B0004C4B4A4A494847464645444342424140A0
:1040C0003F3E3E3D3C3B3B3A393838373635353458
:1040D0003332323130302F2E2E2D2C2B2B2A292902
:1040E00028272726252524232322212120201F1E9F
:1040F0001E1D1C1C1B1B1A1919181817161615152E
:1041000014131312121111100F0F0E0E0D0D0C0CB3
:104110000B0A0A090908080707060605050404032F
:1041200003020201000000004F430000574300005B
:1041300094430000A0C0000000000000000045699A
:104140006E7374656C6C2E206765737065692E00E4
:10415000290A002062797465733B20637263200032
:1041600053657474696E67732053746F726564204D
:1041700028004669656C64206261636B6C617368DA
:104180005F64697374616E63655F6D6D206D6973E3
:104190006D617463682E0A004669656C642066630D
:1041A0005F73657474696E6773206D69736D617494
:1041B00063682E0A004669656C6420706C616E6EDF
:1041C00065725F736B65775F666163746F72206D94
:1041D00069736D617463682E0A004669656C6420BA
:1041E000636F6F7264696E6174655F737973746510
:1041F0006D206D69736D617463682E0A0046696590
:104200006C64206D6F746F725F63757272656E742B
:104210005F73657474696E67206D69736D61746333
:10422000682E0A004669656C6420706C616E6E656C
:10423000725F65787472756465725F616476616ED1
:1042400063655F4B206D69736D617463682E0A004E
:104250004669656C6420746D635F737465616C742A
:10426000685F656E61626C6564206D69736D617411
:1042700063682E0A004669656C6420746D635F682C
:1042800079627269645F7468726573686F6C6420C8
:104290006D69736D617463682E0A004669656C64AC
:1042A00020746D635F737465707065725F6375729F
:1042B00072656E74206D69736D617463682E0A0097
:1042C0004669656C64207061727365725F766F6CAD
:1042D000756D65747269635F656E61626C6564209B
:1042E0006D69736D617463682E0A004669656C645C
:1042F000206677726574726163745F736574746944
:104300006E6773206D69736D617463682E0A004671
:1043100069656C64207265636F766572795F656E3E
:1043200061626C6564206D69736D617463682E0AE7
:10433000004669656C6420636F6E74726F6C6C65A7
:104340007246616E5F73657474696E6773206D6920
:10435000736D617463682E0A004669656C64206C35
:1043600063645F636F6E7472617374206D69736DE3
:10437000617463682E0A004669656C6420706F770B
:1043800065725F6D6F6E69746F725F666C61677383
:10439000206D69736D617463682E0A004669656CEF
:1043A0006420626564504944206D69736D61746373
:1043B000682E0A004669656C64206C70715F6C65DC
:1043C0006E206D69736D617463682E0A00466965BD
:1043D0006C6420686F74656E64504944206D697325
:1043E0006D617463682E0A004669656C64207569A6
:1043F0005F6D6174657269616C5F7072657365741D
:10440000206D69736D617463682E0A004669656C7E
:104410006420626C746F7563685F6C6173745F773E
:1044200072697474656E5F6D6F6465206D69736D1C
:10443000617463682E0A004669656C642073657256
:10444000766F5F616E676C6573206D69736D617403
:1044500063682E0A004669656C6420706C616E6E3C
:1044600065725F6C6576656C696E675F61637469C0
:104470007665206D69736D617463682E0A00466904
:10448000656C642070726F62655F6F6666736574D9
:10449000206D69736D617463682E0A004669656CEE
:1044A000642072756E6F75745F73656E736F725F83
:1044B000656E61626C6564206D69736D61746368BB
:1044C0002E0A004669656C6420686F6D655F6F66D3
:1044D00066736574206D69736D617463682E0A007C
:1044E0004669656C642065737465707065727320CD
:1044F0006D69736D617463682E0A00454550524FB3
:104500004D206461746173697A65206572726F729F
:104510002E0A00290A002062797465733B206372B9
:104520006320002073746F7265642073657474690E
:104530006E67732072657472696576656420280001
:10454000202863616C63756C6174656429210A00BD
:1045500020213D2000454550524F4D2043524320DD
:104560006D69736D61746368202D202873746F7298
:1045700065642920002053697A653A2000496E64F9
:1045800065783A20004669656C6420636173656CE8
:10459000696768745F6272696768746E65737320B7
:1045A0006D69736D617463682E0A004669656C6499
:1045B000206261636B6C6173685F64697374616EC0
:1045C00063655F6D6D206D69736D617463682E0A3C
:1045D000004669656C642066635F73657474696E18
:1045E0006773206D69736D617463682E0A00466994
:1045F000656C6420706C616E6E65725F736B65775D
:104600005F666163746F72206D69736D6174636856
:104610002E0A004669656C6420636F6F7264696E70
:104620006174655F73797374656D206D69736D6115
:104630007463682E0A0044494749504F5453204C34
:104640006F616465640A0044494749504F545320E0
:104650004C6F6164696E670A004669656C64206D21
:104660006F746F725F63757272656E745F73657479
:1046700074696E67206D69736D617463682E0A00DA
:104680004669656C6420706C616E6E65725F6578FA
:104690007472756465725F616476616E63655F4BA9
:1046A000206D69736D617463682E0A004669656CDC
:1046B0006420746D635F737465616C74685F656EAC
:1046C00061626C6564206D69736D617463682E0A44
:1046D000004669656C6420746D635F736774206D58
:1046E00069736D617463682E0A004669656C6420A5
:1046F000746D635F6879627269645F746872657310
:10470000686F6C64206D69736D617463682E0A0054
:104710004669656C6420746D635F73746570706561
:10472000725F63757272656E74206D69736D61740A
:1047300063682E0A004669656C6420706172736557
:10474000725F766F6C756D65747269635F656E61BB
:10475000626C6564206D69736D617463682E0A0014
:104760004669656C64206677726574726163745F14
:1047700073657474696E6773206D69736D617463BA
:10478000682E0A004669656C64207265636F766501
:1047900072795F656E61626C6564206D69736D61CD
:1047A0007463682E0A004669656C6420636F6E74DA
:1047B000726F6C6C657246616E5F73657474696E5E
:1047C0006773206D69736D617463682E0A004669B2
:1047D000656C64206C63645F636F6E747261737484
:1047E000206D69736D617463682E0A004669656C9B
:1047F0006420706F7765725F6D6F6E69746F725F42
:10480000666C616773206D69736D617463682E0AED
:10481000004669656C64206C70715F6C656E206D1C
:1048200069736D617463682E0A004669656C642063
:1048300075695F6D6174657269616C5F70726573D3
:104840006574206D69736D617463682E0A00466932
:10485000656C6420626C746F7563685F6C617374FF
:104860005F7772697474656E5F6D6F6465206D69E2
:10487000736D617463682E0A004669656C64207309
:104880006572766F5F616E676C6573206D69736DBD
:10489000617463682E0A004669656C6420706C61FF
:1048A0006E6E65725F6C6576656C696E675F61637D
:1048B00074697665206D69736D617463682E0A0092
:1048C0004669656C642070726F62655F6F666673BF
:1048D0006574206D69736D617463682E0A004669A2
:1048E000656C642072756E6F75745F73656E736F3F
:1048F000725F656E61626C6564206D69736D617471
:1049000063682E0A004669656C6420686F6D655F98
:104910006F6666736574206D69736D617463682E6C
:104920000A004669656C6420657374657070657211
:1049300073206D69736D617463682E0A00204D6188
:10494000726C696E3D563832290A00454550524F07
:104950004D2076657273696F6E206D69736D617439
:1049600063682028454550524F4D3D004545505203
:104970004F4D20496E697469616C697A65640A00FB
:1049800048617264636F6465642044656661756C38
:10499000742053657474696E6773204C6F6164652D
:1049A000640A000000964300009643000020410086
:1049B00000C8411552A0423256A042B51FC7430A53
:1049C00057CC42DC050000DC05000064000000104C
:1049D0002700003B20003A0A0020204D36303320CB
:1049E0000020204D34313220530046696C616D65E2
:1049F0006E742072756E6F75742073656E736F724E
:104A00003A002055004C0046696C616D656E74205B
:104A10006C6F61642F756E6C6F6164206C656E677E
:104A20007468733A0020204D3835312058005A2DD3
:104A300050726F6265204F66667365740020440093
:104A400020490020204D33303420500020440020E5
:104A5000490020204D33303120500050494420730C
:104A6000657474696E67733A002046002042002026
:104A7000480020204D3134352053004D617465725B
:104A800069616C2068656174757020706172616D18
:104A900065746572733A00204A002020473239203D
:104AA0005720490020204D34323020530041757486
:104AB0006F20426564204C6576656C696E673A00CC
:104AC00020204D323036205800486F6D65206F66CB
:104AD000667365743A00204A0020530020204D324E
:104AE0003035204200416476616E6365643A20424D
:104AF0003C6D696E5F7365676D656E745F74696D3B
:104B0000655F75733E20533C6D696E5F66656564D5
:104B1000726174653E20543C6D696E5F747261769B
:104B2000656C5F66656564726174653E204A3C6AC7
:104B3000756E635F6465763E00205400205200204D
:104B4000204D323034205000416363656C657261E2
:104B500074696F6E2028756E6974732F7332293AE9
:104B600020503C7072696E745F616363656C3E20B7
:104B7000523C726574726163745F616363656C3E1D
:104B800020543C74726176656C5F616363656C3E52
:104B90000020204D3230312058004D6178696D750C
:104BA0006D20416363656C65726174696F6E202866
:104BB000756E6974732F7332293A0020204D32309C
:104BC000332058004D6178696D756D2066656564A8
:104BD00072617465732028756E6974732F73293A36
:104BE0000053746570732070657220756E69743A35
:104BF0000020440020204D323030205300204469F2
:104C00007361626C65640A0046696C616D656E74FF
:104C10002073657474696E67733A0020204D3134D7
:104C2000392043203B20556E69747320696E204300
:104C3000656C736975730A0020286D6D290020204A
:104C4000473231202020203B20556E697473206943
:104C50006E206D6D0024F4D43050C38E20C2A2406B
:104C600017828B7011127A910D816CD90AA861E1BB
:104C700008C7586607615143061E4B5D05C145A72D
:104C8000041A411104093D9803713931034036DBA0
:104C90000265339102D4305402802E1D02632CEE43
:104CA00001752AC501B028A001102781018F256454
:104CB000012B244B01E0223401AC211F018D200D7A
:104CC00001801FFC00841EED00971DDF00B81CD280
:104CD00000E61BC600201BBC00641AB200B219A873
:104CE000000A19A0006A189900D117910040178B8B
:104CF00000B516840031167E00B31579003A15739D
:104D000000C7146F0058146A00EE1366008813631E
:104D10000025135E00C7125B006C12570015125479
:104D200000C111510070114F0021114B00D61049E4
:104D3000008D1047004610440002104200C00F4092
:104D400000800F3E00420F3C00060F3B00CB0E38A8
:104D500000930E37005C0E3500270E3400F30D3241
:104D600000C10D3100900D3000600D2E00320D2D70
:104D700000050D2C00D90C2B00AE0C2900850C2948
:104D8000005C0C2700350C27000E0C2600E80B24D5
:104D900000C40B2400A00B23007D0B23005A0B2121
:104DA00000390B2100180B2000F80A1F00D90A1E39
:104DB00000BB0A1E009D0A1D00800A1D00630A1C1C
:104DC00000470A1B002C0A1B00110A1A00F7091AD7
:104DD00000DD091900C4091900AB0919009209176F
:104DE000007B091800630917004C091600360916E4
:104DF00000200916000A091500F5081500E008143E
:104E000000CC081400B8081400A40814009008137B
:104E1000007D0812006B08130058081200460812A3
:104E200000340811002308110012081100010811B4
:104E300000F0071000E0071000D0071000C00710B6
:104E400000B0070F00A107100091070E0083070FA5
:104E50000074070F0065070E0057070E0049070E84
:104E6000003B070D002E070E0020070D0013070D55
:104E70000006070D00F9060C00ED060D00E0060C1B
:104E800000D4060C00C8060C00BC060C00B0060CD2
:104E900000A4060B0099060C008D060B0082060B81
:104EA0000077060B006C060B0061060A0057060B24
:104EB000004C060A0042060A0038060A002E060ABE
:104EC0000024060A001A060A001006090007060A4E
:104ED00000FD050900F4050900EB050900E20509DC
:104EE00000D9050900D0050900C7050900BE05095C
:104EF00000B5050800AD050800A50509009C0508DA
:104F000000940508008C050800840508007C05084D
:104F100000740508006C050700650508005D0507BD
:104F200000560508004E0507004705070040050824
:104F30000038050700310507002A0507002305078B
:104F4000001C050600160507000F050700080506EA
:104F50000002050700FB040600F5040700EE040646
:104F600000E8040600E2040700DB040600D504069E
:104F700000CF040600C9040600C3040600BD0406F1
:104F800000B7040600B1040500AC040600A6040640
:104F900000A00405009B040600950405009004068B
:104FA000008A04050085040500800406007A0405D3
:104FB0000075040500700405006B04050066040517
:104FC00000610405005C0405005704050052040557
:104FD000004D04050048040500430405003E040498
:104FE000003A04050035040500300404002C0405D3
:104FF0000027040400230405001E0404001A04040E
:105000000016040500110404000D04040009040541
:10501000000404040000040400FC030400F803047A
:1050200000F4030400F0030400EC030400E80304AC
:1050300000E4030400E0030400DC030400D80304DC
:1050400000D4030400D0030400CC030400C803030D
:1050500000C503030024F404D9201BC40C5C0E9883
:1050600004C4095F0265077101F405F900FB04B38C
:105070000048048700C10369005803550003034535
:1050800000BE023A008402310053022A00290225A0
:105090000004022000E4011C00C8011900AF011740
:1050A00000980114008401130071011000610110C7
:1050B0000051010E0043010D0036010B002B010BC6
:1050C0000020010B00150109000C01090003010873
:1050D00000FB000800F3000800EB000700E40006F6
:1050E00000DE000600D8000600D2000600CC000555
:1050F00000C7000500C2000500BD000400B900049F
:1051000000B5000400B1000400AD000400A90004D3
:1051100000A5000300A20003009F0004009B000301
:105120000098000300950002009300030090000324
:10513000008D0002008B0003008800020086000240
:105140000084000300810002007F0002007D000255
:10515000007B000200790002007700010076000267
:10516000007400020072000100710002006F000272
:10517000006D0001006C0002006A0001006900027D
:105180000067000100660001006500010064000284
:10519000006200010061000100600001005F000288
:1051A000005D0001005C0001005B0001005A00018D
:1051B000005900010058000100570001005600018D
:1051C000005500010054000100530000005300018D
:1051D000005200010051000100500001004F000189
:1051E000004E0000004E0001004D0001004C000187
:1051F000004B0000004B0001004A00010049000183
:10520000004800000048000100470001004600007F
:105210000046000100450000004500010044000177
:105220000043000000430001004200000042000172
:10523000004100000041000100400001003F00006B
:10524000003F0001003E0000003E0001003D000064
:10525000003D0001003C0000003C0000003C00015B
:10526000003B0000003B0001003A0000003A000152
:10527000003900000039000100380000003800004B
:105280000038000100370000003700010036000040
:105290000036000000360001003500000035000037
:1052A000003500010034000000340000003400012B
:1052B0000033000000330000003300010032000022
:1052C0000032000000320001003100000031000017
:1052D000003100010030000000300000003000010B
:1052E000002F0000002F0000002F0000002F000101
:1052F000002E0000002E0000002E0001002D0000F6
:10530000002D0000002D0000002D0001002C0000E9
:10531000002C0000002C0000002C0001002B0000DD
:10532000002B0000002B0000002B0001002A0000D1
:10533000002A0000002A0000002A000100290000C5
:1053400000290000002900000029000000290001B8
:1053500000280000002800000028000000280000AD
:10536000002800010027000000270000002700009F
:105370000027000000270001002600000026000092
:105380000026000000260000002600010025000085
:105390000025000000250000002500000025000079
:1053A000002500010024000000240000002400006B
:1053B000002400000024000100230000002300005E
:1053C0000023000000230000002300000023000051
:1053D0000023000100220000002200000022000043
:1053E0000022000000220000002200010021000035
:1053F0000021000000210000002100000021000029
:105400000021000000210001002000000020000019
:10541000002000000020000000200000002000000C
:105420000020000000200001001F0000001F0000FD
:10543000001F0000001F0000001F0000001F0000F0
:10544000001F0001001E0000001E0000001E0000E2
:10545000001E0000003930000033250000871900CD
:1054600000B00F0000DB080000BD04000074020063
:10547000003F01000020436F756E7420583A000011
:105480004265747400453100626564002C207379B4
:105490007374656D2073746F707065642120486546
:1054A000617465725F49443A20004845495A454E47
:1054B000204552464F4C474C4F5300486561746934
:1054C0006E67206661696C6564002008204E494360
:1054D0004854204552524549434854005468657227
:1054E0006D616C2052756E6177617900200820C370
:1054F0009C42455253434852495454454E004D41F5
:105500005854454D50207472696767657265640030
:10551000200820554E54455253434852495454454F
:105520004E004D494E54454D502074726967676571
:10553000726564000A0A0020205A5F4D41583A0003
:1055400020205A5F4D494E3A002020595F4D494E68
:105550003A002020585F4D494E3A00202F0020424B
:10556000403A0020403A0020573A0020573A0020A5
:1055700053004D313036205000496E76616C6964BD
:105580002065787472756465720A000009121B2424
:105590002D363F48415A536C657E7719100B023DFA
:1055A000342F265158434A757C676E323B202916AA
:1055B0001F040D7A7368615E574C452B2239300FFA
:1055C000061D14636A7178474E555C646D767F40A2
:1055D00049525B2C253E3708011A137D746F6659BA
:1055E000504B42353C272E1118030A565F444D722A
:1055F0007B60691E170C053A3328214F465D546BBA
:10560000627970070E151C232A31384148535A65B8
:105610006C777E09001B122D243F3658514A437C7B
:10562000756E671019020B343D262F737A61685727
:105630005E454C3B3229201F160D046A6378714E7B
:10564000475C55222B3039060F141D252C373E019F
:1056500008131A6D647F7649405B523C352E27183B
:10566000110A03747D666F5059424B171E050C33A7
:105670003A21285F564D447B7269600E071C152A3B
:10568000233831464F545D626B70797C3C3E5E2B13
:105690003D3F2F5B5D3B2C2A225C0043616E6E6FA9
:1056A00074206F70656E2073756264697220005398
:1056B0004420496E6974206665686C676573636829
:1056C0002E0053442063617264206F6B0A006F7078
:1056D000656E526F6F74206661696C65640A00764E
:1056E0006F6C756D652E696E6974206661696C6595
:1056F000640A004E6F20534420636172640A004DB7
:105700003234004D3233202573002E0A006F70654D
:105710006E206661696C65642C2046696C653A2070
:105720000046696C652073656C65637465640A0086
:105730002053697A653A200046696C65206F706570
:105740006E65643A2000454E4420535542524F55F1
:1057500054494E450A002220706F73002220706168
:1057600072656E743A2200535542524F5554494E59
:10577000452043414C4C207461726765743A2200A5
:1057800053756263616C6C20C3BC6265727363683D
:1057900072697474656E004578636565646564203C
:1057A0006D617820535542524F5554494E452064FF
:1057B000657074683A310A0057726974696E6720BF
:1057C000746F2066696C653A20002E0A0044656C8F
:1057D0006574696F6E206661696C65642C2046692A
:1057E0006C653A200046696C652064656C6574657B
:1057F000643A00667265736800646F696E670020C2
:1058000066696C653A20004E6F77200001FFFFFF4C
:10581000FFFFFFFFFFFFFFFFFFFF0FFFFFFFFFFF88
:10582000FFFFFFFFFFFFFFFF1E0000000000000062
:1058300000000007FFFF380000000000000000002B
:105840000003FFFF700000000000000000000001E6
:10585000FFFF600000000000000000000000FFFFEC
:105860006000000000000000000000007FFFC0009A
:10587000000000000000007800003FFFC00FC0FCE7
:1058800000000000007818001FFFC03FE1FF00008B
:10589000000000783C000FFFC07FF3FF8000000095
:1058A00000783C0007FFC0FFFFFFC0000000007849
:1058B0003C0003FFC1F87F87E00000000078000093
:1058C00001FFC1F03F03E00000000078000000FF8E
:1058D000C1E01E01E01F0003E0783C03F07FC1E05F
:1058E0001E01E07FC00FF8783C07FC3FC1E01E01BD
:1058F000E1FFE01FFC783C0FFE1FC1E01E01E3FF4B
:10590000F03FFE783C1FFE0FC1E01E01E3F3F83FBD
:105910003E783C3F3F07C1E01E01E7E0FC7C1F787A
:105920003C3E1F07C1E01E01E7C07C7C0F783C3C79
:105930000F03C1E01E01E7807C780F783C3C0F0329
:10594000C1E01E01E7803C7800783C3C0F03C1E0D9
:105950001E01E7803C7800783C3C0F03C1E01E014B
:10596000E7803C7800783C3C0F03C1E01E01E7C0B3
:105970003C7800783C3C0F03C1E01E01E3E03C783A
:10598000007C3C3C0F03C1E01E01E3FF3FF8007FB9
:10599000BC3C0F03C1E01E01E1FF3FF8003FBFFC2C
:1059A0000F03C1E01E01E0FF3FF8001FBFFC0F0323
:1059B000C1E01E01E07F3FF8000FBFFC0F03600055
:1059C0000000000000000000000000076000000070
:1059D0000000000000000000000670000000000051
:1059E000000000000000000E380000000000000071
:1059F00000000000001C1E0000000000000000006D
:105A0000000000780FFFFFFFFFFFFFFFFFFFFFFF1A
:105A1000FFF001FFFFFFFFFFFFFFFFFFFFFFFF8022
:105A200001FFFFFFFFFFFFFFFFFFFFFFFFFF0FFF74
:105A3000FFFFFFFFFFFFFFFFFFFFFFFF1E00000054
:105A40000000000000000007FFFF38000000000019
:105A5000000000000003FFFF7000000000000000D5
:105A600000000001FFFF60000000000000000000D7
:105A70000000FFFF600000000000000000000000C8
:105A80007FFFC000000000000000007800003FFF22
:105A9000C00FC0FC00000000007818001FFFC03FCE
:105AA000E1FF0000000000783C000FFFC07FF3FF23
:105AB0008000000000783C0007FFC0FFFFFFC0002F
:105AC000000000783C0003FFC1F87F87E000000081
:105AD0000078000001FFC1F03F03E0000000007803
