:100000000C94AE2C0C94DF2C0C94DF2C0C94DF2C75
:100010000C94DF2C0C94DF2C0C94DF2C0C94DF2C34
:100020000C94DF2C0C94DF2C0C94DF2C0C94DF2C24
:100030000C94DF2C0D9409220C94DF2C0C94DF2CF3
:100040000C94DF2C0C945DB70C94DF2C0C94DF2CFB
:100050000C94DF2C0C94DF2C0C941DB10D94BF215B
:100060000C94DF2C0C94FF8B0C94F58B0C94DF2CF0
:100070000C94DF2C0C94DF2C0C94DF2C0C94DF2CD4
:100080000C94EC650C94DF2C0C94DF2C0C94DF2C7E
:100090000C94DF2C0C94DF2C0C94DF2C0C94DF2CB4
:1000A0000C94DF2C0C94DF2C0C94BE650C94DF2C8C
:1000B0000C94DF2C0C94DF2C0C94DF2C0C94DF2C94
:1000C0000C94DF2C0C94DF2C0C94DF2C0C94DF2C84
:1000D0000C94DF2C0C94DF2C0C94DF2C0C94DF2C74
:1000E0000C94DF2C084AD73B3BCE016E84BCBFFD8D
:1000F000C12F3D6C74319ABD56833DDA3D00C77FF8
:1001000011BED9E4BB4C3E916BAAAABE0000008090
:100110003F05A84CCDB2D44EB93836A9020C50B91F
:10012000918688083CA6AAAA2ABE000000803F004B
:100130000C94F1310D9483200D94DE200C9400E892
:100140000C94C0660C94E72C0C94D0310C9497441A
:100150000C943A300C9415330C9401470C94F9AA82
:100160000C942C2D0C94E4670C94C62D0C94FB3548
:100170000D94F2200C946C3D0C940E560C94F3AA42
:100180000C9402510C94C7E70D949F040C944F6695
:100190000C94C1310D94E4040C94106E0D9406215E
:1001A0000C94242E0C9478B10C942E680C94C5AA4F
:1001B0000C94193D0C944A6E0C94D52F0C940A673C
:1001C0000C9422360C94C6390C94132D0D947C0497
:1001D0000C946F6E0C94CFAA0D948B040C94EE4784
:1001E0000C94436E0C94E42F0D9480040C949A2D7F
:1001F0000D94BB040C94CA470C94DCA90C94DF3119
:100200000D94FC200C94D4520C9410B90C944343DC
:100210000C94B9A90C9477AA0D9437060C94E72F87
:100220000D9418360C94586E0C945E6E0C94468C9B
:100230000C94CBE70C9484360C9422430C94E56622
:100240000D94BB200C949B440D94A9040D949F2005
:100250000C94D3310C942D670C94D0470C94F2324B
:100260000C94D92D0C947B660C9417B90C94DE6019
:100270000C9478680C94E5F30C9497AA0C94CE39FE
:100280000C94A3440C9412B10C949F440C94B84762
:100290000C9481D20C943B2E0C94AA3D0C94BB4838
:1002A0000C94FA2C0C9471D00D94B7040C94D039A2
:1002B0000D9479200C944D6E0C94E8470C9475675E
:1002C0000D94E8200C94DCEB0C94BF670D94B604FD
:1002D0000C94F6320C942AEB0D94A7200C948744CE
:1002E0000C9405AB0C94F4470C94CA310C94DC4785
:1002F0000C94BB5A0C94BDA80C946F330C94303AF8
:100300000C94E53A0D9452040C94D4AA0C945067C2
:100310000C9484390C94476E0C94C4470C94834419
:100320000C94C9390D9488040C9439300C948B3D8D
:100330000C9453680C949FAA0C947F440C9479AA53
:100340000C94CD310D9474200C94546E0C946C6EFE
:100350000C9406470C9493440C9486F50C942D3120
:100360000D949B040D94A3040C94D6390C941A2F6D
:100370000C949C680C94EC320C94AE4D0C940B478E
:100380000C9404320C9466330C94532D0C94626ECE
:100390000C9445420C9437380D946C200C94774B98
:1003A0000D94C5200C94F22D0C949A670C940B2E8E
:1003B0000C94D3390C9409680C94AC470C948B447E
:1003C0000C948F440C94A9390C94BE470C94F4F609
:1003D0000C942E3A0C943B390C94AD320D948D2034
:1003E0000C94686E0C94C0390D9476040C94F03221
:1003F0000D943D040D9491040C94E2470C94D6475F
:100400000D9453040D94B1040C94872D0C94AD2DD0
:100410000D9497200C94516E0C94BA390C94194F8A
:100420000C9419410C94B4390D9484040C94C0AA12
:100430000C9472630D94AD040C94AC410D94D420D3
:100440000C94406E0C94656E0C9443380C94156EAD
:100450000C94F4320D94603E0C949B660C947D31A8
:100460000C94BD390C9457330D9495040C946C2D59
:100470000C943A2D0C943C310C94EE320C94B2470F
:100480000D9441040C94FA320C94F8320C9487D6F3
:100490000C94CAAA0C94B7390C94FFAA0C945B6E06
:1004A0000C946E320C943F570C947F4A0D94B120FB
:1004B0000C94C3394E414E494E495459494E46CD8C
:1004C000CCCC3D0AD7233C17B7D13877CC2B32950B
:1004D00095E6241FB14F0A000020410000C84200E9
:1004E000401C4620BCBE4CCA1B0E5AAEC59D7400B3
:1004F000407A10F35A00A0724E18090010A5D4E8F3
:100500000000E87648170000E40B54020000CA9A85
:100510003B000000E1F505000080969800000040D7
:10052000420F000000A0860100000010270000001C
:1005300000E803000000006400000000000A000062
:100540000000000100000000002C76D888DC674F16
:100550000823DFC1DFAE59E1B1B796E5E3E453C646
:100560003AE651997696E8E6C28426EB898C9B623E
:10057000ED407C6FFCEFBC9C9F40F2BAA56FA5F4E8
:1005800090055A2AF75C936B6CF9676DC11BFCE010
:10059000E40D47FEF520E6B500D0ED902E03009463
:1005A0003577050080841E080000204E0A000000F8
:1005B000C80C333333330F986E12831141EF8D2102
:1005C00014893BE65516CFFEE6DB18D1844B381B69
:1005D000F77C1D901DA4BBE424203284725E22812E
:1005E00000C9F124ECA1E53D275A5F53544F505FF9
:1005F00050494E005A5F535445505F50494E005A7F
:100600005F4D494E5F50494E005A5F454E41424C46
:10061000455F50494E005A5F4449525F50494E0071
:10062000595F53544F505F50494E00595F535445E2
:10063000505F50494E00595F4D494E5F50494E0042
:10064000595F454E41424C455F50494E00595F4409
:1006500049525F50494E00585F53544F505F5049C4
:100660004E00585F535445505F50494E00585F4DFF
:10067000494E5F50494E00585F454E41424C455FE0
:1006800050494E00585F4449525F50494E00535301
:100690005F50494E00534552564F335F50494E000C
:1006A000534552564F325F50494E00534552564FB4
:1006B000315F50494E00534552564F305F50494EBE
:1006C00000534453530053445F4445544543545FDF
:1006D00050494E0053434B5F50494E0052414D50DC
:1006E000535F44395F50494E0052414D50535F446F
:1006F000385F50494E0052414D50535F4431305F96
:1007000050494E004D4F53495F50494E004D49539B
:100710004F5F50494E004D4158363637355F535381
:100720005F50494E004C45445F50494E004C434495
:100730005F50494E535F5253004C43445F50494E03
:10074000535F454E41424C45004C43445F50494E37
:10075000535F4437004C43445F50494E535F443627
:10076000004C43445F50494E535F4435004C434472
:100770005F50494E535F4434004845415445525FF1
:100780004245445F50494E004845415445525F3010
:100790005F50494E0046494C5F52554E4F55545F8D
:1007A00050494E0046414E325F50494E0046414E40
:1007B000315F50494E0046414E5F50494E00453131
:1007C0005F535445505F50494E0045315F454E419F
:1007D000424C455F50494E0045315F4449525F509D
:1007E000494E0045315F43535F50494E0045305FED
:1007F000535445505F50494E0045305F454E41428D
:100800004C455F50494E0045305F4449525F504966
:100810004E0045305F4155544F5F46414E5F504951
:100820004E00455F4D5558325F50494E00455F4D73
:100830005558315F50494E00455F4D5558305F5017
:10084000494E00444F474C43445F53434B00444F91
:10085000474C43445F4D4F534900434F4E54524F12
:100860004C4C45525F46414E5F50494E0042544EFB
:100870005F454E430042544E5F454E320042544E57
:100880005F454E31004245455045525F50494E004C
:100890004156525F53535F50494E004156525F5389
:1008A000434B5F50494E004156525F4D4F53495F95
:1008B00050494E004156525F4D49534F5F50494E8B
:1008C0000054454D505F4245445F50494E005445E9
:1008D0004D505F315F50494E0054454D505F305F81
:1008E00050494E0054584430005258443000434F51
:1008F0004D4D554E49434154494F4E004452595273
:10090000554E004552524F525300494E464F0045F6
:1009100043484F00554E4C4F41442046494C414DB1
:10092000454E54004C4F41442046494C414D454EA4
:10093000540046494C414D454E54204348414E4792
:1009400045004572726F722077726974696E672014
:10095000746F20454550524F4D210A00363726030B
:100960003C3D380E2E303E121A1C180A2C43090743
:100970002C07084400014D343130004D3131320034
:100980004D3130380053544F505045442E200050C4
:1009900072696E7465722073746F70706564206420
:1009A000756520746F206572726F72732E204669B0
:1009B0007820746865206572726F7220616E6420A1
:1009C000757365204D39393920746F2072657374E1
:1009D0006172742E202854656D7065726174757231
:1009E000652069732072657365742E2053657420C9
:1009F00069742061667465722072657374617274C3
:100A0000696E67290A004E6F20436865636B7375D2
:100A10006D2077697468206C696E65206E756D62F3
:100A200065722C204C617374204C696E653A20000D
:100A30004E6F20436865636B73756D2077697468CA
:100A4000206C696E65206E756D6265722C204C613C
:100A50007374204C696E653A2000636865636B733C
:100A6000756D206D69736D617463682C204C6173C2
:100A700074204C696E653A20004C696E65204E7595
:100A80006D626572206973206E6F74204C6173749F
:100A9000204C696E65204E756D6265722B312C207D
:100AA0004C617374204C696E653A20004D313130D1
:100AB0000053442072656164206572726F720A008F
:100AC0002121204B494C4C20636175736564206281
:100AD0007920746F6F206D75636820696E6163742F
:100AE0006976652074696D65202D20637572726565
:100AF0006E7420636F6D6D616E643A200062757371
:100B0000793A2070617573656420666F7220696E32
:100B10007075740A00627573793A20706175736537
:100B20006420666F7220757365720A00627573794E
:100B30003A2070726F63657373696E670A004D6562
:100B40006469612052656D6F766564004D65646906
:100B50006120496E736572746564004D36303000F3
:100B6000506C65617365205265736574005052491D
:100B70004E5445522048414C5445440025533A2098
:100B80002553004B494C4C45442E20005072696E51
:100B90007465722068616C7465642E206B696C6C7E
:100BA00028292063616C6C6564210A006563686FA5
:100BB0003A004572726F723A00486F74656E642035
:100BC000746F6F20636F6C640A00507265737320DA
:100BD000627574746F6E20746F20726573756D65C5
:100BE0000A00496E736572742066696C616D656E8A
:100BF0007420616E64207072657373206275747402
:100C00006F6E0A00507265737320627574746F6E34
:100C100020746F2068656174206E6F7A7A6C650A43
:100C20000050574D3A20202534640050574D3A204B
:100C3000202534640050574D3A202025346400505C
:100C4000574D3A20202534640050574D3A20202536
:100C500034640050574D3A20202534640050574DDD
:100C60003A20202534640050574D3A202025346422
:100C70000050574D3A20202534640050574D3A20FB
:100C8000202534640050574D3A202025346400500C
:100C9000574D3A20202534640050574D3A202025E6
:100CA00034640050574D3A20202534640050574D8D
:100CB0003A20202534640050574D3A2020253464D2
:100CC000003A200020202020434F4D002020206E9D
:100CD0006F6E2D7374616E646172642050574D2085
:100CE0006D6F646500202020636F6D7061726520F8
:100CF000696E7465727275707420656E61626C6580
:100D000064002020206F766572666C6F7720696EB4
:100D10007465727275707420656E61626C656400D2
:100D20003A20002020202054494D534B00423A20C5
:100D300000202020205443435200413A200020202C
:100D4000202054434352002020202043533A2000C7
:100D50002020202057474D3A200050574D3A202060
:100D60002534640050574D3A202025346400470054
:100D70004800000088008A008C00B300B400000026
:100D800098009A009C00A800AA00AC0028012A0143
:100D90002C012020202054494D455200440045009C
:100DA0006E00800081006F00B000B1007000900004
:100DB00091007100A000A1007200200121017300C8
:100DC00020697320616C736F207469656420746F8F
:100DD00020746869732070696E0054494D45523122
:100DE00043000A202E0020200000000A0B02090CFC
:100DF0000D0E0807030401000000000000000000C1
:100E000000000000000000000000000000000000E2
:100E1000000000000012111000000000000000009F
:100E200000000000000000000000000000000000C2
:100E3000000000000000000000010210202008084F
:100E4000102040102040800201020108040201012C
:100E50000204081020408080402010080402018015
:100E6000040201804020100804020108040201016C
:100E70000204081020408001020408102040801065
:100E800008040880102040044080102040048005A1
:100E9000050505070508080808020202020A0A08F3
:100EA0000804040404010101010101010103030319
:100EB0000303030303040707070C0C0C0C0C0C0CB6
:100EC0000C0202020206060606060606060B0B0BBD
:100ED0000B0B0B0B0B07070A0A0A0A0A0A05050582
:100EE00004040408082020506F72743A2000202067
:100EF0002000202020416E616C6F6720696E203DCC
:100F00002025356C64003C756E757365642F756EB5
:100F10006B6E6F776E3E00202841253264292020B9
:100F200000253364200050494E3A20004F757470FC
:100F30007574203D2000496E70757420203D20009E
:100F4000416E616C6F6720696E203D2025356C64B1
:100F50000070726F746563746564200020284125F9
:100F6000326429202000253364200050494E3A2065
:100F700000E9080001E4080101D9084300CE084552
:100F800000C1084400B4083201A70833019B0834AB
:100F90000190083501850825017D08210175081F8C
:100FA000016D0823015A0807014E08330143083434
:100FB00001380828012D082A0122082C0112082CCA
:100FC0000107081C01F9071801ED071A01E3072CB6
:100FD00001D8072201CA071E01BE072401B607096E
:100FE00001AD070701A4072C019507040188070A32
:100FF00001790708016D0717016107190155071BE2
:101000000149071D01390711012D07100125070DA1
:1010100001160742010D07320104073301F6060AE3
:1010200001E9060801DC060901D4063401C60631CF
:1010300001C1063501B6060B01AB060601A0060587
:1010400001950604018E06350184063701770626D0
:10105000016D06030162063601570603014D063D88
:10106000014006380136060E012B063C0120060E13
:10107000011606300109063E01FF051201F4052E96
:1010800001E9051201446F6E652E0A0050756C73FC
:10109000696E6720202000556E746F756368656403
:1010A00020005A5F50524F42455F534552564F5FA2
:1010B0004E52206E6F74207365742075702E0A0076
:1010C0005761746368696E672070696E730A0064A3
:1010D000697300656E0061626C65640A00656E6428
:1010E00073746F70206D6F6E69746F72200020587A
:1010F0000020204D61783A2000200020204D696EAC
:101100003A2000536F667420656E6473746F707359
:101110003A2000206F7574206F662072616E6765DB
:101120000A00536572766F20003A200020536572E2
:10113000766F200025290A00252000203B2028006A
:1011400020440020410020490020204D373130202C
:1011500053003B20436F6E74726F6C6C6572204657
:10116000616E0A0020496E76616C6964206578744E
:101170007275646572200020746F6F206C6F6E67EB
:1011800020657874727573696F6E2070726576650C
:101190006E7465640A0020636F6C642065787472F5
:1011A0007573696F6E2070726576656E7465640A1A
:1011B00000536C6565702E2E2E00436C69636B20A6
:1011C000746F20526573756D652E2E2E004E6F2044
:1011D0004D6F76652E00456E642066696C65206CE7
:1011E0006973740A00426567696E2066696C6520E0
:1011F0006C6973740A004E6F206D656469610A0042
:10120000286E6F2066696C65290043757272656E81
:10121000742066696C653A20005344207072696ED0
:1012200074696E67206279746520004E6F74205374
:1012300044207072696E74696E670A002E0A004459
:10124000656C6574696F6E206661696C65642C20DD
:1012500046696C653A200046696C652064656C657A
:101260007465643A002569730025696D20256973EA
:10127000002569682025696D20256973002569644A
:10128000202569682025696D202569730025697905
:1012900020256964202569682025696D20256973EA
:1012A000005072696E742074696D653A2000436F56
:1012B0006F6C696E672E2E2E0048656174696E67CB
:1012C0002E2E2E0045202553006F6B006F666600A2
:1012D0000F090A090309FC08EE0844454255473A3C
:1012E000004D3131322053687574646F776E004D54
:1012F000313133205300416E796375626963203464
:101300004D4158204F46462E002F2F20004D31349E
:101310003520533C696E6465783E206F7574206F8C
:10132000662072616E67652028302D31290A002001
:101330005200416363656C65726174696F6E3A2037
:1013400050003F4A206F7574206F662072616E678F
:10135000652028302E303120746F20302E33290A3A
:101360000046523A0020466C6F773A200020643ADB
:101370000020693A0020703A00496E76616C696419
:101380002065787472756465720A0064697300651B
:101390006E0043290A0061626C656420286D696EE5
:1013A0002074656D702000436F6C642065787472E2
:1013B000756465732061726520004F4646004F4E8C
:1013C0000046696C616D656E742072756E6F757420
:1013D00020004F666673657473204170706C696598
:1013E00064004572723A20546F6F2066617221006A
:1013F000546F6F206661722066726F6D2072656631
:101400006572656E636520706F696E740A0045458C
:1014100050524F4D204F4B0A004D383400446F6EF0
:1014200065207072696E74696E672066696C650A02
:10143000004D3737004D333100496E76616C696479
:101440002065787472756465720A004361703A00B1
:101450004348414D4245525F54454D5045524154D9
:1014600055524500424142595354455050494E4708
:101470000041524353004D4F54494F4E5F4D4F442E
:10148000455300544845524D414C5F50524F5445CE
:101490004354494F4E004C4F4E475F46494C454ED2
:1014A000414D45004155544F5245504F52545F53A2
:1014B000445F5354415455530053444341524400F4
:1014C00050524F4D50545F535550504F5254004559
:1014D0004D455247454E43595F5041525345520086
:1014E000434153455F4C494748545F42524947483E
:1014F000544E45535300544F47474C455F4C494762
:1015000048545300534F4654574152455F504F572C
:101510004552004255494C445F50455243454E5454
:10152000004C4556454C494E475F44415441005A92
:101530005F50524F42450052554E4F555400415551
:10154000544F4C4556454C005052494E545F4A4FFB
:10155000420050524F4752455353004155544F5249
:1015600045504F52545F54454D5000564F4C554DC9
:10157000455452494300454550524F4D0042494E53
:101580004152595F46494C455F5452414E5346457E
:10159000520053455249414C5F584F4E5F584F4699
:1015A00046004649524D574152455F4E414D453ADE
:1015B0004D61726C696E20344D415820322E302EB0
:1015C0003732303452454C2E20284D617220313153
:1015D00020323032312031383A30343A3435292013
:1015E000534F555243455F434F44455F55524C3A24
:1015F00068747470733A2F2F6769746875622E630C
:101600006F6D2F47656D696E695365727665722FD0
:101610004D61726C696E2050524F544F434F4C5F76
:1016200056455253494F4E3A312E30204D41434892
:10163000494E455F545950453A416E796375626928
:101640006320344D41582045585452554445525F0B
:10165000434F554E543A3120555549443A3661610D
:1016600031343764322D666664352D313165392D5C
:10167000386437312D333632623965313535363697
:10168000370A0047322F473320626164207061724D
:10169000616D65746572730A00220A00656E71756A
:1016A000657565696E672022006F6B005265736512
:1016B0006E643A200043616E6E6F74206F70656EC9
:1016C00020737562646972200020573A0042656495
:1016D00020436F6F6C696E672E2E2E00426564206A
:1016E00048656174696E672E2E2E002364656669F5
:1016F0006E652044454641554C545F004B642000C4
:101700004B6920004B702000504944204175746F94
:1017100074756E652066696E697368656421205012
:10172000757420746865206C617374204B702C2074
:101730004B6920616E64204B6420636F6E7374612B
:101740006E74732066726F6D2062656C6F772069AE
:101750006E746F20436F6E66696775726174696F2E
:101760006E2E680A00504944204175746F74756E7E
:1017700065206661696C6564212074696D656F75AB
:10178000740A00504944204175746F74756E652069
:101790006661696C6564212054656D706572617461
:1017A00075726520746F6F20686967680A00204B46
:1017B000643A2000204B693A2000204B703A200008
:1017C0000A20436C617373696320504944200A0006
:1017D0002054753A2000204B753A2000206D617826
:1017E0003A2000206D696E3A200020643A200020E3
:1017F000626961733A2000504944204175746F74E6
:10180000756E652073746172740A005049442041FA
:1018100075746F74756E65206661696C65642120EE
:1018200054656D706572617475726520746F6F2098
:10183000686967680A00504944204175746F74757F
:101840006E6500504944204175746F74756E652053
:101850006661696C656421204261642065787472F8
:1018600075646572206E756D6265720A00457272EC
:101870003A207574663820666F6E74206E6F74201F
:10188000696E697469616C697A65642E004572726B
:101890003A207574663820666F6E74206E6F7420FF
:1018A000696E697469616C697A65642E004572724B
:1018B0003A207574663820666F6E74206E6F7420DF
:1018C000696E697469616C697A65642E0025687552
:1018D0003A25303268750025303268753A25303245
:1018E000687500256875642025303268753A2530A2
:1018F0003268750042656400456E636C6F73757283
:1019000065004C6F6164206D6D00556E6C6F616495
:10191000206D6D0046696C2E204469612E004520C3
:10192000696E206D6DC2B3004D33303320553120C8
:101930004525692053256900504944204175746F3D
:1019400074756E65202A005049442D44202A0050A9
:1019500049442D49202A005049442D50202A002076
:10196000082046616374002008204D61780020083B
:10197000204D696E004F6666004F6E004175746FB2
:1019800074656D70005654726176204D696E005614
:101990006D696E00566D6178204500566D61782046
:1019A0005A00566D6178205900566D6178205800B4
:1019B000416D6178204500416D6178205A00416D8C
:1019C0006178205900416D6178205800412D547292
:1019D0006176656C00412D526574726163740041DB
:1019E0006363656C00452073746570732F6D6D00C3
:1019F0005A2053746570732F6D6D005920537465B0
:101A000070732F6D6D00582053746570732F6D6D5A
:101A100000416476616E6365642053657474696E19
:101A20006773003F0043616E63656C00496E6974C3
:101A3000004D34323800496E697469616C697A65A9
:101A400020454550524F4D0046696C616D656E747E
:101A50000054656D706572617475726500537465CC
:101A600070732F6D6D004A756E6374696F6E2044DC
:101A7000657600416363656C65726174696F6E00C1
:101A800056656C6F636974790053657420486F6D97
:101A900065204F66667365747300436F6E66696791
:101AA00075726174696F6E003F004E6578742050E6
:101AB0006F696E7400446F6E65004E6578740048FF
:101AC0006F6D696E672058595A0049646C652050E3
:101AD0006572696F6400416374697665205370654F
:101AE0006564004175746F204D6F64650049646CD6
:101AF0006520537065656400426564004E6F7A7AB4
:101B00006C650046616E20537065656400436F6EBE
:101B100066696775726174696F6E004C6F616420ED
:101B200053657474696E677300526573746F726580
:101B30002044656661756C74730053746F72652020
:101B400053657474696E677300507265686561747B
:101B5000202420436F6E66004F6666004F6E005271
:101B6000756E6F75742053656E736F7200436F6E80
:101B700074726F6C6C65722046616E0041647661B0
:101B80006E6365642053657474696E6773004D619C
:101B9000696E004D37303220542564004D363030A8
:101BA00020423020542564004D373032203B2564DC
:101BB000004D37303120542564004D373032004D10
:101BC000373031004D363030204230004D61696E83
:101BD00000436F6E74696E7565004F6666004F6EE8
:101BE0000052756E6F75742053656E736F7200507E
:101BF00075726765206D6F726500524553554D458E
:101C0000204F5054494F4E533A005052494E5420A1
:101C10005041555345440020204E6F7A7A6C653A06
:101C200020005061726B696E672E2E2E00000057E7
:101C300061697420666F720066696C616D656E74AF
:101C4000206368616E676500746F207374617274DD
:101C5000005761697420666F720066696C616D651A
:101C60006E7420756E6C6F616400004E6F7A7A6CD2
:101C7000652068656174696E6700506C65617365A5
:101C800020776169742E2E2E0000507265737320C8
:101C9000627574746F6E00746F2068656174206E75
:101CA0006F7A7A6C650000496E736572742066699C
:101CB0006C616D656E7400616E6420707265737323
:101CC00020627574746F6E00746F20636F6E746938
:101CD0006E7565005761697420666F720066696C85
:101CE000616D656E74206C6F616400005072657385
:101CF0007320427574746F6E00746F207265737513
:101D00006D65207072696E74000057616974206699
:101D10006F72207072696E7400746F2072657375D3
:101D20006D652E2E2E00005761697420666F72005B
:101D300066696C616D656E74207075726765000010
:101D40003135300035004245443A204550434F5329
:101D5000203130304B0052756E61776179205761C8
:101D60007463683A204F4E004D61782054656D7061
:101D700000323735004D696E2054656D70003500B6
:101D800045313A204550434F53203130304B0050BD
:101D9000535500532D3330302D31320050726F7453
:101DA0006F636F6C00312E30004261756400323514
:101DB0003030303000416E79637562696320524182
:101DC0004D505320312E340045787472756465721D
:101DD0007300310068747470733A2F2F6769742E22
:101DE000696F2F666A587A7200416E79637562690D
:101DF0006320344D415800323032302D31302D3196
:101E00003500344D415820322E302E373230345286
:101E1000454C2E004D61726C696E00546865726DA0
:101E20006973746F727300426F61726420496E66E9
:101E30006F005072696E74657220496E666F004D56
:101E400061696E003F004261636B0053746F700004
:101E50004E6F204D65646961005072696E74206632
:101E6000726F6D204D65646961004368616E6765DE
:101E70002046696C616D656E7400436F6E666967BC
:101E800075726174696F6E0054656D70657261740E
:101E9000757265004D6F74696F6E00526573756D74
:101EA00065205072696E740041626F7574205072C3
:101EB000696E7465720054756E650053746F70209E
:101EC0005072696E74005061757365205072696E4E
:101ED0007400496E666F2053637265656E003F0043
:101EE0005374617274205072696E740043616E6342
:101EF000656C005072696E740043616E6E6F742081
:101F0000656E746572207375626469723A200002AE
:101F10002E2E004D61696E00000C0F00FE07022599
:101F200003BB017FFE08FE08FE050808060000400E
:101F3000F0C88888987810050808060000C0F8885E
:101F400088888888F80505050600012030F83020CB
:101F50000508080600002070F820202020E0050970
:101F6000090600FF2070A8A8B8888870200705051A
:101F7000070001D86C366CD80509090600FFF8A8DF
:101F80008888888888A8F8050A0A0600FE2050502C
:101F9000505088A8A8887003030306000340A0409F
:101FA000FFFFFFFFFFFFFFFFFFFFFFFFFFFFFFFF41
:101FB000FFFFFFFFFFFF0000000605FF0107070608
:101FC000020080808080800080030303060105A05A
:101FD000A0A005060606000050F85050F85005096C
:101FE000090600FF2070A8A07028A8702005070728
:101FF000060000C8C8102040989805070706000092
:1020000040A0A040A89068010303060205808080DC
:102010000309090601FF20404080808040402003E2
:1020200009090601FF80404020202040408005072C
:102030000706000020A8702070A8200505050600EE
:10204000012020F820200203030601FFC040800584
:102050000101060003F8020202060100C0C00507E4
:102060000706000008101020404080050707060002
:1020700000708898A8C8887003070706010040C050
:1020800040404040E0050707060000708808102027
:1020900040F8050707060000F808103008887005AA
:1020A000070706000010305090F8101005070706CB
:1020B0000000F880F0080888700507070600003067
:1020C0004080F0888870050707060000F8081010A7
:1020D0002020200507070600007088887088887017
:1020E000050707060000708888780810600205055B
:1020F000060100C0C000C0C00206060601FFC0C045
:1021000000C04080030505060101204080402005F5
:102110000303060002F800F80305050601018040EC
:10212000204080050707060000708810202000204E
:102130000507070600007088B8A8B8807005070773
:10214000060000708888F888888805070706000060
:10215000F04848704848F00507070600007088807E
:1021600080808870050707060000F0484848484806
:10217000F0050707060000F88080F08080F805076A
:1021800007060000F88080F08080800507070600C1
:10219000007088808098887005070706000088888E
:1021A00088F8888888030707060100E0404040401F
:1021B00040E0050707060000381010101090600579
:1021C00007070600008890A0C0A0908805070706B2
:1021D0000000808080808080F80507070600008866
:1021E000D8A8888888880507070600008888C8A8B6
:1021F0009888880507070600007088888888887096
:10220000050707060000F08888F080808005070732
:1022100006000070888888A89068050707060000F7
:10222000F08888F0A0908805070706000070888075
:1022300070088870050707060000F820202020207D
:1022400020050707060000888888888888700507A9
:102250000706000088888888505020050707060078
:102260000088888888A8A850050707060000888885
:1022700050205088880507070600008888502020D5
:102280002020050707060000F80810204080F8030A
:1022900009090601FFE080808080808080E00507DA
:1022A00007060000804040201010080309090601BD
:1022B000FFE020202020202020E005030306000569
:1022C0002050880501010600FEF8030303060105FE
:1022D000804020050505060000700878887805070D
:1022E000070600008080F0888888F0050505060054
:1022F000007080808870050707060000080878884D
:102300008888780505050600007088F0807005074C
:1023100007060000304840E040404005070706003F
:10232000FE7088888878087005070706000080809E
:10233000F0888888880307070601004000C04040F5
:1023400040E00409090601FE100030101010109042
:102350006005070706000080808890E090880307EA
:1023600007060100C04040404040E005050506006A
:1023700000D0A8A8A8A8050505060000B0C8888850
:10238000880505050600007088888870050707061F
:1023900000FEF0888888F080800507070600FE7838
:1023A000888888780808050505060000B0C8808080
:1023B0008005050506000078807008F0050707060F
:1023C00000002020F82020201805050506000088C0
:1023D00088889868050505060000888888502005CB
:1023E00005050600008888A8A85005050506000018
:1023F00088502050880507070600FE8888885020EE
:102400004080050505060000F8102040F803090982
:102410000601FF204040408040404020010909065D
:1024200002FF80808080808080808003090906010F
:10243000FF804040402040404080050303060002EA
:1024400048A890FF2100486F74656E6420746F6F18
:1024500020636F6C64004261636B0050726F636550
:102460006564004D6F74696F6E0044697361626CDE
:1024700065205374657070657273004D3834004C7C
:102480006576656C20436F726E65727300486F6D80
:1024900065205A004732385A00486F6D6520590050
:1024A0004732385900486F6D652058004732385818
:1024B000004175746F20486F6D6500473238004DDC
:1024C00061696E0050726568656174202420456EF4
:1024D0006400507265686561742024204265640060
:1024E00054656D706572617475726500436F6F6CD1
:1024F000646F776E005072656865617420240046D1
:10250000616E20537065656400426564004E6F7AA9
:102510007A6C65004D61696E00466C6F77004661AC
:102520006E20537065656400426564004E6F7A7A70
:102530006C65005370656564004D61696E001FE055
:102540003FF03FF03FF01FE01FE03FF03FF03FF073
:102550000FC0078003001FE0201020102010102063
:1025600010202010201030300840048003003FFF6E
:10257000F83E00F839F03831E01831E01821E1E890
:1025800020F3E8207FE82077E828EE282FDC082FCA
:10259000FC082F9E082F0F08300F18300F18381F17
:1025A000383E00F83FFFF83FFFF83E00F8383F386C
:1025B000307E18307C18287C082C38082F39C82F1A
:1025C000FFE82FC7E82FFFE82739E8203868207C8C
:1025D00028307C1830FC1839F8383E00F83FFFF8F6
:1025E0003FFFF83E00F8380F38341FD8361F982FB9
:1025F0001F082F9E082FFC082FDC0827EFC8207724
:10260000E8207FE820F3E821F1E833F0D837F058EC
:1026100039E0383E00F83FFFF83FFFF83E80F839D8
:1026200080383781D837C3D827C7E823C7F821FFB8
:1026300088206C08206C08206C0823FF083FC7889E
:102640002FC7C83787D83703D83803383E02F83F3A
:10265000FFF81FFFF81FFFF80410400208200208CF
:102660002004104008208010410010410008208004
:102670000410400000001FFFF81FFFF8210014079E
:1026800006003372D1C089003F0B152109002D3A95
:1026900015220900214A15240900213A1527A60010
:1026A000000000000000FFFFFFFFFFC0000000006F
:1026B00000000B1870E1C3801B0CF0E0E7003B2723
:1026C000F07076003B33F13030007B3333B81800C4
:1026D0007BB033B80C007BB0373C6E000330377CE6
:1026E000E7000330360DC380000000000000FFFF4C
:1026F000FFFFFFC0000000000000070000084000CE
:1027000009649D2F0E000F54A12950000954A129DE
:1027100050000957BDEF5E00000080000000000778
:102720008000000000000000000000000000000029
:102730005072696E742041626F72746564004D322C
:102740003520500A4D32340050617573696E672E22
:102750002E2E005761726E696E673A20436C656178
:102760006E20436972636C6520726571756972656C
:10277000732058590A005761726E696E673A205289
:102780006164697573204F7574206F662052616EA5
:1027900067650A00486F6D696E67204661696C6500
:1027A00064006F70656E0054524947474552454476
:1027B000003A200066696C616D656E74007A5F6D29
:1027C000696E00795F6D696E00785F6D696E0052A9
:1027D00065706F7274696E6720656E6473746F7074
:1027E000207374617475730A00486F6D65202573DA
:1027F00025732573204669727374000000A0C00021
:1028000000000000000000000048420000484200B4
:102810000020415761726E696E673A20486F6D699A
:102820006E672042756D702044697669736F7220FF
:102830003C20310A000202040000A0400000A04039
:102840000000004000005F4300005A430000964330
:10285000FFFFFF00000001000000010000800055A4
:102860005555000000400033333300AAAA2A00491E
:1028700092240000002000C7711C0099991900D112
:10288000451700555515003BB1130024491200119E
:10289000111100000010000F0F0F00E3380E00436D
:1028A000790D00CCCC0C00C3300C00E8A20B006406
:1028B000210B00AAAA0A00703D0A009DD809004217
:1028C0007B090092240900DCD308008888080010E6
:1028D00042080000000800F0C10700878707007564
:1028E000500700711C07003EEB0600A1BC06006902
:1028F00090060066660600703E0600611806001726
:10290000F4050074D105005BB00500B290050062CB
:102910007205005555050078390500B81E050005FB
:102920000505004EEC040087D40400A1BD0400900E
:10293000A7040049920400C17D0400EE690400C7A9
:10294000560400444404005C3204000821040041A1
:10295000100400000004003FF00300F8E00300262C
:10296000D20300C3C30300CCB503003AA803000A96
:102970009B0300388E0300C08103009F750300D0C5
:10298000690300505E03001D5303003448030091A7
:102990003D03003333030016290300381F0300975B
:1029A000150300300C0300030303000BFA02004977
:1029B000F10200BAE802005CE002002DD802002D0E
:1029C000D0020059C80200B0C0020031B90200DADA
:1029D000B10200AAAA0200A0A30200BC9C0200FA55
:1029E0009502005C8F0200DF8802008282020045AF
:1029F0007C02002776020027700200436A02007CF6
:102A0000640200D05E02003F590200C8530200FF7A
:102A1000FDFCFAF8F6F4F2F0EEECEAE9E7E5E3E1C2
:102A2000E0DEDCDAD9D7D5D4D2D0CFCDCBCAC8C777
:102A3000C5C3C2C0BFBDBCBAB9B7B6B4B3B2B0AFFC
:102A4000ADACAAA9A8A6A5A4A2A1A09E9D9C9A9956
:102A5000989795949392908F8E8D8B8A898887868C
:102A600084838281807F7E7D7B7A797877767574A6
:102A7000737271706F6E6D6C6B6A6968676665649E
:102A8000636261605F5E5D5C5B5A5958585756558A
:102A90005453525150504F4E4D4C4B4A4A4948475F
:102AA0004646454443424241403F3E3E3D3C3B3B1F
:102AB0003A39383837363535343332323130302FD1
:102AC0002E2E2D2C2B2B2A29292827272625252475
:102AD000232322212120201F1E1E1D1C1C1B1B1A0C
:102AE0001919181817161615151413131212111197
:102AF000100F0F0E0E0D0D0C0C0B0A0A0909080819
:102B0000070706060505040403030202010000008E
:102B1000005A4300005A43000096430000A0C00042
:102B20000000000000000053657474696E67732034
:102B300053746F72656400290A00206279746573AA
:102B40003B20637263200053657474696E67732061
:102B500053746F7265642028004669656C64206256
:102B600061636B6C6173685F64697374616E6365E4
:102B70005F6D6D206D69736D617463682E0A004628
:102B800069656C642066635F73657474696E6773EE
:102B9000206D69736D617463682E0A004669656C07
:102BA0006420706C616E6E65725F736B65775F66D3
:102BB0006163746F72206D69736D617463682E0A4E
:102BC000004669656C6420636F6F7264696E61743E
:102BD000655F73797374656D206D69736D6174637E
:102BE000682E0A004669656C64206D6F746F725FB1
:102BF00063757272656E745F73657474696E672055
:102C00006D69736D617463682E0A004669656C6452
:102C100020706C616E6E65725F6578747275646544
:102C2000725F616476616E63655F4B206D69736D81
:102C3000617463682E0A004669656C6420746D6374
:102C40005F737465616C74685F656E61626C656406
:102C5000206D69736D617463682E0A004669656C46
:102C60006420746D635F6879627269645F7468720E
:102C70006573686F6C64206D69736D617463682E31
:102C80000A004669656C6420746D635F73746570D7
:102C90007065725F63757272656E74206D69736DB5
:102CA000617463682E0A004669656C642070617205
:102CB0007365725F766F6C756D65747269635F655D
:102CC0006E61626C6564206D69736D617463682EFA
:102CD0000A004669656C6420667772657472616388
:102CE000745F73657474696E6773206D69736D6169
:102CF0007463682E0A004669656C64207265636FB0
:102D0000766572795F656E61626C6564206D69736A
:102D10006D617463682E0A004669656C6420636F98
:102D20006E74726F6C6C657246616E5F73657474FD
:102D3000696E6773206D69736D617463682E0A0034
:102D40004669656C64206C63645F636F6E74726166
:102D50007374206D69736D617463682E0A0046692F
:102D6000656C6420706F7765725F6D6F6E69746FEC
:102D7000725F666C616773206D69736D61746368FF
:102D80002E0A004669656C642062656450494420DF
:102D90006D69736D617463682E0A004669656C64C1
:102DA000206C70715F6C656E206D69736D6174630A
:102DB000682E0A004669656C6420686F74656E64ED
:102DC000504944206D69736D617463682E0A004632
:102DD00069656C642075695F6D6174657269616CA9
:102DE0005F707265736574206D69736D617463687B
:102DF0002E0A004669656C6420626C746F756368A6
:102E00005F6C6173745F7772697474656E5F6D6F08
:102E10006465206D69736D617463682E0A0046698C
:102E2000656C6420736572766F5F616E676C657345
:102E3000206D69736D617463682E0A004669656C64
:102E40006420706C616E6E65725F6C6576656C692E
:102E50006E675F616374697665206D69736D617417
:102E600063682E0A004669656C642070726F626543
:102E70005F6F6666736574206D69736D61746368F6
:102E80002E0A004669656C642072756E6F75745FFA
:102E900073656E736F725F656E61626C6564206DE1
:102EA00069736D617463682E0A004669656C6420FD
:102EB000686F6D655F6F6666736574206D69736DAD
:102EC000617463682E0A004669656C6420657374DA
:102ED000657070657273206D69736D617463682EBF
:102EE0000A00454550524F4D206461746173697A00
:102EF00065206572726F722E0A00290A00206279BD
:102F00007465733B2063726320002073746F726575
:102F1000642073657474696E677320726574726976
:102F200065766564202800202863616C63756C6198
:102F300074656429210A0020213D20004545505236
:102F40004F4D20435243206D69736D617463682057
:102F50002D202873746F7265642920002053697ACC
:102F6000653A2000496E6465783A20004669656CD0
:102F700064206261636B6C6173685F646973746120
:102F80006E63655F6D6D206D69736D617463682E2E
:102F90000A004669656C642066635F7365747469D2
:102FA0006E6773206D69736D617463682E0A0046E5
:102FB00069656C6420706C616E6E65725F736B65C1
:102FC000775F666163746F72206D69736D6174639E
:102FD000682E0A004669656C6420636F6F726469CD
:102FE0006E6174655F73797374656D206D69736D5F
:102FF000617463682E0A0044494749504F54532076
:103000004C6F616465640A0044494749504F54530A
:10301000204C6F6164696E670A004669656C6420C4
:103020006D6F746F725F63757272656E745F7365D6
:103030007474696E67206D69736D617463682E0ABC
:10304000004669656C6420706C616E6E65725F65C8
:10305000787472756465725F616476616E63655FD2
:103060004B206D69736D617463682E0A0046696553
:103070006C6420746D635F737465616C74685F6504
:103080006E61626C6564206D69736D617463682E36
:103090000A004669656C6420746D635F7367742011
:1030A0006D69736D617463682E0A004669656C64AE
:1030B00020746D635F6879627269645F74687265B9
:1030C00073686F6C64206D69736D617463682E0A38
:1030D000004669656C6420746D635F73746570701D
:1030E00065725F63757272656E74206D69736D6170
:1030F0007463682E0A004669656C6420706172739F
:1031000065725F766F6C756D65747269635F656E0D
:1031100061626C6564206D69736D617463682E0A09
:10312000004669656C6420667772657472616374C9
:103130005F73657474696E6773206D69736D617414
:1031400063682E0A004669656C64207265636F7659
:103150006572795F656E61626C6564206D69736D1F
:10316000617463682E0A004669656C6420636F6E43
:1031700074726F6C6C657246616E5F7365747469AE
:103180006E6773206D69736D617463682E0A004603
:1031900069656C64206C63645F636F6E74726173E5
:1031A00074206D69736D617463682E0A00466965E9
:1031B0006C6420706F7765725F6D6F6E69746F728B
:1031C0005F666C616773206D69736D617463682EEF
:1031D0000A004669656C64206C70715F6C656E20D6
:1031E0006D69736D617463682E0A004669656C646D
:1031F0002075695F6D6174657269616C5F7072657D
:10320000736574206D69736D617463682E0A00467E
:1032100069656C6420626C746F7563685F6C617360
:10322000745F7772697474656E5F6D6F6465206D2D
:1032300069736D617463682E0A004669656C642069
:10324000736572766F5F616E676C6573206D69730D
:103250006D617463682E0A004669656C6420706C49
:10326000616E6E65725F6C6576656C696E675F61D5
:103270006374697665206D69736D617463682E0A85
:10328000004669656C642070726F62655F6F666688
:10329000736574206D69736D617463682E0A0046EE
:1032A00069656C642072756E6F75745F73656E739B
:1032B0006F725F656E61626C6564206D69736D61CC
:1032C0007463682E0A004669656C6420686F6D65DA
:1032D0005F6F6666736574206D69736D6174636892
:1032E0002E0A004669656C642065737465707065AC
:1032F0007273206D69736D617463682E0A00204DCE
:1033000061726C696E3D563832290A00454550524B
:103310004F4D2076657273696F6E206D69736D61B4
:103320007463682028454550524F4D3D0045455037
:10333000524F4D20496E697469616C697A65640AFF
:103340000048617264636F646564204465666175FA
:103350006C742053657474696E6773204C6F61647C
:1033600065640A0000009643000096430000204177
:103370000000C8410000A0420000A0420000C84375
:103380003333B942DC050000DC05000064000000B6
:10339000102700003B200020204D36303320002035
:1033A000204D34313220530046696C616D656E7476
:1033B0002072756E6F75742073656E736F723A004C
:1033C0002055004C0046696C616D656E74206C6F11
:1033D00061642F756E6C6F6164206C656E677468D4
:1033E000733A0020440020490020204D3330312022
:1033F00050005049442073657474696E67733A00D5
:1034000020460020420020480020204D3134352045
:1034100053004D6174657269616C206865617475F3
:103420007020706172616D65746572733A0020205E
:103430004D323036205800486F6D65206F666673D8
:1034400065743A00204A0020530020204D32303568
:10345000204200416476616E6365643A20423C6DAF
:10346000696E5F7365676D656E745F74696D655FC6
:1034700075733E20533C6D696E5F6665656472616D
:1034800074653E20543C6D696E5F74726176656C44
:103490005F66656564726174653E204A3C6A756E5C
:1034A000635F6465763E0020540020520020204D6A
:1034B000323034205000416363656C657261746919
:1034C0006F6E2028756E6974732F7332293A2050FD
:1034D0003C7072696E745F616363656C3E20523C40
:1034E000726574726163745F616363656C3E2054DE
:1034F0003C74726176656C5F616363656C3E00204D
:10350000204D3230312058004D6178696D756D2045
:10351000416363656C65726174696F6E2028756EB6
:103520006974732F7332293A0020204D32303320D2
:1035300058004D6178696D756D20666565647261CE
:103540007465732028756E6974732F73293A00535C
:10355000746570732070657220756E69743A00200E
:10356000440020204D3230302053002044697361E4
:10357000626C65640A0046696C616D656E742073E7
:10358000657474696E67733A0020204D31343920B8
:1035900043203B20556E69747320696E2043656C2F
:1035A000736975730A0020286D6D29002020473249
:1035B00031202020203B20556E69747320696E20D5
:1035C0006D6D0024F4D43050C38E20C2A240178207
:1035D0008B7011127A910D816CD90AA861E108C72C
:1035E000586607615143061E4B5D05C145A7041A85
:1035F000411104093D9803713931034036DB0265FE
:10360000339102D4305402802E1D02632CEE0175DA
:103610002AC501B028A001102781018F2564012B44
:10362000244B01E0223401AC211F018D200D0180CB
:103630001FFC00841EED00971DDF00B81CD200E6C1
:103640001BC600201BBC00641AB200B219A8000AF5
:1036500019A0006A189900D117910040178B00B586
:1036600016840031167E00B31579003A157300C731
:10367000146F0058146A00EE136600881363002567
:10368000135E00C7125B006C12570015125400C184
:1036900011510070114F0021114B00D61049008DBF
:1036A0001047004610440002104200C00F40008046
:1036B0000F3E00420F3C00060F3B00CB0E3800933C
:1036C0000E37005C0E3500270E3400F30D3200C1BA
:1036D0000D3100900D3000600D2E00320D2D0005D3
:1036E0000D2C00D90C2B00AE0C2900850C29005C98
:1036F0000C2700350C27000E0C2600E80B2400C414
:103700000B2400A00B23007D0B23005A0B21003952
:103710000B2100180B2000F80A1F00D90A1E00BB5D
:103720000A1E009D0A1D00800A1D00630A1C004736
:103730000A1B002C0A1B00110A1A00F7091A00DDE7
:10374000091900C4091900AB091900920917007B77
:10375000091800630917004C0916003609160020E5
:103760000916000A091500F5081500E0081400CC38
:10377000081400B8081400A4081400900813007D71
:103780000812006B08130058081200460812003493
:10379000081100230811001208110001081100F09F
:1037A000071000E0071000D0071000C0071000B09D
:1037B000070F00A107100091070E0083070F007488
:1037C000070F0065070E0057070E0049070E003B64
:1037D000070D002E070E0020070D0013070D000631
:1037E000070D00F9060C00ED060D00E0060C00D4F4
:1037F000060C00C8060C00BC060C00B0060C00A4A9
:10380000060B0099060C008D060B0082060B007754
:10381000060B006C060B0061060A0057060B004CF5
:10382000060A0042060A0038060A002E060A00248C
:10383000060A001A060A001006090007060A00FD1B
:10384000050900F4050900EB050900E2050900D9A6
:10385000050900D0050900C7050900BE050900B526
:10386000050800AD050800A50509009C05080094A1
:103870000508008C050800840508007C0508007414
:103880000508006C050700650508005D0507005682
:103890000508004E050700470507004005080038E9
:1038A000050700310507002A050700230507001C4E
:1038B000050600160507000F0507000805060002AB
:1038C000050700FB040600F5040700EE040600E807
:1038D000040600E2040700DB040600D5040600CF5E
:1038E000040600C9040600C3040600BD040600B7B0
:1038F000040600B1040500AC040600A6040600A0FE
:103900000405009B04060095040500900406008A47
:1039100004050085040500800406007A040500758E
:10392000040500700405006B0405006604050061D1
:103930000405005C04050057040500520405004D11
:1039400004050048040500430405003E0404003A51
:1039500004050035040500300404002C040500278C
:10396000040400230405001E0404001A04040016C5
:10397000040500110404000D0404000904050004FA
:1039800004040000040400FC030400F8030400F431
:10399000030400F0030400EC030400E8030400E463
:1039A000030400E0030400DC030400D8030400D493
:1039B000030400D0030400CC030400C8030300C5C3
:1039C00003030024F404D9201BC40C5C0E9804C427
:1039D000095F0265077101F405F900FB04B30048B3
:1039E000048700C10369005803550003034500BE66
:1039F000023A008402310053022A00290225000401
:103A0000022000E4011C00C8011900AF0117009852
:103A100001140084011300710110006101100051B4
:103A2000010E0043010D0036010B002B010B00209D
:103A3000010B00150109000C01090003010800FB3E
:103A4000000800F3000800EB000700E4000600DEB9
:103A5000000600D8000600D2000600CC000500C712
:103A6000000500C2000500BD000400B9000400B557
:103A7000000400B1000400AD000400A9000400A58A
:103A8000000300A20003009F0004009B00030098B5
:103A90000003009500020093000300900003008DD6
:103AA0000002008B000300880002008600020084F0
:103AB000000300810002007F0002007D0002007B05
:103AC0000002007900020077000100760002007415
:103AD00000020072000100710002006F0002006D20
:103AE0000001006C0002006A00010069000200672A
:103AF0000001006600010065000100640002006230
:103B000000010061000100600001005F0002005D33
:103B10000001005C0001005B0001005A0001005937
:103B20000001005800010057000100560001005537
:103B30000001005400010053000000530001005236
:103B400000010051000100500001004F0001004E33
:103B50000000004E0001004D0001004C0001004B30
:103B60000000004B0001004A00010049000100482C
:103B70000000004800010047000100460000004628
:103B80000001004500000045000100440001004321
:103B9000000000430001004200000042000100411B
:103BA00000000041000100400001003F0000003F14
:103BB0000001003E0000003E0001003D0000003D0D
:103BC0000001003C0000003C0000003C0001003B04
:103BD0000000003B0001003A0000003A00010039FB
:103BE00000000039000100380000003800000038F3
:103BF00000010037000000370001003600000036E9
:103C000000000036000100350000003500000035DE
:103C100000010034000000340000003400010033D3
:103C200000000033000000330001003200000032C9
:103C300000000032000100310000003100000031BE
:103C40000001003000000030000000300001002FB3
:103C50000000002F0000002F0000002F0001002EA8
:103C60000000002E0000002E0001002D0000002D9D
:103C70000000002D0000002D0001002C0000002C91
:103C80000000002C0000002C0001002B0000002B85
:103C90000000002B0000002B0001002A0000002A79
:103CA0000000002A0000002A00010029000000296D
:103CB0000000002900000029000000290001002860
:103CC0000000002800000028000000280000002854
:103CD0000001002700000027000000270000002747
:103CE000000000270001002600000026000000263A
:103CF000000000260000002600010025000000252D
:103D0000000000250000002500000025000000251F
:103D10000001002400000024000000240000002412
:103D20000000002400010023000000230000002305
:103D300000000023000000230000002300000023F7
:103D400000010022000000220000002200000022EA
:103D500000000022000000220001002100000021DC
:103D600000000021000000210000002100000021CF
:103D700000000021000100200000002000000020C1
:103D800000000020000000200000002000000020B3
:103D9000000000200001001F0000001F0000001FA5
:103DA0000000001F0000001F0000001F0000001F97
:103DB0000001001E0000001E0000001E0000001E8A
:103DC000000000393000003325000087190000B0E2
:103DD0000F0000DB080000BD040000740200003F7B
:103DE00001000020436F756E7420583A0000426550
:103DF0006400453100626564002C2073797374653A
:103E00006D2073746F7070656421204865617465FE
:103E1000725F49443A200048656174696E672046C4
:103E200061696C65640048656174696E67206661EC
:103E3000696C656400544845524D414C2052554EC2
:103E40004157415900546865726D616C2052756E1E
:103E500061776179004572723A204D415854454D61
:103E600050004D415854454D502074726967676544
:103E7000726564004572723A204D494E54454D506A
:103E8000004D494E54454D50207472696767657204
:103E90006564000A0A0020205A5F4D494E3A00200E
:103EA00020595F4D494E3A002020585F4D494E3A07
:103EB00000202F002042403A0020403A0020573A8C
:103EC000002053004D3130362050000009121B24D1
:103ED0002D363F48415A536C657E7719100B023DD1
:103EE000342F265158434A757C676E323B20291681
:103EF0001F040D7A7368615E574C452B2239300FD1
:103F0000061D14636A7178474E555C646D767F4078
:103F100049525B2C253E3708011A137D746F665990
:103F2000504B42353C272E1118030A565F444D7200
:103F30007B60691E170C053A3328214F465D546B90
:103F4000627970070E151C232A31384148535A658F
:103F50006C777E09001B122D243F3658514A437C52
:103F6000756E671019020B343D262F737A616857FE
:103F70005E454C3B3229201F160D046A6378714E52
:103F8000475C55222B3039060F141D252C373E0176
:103F900008131A6D647F7649405B523C352E271812
:103FA000110A03747D666F5059424B171E050C337E
:103FB0003A21285F564D447B7269600E071C152A12
:103FC000233831464F545D626B70797C3C3E5E2BEA
:103FD0003D3F2F5B5D3B2C2A225C0001FFFFFFFF72
:103FE000FFFFFFFFFFFFFFFFFF0FFFFFFFFFFFFFD1
:103FF000FFFFFFFFFFFFFF1E0000000000000000AA
:10400000000007FFFF380000000000000000000073
:1040100003FFFF700000000000000000000001FF2F
:10402000FF600000000000000000000000FFFF60D3
:1040300000000000000000000000007FFFC0000042
:104040000000000000007800003FFFC00FC0FC002F
:10405000000000007818001FFFC03FE1FF000000D3
:104060000000783C000FFFC07FF3FF8000000000DD
:10407000783C0007FFC0FFFFFFC000000000783C55
:104080000003FFC1F87F87E0000000007800000116
:10409000FFC1F03F03E00000000078000000FFC116
:1040A000E01E01E01F0003E0783C03F07FC1E01E4A
:1040B00001E07FC00FF8783C07FC3FC1E01E01E142
:1040C000FFE01FFC783C0FFE1FC1E01E01E3FFF084
:1040D0003FFE783C1FFE0FC1E01E01E3F3F83F3EB8
:1040E000783C3F3F07C1E01E01E7E0FC7C1F783CC5
:1040F0003E1F07C1E01E01E7C07C7C0F783C3C0FEF
:1041000003C1E01E01E7807C780F783C3C0F03C1BF
:10411000E01E01E7803C7800783C3C0F03C1E01EC4
:1041200001E7803C7800783C3C0F03C1E01E01E7CA
:10413000803C7800783C3C0F03C1E01E01E7C03CA6
:104140007800783C3C0F03C1E01E01E3E03C7800BE
:104150007C3C3C0F03C1E01E01E3FF3FF8007FBC45
:104160003C0F03C1E01E01E1FF3FF8003FBFFC0F21
:1041700003C1E01E01E0FF3FF8001FBFFC0F03C1B9
:10418000E01E01E07F3FF8000FBFFC0F036000005E
:1041900000000000000000000000076000000000B8
:1041A0000000000000000000067000000000000099
:1041B0000000000000000E380000000000000000B9
:1041C000000000001C1E00000000000000000000B5
:1041D0000000780FFFFFFFFFFFFFFFFFFFFFFFFF64
:1041E000F001FFFFFFFFFFFFFFFFFFFFFFFF800169
:1041F000FFFFFFFFFFFFFFFFFFFFFFFFFF0FFFFFBF
:10420000FFFFFFFFFFFFFFFFFFFFFF1E000000009B
:1042100000000000000007FFFF3800000000000061
:104220000000000003FFFF7000000000000000001D
:10423000000001FFFF60000000000000000000001F
:1042400000FFFF6000000000000000000000007F91
:10425000FFC000000000000000007800003FFFC029
:104260000FC0FC00000000007818001FFFC03FE1F5
:10427000FF0000000000783C000FFFC07FF3FF80CC
:1042800000000000783C0007FFC0FFFFFFC00000F7
:104290000000783C0003FFC1F87F87E000000000C9
:1042A00078000001FFC1F03F03E00000000078004B
:1042B0000000FFC1E01E01E01F0003E0783C0000A9
:1042C0007FC1E01E01E07FC00FF8783C00003FC1D5
:1042D000E01E01E1FFE01FFC783C00001FC1E01E72
:1042E00001E3FFF03FFE783C00000FC1E01E01E358
:1042F000F3F83F3E783C000007C1E01E01E7E0FC18
:104300007C1F783C000007C1E01E01E7C07C7C0FE9
:10431000783C000003C1E01E01E7807C780F783C08
:10432000000003C1E01E01E7803C7800783C0000FB
:1043300003C1E01E01E7803C7800783C000003C127
:10434000E01E01E7803C7800783C000003C1E01EDD
:1043500001E7C03C7800783C000003C1E01E01E3A7
:10436000E03C78007C3C000003C1E01E01E3FF3F1D
:10437000F8007FBC000003C1E01E01E1FF3FF80030
:104380003FBF000003C1E01E01E0FF3FF8001FBF78
:10439000000003C1E01E01E07F3FF8000FBF0000F6
:1043A0000360000000000000000000000000076043
:1043B0000000000000000000000000000670000087
:1043C000000000000000000000000E3800000000A7
:1043D00000000000000000001C1E000000000000A3
:1043E000000000000000780FFFFFFFFFFFFFFFFF4E
:1043F000FFFFFFFFF001FFFFFFFFFFFFFFFFFFFFDA
:10440000FFFF8001FFFFFFFFFFFFFFFFFFFFFFFF39
:10441000FF0FFFFFFFFFFFFFFFFFFFFFFFFFFF1E7D
:104420000000000000000000000007FFFF3800004F
:10443000000000000000000003FFFF70000000000B
:1044400000000000000001FFFF600000000000000D
:104450000000000000FFFF600000000000000000FE
:104460000000007FFFC00000000000000000780096
:10447000003FFFC00FC0FC00000000007800001FDC
:10448000FFC03FE1FF00000000007800000FFFC008
:104490007FF3FF800000000078000007FFC0FFFFEF
:1044A000FFC00000000078000003FFC1F87F87E034
:1044B0000000000078000001FFC1F03F03E00000B1
:1044C000000078000000FFC1E01E01E01F0003E0D3
:1044D000780000007FC1E01E01E07FC00FF8780087
:1044E00000003FC1E01E01E1FFE01FFC780000007A
:1044F0001FC1E01E01E3FFF03FFE780000000FC186
:10450000E01E01E3F3F83F3E7800000007C1E01E23
:1045100001E7E0FC7C1F7800000007C1E01E01E716
:10452000C07C7C0F7800000003C1E01E01E7807CA6
:10453000780F7800000003C1E01E01E7803C78009E
:104540007800000003C1E01E01E7803C780078009D
:10455000000003C1E01E01E7803C78007800000005
:1045600003C1E01E01E7C03C78007800000003C1F1
:10457000E01E01E3E03C78007C00000003C1E01E87
:1045800001E3FF3FF8007F00000003C1E01E01E1EE
:10459000FF3FF8003F00000003C1E01E01E0FF3FC5
:1045A000F8001F00000003C1E01E01E07F3FF8009B
:1045B0000F00000003600000000000000000000089
:1045C0000000076000000000000000000000000084
:1045D00006700000000000000000000000000E381F
:1045E0000000000000000000000000001C1E000091
:1045F00000000000000000000000780FFFFFFFFF38
:10460000FFFFFFFFFFFFFFFFF001FFFFFFFFFFFFC7
:10461000FFFFFFFFFFFF8001FFFFFFFFFFFFFFFF27
:10462000FFFFFFFFFF0FFFFFFFFFFFFFFFFFFFFF8A
:10463000FFFFFF1E0000000000000000000007FF59
:10464000FF380000000000000000000003FFFF70C2
:104650000000000000000000000001FFFF600000FB
:10466000000000000000000000FFFF6000000000EC
:10467000000000000000007FFFC0000000000000FC
:1046800000000000003FFFC00FC0FC000000000061
:104690000000001FFFC03FE1FF000000000000001D
:1046A000000FFFC07FF3FF80000000000000000744
:1046B000FFC0FFFFFFC00000000000000003FFC1BB
:1046C000F87F87E00000000000000001FFC1F03F1C
:1046D00003E00000000000000000FFC1E01E01E058
:1046E0001F0003E0000000007FC1E01E01E07FC06A
:1046F0000FF8000000003FC1E01E01E1FFE01FFCD9
:10470000000000001FC1E01E01E3FFF03FFE0000BB
:1047100000000FC1E01E01E3F3F83F3E000000007F
:1047200007C1E01E01E7E0FC7C1F0000000007C19C
:10473000E01E01E7C07C7C0F0000000003C1E01E0A
:1047400001E7807C780F0000000003C1E01E01E754
:10475000803C78000000000003C1E01E01E7803CBF
:1047600078000000000003C1E01E01E7803C7800F3
:104770000000000003C1E01E01E7C03C780000001B
:10478000000003C1E01E01E3E03C780000000000EF
:1047900003C1E01E01E3FF3FF8000000000003C179
:1047A000E01E01E1FF3FF8000000000003C1E01E31
:1047B00001E0FF3FF8000000000003C1E01E01E03F
:1047C0007F3FF800000000000360000000000000D0
:1047D0000000000000000760000000000000000072
:1047E0000000000006700000000000000000000053
:1047F00000000E3800000000000000000000000073
:104800001C1E000000000000000000000000780FE7
:10481000FFFFFFFFFFFFFFFFFFFFFFFFF001FFFFB5
:10482000FFFFFFFFFFFFFFFFFFFF8001FFFFFFFF15
:10483000FFFFFFFFFFFFFFFFFF0FFFFFFFFFFFFF78
:10484000FFFFFFFFFFFFFF1E000000000000000051
:10485000000007FFFF38000000000000000000001B
:1048600003FFFF700000000000000000000001FFD7
:10487000FF600000000000000000000000FFFF607B
:1048800000000000000000000000007FFFC00000EA
:104890000000000000000000003FFFC00FC0FC004F
:1048A000000000000000001FFFC03FE1FF0000000B
:1048B00000000000000FFFC07FF3FF800000000039
:1048C00000000007FFC0FFFFFFC000000000000065
:1048D0000003FFC1F87F87E0000000000000000136
:1048E000FFC1F03F03E00000000000000000FFC136
:1048F000E01E01E01F000000000000007FC1E01E7C
:1049000001E07FC00000000000003FC1E01E01E1A7
:10491000FFE00000000000001FC1E01E01E3FFF007
:104920000000000000000FC1E01E01E3F3F80000EA
:104930000000000007C1E01E01E7E0FC00000000ED
:10494000000007C1E01E01E7C07C0000000000007D
:1049500003C1E01E01E7807C00000000000003C1ED
:10496000E01E01E7803C00000000000003C1E01EE3
:1049700001E7803C00000000000003C1E01E01E7E9
:10498000803C00000000000003C1E01E01E7C03CC5
:1049900000000000000003C1E01E01E3E03C000055
:1049A0000000000003C1E01E01E3FF3F0000000023
:1049B000000003C1E01E01E1FF3F00000000000015
:1049C00003C1E01E01E0FF3F00000000000003C142
:1049D000E01E01E07F3F00000000000003600000D7
:1049E0000000000000000000000007600000000060
:1049F0000000000000000000067000000000000041
:104A00000000000000000E38000000000000000060
:104A1000000000001C1E000000000000000000005C
:104A20000000780FFFFFFFFFFFFFFFFFFFFFFFFF0B
:104A3000F001FFFFFFFFFFFFFFFFFFFFFFFF800110
:104A4000FFFFFFFFFFFFFFFFFFFFFFFFFF0FFFFF66
:104A5000FFFFFFFFFFFFFFFFFFFFFF1E0000000043
:104A600000000000000007FFFF3800000000000009
:104A70000000000003FFFF700000000000000000C5
:104A8000000001FFFF6000000000000000000000C7
:104A900000FFFF6000000000000000000000007F39
:104AA000FFC000000000000000000000003FFFC049
:104AB0000FC0FC00000000000000001FFFC03FE12D
:104AC000FF00000000000000000FFFC07FF3FF8028
:104AD0000000000000000007FFC0FFFFFFC0000053
:104AE000000000000003FFC1F87F87E00000000025
:104AF00000000001FFC1F03F03E0000000000000E3
:104B00000000FFC1E01E01E0000000000000000006
:104B10007FC1E01E01E000000000000000003FC176
:104B2000E01E01E000000000000000001FC1E01EC8
:104B300001E000000000000000000FC1E01E01E0E5
:104B4000000000000000000007C1E01E01E00000BE
:104B500000000000000007C1E01E01E000000000AE
:104B60000000000003C1E01E01E0000000000000A2
:104B7000000003C1E01E01E0000000000000000092
:104B800003C1E01E01E0000000000000000003C1BE
:104B9000E01E01E0000000000000000003C1E01E74
:104BA00001E0000000000000000003C1E01E01E081
:104BB000000000000000000003C1E01E01E0000052
:104BC00000000000000003C1E01E01E00000000042
:104BD0000000000003C1E01E01E000000000000032
:104BE000000003C1E01E01E0000000000000000022
:104BF00003600000000000000000000000000760EB
:104C0000000000000000000000000000067000002E
:104C1000000000000000000000000E38000000004E
:104C200000000000000000001C1E0000000000004A
:104C3000000000000000780FFFFFFFFFFFFFFFFFF5
:104C4000FFFFFFFFF001FFFFFFFFFFFFFFFFFFFF81
:104C5000FFFF8001FFFFFFFFFFFFFFFFFFFFFFFFE1
:104C6000FF0FFFFFFFFFFFFFFFFFFFFFFFFFFF1E25
:104C70000000000000000000000007FFFF380000F7
:104C8000000000000000000003FFFF7000000000B3
:104C900000000000000001FFFF60000000000000B5
:104CA0000000000000FFFF600000000000000000A6
:104CB0000000007FFFC000000000000000000000B6
:104CC000003FFFC000000000000000000000001FC7
:104CD000FFC000000000000000000000000FFFC047
:104CE000000000000000000000000007FFC00000FE
:104CF00000000000000000000003FFC000000000F2
:104D00000000000000000001FFC0000000000000E3
:104D1000000000000000FFC00000000000000000D4
:104D2000000000007FC00000000000000000000044
:104D300000003FC000000000000000000000000074
:104D40001FC00000000000000000000000000FC0B5
:104D500000000000000000000000000007C000008C
:104D60000000000000000000000007C0000000007C
:104D7000000000000000000003C000000000000070
:104D800000000000000003C0000000000000000060
:104D90000000000003C00000000000000000000050
:104DA000000003C000000000000000000000000040
:104DB00003C000000000000000000000000003C06D
:104DC00000000000000000000000000003C0000020
:104DD0000000000000000000000003C00000000010
:104DE000000000000000000003C000000000000000
:104DF00000000000000003C00000000000000000F0
:104E0000000000000360000000000000000000003F
:104E1000000007600000000000000000000000002B
:104E200006700000000000000000000000000E38C6
:104E30000000000000000000000000001C1E000038
:104E400000000000000000000000780FFFFFFFFFDF
:104E5000FFFFFFFFFFFFFFFFF001FFFFFFFFFFFF6F
:104E6000FFFFFFFFFFFF805045544700504C4100BB
:104E70005072696E74205061757365640043616E91
:104E80006E6F74206F70656E207375626469722036
:104E900000534420496E6974204661696C00534494
:104EA0002063617264206F6B0A006F70656E526FD1
:104EB0006F74206661696C65640A00766F6C756D4D
:104EC000652E696E6974206661696C65640A004EBE
:104ED0006F20534420636172640A004D3234004DE8
:104EE0003233202573002E0A006F70656E206661D4
:104EF000696C65642C2046696C653A200046696CD3
:104F0000652073656C65637465640A002053697A73
:104F1000653A200046696C65206F70656E65643A7D
:104F20002000454E4420535542524F5554494E455A
:104F30000A002220706F73002220706172656E7407
:104F40003A2200535542524F5554494E4520434151
:104F50004C4C207461726765743A22005375626329
:104F6000616C6C204F766572666C6F770045786374
:104F70006565646564206D617820535542524F55D4
:104F800054494E452064657074683A310A0057727E
:104F90006974696E6720746F2066696C653A2000D9
:104FA000667265736800646F696E67002066696C7D
:104FB000653A20004E6F77200002000000000000DC
:104FC00000000000000000000000000000000000E1
:104FD0000000000000000000000000047F03E0006B
:104FE00001F8000F00007F8003F0000C7F03F00049
:104FF00003F8001F80007FC007F0000C7F03F8005B
:1050000007F8003F80007FC00FF0001C7F03FC000A
:105010000FF8003FC0003FE01FF0001C7F03FE00C0
:105020001FF8003FC0001FF03FF0003C7F01FF0071
:105030003FF8001FE0000FF87FF0003C7F00FF808A
:105040007FF8000FE00007F87FE0007C7F007FC062
:10505000FFF8000FF00007FC3FC0007C7F003FE13D
:10506000FFF80007F80003FE1F8000FC7F001FFF11
:10507000FFF80187F80001FF0F0000FC7F030FFF1E
:10508000FFF801C3FC0000FF860001FC7F0387FFDF
:10509000F3F803E3FC00007F800001FC7F03C3FF03
:1050A000E3F803E1FE00007FC00003FC7F03E1FFA3
:1050B000C3F807F1FE00003FE00003FC7FE3F0FFD0
:1050C00083F807F0FF00001FF00007FC7FE3F87F84
:1050D00003F80FF07F00000FF00007FC7FE3F81EDD
:1050E00003F80FE07F80000FF8000FFC7FE3F8006B
:1050F00003F81FE3FF800387FC000FFC7FE3F80049
:1051000003F81FC3FFC007C3FE001FFC7FE3F800C6
:1051100003F83FC7FFC00FE1FE0000007F03F80067
:1051200003F83F87FFE01FF1FF0000007F03F80056
:1051300003F87F8FFFE03FF0FF8000007F03F8005F
:1051400003F87F0FFFF07FF07FC000007F03F800BF
:1051500003F8FF0007F0FFE03FC000007F03F80006
:1051600003F8FE0007F8FFC03FE000007F03F800EF
:1051700003F9FE0003F8FF801FF000007F03F80032
:1051800003F9FC0003FCFF000FF000007F03F800B0
:1051900003FBFC0001FCFE000FF00000000000001B
:1051A00000000000000000000000000000000000FF
:1051B0000000000000000000000068747470733A82
:1051C0002F2F6769742E696F2F666A587A720034C0
:1051D0004D415820322E302E3732303452454C2E2D
:1051E00000534C3F4A2B4817460344EF41DB3F70C6
:1051F000012C0190012701B0012201C0011D01F025
:105200000118011002130130020E01600209019021
:10521000020401C002FF000003FA004003F5008011
:1052200003F000D003EB002004E6007004E100E08E
:1052300004DC004005D700C005D2004006CD00D0F8
:1052400006C8008007C3003008BE00F008B900C0DF
:1052500009B400B00AAF00B00BAA00D00CA5000042
:105260000EA000500F9B00C010960050129100003D
:10527000148C00C0158700B0178200B0197D00D0D3
:105280001B7800001E730040206E0090226900F021
:1052900024640040275F0090295A00E02B5500103D
:1052A0002E500020304B0010324600E03341009079
:1052B000353C001037370070383200A0392D00B06F
:1052C0003A2800A03B2300603C1E00103D190090CE
:1052D0003D1400103E0F00703E0A00C03E05000065
:1052E0003F0000403FFBFF803FF6FFC03FF1FF2043
:1052F00020506C616E6E65724275666665724279A9
:105300007465733A20002046726565204D656D6FA7
:1053100072793A2000436F6D70696C65643A204D74
:10532000617220313120323032310A00204C6173F9
:105330007420557064617465643A20323032302DC7
:1053400031302D3135207C20417574686F723A20E0
:105350002847336D316E315333727633722C2041CE
:105360006E79637562696320344D4158290A0034AF
:105370004D415820322E302E3732303452454C2E8B
:105380000A004D61726C696E0020536F667477611C
:1053900072652052657365740A00205761746368F2
:1053A000646F672052657365740A002042726F77DC
:1053B0006E206F75742052657365740A00204578FD
:1053C0007465726E616C2052657365740A00506F6B
:1053D00077657255700A0073746172740A006175A2
:1053E000746F25632E67004732385859004D3130AD
:1053F0003031006572726F722077726974696E67FE
:1054000020746F2066696C650A00446F6E652073B6
:105410006176696E672066696C652E0A004D3239C7
:1054200000456E6473746F707300255320256320EC
:10543000256320256320256300205A3A0020593A2D
:105440000020583A00656E6473746F707320686949
:10545000743A200000002100240027002A002D00BB
:105460003000330001010000040107010A010000BF
:105470002200250028002B002E00310034000201FC
:105480000000050108010B01000020002300260098
:1054900029002C002F00320000010000030106014A
:1054A00009010505050507050808080802020202AA
:1054B0000A0A0808040404040101010101010101B0
:1054C0000303030303030303040707070C0C0C0C7B
:1054D0000C0C0C0C02020202060606060606060664
:1054E0000B0B0B0B0B0B0B0B0102102020080810F1
:1054F0002040102040800201020108040201010244
:10550000040810204080804020100804020180041C
:105510000201804020100804020108040201010277
:105520000408102040800102040810204080000080
:105530000A0B02090C0D0E0807030401000000000D
:10554000000000000000000000000000000000005B
:105550000000000000000000000012111000000018
:10556000000000000000000000000000000000003B
:1055700000000000004D6F76652025736D6D004DB5
:105580006F766520302E316D6D004D6F7665203160
:105590006D6D004D6F76652031306D6D004D6F760D
:1055A000652041786973004578747275646572008E
:1055B0004D6F7665205A004D6F76652059004D6F0E
:1055C00076652058006C4E674E4368616E676520B3
:1055D00046696C616D656E7400556E6C6F61642018
:1055E00046696C616D656E74004C6F61642046693C
:1055F0006C616D656E7400507265686561742043FE
:105600007573746F6D005072656865617420240055
:105610004261636B005072696E742066726F6D2018
:105620004D6564696100496E736572742066696CCA
:10563000616D656E7420616E642070726573732095
:10564000627574746F6E0A00416E79637562696386
:1056500020344D41582052656164792E00507269A2
:105660006E74696E672E2E2E00220A00556E6B6EC8
:105670006F776E20636F6D6D616E643A202200203B
:105680004500205A00205900204D3932205800DBB7
:105690000FC93F45BCDA3F8FB30240FCF0274056AC
:1056A000946140FE4B9B4084A5D840E023184134D0
:1056B0006A5641E859974164DBD5416E271742B4D9
:1056C000B75542CE1A9742C8AED542B5885A43D490
:1056D0000684BFA65FA7BF7443E0BF10B11AC01C09
:1056E0002C58C0E8F697C0B849D6C04E4E17C12412
:1056F000D355C1802497C1A0B5D5C1121A17C24491
:10570000AE55C2781797C26CACD5C267885AC32011
:10571000746F6F206C6F6E67206578747275736933
:105720006F6E2070726576656E7465640A00206322
:105730006F6C6420657874727573696F6E20707217
:105740006576656E7465640A00000021104220636E
:10575000308440A550C660E770088129914AA16B4A
:10576000B18CC1ADD1CEE1EFF131121002733252E2
:1057700022B5529442F772D662399318837BB35A9A
:10578000A3BDD39CC3FFF3DEE362244334200401B2
:1057900014E664C774A44485546AA54BB5288509EA
:1057A00095EEE5CFF5ACC58DD55336722611163082
:1057B00006D776F6669556B4465BB77AA71997383A
:1057C00087DFF7FEE79DD7BCC7C448E5588668A7C2
:1057D000784008611802282338CCC9EDD98EE9AF8A
:1057E000F9488969990AA92BB9F55AD44AB77A9622
:1057F0006A711A500A333A122AFDDBDCCBBFFB9EDA
:10580000EB799B588B3BBB1AABA66C877CE44CC5F1
:105810005C222C033C600C411CAEED8FFDECCDCD29
:10582000DD2AAD0BBD688D499D977EB66ED55EF4C1
:105830004E133E322E511E700E9FFFBEEFDDDFFC79
:10584000CF1BBF3AAF599F788F8891A981CAB1EB1E
:10585000A10CD12DC14EF16FE18010A100C230E347
:10586000200450254046706760B9839893FBA3DA03
:10587000B33DC31CD37FE35EF3B1029012F322D297
:10588000323542145277625672EAB5CBA5A8958993
:10589000856EF54FE52CD50DC5E234C324A01481E7
:1058A000046674476424540544DBA7FAB79987B8A3
:1058B000975FE77EF71DC73CD7D326F2369106B037
:1058C0001657667676154634564CD96DC90EF92FA3
:1058D000E9C899E9898AB9ABA94458654806782787
:1058E00068C018E1088238A3287DCB5CDB3FEB1E43
:1058F000FBF98BD89BBBAB9ABB754A545A376A16D7
:105900007AF10AD01AB32A923A2EFD0FED6CDD4DD2
:10591000CDAABD8BADE89DC98D267C076C645C4526
:105920004CA23C832CE01CC10C1FEF3EFF5DCF7CE2
:10593000DF9BAFBABFD98FF89F176E367E554E7476
:105940005E932EB23ED10EF01E20453A00205A3A08
:105950000020593A00583A0010012A0211241FBEB3
:10596000CFEFD1E2DEBFCDBF00E00CBF13E0A0E07F
:10597000B2E0EAE4FBE902E00BBF02C007900D923F
:10598000AC34B107D9F726E1ACE4B3E001C01D9215
:10599000A731B207E1F71CE2CDEADCE200E006C085
:1059A00021970109802FFE010F94E949CC3AD107D4
:1059B00080E00807A9F70F9450370D94934D0C948D
:1059C00000001092EF0485E08093E6030895CF93E2
:1059D000DF93EC01CB01BA010F94074320E030E0E4
:1059E000A9010F94044A0F94774B79836883DF9160
:1059F000CF910895CF93DF93EC01CB01BA010F94BF
:105A000007432DEC3CEC4CEC5DE30F94FE4A20E0A8
:105A100030E0A9010F94044A0F94774B798368838F
:105A2000DF91CF910895CF93DF93EC01CB01BA01C1
:105A30000F94074329EC38EC48EC5EE30F94FE4AE0
:105A400020E030E040E05FE30F94044A0F94774B8E
:105A50006883DF91CF910895E0912E0986E0E802F6
:105A6000F0011124E65CFA4F8091F40490E09583F4
:105A700084830895CF93DF93EC01CB01BA010F9497
:105A8000074320E030E040E251E40F94FE4A20E07A
:105A900030E0A9010F94044A688379838A839B8349
:105AA000DF91CF910895CF93DF93EC01CB01BA0141
:105AB0000F94074320E030E040E251E40F94FE4AA7
:105AC00020E030E0A9010F94044A688379838A8337
:105AD0009B83DF91CF910895CF93DF93EC01CB01AE
