:100000000C94532C0C94842C0C94842C0C94842CE1
:100010000C94842C0C94842C0C94842C0C94842CA0
:100020000C94842C0C94842C0C94842C0C94842C90
:100030000C94842C0C9468EB0C94842C0C94842CDD
:100040000C94842C0C9474B10C94842C0C94842CFB
:100050000C94842C0C94842C0C94919D0D949429D4
:100060000C94842C0C943C4C0C94324C0C94842CAA
:100070000C94842C0C94842C0C94842C0C94842C40
:100080000C9438450C94842C0C94842C0C94842C63
:100090000C94842C0C94842C0C94842C0C94842C20
:1000A0000C94842C0C94842C0C940A450C94842C71
:1000B0000C94842C0C94842C0C94842C0C94DC4490
:1000C0000C94842C0C94842C0C94842C0C94842CF0
:1000D0000C94842C0C94842C0C94842C0C94842CE0
:1000E0000C94842C7D59EC572558B959255825581E
:1000F0002558255825582558255825582558255818
:100100002558255825582558255825582558255807
:1001100025582558255825582558255825582558F7
:10012000B359255825582558255825582558255858
:1001300025588C592558255825582558255825586F
:100140002558255825582558D0592258A48CC68C96
:10015000E68C0B8D308DE78E558D788D9B8DC08D07
:10016000E58D0A8E2F8E548EE78E798E9E8EC38EED
:10017000569059905D90609063908D9067906A90D2
:100180006E907190749078907B907E908D9082901C
:1001900085908890B6F1B9F1A8F1ACF1B2F1F0F127
:1001A000BDF1C1F1C7F1CBF1CFF1D5F1D9F1DDF15D
:1001B000F0F1E3F1E7F1EBF105F40AF40FF419F4CF
:1001C00023F49CF42DF435F43DF447F451F45BF43E
:1001D0006AF474F49CF47EF488F492F4D201D601AB
:1001E000BA0236017002380196016001C80232027B
:1001F00024023401084AD73B3BCE016E84BCBFFDCC
:10020000C12F3D6C74319ABD56833DDA3D00C77FE6
:1002100011BED9E4BB4C3E916BAAAABE000000807F
:100220003F05A84CCDB2D44EB93836A9020C50B90E
:10023000918688083CA6AAAA2ABE000000803F003A
:100240000C94454D0C9482900C94788D0C94084E2F
:100250000C9463900C9478900C94B6F10C94037900
:100260000C940E500C94DED50D94C1040D94D6045C
:100270000D94B5040C94714D0C947B900C946BD838
:100280000D94AB000C9419F40C9425580C9493D352
:100290000C94B64D0C94D0590C94F0F10C942BDBCB
:1002A0000C94CD520D94A4010C94ACDC0C94A65D7E
:1002B0000C949CF40C94194D0C940FB10C9484FF85
:1002C0000D94C4040C9463500C947C570C9423F448
:1002D0000C94B9590C949D4D0C9467D30C94BAE5C9
:1002E0000D94B0010C9470D80C94C68C0C94667A62
:1002F0000C94C7F10C9460900C9426500C94A85D5B
:100300000C94B3590D94AC010C94B34C0C94F4D4EC
:100310000C940AF40C9485520C94CE740C946E9048
:100320000C94A8F10C94E58D0C94CBF10D94B804C9
:100330000C94558D0C945D900C947D590C942CE785
:100340000C9475D80C945BF40C94E7EA0C94385434
:100350000C940A570C949CD30C948FD80C9449524B
:100360000D94DD320C9474900C94FF780C94075724
:100370000C947EF40C94A8FB0C940B8D0C94EBF174
:100380000C9495D80C949BD80C94E7F10C948FEABC
:100390000C94B2F10C94FCD40C94205A0C946F730E
:1003A0000C94E3F10D94D3040C94F64D0D94AC042D
:1003B0000C94A45D0C94DDD80C948D900C94C162C7
:1003C0000C94ED740C9487DA0C9496750C9474F478
:1003D0000C94E44E0C94C6E50C94F8510C94569091
:1003E0000C9479570C9465FF0C94EE780C94A25DF4
:1003F0000C9479DD0C9451F40C94D9F10C942F8E5B
:100400000C94548E0C9466D80C94A05D0C9491DAE4
:100410000C9438500C94EC570D9494010C94325079
:100420000C94834C0C9457F70C9488F40C94E4D6F9
:100430000D94B4010D9490010C9488900C9420506C
:100440000D94A8010C94E74C0D94BE040C94C3E5E4
:100450000C949A4C0C94E78E0C9475750C94F2D411
:100460000C94ACF10D94D1040C940A8E0C94584D5C
:100470000C94C9E50C94C1F10C945A5F0C944D4E48
:100480000C9408500C9433DB0D948C010C94599D02
:100490000C942C500C9471900D941D000D94BC3153
:1004A0000C9424510C9444500C948CDA0C94859048
:1004B0000C9467900C9496DA0C94C38E0C943E5076
:1004C0000C943DF40C94514E0C94308D0C94C08DD2
:1004D0000C94DDF10C94B14C0C948A4D0C94CE4CE0
:1004E0000D94B2040C94F6D40C94FD780C942DF475
:1004F0000C9445760C94B9EA0C94B9F10C94D7DAC3
:100500000C948AD30C940C750C943A520C949E8ED5
:100510000C94004D0C949B8D0C94C0E50C945B776F
:100520000C9405F40C9414500C9435F40C946A90CB
:100530000C9483EA0C948C590D94F0030C940FF4F2
:100540000D9498010C94CFF10C94B6740C9492F421
:100550000D94A0010C94A1D80C947E900C9484620C
:100560000C9478570C94BDE50C94D5F10C94E68C62
:100570000C9447F40D94AF040C941A500C94144E40
:100580000D949C010C9410EB0C94798E0C946AF4ED
:100590000D94BB040C94324D0C94CFE40C9422586F
:1005A0000C9473730C948FFB0C94BDF10C94017933
:1005B0000C9459900C94A48C4E414E494E49545978
:1005C000494E46CDCCCC3D0AD7233C17B7D138771E
:1005D000CC2B329595E6241FB14F0A000020410034
:1005E00000C84200401C4620BCBE4CCA1B0E5AAE7E
:1005F000C59D7400407A10F35A00A0724E1809008D
:1006000010A5D4E80000E87648170000E40B540277
:100610000000CA9A3B000000E1F5050000809698B2
:1006200000000040420F000000A086010000001002
:100630002700000000E80300000000640000000044
:10064000000A00000000000100000000002C76D825
:1006500088DC674F0823DFC1DFAE59E1B1B796E50B
:10066000E3E453C63AE651997696E8E6C28426EB6F
:10067000898C9B62ED407C6FFCEFBC9C9F40F2BA82
:10068000A56FA5F490055A2AF75C936B6CF9676D1A
:10069000C11BFCE0E40D47FEF520E6B500D0ED906F
:1006A0002E0300943577050080841E080000204E3C
:1006B0000A000000C80C333333330F986E128311D5
:1006C00041EF8D2114893BE65516CFFEE6DB18D1AC
:1006D000844B381BF77C1D901DA4BBE4242032847E
:1006E000725E228100C9F124ECA1E53D27434F4D04
:1006F0004D554E49434154494F4E0044525952556D
:100700004E004552524F525300494E464F0045430A
:10071000484F0020746F6F206C6F6E67206578748F
:10072000727573696F6E2070726576656E7465643C
:100730000A0020636F6C6420657874727573696F4A
:100740006E2070726576656E7465640A00536C6520
:1007500065702E2E2E00486F6D65205859206669F1
:100760007273740A00486F6D65205859204669728B
:10077000737400436C69636B20746F2052657375EA
:100780006D652E2E2E004E6F204D6F76652E004526
:100790006E642066696C65206C6973740A0042653A
:1007A00067696E2066696C65206C6973740A00283D
:1007B0006E6F2066696C65290043757272656E7490
:1007C0002066696C653A20005344207072696E742B
:1007D000696E67206279746520004E6F74205344FF
:1007E000207072696E74696E670A002E0A00446593
:1007F0006C6574696F6E206661696C65642C204657
:10080000696C653A200046696C652064656C6574A6
:1008100065643A0043616E6E6F74206F70656E2080
:1008200073756264697220002569730025696D2003
:10083000256973002569682025696D202569730085
:10084000256964202569682025696D202569730064
:1008500025697920256964202569682025696D202E
:10086000256973005072696E742074696D653A2051
:1008700000496E76616C69642050696E204D6F642A
:10088000650A00436F6F6C696E672E2E2E004865F7
:100890006174696E672E2E2E0045202553006F6B04
:1008A000006F6666000E0709070207FB06ED0644A7
:1008B000454255473A004D313132205368757464D2
:1008C0006F776E004D313133205300416E7963757F
:1008D00062696320344D4158204F46462E004348FC
:1008E000414D4245525F54454D5045524154555239
:1008F00045004D4F54494F4E5F4D4F4445530054B2
:100900004845524D414C5F50524F54454354494F16
:100910004E004155544F5245504F52545F53445F1F
:100920005354415455530050524F4D50545F5355FA
:1009300050504F525400454D455247454E43595F24
:1009400050415253455200434153455F4C4947483B
:10095000545F4252494748544E45535300544F4701
:10096000474C455F4C494748545300534F465457F2
:100970004152455F504F574552004255494C445FE4
:1009800050455243454E54004C4556454C494E4700
:100990005F44415441005A5F50524F424500415517
:1009A000544F4C4556454C005052494E545F4A4FA7
:1009B000420050524F4752455353004155544F52F5
:1009C00045504F52545F54454D5000564F4C554D75
:1009D000455452494300454550524F4D0042494EFF
:1009E0004152595F46494C455F5452414E5346452A
:1009F000520053455249414C5F584F4E5F584F4645
:100A000046004649524D574152455F4E414D453A89
:100A10004D61726C696E20344D415820322E302E5B
:100A20003533303352656C2E20284769744875621F
:100A30002920534F555243455F434F44455F55521C
:100A40004C3A68747470733A2F2F676974687562D2
:100A50002E636F6D2F47656D696E6953657276659C
:100A6000722F4D61726C696E2050524F544F434F3C
:100A70004C5F56455253494F4E3A312E30204D412E
:100A80004348494E455F545950453A416E79637524
:100A900062696320344D41582045585452554445AD
:100AA000525F434F554E543A3120555549443A36DA
:100AB000616131343764322D666664352D313165BC
:100AC000392D386437312D33363262396531353559
:100AD0003636370A002F2F20004D31343520533C55
:100AE000696E6465783E206F7574206F6620726150
:100AF0006E67652028302D31290A0020520041639D
:100B000063656C65726174696F6E3A2050003F4A8C
:100B1000206F7574206F662072616E6765202830C3
:100B20002E303120746F20302E33290A0046523A7D
:100B30000020466C6F773A200050726F74656374C2
:100B400065642050696E0A00496E76616C696420A4
:100B500065787472756465720A0020643A002069D1
:100B60003A0020703A0064697300656E0043290AF8
:100B70000061626C656420286D696E2074656D701B
:100B80002000436F6C64206578747275646573200F
:100B900061726520004F4646004F4E0046696C6109
:100BA0006D656E742072756E6F757420004F666689
:100BB00073657473204170706C696564004572726E
:100BC0003A20546F6F206661722100546F6F206667
:100BD00061722066726F6D207265666572656E6304
:100BE0006520706F696E740A00454550524F4D2064
:100BF0004F4B0A00446F6E65207072696E74696EA7
:100C0000672066696C650A004D3737004D33310047
:100C1000496E76616C69642065787472756465727A
:100C20000A004572726F722077726974696E67206C
:100C3000746F20454550524F4D210A003637260328
:100C40003C3D380E2E303E121A1C1808440A2C4324
:100C50000809072C070001627573793A20706175E5
:100C600073656420666F7220696E7075740A006225
:100C70007573793A2070617573656420666F7220B0
:100C8000757365720A00627573793A2070726F63CA
:100C9000657373696E670A004D3630300053544FE8
:100CA000505045442E20005072696E746572207356
:100CB000746F707065642064756520746F20657250
:100CC000726F72732E204669782074686520657291
:100CD000726F7220616E6420757365204D393939E9
:100CE00020746F20726573746172742E20285465AD
:100CF0006D706572617475726520697320726573B9
:100D000065742E2053657420697420616674657261
:100D10002072657374617274696E67290A004E6F80
:100D200020436865636B73756D2077697468206C08
:100D3000696E65206E756D6265722C204C617374EE
:100D4000204C696E653A20004E6F20436865636BE6
:100D500073756D2077697468206C696E65206E7597
:100D60006D6265722C204C617374204C696E653A1B
:100D70002000636865636B73756D206D69736D61C9
:100D80007463682C204C617374204C696E653A2042
:100D9000004C696E65204E756D6265722069732026
:100DA0006E6F74204C617374204C696E65204E75B3
:100DB0006D6265722B312C204C617374204C696E0E
:100DC000653A20004D313130005344207265616432
:100DD000206572726F720A002121204B494C4C2011
:100DE00063617573656420627920746F6F206D751F
:100DF000636820696E6163746976652074696D65E6
:100E0000202D2063757272656E7420636F6D6D6145
:100E10006E643A20004C6F6164206D6D00556E6CFD
:100E20006F6164206D6D0046696C2E204469612EEF
:100E3000004520696E206D6DC2B3004572723A2084
:100E40007574663820666F6E74206E6F7420696EDC
:100E5000697469616C697A65642E002568753A2544
:100E6000303268750025303268753A253032687541
:100E700000256875642025303268753A253032685F
:100E80007500000C0D00FE07022603BC017FFE0862
:100E9000FE08FE05080806000040F0C8888898781B
:100EA00010050808060000C0F88888888888F805BA
:100EB00005050600012030F830200508080600006E
:100EC0002070F820202020E00509090600FF20708E
:100ED000A8A8B888887020050606060001E08CEAFC
:100EE0008C8A0A0509090600FFF8A888888888887E
:100EF000A8F8050A0A0600FE205050505088A8A8FD
:100F0000887003030306000340A040FFFFFFFFFFBC
:100F1000FFFFFFFFFFFFFFFFFFFFFFFFFFFFFFFFE1
:100F2000FF0000000605FF01070706020080808021
:100F300080800080030303060105A0A0A00506062B
:100F400006000050F85050F8500509090600FF202F
:100F500070A8A07028A87020050707060000C8C860
:100F6000102040989805070706000040A0A040A860
:100F700090680103030602058080800309090601C9
:100F8000FF2040408080804040200309090601FF87
:100F900080404020202040408005070706000020B8
:100FA000A8702070A8200505050600012020F82063
:100FB000200203030601FFC0408005010106000373
:100FC000F8020202060100C0C0050707060000087B
:100FD000101020404080050707060000708898A880
:100FE000C8887003070706010040C040404040E049
:100FF000050707060000708808102040F80507075D
:10100000060000F808103008887005070706000081
:1010100010305090F81010050707060000F880F017
:1010200008088870050707060000304080F08888AF
:1010300070050707060000F808101020202005079B
:10104000070600007088887088887005070706000A
:101050000070888878081060020505060100C0C08D
:1010600000C0C00206060601FFC0C000C0408003E9
:10107000050506010120408040200503030600020B
:10108000F800F803050506010180402040800507AF
:1010900007060000708810202000200507070600C2
:1010A000007088B8A8B8807005070706000070882F
:1010B00088F8888888050707060000F048487048C7
:1010C00048F005070706000070888080808870055A
:1010D0000707060000F04848484848F0050707069B
:1010E0000000F88080F08080F8050707060000F80F
:1010F0008080F0808080050707060000708880806F
:10110000988870050707060000888888F88888880E
:10111000030707060100E04040404040E0050707A4
:101120000600003810101010906005070706000038
:101130008890A0C0A09088050707060000808080E6
:10114000808080F805070706000088D8A88888886E
:10115000880507070600008888C8A89888880507BA
:1011600007060000708888888888700507070600D1
:1011700000F08888F08080800507070600007088EE
:101180008888A89068050707060000F08888F0A006
:101190009088050707060000708880700888700531
:1011A0000707060000F8202020202020050707065A
:1011B00000008888888888887005070706000088EE
:1011C000888888505020050707060000888888888E
:1011D000A8A8500507070600008888502050888876
:1011E00005070706000088885020202020050707F3
:1011F000060000F80810204080F80309090601FFE6
:10120000E080808080808080E00507070600008005
:101210004040201010080309090601FFE0202020AB
:1012200020202020E005030306000520508805014A
:10123000010600FEF80303030601058040200505B2
:10124000050600007008788878050707060000800A
:1012500080F0888888F00505050600007080808889
:101260007005070706000008087888888878050553
:10127000050600007088F080700507070600003042
:101280004840E04040400507070600FE7088888817
:101290007808700507070600008080F08888888835
:1012A0000307070601004000C0404040E004090970
:1012B0000601FE10003010101010906005070706A0
:1012C000000080808890E09088030707060100C036
:1012D0004040404040E0050505060000D0A8A8A811
:1012E000A8050505060000B0C8888888050505061C
:1012F000000070888888700507070600FEF088885F
:1013000088F080800507070600FE788888887808BE
:1013100008050505060000B0C880808005050506A3
:10132000000078807008F00507070600002020F80C
:101330002020201805050506000088888898680583
:101340000505060000888888502005050506000070
:101350008888A8A8500505050600008850205088F8
:101360000507070600FE888888502040800505058F
:10137000060000F8102040F80309090601FF20408C
:10138000404080404040200109090602FF808080E3
:101390008080808080800309090601FF80404040F2
:1013A000204040408005030306000248A890FF4DFE
:1013B00033303320553120452569205325690050AD
:1013C0004944204175746F74756E65202A00504938
:1013D000442D44202A005049442D49202A005049D8
:1013E000442D50202A002008204661637400200804
:1013F000204D6178002008204D696E004F66660020
:101400004F6E004175746F74656D70005654726153
:1014100076204D696E00566D696E00566D617820BC
:101420004500566D6178205A00566D61782059004C
:10143000566D6178205800416D6178204500416DFE
:101440006178205A00416D6178205900416D6178C2
:10145000205800412D54726176656C00412D526513
:10146000747261637400416363656C00220A0065F5
:101470006E7175657565696E672022006F6B00522D
:101480006573656E643A200020573A004265642017
:10149000436F6F6C696E672E2E2E00426564204884
:1014A000656174696E672E2E2E0023646566696E11
:1014B000652044454641554C545F004B6420004B29
:1014C0006920004B702000504944204175746F74AE
:1014D000756E652066696E69736865642120507554
:1014E0007420746865206C617374204B702C204BE1
:1014F0006920616E64204B6420636F6E7374616E4B
:1015000074732066726F6D2062656C6F7720696EF0
:10151000746F20436F6E66696775726174696F6E70
:101520002E680A00504944204175746F74756E65C9
:10153000206661696C6564212074696D656F7574DE
:101540000A00504944204175746F74756E652066B9
:1015500061696C6564212054656D70657261747594
:10156000726520746F6F20686967680A00204B6499
:101570003A2000204B693A2000204B703A20000AA4
:1015800020436C617373696320504944200A002032
:1015900054753A2000204B753A2000206D61783A4E
:1015A0002000206D696E3A200020643A20002062FD
:1015B0006961733A2000504944204175746F747515
:1015C0006E652073746172740A005049442041753D
:1015D000746F74756E65206661696C656421205452
:1015E000656D706572617475726520746F6F2068C7
:1015F0006967680A00504944204175746F74756EBC
:1016000065206661696C65642120426164206578AB
:10161000747275646572206E756D6265720A00453C
:1016200072723A207574663820666F6E74206E6F21
:101630007420696E697469616C697A65642E00450D
:1016400072723A207574663820666F6E74206E6F01
:101650007420696E697469616C697A65642E004AE8
:10166000756E6374696F6E204465760045737465AA
:1016700070732F6D6D005A73746570732F6D6D00EC
:101680005973746570732F6D6D0058737465707342
:101690002F6D6D00416476616E63656420536574DF
:1016A00074696E6773003F0043616E63656C004947
:1016B0006E6974004D34323800496E697469616C2A
:1016C000697A6520454550524F4D0046696C616D01
:1016D000656E740054656D70657261747572650035
:1016E00053746570732F6D6D004A65726B004163B2
:1016F00063656C65726174696F6E0056656C6F63CB
:101700006974790053657420486F6D65204F666673
:101710007365747300436F6E66696775726174698F
:101720006F6E003F004E65787420506F696E7400D4
:10173000446F6E65004E65787400486F6D696E6722
:101740002058595A0049646C6520506572696F646D
:101750000041637469766520537065656400417566
:10176000746F204D6F64650049646C65205370652B
:10177000656400426564004E6F7A7A6C650046616C
:101780006E20537065656400436F6E66696775729D
:101790006174696F6E001FE03FF03FF03FF01FE0A3
:1017A0001FE03FF03FF03FF00FC0078003001FE055
:1017B0002010201020101020102020102010303079
:1017C0000840048003003FFFF83E00F839F038314C
:1017D000E01831E01821E1E820F3E8207FE82077E5
:1017E000E828EE282FDC082FFC082F9E082F0F0872
:1017F000300F18300F18381F383E00F83FFFF83F01
:10180000FFF83E00F8383F38307E18307C18287CCE
:10181000082C38082F39C82FFFE82FC7E82FFFE81A
:101820002739E8203868207C28307C1830FC1839AB
:10183000F8383E00F83FFFF83FFFF83E00F8380F59
:1018400038341FD8361F982F1F082F9E082FFC08EA
:101850002FDC0827EFC82077E8207FE820F3E82175
:10186000F1E833F0D837F05839E0383E00F83FFF60
:10187000F83FFFF83E80F83980383781D837C3D831
:1018800027C7E823C7F821FF88206C08206C0820B0
:101890006C0823FF083FC7882FC7C83787D837038E
:1018A000D83803383E02F83FFFF81FFFF81FFFF853
:1018B0000410400208200208200410400820801074
:1018C00041001041000820800410400000001FFF6C
:1018D000F81FFFF82100140706003372D1C08900F9
:1018E0003F0B152109002D3A15220900214A152424
:1018F0000900213A1527A600000000000000FFFFA4
:10190000FFFFFFC00000000000000B1870E1C38063
:101910001B0CF0E0E7003B27F07076003B33F13022
:1019200030007B3333B818007BB033B80C007BB089
:10193000373C6E000330377CE7000330360DC38040
:10194000000000000000FFFFFFFFFFC000000000DC
:10195000000007000008400009649D2F0E000F548E
:10196000A12950000954A12950000957BDEF5E007C
:101970000000800000000007800000000000000060
:10198000000000000000000024F4D43050C38E207A
:10199000C2A24017828B7011127A910D816CD90A04
:1019A000A861E108C7586607615143061E4B5D05F3
:1019B000C145A7041A411104093D98037139310347
:1019C0004036DB0265339102D4305402802E1D0272
:1019D000632CEE01752AC501B028A00110278101F2
:1019E0008F2564012B244B01E0223401AC211F011F
:1019F0008D200D01801FFC00841EED00971DDF006F
:101A0000B81CD200E61BC600201BBC00641AB20042
:101A1000B219A8000A19A0006A189900D1179100FC
:101A200040178B00B516840031167E00B31579007F
:101A30003A157300C7146F0058146A00EE1366005D
:101A40008813630025135E00C7125B006C125700F9
:101A500015125400C111510070114F0021114B009B
:101A6000D61049008D104700461044000210420075
:101A7000C00F4000800F3E00420F3C00060F3B00AD
:101A8000CB0E3800930E37005C0E3500270E340065
:101A9000F30D3200C10D3100900D3000600D2E00AD
:101AA000320D2D00050D2C00D90C2B00AE0C290099
:101AB000850C29005C0C2700350C27000E0C260035
:101AC000E80B2400C40B2400A00B23007D0B230093
:101AD0005A0B2100390B2100180B2000F80A1F00B7
:101AE000D90A1E00BB0A1E009D0A1D00800A1D00A7
:101AF000630A1C00470A1B002C0A1B00110A1A006B
:101B0000F7091A00DD091900C4091900AB09190009
:101B1000920917007B091800630917004C09160089
:101B200036091600200916000A091500F5081500E7
:101B3000E0081400CC081400B8081400A40814002D
:101B4000900813007D0812006B081300580812005B
:101B50004608120034081100230811001208110071
:101B600001081100F0071000E0071000D007100076
:101B7000C0071000B0070F00A107100091070E006A
:101B800083070F0074070F0065070E0057070E004C
:101B900049070E003B070D002E070E0020070D0021
:101BA00013070D0006070D00F9060C00ED060D00E9
:101BB000E0060C00D4060C00C8060C00BC060C00A5
:101BC000B0060C00A4060B0099060C008D060B0055
:101BD00082060B0077060B006C060B0061060A00FC
:101BE00057060B004C060A0042060A0038060A0097
:101BF0002E060A0024060A001A060A00100609002A
:101C000007060A00FD050900F4050900EB050900B7
:101C1000E2050900D9050900D0050900C70509003A
:101C2000BE050900B5050800AD050800A5050900B9
:101C30009C050800940508008C0508008405080030
:101C40007C050800740508006C05070065050800A0
:101C50005D050700560508004E050700470507000B
:101C60004005080038050700310507002A05070070
:101C7000230507001C050600160507000F050700D1
:101C80000805060002050700FB040600F50407002E
:101C9000EE040600E8040600E2040700DB04060088
:101CA000D5040600CF040600C9040600C3040600DC
:101CB000BD040600B7040600B1040500AC0406002C
:101CC000A6040600A00405009B0406009504050078
:101CD000900406008A0405008504050080040600BF
:101CE0007A04050075040500700405006B04050006
:101CF00066040500610405005C0405005704050046
:101D0000520405004D040500480405004304050085
:101D10003E0404003A0405003504050030040400C4
:101D20002C04050027040400230405001E040400FD
:101D30001A04040016040500110404000D04040034
:101D4000090405000404040000040400FC0304006A
:101D5000F8030400F4030400F0030400EC0304009F
:101D6000E8030400E4030400E0030400DC030400CF
:101D7000D8030400D4030400D0030400CC030400FF
:101D8000C8030300C503030024F404D9201BC40CBA
:101D90005C0E9804C4095F0265077101F405F9003F
:101DA000FB04B30048048700C103690058035500D1
:101DB00003034500BE023A008402310053022A00A8
:101DC0002902250004022000E4011C00C8011900BA
:101DD000AF01170098011400840113007101100075
:101DE0006101100051010E0043010D0036010B008E
:101DF0002B010B0020010B00150109000C0109004B
:101E000003010800FB000800F3000800EB000700D6
:101E1000E4000600DE000600D8000600D20006003E
:101E2000CC000500C7000500C2000500BD0004008D
:101E3000B9000400B5000400B1000400AD000400C6
:101E4000A9000400A5000300A20003009F000400F5
:101E50009B0003009800030095000200930003001C
:101E6000900003008D0002008B0003008800020038
:101E70008600020084000300810002007F0002004F
:101E80007D0002007B000200790002007700010063
:101E9000760002007400020072000100710002006E
:101EA0006F0002006D0001006C0002006A0001007A
:101EB0006900020067000100660001006500010082
:101EC0006400020062000100610001006000010086
:101ED0005F0002005D0001005C0001005B0001008A
:101EE0005A0001005900010058000100570001008C
:101EF000560001005500010054000100530000008D
:101F00005300010052000100510001005000010087
:101F10004F0001004E0000004E0001004D00010086
:101F20004C0001004B0000004B0001004A00010082
:101F3000490001004800000048000100470001007E
:101F40004600000046000100450000004500010079
:101F50004400010043000000430001004200000073
:101F6000420001004100000041000100400001006A
:101F70003F0000003F0001003E0000003E00010065
:101F80003D0000003D0001003C0000003C0000005E
:101F90003C0001003B0000003B0001003A00000053
:101FA0003A0001003900000039000100380000004B
:101FB0003800000038000100370000003700010041
:101FC0003600000036000000360001003500000039
:101FD000350000003500010034000000340000002E
:101FE0003400010033000000330000003300010022
:101FF0003200000032000000320001003100000019
:10200000310000003100010030000000300000000D
:10201000300001002F0000002F0000002F00000002
:102020002F0001002E0000002E0000002E000100F5
:102030002D0000002D0000002D0000002D000100EB
:102040002C0000002C0000002C0000002C000100DF
:102050002B0000002B0000002B0000002B000100D3
:102060002A0000002A0000002A0000002A000100C7
:1020700029000000290000002900000029000000BC
:1020800029000100280000002800000028000000AE
:1020900028000000280001002700000027000000A1
:1020A0002700000027000000270001002600000094
:1020B0002600000026000000260000002600010087
:1020C000250000002500000025000000250000007C
:1020D000250000002500010024000000240000006D
:1020E0002400000024000000240001002300000060
:1020F0002300000023000000230000002300000054
:102100002300000023000100220000002200000044
:102110002200000022000000220000002200010036
:10212000210000002100000021000000210000002B
:10213000210000002100000021000100200000001B
:10214000200000002000000020000000200000000F
:102150002000000020000000200001001F000000FF
:102160001F0000001F0000001F0000001F000000F3
:102170001F0000001F0001001E0000001E000000E4
:102180001E0000001E000000393000003325000052
:1021900087190000B00F0000DB080000BD0400003C
:1021A000740200003F01000001FFFFFFFFFFFFFF7F
:1021B000FFFFFFFFFFFF0FFFFFFFFFFFFFFFFFFF1F
:1021C000FFFFFFFF1E0000000000000000000007EE
:1021D000FFFF380000000000000000000003FFFFC8
:1021E000700000000000000000000001FFFF600020
:1021F00000000000000000000000FFFF6000000081
:1022000000000000000000007FFFC0000000000090
:102210000000007800003FFFC00FC0FC000000007D
:10222000007818001FFFC03FE1FF000000000078A9
:102230003C000FFFC07FF3FF8000000000783C00EF
:1022400007FFC0FFFFFFC000000000783C0003FF55
:10225000C1F87F87E00000000078000001FFC1F0B6
:102260003F03E00000000078000000FFC1E01E0115
:10227000E01F0003E0783C03F07FC1E01E01E07F37
:10228000C00FF8783C07FC3FC1E01E01E1FFE01FF2
:10229000FC783C0FFE1FC1E01E01E3FFF03FFE781B
:1022A0003C1FFE0FC1E01E01E3F3F83F3E783C3FC8
:1022B0003F07C1E01E01E7E0FC7C1F783C3E1F07A2
:1022C000C1E01E01E7C07C7C0F783C3C0F03C1E0FD
:1022D0001E01E7807C780F783C3C0F03C1E01E01B3
:1022E000E7803C7800783C3C0F03C1E01E01E780AA
:1022F0003C7800783C3C0F03C1E01E01E7803C784D
:1023000000783C3C0F03C1E01E01E7C03C78007838
:102310003C3C0F03C1E01E01E3E03C78007C3C3C08
:102320000F03C1E01E01E3FF3FF8007FBC3C0F0339
:10233000C1E01E01E1FF3FF8003FBFFC0F03C1E019
:102340001E01E0FF3FF8001FBFFC0F03C1E01E01AC
:10235000E07F3FF8000FBFFC0F03600000000000AB
:102360000000000000000007600000000000000006
:1023700000000000000670000000000000000000E7
:102380000000000E38000000000000000000000007
:10239000001C1E000000000000000000000000788B
:1023A0000FFFFFFFFFFFFFFFFFFFFFFFFFF001FF3A
:1023B000FFFFFFFFFFFFFFFFFFFFFF8001FFFFFFAA
:1023C000FFFFFFFFFFFFFFFFFFFF0FFFFFFFFFFF0D
:1023D000FFFFFFFFFFFFFFFF1E00000000000000E7
:1023E00000000007FFFF38000000000000000000B0
:1023F0000003FFFF7000000000000000000000016B
:10240000FFFF600000000000000000000000FFFF70
:102410006000000000000000000000007FFFC0001E
:10242000000000000000007800003FFFC00FC0FC6B
:1024300000000000007818001FFFC03FE1FF00000F
:10244000000000783C000FFFC07FF3FF8000000019
:1024500000783C0007FFC0FFFFFFC00000000078CD
:102460003C0003FFC1F87F87E00000000078000017
:1024700001FFC1F03F03E00000000078000000FF12
:10248000C1E01E01E01F0003E0783C00007FC1E0D6
:102490001E01E07FC00FF8783C00003FC1E01E0144
:1024A000E1FFE01FFC783C00001FC1E01E01E3FFDC
:1024B000F03FFE783C00000FC1E01E01E3F3F83F5F
:1024C0003E783C000007C1E01E01E7E0FC7C1F787D
:1024D0003C000007C1E01E01E7C07C7C0F783C0097
:1024E0000003C1E01E01E7807C780F783C00000308
:1024F000C1E01E01E7803C7800783C000003C1E0A9
:102500001E01E7803C7800783C000003C1E01E011A
:10251000E7803C7800783C000003C1E01E01E7C082
:102520003C7800783C000003C1E01E01E3E03C7809
:10253000007C3C000003C1E01E01E3FF3FF8007F88
:10254000BC000003C1E01E01E1FF3FF8003FBF00F7
:102550000003C1E01E01E0FF3FF8001FBF000003C1
:10256000C1E01E01E07F3FF8000FBF0000036000E4
:1025700000000000000000000000000760000000F4
:1025800000000000000000000006700000000000D5
:10259000000000000000000E3800000000000000F5
:1025A00000000000001C1E000000000000000000F1
:1025B000000000780FFFFFFFFFFFFFFFFFFFFFFF9F
:1025C000FFF001FFFFFFFFFFFFFFFFFFFFFFFF80A7
:1025D00001FFFFFFFFFFFFFFFFFFFFFFFFFF0FFFF9
:1025E000FFFFFFFFFFFFFFFFFFFFFFFF1E000000D9
:1025F0000000000000000007FFFF3800000000009E
:10260000000000000003FFFF700000000000000059
:1026100000000001FFFF600000000000000000005B
:102620000000FFFF6000000000000000000000004C
:102630007FFFC000000000000000007800003FFFA6
:10264000C00FC0FC00000000007800001FFFC03F6A
:10265000E1FF00000000007800000FFFC07FF3FFE3
:10266000800000000078000007FFC0FFFFFFC000EF
:1026700000000078000003FFC1F87F87E000000041
:102680000078000001FFC1F03F03E0000000007887
:10269000000000FFC1E01E01E01F0003E078000021
:1026A000007FC1E01E01E07FC00FF8780000003F0E
:1026B000C1E01E01E1FFE01FFC780000001FC1E047
:1026C0001E01E3FFF03FFE780000000FC1E01E0195
:1026D000E3F3F83F3E7800000007C1E01E01E7E0A9
:1026E000FC7C1F7800000007C1E01E01E7C07C7C75
:1026F0000F7800000003C1E01E01E7807C780F78AE
:1027000000000003C1E01E01E7803C780078000073
:102710000003C1E01E01E7803C7800780000000360
:10272000C1E01E01E7803C78007800000003C1E0B2
:102730001E01E7C03C78007800000003C1E01E01E4
:10274000E3E03C78007C00000003C1E01E01E3FFF1
:102750003FF8007F00000003C1E01E01E1FF3FF8E9
:10276000003F00000003C1E01E01E0FF3FF8001F32
:1027700000000003C1E01E01E07F3FF8000F0000F1
:1027800000036000000000000000000000000007DF
:102790006000000000000000000000000006700063
:1027A00000000000000000000000000E38000000E3
:1027B0000000000000000000001C1E0000000000DF
:1027C00000000000000000780FFFFFFFFFFFFFFF89
:1027D000FFFFFFFFFFF001FFFFFFFFFFFFFFFFFF16
:1027E000FFFFFF8001FFFFFFFFFFFFFFFFFFFFFF76
:1027F000FFFF0FFFFFFFFFFFFFFFFFFFFFFFFFFFD9
:102800001E0000000000000000000007FFFF38006D
:1028100000000000000000000003FFFF7000000047
:102820000000000000000001FFFF60000000000049
:10283000000000000000FFFF60000000000000003A
:10284000000000007FFFC00000000000000000004A
:1028500000003FFFC00FC0FC0000000000000000AF
:102860001FFFC03FE1FF00000000000000000FFF5D
:10287000C07FF3FF800000000000000007FFC0FFE2
:10288000FFFFC00000000000000003FFC1F87F87C9
:10289000E00000000000000001FFC1F03F03E00085
:1028A00000000000000000FFC1E01E01E01F000367
:1028B000E0000000007FC1E01E01E07FC00FF800D3
:1028C0000000003FC1E01E01E1FFE01FFC0000002E
:1028D000001FC1E01E01E3FFF03FFE000000000FFB
:1028E000C1E01E01E3F3F83F3E0000000007C1E035
:1028F0001E01E7E0FC7C1F0000000007C1E01E0194
:10290000E7C07C7C0F0000000003C1E01E01E780EF
:102910007C780F0000000003C1E01E01E7803C78D6
:10292000000000000003C1E01E01E7803C780000C9
:1029300000000003C1E01E01E7803C7800000000B9
:102940000003C1E01E01E7C03C7800000000000366
:10295000C1E01E01E3E03C78000000000003C1E09C
:102960001E01E3FF3FF8000000000003C1E01E016C
:10297000E1FF3FF8000000000003C1E01E01E0FF9E
:102980003FF8000000000003C1E01E01E07F3FF8B7
:1029900000000000000360000000000000000000D4
:1029A00000000007600000000000000000000000C0
:1029B0000006700000000000000000000000000E93
:1029C000380000000000000000000000001C1E0095
:1029D0000000000000000000000000780FFFFFFF73
:1029E000FFFFFFFFFFFFFFFFFFF001FFFFFFFFFF04
:1029F000FFFFFFFFFFFFFF8001FFFFFFFFFFFFFF64
:102A0000FFFFFFFFFFFF0FFFFFFFFFFFFFFFFFFFC6
:102A1000FFFFFFFF1E000000000000000000000795
:102A2000FFFF380000000000000000000003FFFF6F
:102A3000700000000000000000000001FFFF6000C7
:102A400000000000000000000000FFFF6000000028
:102A500000000000000000007FFFC0000000000038
:102A60000000000000003FFFC00FC0FC000000009D
:102A7000000000001FFFC03FE1FF00000000000059
:102A800000000FFFC07FF3FF800000000000000087
:102A900007FFC0FFFFFFC00000000000000003FFB1
:102AA000C1F87F87E00000000000000001FFC1F0D6
:102AB0003F03E00000000000000000FFC1E01E0135
:102AC000E01F000000000000007FC1E01E01E07F69
:102AD000C00000000000003FC1E01E01E1FFE00077
:102AE00000000000001FC1E01E01E3FFF000000035
:102AF0000000000FC1E01E01E3F3F8000000000039
:102B00000007C1E01E01E7E0FC0000000000000734
:102B1000C1E01E01E7C07C00000000000003C1E02E
:102B20001E01E7807C00000000000003C1E01E01E0
:102B3000E7803C00000000000003C1E01E01E780C8
:102B40003C00000000000003C1E01E01E7803C00E3
:102B5000000000000003C1E01E01E7C03C000000CF
:102B600000000003C1E01E01E3E03C0000000000A3
:102B70000003C1E01E01E3FF3F000000000000036E
:102B8000C1E01E01E1FF3F00000000000003C1E0C2
:102B90001E01E0FF3F00000000000003C1E01E0135
:102BA000E07F3F0000000000000360000000000024
:102BB00000000000000000076000000000000000AE
:102BC000000000000006700000000000000000008F
:102BD0000000000E380000000000000000000000AF
:102BE000001C1E0000000000000000000000007833
:102BF0000FFFFFFFFFFFFFFFFFFFFFFFFFF001FFE2
:102C0000FFFFFFFFFFFFFFFFFFFFFF8001FFFFFF51
:102C1000FFFFFFFFFFFFFFFFFFFF0FFFFFFFFFFFB4
:102C2000FFFFFFFFFFFFFFFF1E000000000000008E
:102C300000000007FFFF3800000000000000000057
:102C40000003FFFF70000000000000000000000112
:102C5000FFFF600000000000000000000000FFFF18
:102C60006000000000000000000000007FFFC000C6
:102C7000000000000000000000003FFFC00FC0FC8B
:102C800000000000000000001FFFC03FE1FF000047
:102C90000000000000000FFFC07FF3FF8000000075
:102CA0000000000007FFC0FFFFFFC00000000000A1
:102CB000000003FFC1F87F87E00000000000000073
:102CC00001FFC1F03F03E00000000000000000FF32
:102CD000C1E01E01E000000000000000007FC1E034
:102CE0001E01E000000000000000003FC1E01E01E6
:102CF000E000000000000000001FC1E01E01E00035
:102D0000000000000000000FC1E01E01E000000014
:102D1000000000000007C1E01E01E000000000000C
:102D200000000007C1E01E01E000000000000000FC
:102D30000003C1E01E01E0000000000000000003ED
:102D4000C1E01E01E0000000000000000003C1E03F
:102D50001E01E0000000000000000003C1E01E01B1
:102D6000E0000000000000000003C1E01E01E000E0
:102D70000000000000000003C1E01E01E0000000B0
:102D8000000000000003C1E01E01E00000000000A0
:102D900000000003C1E01E01E00000000000000090
:102DA0000003C1E01E01E00000000000000000037D
:102DB000C1E01E01E0000000000000000003600010
:102DC000000000000000000000000007600000009C
:102DD000000000000000000000067000000000007D
:102DE000000000000000000E38000000000000009D
:102DF00000000000001C1E00000000000000000099
:102E0000000000780FFFFFFFFFFFFFFFFFFFFFFF46
:102E1000FFF001FFFFFFFFFFFFFFFFFFFFFFFF804E
:102E200001FFFFFFFFFFFFFFFFFFFFFFFFFF0FFFA0
:102E3000FFFFFFFFFFFFFFFFFFFFFFFF1E00000080
:102E40000000000000000007FFFF38000000000045
:102E5000000000000003FFFF700000000000000001
:102E600000000001FFFF6000000000000000000003
:102E70000000FFFF600000000000000000000000F4
:102E80007FFFC000000000000000000000003FFFC6
:102E9000C000000000000000000000001FFFC00094
:102EA000000000000000000000000FFFC000000054
:102EB000000000000000000007FFC000000000004C
:102EC00000000000000003FFC00000000000000040
:102ED0000000000001FFC000000000000000000032
:102EE000000000FFC0000000000000000000000023
:102EF000007FC00000000000000000000000003F54
:102F0000C00000000000000000000000001FC00022
:102F100000000000000000000000000FC0000000E2
:102F200000000000000000000007C00000000000DA
:102F30000000000000000007C000000000000000CA
:102F4000000000000003C0000000000000000000BE
:102F500000000003C00000000000000000000000AE
:102F60000003C0000000000000000000000000039B
:102F7000C000000000000000000000000003C000CE
:102F8000000000000000000000000003C00000007E
:102F900000000000000000000003C000000000006E
:102FA0000000000000000003C0000000000000005E
:102FB000000000000003C00000000000000000004E
:102FC00000000003C000000000000000000000003E
:102FD0000003600000000000000000000000000787
:102FE000600000000000000000000000000670000B
:102FF00000000000000000000000000E380000008B
:103000000000000000000000001C1E000000000086
:1030100000000000000000780FFFFFFFFFFFFFFF30
:10302000FFFFFFFFFFF001FFFFFFFFFFFFFFFFFFBD
:10303000FFFFFF8000000000000000000000000013
:103040000000000000000000000000000000000080
:103050000000000000047F03E00001F8000F000002
:103060007F8003F0000C7F03F00003F8001F800056
:103070007FC007F0000C7F03F80007F8003F8000D6
:103080007FC00FF0001C7F03FC000FF8003FC00062
:103090003FE01FF0001C7F03FE001FF8003FC00050
:1030A0001FF03FF0003C7F01FF003FF8001FE000F1
:1030B0000FF87FF0003C7F00FF807FF8000FE000FA
:1030C00007F87FE0007C7F007FC0FFF8000FF00072
:1030D00007FC3FC0007C7F003FE1FFF80007F800DD
:1030E00003FE1F8000FC7F001FFFFFF80187F80030
:1030F00001FF0F0000FC7F030FFFFFF801C3FC007E
:1031000000FF860001FC7F0387FFF3F803E3FC0068
:10311000007F800001FC7F03C3FFE3F803E1FE00B2
:10312000007FC00003FC7F03E1FFC3F807F1FE004E
:10313000003FE00003FC7FE3F0FF83F807F0FF00AF
:10314000001FF00007FC7FE3F87F03F80FF07F001B
:10315000000FF00007FC7FE3F81E03F80FE07F800C
:10316000000FF8000FFC7FE3F80003F81FE3FF8077
:103170000387FC000FFC7FE3F80003F81FC3FFC0C8
:1031800007C3FE001FFC7FE3F80003F83FC7FFC042
:103190000FE1FE0000007F03F80003F83F87FFE027
:1031A0001FF1FF0000007F03F80003F87F8FFFE0AE
:1031B0003FF0FF8000007F03F80003F87F0FFFF06F
:1031C0007FF07FC000007F03F80003F8FF0007F0E6
:1031D000FFE03FC000007F03F80003F8FE0007F89F
:1031E000FFC03FE000007F03F80003F9FE0003F892
:1031F000FF801FF000007F03F80003F9FC0003FCD0
:10320000FF000FF000007F03F80003FBFC0001FC4F
:10321000FE000FF0000000000000000000000000B1
:10322000000000000000000000000000000000009E
:103230000000000068747470733A2F2F6769742E51
:10324000696F2F666A587A7200344D415820322EC9
:10325000302E3533303352656C2E00202E0C2CF876
:1032600029E427D025BC23A8212020506C616E6E54
:10327000657242756666657242797465733A2000BC
:103280002046726565204D656D6F72793A20004366
:103290006F6D70696C65643A204D61792020332030
:1032A000323032300A00204C6173742055706461F2
:1032B0007465643A20323032302D30332D33312072
:1032C0007C20417574686F723A202847336D316EE7
:1032D000315333727633722C20416E796375626993
:1032E0006320344D4158290A00344D415820322E74
:1032F000302E3533303352656C2E0A004D61726CBE
:10330000696E0020536F6674776172652052657331
:1033100065740A00205761746368646F67205265A2
:103320007365740A002042726F776E206F75742087
:1033300052657365740A002045787465726E616C1D
:103340002052657365740A00506F77657255700A74
:103350000073746172740A006175746F25632E675F
:10336000004732385859004D3130303100657272A3
:103370006F722077726974696E6720746F20666956
:103380006C650A00446F6E6520736176696E672014
:1033900066696C652E0A004D323900456E6473749F
:1033A0006F7073002553202563202563202563203B
:1033B000256300205A3A0020593A0020583A006507
:1033C0006E6473746F7073206869743A20005A5F7A
:1033D00053544F505F50494E005A5F535445505F0D
:1033E00050494E005A5F4D494E5F50494E005A5F5A
:1033F000454E41424C455F50494E005A5F44495248
:103400005F50494E00595F53544F505F50494E0032
:10341000595F535445505F50494E00595F4D494ED6
:103420005F50494E00595F454E41424C455F5049FF
:103430004E00595F4449525F50494E00585F535403
:103440004F505F50494E00585F535445505F5049AC
:103450004E00585F4D494E5F50494E00585F454EF3
:1034600041424C455F50494E00585F4449525F50BD
:10347000494E0053535F50494E00534552564F3307
:103480005F50494E00534552564F325F50494E00EF
:10349000534552564F315F50494E00534552564F97
:1034A000305F50494E00534453530053445F4445EA
:1034B000544543545F50494E0053434B5F50494E6F
:1034C0000052414D50535F44395F50494E005241C4
:1034D0004D50535F44385F50494E0052414D505358
:1034E0005F4431305F50494E004D4F53495F504962
:1034F0004E004D49534F5F50494E004D41583636AE
:1035000037355F53535F50494E004C45445F504937
:103510004E004C43445F50494E535F5253004C435E
:10352000445F50494E535F454E41424C45004C4329
:10353000445F50494E535F4437004C43445F504909
:103540004E535F4436004C43445F50494E535F44F2
:1035500035004C43445F50494E535F443400484566
:10356000415445525F4245445F50494E00484541F1
:103570005445525F305F50494E0046494C5F5255AA
:103580004E4F55545F50494E0046414E325F5049B0
:103590004E0046414E315F50494E0046414E5F500D
:1035A000494E0045315F535445505F50494E0045E8
:1035B000315F454E41424C455F50494E0045315FB9
:1035C0004449525F50494E0045315F43535F504973
:1035D0004E0045305F535445505F50494E004530D2
:1035E0005F454E41424C455F50494E0045305F4477
:1035F00049525F50494E0045305F4155544F5F4638
:10360000414E5F50494E00455F4D5558325F50491D
:103610004E00455F4D5558315F50494E00455F4D56
:103620005558305F50494E00444F474C43445F5318
:10363000434B00444F474C43445F4D4F5349004375
:103640004F4E54524F4C4C45525F46414E5F50498D
:103650004E0042544E5F454E430042544E5F454E2D
:10366000320042544E5F454E31004245455045526E
:103670005F50494E004156525F53535F50494E00D0
:103680004156525F53434B5F50494E004156525F83
:103690004D4F53495F50494E004156525F4D49537B
:1036A0004F5F50494E005458443000525844300047
:1036B00050574D3A20202534640050574D3A202071
:1036C0002534640050574D3A20202534640050576B
:1036D0004D3A20202534640050574D3A202025349F
:1036E000640050574D3A20202534640050574D3A1D
:1036F00020202534640050574D3A202025346400A2
:1037000050574D3A20202534640050574D3A202020
:103710002534640050574D3A20202534640050571A
:103720004D3A20202534640050574D3A202025344E
:10373000640050574D3A20202534640050574D3ACC
:1037400020202534640050574D3A20202534640051
:103750003A200020202020434F4D002020206E6F73
:103760006E2D7374616E646172642050574D206DCC
:103770006F646500202020636F6D70617265206941
:103780006E7465727275707420656E61626C6564CA
:10379000002020206F766572666C6F7720696E74EA
:1037A00065727275707420656E61626C6564003A52
:1037B00020002020202054494D534B00423A200045
:1037C000202020205443435200413A200020202052
:1037D0002054434352002020202043533A2000200D
:1037E00020202057474D3A200050574D3A202025A1
:1037F00034640050574D3A20202534640047004877
:1038000000000088008A008C00B300B4000000981B
:10381000009A009C00A800AA00AC0028012A012CF4
:10382000012020202054494D455200440045006E9F
:1038300000800081006F00B000B100700090009126
:10384000007100A000A1007200200121017300207E
:10385000697320616C736F207469656420746F20D4
:10386000746869732070696E0054494D4552314344
:10387000000A202E002020002020506F72743A2071
:103880000020202000202020416E616C6F6720699D
:103890006E203D2025356C64003C756E7573656443
:1038A0002F756E6B6E6F776E3E0020284125326457
:1038B00029202000253364200050494E3A20004F33
:1038C0007574707574203D2000496E7075742020E9
:1038D0003D2000416E616C6F6720696E203D2025A0
:1038E000356C640070726F746563746564200020C9
:1038F00028412532642920200025336420005049C6
:103900004E3A2000AB360001A6360101993632014D
:103910008C36330180363401753635016A3625011F
:10392000623621015A361F01523623013F36070104
:1039300033363301283634011D36280112362A0168
:1039400007362C01F7352C01EC351C01DE3518014A
:10395000D2351A01C8352C01BD352201AF351E0103
:10396000A33524019B3509019235070189352C01C6
:103970007A3502016D350A015E35080152351701AD
:10398000463519013A351B012E351D011E35110131
:10399000123510010A350D01FB344201F2343201B7
:1039A000E9343301DB340A01CE340801C1340901A2
:1039B000B9343401AB343101A63435019B340B01E9
:1039C00090340601853405017A34040173343501DD
:1039D000693437015C34260152340301473436011F
:1039E0003C34030132343D01253438011B340E01CF
:1039F00010343C0105340E01FB333001EE333E013F
:103A0000E4331201D9332E01CE331201446F6E65B7
:103A10002E0A0050756C73696E6720202000556E69
:103A2000746F756368656420005A5F50524F424559
:103A30005F534552564F5F4E52206E6F7420736530
:103A4000742075702E0A005761746368696E672070
:103A500070696E730A0064697300656E0061626C60
:103A600065640A00656E6473746F70206D6F6E69B3
:103A7000746F722000204D393220580020580020E9
:103A8000204D61783A2000200020204D696E3A20B8
:103A900000536F667420656E6473746F70733A20A0
:103AA00000206F7574206F662072616E67650A0072
:103AB000536572766F20003A200020536572766F4E
:103AC00020005761726E696E67203A20436C656111
:103AD0006E20436972636C652072657175697265E9
:103AE000732058590A0025290A00252000203B2070
:103AF00028004400410049004D3731302053003B3D
:103B000020436F6E74726F6C6C65722046616E0A32
:103B10000020496E76616C69642065787472756402
:103B20006572200020436F756E7420583A00004281
:103B3000656400453100626564002C2073797374FC
:103B4000656D2073746F70706564212048656174C1
:103B500065725F49443A200048656174696E672068
:103B60004661696C65640048656174696E672066CA
:103B700061696C656400202D20496E76616C696412
:103B8000206578747275646572206E756D626572F9
:103B900020210A0070012C0190012701B0012201AF
:103BA000C0011D01F00118011002130130020E01C5
:103BB0006002090190020401C002FF000003FA0044
:103BC0004003F5008003F000D003EB002004E60082
:103BD0007004E100E004DC004005D700C005D2001D
:103BE0004006CD00D006C8008007C3003008BE00E4
:103BF000F008B900C009B400B00AAF00B00BAA00C9
:103C0000D00CA500000EA000500F9B00C010960025
:103C10005012910000148C00C0158700B01782006C
:103C2000B0197D00D01B7800001E730040206E008C
:103C300090226900F024640040275F0090295A0018
:103C4000E02B5500102E500020304B001032460063
:103C5000E033410090353C001037370070383200B7
:103C6000A0392D00B03A2800A03B2300603C1E0084
:103C7000103D1900903D1400103E0F00703E0A00E8
:103C8000C03E0500003F0000403FFBFF803FF6FFC5
:103C9000C03FF1FF544845524D414C2052554E41D2
:103CA00057415900546865726D616C2052756E61A0
:103CB000776179004572723A204D415854454D5014
:103CC000004D415854454D502074726967676572C4
:103CD0006564004572723A204D494E54454D50007E
:103CE0004D494E54454D5020747269676765726541
:103CF00064000A0A0020205A5F4D494E3A002020F5
:103D0000595F4D494E3A002020585F4D494E3A00C8
:103D10004D383420582059205A204500202F0020AB
:103D200042403A0020403A0020573A000009121B56
:103D3000242D363F48415A536C657E7719100B028B
:103D40003D342F265158434A757C676E323B2029FB
:103D5000161F040D7A7368615E574C452B2239306B
:103D60000F061D14636A7178474E555C646D767F4B
:103D70004049525B2C253E3708011A137D746F664B
:103D800059504B42353C272E1118030A565F444DBB
:103D9000727B60691E170C053A3328214F465D542B
:103DA0006B627970070E151C232A31384148535A2B
:103DB000656C777E09001B122D243F3658514A430B
:103DC0007C756E671019020B343D262F737A61687B
:103DD000575E454C3B3229201F160D046A637871EB
:103DE0004E475C55222B3039060F141D252C373ECB
:103DF0000108131A6D647F7649405B523C352E27CB
:103E000018110A03747D666F5059424B171E050C3A
:103E1000333A21285F564D447B7269600E071C15AA
:103E20002A233831464F545D626B70797C3C3E5E8C
:103E30002B3D3F2F5B5D3B2C2A225C000000A0C085
:103E4000000000000000000000004842000048425E
:103E5000000020415761726E696E673A20486F6DAD
:103E6000696E672042756D702044697669736F7260
:103E7000203C20310A000202040000A0400000A003
:103E8000400000803F00005F4300005A430000965E
:103E900043FFFFFF00000001000000010000800060
:103EA000555555000000400033333300AAAA2A00BC
:103EB0004992240000002000C7711C009999190044
:103EC000D1451700555515003BB113002449120088
:103ED00011111100000010000F0F0F00E3380E0049
:103EE00043790D00CCCC0C00C3300C00E8A20B00D1
:103EF00064210B00AAAA0A00703D0A009DD809009F
:103F0000427B090092240900DCD30800888808005D
:103F10001042080000000800F0C107008787070072
:103F200075500700711C07003EEB0600A1BC06009F
:103F30006990060066660600703E0600611806007D
:103F400017F4050074D105005BB00500B2900500C0
:103F5000627205005555050078390500B81E050048
:103F6000050505004EEC040087D40400A1BD040043
:103F700090A7040049920400C17D0400EE6904008A
:103F8000C7560400444404005C32040008210400C5
:103F900041100400000004003FF00300F8E00300BB
:103FA00026D20300C3C30300CCB503003AA8030024
:103FB0000A9B0300388E0300C08103009F75030035
:103FC000D0690300505E03001D5303003448030012
:103FD000913D03003333030016290300381F03000B
:103FE00097150300300C0300030303000BFA0200D3
:103FF00049F10200BAE802005CE002002DD802009C
:104000002DD0020059C80200B0C0020031B9020030
:10401000DAB10200AAAA0200A0A30200BC9C02001E
:10402000FA9502005C8F0200DF88020082820200A3
:10403000457C02002776020027700200436A0200D6
:104040007C640200D05E02003F590200C8530200A7
:10405000FFFDFCFAF8F6F4F2F0EEECEAE9E7E5E34E
:10406000E1E0DEDCDAD9D7D5D4D2D0CFCDCBCAC807
:10407000C7C5C3C2C0BFBDBCBAB9B7B6B4B3B2B08E
:10408000AFADACAAA9A8A6A5A4A2A1A09E9D9C9AEA
:1040900099989795949392908F8E8D8B8A89888723
:1040A0008684838281807F7E7D7B7A79787776753E
:1040B00074737271706F6E6D6C6B6A696867666538
:1040C00064636261605F5E5D5C5B5A595858575625
:1040D000555453525150504F4E4D4C4B4A4A4948FB
:1040E000474646454443424241403F3E3E3D3C3BBD
:1040F0003B3A39383837363535343332323130306F
:104100002F2E2E2D2C2B2B2A292928272726252513
:1041100024232322212120201F1E1E1D1C1C1B1BAB
:104120001A19191818171616151514131312121137
:1041300011100F0F0E0E0D0D0C0C0B0A0A090908B9
:104140000807070606050504040303020201000030
:104150005072696E742050617573656400416E79A8
:10416000637562696320344D4158205265616479FA
:104170002E005072696E74696E672E2E2E00220A10
:1041800000556E6B6E6F776E20636F6D6D616E6440
:104190003A20220020746F6F206C6F6E6720657864
:1041A00074727573696F6E2070726576656E746572
:1041B000640A0020636F6C6420657874727573699B
:1041C0006F6E2070726576656E7465640A0000001B
:1041D0005A4300005A43000096430000A0C000006C
:1041E000000000000000290A002062797465733B1A
:1041F00020637263200053657474696E6773205383
:10420000746F7265642028004669656C6420626181
:10421000636B6C6173685F64697374616E63655F1F
:104220006D6D206D69736D617463682E0A00466957
:10423000656C642066635F73657474696E67732070
:104240006D69736D617463682E0A004669656C64FC
:1042500020706C616E6E65725F736B65775F66610F
:1042600063746F72206D69736D617463682E0A00E8
:104270004669656C6420636F6F7264696E61746512
:104280005F73797374656D206D69736D61746368B4
:104290002E0A004669656C64206D6F746F725F63EF
:1042A000757272656E745F73657474696E67206D84
:1042B00069736D617463682E0A004669656C6420D9
:1042C000706C616E6E65725F65787472756465722C
:1042D0005F616476616E63655F4B206D69736D61CC
:1042E0007463682E0A004669656C6420746D635FB0
:1042F000737465616C74685F656E61626C6564207F
:104300006D69736D617463682E0A004669656C643B
:1043100020746D635F6879627269645F7468726546
:1043200073686F6C64206D69736D617463682E0AC5
:10433000004669656C6420746D635F7374657070AA
:1043400065725F63757272656E74206D69736D61FD
:104350007463682E0A004669656C6420706172732C
:1043600065725F766F6C756D65747269635F656E9B
:1043700061626C6564206D69736D617463682E0A97
:10438000004669656C642066777265747261637457
:104390005F73657474696E6773206D69736D6174A2
:1043A00063682E0A004669656C64207265636F76E7
:1043B0006572795F656E61626C6564206D69736DAD
:1043C000617463682E0A004669656C6420636F6ED1
:1043D00074726F6C6C657246616E5F73657474693C
:1043E0006E6773206D69736D617463682E0A004691
:1043F00069656C64206C63645F636F6E7472617373
:1044000074206D69736D617463682E0A0046696576
:104410006C6420626564504944206D69736D6174F9
:1044200063682E0A004669656C64206C70715F6C6D
:10443000656E206D69736D617463682E0A0046694C
:10444000656C6420686F74656E64504944206D69C2
:10445000736D617463682E0A004669656C6420752B
:10446000695F707265686561745F686F74656E64BA
:104470005F74656D70206D69736D617463682E0A79
:10448000004669656C6420626C746F7563685F6C6C
:104490006173745F7772697474656E5F6D6F646564
:1044A000206D69736D617463682E0A004669656CDE
:1044B0006420736572766F5F616E676C6573206DE3
:1044C00069736D617463682E0A004669656C6420C7
:1044D000706C616E6E65725F6C6576656C696E6737
:1044E0005F616374697665206D69736D617463687B
:1044F0002E0A004669656C642070726F62655F6F9A
:104500006666736574206D69736D617463682E0AE5
:10451000004669656C642072756E6F75745F7365B3
:104520006E736F725F656E61626C6564206D697336
:104530006D617463682E0A004669656C6420686F5B
:104540006D655F6F6666736574206D69736D617408
:1045500063682E0A004669656C6420657374657033
:1045600070657273206D69736D617463682E0A00E3
:104570005072656865617420504C4120426564004A
:104580005072656865617420504C4120456E64002E
:1045900050726568656174205045544720456E64CB
:1045A000005072656865617420504554472042652B
:1045B000640054656D706572617475726500436F57
:1045C0006F6C646F776E005072656865617420501F
:1045D000455447005072656865617420504C410035
:1045E00046616E20537065656400426564004E6FDD
:1045F0007A7A6C65004D61696E00466C6F77004693
:10460000616E20537065656400426564004E6F7A88
:104610007A6C65005370656564004D61696E003F9A
:10462000005374617274205072696E740043616E3D
:1046300063656C005072696E740043616E6E6F74D6
:1046400020656E746572207375626469723A200029
:10465000022E2E004D61696E004D6F74696F6E0001
:104660004D38340044697361626C65205374657021
:1046700070657273004C6576656C20436F726E6571
:104680007273004732385A00486F6D65205A0047F0
:1046900032385900486F6D6520590047323858004C
:1046A000486F6D65205800473238004175746F209F
:1046B000486F6D65004D61696E002E0A006F706570
:1046C0006E206661696C65642C2046696C653A20D1
:1046D0000000002110422063308440A550C660E7EE
:1046E00070088129914AA16BB18CC1ADD1CEE1EFA7
:1046F000F13112100273325222B5529442F772D63F
:1047000062399318837BB35AA3BDD39CC3FFF3DEF6
:10471000E36224433420040114E664C774A444858E
:10472000546AA54BB528850995EEE5CFF5ACC58D46
:10473000D55336722611163006D776F6669556B4DE
:10474000465BB77AA719973887DFF7FEE79DD7BC96
:10475000C7C448E5588668A778400861180228232E
:1047600038CCC9EDD98EE9AFF9488969990AA92BE6
:10477000B9F55AD44AB77A966A711A500A333A127E
:104780002AFDDBDCCBBFFB9EEB799B588B3BBB1A36
:10479000ABA66C877CE44CC55C222C033C600C41CE
:1047A0001CAEED8FFDECCDCDDD2AAD0BBD688D4986
:1047B0009D977EB66ED55EF44E133E322E511E701E
:1047C0000E9FFFBEEFDDDFFCCF1BBF3AAF599F78D6
:1047D0008F8891A981CAB1EBA10CD12DC14EF16F87
:1047E000E18010A100C230E32004502540467067EC
:1047F00060B9839893FBA3DAB33DC31CD37FE35E18
:10480000F3B1029012F322D232354214527762563B
:1048100072EAB5CBA5A89589856EF54FE52CD50D27
:10482000C5E234C324A0148104667447642454058B
:1048300044DBA7FAB79987B8975FE77EF71DC73CB7
:10484000D7D326F2369106B01657667676154634DB
:10485000564CD96DC90EF92FE9C899E9898AB9ABC7
:10486000A94458654806782768C018E1088238A32B
:10487000287DCB5CDB3FEB1EFBF98BD89BBBAB9A57
:10488000BB754A545A376A167AF10AD01AB32A927B
:104890003A2EFD0FED6CDD4DCDAABD8BADE89DC967
:1048A0008D267C076C645C454CA23C832CE01CC1CB
:1048B0000C1FEF3EFF5DCF7CDF9BAFBABFD98FF8F7
:1048C0009F176E367E554E745E932EB23ED10EF01B
:1048D0001E20453A00205A3A0020593A00583A0022
:1048E000554E4C4F41442046494C414D454E540095
:1048F0004C4F41442046494C414D454E5400464999
:104900004C414D454E54204348414E474500526569
:1049100073746F72652044656661756C7473004CC6
:104920006F61642053657474696E67730053746FAC
:1049300072652053657474696E67730050726568A0
:10494000656174205045544720436F6E6600507275
:10495000656865617420504C4120436F6E66004F5E
:104960006666004F6E0052756E6F75742053656EEB
:10497000736F7200436F6E74726F6C6C6572204659
:10498000616E00416476616E636564205365747482
:10499000696E6773004D61696E004D373032205487
:1049A0002564004D36303020423020542564004DBF
:1049B000373032203B2564004D3730312054256498
:1049C000004D373032004D373031004D3630302019
:1049D0004230004D61696E00436F6E74696E75659B
:1049E000004F6666004F6E0052756E6F75742053EF
:1049F000656E736F72005075726765206D6F7265BA
:104A000000524553554D45204F5054494F4E533A4F
:104A1000005052494E5420504155534544002020E7
:104A20004E6F7A7A6C653A20004D3234004D323345
:104A30002025730046696C652073656C6563746539
:104A4000640A002053697A653A200046696C652043
:104A50006F70656E65643A2000454E4420535542A0
:104A6000524F5554494E450A002220706F73002260
:104A700020706172656E743A2200535542524F5550
:104A800054494E452043414C4C2074617267657413
:104A90003A2200747279696E6720746F2063616CCA
:104AA0006C207375622D67636F64652066696C6541
:104AB00073207769746820746F6F206D616E792040
:104AC0006C6576656C732E204D4158206C6576655B
:104AD0006C2069733A310A0057726974696E6720F5
:104AE000746F2066696C653A20002E0A006F70654D
:104AF0006E206661696C65642C2046696C653A209D
:104B000000667265736800646F696E67002066698D
:104B10006C653A20004E6F772000020000210024CF
:104B20000027002A002D003000330001010000049E
:104B30000107010A0100002200250028002B002E99
:104B4000003100340002010000050108010B0100E2
:104B50000020002300260029002C002F0032000036
:104B60000100000301060109010505050507050807
:104B7000080808020202020A0A08080404040401E0
:104B80000101010101010103030303030303030402
:104B90000707070C0C0C0C0C0C0C0C020202020692
:104BA000060606060606060B0B0B0B0B0B0B0B0182
:104BB000021020200808102040102040800201022E
:104BC00001080402010102040810204080804020F6
:104BD0001008040201800402018040201008040231
:104BE00001080402010102040810204080010204AF
:104BF000081020408000000A0B02090C0D0E080767
:104C0000030401000000000000000000000000009C
:104C10000000000000000000000000000000000094
:104C20000012111000000000000000000000000051
:104C300000000000000000000000004D6F766520BD
:104C400025736D6D00004D6F766520302E316D6DD2
:104C5000004D6F766520316D6D004D6F76652031AA
:104C6000306D6D004D6F7665204178697300486F37
:104C700074656E6420746F6F20636F6C6400457898
:104C8000747275646572004D6F7665205A004D6FC1
:104C900076652059004D6F76652058004368616E37
:104CA00067652046696C616D656E7400556E6C6F4A
:104CB00061642046696C616D656E74004C6F61645F
:104CC0002046696C616D656E74005072656865613F
:104CD00074205045544700507265686561742050D7
:104CE0004C41005072656865617420437573746F40
:104CF0006D004261636B004D656469612052656DB2
:104D00006F766564004D6564696120496E736572F4
:104D1000746564005072696E742041626F727465CC
:104D200064004D323520500A4D32340050617573A5
:104D300065205072696E74005061726B696E672EE7
:104D40002E2E0000005761697420666F720066693C
:104D50006C616D656E74206368616E676500746F69
:104D6000207374617274005761697420666F7200F9
:104D700066696C616D656E7420756E6C6F61640040
:104D8000004E6F7A7A6C652068656174696E6700A1
:104D9000506C6561736520776169742E2E2E00005A
:104DA000507265737320627574746F6E00746F2037
:104DB00068656174206E6F7A7A6C650000496E7365
:104DC0006572742066696C616D656E7400616E64F5
:104DD00020707265737320627574746F6E00746FE7
:104DE00020636F6E74696E75650057616974206623
:104DF0006F720066696C616D656E74206C6F6164C2
:104E00000000507265737320427574746F6E007485
:104E10006F20726573756D65207072696E74000025
:104E20005761697420666F72207072696E740074C5
:104E30006F20726573756D652E2E2E0000576169A7
:104E40007420666F720066696C616D656E742070A7
:104E5000757267650000313530003A200035003A40
:104E600020004245443A4550434F53203130304BA7
:104E70000052756E617761792057617463683A20DA
:104E80004F4E004D61782054656D7000323735000B
:104E90003A20004D696E2054656D700035003A204F
:104EA0000045313A204550434F53203130304B00BC
:104EB0005053550047656E65726963003A20005093
:104EC000726F746F636F6C00312E30003A200042B5
:104ED00061756400323530303030003A2000416E68
:104EE0007963756269632052414D505320312E34ED
:104EF000004578747275646572730031003A200061
:104F000068747470733A2F2F6769742E696F2F66F7
:104F10006A587A7200416E79637562696320344D14
:104F2000415800323032302D30332D333100344D82
:104F3000415820322E302E3533303352656C2E00DE
:104F40004D61726C696E00546865726D6973746F3F
:104F5000727300426F61726420496E666F00507216
:104F6000696E74657220496E666F004D61696E00EE
:104F70003F004261636B0053746F70004E6F204DB1
:104F800065646961005072696E742066726F6D208D
:104F90004D65646961004368616E67652046696CB0
:104FA000616D656E7400436F6E66696775726174DA
:104FB000696F6E0054656D7065726174757265001D
:104FC0004D6F74696F6E00526573756D6520507218
:104FD000696E740041626F7574205072696E7465F9
:104FE000720054756E650053746F70205072696E54
:104FF00074005061757365205072696E7400496E5B
:10500000666F2053637265656E00454550524F4D83
:1050100020496E697469616C697A65640A00486147
:105020007264636F6465642044656661756C7420A6
:1050300053657474696E6773204C6F616465640AAC
:10504000000000964300009643000020410000C885
:10505000410000A0420000A0420000C8433333B921
:1050600042DC050000DC05000064000000102700A1
:10507000003B200020204D363033200020204D34CE
:10508000313220530046696C616D656E7420727513
:105090006E6F75742073656E736F723A00205500E1
:1050A0004C0046696C616D656E74206C6F61642F95
:1050B000756E6C6F6164206C656E677468733A001E
:1050C00020440020490020204D3330312050005032
:1050D00049442073657474696E67733A0020460012
:1050E00020420020480020204D3134352053004D0F
:1050F0006174657269616C20686561747570207097
:105100006172616D65746572733A0020204D3230B2
:1051100036205800486F6D65206F66667365743A77
:1051200000204A0020530020204D3230352042001C
:10513000416476616E6365643A20423C6D696E5FDE
:105140007365676D656E745F74696D655F75733ED9
:1051500020533C6D696E5F66656564726174653E7F
:1051600020543C6D696E5F74726176656C5F666534
:105170006564726174653E204A3C6A756E635F6463
:1051800065763E0020540020520020204D323034FD
:10519000205000416363656C65726174696F6E20B5
:1051A00028756E6974732F7332293A20503C7072DF
:1051B000696E745F616363656C3E20523C72657416
:1051C000726163745F616363656C3E20543C74720A
:1051D0006176656C5F616363656C3E0020204D32D3
:1051E00030312058004D6178696D756D20416363E1
:1051F000656C65726174696F6E2028756E69747371
:105200002F7332293A00204500205A0020590020EF
:10521000204D3230332058004D6178696D756D2016
:105220006665656472617465732028756E69747350
:105230002F73293A0053746570732070657220755E
:105240006E69743A0020204D3230302044300A001C
:1052500020204D3230302044002044697361626C5C
:1052600065640A0046696C616D656E7420736574CF
:1052700074696E67733A0020204D31343920432021
:105280003B20556E69747320696E2043656C7369A9
:1052900075730A0020286D6D2900202047323120C7
:1052A0002020203B20556E69747320696E206D6D3F
:1052B00000486F6D696E67204661696C6564006FB8
:1052C00070656E00545249474745524544003A20A4
:1052D0000066696C616D656E74007A5F6D696E0061
:1052E000795F6D696E00785F6D696E005265706FF1
:1052F0007274696E6720656E6473746F7020737466
:10530000617475730A00454550524F4D20646174B5
:105310006173697A65206572726F722E0A00290ABC
:10532000002062797465733B2063726320002073F0
:10533000746F7265642073657474696E677320722C
:105340006574726965766564202800202863616C45
:1053500063756C6174656429210A0020213D200079
:10536000454550524F4D20435243206D69736D6146
:10537000746368202D202873746F7265642920007F
:105380002053697A653A2000496E6465783A2000B6
:105390004669656C64206261636B6C6173685F640D
:1053A000697374616E63655F6D6D206D69736D61A6
:1053B0007463682E0A004669656C642066635F73D7
:1053C000657474696E6773206D69736D6174636869
:1053D0002E0A004669656C6420706C616E6E6572A1
:1053E0005F736B65775F666163746F72206D69735D
:1053F0006D617463682E0A004669656C6420636F92
:105400006F7264696E6174655F73797374656D2022
:105410006D69736D617463682E0A004669656C641A
:10542000206D6F746F725F63757272656E745F73F7
:10543000657474696E67206D69736D617463682E3D
:105440000A004669656C6420706C616E6E65725FFF
:1054500065787472756465725F616476616E6365A8
:105460005F4B206D69736D617463682E0A00466935
:10547000656C6420746D635F737465616C74685FE0
:10548000656E61626C6564206D69736D61746368DB
:105490002E0A004669656C6420746D635F736774DF
:1054A000206D69736D617463682E0A004669656CCE
:1054B0006420746D635F6879627269645F74687296
:1054C0006573686F6C64206D69736D617463682EB9
:1054D0000A004669656C6420746D635F737465705F
:1054E0007065725F63757272656E74206D69736D3D
:1054F000617463682E0A004669656C64207061728D
:105500007365725F766F6C756D65747269635F65E4
:105510006E61626C6564206D69736D617463682E81
:105520000A004669656C642066777265747261630F
:10553000745F73657474696E6773206D69736D61F0
:105540007463682E0A004669656C64207265636F37
:10555000766572795F656E61626C6564206D6973F2
:105560006D617463682E0A004669656C6420636F20
:105570006E74726F6C6C657246616E5F7365747485
:10558000696E6773206D69736D617463682E0A00BC
:105590004669656C64206C63645F636F6E747261EE
:1055A0007374206D69736D617463682E0A004669B7
:1055B000656C64206C70715F6C656E206D69736DD5
:1055C000617463682E0A004669656C642075695FC2
:1055D000707265686561745F686F74656E645F742E
:1055E000656D70206D69736D617463682E0A004685
:1055F00069656C6420626C746F7563685F6C61735D
:10560000745F7772697474656E5F6D6F6465206D29
:1056100069736D617463682E0A004669656C642065
:10562000736572766F5F616E676C6573206D697309
:105630006D617463682E0A004669656C6420706C45
:10564000616E6E65725F6C6576656C696E675F61D1
:105650006374697665206D69736D617463682E0A81
:10566000004669656C642070726F62655F6F666684
:10567000736574206D69736D617463682E0A0046EA
:1056800069656C642072756E6F75745F73656E7397
:105690006F725F656E61626C6564206D69736D61C8
:1056A0007463682E0A004669656C6420686F6D65D6
:1056B0005F6F6666736574206D69736D617463688E
:1056C0002E0A004669656C642065737465707065A8
:1056D0007273206D69736D617463682E0A00204DCA
:1056E00061726C696E3D563736290A004545505245
:1056F0004F4D2076657273696F6E206D69736D61B1
:105700007463682028454550524F4D3D00506C65EC
:10571000617365205265736574005052494E54455B
:10572000522048414C5445440025533A202553000B
:105730004B494C4C45442E20005072696E74657282
:105740002068616C7465642E206B696C6C2829205C
:1057500063616C6C6564210A006563686F3A00459B
:1057600072726F723A00486F74656E6420746F6F66
:1057700020636F6C640A004D3630303A20546F6FEE
:1057800020436F6C6400486F74656E6420746F6FA3
:1057900020636F6C640A00507265737320627574C5
:1057A000746F6E20746F20726573756D650A0049A1
:1057B0006E736572742066696C616D656E742061CC
:1057C0006E6420707265737320627574746F6E0AF4
:1057D00000507265737320627574746F6E20746FFD
:1057E0002068656174206E6F7A7A6C650A00436187
:1057F0006E6E6F74206F70656E207375626469726F
:10580000200053442063617264206F6B0A006F7044
:10581000656E526F6F74206661696C65640A00760C
:105820006F6C756D652E696E6974206661696C6553
:10583000640A00534420696E6974206661696C0AC9
:10584000005072696E742066726F6D204D656469D8
:105850006100486F6D6520257325732573204669A7
:1058600072737400496E736572742066696C616D41
:10587000656E7420616E642070726573732062754A
:1058800074746F6E0A004361703A0047322F4733D9
:105890002062616420706172616D65746572730A63
:1058A00000004E02B00111241FBECFEFD1E2DEBFD7
:1058B000CDBF00E00CBF13E0A0E0B2E0E0E4F9E807
:1058C00002E00BBF02C007900D92AE37B107D9F7C7
:1058D00026E1AEE7B3E001C01D92AB33B207E1F7BA
:1058E0001CE2C2E5DCE200E006C021970109802F3E
:1058F000FE010F94E840C135D10780E00807A9F701
:105900000F94DE290D948E440C9400002F923F9248
:105910004F925F926F927F928F929F92AF92BF92BF
:10592000CF92DF92EF92FF920F931F93CF93DF936B
:10593000CDB7DEB7CF54D1090FB6F894DEBF0FBE96
:10594000CDBF2F968FAF2F97209132162D962FAF68
:105950002D97FF24F394F0923216809189048D34B0
:1059600009F42EC2843511F40C94B63D873411F03D
:105970000C94D13D20918704309188042C3031055E
:1059800009F461C19CF4243031053CF42230310526
:105990000CF002C137FF29C00FC22430310509F4D1
:1059A00009C12530310509F444C106C22C31310545
:1059B00009F467C154F42531310511F40C94D33D39
:1059C0002B31310509F443C1F7C12B35310509F4F9
:1059D00068C12C35310509F469C12A35310509F052
:1059E000EBC1109287030C94D33D80912F07813037
:1059F00011F00C94D33D0E94EB978BEB97E00F9442
:105A00000D0580910B0E83FD88C020914A023091D4
:105A10004B0240914C0250914D026091C70770912A
:105A2000C8078091C9079091CA070F94FB39882352
:105A300009F473C08091580881111EC020E030E045
:105A4000A9016091AD107091AE108091AF1090914E
:105A5000B0100F94F1400F945D42209134023091C8
:105A600035026217730744F40F942B1582E397E015
:105A70000F94C91411E001C010E020914A02309146
:105A80004B0240914C0250914D026091C7077091BA
:105A9000C8078091C9079091CA070F94F0406B0125
:105AA0007C0120E030E0A9010F94514387FF04C03E
:105AB000F7FAF094F7F8F094209130023091310227
:105AC0004091320250913302C701B6010F94613AFE
:105AD00020E030E048E453E40F94514318163CF4BE
