:100000000C94722F0C94A32F0C94A32F0C94A32F59
:100010000C94A32F0C94A32F0C94A32F0C94A32F18
:100020000C94A32F0C94A32F0C94A32F0C94A32F08
:100030000C94A32F0C9485E40C94A32F0C94A32F61
:100040000C94A32F0C94ADAE0C94A32F0C94A32F5F
:100050000C94A32F0C94A32F0C94B29A0D94012B03
:100060000C94A32F0C94EF4E0C94E54E0C94A32FFC
:100070000C94A32F0C94A32F0C94A32F0C94A32FB8
:100080000C940B480C94A32F0C94A32F0C94A32F27
:100090000C94A32F0C94A32F0C94A32F0C94A32F98
:1000A0000C94A32F0C94A32F0C94DD470C94A32F36
:1000B0000C94A32F0C94A32F0C94A32F0C94AF4754
:1000C0000C94A32F0C94A32F0C94A32F0C94A32F68
:1000D0000C94A32F0C94A32F0C94A32F0C94A32F58
:1000E0000C94A32FA65115504E50E2514E504E5035
:1000F0004E504E504E504E504E504E504E504E5010
:100100004E504E504E504E504E504E504E504E50FF
:100110004E504E504E504E504E504E504E504E50EF
:10012000DC514E504E504E504E504E504E504E5050
:100130004E50B5514E504E504E504E504E504E5067
:100140004E504E504E504E50F9514B50C092E2928C
:10015000029327934C93039571939493B793DC93F5
:10016000019426944B94709403959594BA94DF94DB
:100170007296759679967C967F96A99683968696C2
:100180008A968D969096949697969A96A9969E960C
:10019000A196A4967C01C402420122022601C0025B
:1001A0003A026A013C01D00112024402F00130021D
:1001B0001802E8010A022802B201B4011602340151
:1001C000A6029802B4020E0228029602E001A402DE
:1001D0009E017E027401DE019C014C02F601FA01CF
:1001E0006A02D2018E025E01B00110024C02660268
:1001F00068028A01084AD73B3BCE016E84BCBFFD32
:10020000C12F3D6C74319ABD56833DDA3D00C77FE6
:1002100011BED9E4BB4C3E916BAAAABE000000807F
:100220003F05A84CCDB2D44EB93836A9020C50B90E
:10023000918688083CA6AAAA2ABE000000803F003A
:100240000C9401940D94AE0B0C943C6D0D944E08DF
:100250000C94BF740C94DC930C943F6D0C949363DA
:100260000D9430050C9420850D94F6200C946B743D
:100270000D94D90B0C9422850D9457080C9449D9F0
:100280000C943ED90D944B080C94A14F0C94799684
:100290000C9461740D94C2080D9465090C94C568A2
:1002A0000C944E500D94960B0D9450050C944B509D
:1002B0000C94066C0C9445720C94A24F0D9454222D
:1002C0000C94BA940C94AC630C9448AE0C94EFDA92
:1002D0000C9466740D9460080C94B7930C94269457
:1002E0000D9428050C94EF770D9408220C94C0927D
:1002F0000C94D3850C9449520D946F080D94FB0D0A
:100300000D94430E0D94C0020D94840B0D944C0576
:100310000C945C740D948B220C944A720D949A0C7C
:100320000D9433090C94B5510C940D6C0C942F72F0
:100330000C94426D0C9486960D941C220D94FE2113
:100340000C945E650C9440720D9444050C94EDDAA7
:100350000C9445820D94DB080C94B2720C941550E9
:100360000D9463220D94E8200D94EC200D94B109B6
:100370000D94CD090C9495940C9403950C94886875
:100380000D946E0D0C944B940D94600A0D94F4082A
:100390000C94A9960C941BD90C94D7850D94B40B8E
:1003A0000D946D080D9440220D94A5090D944334CD
:1003B0000C947B6D0D94A20B0C94E2510D941222BF
:1003C0000D9412210C9470720D943C050C94DF94E2
:1003D0000D94D7200C94EE840C947C630C94887953
:1003E0000D94E1200C940D850C941C850D9426220F
:1003F0000D94A80B0D942E220D9434050D94B00D80
:100400000C942DE40D9446090D9475080C947A9A79
:100410000C949E960D94DD200C949A960D940821D0
:100420000D946D220D945A080C94ACE30D94F220B7
:100430000D94D3200D941A090D945F090C94DB855B
:100440000D9448050D9472080C94AA630C9476726E
:100450000D941B210C94A1960D942C050C941B6BF0
:100460000D94E4200C94A54F0C94D9850C9422771C
:100470000C941E850D9454080C940A6C0C94979659
:100480000C94C7740C947C960D945D080C9469F7D9
:100490000C943B720C944C930D9495220D948C0704
:1004A0000D9422330C9402930C94EBDA0D94BF0D4F
:1004B0000D9420030C94D5850C94F9510D944704A8
:1004C0000C949A6D0C94FBDB0D949C0B0D9477228D
:1004D0000D9481220D9436220C94DC810C94759637
:1004E0000D948A0B0C9464720C9490960C948A96DA
:1004F0000C94DC510C945B830C9482F70D940322D2
:100500000C94106C0C9431F30C9454D90C9404E4B6
:100510000C94F5DA0D94A9080C948D960D944A224A
:100520000C94306A0C9470940D9490080D940E21E4
:100530000D9400210C94FD6E0D9440050C94719364
:100540000D94900B0C9494960D9416210D94FA2012
:100550000D9438050C946A720C9483960C947296E0
:100560000C94A4960C9424850D9404210C94279348
:100570000C945A6D0D94BA0B0D9462090C947F96ED
:100580000D9451080C94E2920D9448080C949493A5
:100590000C94D6E30D9401030D94B9030C94A97542
:1005A0000C94A6510D9407094E414E494E49545999
:1005B000494E46CDCCCC3D0AD7233C17B7D138772E
:1005C000CC2B329595E6241FB14F0A000020410044
:1005D00000C84200401C4620BCBE4CCA1B0E5AAE8E
:1005E000C59D7400407A10F35A00A0724E1809009D
:1005F00010A5D4E80000E87648170000E40B540288
:100600000000CA9A3B000000E1F5050000809698C2
:1006100000000040420F000000A086010000001012
:100620002700000000E80300000000640000000054
:10063000000A00000000000100000000002C76D835
:1006400088DC674F0823DFC1DFAE59E1B1B796E51B
:10065000E3E453C63AE651997696E8E6C28426EB7F
:10066000898C9B62ED407C6FFCEFBC9C9F40F2BA92
:10067000A56FA5F490055A2AF75C936B6CF9676D2A
:10068000C11BFCE0E40D47FEF520E6B500D0ED907F
:100690002E0300943577050080841E080000204E4C
:1006A0000A000000C80C333333330F986E128311E5
:1006B00041EF8D2114893BE65516CFFEE6DB18D1BC
:1006C000844B381BF77C1D901DA4BBE4242032848E
:1006D000725E228100C9F124ECA1E53D27434F4D14
:1006E0004D554E49434154494F4E0044525952557D
:1006F0004E004552524F525300494E464F0045431B
:10070000484F0020746F6F206C6F6E67206578749F
:10071000727573696F6E2070726576656E7465644C
:100720000A0020636F6C6420657874727573696F5A
:100730006E2070726576656E7465640A005761722A
:1007400074656E2E2E2E00486F6D652058592066F8
:10075000697273740A00566F726865722058592066
:10076000686F6D656E004B6C69636B207A756D20E8
:10077000466F72747365747A656E004D6F746F7234
:10078000656E20616E6765736368616C7465740083
:10079000456E642066696C65206C6973740A00425A
:1007A0006567696E2066696C65206C6973740A0000
:1007B000286E6F2066696C65290043757272656EDC
:1007C000742066696C653A20005344207072696E2B
:1007D00074696E67206279746520004E6F742053CF
:1007E00044207072696E74696E670A002E0A0044B4
:1007F000656C6574696F6E206661696C65642C2038
:1008000046696C653A200046696C652064656C65D4
:100810007465643A0043616E6E6F74206F70656E2C
:100820002073756264697220002569730025696D03
:1008300020256973002569682025696D2025697365
:1008400000256964202569682025696D2025697364
:100850000025697920256964202569682025696D4E
:1008600020256973005072696E742074696D653A51
:100870002000496E76616C69642050696E204D6F6E
:1008800064650A006BC3BC686C742E2E2E0068650C
:10089000697A742E2E2E0045202553006F6B006F51
:1008A000666600FE06F906F206EB06DD06444542E2
:1008B00055473A004D3131322053687574646F7773
:1008C0006E004D313133205300416E79637562699A
:1008D0006320344D4158204F46462E004348414D39
:1008E0004245525F54454D50455241545552450082
:1008F0004D4F54494F4E5F4D4F444553005448456A
:10090000524D414C5F50524F54454354494F4E0055
:100910004155544F5245504F52545F53445F5354C6
:10092000415455530050524F4D50545F5355505001
:100930004F525400454D455247454E43595F504133
:100940005253455200434153455F4C494748545F19
:100950004252494748544E45535300544F47474C21
:10096000455F4C494748545300534F4654574152F2
:10097000455F504F574552004255494C445F5045E2
:100980005243454E54004C4556454C494E475F44F2
:10099000415441005A5F50524F4245004155544F17
:1009A0004C4556454C005052494E545F4A4F420008
:1009B00050524F4752455353004155544F524550A2
:1009C0004F52545F54454D5000564F4C554D455471
:1009D00052494300454550524F4D0042494E415205
:1009E000595F46494C455F5452414E53464552006B
:1009F00053455249414C5F584F4E5F584F46460051
:100A00004649524D574152455F4E414D453A4D6121
:100A1000726C696E20344D415820322E302E3533A1
:100A2000303252656C2E202847697448756229203F
:100A3000534F555243455F434F44455F55524C3ADF
:100A400068747470733A2F2F6769746875622E63C7
:100A50006F6D2F47656D696E695365727665722F8C
:100A60004D61726C696E2050524F544F434F4C5F32
:100A700056455253494F4E3A312E30204D4143484E
:100A8000494E455F545950453A416E7963756269E4
:100A90006320344D41582045585452554445525FC7
:100AA000434F554E543A3120555549443A366161C9
:100AB00031343764322D666664352D313165392D18
:100AC000386437312D333632623965313535363653
:100AD000370A002F2F20004D31343520533C696EEA
:100AE0006465783E206F7574206F662072616E6752
:100AF000652028302D31290A0020520041636365AA
:100B00006C65726174696F6E3A2050003F4A206FC5
:100B10007574206F662072616E67652028302E30F4
:100B20003120746F20302E33290A0046523A0020BB
:100B3000466C6F773A200050726F74656374656419
:100B40002050696E0A00496E76616C696420657890
:100B50007472756465720A0020643A0020693A0074
:100B600020703A0064697300656E0043290A0061D1
:100B7000626C656420286D696E2074656D7020005C
:100B8000436F6C642065787472756465732061725C
:100B90006520004F4646004F4E0046696C616D650A
:100BA0006E742072756E6F75742000486F6D657677
:100BB00065727361747A20616B7469760045727234
:100BC0003A20546F6F206661722100546F6F206667
:100BD00061722066726F6D207265666572656E6304
:100BE0006520706F696E740A00454550524F4D2064
:100BF0004F4B0A00446F6E65207072696E74696EA7
:100C0000672066696C650A004D3737004D33310047
:100C1000496E76616C69642065787472756465727A
:100C20000A004572726F722077726974696E67206C
:100C3000746F20454550524F4D210A003637260328
:100C40003C3D380E2E303E121A1C1808440A2C4324
:100C50000809072C0001627573793A207061757379
:100C6000656420666F7220696E7075740A00627523
:100C700073793A2070617573656420666F722075B0
:100C80007365720A00627573793A2070726F6365DA
:100C90007373696E670A004D36303000414E474528
:100CA00048414C54454E005072696E746572207311
:100CB000746F707065642064756520746F20657250
:100CC000726F72732E204669782074686520657291
:100CD000726F7220616E6420757365204D393939E9
:100CE00020746F20726573746172742E20285465AD
:100CF0006D706572617475726520697320726573B9
:100D000065742E2053657420697420616674657261
:100D10002072657374617274696E67290A004E6F80
:100D200020436865636B73756D2077697468206C08
:100D3000696E65206E756D6265722C204C617374EE
:100D4000204C696E653A20004E6F20436865636BE6
:100D500073756D2077697468206C696E65206E7597
:100D60006D6265722C204C617374204C696E653A1B
:100D70002000636865636B73756D206D69736D61C9
:100D80007463682C204C617374204C696E653A2042
:100D9000004C696E65204E756D6265722069732026
:100DA0006E6F74204C617374204C696E65204E75B3
:100DB0006D6265722B312C204C617374204C696E0E
:100DC000653A20004D313130005344207265616432
:100DD000206572726F720A002121204B494C4C2011
:100DE00063617573656420627920746F6F206D751F
:100DF000636820696E6163746976652074696D65E6
:100E0000202D2063757272656E7420636F6D6D6145
:100E10006E643A20004572723A2075746638206616
:100E20006F6E74206E6F7420696E697469616C698D
:100E30007A65642E002568753A253032687500257C
:100E4000303268753A25303268750025687564203F
:100E500025303268753A253032687500000C0D0077
:100E6000FE07022603BC01FFFE0AFE08FE05080875
:100E700006000040F0C88888987810050808060029
:100E800000C0F88888888888F805050506000120D4
:100E900030F830200508080600002070F8202020D7
:100EA00020E00509090600FF2070A8A8B88888700E
:100EB00020050606060001E08CEA8C8A0A0509096D
:100EC0000600FFF8A88888888888A8F8050A0A0616
:100ED00000FE205050505088A8A8887003030306D5
:100EE000000340A040FFFFFFFFFFFFFFFFFFFFFFEA
:100EF000FFFFFFFFFFFFFFFFFFFFFF0000000605F2
:100F0000FF010707060200808080808000800303C5
:100F100003060105A0A0A005060606000050F85033
:100F200050F8500509090600FF2070A8A07028A8F5
:100F30007020050707060000C8C8102040989805D3
:100F4000070706000040A0A040A890680103030620
:100F500002058080800309090601FF20404080804F
:100F6000804040200309090601FF804040202020E6
:100F700040408005070706000020A8702070A820C8
:100F80000505050600012020F820200203030601C4
:100F9000FFC04080050101060003F80202020601BD
:100FA00000C0C00507070600000810102040408060
:100FB000050707060000708898A8C888700307070F
:100FC00006010040C040404040E005070706000021
:100FD000708808102040F8050707060000F8081080
:100FE0003008887005070706000010305090F81090
:100FF00010050707060000F880F00808887005074C
:1010000007060000304080F088887005070706005A
:1010100000F808101020202005070706000070883F
:10102000887088887005070706000070888878082F
:101030001060020505060100C0C000C0C00206061F
:101040000601FFC0C000C040800305050601012065
:1010500040804020050303060002F800F803050560
:1010600006010180402040800507070600007088C7
:1010700010202000200507070600007088B8A8B8D7
:101080008070050707060000708888F88888880542
:101090000707060000F04848704848F005070706B3
:1010A000000070888080808870050707060000F0C7
:1010B0004848484848F0050707060000F88080F0D7
:1010C0008080F8050707060000F88080F0808080A7
:1010D000050707060000708880809888700507075C
:1010E000060000888888F8888888030707060100BA
:1010F000E04040404040E00507070600003810107F
:10110000101090600507070600008890A0C0A0900E
:1011100088050707060000808080808080F805072A
:101120000706000088D8A888888888050707060071
:10113000008888C8A8988888050707060000708876
:101140008888888870050707060000F08888F08086
:10115000808005070706000070888888A8906805C9
:101160000707060000F08888F0A0908805070706AA
:10117000000070888070088870050707060000F876
:101180002020202020200507070600008888888866
:1011900088887005070706000088888888505020D6
:1011A00005070706000088888888A8A85005070753
:1011B0000600008888502050888805070706000030
:1011C00088885020202020050707060000F8081016
:1011D000204080F80309090601FFE08080808080BC
:1011E0008080E005070706000080404020101008BE
:1011F0000309090601FFE020202020202020E0052F
:1012000003030600052050880501010600FEF803CF
:10121000030306010580402005050506000070084F
:101220007888780507070600008080F0888888F0B5
:101230000505050600007080808870050707060018
:1012400000080878888888780505050600007088F9
:10125000F08070050707060000304840E04040403D
:101260000507070600FE708888887808700507075C
:101270000600008080F08888888803070706010040
:101280004000C0404040E00409090601FE10003063
:1012900010101010906005070706000080808890ED
:1012A000E09088030707060100C04040404040E04E
:1012B000050505060000D0A8A8A8A8050505060094
:1012C00000B0C888888805050506000070888888F1
:1012D000700507070600FEF0888888F08080050703
:1012E000070600FE78888888780808050505060046
:1012F00000B0C88080800505050600007880700871
:10130000F00507070600002020F82020201805051A
:10131000050600008888889868050505060000888D
:10132000888850200505050600008888A8A8500573
:10133000050506000088502050880507070600FEB6
:1013400088888850204080050505060000F8102098
:1013500040F80309090601FF20404040804040401A
:10136000200109090602FF808080808080808080C3
:101370000309090601FF80404040204040408005AD
:10138000030306000248A890FFFFFFFFFFFFFFFFD7
:10139000FFFFFFFFFFFFFFFFFFFFFFFFFFFFFFFF5D
:1013A000FFFFFFFFFFFFFFFFFF0000000605FF013B
:1013B00007070602008000808080808005070706FE
:1013C00000FF2070A8A0A8702005070706000030C5
:1013D0004840E04048B0050505060000A850885088
:1013E000A80507070600008850F820F8202001070C
:1013F00007060200808080008080800408080601C3
:101400000070806090906010E0030101060107A069
:101410000607070600007884B4A4B48478030505A1
:1014200006010460A06000E00505050600002850E4
:10143000A05028050303060001F80808030101066F
:101440000103E00607070600007884B4A4A48478AA
:10145000050101060007F8040404060105609090E8
:10146000600507070600002020F8202000F803058B
:101470000506010440A02040E0030505060104C064
:10148000204020C003030306010520408005070714
:101490000600FE88888898E8808005080806000015
:1014A00078E8E8E868282828020202060203C0C09B
:1014B0000302020601FE20C003050506010440C028
:1014C0004040E003050506010540A04000E0050599
:1014D00005060000A0502850A0050A0A060000409A
:1014E000C048506050B0507810050A0A060000400D
:1014F000C048506050A8081038050A0A060000C00D
:10150000204830E050B05078100507070600002052
:10151000002020408870050A0A0600004020007064
:101520008888F8888888050A0A060000102000705C
:101530008888F8888888050A0A060000205000700C
:101540008888F8888888050A0A06000068B0007054
:101550008888F88888880509090600005000708886
:1015600088F8888888050A0A0600002050207088BC
:1015700088F888888805070706000078A0A0F0A0F2
:10158000A0B80509090600FE708880808088701068
:1015900060050A0A060000402000F88080F0808084
:1015A000F8050A0A060000102000F88080F080800C
:1015B000F8050A0A060000205000F88080F08080BC
:1015C000F80509090600005000F88080F08080F8D6
:1015D000030A0A060100804000E04040404040E02D
:1015E000030A0A060100204000E04040404040E07D
:1015F000030A0A06010040A000E04040404040E0ED
:10160000030909060100A000E04040404040E00519
:101610000707060000704848E8484870050A0A06AF
:10162000000068B0008888C8A8988888050A0A065B
:10163000000040200070888888888870050A0A06A3
:10164000000010200070888888888870050A0A06C3
:10165000000020500070888888888870050A0A0673
:10166000000068B0007088888888887005090906BD
:10167000000050007088888888887005050506007D
:101680000188502050880509090600FF087098A8B5
:10169000A8A8C87080050A0A0600004020008888B3
:1016A0008888888870050A0A06000010200088884B
:1016B0008888888870050A0A0600002050008888FB
:1016C0008888888870050909060000500088888885
:1016D00088888870050A0A06000010200088885053
:1016E0002020202004070706010080E0909090E071
:1016F00080050707060000708890A09088B0050854
:101700000806000040200070087888780508080660
:10171000000010200070087888780508080600008E
:10172000205000700878887805080806000068B026
:1017300000700878887805070706000050007008D8
:1017400078887805080806000020502070087888FE
:1017500078050505060000702870A07805070706C3
:1017600000FE708880887010600508080600004040
:1017700020007088F0807005080806000010200026
:101780007088F080700508080600002050007088FE
:10179000F0807005070706000050007088F0807028
:1017A000030808060100804000C0404040E00308F4
:1017B00008060100204000C0404040E00308080641
:1017C000010040A000C0404040E0030707060100C0
:1017D000A000C0404040E00509090600005020502C
:1017E00008788888887005080806000068B000B08E
:1017F000C88888880508080600004020007088888E
:10180000887005080806000010200070888888701D
:1018100005080806000020500070888888700508B8
:101820000806000068B00070888888700507070601
:1018300000005000708888887005050506000120AA
:1018400000F800200505050600007898A8C8F005F6
:10185000080806000040200088888888700508086D
:101860000600001020008888888870050808060097
:1018700000205000888888887005070706000050FF
:10188000008888888870050A0A0600FE10200088F3
:101890008888502040800509090600FE8080F08875
:1018A0008888F080800509090600FE500088888835
:1018B00050204080220A00656E7175657565696EFD
:1018C000672022006F6B00526573656E643A2000DA
:1018D00020573A0042657474206BC3BC686C742E48
:1018E0002E2E0042657474206865697A742E2E2E3F
:1018F0000023646566696E652044454641554C5435
:101900005F004B6420004B6920004B702000504961
:1019100044204175746F74756E652066696E6973D5
:10192000686564212050757420746865206C61734B
:1019300074204B702C204B6920616E64204B642016
:10194000636F6E7374616E74732066726F6D206264
:10195000656C6F7720696E746F20436F6E66696780
:1019600075726174696F6E2E680A00504944204197
:1019700075746F74756E65206661696C656421208D
:1019800074696D656F75740A00504944204175741F
:101990006F74756E65206661696C6564212054659D
:1019A0006D706572617475726520746F6F206869FF
:1019B00067680A00204B643A2000204B693A2000F7
:1019C000204B703A20000A20436C617373696320D6
:1019D000504944200A002054753A2000204B753AA3
:1019E0002000206D61783A2000206D696E3A200059
:1019F00020643A200020626961733A200050494413
:101A0000204175746F74756E652073746172740A09
:101A100000504944204175746F74756E652066618D
:101A2000696C6564212054656D70657261747572AE
:101A30006520746F6F20686967680A005049442008
:101A40004175746F74756E65206661696C6564219B
:101A500020426164206578747275646572206E75C9
:101A60006D6265720A004572723A2075746638209C
:101A7000666F6E74206E6F7420696E697469616C34
:101A8000697A65642E004572723A20757466382052
:101A9000666F6E74206E6F7420696E697469616C14
:101AA000697A65642E004C6164656E206D6D004539
:101AB0006E746C6164656E206D6D0046696C616D5D
:101AC000656E7464757263686D65737365720045E5
:101AD00020696E206D6DC2B3004D33303320553117
:101AE00020452569205325690050494420417574DB
:101AF0006F74756E65202A005049442D44202A00D9
:101B00005049442D49202A005049442D50202A0094
:101B100020082046616B746F72002008206D617888
:101B2000002008206D696E0061757300616E0041D0
:101B300075746F2054656D706572617475720056AE
:101B4000206D696E204C656572666168727400561E
:101B5000206D696E200056206D617820450056206A
:101B60006D6178205A0056206D617820590056200A
:101B70006D617820580046494C414D454E542045F2
:101B80004E544C4144454E0046494C414D454E54FF
:101B9000204C4144454E0046494C414D454E542051
:101BA0005745434853454C003F004EC3A4636873F8
:101BB0007465204B6F6F7264696E61746500466571
:101BC000727469670057656974657200486F6D6962
:101BD0006E672058595A00426574740044C3BC7340
:101BE00065004CC3BC66746572004B6F6E666967B6
:101BF00075726174696F6E004B6F6E6669672E2037
:101C00006C6164656E005374616E646172647765C3
:101C1000727465206C6164656E004B6F6E666967F7
:101C20002E2073706569636865726E005045544775
:101C30002045696E7374656C6C756E67656E0050D7
:101C40004C412045696E7374656C6C756E67656E8A
:101C50000061757300616E0052756E6F75742D535F
:101C6000656E736F72004572772E2045696E7374CE
:101C7000656C6C756E67656E0048617570746D6536
:101C80006EC3BC004D37303220542564004D3630D1
:101C90003020423020542564004D373032203B251F
:101CA00064004D37303120542564004D3730320008
:101CB0004D373031004D36303020423000486175AC
:101CC00070746D656EC3BC0061757300616E005207
:101CD000756E6F75742D53656E736F72004D656808
:101CE0007220656E746C6164656E00447275636B1E
:101CF0002077656974657200464F5254532E204F09
:101D00005054494F4E454E3A00445255434B205093
:101D10004155534945525400202044C3BC73653A91
:101D200020003F0053746172746520447275636BC8
:101D30000041626272656368656E00447275636B30
:101D4000656E0043616E6E6F7420656E74657220FF
:101D50007375626469723A2000022E2E0048617524
:101D600070746D656EC3BC004265776567756E679C
:101D7000004D3834004D6F746F72656E206465617C
:101D80006B746976696572656E0045636B656E207C
:101D90006E6976656C6C696572656E004732385A9B
:101DA00000486F6D65205A004732385900486F6D02
:101DB000652059004732385800486F6D652058003B
:101DC000473238004175746F20486F6D6500486177
:101DD0007570746D656EC3BC00504C4120426574D3
:101DE0007420566F7277C3A4726D656E00504C41BB
:101DF00020457874722E20566F7277C3A4726D6579
:101E00006E001FE03FF03FF03FF01FE01FE03FF0AB
:101E10003FF03FF00FC0078003001FE020102010AC
:101E20002010102010202010201030300840048096
:101E300003003FFFF83E00F839F03831E01831E098
:101E40001821E1E820F3E8207FE82077E828EE2851
:101E50002FDC082FFC082F9E082F0F08300F18309A
:101E60000F18381F383E00F83FFFF83FFFF83E00DC
:101E7000F8383F38307E18307C18287C082C380819
:101E80002F39C82FFFE82FC7E82FFFE82739E820B0
:101E90003868207C28307C1830FC1839F8383E002F
:101EA000F83FFFF83FFFF83E00F8380F38341FD8EE
:101EB000361F982F1F082F9E082FFC082FDC08279D
:101EC000EFC82077E8207FE820F3E821F1E833F03D
:101ED000D837F05839E0383E00F83FFFF83FFFF8B8
:101EE0003E80F83980383781D837C3D827C7E823F0
:101EF000C7F821FF88206C08206C08206C0823FF9D
:101F0000083FC7882FC7C83787D83703D838033862
:101F10003E02F83FFFF81FFFF81FFFF804104002D1
:101F200008200208200410400820801041001041C1
:101F3000000820800410400000001FFFF81FFFF879
:101F40002100140706003372D1C089003F0B152110
:101F500009002D3A15220900214A15240900213AC9
:101F60001527A600000000000000FFFFFFFFFFC0D4
:101F70000000000000000B1870E1C3801B0CF0E0B3
:101F8000E7003B27F07076003B33F13030007B33C5
:101F900033B818007BB033B80C007BB0373C6E0010
:101FA0000330377CE7000330360DC38000000000AB
:101FB0000000FFFFFFFFFFC000000000000007005F
:101FC0000008400009649D2F0E000F54A129500005
:101FD0000954A12950000957BDEF5E0000008000A0
:101FE000000000078000000000000000000000006A
:101FF0000000000041206D617820450041206D61A6
:1020000078205A0041206D617820590041206D618F
:102010007820580041204C656572666168727400D2
:10202000412045696E7A75670042657363686C6527
:10203000756E6967756E67004A756E6374696F6E59
:102040002044657600452053746570732F6D6D00D4
:102050005A2053746570732F6D6D00592053746549
:1020600070732F6D6D00582053746570732F6D6DF4
:10207000004572772E2045696E7374656C6C756EC1
:1020800067656E003F0041626272656368656E005D
:1020900042657374C3A4746967656E004D34323849
:1020A000005765726B7365696E7374656C6C756EE1
:1020B00067656E0046696C616D656E740054656D90
:1020C000706572617475720053746570732F6D6DF5
:1020D000004A65726B0042657363686C65756E6972
:1020E00067756E6700476573636877696E646967D3
:1020F0006B656974005365747A6520486F6D657609
:1021000065727361747A004B6F6E66696775726190
:1021100074696F6E0024F4D43050C38E20C2A24084
:1021200017828B7011127A910D816CD90AA861E126
:1021300008C7586607615143061E4B5D05C145A798
:10214000041A411104093D9803713931034036DB0B
:102150000265339102D4305402802E1D02632CEEAE
:1021600001752AC501B028A001102781018F2564BF
:10217000012B244B01E0223401AC211F018D200DE5
:1021800001801FFC00841EED00971DDF00B81CD2EB
:1021900000E61BC600201BBC00641AB200B219A8DE
:1021A000000A19A0006A189900D117910040178BF6
:1021B00000B516840031167E00B31579003A157308
:1021C00000C7146F0058146A00EE1366008813638A
:1021D0000025135E00C7125B006C125700151254E5
:1021E00000C111510070114F0021114B00D6104950
:1021F000008D1047004610440002104200C00F40FE
:1022000000800F3E00420F3C00060F3B00CB0E3813
:1022100000930E37005C0E3500270E3400F30D32AC
:1022200000C10D3100900D3000600D2E00320D2DDB
:1022300000050D2C00D90C2B00AE0C2900850C29B3
:10224000005C0C2700350C27000E0C2600E80B2440
:1022500000C40B2400A00B23007D0B23005A0B218C
:1022600000390B2100180B2000F80A1F00D90A1EA4
:1022700000BB0A1E009D0A1D00800A1D00630A1C87
:1022800000470A1B002C0A1B00110A1A00F7091A42
:1022900000DD091900C4091900AB091900920917DA
:1022A000007B091800630917004C0916003609164F
:1022B00000200916000A091500F5081500E00814A9
:1022C00000CC081400B8081400A4081400900813E7
:1022D000007D0812006B081300580812004608120F
:1022E0000034081100230811001208110001081120
:1022F00000F0071000E0071000D0071000C0071022
:1023000000B0070F00A107100091070E0083070F10
:102310000074070F0065070E0057070E0049070EEF
:10232000003B070D002E070E0020070D0013070DC0
:102330000006070D00F9060C00ED060D00E0060C86
:1023400000D4060C00C8060C00BC060C00B0060C3D
:1023500000A4060B0099060C008D060B0082060BEC
:102360000077060B006C060B0061060A0057060B8F
:10237000004C060A0042060A0038060A002E060A29
:102380000024060A001A060A001006090007060AB9
:1023900000FD050900F4050900EB050900E2050947
:1023A00000D9050900D0050900C7050900BE0509C7
:1023B00000B5050800AD050800A50509009C050845
:1023C00000940508008C050800840508007C0508B9
:1023D00000740508006C050700650508005D050729
:1023E00000560508004E0507004705070040050890
:1023F0000038050700310507002A050700230507F7
:10240000001C050600160507000F05070008050655
:102410000002050700FB040600F5040700EE0406B1
:1024200000E8040600E2040700DB040600D5040609
:1024300000CF040600C9040600C3040600BD04065C
:1024400000B7040600B1040500AC040600A60406AB
:1024500000A00405009B04060095040500900406F6
:10246000008A04050085040500800406007A04053E
:102470000075040500700405006B04050066040582
:1024800000610405005C04050057040500520405C2
:10249000004D04050048040500430405003E040403
:1024A000003A04050035040500300404002C04053E
:1024B0000027040400230405001E0404001A040479
:1024C0000016040500110404000D040400090405AD
:1024D000000404040000040400FC030400F80304E6
:1024E00000F4030400F0030400EC030400E8030418
:1024F00000E4030400E0030400DC030400D8030448
:1025000000D4030400D0030400CC030400C8030378
:1025100000C503030024F404D9201BC40C5C0E98EE
:1025200004C4095F0265077101F405F900FB04B3F7
:102530000048048700C103690058035500030345A0
:1025400000BE023A008402310053022A002902250B
:102550000004022000E4011C00C8011900AF0117AB
:102560000098011400840113007101100061011032
:102570000051010E0043010D0036010B002B010B31
:102580000020010B00150109000C010900030108DE
:1025900000FB000800F3000800EB000700E4000661
:1025A00000DE000600D8000600D2000600CC0005C0
:1025B00000C7000500C2000500BD000400B900040A
:1025C00000B5000400B1000400AD000400A900043F
:1025D00000A5000300A20003009F0004009B00036D
:1025E0000098000300950002009300030090000390
:1025F000008D0002008B00030088000200860002AC
:102600000084000300810002007F0002007D0002C0
:10261000007B0002007900020077000100760002D2
:10262000007400020072000100710002006F0002DD
:10263000006D0001006C0002006A000100690002E8
:1026400000670001006600010065000100640002EF
:10265000006200010061000100600001005F0002F3
:10266000005D0001005C0001005B0001005A0001F8
:1026700000590001005800010057000100560001F8
:1026800000550001005400010053000000530001F8
:10269000005200010051000100500001004F0001F4
:1026A000004E0000004E0001004D0001004C0001F2
:1026B000004B0000004B0001004A000100490001EE
:1026C00000480000004800010047000100460000EB
:1026D00000460001004500000045000100440001E3
:1026E00000430000004300010042000000420001DE
:1026F000004100000041000100400001003F0000D7
:10270000003F0001003E0000003E0001003D0000CF
:10271000003D0001003C0000003C0000003C0001C6
:10272000003B0000003B0001003A0000003A0001BD
:1027300000390000003900010038000000380000B6
:1027400000380001003700000037000100360000AB
:1027500000360000003600010035000000350000A2
:102760000035000100340000003400000034000196
:10277000003300000033000000330001003200008D
:102780000032000000320001003100000031000082
:102790000031000100300000003000000030000176
:1027A000002F0000002F0000002F0000002F00016C
:1027B000002E0000002E0000002E0001002D000061
:1027C000002D0000002D0000002D0001002C000055
:1027D000002C0000002C0000002C0001002B000049
:1027E000002B0000002B0000002B0001002A00003D
:1027F000002A0000002A0000002A00010029000031
:102800000029000000290000002900000029000123
:102810000028000000280000002800000028000018
:10282000002800010027000000270000002700000A
:1028300000270000002700010026000000260000FD
:1028400000260000002600000026000100250000F0
:1028500000250000002500000025000000250000E4
:1028600000250001002400000024000000240000D6
:1028700000240000002400010023000000230000C9
:1028800000230000002300000023000000230000BC
:1028900000230001002200000022000000220000AE
:1028A00000220000002200000022000100210000A0
:1028B0000021000000210000002100000021000094
:1028C0000021000000210001002000000020000085
:1028D0000020000000200000002000000020000078
:1028E0000020000000200001001F0000001F000069
:1028F000001F0000001F0000001F0000001F00005C
:10290000001F0001001E0000001E0000001E00004D
:10291000001E000000393000003325000087190038
:1029200000B00F0000DB080000BD040000740200CE
:10293000003F01000001FFFFFFFFFFFFFFFFFFFF60
:10294000FFFFFF0FFFFFFFFFFFFFFFFFFFFFFFFF87
:10295000FF1E0000000000000000000007FFFF381D
:102960000000000000000000000003FFFF700000F6
:10297000000000000000000001FFFF6000000000F8
:1029800000000000000000FFFF60000000000000E9
:1029900000000000007FFFC00000000000000000F9
:1029A0007800003FFFC00FC0FC0000000000781856
:1029B000001FFFC03FE1FF0000000000783C000F57
:1029C000FFC07FF3FF8000000000783C0007FFC0DD
:1029D000FFFFFFC000000000783C0003FFC1F87F4C
:1029E00087E00000000078000001FFC1F03F03E035
:1029F0000000000078000000FFC1E01E01E01F00A1
:102A000003E0783C03F07FC1E01E01E07FC00FF8D7
:102A1000783C07FC3FC1E01E01E1FFE01FFC783C71
:102A20000FFE1FC1E01E01E3FFF03FFE783C1FFEDA
:102A30000FC1E01E01E3F3F83F3E783C3F3F07C182
:102A4000E01E01E7E0FC7C1F783C3E1F07C1E01E52
:102A500001E7C07C7C0F783C3C0F03C1E01E01E71E
:102A6000807C780F783C3C0F03C1E01E01E7803C7E
:102A70007800783C3C0F03C1E01E01E7803C780001
:102A8000783C3C0F03C1E01E01E7803C7800783CB5
:102A90003C0F03C1E01E01E7C03C7800783C3C0FCE
:102AA00003C1E01E01E3E03C78007C3C3C0F03C125
:102AB000E01E01E3FF3FF8007FBC3C0F03C1E01EB6
:102AC00001E1FF3FF8003FBFFC0F03C1E01E01E042
:102AD000FF3FF8001FBFFC0F03C1E01E01E07F3F76
:102AE000F8000FBFFC0F03600000000000000000B2
:102AF000000000000760000000000000000000006F
:102B0000000006700000000000000000000000004F
:102B10000E380000000000000000000000001C1E35
:102B2000000000000000000000000000780FFFFF20
:102B3000FFFFFFFFFFFFFFFFFFFFF001FFFFFFFFB2
:102B4000FFFFFFFFFFFFFFFF8001FFFFFFFFFFFF12
:102B5000FFFFFFFFFFFFFF0FFFFFFFFFFFFFFFFF75
:102B6000FFFFFFFFFF1E000000000000000000004C
:102B700007FFFF380000000000000000000003FF16
:102B8000FF700000000000000000000001FFFF6077
:102B90000000000000000000000000FFFF600000D7
:102BA0000000000000000000007FFFC000000000E7
:102BB000000000007800003FFFC00FC0FC000000D4
:102BC00000007818001FFFC03FE1FF000000000078
:102BD000783C000FFFC07FF3FF8000000000783CCE
:102BE0000007FFC0FFFFFFC000000000783C0003AB
:102BF000FFC1F87F87E00000000078000001FFC1FE
:102C0000F03F03E00000000078000000FFC1E01E7C
:102C100001E01F0003E0783C00007FC1E01E01E0FE
:102C20007FC00FF8783C00003FC1E01E01E1FFE0EB
:102C30001FFC783C00001FC1E01E01E3FFF03FFED7
:102C4000783C00000FC1E01E01E3F3F83F3E783C02
:102C5000000007C1E01E01E7E0FC7C1F783C00009B
:102C600007C1E01E01E7C07C7C0F783C000003C177
:102C7000E01E01E7807C780F783C000003C1E01E75
:102C800001E7803C7800783C000003C1E01E01E7CA
:102C9000803C7800783C000003C1E01E01E7803CE6
:102CA0007800783C000003C1E01E01E7C03C7800DA
:102CB000783C000003C1E01E01E3E03C78007C3C6E
:102CC000000003C1E01E01E3FF3FF8007FBC0000ED
:102CD00003C1E01E01E1FF3FF8003FBF000003C158
:102CE000E01E01E0FF3FF8001FBF000003C1E01E2F
:102CF00001E07F3FF8000FBF00000360000000000C
:102D0000000000000000000007600000000000005C
:102D1000000000000000067000000000000000003D
:102D2000000000000E38000000000000000000005D
:102D300000001C1E00000000000000000000000059
:102D4000780FFFFFFFFFFFFFFFFFFFFFFFFFF00117
:102D5000FFFFFFFFFFFFFFFFFFFFFFFF8001FFFF00
:102D6000FFFFFFFFFFFFFFFFFFFFFF0FFFFFFFFF63
:102D7000FFFFFFFFFFFFFFFFFF1E0000000000003E
:102D80000000000007FFFF38000000000000000006
:102D9000000003FFFF7000000000000000000000C2
:102DA00001FFFF600000000000000000000000FFC5
:102DB000FF6000000000000000000000007FFFC076
:102DC00000000000000000007800003FFFC00FC0BE
:102DD000FC00000000007800001FFFC03FE1FF0082
:102DE000000000007800000FFFC07FF3FF800000AC
:102DF000000078000007FFC0FFFFFFC000000000D8
:102E000078000003FFC1F87F87E000000000780031
:102E10000001FFC1F03F03E0000000007800000067
:102E2000FFC1E01E01E01F0003E0780000007FC149
:102E3000E01E01E07FC00FF8780000003FC1E01EF7
:102E400001E1FFE01FFC780000001FC1E01E01E36C
:102E5000FFF03FFE780000000FC1E01E01E3F3F831
:102E60003F3E7800000007C1E01E01E7E0FC7C1F48
:102E70007800000007C1E01E01E7C07C7C0F7800ED
:102E8000000003C1E01E01E7807C780F780000009D
:102E900003C1E01E01E7803C78007800000003C118
:102EA000E01E01E7803C78007800000003C1E01ECE
:102EB00001E7803C78007800000003C1E01E01E7D4
:102EC000C03C78007800000003C1E01E01E3E03C54
:102ED00078007C00000003C1E01E01E3FF3FF80022
:102EE0007F00000003C1E01E01E1FF3FF8003F004A
:102EF000000003C1E01E01E0FF3FF8001F000000DA
:102F000003C1E01E01E07F3FF8000F0000000360F6
:102F1000000000000000000000000000076000004A
:102F2000000000000000000000000670000000002B
:102F300000000000000000000E380000000000004B
:102F40000000000000001C1E000000000000000047
:102F500000000000780FFFFFFFFFFFFFFFFFFFFFF4
:102F6000FFFFF001FFFFFFFFFFFFFFFFFFFFFFFF7E
:102F70008001FFFFFFFFFFFFFFFFFFFFFFFFFF0FCE
:102F8000FFFFFFFFFFFFFFFFFFFFFFFFFF1E000030
:102F9000000000000000000007FFFF3800000000F4
:102FA00000000000000003FFFF70000000000000B0
:102FB0000000000001FFFF600000000000000000B2
:102FC000000000FFFF6000000000000000000000A3
:102FD000007FFFC000000000000000000000003F74
:102FE000FFC00FC0FC00000000000000001FFFC079
:102FF0003FE1FF00000000000000000FFFC07FF372
:10300000FF800000000000000007FFC0FFFFFFC0BE
:103010000000000000000003FFC1F87F87E000000F
:10302000000000000001FFC1F03F03E000000000CD
:1030300000000000FFC1E01E01E01F0003E00000EF
:1030400000007FC1E01E01E07FC00FF8000000001B
:103050003FC1E01E01E1FFE01FFC000000001FC1B6
:10306000E01E01E3FFF03FFE000000000FC1E01E84
:1030700001E3F3F83F3E0000000007C1E01E01E756
:10308000E0FC7C1F0000000007C1E01E01E7C07CDF
:103090007C0F0000000003C1E01E01E7807C780F78
:1030A0000000000003C1E01E01E7803C7800000042
:1030B000000003C1E01E01E7803C78000000000032
:1030C00003C1E01E01E7803C78000000000003C15E
:1030D000E01E01E7C03C78000000000003C1E01ED4
:1030E00001E3E03C78000000000003C1E01E01E3C2
:1030F000FF3FF8000000000003C1E01E01E1FF3FB8
:10310000F8000000000003C1E01E01E0FF3FF800EE
:103110000000000003C1E01E01E07F3FF800000056
:10312000000003600000000000000000000000003C
:1031300007600000000000000000000000000670B2
:103140000000000000000000000000000E38000039
:10315000000000000000000000001C1E0000000035
:103160000000000000000000780FFFFFFFFFFFFFDE
:10317000FFFFFFFFFFFFF001FFFFFFFFFFFFFFFF6C
:10318000FFFFFFFF8001FFFFFFFFFFFFFFFFFFFFCC
:10319000FFFFFF0FFFFFFFFFFFFFFFFFFFFFFFFF2F
:1031A000FF1E0000000000000000000007FFFF38C5
:1031B0000000000000000000000003FFFF7000009E
:1031C000000000000000000001FFFF6000000000A0
:1031D00000000000000000FFFF6000000000000091
:1031E00000000000007FFFC00000000000000000A1
:1031F0000000003FFFC00FC0FC0000000000000006
:10320000001FFFC03FE1FF00000000000000000FB2
:10321000FFC07FF3FF800000000000000007FFC038
:10322000FFFFFFC00000000000000003FFC1F87FA7
:1032300087E00000000000000001FFC1F03F03E054
:103240000000000000000000FFC1E01E01E01F00C0
:103250000000000000007FC1E01E01E07FC0000010
:10326000000000003FC1E01E01E1FFE0000000009F
:1032700000001FC1E01E01E3FFF00000000000009D
:103280000FC1E01E01E3F3F800000000000007C1D9
:10329000E01E01E7E0FC00000000000007C1E01EA6
:1032A00001E7C07C00000000000003C1E01E01E750
:1032B000807C00000000000003C1E01E01E7803CAC
:1032C00000000000000003C1E01E01E7803C000098
:1032D0000000000003C1E01E01E7803C0000000088
:1032E000000003C1E01E01E7C03C00000000000038
:1032F00003C1E01E01E3E03C00000000000003C148
:10330000E01E01E3FF3F00000000000003C1E01EDB
:1033100001E1FF3F00000000000003C1E01E01E0EA
:10332000FF3F00000000000003C1E01E01E07F3FFE
:10333000000000000000036000000000000000002A
:103340000000000007600000000000000000000016
:1033500000000670000000000000000000000000F7
:103360000E380000000000000000000000001C1EDD
:10337000000000000000000000000000780FFFFFC8
:10338000FFFFFFFFFFFFFFFFFFFFF001FFFFFFFF5A
:10339000FFFFFFFFFFFFFFFF8001FFFFFFFFFFFFBA
:1033A000FFFFFFFFFFFFFF0FFFFFFFFFFFFFFFFF1D
:1033B000FFFFFFFFFF1E00000000000000000000F4
:1033C00007FFFF380000000000000000000003FFBE
:1033D000FF700000000000000000000001FFFF601F
:1033E0000000000000000000000000FFFF6000007F
:1033F0000000000000000000007FFFC0000000008F
:10340000000000000000003FFFC00FC0FC000000F3
:1034100000000000001FFFC03FE1FF0000000000AF
:103420000000000FFFC07FF3FF80000000000000DD
:103430000007FFC0FFFFFFC0000000000000000306
:10344000FFC1F87F87E00000000000000001FFC11D
:10345000F03F03E00000000000000000FFC1E01E9C
:1034600001E000000000000000007FC1E01E01E05C
:1034700000000000000000003FC1E01E01E000006D
:103480000000000000001FC1E01E01E0000000007D
:10349000000000000FC1E01E01E00000000000007D
:1034A000000007C1E01E01E0000000000000000075
:1034B00007C1E01E01E0000000000000000003C1A1
:1034C000E01E01E0000000000000000003C1E01E5B
:1034D00001E0000000000000000003C1E01E01E068
:1034E000000000000000000003C1E01E01E0000039
:1034F00000000000000003C1E01E01E00000000029
:103500000000000003C1E01E01E000000000000018
:10351000000003C1E01E01E0000000000000000008
:1035200003C1E01E01E0000000000000000003C134
:10353000E01E01E0000000000000000003C1E01EEA
:1035400001E0000000000000000003600000000037
:103550000000000000000000076000000000000004
:1035600000000000000006700000000000000000E5
:10357000000000000E380000000000000000000005
:1035800000001C1E00000000000000000000000001
:10359000780FFFFFFFFFFFFFFFFFFFFFFFFFF001BF
:1035A000FFFFFFFFFFFFFFFFFFFFFFFF8001FFFFA8
:1035B000FFFFFFFFFFFFFFFFFFFFFF0FFFFFFFFF0B
:1035C000FFFFFFFFFFFFFFFFFF1E000000000000E6
:1035D0000000000007FFFF380000000000000000AE
:1035E000000003FFFF70000000000000000000006A
:1035F00001FFFF600000000000000000000000FF6D
:10360000FF6000000000000000000000007FFFC01D
:1036100000000000000000000000003FFFC00000AC
:103620000000000000000000001FFFC000000000BC
:10363000000000000000000FFFC0000000000000BC
:10364000000000000007FFC00000000000000000B4
:1036500000000003FFC000000000000000000000A8
:103660000001FFC00000000000000000000000009A
:10367000FFC00000000000000000000000007FC04C
:103680000000000000000000000000003FC000003B
:10369000000000000000000000001FC0000000004B
:1036A00000000000000000000FC00000000000004B
:1036B00000000000000007C0000000000000000043
:1036C0000000000007C00000000000000000000033
:1036D000000003C000000000000000000000000027
:1036E00003C000000000000000000000000003C054
:1036F00000000000000000000000000003C0000007
:103700000000000000000000000003C000000000F6
:10371000000000000000000003C0000000000000E6
:1037200000000000000003C00000000000000000D6
:103730000000000003C000000000000000000000C6
:10374000000003C0000000000000000000000000B6
:1037500003C0000000000000000000000000036043
:1037600000000000000000000000000007600000F2
:1037700000000000000000000000067000000000D3
:1037800000000000000000000E38000000000000F3
:103790000000000000001C1E0000000000000000EF
:1037A00000000000780FFFFFFFFFFFFFFFFFFFFF9C
:1037B000FFFFF001FFFFFFFFFFFFFFFFFFFFFFFF26
:1037C0008000000000000000000000000000000079
:1037D00000000000000000000000000000000000E9
:1037E0000000047F03E00001F8000F00007F800369
:1037F000F0000C7F03F00003F8001F80007FC0077B
:10380000F0000C7F03F80007F8003F80007FC00F36
:10381000F0001C7F03FC000FF8003FC0003FE01FDA
:10382000F0001C7F03FE001FF8003FC0001FF03FA8
:10383000F0003C7F01FF003FF8001FE0000FF87F21
:10384000F0003C7F00FF807FF8000FE00007F87F6A
:10385000E0007C7F007FC0FFF8000FF00007FC3F16
:10386000C0007C7F003FE1FFF80007F80003FE1F67
:103870008000FC7F001FFFFFF80187F80001FF0FA9
:103880000000FC7F030FFFFFF801C3FC0000FF8670
:103890000001FC7F0387FFF3F803E3FC00007F8057
:1038A0000001FC7F03C3FFE3F803E1FE00007FC0DB
:1038B0000003FC7F03E1FFC3F807F1FE00003FE0D7
:1038C0000003FC7FE3F0FF83F807F0FF00001FF028
:1038D0000007FC7FE3F87F03F80FF07F00000FF094
:1038E0000007FC7FE3F81E03F80FE07F80000FF86D
:1038F000000FFC7FE3F80003F81FE3FF800387FC61
:10390000000FFC7FE3F80003F81FC3FFC007C3FEEE
:10391000001FFC7FE3F80003F83FC7FFC00FE1FE84
:103920000000007F03F80003F83F87FFE01FF1FF6E
:103930000000007F03F80003F87F8FFFE03FF0FFF7
:103940008000007F03F80003F87F0FFFF07FF07F17
:10395000C000007F03F80003F8FF0007F0FFE03F1E
:10396000C000007F03F80003F8FE0007F8FFC03F27
:10397000E000007F03F80003F9FE0003F8FF801F5A
:10398000F000007F03F80003F9FC0003FCFF000FC8
:10399000F000007F03F80003FBFC0001FCFE000FB9
:1039A000F000000000000000000000000000000027
:1039B0000000000000000000000000000000000007
:1039C0000068747470733A2F2F6769742E696F2FB3
:1039D000666A587A7200344D415820322E302E35A6
:1039E00033303252656C2E00AD3599338531712FED
:1039F0005D2D492B35292020506C616E6E65724219
:103A0000756666657242797465733A200020467265
:103A10006565204D656D6F72793A2000436F6D705A
:103A2000696C65643A204D61792020322032303251
:103A3000300A00204C6173742055706461746564B1
:103A40003A20323032302D30332D3331207C20413A
:103A50007574686F723A202847336D316E31533375
:103A6000727633722C20416E7963756269632034FB
:103A70004D4158290A00344D415820322E302E3500
:103A800033303252656C2E0A004D61726C696E00E3
:103A900020536F6674776172652052657365740A8E
:103AA00000205761746368646F67205265736574A2
:103AB0000A002042726F776E206F75742052657312
:103AC00065740A002045787465726E616C205265D9
:103AD0007365740A00506F77657255700A007374CD
:103AE0006172740A006175746F25632E6700473236
:103AF000385859004D31303031006572726F722084
:103B000077726974696E6720746F2066696C650AE4
:103B100000446F6E6520736176696E672066696C1C
:103B2000652E0A004D323900456E6473746F7070F3
:103B3000002553202563202563202563202563006D
:103B4000205A3A0020593A0020583A00656E6473B2
:103B5000746F7073206869743A20005A5F53544F31
:103B6000505F50494E005A5F535445505F50494E84
:103B7000005A5F4D494E5F50494E005A5F454E41D5
:103B8000424C455F50494E005A5F4449525F50498C
:103B90004E00595F53544F505F50494E00595F5388
:103BA0005445505F50494E00595F4D494E5F504952
:103BB0004E00595F454E41424C455F50494E0059B9
:103BC0005F4449525F50494E00585F53544F505F15
:103BD00050494E00585F535445505F50494E00586D
:103BE0005F4D494E5F50494E00585F454E41424C33
:103BF000455F50494E00585F4449525F50494E005E
:103C000053535F50494E00534552564F335F50490E
:103C10004E00534552564F325F50494E0053455265
:103C2000564F315F50494E00534552564F305F500A
:103C3000494E00534453530053445F444554454355
:103C4000545F50494E0053434B5F50494E00524120
:103C50004D50535F44395F50494E0052414D5053CF
:103C60005F44385F50494E0052414D50535F4431DC
:103C7000305F50494E004D4F53495F50494E004D03
:103C800049534F5F50494E004D4158363637355FE6
:103C900053535F50494E004C45445F50494E004CD1
:103CA00043445F50494E535F5253004C43445F506E
:103CB000494E535F454E41424C45004C43445F5092
:103CC000494E535F4437004C43445F50494E535F65
:103CD0004436004C43445F50494E535F4435004CDA
:103CE00043445F50494E535F443400484541544576
:103CF000525F4245445F50494E0048454154455249
:103D00005F305F50494E0046494C5F52554E4F550B
:103D1000545F50494E0046414E325F50494E004676
:103D2000414E315F50494E0046414E5F50494E0072
:103D300045315F535445505F50494E0045315F4512
:103D40004E41424C455F50494E0045315F44495217
:103D50005F50494E0045315F43535F50494E004527
:103D6000305F535445505F50494E0045305F454EDB
:103D700041424C455F50494E0045305F4449525FD7
:103D800050494E0045305F4155544F5F46414E5FAC
:103D900050494E00455F4D5558325F50494E0045E1
:103DA0005F4D5558315F50494E00455F4D55583075
:103DB0005F50494E00444F474C43445F53434B00D0
:103DC000444F474C43445F4D4F53490042544E5F6C
:103DD000454E430042544E5F454E320042544E5FC2
:103DE000454E31004245455045525F50494E0041D5
:103DF00056525F53535F50494E004156525F5343F2
:103E00004B5F50494E004156525F4D4F53495F50F2
:103E1000494E004156525F4D49534F5F50494E0045
:103E20005458443000525844300050574D3A2020E6
:103E30002534640050574D3A2020253464005057F3
:103E40004D3A20202534640050574D3A2020253427
:103E5000640050574D3A20202534640050574D3AA5
:103E600020202534640050574D3A2020253464002A
:103E700050574D3A20202534640050574D3A2020A9
:103E80002534640050574D3A2020253464005057A3
:103E90004D3A20202534640050574D3A20202534D7
:103EA000640050574D3A20202534640050574D3A55
:103EB00020202534640050574D3A202025346400DA
:103EC00050574D3A2020253464003A20002020200D
:103ED00020434F4D002020206E6F6E2D7374616E55
:103EE000646172642050574D206D6F64650020201E
:103EF00020636F6D7061726520696E746572727592
:103F0000707420656E61626C6564002020206F769D
:103F10006572666C6F7720696E7465727275707405
:103F200020656E61626C6564003A200020202020CC
:103F300054494D534B00423A200020202020544346
:103F4000435200413A200020202020544343520095
:103F50002020202043533A20002020202057474D86
:103F60003A200050574D3A20202534640050574DD8
:103F70003A20202534640047004800000088008A69
:103F8000008C00B300B400000098009A009C00A8C8
:103F900000AA00AC0028012A012C01202020205476
:103FA000494D455200440045006E00800081006F7D
:103FB00000B000B1007000900091007100A000A15D
:103FC00000720020012101730020697320616C736D
:103FD0006F207469656420746F2074686973207041
:103FE000696E0054494D45523143000A202E00208D
:103FF00020002020506F72743A20002020200020E2
:104000002020416E616C6F6720696E203D20253550
:104010006C64003C756E757365642F756E6B6E6FA6
:10402000776E3E0020284125326429202000253368
:1040300064200050494E3A20004F7574707574200A
:104040003D2000496E70757420203D2000416E6156
:104050006C6F6720696E203D2025356C640070729E
:104060006F746563746564200020284125326429DB
:10407000202000253364200050494E3A2000253E80
:104080000001203E0101133E3201063E3301FA3D9C
:104090003401EF3D3501E43D2501DC3D2101D43DF6
:1040A0001F01CC3D2301C03D3301B53D3401AA3D84
:1040B00028019F3D2A01943D2C01843D2C01793D2E
:1040C0001C016B3D18015F3D1A01553D2C014A3D15
:1040D00022013C3D1E01303D2401283D09011F3DC8
:1040E0000701163D2C01073D0201FA3C0A01EB3C99
:1040F0000801DF3C1701D33C1901C73C1B01BB3C45
:104100001D01AB3C11019F3C1001973C0D01883C07
:1041100042017F3C3201763C3301683C0A015B3C42
:1041200008014E3C0901463C3401383C3101333C26
:104130003501283C0B011D3C0601123C0501073CE2
:104140000401003C3501F63B3701E93B2601DF3B2A
:104150000301D43B3601C93B0301BF3B3D01B23BE8
:104160003801A83B0E019D3B3C01923B0E01883B70
:1041700030017B3B3E01713B1201663B2E015B3BF4
:104180001201446F6E652E0A0050756C73696E677C
:1041900020202000556E746F756368656420005A96
:1041A0005F50524F42455F534552564F5F4E52202B
:1041B0006E6F74207365742075702E0A00576174D9
:1041C0006368696E672070696E730A0064697300C2
:1041D000656E0061626C65640A00656E6473746F7D
:1041E00070206D6F6E69746F72200020436F756E62
:1041F0007420583A000042657474004531006265CD
:1042000064002C2073797374656D2073746F707003
:10421000656421204865617465725F49443A2000F5
:104220004845495A454E204552464F4C474C4F53FE
:104230000048656174696E67206661696C65640039
:10424000202D20496E76616C6964206578747275E2
:10425000646572206E756D62657220210A007001BE
:104260002C0190012701B0012201C0011D01F001C4
:1042700018011002130130020E01600209019002C0
:104280000401C002FF000003FA004003F5008003B0
:10429000F000D003EB002004E6007004E100E0042D
:1042A000DC004005D700C005D2004006CD00D00696
:1042B000C8008007C3003008BE00F008B900C0097C
:1042C000B400B00AAF00B00BAA00D00CA500000EDD
:1042D000A000500F9B00C0109600501291000014D7
:1042E0008C00C0158700B0178200B0197D00D01B6C
:1042F0007800001E730040206E0090226900F024B8
:10430000640040275F0090295A00E02B5500102ED2
:10431000500020304B0010324600E0334100903511
:104320003C001037370070383200A0392D00B03A09
:104330002800A03B2300603C1E00103D1900903D6A
:104340001400103E0F00703E0A00C03E0500003F02
:104350000000403FFBFF803FF6FFC03FF1FF200819
:10436000204E494348542045525245494348540041
:10437000546865726D616C2052756E617761790069
:10438000200820C39C424552534348524954544547
:104390004E004D415854454D502074726967676511
:1043A00072656400200820554E54455253434852CC
:1043B000495454454E004D494E54454D5020747259
:1043C00069676765726564000A0A0020205A5F4DBC
:1043D000494E3A002020595F4D494E3A002020585E
:1043E0005F4D494E3A004D383420582059205A200C
:1043F0004500202F002042403A0020403A0020573C
:104400003A000009121B242D363F48415A536C656F
:104410007E7719100B023D342F265158434A757C84
:10442000676E323B2029161F040D7A7368615E5750
:104430004C452B2239300F061D14636A7178474EA4
:10444000555C646D767F4049525B2C253E370801F0
:104450001A137D746F6659504B42353C272E111844
:10446000030A565F444D727B60691E170C053A3390
:1044700028214F465D546B627970070E151C232A64
:1044800031384148535A656C777E09001B122D2440
:104490003F3658514A437C756E671019020B343D04
:1044A000262F737A6168575E454C3B3229201F16D0
:1044B0000D046A6378714E475C55222B3039060F24
:1044C000141D252C373E0108131A6D647F76494070
:1044D0005B523C352E2718110A03747D666F5059C4
:1044E000424B171E050C333A21285F564D447B7210
:1044F00069600E071C152A233831464F545D626BE4
:1045000070797C3C3E5E2B3D3F2F5B5D3B2C2A222D
:104510005C000000A0C000000000000000000000DF
:10452000484200004842000020415761726E696EA7
:10453000673A20486F6D696E672042756D70204440
:10454000697669736F72203C20310A000202040010
:1045500000A0400000A0400000803F00005F43003A
:10456000005A4300009643FFFFFF000000010000D7
:104570000001000080005555550000004000333315
:104580003300AAAA2A004992240000002000C77123
:104590001C0099991900D1451700555515003BB1DC
:1045A00013002449120011111100000010000F0F18
:1045B0000F00E3380E0043790D00CCCC0C00C33063
:1045C0000C00E8A20B0064210B00AAAA0A00703DAF
:1045D0000A009DD80900427B090092240900DCD31F
:1045E0000800888808001042080000000800F0C198
:1045F00007008787070075500700711C07003EEB16
:104600000600A1BC06006990060066660600703EC2
:1046100006006118060017F4050074D105005BB0B0
:104620000500B29005006272050055550500783905
:104630000500B81E0500050505004EEC040087D4F2
:104640000400A1BD040090A7040049920400C17DAC
:104650000400EE690400C7560400444404005C32C0
:1046600004000821040041100400000004003FF091
:104670000300F8E0030026D20300C3C30300CCB557
:1046800003003AA803000A9B0300388E0300C08190
:1046900003009F750300D0690300505E03001D53A3
:1046A000030034480300913D03003333030016290F
:1046B0000300381F030097150300300C03000303A9
:1046C00003000BFA020049F10200BAE802005CE0C4
:1046D00002002DD802002DD0020059C80200B0C03F
:1046E000020031B90200DAB10200AAAA0200A0A3B6
:1046F0000200BC9C0200FA9502005C8F0200DF8879
:10470000020082820200457C0200277602002770A8
:104710000200436A02007C640200D05E02003F593E
:104720000200C8530200FFFDFCFAF8F6F4F2F0EEC6
:10473000ECEAE9E7E5E3E1E0DEDCDAD9D7D5D4D28B
:10474000D0CFCDCBCAC8C7C5C3C2C0BFBDBCBAB924
:10475000B7B6B4B3B2B0AFADACAAA9A8A6A5A4A28F
:10476000A1A09E9D9C9A99989795949392908F8ED4
:104770008D8B8A8988878684838281807F7E7D7BFA
:104780007A797877767574737271706F6E6D6C6B01
:104790006A696867666564636261605F5E5D5C5BF1
:1047A0005A5958585756555453525150504F4E4DD0
:1047B0004C4B4A4A49484746464544434242414099
:1047C0003F3E3E3D3C3B3B3A393838373635353451
:1047D0003332323130302F2E2E2D2C2B2B2A2929FB
:1047E00028272726252524232322212120201F1E98
:1047F0001E1D1C1C1B1B1A19191818171616151527
:1048000014131312121111100F0F0E0E0D0D0C0CAC
:104810000B0A0A0909080807070606050504040328
:10482000030202010000204D3932205800205800B8
:1048300020204D61783A2000200020204D696E3AFA
:104840002000536F667420656E6473746F70733AE2
:104850002000206F7574206F662072616E67650A94
:1048600000536572766F20003A20002053657276FF
:104870006F20005761726E696E67203A20436C6545
:10488000616E20436972636C65207265717569722F
:1048900065732058590A0020496E76616C6964205E
:1048A00065787472756465722000447275636B205C
:1048B00070617573696572742E2E2E00416E796376
:1048C0007562696320344D41582062657265697470
:1048D00000447275636B742E2E2E00220A00556EF2
:1048E0006B6E6F776E20636F6D6D616E643A202220
:1048F0000020746F6F206C6F6E672065787472751E
:1049000073696F6E2070726576656E7465640A00F7
:1049100020636F6C6420657874727573696F6E20A4
:1049200070726576656E7465640A0000005A430013
:10493000005A43000096430000A0C00000000000A1
:10494000000000290A002062797465733B206372BD
:1049500063200053657474696E67732053746F72BB
:1049600065642028004669656C64206261636B6C35
:104970006173685F64697374616E63655F6D6D20F8
:104980006D69736D617463682E0A004669656C64B5
:104990002066635F73657474696E6773206D6973F5
:1049A0006D617463682E0A004669656C6420706CE2
:1049B000616E6E65725F736B65775F666163746F5E
:1049C00072206D69736D617463682E0A00466965B3
:1049D0006C6420636F6F7264696E6174655F737974
:1049E0007374656D206D69736D617463682E0A0060
:1049F0004669656C64206D6F746F725F6375727267
:104A0000656E745F73657474696E67206D69736D2C
:104A1000617463682E0A004669656C6420706C617D
:104A20006E6E65725F65787472756465725F6164DD
:104A300076616E63655F4B206D69736D6174636849
:104A40002E0A004669656C6420746D635F7374653B
:104A5000616C74685F656E61626C6564206D69731A
:104A60006D617463682E0A004669656C6420746D1C
:104A7000635F6879627269645F7468726573686F96
:104A80006C64206D69736D617463682E0A004669F9
:104A9000656C6420746D635F737465707065725FBC
:104AA00063757272656E74206D69736D617463688D
:104AB0002E0A004669656C64207061727365725FCE
:104AC000766F6C756D65747269635F656E61626C3B
:104AD0006564206D69736D617463682E0A004669B0
:104AE000656C64206677726574726163745F736568
:104AF0007474696E6773206D69736D617463682E79
:104B00000A004669656C64207265636F7665727928
:104B10005F656E61626C6564206D69736D6174635D
:104B2000682E0A004669656C6420636F6E74726F4C
:104B30006C6C657246616E5F73657474696E6773E1
:104B4000206D69736D617463682E0A004669656C37
:104B500064206C63645F636F6E7472617374206D44
:104B600069736D617463682E0A004669656C642020
:104B7000626564504944206D69736D617463682E89
:104B80000A004669656C64206C70715F6C656E200C
:104B90006D69736D617463682E0A004669656C64A3
:104BA00020686F74656E64504944206D69736D614F
:104BB0007463682E0A004669656C642075695F70CD
:104BC0007265686561745F686F74656E645F746553
:104BD0006D70206D69736D617463682E0A0046699B
:104BE000656C6420626C746F7563685F6C6173746C
:104BF0005F7772697474656E5F6D6F6465206D694F
:104C0000736D617463682E0A004669656C64207375
:104C10006572766F5F616E676C6573206D69736D29
:104C2000617463682E0A004669656C6420706C616B
:104C30006E6E65725F6C6576656C696E675F6163E9
:104C400074697665206D69736D617463682E0A00FE
:104C50004669656C642070726F62655F6F6666732B
:104C60006574206D69736D617463682E0A0046690E
:104C7000656C642072756E6F75745F73656E736FAB
:104C8000725F656E61626C6564206D69736D6174DD
:104C900063682E0A004669656C6420686F6D655F05
:104CA0006F6666736574206D69736D617463682ED9
:104CB0000A004669656C642065737465707065727E
:104CC00073206D69736D617463682E0A00504554DA
:104CD0004720457874722E20566F7277C3A4726D88
:104CE000656E0050455447204265747420566F72BB
:104CF00077C3A4726D656E0054656D7065726174E2
:104D000075720041626BC3BC686C656E005045549F
:104D10004720566F7277C3A4726D656E00504C4188
:104D200020566F7277C3A4726D656E004CC3BC666B
:104D3000746572207E00426574740044C3BC736560
:104D40000048617570746D656EC3BC00466C757308
:104D50007372617465004CC3BC66746572207E001A
:104D6000426574740044C3BC73650047657363682F
:104D7000772E0048617570746D656EC3BC002E0A95
:104D8000006F70656E206661696C65642C204669F1
:104D90006C653A200000002110422063308440A559
:104DA00050C660E770088129914AA16BB18CC1ADF2
:104DB000D1CEE1EFF13112100273325222B552948A
:104DC00042F772D662399318837BB35AA3BDD39C42
:104DD000C3FFF3DEE36224433420040114E664C716
:104DE00074A44485546AA54BB528850995EEE5CF92
:104DF000F5ACC58DD55336722611163006D776F62A
:104E0000669556B4465BB77AA719973887DFF7FEE1
:104E1000E79DD7BCC7C448E5588668A778400861B5
:104E20001802282338CCC9EDD98EE9AFF948896931
:104E3000990AA92BB9F55AD44AB77A966A711A50C9
:104E40000A333A122AFDDBDCCBBFFB9EEB799B5881
:104E50008B3BBB1AABA66C877CE44CC55C222C0355
:104E60003C600C411CAEED8FFDECCDCDDD2AAD0BD1
:104E7000BD688D499D977EB66ED55EF44E133E3269
:104E80002E511E700E9FFFBEEFDDDFFCCF1BBF3A21
:104E9000AF599F788F8891A981CAB1EBA10CD12D10
:104EA000C14EF16FE18010A100C230E32004502513
:104EB0004046706760B9839893FBA3DAB33DC31C87
:104EC000D37FE35EF3B1029012F322D23235421463
:104ED0005277625672EAB5CBA5A89589856EF54FD3
:104EE000E52CD50DC5E234C324A0148104667447B3
:104EF0006424540544DBA7FAB79987B8975FE77E27
:104F0000F71DC73CD7D326F2369106B01657667602
:104F100076154634564CD96DC90EF92FE9C899E972
:104F2000898AB9ABA94458654806782768C018E152
:104F3000088238A3287DCB5CDB3FEB1EFBF98BD8C6
:104F40009BBBAB9ABB754A545A376A167AF10AD0A2
:104F50001AB32A923A2EFD0FED6CDD4DCDAABD8B12
:104F6000ADE89DC98D267C076C645C454CA23C83F2
:104F70002CE01CC10C1FEF3EFF5DCF7CDF9BAFBA66
:104F8000BFD98FF89F176E367E554E745E932EB242
:104F90003ED10EF01E20453A00205A3A0020593AE0
:104FA00000583A004D3234004D323320257300460C
:104FB000696C652073656C65637465640A002053D1
:104FC000697A653A200046696C65206F70656E6588
:104FD000643A2000454E4420535542524F5554499F
:104FE0004E450A002220706F7300222070617265A6
:104FF0006E743A2200535542524F5554494E452043
:1050000043414C4C207461726765743A220074729B
:1050100079696E6720746F2063616C6C20737562B0
:105020002D67636F64652066696C657320776974AA
:105030006820746F6F206D616E79206C6576656C89
:10504000732E204D4158206C6576656C2069733A4B
:10505000310A0057726974696E6720746F2066693F
:105060006C653A20002E0A006F70656E20666169DB
:105070006C65642C2046696C653A20006672657325
:105080006800646F696E67002066696C653A20008D
:105090004E6F77200002454550524F4D2064617499
:1050A0006173697A65206572726F722E0A00290A2F
:1050B000002062797465733B206372632000207363
:1050C000746F7265642073657474696E677320729F
:1050D0006574726965766564202800202863616CB8
:1050E00063756C6174656429210A0020213D2000EC
:1050F000454550524F4D20435243206D69736D61B9
:10510000746368202D202873746F726564292000F1
:105110002053697A653A2000496E6465783A200028
:105120004669656C64206261636B6C6173685F647F
:10513000697374616E63655F6D6D206D69736D6118
:105140007463682E0A004669656C642066635F7349
:10515000657474696E6773206D69736D61746368DB
:105160002E0A004669656C6420706C616E6E657213
:105170005F736B65775F666163746F72206D6973CF
:105180006D617463682E0A004669656C6420636F04
:105190006F7264696E6174655F73797374656D2095
:1051A0006D69736D617463682E0A004669656C648D
:1051B000206D6F746F725F63757272656E745F736A
:1051C000657474696E67206D69736D617463682EB0
:1051D0000A004669656C6420706C616E6E65725F72
:1051E00065787472756465725F616476616E63651B
:1051F0005F4B206D69736D617463682E0A004669A8
:10520000656C6420746D635F737465616C74685F52
:10521000656E61626C6564206D69736D617463684D
:105220002E0A004669656C6420746D635F73677451
:10523000206D69736D617463682E0A004669656C40
:105240006420746D635F6879627269645F74687208
:105250006573686F6C64206D69736D617463682E2B
:105260000A004669656C6420746D635F73746570D1
:105270007065725F63757272656E74206D69736DAF
:10528000617463682E0A004669656C6420706172FF
:105290007365725F766F6C756D65747269635F6557
:1052A0006E61626C6564206D69736D617463682EF4
:1052B0000A004669656C6420667772657472616382
:1052C000745F73657474696E6773206D69736D6163
:1052D0007463682E0A004669656C64207265636FAA
:1052E000766572795F656E61626C6564206D697365
:1052F0006D617463682E0A004669656C6420636F93
:105300006E74726F6C6C657246616E5F73657474F7
:10531000696E6773206D69736D617463682E0A002E
:105320004669656C64206C63645F636F6E74726160
:105330007374206D69736D617463682E0A00466929
:10534000656C64206C70715F6C656E206D69736D47
:10535000617463682E0A004669656C642075695F34
:10536000707265686561745F686F74656E645F74A0
:10537000656D70206D69736D617463682E0A0046F7
:1053800069656C6420626C746F7563685F6C6173CF
:10539000745F7772697474656E5F6D6F6465206D9C
:1053A00069736D617463682E0A004669656C6420D8
:1053B000736572766F5F616E676C6573206D69737C
:1053C0006D617463682E0A004669656C6420706CB8
:1053D000616E6E65725F6C6576656C696E675F6144
:1053E0006374697665206D69736D617463682E0AF4
:1053F000004669656C642070726F62655F6F6666F7
:10540000736574206D69736D617463682E0A00465C
:1054100069656C642072756E6F75745F73656E7309
:105420006F725F656E61626C6564206D69736D613A
:105430007463682E0A004669656C6420686F6D6548
:105440005F6F6666736574206D69736D6174636800
:105450002E0A004669656C6420657374657070651A
:105460007273206D69736D617463682E0A00204D3C
:1054700061726C696E3D563736290A0045455052B7
:105480004F4D2076657273696F6E206D69736D6123
:105490007463682028454550524F4D3D00454550A6
:1054A000524F4D20496E697469616C697A65640A6E
:1054B0000048617264636F64656420446566617569
:1054C0006C742053657474696E6773204C6F6164EB
:1054D00065640A00000096430000964300002041E6
:1054E0000000C8410000A0420000A0420000C843E4
:1054F0003333B942DC050000DC0500006400000025
:10550000102700003B20004D656469756D20656EB5
:10551000746665726E74004D656469756D206572A0
:105520006B616E6E7400447275636B2061626765B7
:1055300062726F6368656E004D323520500A4D32DD
:10554000340053442D447275636B20706175736928
:105550006572656E0046696C616D656E7420776575
:10556000636873656C6E0046696C616D656E74206E
:10557000656E746C6164656E0046696C616D656E24
:1055800074206C6164656E005045544720566F72FC
:1055900077C3A4726D656E00504C4120566F7277D0
:1055A000C3A4726D656E0062656E75747A6572640F
:1055B00065662E204865697A656E005A7572C3BCAF
:1055C000636B00447275636B20766F6D204D65646C
:1055D00069756D00566F7268657220257325732595
:1055E0007320686F6D656E00496E73657274206616
:1055F000696C616D656E7420616E64207072657394
:105600007320627574746F6E0A00447275636B2048
:105610006973740070617573696572742E2E2E0043
:10562000005761727465206175662064656E005371
:1056300074617274206465730046696C616D656E97
:10564000747765636873656C732E2E2E00576172D4
:10565000746520617566004865726175736E616876
:105660006D65006465732046696C616D656E747369
:105670002E2E2E0044C3BC7365206865697A7420A1
:105680006175660062697474652077617274656E15
:105690002E2E2E00004B6E6F7066206472C3BC63AA
:1056A0006B656E20756D0044C3BC736520617566C3
:1056B0007A756865697A656E000046696C616D652A
:1056C0006E742065696E6C6567656E00756E64202A
:1056D0004B6E6F7066206472C3BC636B656E007541
:1056E0006D20666F72747A757365747A656E005793
:1056F0006172746520617566004C6164656E20643A
:1057000065730046696C616D656E74732E2E2E0094
:105710004B6E6F7066206472C3BC636B656E2075E0
:105720006D00447275636B20666F72747A75736571
:10573000747A656E00005761727465206175660049
:10574000466F72747365747A656E20646573004485
:105750007275636B732E2E2E005761727465206113
:10576000756600456E746C6164656E2064657300D7
:1057700046696C616D656E74732E2E2E0031353066
:10578000003A200035003A20004245443A45504353
:105790004F53203130304B0052756E617761792064
:1057A00057617463683A204F4E004D61782054650C
:1057B0006D7000323735003A20004D696E20546517
:1057C0006D700035003A200045313A204550434F76
:1057D00053203130304B004E65747A7465696C002B
:1057E00047656E65726963003A200050726F746F8E
:1057F0006B6F6C6C00312E30003A20004261756492
:105800007261746500323530303030003A2000412A
:105810006E7963756269632052414D505320312E79
:10582000340045787472756465720031003A200066
:1058300068747470733A2F2F6769742E696F2F66BE
:105840006A587A7200416E79637562696320344DDB
:10585000415800323032302D30332D333100344D49
:10586000415820322E302E3533303252656C2E00A6
:105870004D61726C696E00546865726D6973746F06
:1058800072656E00426F6172642D496E666F0044EE
:105890007275636B65722D496E666F004861757035
:1058A000746D656EC3BC003F005A7572C3BC636BF8
:1058B0000053746F70004B65696E204D65646975A7
:1058C0006D00447275636B20766F6D204D65646961
:1058D000756D0046696C616D656E742077656368EF
:1058E00073656C6E004B6F6E666967757261746983
:1058F0006F6E0054656D70657261747572004265FB
:10590000776567756E670053442D447275636B202D
:10591000666F72747365747A656E00C39C6265729B
:105920002064656E20447275636B6572004A7573FE
:1059300074696572756E670053442D447275636BAC
:105940002061626272656368656E0053442D447223
:1059500075636B2070617573696572656E00496E61
:10596000666F004269747465206E65757374617248
:1059700074656E00445255434B455220474553547D
:105980004F5050540025533A20255300414247457B
:1059900042524F4348454E005072696E7465722002
:1059A00068616C7465642E206B696C6C28292063B7
:1059B000616C6C6564210A006563686F3A0045722A
:1059C000726F723A00486F74656E6420746F6F2056
:1059D000636F6C640A004D3630303A207A75206B64
:1059E000616C7400486F74656E6420746F6F20631F
:1059F0006F6C640A00507265737320627574746F03
:105A00006E20746F20726573756D650A00496E7340
:105A10006572742066696C616D656E7420616E6478
:105A200020707265737320627574746F6E0A005013
:105A30007265737320627574746F6E20746F206862
:105A4000656174206E6F7A7A6C650A0043616E6ED0
:105A50006F74206F70656E207375626469722000C8
:105A600053442063617264206F6B0A006F70656E2F
:105A7000526F6F74206661696C65640A00766F6CA2
:105A8000756D652E696E6974206661696C65640A5E
:105A900000534420696E6974206661696C0A0020B5
:105AA000204D363033200020204D34313220530039
:105AB00046696C616D656E742072756E6F757420C9
:105AC00073656E736F723A002055004C0046696C26
:105AD000616D656E74206C6F61642F756E6C6F61A3
