:100000000C94C52F0C94F62F0C94F62F0C94F62F0D
:100010000C94F62F0C94F62F0C94F62F0C94F62FCC
:100020000C94F62F0C94F62F0C94F62F0C94F62FBC
:100030000C94F62F0C94DAEE0C94F62F0C94F62F09
:100040000C94F62F0C94E6B40C94F62F0C94F62F27
:100050000C94F62F0C94F62F0C9403A10D94062DFE
:100060000C94F62F0C94AE4F0C94A44F0C94F62FD6
:100070000C94F62F0C94F62F0C94F62F0C94F62F6C
:100080000C94AA480C94F62F0C94F62F0C94F62F8F
:100090000C94F62F0C94F62F0C94F62F0C94F62F4C
:1000A0000C94F62F0C94F62F0C947C480C94F62F9D
:1000B0000C94F62F0C94F62F0C94F62F0C944E48BB
:1000C0000C94F62F0C94F62F0C94F62F0C94F62F1C
:1000D0000C94F62F0C94F62F0C94F62F0C94F62F0C
:1000E0000C94F62FEF5C5E5B975B2B5D975B975BE9
:1000F000975B975B975B975B975B975B975B975B70
:10010000975B975B975B975B975B975B975B975B5F
:10011000975B975B975B975B975B975B975B975B4F
:10012000255D975B975B975B975B975B975B975BAF
:10013000975BFE5C975B975B975B975B975B975BC7
:10014000975B975B975B975B425D945B16903890EB
:1001500058907D90A2905992C790EA900D9132915B
:1001600057917C91A191C6915992EB911092359241
:10017000C893CB93CF93D293D593FF93D993DC932A
:10018000E093E393E693EA93ED93F093FF93F49374
:10019000F793FA9328F52BF51AF51EF524F562F579
:1001A0002FF533F539F53DF541F547F54BF54FF5AD
:1001B00062F555F559F55DF577F77CF781F78BF723
:1001C00095F70EF89FF7A7F7AFF7B9F7C3F7CDF795
:1001D000DCF7E6F70EF8F0F7FAF704F8D201D601EB
:1001E000BA0236017002380196016001C80232027B
:1001F00024023401084AD73B3BCE016E84BCBFFDCC
:10020000C12F3D6C74319ABD56833DDA3D00C77FE6
:1002100011BED9E4BB4C3E916BAAAABE000000807F
:100220003F05A84CCDB2D44EB93836A9020C50B90E
:10023000918688083CA6AAAA2ABE000000803F003A
:100240000C94B7500C94F4930C94EA900C947A515B
:100250000C94D5930C94EA930C9428F50C94757C2B
:100260000C9480530C9450D90D9433080D94480885
:100270000D9427080C94E3500C94ED930C94DDDB63
:100280000D941D040C948BF70C94975B0C9405D77C
:100290000C9428510C94425D0C9462F50C949DDEF4
:1002A0000C943F560D9416050C941EE00C941861A6
:1002B0000C940EF80C948B500C9481B40D94F602AF
:1002C0000D9436080C94D5530C94EE5A0C9495F773
:1002D0000C942B5D0C940F510C94D9D60C942CE9F2
:1002E0000D9422050C94E2DB0C9438900C94D87D8C
:1002F0000C9439F50C94D2930C9498530C941A6185
:100300000C94255D0D941E050C9425500C9466D814
:100310000C947CF70C94F7550C9440780C94E09373
:100320000C941AF50C9457910C943DF50D942A08F1
:100330000C94C7900C94CF930C94EF5C0C949EEAB1
:100340000C94E7DB0C94CDF70C9459EE0C94AA575F
:100350000C947C5A0C940ED70C9401DC0C94BB5575
:100360000D944F360C94E6930C94717C0C94795A4E
:100370000C94F0F70C941AFF0C947D900C945DF59E
:100380000C9407DC0C940DDC0C9459F50C9401EEE4
:100390000C9424F50C946ED80C94925D0C94E17638
:1003A0000C9455F50D9445080C9468510D941E0855
:1003B0000C9416610C944FDC0C94FF930C943366F0
:1003C0000C945F780C94F9DD0C9408790C94E6F7A2
:1003D0000C9456520C9438E90C946A550C94C893BA
:1003E0000C94EB5A0D94D7020C94607C0C9414611D
:1003F0000C94EBE00C94C3F70C944BF50C94A19186
:100400000C94C6910C94D8DB0C9412610C9403DE0E
:100410000C94AA530C945E5B0D9406050C94A453A3
:100420000C94F54F0C94C9FA0C94FAF70C9456DA24
:100430000D9426050D9402050C94FA930C94925396
:100440000D941A050C9459500D9430080C9435E90C
:100450000C940C500C9459920C94E7780C9464D83A
:100460000C941EF50D9443080C947C910C94CA5086
:100470000C943BE90C9433F50C94CC620C94BF5172
:100480000C947A530C94A5DE0D94FE040C94CBA02E
:100490000C949E530C94E3930D948F030D942E357E
:1004A0000C9496540C94B6530C94FEDD0C94F79374
:1004B0000C94D9930C9408DE0C9435920C94B053A0
:1004C0000C94AFF70C94C3510C94A2900C943291FD
:1004D0000C944FF50C9423500C94FC500C94405009
:1004E0000D9424080C9468D80C946F7C0C949FF79E
:1004F0000C94B7790C942BEE0C942BF50C9449DEEC
:100500000C94FCD60C947E780C94AC550C94109200
:100510000C9472500C940D910C9432E90C94CD7A99
:100520000C9477F70C9486530C94A7F70C94DC93F7
:100530000C94F5ED0C94FE5C0D9462070C9481F71D
:100540000D940A050C9441F50C9428780C9404F849
:100550000D9412050C9413DC0C94F0930C94F66536
:100560000C94EA5A0C942FE90C9447F50C9458908B
:100570000C94B9F70D9421080C948C530C9486516B
:100580000D940E050C9482EE0C94EB910C94DCF718
:100590000D942D080C94A4500C9441E80C94945B99
:1005A0000C94E5760C9401FF0C942FF50C94737C5D
:1005B0000C94CB930C9416904E414E494E4954598D
:1005C000494E46CDCCCC3D0AD7233C17B7D138771E
:1005D000CC2B329595E6241FB14F0A000020410034
:1005E00000C84200401C4620BCBE4CCA1B0E5AAE7E
:1005F000C59D7400407A10F35A00A0724E1809008D
:1006000010A5D4E80000E87648170000E40B540277
:100610000000CA9A3B000000E1F5050000809698B2
:1006200000000040420F000000A086010000001002
:100630002700000000E80300000000640000000044
:10064000000A00000000000100000000002C76D825
:1006500088DC674F0823DFC1DFAE59E1B1B796E50B
:10066000E3E453C63AE651997696E8E6C28426EB6F
:10067000898C9B62ED407C6FFCEFBC9C9F40F2BA82
:10068000A56FA5F490055A2AF75C936B6CF9676D1A
:10069000C11BFCE0E40D47FEF520E6B500D0ED906F
:1006A0002E0300943577050080841E080000204E3C
:1006B0000A000000C80C333333330F986E128311D5
:1006C00041EF8D2114893BE65516CFFEE6DB18D1AC
:1006D000844B381BF77C1D901DA4BBE4242032847E
:1006E000725E228100C9F124ECA1E53D27434F4D04
:1006F0004D554E49434154494F4E0044525952556D
:100700004E004552524F525300494E464F0045430A
:10071000484F0020746F6F206C6F6E67206578748F
:10072000727573696F6E2070726576656E7465643C
:100730000A0020636F6C6420657874727573696F4A
:100740006E2070726576656E7465640A005761721A
:1007500074656E2E2E2E00486F6D652058592066E8
:10076000697273740A00566F726865722058592056
:10077000686F6D656E004B6C69636B207A756D20D8
:10078000466F72747365747A656E004D6F746F7224
:10079000656E20616E6765736368616C7465740073
:1007A000456E642066696C65206C6973740A00424A
:1007B0006567696E2066696C65206C6973740A00F0
:1007C000286E6F2066696C65290043757272656ECC
:1007D000742066696C653A20005344207072696E1B
:1007E00074696E67206279746520004E6F742053BF
:1007F00044207072696E74696E670A002E0A0044A4
:10080000656C6574696F6E206661696C65642C2027
:1008100046696C653A200046696C652064656C65C4
:100820007465643A0043616E6E6F74206F70656E1C
:100830002073756264697220002569730025696DF3
:1008400020256973002569682025696D2025697355
:1008500000256964202569682025696D2025697354
:100860000025697920256964202569682025696D3E
:1008700020256973005072696E742074696D653A41
:100880002000496E76616C69642050696E204D6F5E
:1008900064650A006BC3BC686C742E2E2E006865FC
:1008A000697A742E2E2E0045202553006F6B006F41
:1008B0006666000E0709070207FB06ED064445427F
:1008C00055473A004D3131322053687574646F7763
:1008D0006E004D313133205300416E79637562698A
:1008E0006320344D4158204F46462E004348414D29
:1008F0004245525F54454D50455241545552450072
:100900004D4F54494F4E5F4D4F4445530054484559
:10091000524D414C5F50524F54454354494F4E0045
:100920004155544F5245504F52545F53445F5354B6
:10093000415455530050524F4D50545F53555050F1
:100940004F525400454D455247454E43595F504123
:100950005253455200434153455F4C494748545F09
:100960004252494748544E45535300544F47474C11
:10097000455F4C494748545300534F4654574152E2
:10098000455F504F574552004255494C445F5045D2
:100990005243454E54004C4556454C494E475F44E2
:1009A000415441005A5F50524F4245004155544F07
:1009B0004C4556454C005052494E545F4A4F4200F8
:1009C00050524F4752455353004155544F52455092
:1009D0004F52545F54454D5000564F4C554D455461
:1009E00052494300454550524F4D0042494E4152F5
:1009F000595F46494C455F5452414E53464552005B
:100A000053455249414C5F584F4E5F584F46460040
:100A10004649524D574152455F4E414D453A4D6111
:100A2000726C696E20344D415820322E302E353391
:100A3000303352656C2E202847697448756229202E
:100A4000534F555243455F434F44455F55524C3ACF
:100A500068747470733A2F2F6769746875622E63B7
:100A60006F6D2F47656D696E695365727665722F7C
:100A70004D61726C696E2050524F544F434F4C5F22
:100A800056455253494F4E3A312E30204D4143483E
:100A9000494E455F545950453A416E7963756269D4
:100AA0006320344D41582045585452554445525FB7
:100AB000434F554E543A3120555549443A366161B9
:100AC00031343764322D666664352D313165392D08
:100AD000386437312D333632623965313535363643
:100AE000370A002F2F20004D31343520533C696EDA
:100AF0006465783E206F7574206F662072616E6742
:100B0000652028302D31290A002052004163636599
:100B10006C65726174696F6E3A2050003F4A206FB5
:100B20007574206F662072616E67652028302E30E4
:100B30003120746F20302E33290A0046523A0020AB
:100B4000466C6F773A200050726F74656374656409
:100B50002050696E0A00496E76616C696420657880
:100B60007472756465720A0020643A0020693A0064
:100B700020703A0064697300656E0043290A0061C1
:100B8000626C656420286D696E2074656D7020004C
:100B9000436F6C642065787472756465732061724C
:100BA0006520004F4646004F4E0046696C616D65FA
:100BB0006E742072756E6F75742000486F6D657667
:100BC00065727361747A20616B7469760045727224
:100BD0003A20546F6F206661722100546F6F206657
:100BE00061722066726F6D207265666572656E63F4
:100BF0006520706F696E740A00454550524F4D2054
:100C00004F4B0A00446F6E65207072696E74696E96
:100C1000672066696C650A004D3737004D33310037
:100C2000496E76616C69642065787472756465726A
:100C30000A004572726F722077726974696E67205C
:100C4000746F20454550524F4D210A003637260318
:100C50003C3D380E2E303E121A1C1808440A2C4314
:100C60000809072C070001627573793A20706175D5
:100C700073656420666F7220696E7075740A006215
:100C80007573793A2070617573656420666F7220A0
:100C9000757365720A00627573793A2070726F63BA
:100CA000657373696E670A004D36303000414E47F8
:100CB0004548414C54454E005072696E746572202F
:100CC00073746F707065642064756520746F20653F
:100CD00072726F72732E2046697820746865206581
:100CE00072726F7220616E6420757365204D3939A0
:100CF0003920746F20726573746172742E202854C9
:100D0000656D7065726174757265206973207265B6
:100D10007365742E20536574206974206166746550
:100D2000722072657374617274696E67290A004E6D
:100D30006F20436865636B73756D207769746820F5
:100D40006C696E65206E756D6265722C204C6173E6
:100D500074204C696E653A20004E6F2043686563CD
:100D60006B73756D2077697468206C696E65206E91
:100D7000756D6265722C204C617374204C696E65D0
:100D80003A2000636865636B73756D206D69736DE0
:100D9000617463682C204C617374204C696E653AF1
:100DA00020004C696E65204E756D62657220697316
:100DB000206E6F74204C617374204C696E65204EF8
:100DC000756D6265722B312C204C617374204C69F7
:100DD0006E653A20004D3131300053442072656118
:100DE00064206572726F720A002121204B494C4CBD
:100DF0002063617573656420627920746F6F206D64
:100E000075636820696E6163746976652074696DC5
:100E100065202D2063757272656E7420636F6D6D31
:100E2000616E643A20004C6164656E206D6D004512
:100E30006E746C6164656E206D6D0046696C616DE9
:100E4000656E7464757263686D6573736572004571
:100E500020696E206D6DC2B3004572723A207574C0
:100E6000663820666F6E74206E6F7420696E6974C8
:100E700069616C697A65642E002568753A2530329F
:100E800068750025303268753A253032687500255E
:100E90006875642025303268753A253032687500EF
:100EA000000C0D00FE07022603BC01FFFE0AFE082F
:100EB000FE05080806000040F0C8888898781005EC
:100EC0000808060000C0F88888888888F8050505A5
:100ED0000600012030F830200508080600002070C8
:100EE000F820202020E00509090600FF2070A8A8AE
:100EF000B888887020050606060001E08CEA8C8A16
:100F00000A0509090600FFF8A88888888888A8F8D3
:100F1000050A0A0600FE205050505088A8A8887084
:100F200003030306000340A040FFFFFFFFFFFFFF96
:100F3000FFFFFFFFFFFFFFFFFFFFFFFFFFFFFF00C0
:100F400000000605FF010707060200808080808000
:100F50000080030303060105A0A0A0050606060005
:100F60000050F85050F8500509090600FF2070A8FD
:100F7000A07028A87020050707060000C8C8102028
:100F800040989805070706000040A0A040A8906878
:100F90000103030602058080800309090601FF2082
:100FA00040408080804040200309090601FF8040C6
:100FB0004020202040408005070706000020A87040
:100FC0002070A8200505050600012020F820200239
:100FD00003030601FFC04080050101060003F8027B
:100FE0000202060100C0C005070706000008101035
:100FF00020404080050707060000708898A8C88830
:101000007003070706010040C040404040E005076C
:1010100007060000708808102040F8050707060042
:1010200000F8081030088870050707060000103027
:101030005090F81010050707060000F880F0080827
:101040008870050707060000304080F0888870052A
:101050000707060000F808101020202005070706E3
:101060000000708888708888700507070600007087
:10107000888878081060020505060100C0C000C01D
:10108000C00206060601FFC0C000C040800305057F
:101090000601012040804020050303060002F800FD
:1010A000F80305050601018040204080050707067A
:1010B000000070881020200020050707060000703F
:1010C00088B8A8B88070050707060000708888F8FF
:1010D000888888050707060000F04848704848F0EF
:1010E0000507070600007088808080887005070764
:1010F000060000F04848484848F005070706000089
:10110000F88080F08080F8050707060000F88080EE
:10111000F08080800507070600007088808098882E
:1011200070050707060000888888F8888888030704
:1011300007060100E04040404040E0050707060088
:101140000038101010109060050707060000889006
:10115000A0C0A090880507070600008080808080DE
:1011600080F805070706000088D8A88888888805C1
:1011700007070600008888C8A8988888050707061A
:10118000000070888888888870050707060000F0CE
:101190008888F080808005070706000070888888AE
:1011A000A89068050707060000F08888F0A09088DE
:1011B000050707060000708880700888700507071B
:1011C000060000F820202020202005070706000048
:1011D00088888888888870050707060000888888BE
:1011E0008850502005070706000088888888A8A82E
:1011F000500507070600008888502050888805079A
:1012000007060000888850202020200507070600D8
:1012100000F80810204080F80309090601FFE0806B
:10122000808080808080E0050707060000804040C5
:10123000201010080309090601FFE02020202020CB
:101240002020E00503030600052050880501010663
:1012500000FEF8030303060105804020050505068E
:10126000000070087888780507070600008080F085
:10127000888888F005050506000070808088700564
:10128000070706000008087888888878050505069D
:1012900000007088F08070050707060000304840A5
:1012A000E04040400507070600FE708888887808FF
:1012B000700507070600008080F08888888803078B
:1012C000070601004000C0404040E0040909060153
:1012D000FE10003010101010906005070706000087
:1012E00080808890E09088030707060100C0404096
:1012F000404040E0050505060000D0A8A8A8A805C4
:101300000505060000B0C8888888050505060000A8
:1013100070888888700507070600FEF0888888F0C6
:1013200080800507070600FE788888887808080509
:101330000505060000B0C880808005050506000090
:1013400078807008F00507070600002020F82020AC
:101350002018050505060000888888986805050599
:10136000060000888888502005050506000088884A
:10137000A8A85005050506000088502050880507DC
:10138000070600FE88888850204080050505060075
:1013900000F8102040F80309090601FF20404040F2
:1013A00080404040200109090602FF808080808043
:1013B000808080800309090601FF80404040204072
:1013C00040408005030306000248A890FFFFFFFF8E
:1013D000FFFFFFFFFFFFFFFFFFFFFFFFFFFFFFFF1D
:1013E000FFFFFFFFFFFFFFFFFFFFFFFFFF0000000A
:1013F0000605FF01070706020080008080808080CC
:101400000507070600FF2070A8A0A87020050707A1
:10141000060000304840E04048B0050505060000E1
:10142000A8508850A80507070600008850F820F843
:101430002020010707060200808080008080800451
:10144000080806010070806090906010E0030101C0
:10145000060107A00607070600007884B4A4B48438
:101460007803050506010460A06000E00505050697
:1014700000002850A05028050303060001F80808C2
:10148000030101060103E00607070600007884B4A3
:10149000A4A48478050101060007F80404040601E9
:1014A00005609090600507070600002020F82020C6
:1014B00000F803050506010440A02040E0030505EF
:1014C000060104C0204020C003030306010520409C
:1014D000800507070600FE88888898E88080050850
:1014E0000806000078E8E8E86828282802020206D2
:1014F0000203C0C00302020601FE20C00305050668
:10150000010440C04040E003050506010540A0403D
:1015100000E0050505060000A0502850A0050A0AB5
:1015200006000040C048506050B0507810050A0ACC
:1015300006000040C048506050A8081038050A0A4C
:10154000060000C0204830E050B050781005070772
:1015500006000020002020408870050A0A060000CE
:10156000402000708888F8888888050A0A060000EC
:10157000102000708888F8888888050A0A0600000C
:10158000205000708888F8888888050A0A060000BC
:1015900068B000708888F888888805090906000006
:1015A0005000708888F8888888050A0A060000209C
:1015B0005020708888F8888888050707060000781A
:1015C000A0A0F0A0A0B80509090600FE70888080E0
:1015D0008088701060050A0A060000402000F8802C
:1015E00080F08080F8050A0A060000102000F880CC
:1015F00080F08080F8050A0A060000205000F8807C
:1016000080F08080F80509090600005000F880800D
:10161000F08080F8030A0A060100804000E04040A4
:10162000404040E0030A0A060100204000E040403C
:10163000404040E0030A0A06010040A000E04040AC
:10164000404040E0030909060100A000E04040409E
:101650004040E0050707060000704848E848487029
:10166000050A0A06000068B0008888C8A89888881B
:10167000050A0A0600004020007088888888887063
:10168000050A0A0600001020007088888888887083
:10169000050A0A0600002050007088888888887033
:1016A000050A0A06000068B000708888888888707B
:1016B0000509090600005000708888888888700530
:1016C000050506000188502050880509090600FF1D
:1016D000087098A8A8A8C87080050A0A06000040EB
:1016E000200088888888888870050A0A060000100B
:1016F000200088888888888870050A0A06000020EB
:10170000500088888888888870050909060000507C
:101710000088888888888870050A0A0600001020DA
:10172000008888502020202004070706010080E060
:10173000909090E080050707060000708890A090C8
:1017400088B00508080600004020007008788878F6
:101750000508080600001020007008788878050841
:1017600008060000205000700878887805080806F0
:10177000000068B000700878887805070706000048
:10178000500070087888780508080600002050206E
:101790007008788878050505060000702870A07824
:1017A0000507070600FE708880887010600508082D
:1017B0000600004020007088F080700508080600D0
:1017C000001020007088F0807005080806000020D6
:1017D00050007088F0807005070706000050007008
:1017E00088F08070030808060100804000C0404077
:1017F00040E0030808060100204000C0404040E0EF
:1018000003080806010040A000C0404040E0030774
:1018100007060100A000C0404040E005090906009D
:101820000050205008788888887005080806000055
:1018300068B000B0C8888888050808060000402005
:101840000070888888700508080600001020007065
:101850008888887005080806000020500070888875
:10186000887005080806000068B0007088888870D5
:101870000507070600005000708888887005050578
:101880000600012000F800200505050600007898F4
:10189000A8C8F0050808060000402000888888884D
:1018A00070050808060000102000888888887005E8
:1018B00008080600002050008888888870050707FF
:1018C00006000050008888888870050A0A0600FE15
:1018D000102000888888502040800509090600FEF5
:1018E0008080F0888888F080800509090600FE5015
:1018F00000888888502040804D3330332055312077
:101900004525692053256900504944204175746F6D
:1019100074756E65202A005049442D44202A0050D9
:1019200049442D49202A005049442D50202A0020A6
:10193000082046616B746F72002008206D6178008A
:101940002008206D696E0061757300616E0041753D
:10195000746F2054656D70657261747572005620E5
:101960006D696E204C656572666168727400562000
:101970006D696E200056206D617820450056206DFF
:101980006178205A0056206D617820590056206DEC
:10199000617820580041206D617820450041206D1C
:1019A0006178205A0041206D617820590041206DF6
:1019B000617820580041204C6565726661687274D8
:1019C00000412045696E7A75670042657363686CF3
:1019D00065756E6967756E6700220A00656E7175C0
:1019E000657565696E672022006F6B0052657365CF
:1019F0006E643A200020573A0042657474206BC32D
:101A0000BC686C742E2E2E00426574742068656963
:101A10007A742E2E2E0023646566696E6520444517
:101A20004641554C545F004B6420004B6920004BED
:101A3000702000504944204175746F74756E6520A4
:101A400066696E69736865642120507574207468D6
:101A500065206C617374204B702C204B6920616E83
:101A600064204B6420636F6E7374616E74732066C0
:101A7000726F6D2062656C6F7720696E746F2043A2
:101A80006F6E66696775726174696F6E2E680A00A1
:101A9000504944204175746F74756E6520666169A4
:101AA0006C6564212074696D656F75740A00504916
:101AB00044204175746F74756E65206661696C654C
:101AC00064212054656D706572617475726520744F
:101AD0006F6F20686967680A00204B643A20002015
:101AE0004B693A2000204B703A20000A20436C6179
:101AF0007373696320504944200A002054753A20CA
:101B000000204B753A2000206D61783A2000206D4E
:101B1000696E3A200020643A200020626961733ABD
:101B20002000504944204175746F74756E652073B0
:101B3000746172740A00504944204175746F747561
:101B40006E65206661696C6564212054656D706501
:101B500072617475726520746F6F20686967680AB6
:101B600000504944204175746F74756E652066613C
:101B7000696C6564212042616420657874727564C3
:101B80006572206E756D6265720A004572723A2048
:101B90007574663820666F6E74206E6F7420696E7F
:101BA000697469616C697A65642E004572723A20C5
:101BB0007574663820666F6E74206E6F7420696E5F
:101BC000697469616C697A65642E004A756E637424
:101BD000696F6E2044657600452053746570732FDD
:101BE0006D6D005A2053746570732F6D6D00592010
:101BF00053746570732F6D6D005820537465707346
:101C00002F6D6D004572772E2045696E7374656C7B
:101C10006C756E67656E003F004162627265636855
:101C2000656E0042657374C3A4746967656E004D88
:101C3000343238005765726B7365696E7374656C06
:101C40006C756E67656E0046696C616D656E7400DB
:101C500054656D706572617475720053746570734C
:101C60002F6D6D004A65726B0042657363686C6529
:101C7000756E6967756E6700476573636877696E2F
:101C80006469676B656974005365747A6520486F91
:101C90006D657665727361747A004B6F6E66696705
:101CA00075726174696F6E003F004EC3A463687300
:101CB0007465204B6F6F7264696E61746500466570
:101CC000727469670057656974657200486F6D6961
:101CD0006E672058595A00417573736368616C745C
:101CE0002044656C6179004CC3BC66746572204DFC
:101CF0006F746F726C617374004D6F746F726C618E
:101D00007374204D6F647573004CC3BC6674657248
:101D1000204C6565726C61756600426574740044A0
:101D2000C3BC7365004CC3BC66746572004B6F6EB8
:101D300066696775726174696F6E001FE03FF03FFE
:101D4000F03FF01FE01FE03FF03FF03FF00FC00713
:101D50008003001FE02010201020101020102020F1
:101D600010201030300840048003003FFFF83E0090
:101D7000F839F03831E01831E01821E1E820F3E8D3
:101D8000207FE82077E828EE282FDC082FFC082F9A
:101D90009E082F0F08300F18300F18381F383E00DC
:101DA000F83FFFF83FFFF83E00F8383F38307E1824
:101DB000307C18287C082C38082F39C82FFFE82FD2
:101DC000C7E82FFFE82739E8203868207C28307CD6
:101DD0001830FC1839F8383E00F83FFFF83FFFF89C
:101DE0003E00F8380F38341FD8361F982F1F082FA1
:101DF0009E082FFC082FDC0827EFC82077E8207FFB
:101E0000E820F3E821F1E833F0D837F05839E0382A
:101E10003E00F83FFFF83FFFF83E80F83980383742
:101E200081D837C3D827C7E823C7F821FF88206C9B
:101E300008206C08206C0823FF083FC7882FC7C8FC
:101E40003787D83703D83803383E02F83FFFF81FEA
:101E5000FFF81FFFF80410400208200208200410B9
:101E600040082080104100104100082080041040EC
:101E70000000001FFFF81FFFF821001407060033C1
:101E800072D1C089003F0B152109002D3A15220996
:101E900000214A15240900213A1527A60000000058
:101EA000000000FFFFFFFFFFC00000000000000B6C
:101EB0001870E1C3801B0CF0E0E7003B27F0707660
:101EC000003B33F13030007B3333B818007BB03344
:101ED000B80C007BB0373C6E000330377CE7000362
:101EE00030360DC380000000000000FFFFFFFFFF41
:101EF000C000000000000007000008400009649DC9
:101F00002F0E000F54A12950000954A12950000997
:101F100057BDEF5E00000080000000000780000059
:101F20000000000000000000000000000024F4D4C5
:101F30003050C38E20C2A24017828B7011127A914A
:101F40000D816CD90AA861E108C758660761514341
:101F5000061E4B5D05C145A7041A411104093D98B1
:101F600003713931034036DB0265339102D43054BA
:101F700002802E1D02632CEE01752AC501B028A037
:101F800001102781018F2564012B244B01E02234AD
:101F900001AC211F018D200D01801FFC00841EED6E
:101FA00000971DDF00B81CD200E61BC600201BBC3A
:101FB00000641AB200B219A8000A19A0006A1899A0
:101FC00000D117910040178B00B516840031167EA2
:101FD00000B31579003A157300C7146F0058146ADE
:101FE00000EE1366008813630025135E00C7125BC2
:101FF000006C12570015125400C111510070114F9E
:102000000021114B00D61049008D104700461044A6
:102010000002104200C00F4000800F3E00420F3C03
:1020200000060F3B00CB0E3800930E37005C0E35D8
:1020300000270E3400F30D3200C10D3100900D3039
:1020400000600D2E00320D2D00050D2C00D90C2B3B
:1020500000AE0C2900850C29005C0C2700350C27EC
:10206000000E0C2600E80B2400C40B2400A00B2358
:10207000007D0B23005A0B2100390B2100180B2087
:1020800000F80A1F00D90A1E00BB0A1E009D0A1D87
:1020900000800A1D00630A1C00470A1B002C0A1B53
:1020A00000110A1A00F7091A00DD091900C40919FC
:1020B00000AB091900920917007B09180063091782
:1020C000004C09160036091600200916000A0915E9
:1020D00000F5081500E0081400CC081400B8081436
:1020E00000A4081400900813007D0812006B081368
:1020F0000058081200460812003408110023081185
:10210000001208110001081100F0071000E007108C
:1021100000D0071000C0071000B0070F00A1071083
:102120000091070E0083070F0074070F0065070E6C
:102130000057070E0049070E003B070D002E070E43
:102140000020070D0013070D0006070D00F9060C0F
:1021500000ED060D00E0060C00D4060C00C8060CCD
:1021600000BC060C00B0060C00A4060B0099060C7F
:10217000008D060B0082060B0077060B006C060B29
:102180000061060A0057060B004C060A0042060AC8
:102190000038060A002E060A0024060A001A060A5B
:1021A000001006090007060A00FD050900F40509EC
:1021B00000EB050900E2050900D9050900D0050971
:1021C00000C7050900BE050900B5050800AD0508F2
:1021D00000A50509009C050800940508008C050869
:1021E00000840508007C050800740508006C0507DC
:1021F00000650508005D050700560508004E050747
:1022000000470507004005080038050700310507AD
:10221000002A050700230507001C05060016050710
:10222000000F0507000805060002050700FB04066D
:1022300000F5040700EE040600E8040600E20407C7
:1022400000DB040600D5040600CF040600C904061E
:1022500000C3040600BD040600B7040600B104056F
:1022600000AC040600A6040600A00405009B0406BA
:102270000095040500900406008A04050085040505
:1022800000800406007A040500750405007004054A
:10229000006B04050066040500610405005C04058C
:1022A0000057040500520405004D040500480405CC
:1022B00000430405003E0404003A0405003504050B
:1022C00000300404002C0405002704040023040546
:1022D000001E0404001A040400160405001104047E
:1022E000000D0404000904050004040400000404B3
:1022F00000FC030400F8030400F4030400F00304EA
:1023000000EC030400E8030400E4030400E0030419
:1023100000DC030400D8030400D4030400D0030449
:1023200000CC030400C8030300C503030024F40425
:10233000D9201BC40C5C0E9804C4095F02650771A8
:1023400001F405F900FB04B30048048700C10369E8
:10235000005803550003034500BE023A00840231D1
:102360000053022A002902250004022000E4011C77
:1023700000C8011900AF011700980114008401136F
:1023800000710110006101100051010E0043010DA8
:102390000036010B002B010B0020010B0015010979
:1023A000000C01090003010800FB000800F300080D
:1023B00000EB000700E4000600DE000600D800067F
:1023C00000D2000600CC000500C7000500C20005D1
:1023D00000BD000400B9000400B5000400B1000411
:1023E00000AD000400A9000400A5000300A2000342
:1023F000009F0004009B000300980003009500026A
:102400000093000300900003008D0002008B000386
:1024100000880002008600020084000300810002A0
:10242000007F0002007D0002007B000200790002B4
:1024300000770001007600020074000200720001C3
:1024400000710002006F0002006D0001006C0002CC
:10245000006A0001006900020067000100660001D7
:1024600000650001006400020062000100610001DB
:1024700000600001005F0002005D0001005C0001DF
:10248000005B0001005A00010059000100580001E2
:1024900000570001005600010055000100540001E2
:1024A00000530000005300010052000100510001E0
:1024B00000500001004F0001004E0000004E0001DE
:1024C000004D0001004C0001004B0000004B0001DA
:1024D000004A0001004900010048000000480001D6
:1024E00000470001004600000046000100450000D2
:1024F00000450001004400010043000000430001CA
:1025000000420000004200010041000000410001C3
:1025100000400001003F0000003F0001003E0000BD
:10252000003E0001003D0000003D0001003C0000B5
:10253000003C0000003C0001003B0000003B0001AB
:10254000003A0000003A00010039000000390001A3
:10255000003800000038000000380001003700009B
:102560000037000100360000003600000036000190
:102570000035000000350000003500010034000087
:10258000003400000034000100330000003300007C
:102590000033000100320000003200000032000170
:1025A0000031000000310000003100010030000067
:1025B0000030000000300001002F0000002F00005C
:1025C000002F0000002F0001002E0000002E000050
:1025D000002E0001002D0000002D0000002D000045
:1025E000002D0001002C0000002C0000002C000039
:1025F000002C0001002B0000002B0000002B00002D
:10260000002B0001002A0000002A0000002A000020
:10261000002A000100290000002900000029000014
:102620000029000000290001002800000028000007
:1026300000280000002800000028000100270000FA
:1026400000270000002700000027000000270001ED
:1026500000260000002600000026000000260000E2
:1026600000260001002500000025000000250000D4
:1026700000250000002500000025000100240000C6
:1026800000240000002400000024000000240001B9
:1026900000230000002300000023000000230000AE
:1026A000002300000023000000230001002200009E
:1026B0000022000000220000002200000022000092
:1026C0000022000100210000002100000021000084
:1026D0000021000000210000002100000021000175
:1026E000002000000020000000200000002000006A
:1026F0000020000000200000002000000020000159
:10270000001F0000001F0000001F0000001F00004D
:10271000001F0000001F0000001F0001001E00003D
:10272000001E0000001E0000001E000000393000E6
:10273000003325000087190000B00F0000DB0800FF
:1027400000BD040000740200003F01000001FFFF13
:10275000FFFFFFFFFFFFFFFFFFFFFF0FFFFFFFFF79
:10276000FFFFFFFFFFFFFFFFFF1E00000000000054
:102770000000000007FFFF3800000000000000001C
:10278000000003FFFF7000000000000000000000D8
:1027900001FFFF600000000000000000000000FFDB
:1027A000FF6000000000000000000000007FFFC08C
:1027B00000000000000000007800003FFFC00FC0D4
:1027C000FC00000000007818001FFFC03FE1FF0080
:1027D00000000000783C000FFFC07FF3FF80000086
:1027E0000000783C0007FFC0FFFFFFC000000000B2
:1027F000783C0003FFC1F87F87E00000000078000C
:102800000001FFC1F03F03E000000000780000007D
:10281000FFC1E01E01E01F0003E0783C03F07FC130
:10282000E01E01E07FC00FF8783C07FC3FC1E01ECE
:1028300001E1FFE01FFC783C0FFE1FC1E01E01E339
:10284000FFF03FFE783C1FFE0FC1E01E01E3F3F8EE
:102850003F3E783C3F3F07C1E01E01E7E0FC7C1FA4
:10286000783C3E1F07C1E01E01E7C07C7C0F783C2E
:102870003C0F03C1E01E01E7807C780F783C3C0FE1
:1028800003C1E01E01E7803C7800783C3C0F03C1A7
:10289000E01E01E7803C7800783C3C0F03C1E01E5D
:1028A00001E7803C7800783C3C0F03C1E01E01E763
:1028B000C03C7800783C3C0F03C1E01E01E3E03CE3
:1028C00078007C3C3C0F03C1E01E01E3FF3FF800B1
:1028D0007FBC3C0F03C1E01E01E1FF3FF8003FBF9A
:1028E000FC0F03C1E01E01E0FF3FF8001FBFFC0F1B
:1028F00003C1E01E01E07F3FF8000FBFFC0F036043
:102900000000000000000000000000000760000060
:102910000000000000000000000006700000000041
:1029200000000000000000000E3800000000000061
:102930000000000000001C1E00000000000000005D
:1029400000000000780FFFFFFFFFFFFFFFFFFFFF0A
:10295000FFFFF001FFFFFFFFFFFFFFFFFFFFFFFF94
:102960008001FFFFFFFFFFFFFFFFFFFFFFFFFF0FE4
:10297000FFFFFFFFFFFFFFFFFFFFFFFFFF1E000046
:10298000000000000000000007FFFF38000000000A
:1029900000000000000003FFFF70000000000000C6
:1029A0000000000001FFFF600000000000000000C8
:1029B000000000FFFF6000000000000000000000B9
:1029C000007FFFC000000000000000007800003F12
:1029D000FFC00FC0FC00000000007818001FFFC0FF
:1029E0003FE1FF0000000000783C000FFFC07FF3D4
:1029F000FF8000000000783C0007FFC0FFFFFFC021
:102A000000000000783C0003FFC1F87F87E0000071
:102A1000000078000001FFC1F03F03E0000000006B
:102A200078000000FFC1E01E01E01F0003E0783CD9
:102A300000007FC1E01E01E07FC00FF8783C00007D
:102A40003FC1E01E01E1FFE01FFC783C00001FC118
:102A5000E01E01E3FFF03FFE783C00000FC1E01EE6
:102A600001E3F3F83F3E783C000007C1E01E01E7B8
:102A7000E0FC7C1F783C000007C1E01E01E7C07C41
:102A80007C0F783C000003C1E01E01E7807C780FDA
:102A9000783C000003C1E01E01E7803C7800783CF0
:102AA000000003C1E01E01E7803C7800783C000094
:102AB00003C1E01E01E7803C7800783C000003C1C0
:102AC000E01E01E7C03C7800783C000003C1E01E36
:102AD00001E3E03C78007C3C000003C1E01E01E320
:102AE000FF3FF8007FBC000003C1E01E01E1FF3F93
:102AF000F8003FBF000003C1E01E01E0FF3FF80007
:102B00001FBF000003C1E01E01E07F3FF8000FBFC0
:102B10000000036000000000000000000000000052
:102B200007600000000000000000000000000670C8
:102B30000000000000000000000000000E3800004F
:102B4000000000000000000000001C1E000000004B
:102B50000000000000000000780FFFFFFFFFFFFFF4
:102B6000FFFFFFFFFFFFF001FFFFFFFFFFFFFFFF82
:102B7000FFFFFFFF8001FFFFFFFFFFFFFFFFFFFFE2
:102B8000FFFFFF0FFFFFFFFFFFFFFFFFFFFFFFFF45
:102B9000FF1E0000000000000000000007FFFF38DB
:102BA0000000000000000000000003FFFF700000B4
:102BB000000000000000000001FFFF6000000000B6
:102BC00000000000000000FFFF60000000000000A7
:102BD00000000000007FFFC00000000000000000B7
:102BE0007800003FFFC00FC0FC000000000078002C
:102BF000001FFFC03FE1FF00000000007800000F51
:102C0000FFC07FF3FF800000000078000007FFC0D6
:102C1000FFFFFFC00000000078000003FFC1F87F45
:102C200087E00000000078000001FFC1F03F03E0F2
:102C30000000000078000000FFC1E01E01E01F005E
:102C400003E0780000007FC1E01E01E07FC00FF8C4
:102C5000780000003FC1E01E01E1FFE01FFC7800AA
:102C600000001FC1E01E01E3FFF03FFE78000000FE
:102C70000FC1E01E01E3F3F83F3E7800000007C1FA
:102C8000E01E01E7E0FC7C1F7800000007C1E01EA9
:102C900001E7C07C7C0F7800000003C1E01E01E763
:102CA000807C780F7800000003C1E01E01E7803CC3
:102CB00078007800000003C1E01E01E7803C780046
:102CC0007800000003C1E01E01E7803C7800780036
:102CD000000003C1E01E01E7C03C7800780000005E
:102CE00003C1E01E01E3E03C78007C00000003C16A
:102CF000E01E01E3FF3FF8007F00000003C1E01E7B
:102D000001E1FF3FF8003F00000003C1E01E01E0C9
:102D1000FF3FF8001F00000003C1E01E01E07F3FFD
:102D2000F8000F0000000360000000000000000039
:102D3000000000000760000000000000000000002C
:102D4000000006700000000000000000000000000D
:102D50000E380000000000000000000000001C1EF3
:102D6000000000000000000000000000780FFFFFDE
:102D7000FFFFFFFFFFFFFFFFFFFFF001FFFFFFFF70
:102D8000FFFFFFFFFFFFFFFF8001FFFFFFFFFFFFD0
:102D9000FFFFFFFFFFFFFF0FFFFFFFFFFFFFFFFF33
:102DA000FFFFFFFFFF1E000000000000000000000A
:102DB00007FFFF380000000000000000000003FFD4
:102DC000FF700000000000000000000001FFFF6035
:102DD0000000000000000000000000FFFF60000095
:102DE0000000000000000000007FFFC000000000A5
:102DF000000000000000003FFFC00FC0FC0000000A
:102E000000000000001FFFC03FE1FF0000000000C5
:102E10000000000FFFC07FF3FF80000000000000F3
:102E20000007FFC0FFFFFFC000000000000000031C
:102E3000FFC1F87F87E00000000000000001FFC133
:102E4000F03F03E00000000000000000FFC1E01EB2
:102E500001E01F0003E0000000007FC1E01E01E070
:102E60007FC00FF8000000003FC1E01E01E1FFE05D
:102E70001FFC000000001FC1E01E01E3FFF03FFE49
:102E8000000000000FC1E01E01E3F3F83F3E000028
:102E9000000007C1E01E01E7E0FC7C1F000000000D
:102EA00007C1E01E01E7C07C7C0F0000000003C1E9
:102EB000E01E01E7807C780F0000000003C1E01EE7
:102EC00001E7803C78000000000003C1E01E01E73C
:102ED000803C78000000000003C1E01E01E7803C58
:102EE00078000000000003C1E01E01E7C03C78004C
:102EF0000000000003C1E01E01E3E03C7800000098
:102F0000000003C1E01E01E3FF3FF80000000000E5
:102F100003C1E01E01E1FF3FF8000000000003C113
:102F2000E01E01E0FF3FF8000000000003C1E01ECA
:102F300001E07F3FF8000000000003600000000097
:102F4000000000000000000007600000000000001A
:102F500000000000000006700000000000000000FB
:102F6000000000000E38000000000000000000001B
:102F700000001C1E00000000000000000000000017
:102F8000780FFFFFFFFFFFFFFFFFFFFFFFFFF001D5
:102F9000FFFFFFFFFFFFFFFFFFFFFFFF8001FFFFBE
:102FA000FFFFFFFFFFFFFFFFFFFFFF0FFFFFFFFF21
:102FB000FFFFFFFFFFFFFFFFFF1E000000000000FC
:102FC0000000000007FFFF380000000000000000C4
:102FD000000003FFFF700000000000000000000080
:102FE00001FFFF600000000000000000000000FF83
:102FF000FF6000000000000000000000007FFFC034
:1030000000000000000000000000003FFFC00FC0F3
:10301000FC00000000000000001FFFC03FE1FF00B7
:10302000000000000000000FFFC07FF3FF800000E1
:10303000000000000007FFC0FFFFFFC0000000000D
:1030400000000003FFC1F87F87E0000000000000DF
:103050000001FFC1F03F03E000000000000000009D
:10306000FFC1E01E01E01F000000000000007FC162
:10307000E01E01E07FC00000000000003FC1E01E34
:1030800001E1FFE00000000000001FC1E01E01E3BD
:10309000FFF00000000000000FC1E01E01E3F3F8A4
:1030A00000000000000007C1E01E01E7E0FC000096
:1030B0000000000007C1E01E01E7C07C0000000026
:1030C000000003C1E01E01E7807C0000000000005A
:1030D00003C1E01E01E7803C00000000000003C1C6
:1030E000E01E01E7803C00000000000003C1E01E7C
:1030F00001E7803C00000000000003C1E01E01E782
:10310000C03C00000000000003C1E01E01E3E03C01
:1031100000000000000003C1E01E01E3FF3F0000CB
:103120000000000003C1E01E01E1FF3F00000000BD
:10313000000003C1E01E01E0FF3F000000000000AE
:1031400003C1E01E01E07F3F0000000000000360BB
:103150000000000000000000000000000760000008
:1031600000000000000000000000067000000000E9
:1031700000000000000000000E3800000000000009
:103180000000000000001C1E000000000000000005
:1031900000000000780FFFFFFFFFFFFFFFFFFFFFB2
:1031A000FFFFF001FFFFFFFFFFFFFFFFFFFFFFFF3C
:1031B0008001FFFFFFFFFFFFFFFFFFFFFFFFFF0F8C
:1031C000FFFFFFFFFFFFFFFFFFFFFFFFFF1E0000EE
:1031D000000000000000000007FFFF3800000000B2
:1031E00000000000000003FFFF700000000000006E
:1031F0000000000001FFFF60000000000000000070
:10320000000000FFFF600000000000000000000060
:10321000007FFFC000000000000000000000003F31
:10322000FFC00FC0FC00000000000000001FFFC036
:103230003FE1FF00000000000000000FFFC07FF32F
:10324000FF800000000000000007FFC0FFFFFFC07C
:103250000000000000000003FFC1F87F87E00000CD
:10326000000000000001FFC1F03F03E0000000008B
:1032700000000000FFC1E01E01E0000000000000AF
:1032800000007FC1E01E01E000000000000000001F
:103290003FC1E01E01E000000000000000001FC16F
:1032A000E01E01E000000000000000000FC1E01E71
:1032B00001E0000000000000000007C1E01E01E086
:1032C000000000000000000007C1E01E01E0000057
:1032D00000000000000003C1E01E01E0000000004B
:1032E0000000000003C1E01E01E00000000000003B
:1032F000000003C1E01E01E000000000000000002B
:1033000003C1E01E01E0000000000000000003C156
:10331000E01E01E0000000000000000003C1E01E0C
:1033200001E0000000000000000003C1E01E01E019
:10333000000000000000000003C1E01E01E00000EA
:1033400000000000000003C1E01E01E000000000DA
:103350000000000003C1E01E01E0000000000000CA
:1033600000000360000000000000000000000000FA
:103370000760000000000000000000000000067070
:103380000000000000000000000000000E380000F7
:10339000000000000000000000001C1E00000000F3
:1033A0000000000000000000780FFFFFFFFFFFFF9C
:1033B000FFFFFFFFFFFFF001FFFFFFFFFFFFFFFF2A
:1033C000FFFFFFFF8001FFFFFFFFFFFFFFFFFFFF8A
:1033D000FFFFFF0FFFFFFFFFFFFFFFFFFFFFFFFFED
:1033E000FF1E0000000000000000000007FFFF3883
:1033F0000000000000000000000003FFFF7000005C
:10340000000000000000000001FFFF60000000005D
:1034100000000000000000FFFF600000000000004E
:1034200000000000007FFFC000000000000000005E
:103430000000003FFFC0000000000000000000008E
:10344000001FFFC000000000000000000000000F8F
:10345000FFC0000000000000000000000007FFC0E7
:10346000000000000000000000000003FFC000009A
:1034700000000000000000000001FFC0000000008C
:103480000000000000000000FFC00000000000007D
:103490000000000000007FC00000000000000000ED
:1034A000000000003FC0000000000000000000001D
:1034B00000001FC00000000000000000000000002D
:1034C0000FC000000000000000000000000007C066
:1034D00000000000000000000000000007C0000025
:1034E0000000000000000000000003C00000000019
:1034F000000000000000000003C000000000000009
:1035000000000000000003C00000000000000000F8
:103510000000000003C000000000000000000000E8
:10352000000003C0000000000000000000000000D8
:1035300003C000000000000000000000000003C005
:1035400000000000000000000000000003C00000B8
:103550000000000000000000000003C000000000A8
:10356000000000000000000003C000000000000098
:1035700000000000000003600000000000000000E8
:1035800000000000076000000000000000000000D4
:1035900000000670000000000000000000000000B5
:1035A0000E380000000000000000000000001C1E9B
:1035B000000000000000000000000000780FFFFF86
:1035C000FFFFFFFFFFFFFFFFFFFFF001FFFFFFFF18
:1035D000FFFFFFFFFFFFFFFF800000000000000073
:1035E00000000000000000000000000000000000DB
:1035F00000000000000000000000047F03E0000164
:10360000F8000F00007F8003F0000C7F03F0000340
:10361000F8001F80007FC007F0000C7F03F8000750
:10362000F8003F80007FC00FF0001C7F03FC000FFC
:10363000F8003FC0003FE01FF0001C7F03FE001FAA
:10364000F8003FC0001FF03FF0003C7F01FF003F4B
:10365000F8001FE0000FF87FF0003C7F00FF807F44
:10366000F8000FE00007F87FE0007C7F007FC0FFDC
:10367000F8000FF00007FC3FC0007C7F003FE1FF37
:10368000F80007F80003FE1F8000FC7F001FFFFF0B
:10369000F80187F80001FF0F0000FC7F030FFFFF18
:1036A000F801C3FC0000FF860001FC7F0387FFF3E5
:1036B000F803E3FC00007F800001FC7F03C3FFE30D
:1036C000F803E1FE00007FC00003FC7F03E1FFC3BD
:1036D000F807F1FE00003FE00003FC7FE3F0FF830A
:1036E000F807F0FF00001FF00007FC7FE3F87F03FE
:1036F000F80FF07F00000FF00007FC7FE3F81E03D7
:10370000F80FE07F80000FF8000FFC7FE3F8000364
:10371000F81FE3FF800387FC000FFC7FE3F8000342
:10372000F81FC3FFC007C3FE001FFC7FE3F80003C0
:10373000F83FC7FFC00FE1FE0000007F03F8000361
:10374000F83F87FFE01FF1FF0000007F03F8000350
:10375000F87F8FFFE03FF0FF8000007F03F8000359
:10376000F87F0FFFF07FF07FC000007F03F80003B9
:10377000F8FF0007F0FFE03FC000007F03F8000300
:10378000F8FE0007F8FFC03FE000007F03F80003E9
:10379000F9FE0003F8FF801FF000007F03F800032C
:1037A000F9FC0003FCFF000FF000007F03F80003AA
:1037B000FBFC0001FCFE000FF00000000000000018
:1037C00000000000000000000000000000000000F9
:1037D00000000000000000000068747470733A2F4D
:1037E0002F6769742E696F2F666A587A7200344D9C
:1037F000415820322E302E3533303352656C2E0036
:10380000C533B1319D2F892D752B61294D2720207E
:10381000506C616E6E65724275666665724279744F
:1038200065733A20002046726565204D656D6F72A4
:10383000793A2000436F6D70696C65643A204D6180
:103840007920203320323032300A00204C617374EA
:1038500020557064617465643A20323032302D3006
:10386000332D3331207C20417574686F723A2028E3
:1038700047336D316E315333727633722C20416E83
:1038800079637562696320344D4158290A00344DCB
:10389000415820322E302E3533303352656C2E0A8B
:1038A000004D61726C696E0020536F6674776172AF
:1038B000652052657365740A0020576174636864FB
:1038C0006F672052657365740A002042726F776ECD
:1038D000206F75742052657365740A0020457874F2
:1038E00065726E616C2052657365740A00506F7763
:1038F000657255700A0073746172740A00617574A0
:103900006F25632E67004732385859004D313030EB
:1039100031006572726F722077726974696E672008
:10392000746F2066696C650A00446F6E6520736170
:1039300076696E672066696C652E0A004D32390023
:10394000456E6473746F70700025532025632025C5
:103950006320256320256300205A3A0020593A004D
:1039600020583A00656E6473746F707320686974D0
:103970003A20005A5F53544F505F50494E005A5FEF
:10398000535445505F50494E005A5F4D494E5F5069
:10399000494E005A5F454E41424C455F50494E00EA
:1039A0005A5F4449525F50494E00595F53544F503B
:1039B0005F50494E00595F535445505F50494E0087
:1039C000595F4D494E5F50494E00595F454E414247
:1039D0004C455F50494E00595F4449525F50494E33
:1039E00000585F53544F505F50494E00585F535436
:1039F00045505F50494E00585F4D494E5F50494E0B
:103A000000585F454E41424C455F50494E00585F5B
:103A10004449525F50494E0053535F50494E005342
:103A20004552564F335F50494E00534552564F3220
:103A30005F50494E00534552564F315F50494E003A
:103A4000534552564F305F50494E00534453530034
:103A500053445F4445544543545F50494E005343DB
:103A60004B5F50494E0052414D50535F44395F50B7
:103A7000494E0052414D50535F44385F50494E000B
:103A800052414D50535F4431305F50494E004D4FCD
:103A900053495F50494E004D49534F5F50494E00C6
:103AA0004D4158363637355F53535F50494E004CC1
:103AB00045445F50494E004C43445F50494E535F6C
:103AC0005253004C43445F50494E535F454E414270
:103AD0004C45004C43445F50494E535F4437004CC3
:103AE00043445F50494E535F4436004C43445F505B
:103AF000494E535F4435004C43445F50494E535F39
:103B00004434004845415445525F4245445F504962
:103B10004E004845415445525F305F50494E004683
:103B2000494C5F52554E4F55545F50494E004641E7
:103B30004E325F50494E0046414E315F50494E0073
:103B400046414E5F50494E0045315F535445505FEA
:103B500050494E0045315F454E41424C455F50490A
:103B60004E0045315F4449525F50494E0045315F38
:103B700043535F50494E0045305F535445505F50AA
:103B8000494E0045305F454E41424C455F50494EDD
:103B90000045305F4449525F50494E0045305F4117
:103BA00055544F5F46414E5F50494E00455F4D555D
:103BB00058325F50494E00455F4D5558315F50496E
:103BC0004E00455F4D5558305F50494E00444F47B9
:103BD0004C43445F53434B00444F474C43445F4D79
:103BE0004F534900434F4E54524F4C4C45525F4641
:103BF000414E5F50494E0042544E5F454E43004295
:103C0000544E5F454E320042544E5F454E310042A5
:103C100045455045525F50494E004156525F5353FF
:103C20005F50494E004156525F53434B5F50494EDF
:103C3000004156525F4D4F53495F50494E00415627
:103C4000525F4D49534F5F50494E00545844300025
:103C5000525844300050574D3A20202534640050CB
:103C6000574D3A20202534640050574D3A202025E6
:103C700034640050574D3A20202534640050574D8D
:103C80003A20202534640050574D3A2020253464D2
:103C90000050574D3A20202534640050574D3A20AB
:103CA000202534640050574D3A20202534640050BC
:103CB000574D3A20202534640050574D3A20202596
:103CC00034640050574D3A20202534640050574D3D
:103CD0003A20202534640050574D3A202025346482
:103CE0000050574D3A20202534640050574D3A205B
:103CF00020253464003A200020202020434F4D002E
:103D00002020206E6F6E2D7374616E64617264206A
:103D100050574D206D6F646500202020636F6D70DB
:103D200061726520696E7465727275707420656E5B
:103D300061626C6564002020206F766572666C6F2E
:103D40007720696E7465727275707420656E616239
:103D50006C6564003A20002020202054494D534BCC
:103D600000423A2000202020205443435200413A90
:103D700020002020202054434352002020202043B4
:103D8000533A20002020202057474D3A200050571A
:103D90004D3A20202534640050574D3A20202534D8
:103DA000640047004800000088008A008C00B300CF
:103DB000B400000098009A009C00A800AA00AC0083
:103DC00028012A012C012020202054494D45520071
:103DD000440045006E00800081006F00B000B1001B
:103DE0007000900091007100A000A10072002001FD
:103DF0002101730020697320616C736F2074696501
:103E00006420746F20746869732070696E0054496F
:103E10004D45523143000A202E0020200020205022
:103E20006F72743A200020202000202020416E6113
:103E30006C6F6720696E203D2025356C64003C75F1
:103E40006E757365642F756E6B6E6F776E3E0020B6
:103E50002841253264292020002533642000504960
:103E60004E3A20004F7574707574203D2000496EE5
:103E700070757420203D2000416E616C6F67206971
:103E80006E203D2025356C640070726F746563741C
:103E90006564200020284125326429202000253334
:103EA00064200050494E3A2000503C00014B3C0138
:103EB000013E3C3201313C3301253C34011A3C3592
:103EC000010F3C2501073C2101FF3B1F01F73B236C
:103ED00001E43B0701D83B3301CD3B3401C23B2811
:103EE00001B73B2A01AC3B2C019C3B2C01913B1CB4
:103EF00001833B1801773B1A016D3B2C01623B2289
:103F000001543B1E01483B2401403B0901373B075C
:103F1000012E3B2C011F3B0201123B0A01033B080F
:103F200001F73A1701EB3A1901DF3A1B01D33A1DA9
:103F300001C33A1101B73A1001AF3A0D01A03A425C
:103F400001973A32018E3A3301803A0A01733A08F6
:103F500001663A09015E3A3401503A31014B3A3573
:103F600001403A0B01353A06012A3A05011F3A048D
:103F700001183A35010E3A3701013A2601F73903A3
:103F800001EC393601E1390301D7393D01CA39382D
:103F900001C0390E01B5393C01AA390E01A03930F2
:103FA0000193393E01893912017E392E017339128C
:103FB00001446F6E652E0A0050756C73696E672040
:103FC000202000556E746F756368656420005A5F29
:103FD00050524F42455F534552564F5F4E52206EEE
:103FE0006F74207365742075702E0A0057617463B6
:103FF00068696E672070696E730A00646973006592
:104000006E0061626C65640A00656E6473746F7043
:10401000206D6F6E69746F722000204D3932205808
:104020000020580020204D61783A200020002020F8
:104030004D696E3A2000536F667420656E64737428
:104040006F70733A2000206F7574206F6620726164
:104050006E67650A00536572766F20003A20002073
:10406000536572766F20005761726E696E67203AF1
:1040700020436C65616E20436972636C65207265D4
:104080007175697265732058590A0025290A00253F
:104090002000203B2028004400410049004D3731DA
:1040A000302053003B20436F6E74726F6C6C6572EE
:1040B0002046616E0A0020496E76616C6964206555
:1040C00078747275646572200020436F756E742079
:1040D000583A00004265747400453100626564001E
:1040E0002C2073797374656D2073746F70706564C0
:1040F00021204865617465725F49443A2000484553
:10410000495A454E204552464F4C474C4F53004864
:10411000656174696E67206661696C656400202D55
:1041200020496E76616C6964206578747275646587
:1041300072206E756D62657220210A0070012C017B
:1041400090012701B0012201C0011D01F0011801F9
:104150001002130130020E016002090190020401F5
:10416000C002FF000003FA004003F5008003F000E6
:10417000D003EB002004E6007004E100E004DC0062
:104180004005D700C005D2004006CD00D006C800CB
:104190008007C3003008BE00F008B900C009B400B1
:1041A000B00AAF00B00BAA00D00CA500000EA00012
:1041B000500F9B00C01096005012910000148C000C
:1041C000C0158700B0178200B0197D00D01B7800A1
:1041D000001E730040206E0090226900F0246400ED
:1041E00040275F0090295A00E02B5500102E500008
:1041F00020304B0010324600E033410090353C0047
:104200001037370070383200A0392D00B03A28003E
:10421000A03B2300603C1E00103D1900903D14009F
:10422000103E0F00703E0A00C03E0500003F000037
:10423000403FFBFF803FF6FFC03FF1FF2008204ECC
:104240004943485420455252454943485400546814
:1042500065726D616C2052756E617761790020081E
:1042600020C39C42455253434852495454454E0042
:104270004D415854454D50207472696767657265A9
:104280006400200820554E54455253434852495427
:1042900054454E004D494E54454D50207472696747
:1042A0006765726564000A0A0020205A5F4D494E16
:1042B0003A002020595F4D494E3A002020585F4D6A
:1042C000494E3A004D383420582059205A20450094
:1042D000202F002042403A0020403A0020573A0068
:1042E0000009121B242D363F48415A536C657E77D6
:1042F00019100B023D342F265158434A757C676EC6
:10430000323B2029161F040D7A7368615E574C45B5
:104310002B2239300F061D14636A7178474E555CA5
:10432000646D767F4049525B2C253E3708011A1395
:104330007D746F6659504B42353C272E1118030A85
:10434000565F444D727B60691E170C053A33282175
:104350004F465D546B627970070E151C232A313865
:104360004148535A656C777E09001B122D243F3655
:1043700058514A437C756E671019020B343D262F45
:10438000737A6168575E454C3B3229201F160D0435
:104390006A6378714E475C55222B3039060F141D25
:1043A000252C373E0108131A6D647F7649405B5215
:1043B0003C352E2718110A03747D666F5059424B05
:1043C000171E050C333A21285F564D447B726960F5
:1043D0000E071C152A233831464F545D626B7079E5
:1043E0007C3C3E5E2B3D3F2F5B5D3B2C2A225C00DC
:1043F0000000A0C0000000000000000000004842D3
:1044000000004842000020415761726E696E673AB1
:1044100020486F6D696E672042756D702044697623
:1044200069736F72203C20310A000202040000A070
:10443000400000A0400000803F00005F4300005AA1
:104440004300009643FFFFFF000000010000000151
:104450000000800055555500000040003333330004
:10446000AAAA2A004992240000002000C7711C005B
:1044700099991900D1451700555515003BB1130006
:104480002449120011111100000010000F0F0F003D
:10449000E3380E0043790D00CCCC0C00C3300C0087
:1044A000E8A20B0064210B00AAAA0A00703D0A00D2
:1044B0009DD80900427B090092240900DCD3080042
:1044C000888808001042080000000800F0C10700BA
:1044D0008787070075500700711C07003EEB060038
:1044E000A1BC06006990060066660600703E0600E4
:1044F0006118060017F4050074D105005BB00500D3
:10450000B290050062720500555505007839050026
:10451000B81E0500050505004EEC040087D4040014
:10452000A1BD040090A7040049920400C17D0400CD
:10453000EE690400C7560400444404005C320400E1
:104540000821040041100400000004003FF00300B3
:10455000F8E0030026D20300C3C30300CCB5030078
:104560003AA803000A9B0300388E0300C0810300B1
:104570009F750300D0690300505E03001D530300C4
:1045800034480300913D0300333303001629030030
:10459000381F030097150300300C030003030300CA
:1045A0000BFA020049F10200BAE802005CE00200E6
:1045B0002DD802002DD0020059C80200B0C0020060
:1045C00031B90200DAB10200AAAA0200A0A30200D7
:1045D000BC9C0200FA9502005C8F0200DF8802009A
:1045E00082820200457C02002776020027700200CA
:1045F000436A02007C640200D05E02003F59020060
:10460000C8530200FFFDFCFAF8F6F4F2F0EEECEA13
:10461000E9E7E5E3E1E0DEDCDAD9D7D5D4D2D0CFE3
:10462000CDCBCAC8C7C5C3C2C0BFBDBCBAB9B7B677
:10463000B4B3B2B0AFADACAAA9A8A6A5A4A2A1A0DC
:104640009E9D9C9A99989795949392908F8E8D8B1E
:104650008A8988878684838281807F7E7D7B7A7940
:104660007877767574737271706F6E6D6C6B6A6942
:104670006867666564636261605F5E5D5C5B5A5932
:1046800058585756555453525150504F4E4D4C4B0D
:104690004A4A4948474646454443424241403F3ED4
:1046A0003E3D3C3B3B3A393838373635353433328A
:1046B000323130302F2E2E2D2C2B2B2A2929282732
:1046C0002726252524232322212120201F1E1E1DCD
:1046D0001C1C1B1B1A19191818171616151514135C
:1046E0001312121111100F0F0E0E0D0D0C0C0B0AE0
:1046F0000A0909080807070606050504040303025A
:1047000002010000447275636B2070617573696506
:1047100072742E2E2E00416E7963756269632034A7
:104720004D41582062657265697400447275636B0F
:10473000742E2E2E00220A00556E6B6E6F776E203F
:10474000636F6D6D616E643A20220020746F6F207C
:104750006C6F6E6720657874727573696F6E207008
:10476000726576656E7465640A0020636F6C642000
:10477000657874727573696F6E2070726576656E98
:104780007465640A0000005A4300005A4300009612
:10479000430000A0C00000000000000000290A0043
:1047A0002062797465733B206372632000536574E3
:1047B00074696E67732053746F72656420280046B5
:1047C00069656C64206261636B6C6173685F6469C6
:1047D0007374616E63655F6D6D206D69736D617477
:1047E00063682E0A004669656C642066635F7365C2
:1047F0007474696E6773206D69736D617463682E7C
:104800000A004669656C6420706C616E6E65725F4B
:10481000736B65775F666163746F72206D69736D2A
:10482000617463682E0A004669656C6420636F6F6B
:104830007264696E6174655F73797374656D206D00
:1048400069736D617463682E0A004669656C642043
:104850006D6F746F725F63757272656E745F73658E
:104860007474696E67206D69736D617463682E0A74
:10487000004669656C6420706C616E6E65725F6580
:10488000787472756465725F616476616E63655F8A
:104890004B206D69736D617463682E0A004669650B
:1048A0006C6420746D635F737465616C74685F65BC
:1048B0006E61626C6564206D69736D617463682EEE
:1048C0000A004669656C6420746D635F6879627282
:1048D00069645F7468726573686F6C64206D697376
:1048E0006D617463682E0A004669656C6420746D9E
:1048F000635F737465707065725F63757272656E05
:1049000074206D69736D617463682E0A0046696571
:104910006C64207061727365725F766F6C756D6523
:10492000747269635F656E61626C6564206D697342
:104930006D617463682E0A004669656C6420667751
:10494000726574726163745F73657474696E6773A2
:10495000206D69736D617463682E0A004669656C29
:1049600064207265636F766572795F656E61626CF3
:104970006564206D69736D617463682E0A00466911
:10498000656C6420636F6E74726F6C6C65724661E7
:104990006E5F73657474696E6773206D69736D61A2
:1049A0007463682E0A004669656C64206C63645FFA
:1049B000636F6E7472617374206D69736D6174637B
:1049C000682E0A004669656C64206265645049443B
:1049D000206D69736D617463682E0A004669656CA9
:1049E00064206C70715F6C656E206D69736D6174AD
:1049F00063682E0A004669656C6420686F74656E92
:104A000064504944206D69736D617463682E0A00B7
:104A10004669656C642075695F707265686561746C
:104A20005F686F74656E645F74656D70206D697327
:104A30006D617463682E0A004669656C6420626C5F
:104A4000746F7563685F6C6173745F777269747497
:104A5000656E5F6D6F6465206D69736D6174636809
:104A60002E0A004669656C6420736572766F5F611B
:104A70006E676C6573206D69736D617463682E0A6F
:104A8000004669656C6420706C616E6E65725F6C67
:104A90006576656C696E675F616374697665206DC4
:104AA00069736D617463682E0A004669656C6420E1
:104AB00070726F62655F6F6666736574206D69738F
:104AC0006D617463682E0A004669656C64207275B6
:104AD0006E6F75745F73656E736F725F656E616222
:104AE0006C6564206D69736D617463682E0A00469D
:104AF00069656C6420686F6D655F6F666673657469
:104B0000206D69736D617463682E0A004669656C77
:104B10006420657374657070657273206D69736D60
:104B2000617463682E0A00504C4120426574742001
:104B3000566F7277C3A4726D656E00504C4120456C
:104B40007874722E20566F7277C3A4726D656E00F2
:104B50005045544720457874722E20566F7277C3A3
:104B6000A4726D656E0050455447204265747420F0
:104B7000566F7277C3A4726D656E0054656D706573
:104B800072617475720041626BC3BC686C656E00C3
:104B90005045544720566F7277C3A4726D656E00FE
:104BA000504C4120566F7277C3A4726D656E004CF5
:104BB000C3BC6674657200426574740044C3BC7300
:104BC000650048617570746D656EC3BC00466C7598
:104BD000737372617465004CC3BC66746572004285
:104BE0006574740044C3BC7365004765736368777C
:104BF0002E0048617570746D656EC3BC003F005334
:104C0000746172746520447275636B0041626272F4
:104C1000656368656E00447275636B656E00436121
:104C20006E6E6F7420656E74657220737562646950
:104C3000723A2000022E2E0048617570746D656E08
:104C4000C3BC004265776567756E67004D383400F8
:104C50004D6F746F72656E206465616B74697669FF
:104C60006572656E0045636B656E206E6976656C76
:104C70006C696572656E004732385A00486F6D6521
:104C8000205A004732385900486F6D652059004757
:104C900032385800486F6D6520580047323800415F
:104CA00075746F20486F6D650048617570746D652F
:104CB0006EC3BC002E0A006F70656E206661696C61
:104CC00065642C2046696C653A2000000021104282
:104CD0002063308440A550C660E770088129914A5E
:104CE000A16BB18CC1ADD1CEE1EFF13112100273E5
:104CF000325222B5529442F772D662399318837BAE
:104D0000B35AA3BDD39CC3FFF3DEE3622443342034
:104D1000040114E664C774A44485546AA54BB528FD
:104D2000850995EEE5CFF5ACC58DD55336722611C4
:104D3000163006D776F6669556B4465BB77AA7194D
:104D4000973887DFF7FEE79DD7BCC7C448E558868C
:104D500068A7784008611802282338CCC9EDD98E9D
:104D6000E9AFF9488969990AA92BB9F55AD44AB724
:104D70007A966A711A500A333A122AFDDBDCCBBFED
:104D8000FB9EEB799B588B3BBB1AABA66C877CE4F4
:104D90004CC55C222C033C600C411CAEED8FFDEC3D
:104DA000CDCDDD2AAD0BBD688D499D977EB66ED504
:104DB0005EF44E133E322E511E700E9FFFBEEFDD8D
:104DC000DFFCCF1BBF3AAF599F788F8891A981CA6A
:104DD000B1EBA10CD12DC14EF16FE18010A100C249
:104DE00030E3200450254046706760B9839893FBF8
:104DF000A3DAB33DC31CD37FE35EF3B1029012F399
:104E000022D2323542145277625672EAB5CBA5A847
:104E10009589856EF54FE52CD50DC5E234C324A0E8
:104E20001481046674476424540544DBA7FAB799D7
:104E300087B8975FE77EF71DC73CD7D326F2369138
:104E400006B01657667676154634564CD96DC90E9F
:104E5000F92FE9C899E9898AB9ABA9445865480688
:104E6000782768C018E1088238A3287DCB5CDB3F37
:104E7000EB1EFBF98BD89BBBAB9ABB754A545A37D8
:104E80006A167AF10AD01AB32A923A2EFD0FED6C07
:104E9000DD4DCDAABD8BADE89DC98D267C076C6428
:104EA0005C454CA23C832CE01CC10C1FEF3EFF5D17
:104EB000CF7CDF9BAFBABFD98FF89F176E367E5578
:104EC0004E745E932EB23ED10EF01E20453A002065
:104ED0005A3A0020593A00583A0046494C414D454B
:104EE0004E5420454E544C4144454E0046494C4199
:104EF0004D454E54204C4144454E0046494C414D91
:104F0000454E54205745434853454C005374616EF9
:104F1000646172647765727465206C6164656E00AB
:104F20004B6F6E6669672E206C6164656E004B6F17
:104F30006E6669672E2073706569636865726E00BE
:104F4000504554472045696E7374656C6C756E6787
:104F5000656E00504C412045696E7374656C6C75CC
:104F60006E67656E0061757300616E0052756E6FDD
:104F700075742D53656E736F72004CC3BC66746597
:104F800072204B6F6E74726F6C6C65720045727735
:104F90002E2045696E7374656C6C756E67656E0066
:104FA00048617570746D656EC3BC004D373032203A
:104FB000542564004D3630302042302054256400A2
:104FC0004D373032203B2564004D37303120542599
:104FD00064004D373032004D373031004D363030BF
:104FE0002042300048617570746D656EC3BC00442A
:104FF0007275636B20776569746572006175730003
:10500000616E0052756E6F75742D53656E736F729D
:10501000004D65687220656E746C6164656E004653
:105020004F5254532E204F5054494F4E454E3A0044
:10503000445255434B20504155534945525400204A
:105040002044C3BC73653A20004D3234004D3233E6
:105050002025730046696C652073656C6563746513
:10506000640A002053697A653A200046696C65201D
:105070006F70656E65643A2000454E44205355427A
:10508000524F5554494E450A002220706F7300223A
:1050900020706172656E743A2200535542524F552A
:1050A00054494E452043414C4C20746172676574ED
:1050B0003A2200747279696E6720746F2063616CA4
:1050C0006C207375622D67636F64652066696C651B
:1050D00073207769746820746F6F206D616E79201A
:1050E0006C6576656C732E204D4158206C65766535
:1050F0006C2069733A310A0057726974696E6720CF
:10510000746F2066696C653A20002E0A006F706526
:105110006E206661696C65642C2046696C653A2076
:1051200000667265736800646F696E670020666967
:105130006C653A20004E6F772000020000210024A9
:105140000027002A002D0030003300010100000478
:105150000107010A0100002200250028002B002E73
:10516000003100340002010000050108010B0100BC
:105170000020002300260029002C002F0032000010
:1051800001000003010601090105050505070508E1
:10519000080808020202020A0A08080404040401BA
:1051A00001010101010101030303030303030304DC
:1051B0000707070C0C0C0C0C0C0C0C02020202066C
:1051C000060606060606060B0B0B0B0B0B0B0B015C
:1051D0000210202008081020401020408002010208
:1051E00001080402010102040810204080804020D0
:1051F000100804020180040201804020100804020B
:105200000108040201010204081020408001020488
:10521000081020408000000A0B02090C0D0E080740
:105220000304010000000000000000000000000076
:10523000000000000000000000000000000000006E
:10524000001211100000000000000000000000002B
:105250000000000000000000000000202573206D09
:105260006D000020302C312020206D6D0020312C6D
:10527000302020206D6D0031302C302020206D6DCD
:105280000041636873656E206265776567656E00CF
:10529000486F74656E64207A75206B616C7400428F
:1052A000657765676520457874727564657200423C
:1052B0006577656765205A0042657765676520599F
:1052C0000042657765676520580046696C616D65C9
:1052D0006E74207765636873656C6E0046696C61F7
:1052E0006D656E7420656E746C6164656E004669F0
:1052F0006C616D656E74206C6164656E0050455420
:105300004720566F7277C3A4726D656E00504C4192
:1053100020566F7277C3A4726D656E0062656E75FC
:10532000747A65726465662E204865697A656E00D8
:105330005A7572C3BC636B004D656469756D2065F9
:105340006E746665726E74004D656469756D206576
:10535000726B616E6E7400447275636B206162677C
:105360006562726F6368656E004D323520500A4D7C
:1053700032340053442D447275636B207061757331
:10538000696572656E00447275636B2069737400A1
:1053900070617573696572742E2E2E0000576172EC
:1053A0007465206175662064656E00537461727463
:1053B000206465730046696C616D656E7477656322
:1053C0006873656C732E2E2E0057617274652061B0
:1053D0007566004865726175736E61686D6500641D
:1053E00065732046696C616D656E74732E2E2E0098
:1053F00044C3BC7365206865697A74206175660072
:1054000062697474652077617274656E2E2E2E0049
:10541000004B6E6F7066206472C3BC636B656E2058
:10542000756D0044C3BC7365206175667A756865E7
:10543000697A656E000046696C616D656E74206501
:10544000696E6C6567656E00756E64204B6E6F707B
:1054500066206472C3BC636B656E00756D20666FF9
:1054600072747A757365747A656E005761727465CB
:1054700020617566004C6164656E2064657300464A
:10548000696C616D656E74732E2E2E004B6E6F709D
:1054900066206472C3BC636B656E20756D004472D8
:1054A00075636B20666F72747A757365747A656E56
:1054B000000057617274652061756600466F7274F2
:1054C0007365747A656E2064657300447275636BEE
:1054D000732E2E2E0057617274652061756600452B
:1054E0006E746C6164656E206465730046696C61FE
:1054F0006D656E74732E2E2E00313530003A20000B
:1055000035003A20004245443A4550434F5320313C
:1055100030304B0052756E6177617920576174634A
:10552000683A204F4E004D61782054656D7000320E
:105530003735003A20004D696E2054656D70003596
:10554000003A200045313A204550434F5320313036
:10555000304B004E65747A7465696C0047656E6502
:10556000726963003A200050726F746F6B6F6C6CDD
:1055700000312E30003A200042617564726174651A
:1055800000323530303030003A2000416E7963759A
:105590006269632052414D505320312E34004578CA
:1055A0007472756465720031003A2000687474701A
:1055B000733A2F2F6769742E696F2F666A587A7253
:1055C00000416E79637562696320344D4158003241
:1055D0003032302D30332D333100344D41582032AC
:1055E0002E302E3533303352656C2E004D61726C87
:1055F000696E00546865726D6973746F72656E00D0
:10560000426F6172642D496E666F00447275636B00
:1056100065722D496E666F0048617570746D656EB8
:10562000C3BC003F005A7572C3BC636B0053746FF8
:1056300070004B65696E204D656469756D0044723C
:1056400075636B20766F6D204D656469756D0046DE
:10565000696C616D656E74207765636873656C6EE7
:10566000004B6F6E66696775726174696F6E005486
:10567000656D7065726174757200426577656775F6
:105680006E670053442D447275636B20666F7274AD
:105690007365747A656E00C39C6265722064656E82
:1056A00020447275636B6572004A75737469657224
:1056B000756E670053442D447275636B206162629E
:1056C00072656368656E0053442D447275636B2088
:1056D00070617573696572656E00496E666F00452D
:1056E0004550524F4D20496E697469616C697A6505
:1056F000640A0048617264636F646564204465668F
:1057000061756C742053657474696E6773204C6F97
:10571000616465640A00000096430000964300003F
:1057200020410000C8410000A0420000A04200004B
:10573000C8433333B942DC050000DC0500006400D7
:105740000000102700003B200020204D3630332081
:105750000020204D34313220530046696C616D6564
:105760006E742072756E6F75742073656E736F72D0
:105770003A002055004C0046696C616D656E7420DE
:105780006C6F61642F756E6C6F6164206C656E6701
:105790007468733A0020440020490020204D3330C3
:1057A000312050005049442073657474696E6773EA
:1057B0003A0020460020420020480020204D31348D
:1057C000352053004D6174657269616C20686561B4
:1057D00074757020706172616D65746572733A00E2
:1057E00020204D323036205800486F6D65206F669E
:1057F000667365743A00204A0020530020204D3221
:105800003035204200416476616E6365643A20421F
:105810003C6D696E5F7365676D656E745F74696D0D
:10582000655F75733E20533C6D696E5F66656564A8
:10583000726174653E20543C6D696E5F747261766E
:10584000656C5F66656564726174653E204A3C6A9A
:10585000756E635F6465763E002054002052002020
:10586000204D323034205000416363656C657261B5
:1058700074696F6E2028756E6974732F7332293ABC
:1058800020503C7072696E745F616363656C3E208A
:10589000523C726574726163745F616363656C3EF0
:1058A00020543C74726176656C5F616363656C3E25
:1058B0000020204D3230312058004D6178696D75DF
:1058C0006D20416363656C65726174696F6E202839
:1058D000756E6974732F7332293A00204500205A7F
:1058E0000020590020204D3230332058004D61787F
:1058F000696D756D206665656472617465732028D5
:10590000756E6974732F73293A0053746570732030
:1059100070657220756E69743A0020204D32303007
:105920002044300A0020204D3230302044002044F2
:10593000697361626C65640A0046696C616D656ECD
:10594000742073657474696E67733A0020204D315A
:1059500034392043203B20556E69747320696E20D2
:1059600043656C736975730A0020286D6D290020EA
:1059700020473231202020203B20556E697473204F
:10598000696E206D6D00486F6D696E672067657385
:105990006368656974657274006F70656E00545257
:1059A00049474745524544003A200066696C616D9D
:1059B000656E74007A5F6D696E00795F6D696E0067
:1059C000785F6D696E005265706F7274696E6720E2
:1059D000656E6473746F70207374617475730A00FC
:1059E000454550524F4D206461746173697A65205A
:1059F0006572726F722E0A00290A0020627974653E
:105A0000733B2063726320002073746F726564209F
:105A100073657474696E67732072657472696576F4
:105A20006564202800202863616C63756C6174656F
:105A30006429210A0020213D2000454550524F4D48
:105A400020435243206D69736D61746368202D207B
:105A50002873746F7265642920002053697A653A4F
:105A60002000496E6465783A20004669656C6420C0
:105A70006261636B6C6173685F64697374616E63A8
:105A8000655F6D6D206D69736D617463682E0A00CA
:105A90004669656C642066635F73657474696E67DC
:105AA00073206D69736D617463682E0A00466965C1
:105AB0006C6420706C616E6E65725F736B65775F8E
:105AC000666163746F72206D69736D617463682EB3
:105AD0000A004669656C6420636F6F7264696E6169
