:100000000C9481380C94B2380C94B2380C94B238F9
:100010000C94B2380C94B2380C94B2380C94B238B8
:100020000C94B2380C94B2380C94B2380C94B238A8
:100030000C94B2380D944E320C94B2380C94B23801
:100040000C94B2380C94A0BE0C94B2380C94B23814
:100050000C94B2380C94B2380C94D7B10D94089B20
:100060000C94B2380C94B25D0C94A85D0C94B23828
:100070000C94B2380C94B2380C94B2380C94B23858
:100080000C94C8510C94B2380C94B2380C94B23819
:100090000C94B2380C94B2380C94B2380C94B23838
:1000A0000C94B2380C94B2380C949A510C94B23827
:1000B0000C94B2380C94B2380C94B2380C946C5145
:1000C0000C94B2380C94B2380C94B2380C94B23808
:1000D0000C94B2380C94B2380C94B2380C94B238F8
:1000E0000C94B2387453B053FA53DD549954745588
:1000F000C456E256EB563C0272014C0154013E02DA
:10010000C20298024E0184017A02B602020238014C
:1001100050037602160376027602760276027602A3
:10012000760276027602760276027602760276020F
:1001300076027602760276027602760276027602FF
:10014000760276027602760276021E037602760246
:100150007602760276027602760276024003760214
:1001600076027602760276027602760276027602CF
:1001700076020A03FC025202FE021A03F601BE02D4
:1001800088026E020C03E202340258038E02080257
:10019000340188026002E0010602DA02E6019801F9
:1001A0003E01D8022E039402C801CE02E4014A02A5
:1001B0006602C00266012E03AC014A01F0019E02F4
:1001C0004C02C601540218033C018A02F602600187
:1001D000A8017402F8024C034E024802BA026E01F2
:1001E000E0021A0238035C014C034803AC02A80287
:1001F0005E011E025A032202D40268013601DA01AE
:100200002E024001AA0178015403A4026801920160
:1002100082015203084AD73B3BCE016E84BCBFFD2E
:10022000C12F3D6C74319ABD56833DDA3D00C77FC6
:1002300011BED9E4BB4C3E916BAAAABE000000805F
:100240003F05A84CCDB2D44EB93836A9020C50B9EE
:10025000918688083CA6AAAA2ABE000000803F001A
:100260000C94D29F0C94EC8C0D94127B0D94069AF6
:100270000D944E480C9473880D9412940D941E7D29
:100280000D94209A0C94BD8A0C947BF00C94078AF0
:100290000C94449A0D94437D0D94C7310D94DC3138
:1002A0000C94C4560C94865E0D94E4310D94A841D0
:1002B0000D94CE3D0C943F880D9465990D94DE9974
:1002C0000D9441990D945E2D0D94692D0D943C7DF6
:1002D0000D94759A0C948C880D94D33F0D9453997A
:1002E0000C94699D0D94C4310C94B6840C94D189FE
:1002F0000D94349A0C94A0920C9474550C9449A1CA
:100300000C94DD890D94619A0D94D3310C940CA753
:100310000C94B4840C948C940C942F890D94662DB9
:100320000C94EFCA0D94579A0C9483F00C94AE5E23
:100330000D941B7D0C94F5890C9416890C94649D86
:100340000C94F29F0C9499540D9447460D94983157
:100350000D9430990D942A9A0D94407D0C94E25698
:100360000C946E890C94245E0D943E2D0C94119B7C
:100370000C94618A0C94B2840C94BE880D94F13173
:100380000C949BE50D94DD2E0C94F89F0D949192A6
:100390000D94287D0C94A5E50C9420910C946E9DF1
:1003A0000C94C0890D9443430D94522D0C946B8290
:1003B0000C94A6940D940E9A0C94AE8A0C94BC8462
:1003C0000D945C7B0D945A2D0D942F7D0D94177D0B
:1003D0000C9400980C94B8840C9494F00C9457945A
:1003E0000D94467D0C94CB890C94DA940D94C979C4
:1003F0000C94C9890C9465930D9495650D944A2DC0
:100400000C94FA870D94D9310C94B0840D94817BAF
:100410000D94ED7A0C94FA5D0C94A0E50D94F242E3
:100420000C945A880D944D460C94F4940C94EF89D6
:100430000C94198A0D945D990D94462D0D94E399B1
:100440000C944DA40D94F2990C94DB8A0C94E47FE7
:100450000D94DF280C94C0840D946C2D0D94169A85
:100460000C94818A0D94422D0D947E7A0D94BE6574
:100470000D9411430C9477F90D94E1310D94CA3128
:100480000C9474530C9448890C9424930C94E38733
:100490000D9449990D94327D0D94C1920D94459916
:1004A0000C94DD540D9462790D9497920C94D78836
:1004B0000C945B9D0D943A3E0C947BAF0D94553E8D
:1004C0000D94377B0C94138A0C94908A0D94367D8E
:1004D0000C94FA800C94B0530D94302B0D94137A35
:1004E0000D943BA50C94EC9F0D9434990D94F64615
:1004F0000C949F8A0D94EF310C9403890C94EB5665
:100500000C94A5880C9493890D94E93D0C94499C16
:100510000D94A57B0D94F6930C94FB890D94C87AE9
:100520000C94CF8A0C9472970D94257D0C94018ABB
:100530000D94D0310C9471940C946C8A0D94DB93CF
:100540000D94C03D0C94B1890D944D9A0C94F08893
:100550000D9473990D94BF290D946F990C9487890C
:100560000C9491840D94A4310C945B890D94D63134
:100570000D9419430D944F990C94A9920D94EE7912
:100580000D94397D0D94CD310C943D940C94D2A6EC
:100590000C9498F00C94BA840C94C0940D942C7D17
:1005A0000C9449A00C9491920D94FC990C94BE84E7
:1005B0000D94217D0D94147D0C94CBA60C94F95DC3
:1005C0000D9457990D94597A0D941F3E0C940D8AF1
:1005D0000C94E3890C94C8920D94043E0C94E98920
:1005E0000C94FE9F0C94207E0C94FD5D0D943E991E
:1005F0000D943A990C9428880D94F3460D948479BF
:100600000C941C930C947FF00C94A2890C94399454
:100610000C94658A0D94A1480D94367A0C9498A692
:100620000C94FA530C94FCB00C941AA50D948A48BF
:100630000D9405940D94A4790C94C1A20D94844852
:100640000C94789D0C94BBA60C94C89F0C94AAF9AA
:100650000D9424430D94B9430D94622D0D944B7D5C
:100660000C9411880C94CD9F0C94629D0C94739DF6
:100670000D9461990C94CF960D941B320D94562DC8
:100680000D945D480D946F2D0C9442A00D944E2D49
:100690000D946B990C94559D0D9478990D9412A519
:1006A0000D94BD460D946B9A0D94439A0C94D78982
:1006B0000D94A37A0D94E8990D94DA430D944A466B
:1006C0004E414E494E495459494E46CDCCCC3D0A37
:1006D000D7233C17B7D13877CC2B329595E6241F1A
:1006E000B14F0A000020410000C84200401C4620D3
:1006F000BCBE4CCA1B0E5AAEC59D7400407A10F3A6
:100700005A00A0724E18090010A5D4E80000E8763F
:1007100048170000E40B54020000CA9A3B00000096
:10072000E1F505000080969800000040420F0000AF
:1007300000A08601000000102700000000E8030070
:100740000000006400000000000A0000000000013A
:1007500000000000002C76D888DC674F0823DFC13A
:10076000DFAE59E1B1B796E5E3E453C63AE65199F5
:100770007696E8E6C28426EB898C9B62ED407C6F1E
:10078000FCEFBC9C9F40F2BAA56FA5F490055A2AD5
:10079000F75C936B6CF9676DC11BFCE0E40D47FEE1
:1007A000F520E6B500D0ED902E03009435770500D6
:1007B00080841E080000204E0A000000C80C33335D
:1007C00033330F986E12831141EF8D2114893BE66C
:1007D0005516CFFEE6DB18D1844B381BF77C1D90F5
:1007E0001DA4BBE424203284725E228100C9F1245E
:1007F000ECA1E53D27434F4D4D554E4943415449EA
:100800004F4E0044525952554E004552524F52538A
:1008100000494E464F004543484F0047322F47336B
:100820002062616420706172616D65746572730A23
:100830000057617274656E2E2E2E005A2050726F12
:1008400062652050617374204265640A005A2D531A
:100850006F6E6465206175C39F657268616C62002C
:10086000205A3A200020593A200042656420583A24
:1008700020004D65736820706F696E74206F757409
:10088000206F662072616E67650A004B6C69636B4E
:10089000207A756D20466F72747365747A656E0088
:1008A0004D6F746F72656E20616E6765736368610A
:1008B0006C74657400456E642066696C65206C69B3
:1008C00073740A00426567696E2066696C65206C06
:1008D0006973740A00286E6F2066696C652900438D
:1008E000757272656E742066696C653A20005344B7
:1008F000207072696E74696E672062797465200079
:100900004E6F74205344207072696E74696E670A6A
:1009100000537769746368696E6720746F20426959
:100920006E6172792050726F746F636F6C0A005041
:1009300072696E742074696D653A20006F6B006F88
:10094000666600160811080A080308F507444542C0
:1009500055473A004D3131322053687574646F77D2
:100960006E004D31313320530042657474206BC3E7
:10097000BC686C742E2E2E00426574742068656904
:100980007A742E2E2E00344D4158202D2076673358
:1009900072204F46462E002F2F20004D3134352037
:1009A000533C696E6465783E206F7574206F6620D5
:1009B00072616E67652028302D31290A003F4A2078
:1009C0006F7574206F662072616E67652028302E07
:1009D000303120746F20302E33290A0046523A00FD
:1009E00020466C6F773A200050726F7465637465AF
:1009F000642050696E0A00206F7574206F66207243
:100A0000616E67650A00536572766F20003A2000B8
:100A100020536572766F200020643A0020693A0006
:100A200020703A00496E76616C6964206578747252
:100A3000756465720A0020643A0020693A002070EB
:100A40003A0064697300656E0043290A0061626CB4
:100A5000656420286D696E2074656D702000436F99
:100A60006C642065787472756465732061726520AA
:100A7000004F4646004F4E0046696C616D656E74CE
:100A80002072756E6F757420004D34323120696E9E
:100A9000636F727265637420706172616D657465F5
:100AA000722075736167650A004D65736820706F09
:100AB000696E74206F7574206F662072616E676551
:100AC0000A00454550524F4D204F4B0A0043617379
:100AD00065206C696768743A200043617365206C17
:100AE000696768743A206F66660A004572726F72B1
:100AF0002077726974696E6720746F204545505283
:100B00004F4D210A00363726033C3D382A2E303E11
:100B1000121A1C180A2C430809072C070844000164
:100B20005046543A696F6572726F720A00504654AB
:100B30003A737563636573730A005054463A696E7D
:100B400076616C69640A005046543A737563636554
:100B500073730A005046543A696F6572726F720A75
:100B6000005046543A696E76616C69640A005046DA
:100B7000543A696E76616C69640A005046543A666C
:100B800061696C0A005046543A7375636365737308
:100B90000A005046543A627573790A002C003A6391
:100BA0006F6D70726573696F6E3A686561747368B2
:100BB00072696E6B2C002E002E005046543A7665FA
:100BC0007273696F6E3A00556E737570706F7274E0
:100BD00065642042696E6172792050726F746F6330
:100BE0006F6C0A00556E6B6E6F776E2042696E6196
:100BF000727950726F746F636F6C436F6E74726F43
:100C00006C205061636B65740A0066650044617412
:100C10006173747265616D2074696D656F75740AB6
:100C200000727300526573656E642072657175653C
:100C3000737420006F6B0029207061796C6F6164A0
:100C400020636F72727570740A005061636B657413
:100C500028004461746173747265616D2070616312
:100C60006B657420646174612062756666657220CC
:100C70006F76657272756E0A003F2920636F72721B
:100C80007570740A005061636B65742068656164F7
:100C9000657228004461746173747265616D2070BF
:100CA00061636B6574206F7574206F66206F72646A
:100CB00065720A006F6B002E002E002C002C007352
:100CC00073004D343130004D313132004D31303808
:100CD00000414E474548414C54454E005072696EA4
:100CE0007465722073746F7070656420647565201C
:100CF000746F206572726F72732E2046697820744B
:100D00006865206572726F7220616E64207573650C
:100D1000204D39393920746F207265737461727493
:100D20002E202854656D7065726174757265206936
:100D3000732072657365742E205365742069742066
:100D400061667465722072657374617274696E672E
:100D5000290A004E6F20436865636B73756D2077B9
:100D6000697468206C696E65206E756D6265722CA1
:100D7000204C617374204C696E653A20004E6F20E0
:100D8000436865636B73756D2077697468206C695F
:100D90006E65206E756D6265722C204C61737420D7
:100DA0004C696E653A2000636865636B73756D20EE
:100DB0006D69736D617463682C204C617374204C91
:100DC000696E653A20004C696E65204E756D6265EE
:100DD00072206973206E6F74204C617374204C69AB
:100DE0006E65204E756D6265722B312C204C6173DF
:100DF00074204C696E653A20004D31313000534407
:100E00002072656164206572726F720A0021212070
:100E10004B494C4C20636175736564206279207482
:100E20006F6F206D75636820696E616374697665A4
:100E30002074696D65202D2063757272656E742053
:100E4000636F6D6D616E643A2000627573793A204C
:100E500070617573656420666F7220696E70757459
:100E60000A00627573793A20706175736564206653
:100E70006F7220757365720A00627573793A20701B
:100E8000726F63657373696E670A004D6564697597
:100E90006D20656E746665726E74004D656469756B
:100EA0006D2065726B616E6E74004D363030004D92
:100EB000383400446F6E65207072696E74696E67B5
:100EC0002066696C650A004D3737004D33310043A9
:100ED000616E6E6F74206F70656E207375626469E9
:100EE0007220002569730025696D2025697300252E
:100EF00069682025696D20256973002569642025AE
:100F000069682025696D2025697300256979202588
:100F10006964202569682025696D20256973000AA8
:100F200053746174733A2046696C616D656E742008
:100F3000757365643A20002C204C6F6E676573747E
:100F4000206A6F623A2000546F74616C2074696D7E
:100F5000653A200053746174733A20002C20466176
:100F6000696C65643A20002C2046696E6973686577
:100F7000643A20005072696E74733A2000537461B1
:100F800074733A20006BC3BC686C742E2E2E0068FC
:100F900065697A742E2E2E00452025530023646542
:100FA00066696E652044454641554C545F00626554
:100FB00064004B6420004B6920004B7020005049B6
:100FC00044204175746F74756E652066696E69732F
:100FD000686564212050757420746865206C6173A5
:100FE00074204B702C204B6920616E64204B642070
:100FF000636F6E7374616E74732066726F6D2062BE
:10100000656C6F7720696E746F20436F6E666967D9
:1010100075726174696F6E2E680A005049442041F0
:1010200075746F74756E65206661696C65642120E6
:1010300074696D656F75740A005049442041757478
:101040006F74756E65206661696C656421205465F6
:101050006D706572617475726520746F6F20686958
:1010600067680A00204B643A2000204B693A200050
:10107000204B703A20000A20436C6173736963202F
:10108000504944200A00204B643A2000204B693A22
:101090002000204B703A20000A204E6F206F7665AA
:1010A0007273686F6F740A002054753A2000204BE9
:1010B000753A2000206D61783A2000206D696E3A03
:1010C000200020643A200020626961733A200050B9
:1010D0004944204175746F74756E65207374617234
:1010E000740A00504944204175746F74756E652010
:1010F0006661696C6564212054656D706572617408
:1011000075726520746F6F20686967680A005049BE
:1011100044204175746F74756E65005049442041D8
:1011200075746F74756E65206661696C65642120E5
:10113000426164206578747275646572206E756DA5
:101140006265720A004572723A20757466382066CC
:101150006F6E74206E6F7420696E697469616C695A
:101160007A65642E004572723A207574663820667E
:101170006F6E74206E6F7420696E697469616C693A
:101180007A65642E004572723A207574663820665E
:101190006F6E74206E6F7420696E697469616C691A
:1011A0007A65642E002568753A2530326875002509
:1011B000303268753A2530326875002568756420CC
:1011C00025303268753A253032687500000C0F0002
:1011D000FE07022603BC01FFFE0AFE08FE05080802
:1011E00006000040F0C888889878100508080600B6
:1011F00000C0F88888888888F80505050600012061
:1012000030F830200508080600002070F820202063
:1012100020E00509090600FF2070A8A8B88888709A
:1012200020050606060001E08CEA8C8A0A050909F9
:101230000600FFF8A88888888888A8F8050A0A06A2
:1012400000FE205050505088A8A888700303030661
:10125000000340A040FFFFFFFFFFFFFFFFFFFFFF76
:10126000FFFFFFFFFFFFFFFFFFFFFF00000006057E
:10127000FF01070706020080808080800080030352
:1012800003060105A0A0A005060606000050F850C0
:1012900050F8500509090600FF2070A8A07028A882
:1012A0007020050707060000C8C810204098980560
:1012B000070706000040A0A040A8906801030306AD
:1012C00002058080800309090601FF2040408080DC
:1012D000804040200309090601FF80404020202073
:1012E00040408005070706000020A8702070A82055
:1012F0000505050600012020F82020020303060151
:10130000FFC04080050101060003F8020202060149
:1013100000C0C005070706000008101020404080EC
:10132000050707060000708898A8C888700307079B
:1013300006010040C040404040E0050707060000AD
:10134000708808102040F8050707060000F808100C
:101350003008887005070706000010305090F8101C
:1013600010050707060000F880F0080888700507D8
:1013700007060000304080F08888700507070600E7
:1013800000F80810102020200507070600007088CC
:1013900088708888700507070600007088887808BC
:1013A0001060020505060100C0C000C0C0020606AC
:1013B0000601FFC0C000C0408003050506010120F2
:1013C00040804020050303060002F800F8030505ED
:1013D0000601018040204080050707060000708854
:1013E00010202000200507070600007088B8A8B864
:1013F0008070050707060000708888F888888805CF
:101400000707060000F04848704848F0050707063F
:10141000000070888080808870050707060000F053
:101420004848484848F0050707060000F88080F063
:101430008080F8050707060000F88080F080808033
:1014400005070706000070888080988870050707E8
:10145000060000888888F888888803070706010046
:10146000E04040404040E00507070600003810100B
:10147000101090600507070600008890A0C0A0909B
:1014800088050707060000808080808080F80507B7
:101490000706000088D8A8888888880507070600FE
:1014A000008888C8A8988888050707060000708803
:1014B0008888888870050707060000F08888F08013
:1014C000808005070706000070888888A890680556
:1014D0000707060000F08888F0A090880507070637
:1014E000000070888070088870050707060000F803
:1014F00020202020202005070706000088888888F3
:101500008888700507070600008888888850502062
:1015100005070706000088888888A8A850050707DF
:1015200006000088885020508888050707060000BC
:1015300088885020202020050707060000F80810A2
:10154000204080F80309090601FFE0808080808048
:101550008080E0050707060000804040201010084A
:101560000309090601FFE020202020202020E005BB
:1015700003030600052050880501010600FEF8035C
:1015800003030601058040200505050600007008DC
:101590007888780507070600008080F0888888F042
:1015A00005050506000070808088700507070600A5
:1015B0000008087888888878050505060000708886
:1015C000F08070050707060000304840E0404040CA
:1015D0000507070600FE70888888780870050707E9
:1015E0000600008080F088888888030707060100CD
:1015F0004000C0404040E00409090601FE100030F0
:101600001010101090600507070600008080889079
:10161000E09088030707060100C04040404040E0DA
:10162000050505060000D0A8A8A8A8050505060020
:1016300000B0C8888888050505060000708888887D
:10164000700507070600FEF0888888F0808005078F
:10165000070600FE788888887808080505050600D2
:1016600000B0C880808005050506000078807008FD
:10167000F00507070600002020F8202020180505A7
:10168000050600008888889868050505060000881A
:10169000888850200505050600008888A8A8500500
:1016A000050506000088502050880507070600FE43
:1016B00088888850204080050505060000F8102025
:1016C00040F80309090601FF2040404080404040A7
:1016D000200109090602FF80808080808080808050
:1016E0000309090601FF804040402040404080053A
:1016F000030306000248A890FFFFFFFFFFFFFFFF64
:10170000FFFFFFFFFFFFFFFFFFFFFFFFFFFFFFFFE9
:10171000FFFFFFFFFFFFFFFFFF0000000605FF01C7
:10172000070706020080008080808080050707068A
:1017300000FF2070A8A0A870200507070600003051
:101740004840E04048B0050505060000A850885014
:10175000A80507070600008850F820F82020010798
:10176000070602008080800080808004080806014F
:101770000070806090906010E0030101060107A0F6
:101780000607070600007884B4A4B484780305052E
:1017900006010460A06000E0050505060000285071
:1017A000A05028050303060001F8080803010106FC
:1017B0000103E00607070600007884B4A4A4847837
:1017C000050101060007F804040406010560909075
:1017D000600507070600002020F8202000F8030518
:1017E0000506010440A02040E0030505060104C0F1
:1017F000204020C0030303060105204080050707A1
:101800000600FE88888898E88080050808060000A1
:1018100078E8E8E868282828020202060203C0C027
:101820000302020601FE20C003050506010440C0B4
:101830004040E003050506010540A04000E0050525
:1018400005060000A0502850A0050A0A0600004026
:10185000C048506050B0507810050A0A0600004099
:10186000C048506050A8081038050A0A060000C099
:10187000204830E050B050781005070706000020DF
:10188000002020408870050A0A06000040200070F1
:101890008888F8888888050A0A06000010200070E9
:1018A0008888F8888888050A0A0600002050007099
:1018B0008888F8888888050A0A06000068B00070E1
:1018C0008888F88888880509090600005000708813
:1018D00088F8888888050A0A060000205020708849
:1018E00088F888888805070706000078A0A0F0A07F
:1018F000A0B80509090600FE7088808080887010F5
:1019000060050A0A060000402000F88080F0808010
:10191000F8050A0A060000102000F88080F0808098
:10192000F8050A0A060000205000F88080F0808048
:10193000F80509090600005000F88080F08080F862
:10194000030A0A060100804000E04040404040E0B9
:10195000030A0A060100204000E04040404040E009
:10196000030A0A06010040A000E04040404040E079
:10197000030909060100A000E04040404040E005A6
:101980000707060000704848E8484870050A0A063C
:10199000000068B0008888C8A8988888050A0A06E8
:1019A000000040200070888888888870050A0A0630
:1019B000000010200070888888888870050A0A0650
:1019C000000020500070888888888870050A0A0600
:1019D000000068B00070888888888870050909064A
:1019E000000050007088888888887005050506000A
:1019F0000188502050880509090600FF087098A842
:101A0000A8A8C87080050A0A06000040200088883F
:101A10008888888870050A0A0600001020008888D7
:101A20008888888870050A0A060000205000888887
:101A30008888888870050909060000500088888811
:101A400088888870050A0A060000102000888850DF
:101A50002020202004070706010080E0909090E0FD
:101A600080050707060000708890A09088B00508E0
:101A700008060000402000700878887805080806ED
:101A8000000010200070087888780508080600001B
:101A9000205000700878887805080806000068B0B3
:101AA0000070087888780507070600005000700865
:101AB000788878050808060000205020700878888B
:101AC00078050505060000702870A0780507070650
:101AD00000FE7088808870106005080806000040CD
:101AE00020007088F08070050808060000102000B3
:101AF0007088F0807005080806000020500070888B
:101B0000F0807005070706000050007088F08070B4
:101B1000030808060100804000C0404040E0030880
:101B200008060100204000C0404040E003080806CD
:101B3000010040A000C0404040E00307070601004C
:101B4000A000C0404040E0050909060000502050B8
:101B500008788888887005080806000068B000B01A
:101B6000C88888880508080600004020007088881A
:101B700088700508080600001020007088888870AA
:101B80000508080600002050007088888870050845
:101B90000806000068B0007088888870050707068E
:101BA0000000500070888888700505050600012037
:101BB00000F800200505050600007898A8C8F00583
:101BC00008080600004020008888888870050808FA
:101BD0000600001020008888888870050808060024
:101BE000002050008888888870050707060000508C
:101BF000008888888870050A0A0600FE1020008880
:101C00008888502040800509090600FE8080F08801
:101C10008888F080800509090600FE5000888888C1
:101C200050204080507265737320627574746F6EBB
:101C300020746F2068656174206E6F7A7A6C650A13
:101C4000004732362044C3BC736520617566686501
:101C5000697A656E00473236206865697A74204279
:101C60006574740057616974696E6720666F7220CD
:101C70006865617475702E0A004665737465204C42
:101C8000C3A46E6765205072696D65005072696DFE
:101C9000696E6720666572746967004D616E756173
:101CA0006C207072696D696E672E2E2E0047323679
:101CB000206162676562726F6368656E00473236E5
:101CC000207665726C617373656E003F5370656357
:101CD000696669656420582C5920636F6F72646966
:101CE0006E617465206F7574206F6620626F756E0B
:101CF00064732E0A003F285229657065617420764E
:101D0000616C7565206E6F7420706C6175736962AB
:101D10006C653B206D757374206265206174206C66
:101D20006561737420312E0A003F537065636966E4
:101D3000696564206E6F7A7A6C652074656D706574
:101D4000726174757265206E6F7420706C6175734A
:101D500069626C652E0A003F537065636966696548
:101D6000642066696C616D656E742073697A6520A4
:101D70006E6F7420706C61757369626C652E0A00F9
:101D80003F537065636966696564207072696D654B
:101D9000206C656E677468206E6F7420706C61755E
:101DA0007369626C652E0A003F53706563696669EA
:101DB0006564206E6F7A7A6C652073697A65206E2F
:101DC0006F7420706C61757369626C652E0A003FD8
:101DD00052657472616374696F6E204D756C7469BD
:101DE000706C696572206D75737420626520737004
:101DF000656369666965642E0A003F5370656369AF
:101E0000666965642052657472616374696F6E20DF
:101E10004D756C7469706C696572206E6F7420709A
:101E20006C61757369626C652E0A003F537065635F
:101E30006966696564206C617965722068656967A7
:101E40006874206E6F7420706C61757369626C6564
:101E50002E0A0043292E0A003F53706563696669A4
:101E60006564206265642074656D70657261747567
:101E70007265206E6F7420706C61757369626C6539
:101E8000202834302D004732362073746172746913
:101E90006E672E2E2E0A0056206D696E204C6565E9
:101EA0007266616872740056206D696E200056205B
:101EB0006D617820450056206D6178205A005620CB
:101EC0006D617820590056206D61782058004120BE
:101ED0006D617820450041206D6178205A004120D5
:101EE0006D617820590041206D61782058004120B3
:101EF0004C656572666168727400412045696E7A4E
:101F000075670042657363686C65756E6967756EA9
:101F10006700536F6E64656E7665727361747A20C4
:101F20005A00536F6E64656E7665727361747A20C1
:101F30005900536F6E64656E7665727361747A20B2
:101F40005800452053746570732F6D6D005A2053EF
:101F5000746570732F6D6D00592053746570732F05
:101F60006D6D00582053746570732F6D6D00457250
:101F7000772E2045696E7374656C6C756E67656E3F
:101F8000003F0041626272656368656E004265737E
:101F900074C3A4746967656E004D343238005765A8
:101FA000726B7365696E7374656C6C756E67656E64
:101FB0000046696C616D656E740054656D70657284
:101FC000617475720053746570732F6D6D00536F7B
:101FD0006E64656E7665727361747A004A756E63BD
:101FE00074696F6E204465760042657363686C6542
:101FF000756E6967756E6700476573636877696EAC
:102000006469676B656974005365747A6520486F0D
:102010006D657665727361747A004B6F6E66696781
:1020200075726174696F6E004C6164656E206D6DD0
:1020300000456E746C6164656E206D6D0046696C60
:10204000616D656E7464757263686D6573736572D6
:10205000004520696E206D6DC2B3004D33303320D2
:1020600055312045256920532569005049442041B8
:1020700075746F74756E65202A005049442D442094
:102080002A005049442D49202A005049442D50200F
:102090002A0020082046616B746F72002008206DB2
:1020A0006178002008206D696E0061757300616EB3
:1020B000004175746F2054656D706572617475723E
:1020C000004E65747A7465696C00532D3330302D81
:1020D0003132003A200050726F746F6B6F6C6C007D
:1020E000312E30003A2000426175647261746500DF
:1020F000323530303030003A2000416E79637562FD
:1021000069632052414D505320312E340042696C96
:10211000696E65617265204E6976656C6C2E00454E
:10212000787472756465720031003A2000687474C6
:1021300070733A2F2F6769742E696F2F666A587A09
:102140007200344D4158202D2076673372003230B2
:1021500032302D30372D323800344D415820322E58
:10216000302E3630303552656C2E004D61726C6900
:102170006E00447275636B65722D5374617469737C
:1021800074696B00546865726D6973746F72656E03
:1021900000426F6172642D496E666F004472756310
:1021A0006B65722D496E666F0048617570746D6560
:1021B0006EC3BC00496E74656E736974C3A47420E9
:1021C000426C617500496E74656E736974C3A47462
:1021D000204772C3BC6E00496E74656E736974C328
:1021E000A47420526F7400496E6469676F00426C7A
:1021F0006175004772C3BC6E0047656C62004F7228
:10220000616E676500526F740056696F6C65747417
:1022100000576569C39F005374616E646172640006
:1022200042656C6575636874756E67004E656F50C6
:102230006978656C204C4544277320546573746538
:102240006E004C696368742D45696E7374656C6CBF
:10225000756E670042656E75747A6572646566694D
:102260006E696572740048656C6C69676B6569744A
:102270000061757300616E0042656C65756368741A
:10228000756E67004B6F6E66696775726174696F12
:102290006E003F005A7572C3BC636B0053746F705D
:1022A000004B65696E204D656469756D00447275FB
:1022B000636B20766F6D204D656469756D004669AE
:1022C0006C616D656E74207765636873656C6E0014
:1022D0004B6F6E66696775726174696F6E005465E5
:1022E0006D70657261747572004265776567756EB1
:1022F000670053442D447275636B20666F7274736C
:1023000065747A656E00C39C6265722064656E2098
:10231000447275636B6572004A7573746965727592
:102320006E670053442D447275636B206162627264
:10233000656368656E0053442D447275636B20704D
:10234000617573696572656E00496E666F003F0066
:1023500053746172746520447275636B00416262EC
:1023600072656368656E00447275636B656E0043E9
:10237000616E6E6F7420656E746572207375626431
:1023800069723A2000022E2E0048617570746D65E6
:102390006EC3BC004265776567756E67004D383463
:1023A000004D6F746F72656E206465616B74697641
:1023B000696572656E004732380A4D3438205031F5
:1023C00030004D343820536F6E64656E74657374DD
:1023D00000426574742D4E6976656C6C6965727522
:1023E0006E67004732385A00486F6D65205A0047C3
:1023F00032385900486F6D6520590047323858000F
:10240000486F6D65205800473238004175746F2061
:10241000486F6D650048617570746D656EC3BC0072
:102420002420457874722E20566F7277C3A4726D83
:10243000656E0024204265747420566F7277C3A4C1
:10244000726D656E0054656D7065726174757200B1
:1024500041626BC3BC686C656E002420566F727756
:10246000C3A4726D656E004CC3BC66746572004295
:102470006574740044C3BC73650048617570746D05
:10248000656EC3BC004261627973746570205A0046
:10249000466C75737372617465004CC3BC66746579
:1024A0007200426574740044C3BC73650047657371
:1024B0006368772E0048617570746D656EC3BC00EB
:1024C0001FE03FF03FF03FF01FE01FE03FF03FF024
:1024D0003FF00FC0078003001FE0201020102010E5
:1024E00010201020201020103030084004800300FD
:1024F0003FFFF83E00F839F03831E01831E018219C
:10250000E1E820F3E8207FE82077E828EE282FDCB8
:10251000082FFC082F9E082F0F08300F18300F18B7
:10252000381F383E00F83FFFF83FFFF83E00F8380C
:102530003F38307E18307C18287C082C38082F391A
:10254000C82FFFE82FC7E82FFFE82739E8203868B1
:10255000207C28307C1830FC1839F8383E00F83FD1
:10256000FFF83FFFF83E00F8380F38341FD8361F09
:10257000982F1F082F9E082FFC082FDC0827EFC874
:102580002077E8207FE820F3E821F1E833F0D8371E
:10259000F05839E0383E00F83FFFF83FFFF83E8042
:1025A000F83980383781D837C3D827C7E823C7F828
:1025B00021FF88206C08206C08206C0823FF083F4E
:1025C000C7882FC7C83787D83703D83803383E02A3
:1025D000F83FFFF81FFFF81FFFF804104002082023
:1025E000020820041040082080104100104100081B
:1025F00020800410400000001FFFF81FFFF80000BB
:10260000000000002100140706003372D1C08900C9
:102610003F0B152109002D3A15220900214A1524E6
:102620000900213A1527A600000000000000FFFF66
:10263000FFFFFFC00000000000000B1870E1C38026
:102640001B0CF0E0E7003B27F07076003B33F130E5
:1026500030007B3333B818007BB033B80C007BB04C
:10266000373C6E000330377CE7000330360DC38003
:10267000000000000000FFFFFFFFFFC0000000009F
:102680000000004473CE0000004480490000006C4C
:10269000F1CE00000038904900000010E3C90000AE
:1026A000000000000000000000000000000000002A
:1026B000000020436F756E7420583A002053004D7F
:1026C000313036205000004265747400453100629C
:1026D0006564002C2073797374656D2073746F705A
:1026E00070656421204865617465725F49443A20D1
:1026F000004845495A454E204552464F4C474C4F9D
:10270000530048656174696E67206661696C656431
:1027100000202D20496E76616C69642065787472A2
:1027200075646572206E756D62657220210A0020E5
:1027300008204E4943485420455252454943485485
:1027400000546865726D616C2052756E61776179B5
:1027500000200820C39C42455253434852495454D8
:10276000454E004D415854454D502074726967677D
:102770006572656400200820554E54455253434805
:1027800052495454454E004D494E54454D502074C5
:102790007269676765726564000A0A0020205A5FE3
:1027A0004D494E3A002020595F4D494E3A002020B5
:1027B000585F4D494E3A00202F002042403A0020F9
:1027C000403A0020573A0024F4D43050C38E20C23F
:1027D000A24017828B7011127A910D816CD90AA8D0
:1027E00061E108C7586607615143061E4B5D05C18C
:1027F00045A7041A411104093D980371393103407A
:1028000036DB0265339102D4305402802E1D026300
:102810002CEE01752AC501B028A001102781018F77
:102820002564012B244B01E0223401AC211F018DD2
:10283000200D01801FFC00841EED00971DDF00B8F5
:102840001CD200E61BC600201BBC00641AB200B2FA
:1028500019A8000A19A0006A189900D11791004020
:10286000178B00B516840031167E00B31579003A37
:10287000157300C7146F0058146A00EE13660088C1
:1028800013630025135E00C7125B006C125700151E
:10289000125400C111510070114F0021114B00D68C
:1028A0001049008D1047004610440002104200C03D
:1028B0000F4000800F3E00420F3C00060F3B00CB54
:1028C0000E3800930E37005C0E3500270E3400F3EF
:1028D0000D3200C10D3100900D3000600D2E003220
:1028E0000D2D00050D2C00D90C2B00AE0C290085F8
:1028F0000C29005C0C2700350C27000E0C2600E884
:102900000B2400C40B2400A00B23007D0B23005AD2
:102910000B2100390B2100180B2000F80A1F00D9E9
:102920000A1E00BB0A1E009D0A1D00800A1D0063CE
:102930000A1C00470A1B002C0A1B00110A1A00F788
:10294000091A00DD091900C4091900AB0919009220
:102950000917007B091800630917004C0916003697
:10296000091600200916000A091500F5081500E0EF
:10297000081400CC081400B8081400A4081400902F
:102980000813007D0812006B081300580812004657
:102990000812003408110023081100120811000168
:1029A000081100F0071000E0071000D0071000C069
:1029B000071000B0070F00A107100091070E008359
:1029C000070F0074070F0065070E0057070E004938
:1029D000070E003B070D002E070E0020070D001309
:1029E000070D0006070D00F9060C00ED060D00E0CE
:1029F000060C00D4060C00C8060C00BC060C00B087
:102A0000060C00A4060B0099060C008D060B008234
:102A1000060B0077060B006C060B0061060A0057D8
:102A2000060B004C060A0042060A0038060A002E71
:102A3000060A0024060A001A060A00100609000702
:102A4000060A00FD050900F4050900EB050900E28E
:102A5000050900D9050900D0050900C7050900BE10
:102A6000050900B5050800AD050800A50509009C8D
:102A7000050800940508008C050800840508007C02
:102A8000050800740508006C050700650508005D71
:102A9000050700560508004E0507004705070040DA
:102AA00005080038050700310507002A050700233F
:102AB0000507001C050600160507000F050700089E
:102AC00005060002050700FB040600F5040700EEFA
:102AD000040600E8040600E2040700DB040600D553
:102AE000040600CF040600C9040600C3040600BDA6
:102AF000040600B7040600B1040500AC040600A6F5
:102B0000040600A00405009B04060095040500903F
:102B10000406008A04050085040500800406007A86
:102B200004050075040500700405006B04050066CB
:102B3000040500610405005C04050057040500520B
:102B40000405004D04050048040500430405003E4B
:102B50000404003A04050035040500300404002C88
:102B600004050027040400230405001E0404001AC1
:102B700004040016040500110404000D04040009F7
:102B80000405000404040000040400FC030400F82D
:102B9000030400F4030400F0030400EC030400E861
:102BA000030400E4030400E0030400DC030400D891
:102BB000030400D4030400D0030400CC030400C8C1
:102BC000030300C503030024F404D9201BC40C5CD8
:102BD0000E9804C4095F0265077101F405F900FB52
:102BE00004B30048048700C103690058035500037B
:102BF000034500BE023A008402310053022A002934
:102C000002250004022000E4011C00C8011900AFE5
:102C10000117009801140084011300710110006174
:102C200001100051010E0043010D0036010B002B75
:102C3000010B0020010B00150109000C0109000324
:102C4000010800FB000800F3000800EB000700E4A7
:102C5000000600DE000600D8000600D2000600CC08
:102C6000000500C7000500C2000500BD000400B952
:102C7000000400B5000400B1000400AD000400A988
:102C8000000400A5000300A20003009F0004009BB5
:102C900000030098000300950002009300030090D9
:102CA0000003008D0002008B0003008800020086F4
:102CB00000020084000300810002007F0002007D0A
:102CC0000002007B0002007900020077000100761C
:102CD0000002007400020072000100710002006F27
:102CE0000002006D0001006C0002006A0001006932
:102CF0000002006700010066000100650001006439
:102D00000002006200010061000100600001005F3C
:102D10000002005D0001005C0001005B0001005A40
:102D20000001005900010058000100570001005641
:102D30000001005500010054000100530000005341
:102D40000001005200010051000100500001004F3D
:102D50000001004E0000004E0001004D0001004C3B
:102D60000001004B0000004B0001004A0001004937
:102D70000001004800000048000100470001004633
:102D8000000000460001004500000045000100442D
:102D90000001004300000043000100420000004227
:102DA0000001004100000041000100400001003F1F
:102DB0000000003F0001003E0000003E0001003D19
:102DC0000000003D0001003C0000003C0000003C11
:102DD0000001003B0000003B0001003A0000003A07
:102DE00000010039000000390001003800000038FF
:102DF00000000038000100370000003700010036F5
:102E000000000036000000360001003500000035EB
:102E100000000035000100340000003400000034E0
:102E200000010033000000330000003300010032D5
:102E300000000032000000320001003100000031CB
:102E400000000031000100300000003000000030C0
:102E50000001002F0000002F0000002F0000002FB5
:102E60000001002E0000002E0000002E0001002DA9
:102E70000000002D0000002D0000002D0001002C9E
:102E80000000002C0000002C0000002C0001002B92
:102E90000000002B0000002B0000002B0001002A86
:102EA0000000002A0000002A0000002A000100297A
:102EB000000000290000002900000029000000296E
:102EC0000001002800000028000000280000002861
:102ED0000000002800010027000000270000002754
:102EE0000000002700000027000100260000002647
:102EF000000000260000002600000026000100253A
:102F0000000000250000002500000025000000252D
:102F1000000000250001002400000024000000241F
:102F20000000002400000024000100230000002312
:102F30000000002300000023000000230000002305
:102F400000000023000100220000002200000022F7
:102F500000000022000000220000002200010021E9
:102F600000000021000000210000002100000021DD
:102F700000000021000000210001002000000020CE
:102F800000000020000000200000002000000020C1
:102F900000000020000000200001001F0000001FB2
:102FA0000000001F0000001F0000001F0000001FA5
:102FB0000000001F0001001E0000001E0000001E97
:102FC0000000001E0000003930000033250000879B
:102FD000190000B00F0000DB080000BD0400007401
:102FE0000200003F01000020746F6F206C6F6E675D
:102FF00020657874727573696F6E2070726576657E
:103000006E7465640A0020636F6C64206578747266
:103010007573696F6E2070726576656E7465640A8B
:1030200000566F72686572202573257325732068BA
:103030006F6D656E000000A0C00000000000000081
:1030400000000048420000484200002041576172E1
:103050006E696E673A20486F6D696E672042756DC4
:10306000702044697669736F72203C20310A000237
:1030700002040000A0400000A0400000004000004A
:1030800054430000574300009443FFFFFF0000003B
:10309000010000000100008000555555000000406F
:1030A0000033333300AAAA2A0049922400000020EA
:1030B00000C7711C0099991900D145170055551585
:1030C000003BB1130024491200111111000000103F
:1030D000000F0F0F00E3380E0043790D00CCCC0C2D
:1030E00000C3300C00E8A20B0064210B00AAAA0A5E
:1030F00000703D0A009DD80900427B090092240916
:1031000000DCD3080088880800104208000000088E
:1031100000F0C107008787070075500700711C0782
:10312000003EEB0600A1BC0600699006006666063C
:1031300000703E06006118060017F4050074D10502
:10314000005BB00500B290050062720500555505A0
:103150000078390500B81E0500050505004EEC0491
:103160000087D40400A1BD040090A7040049920484
:1031700000C17D0400EE690400C756040044440405
:10318000005C320400082104004110040000000427
:10319000003FF00300F8E0030026D20300C3C3039E
:1031A00000CCB503003AA803000A9B0300388E0345
:1031B00000C08103009F750300D0690300505E03C7
:1031C000001D53030034480300913D0300333303D3
:1031D0000016290300381F030097150300300C0365
:1031E00000030303000BFA020049F10200BAE802EF
:1031F000005CE002002DD802002DD0020059C80268
:1032000000B0C0020031B90200DAB10200AAAA027D
:1032100000A0A30200BC9C0200FA9502005C8F0291
:1032200000DF88020082820200457C0200277602CD
:103230000027700200436A02007C640200D05E0234
:10324000003F590200C8530200FFFDFCFAF8F6F4F3
:10325000F2F0EEECEAE9E7E5E3E1E0DEDCDAD9D72B
:10326000D5D4D2D0CFCDCBCAC8C7C5C3C2C0BFBDCD
:10327000BCBAB9B7B6B4B3B2B0AFADACAAA9A8A640
:10328000A5A4A2A1A09E9D9C9A999897959493928B
:10329000908F8E8D8B8A8988878684838281807FB8
:1032A0007E7D7B7A797877767574737271706F6EC4
:1032B0006D6C6B6A696867666564636261605F5EB6
:1032C0005D5C5B5A5958585756555453525150509B
:1032D0004F4E4D4C4B4A4A49484746464544434267
:1032E0004241403F3E3E3D3C3B3B3A393838373621
:1032F0003535343332323130302F2E2E2D2C2B2BCE
:103300002A2929282727262525242323222121206D
:10331000201F1E1E1D1C1C1B1B1A191918181716FE
:1033200016151514131312121111100F0F0E0E0D86
:103330000D0C0C0B0A0A0909080807070606050503
:1033400004040303020201000020573A00496E768C
:10335000616C69642065787472756465720A000036
:1033600009121B242D363F48415A536C657E77194C
:10337000100B023D342F265158434A757C676E323C
:103380003B2029161F040D7A7368615E574C452B4C
:103390002239300F061D14636A7178474E555C64FC
:1033A0006D767F4049525B2C253E3708011A137D0C
:1033B000746F6659504B42353C272E1118030A563C
:1033C0005F444D727B60691E170C053A3328214F0C
:1033D000465D546B627970070E151C232A31384103
:1033E00048535A656C777E09001B122D243F3658CE
:1033F000514A437C756E671019020B343D262F73BA
:103400007A6168575E454C3B3229201F160D046ACD
:103410006378714E475C55222B3039060F141D25F9
:103420002C373E0108131A6D647F7649405B523C8D
:10343000352E2718110A03747D666F5059424B17B9
:103440001E050C333A21285F564D447B7269600E8D
:10345000071C152A233831464F545D626B70797C06
:103460003C3E5E2B3D3F2F5B5D3B2C2A225C0042A5
:1034700069747465206E65757374617274656E002D
:10348000445255434B455220474553544F50505496
:103490000025533A202553004142474542524F43AD
:1034A00048454E005072696E7465722068616C7494
:1034B00065642E206B696C6C28292063616C6C65D7
:1034C00064210A00414E474548414C54454E005046
:1034D00072696E7465722073746F707065642064B5
:1034E000756520746F206572726F72732E20466945
:1034F0007820746865206572726F7220616E642036
:10350000757365204D39393920746F207265737475
:103510006172742E202854656D70657261747572C5
:10352000652069732072657365742E20536574205D
:103530006974206166746572207265737461727457
:10354000696E67290A006563686F3A004572726F99
:10355000723A0042696C696E656172204C657665ED
:103560006C696E6720477269643A0A002121205312
:10357000544F502063616C6C6564206265636175B3
:103580007365206F6620424C546F756368206572C6
:10359000726F72202D207265737461727420776966
:1035A0007468204D3939390A0021212053544F5075
:1035B0002063616C6C65642062656361757365206E
:1035C0006F6620424C546F756368206572726F722B
:1035D000202D20726573746172742077697468207D
:1035E0004D3939390A00486F74656E6420746F6F05
:1035F00020636F6C640A004D3630303A207A7520B3
:103600006B616C7400486F74656E6420746F6F201A
:10361000636F6C640A005072657373206275747412
:103620006F6E20746F20726573756D650A00496E48
:10363000736572742066696C616D656E7420616E6D
:103640006420707265737320627574746F6E0A0003
:10365000447275636B206162676562726F6368654F
:103660006E004D323520500A4D3234005061757372
:10367000652E2E2E005761726E696E673A20436C7C
:1036800065616E20436972636C652072657175694E
:103690007265732058590A005761726E696E673AF5
:1036A00020526164697573204F7574206F662052D3
:1036B000616E67650A00447275636B207061757393
:1036C000696572742E2E2E00496E736572742066C1
:1036D000696C616D656E7420616E642070726573D3
:1036E0007320627574746F6E0A00344D4158202D3A
:1036F0002076673372206265726569740044727562
:10370000636B742E2E2E00220A00556E6B6E6F773F
:103710006E20636F6D6D616E643A202200DB0FC90D
:103720003F45BCDA3F8FB30240FCF027405694611E
:1037300040FE4B9B4084A5D840E0231841346A5694
:1037400041E859974164DBD5416E271742B4B7551C
:1037500042CE1A9742C8AED542B5885A43D40684A1
:10376000BFA65FA7BF7443E0BF10B11AC01C2C589E
:10377000C0E8F697C0B849D6C04E4E17C124D355FD
:10378000C1802497C1A0B5D5C1121A17C244AE5545
:10379000C2781797C26CACD5C267885AC320746FC1
:1037A0006F206C6F6E6720657874727573696F6EC9
:1037B0002070726576656E7465640A0020636F6CB4
:1037C0006420657874727573696F6E2070726576A7
:1037D000656E7465640A005045544700504C4100C2
:1037E000000020002300260029002C002F003200BA
:1037F0000001000003010601090100000A0B020993
:103800000C0D0E080703040100000000000000007A
:1038100000000000000000000000000000000000A8
:103820000000000000001211100000000000000065
:103830000000000000000000000000000000000088
:10384000202573206D6D000020302C312020206D4C
:103850006D0020312C302020206D6D0031302C3057
:103860002020206D6D0041636873656E206265776E
:103870006567656E00486F74656E64207A75206BAD
:10388000616C740042657765676520457874727570
:1038900064657200426577656765205A0042657706
:1038A000656765205900426577656765205800DCCB
:1038B00037D73746696C616D656E742077656368CC
:1038C00073656C6E0046696C616D656E7420656E23
:1038D000746C6164656E0046696C616D656E742020
:1038E0006C6164656E0062656E75747A657264659C
:1038F000662E204865697A656E002420566F7277BF
:10390000C3A4726D656E005A7572C3BC636B0044CC
:103910007275636B20766F6D204D656469756D00FF
:1039200050726F62696E67204661696C65640A0057
:1039300050726F62696E672067657363686569744A
:1039400065727400205A3A200020593A20004265DE
:103950006420583A20004F46460A004661646520BC
:103960004865696768742000426564204C65766527
:103970006C696E6720004661696C656420746F2015
:10398000656E61626C6520426564204C6576656C8D
:10399000696E670A00496E76616C6964206D6573B3
:1039A000682E0A004D65737370756E6B7400255335
:1039B0002025692F2569002E0A002F0050726F62A2
:1039C000696E67206D65736820706F696E74200082
:1039D000202844525952554E29004732392041750A
:1039E000746F20426564204C6576656C696E670073
:1039F0003F20284C2C522C462C4229206F757420D5
:103A00006F6620626F756E64732E0A003F28562918
:103A10006572626F7365206C6576656C20696D7088
:103A20006C61757369626C652028302D34292E0A0B
:103A300000426164205A2076616C75650A004E6F01
:103A40002062696C696E65617220677269640A0040
:103A500041627765696368756E670025533A202572
:103A600073005374616E64617264204465766961A9
:103A700074696F6E3A20002052616E67653A2000CB
:103A8000204D61783A2000204D696E3A20004D6546
:103A9000616E3A200046696E6973686564210A00A8
:103AA0002072616E67653A2000206D61783A2000CF
:103AB000206D696E3A2000207369676D613A2000BD
:103AC000206D65616E3A20003A207A3A2000206F1E
:103AD000662000476F696E6720746F3A2058004374
:103AE000570A00206469723A0020616E676C653A7B
:103AF000005374617274207261646975733A004D89
:103B000034382050756E6B740025533A2025642F8D
:103B1000256400506F736974696F6E696E672074F5
:103B200068652070726F62652E2E2E0A003F4E75FA
:103B30006D626572206F66206C65677320696E2008
:103B40006D6F76656D656E74206E6F7420706C613C
:103B5000757369626C652028302D3135292E0A0075
:103B60003F2028582C5929206F7574206F662062D9
:103B70006F756E64732E0A003F53616D706C652023
:103B800073697A65206E6F7420706C6175736962F9
:103B90006C652028342D3530292E0A004D3438200C
:103BA0005A2D50726F626520526570656174616252
:103BB000696C69747920546573740A003F2856292A
:103BC0006572626F7365206C6576656C20696D70D7
:103BD0006C61757369626C652028302D34292E0A5A
:103BE0000046494C414D454E5420454E544C4144AD
:103BF000454E0046494C414D454E54204C414445AC
:103C00004E0046494C414D454E542057454348537C
:103C1000454C005374616E646172647765727465BB
:103C2000206C6164656E004B6F6E6669672E206C58
:103C30006164656E004B6F6E6669672E20737065F8
:103C400069636865726E00242045696E7374656CE3
:103C50006C756E67656E0061757300616E005275FC
:103C60006E6F75742D53656E736F7200424C546F96
:103C70007563680042656C6575636874756E67008E
:103C80004CC3BC66746572204B6F6E74726F6C6C43
:103C9000657200536F6E64656E7665727361747AD7
:103CA000205A004572772E2045696E7374656C6CDE
:103CB000756E67656E0048617570746D656EC3BC26
:103CC000004D37303220542564004D3630302042CC
:103CD0003020542564004D373032203B2564004DA0
:103CE00037303120542564004D373032004D3730A5
:103CF00031004D3630302042300048617570746DAF
:103D0000656EC3BC00447275636B2077656974652A
:103D1000720061757300616E0052756E6F75742D5F
:103D200053656E736F72004D65687220656E746CBA
:103D30006164656E00464F5254532E204F505449D3
:103D40004F4E454E3A00445255434B205041555337
:103D50004945525400202044C3BC73653A200044B6
:103D60007275636B20697374007061757369657235
:103D7000742E2E2E000057617274652061756620C6
:103D800064656E00537461727420646573004669E3
:103D90006C616D656E747765636873656C732E2EE8
:103DA0002E00576172746520617566004865726106
:103DB00075736E61686D65006465732046696C613A
:103DC0006D656E74732E2E2E0044C3BC736520681F
:103DD00065697A742061756600626974746520771C
:103DE000617274656E2E2E2E00004B6E6F70662011
:103DF0006472C3BC636B656E20756D0044C3BC7395
:103E000065206175667A756865697A656E00004639
:103E1000696C616D656E742065696E6C6567656E51
:103E200000756E64204B6E6F7066206472C3BC6355
:103E30006B656E00756D20666F72747A757365744C
:103E40007A656E00576172746520617566004C6119
:103E500064656E206465730046696C616D656E749F
:103E6000732E2E2E004B6E6F7066206472C3BC637F
:103E70006B656E20756D00447275636B20666F72A2
:103E8000747A757365747A656E0000576172746533
:103E90002061756600466F72747365747A656E2072
:103EA00064657300447275636B732E2E2E00576128
:103EB0007274652061756600456E746C6164656E30
:103EC000206465730046696C616D656E74732E2E97
:103ED0002E003E2000256C642E25696D0047657319
:103EE000616D742045787472756469657274003E02
:103EF00020004CC3A46E6773746520447275636BB5
:103F00007A656974003E2000476573616D746520B1
:103F1000447275636B7A656974004B6F6D706C6584
:103F200074746520447275636B65003A20004765C0
:103F300073616D746520447275636B65003A20008F
:103F4000313530003A200035003A20004245443AED
:103F50004550434F53203130304B0052756E6177DE
:103F600061792057617463683A204F4E004D617843
:103F70002054656D7000323735003A20004D696E6F
:103F80002054656D700035003A200045313A2045D7
:103F900050434F53203130304B0001FFFFFFFFFFF4
:103FA000FFFFFFFFFFFFFFFF0FFFFFFFFFFFFFFF11
:103FB000FFFFFFFFFFFF1E000000000000000000E9
:103FC0000007FFFF380000000000000000000003B1
:103FD000FFFF700000000000000000000001FFFF74
:103FE000600000000000000000000000FFFF600013
:103FF000000000000000000000007FFFC000000083
:1040000000000000007800003FFFC00FC0FC00006F
:104010000000007818001FFFC03FE1FF0000000013
:1040200000783C000FFFC07FF3FF800000000078A5
:104030003C0007FFC0FFFFFFC000000000783C000D
:1040400003FFC1F87F87E00000000078000001FF57
:10405000C1F03F03E00000000078000000FFC1E075
:104060001E01E01F0003E0783C03F07FC1E01E0169
:10407000E07FC00FF8783C07FC3FC1E01E01E1FF84
:10408000E01FFC783C0FFE1FC1E01E01E3FFF03F84
:10409000FE783C1FFE0FC1E01E01E3F3F83F3E78BF
:1040A0003C3F3F07C1E01E01E7E0FC7C1F783C3E3F
:1040B0001F07C1E01E01E7C07C7C0F783C3C0F036A
:1040C000C1E01E01E7807C780F783C3C0F03C1E023
:1040D0001E01E7803C7800783C3C0F03C1E01E01E4
:1040E000E7803C7800783C3C0F03C1E01E01E7808C
:1040F0003C7800783C3C0F03C1E01E01E7C03C78EF
:1041000000783C3C0F03C1E01E01E3E03C78007CFA
:104110003C3C0F03C1E01E01E3FF3FF8007FBC3CC5
:104120000F03C1E01E01E1FF3FF8003FBFFC0F039A
:10413000C1E01E01E0FF3FF8001FBFFC0F03C1E01C
:104140001E01E07F3FF8000FBFFC0F03600000007E
:1041500000000000000000000007600000000000F8
:1041600000000000000000067000000000000000D9
:1041700000000000000E38000000000000000000F9
:104180000000001C1E0000000000000000000000F5
:1041900000780FFFFFFFFFFFFFFFFFFFFFFFFFF0B4
:1041A00001FFFFFFFFFFFFFFFFFFFFFFFF8001FF9A
:1041B000FFFFFFFFFFFFFFFFFFFFFFFF0FFFFFFFFF
:1041C000FFFFFFFFFFFFFFFFFFFF1E0000000000DB
:1041D000000000000007FFFF3800000000000000A2
:1041E00000000003FFFF700000000000000000005E
:1041F0000001FFFF60000000000000000000000060
:10420000FFFF6000000000000000000000007FFFD2
:10421000C000000000000000007800003FFFC00F59
:10422000C0FC00000000007818001FFFC03FE1FF45
:104230000000000000783C000FFFC07FF3FF80000B
:10424000000000783C0007FFC0FFFFFFC000000037
:1042500000783C0003FFC1F87F87E0000000007891
:10426000000001FFC1F03F03E00000000078000003
:1042700000FFC1E01E01E01F0003E0783C00007F6A
:10428000C1E01E01E07FC00FF8783C00003FC1E0B4
:104290001E01E1FFE01FFC783C00001FC1E01E0191
:1042A000E3FFF03FFE783C00000FC1E01E01E3F3A6
:1042B000F83F3E783C000007C1E01E01E7E0FC7CCF
:1042C0001F783C000007C1E01E01E7C07C7C0F782E
:1042D0003C000003C1E01E01E7807C780F783C00C1
:1042E0000003C1E01E01E7803C7800783C00000339
:1042F000C1E01E01E7803C7800783C000003C1E08B
:104300001E01E7803C7800783C000003C1E01E01FC
:10431000E7C03C7800783C000003C1E01E01E3E008
:104320003C78007C3C000003C1E01E01E3FF3FF845
:10433000007FBC000003C1E01E01E1FF3FF8003F29
:10434000BF000003C1E01E01E0FF3FF8001FBF00F7
:104350000003C1E01E01E07F3FF8000FBF00000333
:104360006000000000000000000000000007600086
:1043700000000000000000000000000670000000C7
:104380000000000000000000000E380000000000E7
:10439000000000000000001C1E00000000000000E3
:1043A0000000000000780FFFFFFFFFFFFFFFFFFF8F
:1043B000FFFFFFF001FFFFFFFFFFFFFFFFFFFFFF1A
:1043C000FF8001FFFFFFFFFFFFFFFFFFFFFFFFFF7A
:1043D0000FFFFFFFFFFFFFFFFFFFFFFFFFFF1E00BD
:1043E00000000000000000000007FFFF3800000090
:1043F0000000000000000003FFFF7000000000004C
:10440000000000000001FFFF60000000000000004D
:1044100000000000FFFF600000000000000000003E
:1044200000007FFFC00000000000000000780000D6
:104430003FFFC00FC0FC00000000007800001FFF1D
:10444000C03FE1FF00000000007800000FFFC07FC8
:10445000F3FF800000000078000007FFC0FFFFFFAF
:10446000C00000000078000003FFC1F87F87E00073
:1044700000000078000001FFC1F03F03E0000000F1
:104480000078000000FFC1E01E01E01F0003E0789B
:104490000000007FC1E01E01E07FC00FF87800003F
:1044A000003FC1E01E01E1FFE01FFC780000001F9B
:1044B000C1E01E01E3FFF03FFE780000000FC1E005
:1044C0001E01E3F3F83F3E7800000007C1E01E0143
:1044D000E7E0FC7C1F7800000007C1E01E01E7C098
:1044E0007C7C0F7800000003C1E01E01E7807C782F
:1044F0000F7800000003C1E01E01E7803C780078DF
:1045000000000003C1E01E01E7803C780078000055
:104510000003C1E01E01E7803C7800780000000342
:10452000C1E01E01E7C03C78007800000003C1E054
:104530001E01E3E03C78007C00000003C1E01E01A6
:10454000E3FF3FF8007F00000003C1E01E01E1FF30
:104550003FF8003F00000003C1E01E01E0FF3FF80C
:10456000001F00000003C1E01E01E07F3FF8000FC4
:1045700000000003600000000000000000000000D8
:1045800000076000000000000000000000000006BE
:10459000700000000000000000000000000E380065
:1045A00000000000000000000000001C1E000000D1
:1045B000000000000000000000780FFFFFFFFFFF79
:1045C000FFFFFFFFFFFFFFF001FFFFFFFFFFFFFF08
:1045D000FFFFFFFFFF8001FFFFFFFFFFFFFFFFFF68
:1045E000FFFFFFFF0FFFFFFFFFFFFFFFFFFFFFFFCB
:1045F000FFFF1E0000000000000000000007FFFF9A
:10460000380000000000000000000003FFFF700001
:1046100000000000000000000001FFFF600000003B
:104620000000000000000000FFFF6000000000002C
:104630000000000000007FFFC0000000000000003C
:10464000000000003FFFC00FC0FC000000000000A1
:1046500000001FFFC03FE1FF00000000000000005D
:104660000FFFC07FF3FF800000000000000007FF85
:10467000C0FFFFFFC00000000000000003FFC1F802
:104680007F87E00000000000000001FFC1F03F0351
:10469000E00000000000000000FFC1E01E01E01F7C
:1046A0000003E0000000007FC1E01E01E07FC00FBA
:1046B000F8000000003FC1E01E01E1FFE01FFC0028
:1046C0000000001FC1E01E01E3FFF03FFE000000FC
:1046D000000FC1E01E01E3F3F83F3E0000000007B9
:1046E000C1E01E01E7E0FC7C1F0000000007C1E004
:1046F0001E01E7C07C7C0F0000000003C1E01E012A
:10470000E7807C780F0000000003C1E01E01E78015
:104710003C78000000000003C1E01E01E7803C7807
:10472000000000000003C1E01E01E7803C780000AB
:1047300000000003C1E01E01E7C03C78000000005B
:104740000003C1E01E01E3E03C780000000000032C
:10475000C1E01E01E3FF3FF8000000000003C1E0DC
:104760001E01E1FF3FF8000000000003C1E01E0150
:10477000E0FF3FF8000000000003C1E01E01E07F01
:104780003FF800000000000360000000000000008F
:1047900000000000000760000000000000000000B2
:1047A0000000000670000000000000000000000093
:1047B000000E380000000000000000000000001C97
:1047C0001E000000000000000000000000780FFF45
:1047D000FFFFFFFFFFFFFFFFFFFFFFF001FFFFFFF6
:1047E000FFFFFFFFFFFFFFFFFF8001FFFFFFFFFF56
:1047F000FFFFFFFFFFFFFFFF0FFFFFFFFFFFFFFFB9
:10480000FFFFFFFFFFFF1E00000000000000000090
:104810000007FFFF38000000000000000000000358
:10482000FFFF700000000000000000000001FFFF1B
:10483000600000000000000000000000FFFF6000BA
:10484000000000000000000000007FFFC00000002A
:1048500000000000000000003FFFC00FC0FC00008F
:104860000000000000001FFFC03FE1FF000000004B
:10487000000000000FFFC07FF3FF80000000000079
:10488000000007FFC0FFFFFFC000000000000000A5
:1048900003FFC1F87F87E00000000000000001FF77
:1048A000C1F03F03E00000000000000000FFC1E095
:1048B0001E01E01F000000000000007FC1E01E019B
:1048C000E07FC00000000000003FC1E01E01E1FFEA
:1048D000E00000000000001FC1E01E01E3FFF00047
:1048E00000000000000FC1E01E01E3F3F80000002B
:1048F00000000007C1E01E01E7E0FC00000000002E
:104900000007C1E01E01E7C07C00000000000003BA
:10491000C1E01E01E7807C00000000000003C1E050
:104920001E01E7803C00000000000003C1E01E0102
:10493000E7803C00000000000003C1E01E01E780AA
:104940003C00000000000003C1E01E01E7C03C0085
:10495000000000000003C1E01E01E3E03C00000095
:1049600000000003C1E01E01E3FF3F000000000063
:104970000003C1E01E01E1FF3F0000000000000352
:10498000C1E01E01E0FF3F00000000000003C1E0A5
:104990001E01E07F3F0000000000000360000000F7
:1049A00000000000000000000007600000000000A0
:1049B0000000000000000006700000000000000081
:1049C00000000000000E38000000000000000000A1
:1049D0000000001C1E00000000000000000000009D
:1049E00000780FFFFFFFFFFFFFFFFFFFFFFFFFF05C
:1049F00001FFFFFFFFFFFFFFFFFFFFFFFF8001FF42
:104A0000FFFFFFFFFFFFFFFFFFFFFFFF0FFFFFFFA6
:104A1000FFFFFFFFFFFFFFFFFFFF1E000000000082
:104A2000000000000007FFFF380000000000000049
:104A300000000003FFFF7000000000000000000005
:104A40000001FFFF60000000000000000000000007
:104A5000FFFF6000000000000000000000007FFF7A
:104A6000C000000000000000000000003FFFC00F79
:104A7000C0FC00000000000000001FFFC03FE1FF7D
:104A800000000000000000000FFFC07FF3FF800067
:104A900000000000000007FFC0FFFFFFC000000093
:104AA0000000000003FFC1F87F87E0000000000065
:104AB000000001FFC1F03F03E00000000000000023
:104AC00000FFC1E01E01E000000000000000007FC8
:104AD000C1E01E01E000000000000000003FC1E056
:104AE0001E01E000000000000000001FC1E01E01E8
:104AF000E000000000000000000FC1E01E01E00027
:104B00000000000000000007C1E01E01E0000000FE
:104B1000000000000007C1E01E01E00000000000EE
:104B200000000003C1E01E01E000000000000000E2
:104B30000003C1E01E01E0000000000000000003CF
:104B4000C1E01E01E0000000000000000003C1E021
:104B50001E01E0000000000000000003C1E01E0193
:104B6000E0000000000000000003C1E01E01E000C2
:104B70000000000000000003C1E01E01E000000092
:104B8000000000000003C1E01E01E0000000000082
:104B900000000003C1E01E01E00000000000000072
:104BA0000003C1E01E01E00000000000000000035F
:104BB000600000000000000000000000000760002E
:104BC000000000000000000000000006700000006F
:104BD0000000000000000000000E3800000000008F
:104BE000000000000000001C1E000000000000008B
:104BF0000000000000780FFFFFFFFFFFFFFFFFFF37
:104C0000FFFFFFF001FFFFFFFFFFFFFFFFFFFFFFC1
:104C1000FF8001FFFFFFFFFFFFFFFFFFFFFFFFFF21
:104C20000FFFFFFFFFFFFFFFFFFFFFFFFFFF1E0064
:104C300000000000000000000007FFFF3800000037
:104C40000000000000000003FFFF700000000000F3
:104C5000000000000001FFFF6000000000000000F5
:104C600000000000FFFF60000000000000000000E6
:104C700000007FFFC00000000000000000000000F6
:104C80003FFFC000000000000000000000001FFF08
:104C9000C000000000000000000000000FFFC00086
:104CA0000000000000000000000007FFC00000003E
:104CB000000000000000000003FFC0000000000032
:104CC00000000000000001FFC00000000000000024
:104CD0000000000000FFC000000000000000000015
:104CE0000000007FC0000000000000000000000085
:104CF000003FC00000000000000000000000001F96
:104D0000C00000000000000000000000000FC00014
:104D1000000000000000000000000007C0000000CC
:104D200000000000000000000007C00000000000BC
:104D30000000000000000003C000000000000000B0
:104D4000000000000003C0000000000000000000A0
:104D500000000003C0000000000000000000000090
:104D60000003C0000000000000000000000000037D
:104D7000C000000000000000000000000003C000B0
:104D8000000000000000000000000003C000000060
:104D900000000000000000000003C0000000000050
:104DA0000000000000000003C00000000000000040
:104DB000000000000003C000000000000000000030
:104DC0000000000360000000000000000000000080
:104DD0000007600000000000000000000000000666
:104DE000700000000000000000000000000E38000D
:104DF00000000000000000000000001C1E00000079
:104E0000000000000000000000780FFFFFFFFFFF20
:104E1000FFFFFFFFFFFFFFF001FFFFFFFFFFFFFFAF
:104E2000FFFFFFFFFF800200000000000000000005
:104E30000000000000000000000000000000000072
:104E40000000000000000000047F03E00001F80003
:104E50000F00007F8003F0000C7F03F00003F800D8
:104E60001F80007FC007F0000C7F03F80007F800E8
:104E70003F80007FC00FF0001C7F03FC000FF80094
:104E80003FC0003FE01FF0001C7F03FE001FF80042
:104E90003FC0001FF03FF0003C7F01FF003FF800E3
:104EA0001FE0000FF87FF0003C7F00FF807FF800DC
:104EB0000FE00007F87FE0007C7F007FC0FFF80074
:104EC0000FF00007FC3FC0007C7F003FE1FFF800CF
:104ED00007F80003FE1F8000FC7F001FFFFFF801A2
:104EE00087F80001FF0F0000FC7F030FFFFFF801B0
:104EF000C3FC0000FF860001FC7F0387FFF3F8037B
:104F0000E3FC00007F800001FC7F03C3FFE3F803A4
:104F1000E1FE00007FC00003FC7F03E1FFC3F80750
:104F2000F1FE00003FE00003FC7FE3F0FF83F807A1
:104F3000F0FF00001FF00007FC7FE3F87F03F80F8D
:104F4000F07F00000FF00007FC7FE3F81E03F80F6E
:104F5000E07F80000FF8000FFC7FE3F80003F81FEC
:104F6000E3FF800387FC000FFC7FE3F80003F81FDA
:104F7000C3FFC007C3FE001FFC7FE3F80003F83F38
:104F8000C7FFC00FE1FE0000007F03F80003F83FF9
:104F900087FFE01FF1FF0000007F03F80003F87FA8
:104FA0008FFFE03FF0FF8000007F03F80003F87FF1
:104FB0000FFFF07FF07FC000007F03F80003F8FFD1
:104FC0000007F0FFE03FC000007F03F80003F8FE99
:104FD0000007F8FFC03FE000007F03F80003F9FE80
:104FE0000003F8FF801FF000007F03F80003F9FCC6
:104FF0000003FCFF000FF000007F03F80003FBFC40
:105000000001FCFE000FF0000000000000000000A6
:105010000000000000000000000000000000000090
:105020000000000000000068747470733A2F2F674E
:1050300069742E696F2F666A587A7200344D415830
:1050400020322E302E3630303552656C2E00124C08
:10505000FE49EA47D645C243AE419A3F70012C0152
:1050600090012701B0012201C0011D01F0011801CA
:105070001002130130020E016002090190020401C6
:10508000C002FF000003FA004003F5008003F000B7
:10509000D003EB002004E6007004E100E004DC0033
:1050A0004005D700C005D2004006CD00D006C8009C
:1050B0008007C3003008BE00F008B900C009B40082
:1050C000B00AAF00B00BAA00D00CA500000EA000E3
:1050D000500F9B00C01096005012910000148C00DD
:1050E000C0158700B0178200B0197D00D01B780072
:1050F000001E730040206E0090226900F0246400BE
:1051000040275F0090295A00E02B5500102E5000D8
:1051100020304B0010324600E033410090353C0017
:105120001037370070383200A0392D00B03A28000F
:10513000A03B2300603C1E00103D1900903D140070
:10514000103E0F00703E0A00C03E0500003F000008
:10515000403FFBFF803FF6FFC03FF1FF2020506C37
:10516000616E6E65724275666665724279746573CA
:105170003A20002046726565204D656D6F72793A60
:105180002000436F6D70696C65643A20417567203B
:10519000323920323032300A00204C61737420558D
:1051A0007064617465643A20323032302D30372DAE
:1051B0003238207C20417574686F723A202847335A
:1051C0006D316E315333727633722C20416E7963B8
:1051D0007562696320344D4158290A00344D4158A5
:1051E00020322E302E3630303552656C2E0A004D6E
:1051F00061726C696E0020536F667477617265200E
:1052000052657365740A00205761746368646F6740
:105210002052657365740A002042726F776E206FAA
:1052200075742052657365740A0020457874657240
:105230006E616C2052657365740A00506F776572F9
:1052400055700A0073746172740A006175746F2579
:10525000632E67004732385859004D3130303100E5
:105260006572726F722077726974696E6720746FED
:105270002066696C650A00446F6E6520736176690B
:105280006E672066696C652E0A004D323900456EE6
:105290006473746F7070002553202563202563208C
:1052A000256320256300205A3A0020593A002058EF
:1052B0003A00656E6473746F7073206869743A2085
:1052C00000446F6E652E0A0050756C73696E67201E
:1052D000202000556E746F756368656420006661F8
:1052E0006C7365004641494C3A204E6F20747269D8
:1052F000676765722064657465637465640A004657
:1053000041494C3A204E6F6973652064657465634A
:10531000746564202D20706C656173652072652D45
:1053200072756E20746573740A0020646574656319
:105330007465642E0A003D20424C546F75636820EA
:105340007072652056332E3120286F7220636F6D86
:1053500070617469626C6529003D205A2053657242
:10536000766F2050726F6265003D20424C546F751D
:1053700063682056332E310020282B2F2D20346DCA
:1053800073293A20003A2033306D73206F72206DFC
:105390006F72650A002E2050756C73652077696402
:1053A0007468002A2A20506C6561736520747269E4
:1053B000676765722070726F6265207769746869CB
:1053C0006E20333020736563202A2A0A0046414943
:1053D0004C3A20424C544F55434820656E61626CF4
:1053E0006564202D2053657420757020746869737E
:1053F000206465766963652061732061205365725E
:10540000766F2050726F6265207769746820494E0C
:1054100056455254494E472073657420746F2027B7
:1054200074727565272E0A0020204445504C4F5950
:1054300045442073746174653A204C4F5720286CA2
:105440006F6769632030290020204445504C4F5934
:1054500045442073746174653A20484947482028C0
:105460006C6F676963203129003D204D6563686179
:105470006E6963616C205377697463682064657436
:1054800065637465640A005741524E494E473A209D
:10549000494E56455254494E472073657474696E9F
:1054A000672070726F6261626C79206261636B77F2
:1054B000617264732E0A002E204465706C6F79202F
:1054C000262073746F7720342074696D65730A0029
:1054D0003D20424C546F75636820436C617373695F
:1054E0006320312E322C20312E332C20536D6172EB
:1054F0007420312E302C20322E302C20322E322CA3
:1055000020332E302C20332E312064657465637473
:1055100065642E0A002E20436865636B20666F72F7
:1055200020424C544F5543480A002E205A5F4D49A3
:105530004E5F454E4453544F505F494E564552546A
:10554000494E473A20002E2050726F6265205A5F04
:105550004D494E5F50494E3A20002C2073746F77AE
:1055600020616E676C653A202020002C20646570F5
:105570006C6F7920616E676C653A200053657276B6
:105580006F2070726F626520746573740A2E2075C7
:1055900073696E6720696E6465783A2020005761F0
:1055A000746368696E672070696E730A006469735A
:1055B00000656E0061626C65640A00656E647374F8
:1055C0006F70206D6F6E69746F722000204D3932DC
:1055D00020580020580020204D61783A20002000FB
:1055E00020204D696E3A2000536F667420656E640A
:1055F00073746F70733A2000496E76616C69642031
:1056000050696E204D6F64650A0025290A00252027
:1056100000203B2028002044002041002049002099
:10562000204D3731302053003B20436F6E74726F32
:105630006C6C65722046616E0A0020496E76616C62
:10564000696420657874727564657220003F004E4D
:10565000C3A46368737465204B6F6F7264696E6175
:105660007465004665727469670057656974657290
:1056700000486F6D696E672058595A004B6F6E660F
:1056800069672E2073706569636865726E004B6F81
:105690006E6669672E206C6164656E0045636B659C
:1056A0006E206E6976656C6C696572656E00536F0D
:1056B0006E64656E7665727361747A205A00417506
:1056C00073626C656E6468C3B6686500617573006B
:1056D000616E00426574742D4E6976656C6C696507
:1056E00072756E67004732380A47323900473239DF
:1056F0000042657474206E6976656C6C69657265CC
:105700006E004175746F20486F6D65004265776566
:1057100067756E670045696E66616872656E004107
:10572000757366616872656E0053572D4D6F6475B1
:10573000730053656C62737474657374005A757288
:10574000C3BC636B7365747A656E00417573736374
:1057500068616C742044656C6179004CC3BC6674EC
:105760006572204D6F746F726C617374004D6F744D
:105770006F726C617374204D6F647573004CC3BCA1
:1057800066746572204C6565726C61756600426571
:1057900074740044C3BC7365004CC3BC667465720A
:1057A000004B6F6E66696775726174696F6E004257
:1057B00065747400476568C3A4757365002E0A009C
:1057C0006F70656E206661696C65642C2046696C3B
:1057D000653A200000002110422063308440A5502B
:1057E000C660E770088129914AA16BB18CC1ADD127
:1057F000CEE1EFF13112100273325222B5529442CF
:10580000F772D662399318837BB35AA3BDD39CC376
:10581000FFF3DEE36224433420040114E664C7741A
:10582000A44485546AA54BB528850995EEE5CFF5C6
:10583000ACC58DD55336722611163006D776F6666E
:105840009556B4465BB77AA719973887DFF7FEE716
:105850009DD7BCC7C448E5588668A778400861183A
:1058600002282338CCC9EDD98EE9AFF94889699966
:105870000AA92BB9F55AD44AB77A966A711A500A0E
:10588000333A122AFDDBDCCBBFFB9EEB799B588BB6
:105890003BBB1AABA66C877CE44CC55C222C033C5A
:1058A000600C411CAEED8FFDECCDCDDD2AAD0BBD06
:1058B000688D499D977EB66ED55EF44E133E322EAE
:1058C000511E700E9FFFBEEFDDDFFCCF1BBF3AAF56
:1058D000599F788F8891A981CAB1EBA10CD12DC1B4
:1058E0004EF16FE18010A100C230E320045025404A
:1058F00046706760B9839893FBA3DAB33DC31CD3AA
:105900007FE35EF3B1029012F322D2323542145299
:1059100077625672EAB5CBA5A89589856EF54FE5F5
:105920002CD50DC5E234C324A014810466744764E9
:1059300024540544DBA7FAB79987B8975FE77EF749
:105940001DC73CD7D326F2369106B0165766767639
:10595000154634564CD96DC90EF92FE9C899E98915
:105960008AB9ABA94458654806782768C018E10889
:105970008238A3287DCB5CDB3FEB1EFBF98BD89BE9
:10598000BBAB9ABB754A545A376A167AF10AD01AD9
:10599000B32A923A2EFD0FED6CDD4DCDAABD8BAD35
:1059A000E89DC98D267C076C645C454CA23C832C29
:1059B000E01CC10C1FEF3EFF5DCF7CDF9BAFBABF89
:1059C000D98FF89F176E367E554E745E932EB23E79
:1059D000D10EF01E20453A00205A3A0020593A00D4
:1059E000583A0001021020200808102040102040E2
:1059F0008002010201080402010102040810204093
:105A000080804020100804020180040201804020B0
:105A100010080402010804020101020408102040D9
:105A20008001020408102040800000220025002888
:105A3000002B002E00310034000201000005010897
:105A4000010B010505050507050808080802020203
:105A5000020A0A0808040404040101010101010109
:105A6000010303030303030303040707070C0C0CE0
:105A70000C0C0C0C0C0202020206060606060606B8
:105A8000060B0B0B0B0B0B0B0B486F6D65766572E2
:105A90007361747A20616B746976004572723A2082
:105AA000546F6F206661722100546F6F20666172BF
:105AB0002066726F6D207265666572656E63652023
:105AC000706F696E740A004361703A004348414D3B
:105AD0004245525F54454D50455241545552450040
