:100000000C94E72C0C94182D0C94182D0C94182D8E
:100010000C94182D0C94182D0C94182D0C94182D4C
:100020000C94182D0C94182D0C94182D0C94182D3C
:100030000C94182D0C94548B0C94182D0C94182D92
:100040000C94182D0C949FC40C94182D0C94182DFE
:100050000C94182D0C94182D0C943AB30D94FA337B
:100060000C94182D0C945E4C0C94544C0C94182D3C
:100070000C94182D0C94182D0C94182D0C94182DEC
:100080000C94E3440C94182D0C94182D0C94182DFA
:100090000C94182D0C94182D0C94182D0C94182DCC
:1000A0000C94182D0C94182D0C94B5440C94182D08
:1000B0000C94182D0C94182D0C94182D0C94874426
:1000C0000C94182D0C94182D0C94182D0C94182D9C
:1000D0000C94182D0C94182D0C94182D0C94182D8C
:1000E0000C94182D27C30AC30DC32AC310C313C30E
:1000F00016C322C319C335C31CC31FC3A4F2C6F25F
:10010000E6F20BF330F3E7F455F378F39BF3C0F327
:10011000E5F30AF42FF454F4E7F479F49EF4C3F40D
:1001200056F659F65DF660F663F68DF667F66AF6F2
:100130006EF671F674F678F67BF67EF68DF682F63C
:1001400085F688F60802CE011C021802D201D00200
:10015000A4018E0148014402540154024802C40122
:10016000D002500220012A01E2019E017201E80141
:100170003001B40280020002F6016402BA025802A1
:10018000BC02AA01B4020602560260010402EC019C
:10019000A2023201A202A202A202A202A202A202B0
:1001A000A202A202A202A202A202A202A202A2022F
:1001B000A202A202A202A202A202A202A202A2021F
:1001C000A202A202A202A2028C02A202A202A20225
:1001D000A202A202A202A202A202A601A202A202FC
:1001E000A202A202A202A202A202A202A202A202EF
:1001F000A8022201084AD73B3BCE016E84BCBFFD5A
:10020000C12F3D6C74319ABD56833DDA3D00C77FE6
:1002100011BED9E4BB4C3E916BAAAABE000000807F
:100220003F05A84CCDB2D44EB93836A9020C50B90E
:10023000918688083CA6AAAA2ABE000000803F003A
:100240000D94EE0E0D94F11C0C949EF40C94C0F3DE
:100250000C94EE750D94F20E0C94788A0C9460F662
:100260000D940D110D94881E0C94D4920C943FBFE4
:100270000C9419BD0C94647D0C9474F60C94B57DAB
:100280000C94C1630C94E6F20C9424670C94E27015
:100290000D94CE0E0C942E650C941A640C94027876
:1002A0000C94B39B0C94215E0D94D60E0C94C6C096
:1002B0000C94BB920C94E5F30C94B1780C945779A0
:1002C0000D947C110C94996B0C9458BF0C94C3F44E
:1002D0000C947BF60C94017A0C94DA7B0C949BF3CF
:1002E0000C941A7B0D94F9100C9468690C94E979BC
:1002F0000C94B5720C9435C30C94A16B0C940DC383
:100300000C9495640C9463F60C94A28A0C942F744C
:100310000C9482F60C9452BF0C94BC7B0D94C80EC6
:100320000C94D08A0C94E3770C94CE7B0C941F63CE
:100330000C9455F30C94E7770C94047C0D94F41012
:100340000C94E69B0C94BC650D94C40E0D945B1E3E
:100350000C943BBF0D945E110C944E740C94E6709B
:100360000C9439BC0C9467F60C9434780C94C87BCC
:100370000C94E5770C942AC30C94DEC20C941C797F
:100380000C94A94C0C94F46B0D94E40E0C94D9636A
:100390000C94D3630C9422C30C94906B0D94C00EF8
:1003A0000C94D0920D94B90E0C94D5580C94E67B15
:1003B0000C94C27B0C94D04C0C94A4F20C944BBFC4
:1003C0000C9498780D94EF100C9428820C94976BF1
:1003D0000D9403110C9410740D94BB1C0C948DF6A9
:1003E0000C9410C30C942FBF0C94E05D0D94271156
:1003F0000C94A54C0C9488F60C94EAC20C940770EB
:100400000D941F110C94237C0D944C1E0D946811B7
:100410000D94BD0E0C941FC30C9419C30C9456F686
:100420000C9415630D944B1C0C94E9770C9419787B
:100430000D94B30E0C946AF60D94AF0E0C94D47B0D
:100440000C9430F30C944FBF0C947EF60C940BF389
:100450000C9497790C949B6B0C9454F40C94C76394
:100460000C94D7780C94F27B0C94D3580C942FF402
:100470000C9471F60C942BBF0C948E6E0C946A7EC7
:100480000C94EB770C9455BF0D94D20E0C94F87B22
:100490000D94E00E0C94895A0C9443BF0C941A638B
:1004A0000D94EA0E0C94B7920D94DC0E0D9472111B
:1004B0000D9445110C94CF580C9448790C944D78B8
:1004C0000D94481C0C94F0780D9431110C94D47058
:1004D0000C9485F60C94FC8A0C94657C0C94D7588B
:1004E0000C94FE7B0C9427C30C94C6F20C9413C39B
:1004F0000C946EF60C94896B0D94843C0C94336AC6
:100500000D9417110C94E7F40C94A67D0C94A64C52
:100510000C9466780C94D1580D94821E0C9478F348
:100520000C9459F60C949D630C941D800C941CC380
:100530000C9439640C9437BF0C940AF40C94EC7B43
:100540000C94C4780D94F41C0C94B7740C94B27E83
:100550000D949F1E0C9433BF0C94CD630C94BF92EA
:100560000C9479F40C947F780D9486110C9416C336
:100570000C940AC30D943B110D9454110C94E07B20
:100580000C94D8740C948D640C942F790C94A26301
:100590000C94186D0C94F8730C9427BF0C94097983
:1005A0000D94F70E0C94324D0C94ED6B0D945A3B58
:1005B0000C94F5790C94D7790C9402B30C9478F6DA
:1005C0000C943AC40C94A7630D94451C0C9447BF3B
:1005D0000C945DF60C9424630C94106A4E414E49C1
:1005E0004E495459494E46CDCCCC3D0AD7233C17F1
:1005F000B7D13877CC2B329595E6241FB14F0A003E
:100600000020410000C84200401C4620BCBE4CCA2D
:100610001B0E5AAEC59D7400407A10F35A00A072AA
:100620004E18090010A5D4E80000E876481700002D
:10063000E40B54020000CA9A3B000000E1F50500FB
:100640000080969800000040420F000000A0860144
:10065000000000102700000000E803000000006414
:1006600000000000000A000000000001000000007F
:10067000002C76D888DC674F0823DFC1DFAE59E154
:10068000B1B796E5E3E453C63AE651997696E8E6C3
:10069000C28426EB898C9B62ED407C6FFCEFBC9C96
:1006A0009F40F2BAA56FA5F490055A2AF75C936BA8
:1006B0006CF9676DC11BFCE0E40D47FEF520E6B563
:1006C00000D0ED902E0300943577050080841E083D
:1006D0000000204E0A000000C80C333333330F985B
:1006E0006E12831141EF8D2114893BE65516CFFE22
:1006F000E6DB18D1844B381BF77C1D901DA4BBE4AE
:1007000024203284725E228100C9F124ECA1E53DEF
:1007100027434F4D4D554E49434154494F4E004498
:10072000525952554E004552524F525300494E466F
:100730004F004543484F0020746F6F206C6F6E6709
:1007400020657874727573696F6E20707265766556
:100750006E7465640A0020636F6C6420657874723F
:100760007573696F6E2070726576656E7465640A64
:1007700000536C6565702E2E2E00436C69636B20F0
:10078000746F20526573756D652E2E2E004E6F208E
:100790004D6F76652E00456E642066696C65206C31
:1007A0006973740A00426567696E2066696C65202A
:1007B0006C6973740A00286E6F2066696C65290085
:1007C00043757272656E742066696C653A200053D9
:1007D00044207072696E74696E6720627974652056
:1007E000004E6F74205344207072696E74696E6796
:1007F0000A002E0A0044656C6574696F6E2066619C
:10080000696C65642C2046696C653A200046696C09
:10081000652064656C657465643A0025697300251C
:10082000696D20256973002569682025696D20257B
:10083000697300256964202569682025696D202574
:100840006973002569792025696420256968202558
:10085000696D20256973005072696E742074696D2A
:10086000653A2000496E76616C69642050696E209B
:100870004D6F64650A00436F6F6C696E672E2E2E94
:100880000048656174696E672E2E2E004520255341
:10089000006F6B006F66660032072D0726071F0783
:1008A000110744454255473A004D313132205368D3
:1008B0007574646F776E004D313133205300416E93
:1008C00079637562696320344D4158204F46462E46
:1008D000004348414D4245525F54454D50455241B9
:1008E0005455524500424142595354455050494E87
:1008F000470041524353004D4F54494F4E5F4D4FB7
:1009000044455300544845524D414C5F50524F545A
:10091000454354494F4E004C4F4E475F46494C4566
:100920004E414D45004155544F5245504F52545F32
:1009300053445F535441545553005344434152442C
:100940000050524F4D50545F535550504F52540029
:10095000454D455247454E43595F504152534552CC
:1009600000434153455F4C494748545F4252494711
:1009700048544E45535300544F47474C455F4C49EC
:100980004748545300534F4654574152455F504FC8
:10099000574552004255494C445F50455243454EDD
:1009A00054004C4556454C494E475F444154410024
:1009B0005A5F50524F42450052554E4F55540041D8
:1009C00055544F4C4556454C005052494E545F4A81
:1009D0004F420050524F4752455353004155544FD8
:1009E0005245504F52545F54454D5000564F4C5550
:1009F0004D455452494300454550524F4D004249E0
:100A00004E4152595F46494C455F5452414E534600
:100A100045520053455249414C5F584F4E5F584F25
:100A20004646004649524D574152455F4E414D455D
:100A30003A4D61726C696E20344D415820322E302F
:100A40002E3630303552656C2E20284175672032A5
:100A50003920323032302031323A35383A30362986
:100A600020534F555243455F434F44455F55524CC9
:100A70003A68747470733A2F2F6769746875622EC0
:100A8000636F6D2F47656D696E6953657276657228
:100A90002F4D61726C696E2050524F544F434F4C32
:100AA0005F56455253494F4E3A312E30204D414307
:100AB00048494E455F545950453A416E79637562D5
:100AC000696320344D41582045585452554445528D
:100AD0005F434F554E543A3120555549443A36619B
:100AE0006131343764322D666664352D31316539B4
:100AF0002D386437312D333632623965313535362C
:100B000036370A002F2F20004D31343520533C69F1
:100B10006E6465783E206F7574206F662072616E1A
:100B200067652028302D31290A0020520041636377
:100B3000656C65726174696F6E3A2050003F4A209F
:100B40006F7574206F662072616E67652028302E85
:100B5000303120746F20302E33290A0046523A007B
:100B600020466C6F773A200050726F74656374652D
:100B7000642050696E0A0020643A0020693A00201F
:100B8000703A00496E76616C69642065787472759C
:100B90006465720A0064697300656E0043290A0087
:100BA00061626C656420286D696E2074656D7020CB
:100BB00000436F6C6420657874727564657320619E
:100BC000726520004F4646004F4E0046696C616DCD
:100BD000656E742072756E6F757420004F66667353
:100BE000657473204170706C696564004572723A77
:100BF00020546F6F206661722100546F6F20666110
:100C0000722066726F6D207265666572656E6365CF
:100C100020706F696E740A00454550524F4D204F49
:100C20004B0A004D383400446F6E65207072696E57
:100C300074696E672066696C650A004D3737004D30
:100C4000333100496E76616C696420657874727521
:100C50006465720A004572726F72207772697469F6
:100C60006E6720746F20454550524F4D210A003663
:100C70003726033C3D382A2E303E121A1C180A2C07
:100C8000430809072C07084400014D343130004D5A
:100C9000313132004D3130380053544F50504544BB
:100CA0002E20005072696E7465722073746F7070BC
:100CB00065642064756520746F206572726F72734D
:100CC0002E2046697820746865206572726F7220E4
:100CD000616E6420757365204D39393920746F2039
:100CE000726573746172742E202854656D7065721C
:100CF00061747572652069732072657365742E2046
:100D0000536574206974206166746572207265731E
:100D100074617274696E67290A004E6F20436865BA
:100D2000636B73756D2077697468206C696E6520DC
:100D30006E756D6265722C204C617374204C696E07
:100D4000653A20004E6F20436865636B73756D20B4
:100D500077697468206C696E65206E756D62657266
:100D60002C204C617374204C696E653A20006368D6
:100D700065636B73756D206D69736D617463682C49
:100D8000204C617374204C696E653A20004C696E8A
:100D900065204E756D626572206973206E6F7420D8
:100DA0004C617374204C696E65204E756D6265727E
:100DB0002B312C204C617374204C696E653A2000F5
:100DC0004D31313000534420726561642065727288
:100DD0006F720A002121204B494C4C2063617573CE
:100DE000656420627920746F6F206D756368206977
:100DF0006E6163746976652074696D65202D20636A
:100E0000757272656E7420636F6D6D616E643A20E9
:100E100000627573793A2070617573656420666F3E
:100E20007220696E7075740A00627573793A207069
:100E3000617573656420666F7220757365720A0050
:100E4000627573793A2070726F63657373696E6748
:100E50000A004D656469612052656D6F76656400B6
:100E60004D6564696120496E736572746564004DF7
:100E70003630300043616E6E6F74206F70656E2087
:100E8000737562646972200020573A0042656420DD
:100E9000436F6F6C696E672E2E2E0042656420488A
:100EA000656174696E672E2E2E0023646566696E17
:100EB000652044454641554C545F004B6420004B2F
:100EC0006920004B702000504944204175746F74B4
:100ED000756E652066696E6973686564212050755A
:100EE0007420746865206C617374204B702C204BE7
:100EF0006920616E64204B6420636F6E7374616E51
:100F000074732066726F6D2062656C6F7720696EF6
:100F1000746F20436F6E66696775726174696F6E76
:100F20002E680A00504944204175746F74756E65CF
:100F3000206661696C6564212074696D656F7574E4
:100F40000A00504944204175746F74756E652066BF
:100F500061696C6564212054656D7065726174759A
:100F6000726520746F6F20686967680A00204B649F
:100F70003A2000204B693A2000204B703A20000AAA
:100F800020436C617373696320504944200A002038
:100F900054753A2000204B753A2000206D61783A54
:100FA0002000206D696E3A200020643A2000206203
:100FB0006961733A2000504944204175746F74751B
:100FC0006E652073746172740A0050494420417543
:100FD000746F74756E65206661696C656421205458
:100FE000656D706572617475726520746F6F2068CD
:100FF0006967680A00504944204175746F74756EC2
:101000006500504944204175746F74756E652066A3
:1010100061696C6564212042616420657874727531
:10102000646572206E756D6265720A004572723A6F
:10103000207574663820666F6E74206E6F74206938
:101040006E697469616C697A65642E004572723AE2
:10105000207574663820666F6E74206E6F74206918
:101060006E697469616C697A65642E004572723AC2
:10107000207574663820666F6E74206E6F742069F8
:101080006E697469616C697A65642E002568753AC9
:1010900025303268750025303268753A253032685F
:1010A0007500256875642025303268753A25303220
:1010B000687500000C0F00FE07022603BC017FFECE
:1010C00008FE08FE05080806000040F0C888889859
:1010D0007810050808060000C0F88888888888F815
:1010E0000505050600012030F83020050808060037
:1010F000002070F820202020E00509090600FF20CC
:1011000070A8A8B888887020050606060001E08C43
:10111000EA8C8A0A0509090600FFF8A888888888E9
:1011200088A8F8050A0A0600FE205050505088A8EA
:10113000A8887003030306000340A040FFFFFFFFE1
:10114000FFFFFFFFFFFFFFFFFFFFFFFFFFFFFFFFAF
:10115000FFFF0000000605FF010707060200808070
:101160008080800080030303060105A0A0A005067F
:101170000606000050F85050F8500509090600FF17
:101180002070A8A07028A87020050707060000C8D6
:10119000C8102040989805070706000040A0A0400E
:1011A000A8906801030306020580808003090906F0
:1011B00001FF204040808080404020030909060153
:1011C000FF804040202020404080050707060000A7
:1011D00020A8702070A8200505050600012020F831
:1011E00020200203030601FFC04080050101060024
:1011F00003F8020202060100C0C00507070600004E
:1012000008101020404080050707060000708898ED
:10121000A8C8887003070706010040C0404040404E
:10122000E0050707060000708808102040F8050751
:1012300007060000F8081030088870050707060048
:101240000010305090F81010050707060000F880D5
:10125000F008088870050707060000304080F08815
:101260008870050707060000F808101020202005E8
:1012700007070600007088887088887005070706D1
:10128000000070888878081060020505060100C01B
:10129000C000C0C00206060601FFC0C000C04080FA
:1012A00003050506010120408040200503030600D8
:1012B00002F800F803050506010180402040800582
:1012C0000707060000708810202000200507070689
:1012D00000007088B8A8B880700507070600007085
:1012E0008888F8888888050707060000F048487055
:1012F0004848F005070706000070888080808870E5
:10130000050707060000F04848484848F005070769
:10131000060000F88080F08080F8050707060000CE
:10132000F88080F0808080050707060000708880C4
:1013300080988870050707060000888888F88888E4
:1013400088030707060100E04040404040E00507F1
:1013500007060000381010101090600507070600FF
:10136000008890A0C0A09088050707060000808034
:1013700080808080F805070706000088D8A8888844
:1013800088880507070600008888C8A89888880507
:101390000707060000708888888888700507070698
:1013A0000000F08888F08080800507070600007044
:1013B000888888A89068050707060000F08888F0EC
:1013C000A090880507070600007088807008887064
:1013D000050707060000F820202020202005070729
:1013E000060000888888888888700507070600003E
:1013F000888888885050200507070600008888885C
:1014000088A8A85005070706000088885020508843
:10141000880507070600008888502020202005073F
:1014200007060000F80810204080F80309090601AB
:10143000FFE080808080808080E005070706000054
:10144000804040201010080309090601FFE0202019
:101450002020202020E005030306000520508805F9
:1014600001010600FEF80303030601058040200584
:101470000505060000700878887805070706000053
:101480008080F0888888F00505050600007080805F
:10149000887005070706000008087888888878059E
:1014A00005050600007088F080700507070600003B
:1014B000304840E04040400507070600FE7088883D
:1014C000887808700507070600008080F088888803
:1014D000880307070601004000C0404040E00409BF
:1014E000090601FE1000301010101090600507076B
:1014F00006000080808890E09088030707060100BE
:10150000C04040404040E0050505060000D0A8A8C6
:10151000A8A8050505060000B0C888888805050547
:1015200006000070888888700507070600FEF088AE
:101530008888F080800507070600FE78888888780C
:101540000808050505060000B0C88080800505056F
:1015500006000078807008F00507070600002020CC
:10156000F82020201805050506000088888898685E
:101570000505050600008888885020050505060039
:10158000008888A8A850050505060000885020504E
:10159000880507070600FE888888502040800505DA
:1015A00005060000F8102040F80309090601FF2095
:1015B00040404080404040200109090602FF8080F1
:1015C000808080808080800309090601FF80404080
:1015D00040204040408005030306000248A890FFD9
:1015E0004D3330332055312045256920532569007E
:1015F000504944204175746F74756E65202A0050FF
:1016000049442D44202A005049442D49202A0050A5
:1016100049442D50202A0020082046616374002090
:1016200008204D6178002008204D696E004F6666E5
:10163000004F6E004175746F74656D700056547282
:101640006176204D696E00566D696E00566D617849
:10165000204500566D6178205A00566D61782059FA
:1016600000566D6178205800416D61782045004139
:101670006D6178205A00416D6178205900416D619B
:1016800078205800412D54726176656C00412D52CE
:1016900065747261637400416363656C00505355F7
:1016A00000532D3330302D3132003A200050726F0C
:1016B000746F636F6C00312E30003A200042617508
:1016C0006400323530303030003A2000416E7963AA
:1016D000756269632052414D505320312E340045CC
:1016E00078747275646572730031003A2000687412
:1016F0007470733A2F2F6769742E696F2F666A585A
:101700007A7200416E79637562696320344D415885
:1017100000323032302D30372D323800344D4158C0
:1017200020322E302E3630303552656C2E004D6111
:10173000726C696E00546865726D6973746F727350
:1017400000426F61726420496E666F005072696E6C
:1017500074657220496E666F004D61696E003F00CE
:101760004261636B0053746F70004E6F204D65646F
:101770006961005072696E742066726F6D204D65EC
:10178000646961004368616E67652046696C616DDC
:10179000656E7400436F6E66696775726174696F18
:1017A0006E0054656D7065726174757265004D6F81
:1017B00074696F6E00526573756D65205072696E45
:1017C000740041626F7574205072696E74657200A6
:1017D00054756E650053746F70205072696E74009A
:1017E0005061757365205072696E7400496E666F42
:1017F0002053637265656E003F00537461727420FC
:101800005072696E740043616E63656C005072695A
:101810006E740043616E6E6F7420656E7465722025
:101820007375626469723A2000022E2E004D616960
:101830006E004D6F74696F6E004D383400446973EB
:1018400061626C65205374657070657273004C65DD
:1018500076656C20436F726E657273004732385A3A
:1018600000486F6D65205A004732385900486F6D47
:10187000652059004732385800486F6D6520580080
:10188000473238004175746F20486F6D65004D61B7
:10189000696E0050726568656174202420456E642D
:1018A00000507265686561742024204265640054AC
:1018B000656D706572617475726500436F6F6C64FD
:1018C0006F776E0050726568656174202400466110
:1018D0006E20537065656400426564004E6F7A7ACD
:1018E0006C65004D61696E00466C6F770046616EF5
:1018F00020537065656400426564004E6F7A7A6CAF
:1019000065005370656564004D61696E0001FFFFFD
:10191000FFFFFFFFFFFFFFFFFFFFFF0FFFFFFFFFC7
:10192000FFFFFFFFFFFFFFFFFF1E000000000000A2
:101930000000000007FFFF3800000000000000006A
:10194000000003FFFF700000000000000000000026
:1019500001FFFF600000000000000000000000FF29
:10196000FF6000000000000000000000007FFFC0DA
:1019700000000000000000007800003FFFC00FC022
:10198000FC00000000007818001FFFC03FE1FF00CE
:1019900000000000783C000FFFC07FF3FF800000D4
:1019A0000000783C0007FFC0FFFFFFC00000000000
:1019B000783C0003FFC1F87F87E00000000078005A
:1019C0000001FFC1F03F03E00000000078000000CC
:1019D000FFC1E01E01E01F0003E0783C03F07FC17F
:1019E000E01E01E07FC00FF8783C07FC3FC1E01E1D
:1019F00001E1FFE01FFC783C0FFE1FC1E01E01E388
:101A0000FFF03FFE783C1FFE0FC1E01E01E3F3F83C
:101A10003F3E783C3F3F07C1E01E01E7E0FC7C1FF2
:101A2000783C3E1F07C1E01E01E7C07C7C0F783C7C
:101A30003C0F03C1E01E01E7807C780F783C3C0F2F
:101A400003C1E01E01E7803C7800783C3C0F03C1F5
:101A5000E01E01E7803C7800783C3C0F03C1E01EAB
:101A600001E7803C7800783C3C0F03C1E01E01E7B1
:101A7000C03C7800783C3C0F03C1E01E01E3E03C31
:101A800078007C3C3C0F03C1E01E01E3FF3FF800FF
:101A90007FBC3C0F03C1E01E01E1FF3FF8003FBFE8
:101AA000FC0F03C1E01E01E0FF3FF8001FBFFC0F69
:101AB00003C1E01E01E07F3FF8000FBFFC0F036091
:101AC00000000000000000000000000007600000AF
:101AD0000000000000000000000006700000000090
:101AE00000000000000000000E38000000000000B0
:101AF0000000000000001C1E0000000000000000AC
:101B000000000000780FFFFFFFFFFFFFFFFFFFFF58
:101B1000FFFFF001FFFFFFFFFFFFFFFFFFFFFFFFE2
:101B20008001FFFFFFFFFFFFFFFFFFFFFFFFFF0F32
:101B3000FFFFFFFFFFFFFFFFFFFFFFFFFF1E000094
:101B4000000000000000000007FFFF380000000058
:101B500000000000000003FFFF7000000000000014
:101B60000000000001FFFF60000000000000000016
:101B7000000000FFFF600000000000000000000007
:101B8000007FFFC000000000000000007800003F60
:101B9000FFC00FC0FC00000000007818001FFFC04D
:101BA0003FE1FF0000000000783C000FFFC07FF322
:101BB000FF8000000000783C0007FFC0FFFFFFC06F
:101BC00000000000783C0003FFC1F87F87E00000C0
:101BD000000078000001FFC1F03F03E000000000BA
:101BE00078000000FFC1E01E01E01F0003E0783C28
:101BF00000007FC1E01E01E07FC00FF8783C0000CC
:101C00003FC1E01E01E1FFE01FFC783C00001FC166
:101C1000E01E01E3FFF03FFE783C00000FC1E01E34
:101C200001E3F3F83F3E783C000007C1E01E01E706
:101C3000E0FC7C1F783C000007C1E01E01E7C07C8F
:101C40007C0F783C000003C1E01E01E7807C780F28
:101C5000783C000003C1E01E01E7803C7800783C3E
:101C6000000003C1E01E01E7803C7800783C0000E2
:101C700003C1E01E01E7803C7800783C000003C10E
:101C8000E01E01E7C03C7800783C000003C1E01E84
:101C900001E3E03C78007C3C000003C1E01E01E36E
:101CA000FF3FF8007FBC000003C1E01E01E1FF3FE1
:101CB000F8003FBF000003C1E01E01E0FF3FF80055
:101CC0001FBF000003C1E01E01E07F3FF8000FBF0F
:101CD00000000360000000000000000000000000A1
:101CE0000760000000000000000000000000067017
:101CF0000000000000000000000000000E3800009E
:101D0000000000000000000000001C1E0000000099
:101D10000000000000000000780FFFFFFFFFFFFF42
:101D2000FFFFFFFFFFFFF001FFFFFFFFFFFFFFFFD0
:101D3000FFFFFFFF8001FFFFFFFFFFFFFFFFFFFF30
:101D4000FFFFFF0FFFFFFFFFFFFFFFFFFFFFFFFF93
:101D5000FF1E0000000000000000000007FFFF3829
:101D60000000000000000000000003FFFF70000002
:101D7000000000000000000001FFFF600000000004
:101D800000000000000000FFFF60000000000000F5
:101D900000000000007FFFC0000000000000000005
:101DA0007800003FFFC00FC0FC000000000078007A
:101DB000001FFFC03FE1FF00000000007800000F9F
:101DC000FFC07FF3FF800000000078000007FFC025
:101DD000FFFFFFC00000000078000003FFC1F87F94
:101DE00087E00000000078000001FFC1F03F03E041
:101DF0000000000078000000FFC1E01E01E01F00AD
:101E000003E0780000007FC1E01E01E07FC00FF812
:101E1000780000003FC1E01E01E1FFE01FFC7800F8
:101E200000001FC1E01E01E3FFF03FFE780000004C
:101E30000FC1E01E01E3F3F83F3E7800000007C148
:101E4000E01E01E7E0FC7C1F7800000007C1E01EF7
:101E500001E7C07C7C0F7800000003C1E01E01E7B1
:101E6000807C780F7800000003C1E01E01E7803C11
:101E700078007800000003C1E01E01E7803C780094
:101E80007800000003C1E01E01E7803C7800780084
:101E9000000003C1E01E01E7C03C780078000000AC
:101EA00003C1E01E01E3E03C78007C00000003C1B8
:101EB000E01E01E3FF3FF8007F00000003C1E01EC9
:101EC00001E1FF3FF8003F00000003C1E01E01E018
:101ED000FF3FF8001F00000003C1E01E01E07F3F4C
:101EE000F8000F0000000360000000000000000088
:101EF000000000000760000000000000000000007B
:101F0000000006700000000000000000000000005B
:101F10000E380000000000000000000000001C1E41
:101F2000000000000000000000000000780FFFFF2C
:101F3000FFFFFFFFFFFFFFFFFFFFF001FFFFFFFFBE
:101F4000FFFFFFFFFFFFFFFF8001FFFFFFFFFFFF1E
:101F5000FFFFFFFFFFFFFF0FFFFFFFFFFFFFFFFF81
:101F6000FFFFFFFFFF1E0000000000000000000058
:101F700007FFFF380000000000000000000003FF22
:101F8000FF700000000000000000000001FFFF6083
:101F90000000000000000000000000FFFF600000E3
:101FA0000000000000000000007FFFC000000000F3
:101FB000000000000000003FFFC00FC0FC00000058
:101FC00000000000001FFFC03FE1FF000000000014
:101FD0000000000FFFC07FF3FF8000000000000042
:101FE0000007FFC0FFFFFFC000000000000000036B
:101FF000FFC1F87F87E00000000000000001FFC182
:10200000F03F03E00000000000000000FFC1E01E00
:1020100001E01F0003E0000000007FC1E01E01E0BE
:102020007FC00FF8000000003FC1E01E01E1FFE0AB
:102030001FFC000000001FC1E01E01E3FFF03FFE97
:10204000000000000FC1E01E01E3F3F83F3E000076
:10205000000007C1E01E01E7E0FC7C1F000000005B
:1020600007C1E01E01E7C07C7C0F0000000003C137
:10207000E01E01E7807C780F0000000003C1E01E35
:1020800001E7803C78000000000003C1E01E01E78A
:10209000803C78000000000003C1E01E01E7803CA6
:1020A00078000000000003C1E01E01E7C03C78009A
:1020B0000000000003C1E01E01E3E03C78000000E6
:1020C000000003C1E01E01E3FF3FF8000000000034
:1020D00003C1E01E01E1FF3FF8000000000003C162
:1020E000E01E01E0FF3FF8000000000003C1E01E19
:1020F00001E07F3FF80000000000036000000000E6
:102100000000000000000000076000000000000068
:102110000000000000000670000000000000000049
:10212000000000000E380000000000000000000069
:1021300000001C1E00000000000000000000000065
:10214000780FFFFFFFFFFFFFFFFFFFFFFFFFF00123
:10215000FFFFFFFFFFFFFFFFFFFFFFFF8001FFFF0C
:10216000FFFFFFFFFFFFFFFFFFFFFF0FFFFFFFFF6F
:10217000FFFFFFFFFFFFFFFFFF1E0000000000004A
:102180000000000007FFFF38000000000000000012
:10219000000003FFFF7000000000000000000000CE
:1021A00001FFFF600000000000000000000000FFD1
:1021B000FF6000000000000000000000007FFFC082
:1021C00000000000000000000000003FFFC00FC042
:1021D000FC00000000000000001FFFC03FE1FF0006
:1021E000000000000000000FFFC07FF3FF80000030
:1021F000000000000007FFC0FFFFFFC0000000005C
:1022000000000003FFC1F87F87E00000000000002D
:102210000001FFC1F03F03E00000000000000000EB
:10222000FFC1E01E01E01F000000000000007FC1B0
:10223000E01E01E07FC00000000000003FC1E01E82
:1022400001E1FFE00000000000001FC1E01E01E30B
:10225000FFF00000000000000FC1E01E01E3F3F8F2
:1022600000000000000007C1E01E01E7E0FC0000E4
:102270000000000007C1E01E01E7C07C0000000074
:10228000000003C1E01E01E7807C000000000000A8
:1022900003C1E01E01E7803C00000000000003C114
:1022A000E01E01E7803C00000000000003C1E01ECA
:1022B00001E7803C00000000000003C1E01E01E7D0
:1022C000C03C00000000000003C1E01E01E3E03C50
:1022D00000000000000003C1E01E01E3FF3F00001A
:1022E0000000000003C1E01E01E1FF3F000000000C
:1022F000000003C1E01E01E0FF3F000000000000FD
:1023000003C1E01E01E07F3F000000000000036009
:102310000000000000000000000000000760000056
:102320000000000000000000000006700000000037
:1023300000000000000000000E3800000000000057
:102340000000000000001C1E000000000000000053
:1023500000000000780FFFFFFFFFFFFFFFFFFFFF00
:10236000FFFFF001FFFFFFFFFFFFFFFFFFFFFFFF8A
:102370008001FFFFFFFFFFFFFFFFFFFFFFFFFF0FDA
:10238000FFFFFFFFFFFFFFFFFFFFFFFFFF1E00003C
:10239000000000000000000007FFFF380000000000
:1023A00000000000000003FFFF70000000000000BC
:1023B0000000000001FFFF600000000000000000BE
:1023C000000000FFFF6000000000000000000000AF
:1023D000007FFFC000000000000000000000003F80
:1023E000FFC00FC0FC00000000000000001FFFC085
:1023F0003FE1FF00000000000000000FFFC07FF37E
:10240000FF800000000000000007FFC0FFFFFFC0CA
:102410000000000000000003FFC1F87F87E000001B
:10242000000000000001FFC1F03F03E000000000D9
:1024300000000000FFC1E01E01E0000000000000FD
:1024400000007FC1E01E01E000000000000000006D
:102450003FC1E01E01E000000000000000001FC1BD
:10246000E01E01E000000000000000000FC1E01EBF
:1024700001E0000000000000000007C1E01E01E0D4
:10248000000000000000000007C1E01E01E00000A5
:1024900000000000000003C1E01E01E00000000099
:1024A0000000000003C1E01E01E000000000000089
:1024B000000003C1E01E01E0000000000000000079
:1024C00003C1E01E01E0000000000000000003C1A5
:1024D000E01E01E0000000000000000003C1E01E5B
:1024E00001E0000000000000000003C1E01E01E068
:1024F000000000000000000003C1E01E01E0000039
:1025000000000000000003C1E01E01E00000000028
:102510000000000003C1E01E01E000000000000018
:102520000000036000000000000000000000000048
:1025300007600000000000000000000000000670BE
:102540000000000000000000000000000E38000045
:10255000000000000000000000001C1E0000000041
:102560000000000000000000780FFFFFFFFFFFFFEA
:10257000FFFFFFFFFFFFF001FFFFFFFFFFFFFFFF78
:10258000FFFFFFFF8001FFFFFFFFFFFFFFFFFFFFD8
:10259000FFFFFF0FFFFFFFFFFFFFFFFFFFFFFFFF3B
:1025A000FF1E0000000000000000000007FFFF38D1
:1025B0000000000000000000000003FFFF700000AA
:1025C000000000000000000001FFFF6000000000AC
:1025D00000000000000000FFFF600000000000009D
:1025E00000000000007FFFC00000000000000000AD
:1025F0000000003FFFC000000000000000000000DD
:10260000001FFFC000000000000000000000000FDD
:10261000FFC0000000000000000000000007FFC035
:10262000000000000000000000000003FFC00000E8
:1026300000000000000000000001FFC000000000DA
:102640000000000000000000FFC0000000000000CB
:102650000000000000007FC000000000000000003B
:10266000000000003FC0000000000000000000006B
:1026700000001FC00000000000000000000000007B
:102680000FC000000000000000000000000007C0B4
:1026900000000000000000000000000007C0000073
:1026A0000000000000000000000003C00000000067
:1026B000000000000000000003C000000000000057
:1026C00000000000000003C0000000000000000047
:1026D0000000000003C00000000000000000000037
:1026E000000003C000000000000000000000000027
:1026F00003C000000000000000000000000003C054
:1027000000000000000000000000000003C0000006
:102710000000000000000000000003C000000000F6
:10272000000000000000000003C0000000000000E6
:102730000000000000000360000000000000000036
:102740000000000007600000000000000000000022
:102750000000067000000000000000000000000003
:102760000E380000000000000000000000001C1EE9
:10277000000000000000000000000000780FFFFFD4
:10278000FFFFFFFFFFFFFFFFFFFFF001FFFFFFFF66
:10279000FFFFFFFFFFFFFFFF8000000000000000C1
:1027A0000000000000000000000000000000000029
:1027B00000000000000000000000047F03E00001B2
:1027C000F8000F00007F8003F0000C7F03F000038F
:1027D000F8001F80007FC007F0000C7F03F800079F
:1027E000F8003F80007FC00FF0001C7F03FC000F4B
:1027F000F8003FC0003FE01FF0001C7F03FE001FF9
:10280000F8003FC0001FF03FF0003C7F01FF003F99
:10281000F8001FE0000FF87FF0003C7F00FF807F92
:10282000F8000FE00007F87FE0007C7F007FC0FF2A
:10283000F8000FF00007FC3FC0007C7F003FE1FF85
:10284000F80007F80003FE1F8000FC7F001FFFFF59
:10285000F80187F80001FF0F0000FC7F030FFFFF66
:10286000F801C3FC0000FF860001FC7F0387FFF333
:10287000F803E3FC00007F800001FC7F03C3FFE35B
:10288000F803E1FE00007FC00003FC7F03E1FFC30B
:10289000F807F1FE00003FE00003FC7FE3F0FF8358
:1028A000F807F0FF00001FF00007FC7FE3F87F034C
:1028B000F80FF07F00000FF00007FC7FE3F81E0325
:1028C000F80FE07F80000FF8000FFC7FE3F80003B3
:1028D000F81FE3FF800387FC000FFC7FE3F8000391
:1028E000F81FC3FFC007C3FE001FFC7FE3F800030F
:1028F000F83FC7FFC00FE1FE0000007F03F80003B0
:10290000F83F87FFE01FF1FF0000007F03F800039E
:10291000F87F8FFFE03FF0FF8000007F03F80003A7
:10292000F87F0FFFF07FF07FC000007F03F8000307
:10293000F8FF0007F0FFE03FC000007F03F800034E
:10294000F8FE0007F8FFC03FE000007F03F8000337
:10295000F9FE0003F8FF801FF000007F03F800037A
:10296000F9FC0003FCFF000FF000007F03F80003F8
:10297000FBFC0001FCFE000FF00000000000000066
:102980000000000000000000000000000000000047
:1029900000000000000000000068747470733A2F9B
:1029A0002F6769742E696F2F666A587A7200344DEA
:1029B000415820322E302E3630303552656C2E0084
:1029C000852571235D21491F351D211B0D197001BE
:1029D0002C0190012701B0012201C0011D01F0016D
:1029E00018011002130130020E0160020901900269
:1029F0000401C002FF000003FA004003F500800359
:102A0000F000D003EB002004E6007004E100E004D5
:102A1000DC004005D700C005D2004006CD00D0063E
:102A2000C8008007C3003008BE00F008B900C00924
:102A3000B400B00AAF00B00BAA00D00CA500000E85
:102A4000A000500F9B00C01096005012910000147F
:102A50008C00C0158700B0178200B0197D00D01B14
:102A60007800001E730040206E0090226900F02460
:102A7000640040275F0090295A00E02B5500102E7B
:102A8000500020304B0010324600E03341009035BA
:102A90003C001037370070383200A0392D00B03AB2
:102AA0002800A03B2300603C1E00103D1900903D13
:102AB0001400103E0F00703E0A00C03E0500003FAB
:102AC0000000403FFBFF803FF6FFC03FF1FF2020AA
:102AD000506C616E6E65724275666665724279749D
:102AE00065733A20002046726565204D656D6F72F2
:102AF000793A2000436F6D70696C65643A204175C6
:102B00006720323920323032300A00204C61737431
:102B100020557064617465643A20323032302D3053
:102B2000372D3238207C20417574686F723A202826
:102B300047336D316E315333727633722C20416ED0
:102B400079637562696320344D4158290A00344D18
:102B5000415820322E302E3630303552656C2E0AD8
:102B6000004D61726C696E0020536F6674776172FC
:102B7000652052657365740A002057617463686448
:102B80006F672052657365740A002042726F776E1A
:102B9000206F75742052657365740A00204578743F
:102BA00065726E616C2052657365740A00506F77B0
:102BB000657255700A0073746172740A00617574ED
:102BC0006F25632E67004732385859004D31303039
:102BD00031006572726F722077726974696E672056
:102BE000746F2066696C650A00446F6E65207361BE
:102BF00076696E672066696C652E0A004D32390071
:102C0000456E6473746F707300255320256320250F
:102C10006320256320256300205A3A0020593A009A
:102C200020583A00656E6473746F7073206869741D
:102C30003A2000452073746570732F6D6D005A2023
:102C400053746570732F6D6D0059205374657073E4
:102C50002F6D6D00582053746570732F6D6D00419A
:102C60006476616E6365642053657474696E67731E
:102C7000003F0043616E63656C00496E6974004DEE
:102C800034323800496E697469616C697A6520452F
:102C90004550524F4D0046696C616D656E7400542D
:102CA000656D7065726174757265005374657073DB
:102CB0002F6D6D004A756E6374696F6E2044657682
:102CC00000416363656C65726174696F6E0056657F
:102CD0006C6F636974790053657420486F6D65206B
:102CE0004F66667365747300436F6E6669677572CD
:102CF0006174696F6E003F004E65787420506F6993
:102D00006E7400446F6E65004E65787400486F6D98
:102D1000696E672058595A0049646C652050657285
:102D2000696F6400416374697665205370656564FA
:102D3000004175746F204D6F64650049646C6520B7
:102D4000537065656400426564004E6F7A7A6C6505
:102D50000046616E20537065656400436F6E66695E
:102D60006775726174696F6E0042656400456E63D9
:102D70006C6F73757265004C6F6164206D6D0055EA
:102D80006E6C6F6164206D6D0046696C2E20446925
:102D9000612E004520696E206D6DC2B3001FE03FBB
:102DA000F03FF03FF01FE01FE03FF03FF03FF00F3B
:102DB000C0078003001FE0201020102010102010FA
:102DC000202010201030300840048003003FFFF81E
:102DD0003E00F839F03831E01831E01821E1E82000
:102DE000F3E8207FE82077E828EE282FDC082FFC86
:102DF000082F9E082F0F08300F18300F18381F3873
:102E00003E00F83FFFF83FFFF83E00F8383F38300B
:102E10007E18307C18287C082C38082F39C82FFFE2
:102E2000E82FC7E82FFFE82739E8203868207C28FA
:102E3000307C1830FC1839F8383E00F83FFFF83F76
:102E4000FFF83E00F8380F38341FD8361F982F1F70
:102E5000082F9E082FFC082FDC0827EFC82077E8F2
:102E6000207FE820F3E821F1E833F0D837F0583933
:102E7000E0383E00F83FFFF83FFFF83E80F8398029
:102E8000383781D837C3D827C7E823C7F821FF8848
:102E9000206C08206C08206C0823FF083FC7882F8F
:102EA000C7C83787D83703D83803383E02F83FFF02
:102EB000F81FFFF81FFFF804104002082002082046
:102EC00004104008208010410010410008208004B8
:102ED00010400000001FFFF81FFFF8210014070634
:102EE000003372D1C089003F0B152109002D3A151E
:102EF000220900214A15240900213A1527A60000BD
:102F00000000000000FFFFFFFFFFC0000000000006
:102F1000000B1870E1C3801B0CF0E0E7003B27F0CA
:102F20007076003B33F13030007B3333B818007BD0
:102F3000B033B80C007BB0373C6E000330377CE711
:102F4000000330360DC380000000000000FFFFFFCB
:102F5000FFFFC0000000000000070000084000095B
:102F6000649D2F0E000F54A12950000954A129502F
:102F7000000957BDEF5E00000080000000000780E0
:102F800000000000000000000000000000000053EE
:102F9000442063617264206F6B0A006F70656E522B
:102FA0006F6F74206661696C65640A00766F6C757A
:102FB0006D652E696E6974206661696C65640A00CE
:102FC0004E6F20534420636172640A004D32340016
:102FD0004D32332025730046696C652073656C653E
:102FE000637465640A002053697A653A2000466973
:102FF0006C65206F70656E65643A2000454E442014
:10300000535542524F5554494E450A002220706F85
:1030100073002220706172656E743A22005355422B
:10302000524F5554494E452043414C4C20746172D7
:103030006765743A220053756263616C6C204F7649
:103040006572666C6F7700457863656564656420BA
:103050006D617820535542524F5554494E45206476
:10306000657074683A310A0057726974696E672036
:10307000746F2066696C653A20002E0A006F7065D7
:103080006E206661696C65642C2046696C653A2027
:1030900000667265736800646F696E670020666918
:1030A0006C653A20004E6F772000025072696E7492
:1030B0002041626F72746564004D323520500A4DB4
:1030C00032340050617573696E672E2E2E00576181
:1030D000726E696E673A20436C65616E2043697257
:1030E000636C652072657175697265732058590A41
:1030F000005761726E696E673A2052616469757338
:10310000204F7574206F662052616E67650A002437
:10311000F4D43050C38E20C2A24017828B7011129B
:103120007A910D816CD90AA861E108C758660761D8
:103130005143061E4B5D05C145A7041A4111040900
:103140003D9803713931034036DB0265339102D477
:10315000305402802E1D02632CEE01752AC501B089
:1031600028A001102781018F2564012B244B01E049
:10317000223401AC211F018D200D01801FFC008431
:103180001EED00971DDF00B81CD200E61BC6002014
:103190001BBC00641AB200B219A8000A19A0006A88
:1031A000189900D117910040178B00B51684003193
:1031B000167E00B31579003A157300C7146F0058D6
:1031C000146A00EE1366008813630025135E00C7BF
:1031D000125B006C12570015125400C1115100709F
:1031E000114F0021114B00D61049008D10470046A9
:1031F00010440002104200C00F4000800F3E004209
:103200000F3C00060F3B00CB0E3800930E37005CDE
:103210000E3500270E3400F30D3200C10D31009041
:103220000D3000600D2E00320D2D00050D2C00D943
:103230000C2B00AE0C2900850C29005C0C270035F6
:103240000C27000E0C2600E80B2400C40B2400A061
:103250000B23007D0B23005A0B2100390B21001892
:103260000B2000F80A1F00D90A1E00BB0A1E009D91
:103270000A1D00800A1D00630A1C00470A1B002C5F
:103280000A1B00110A1A00F7091A00DD091900C407
:10329000091900AB091900920917007B091800638E
:1032A0000917004C09160036091600200916000AF5
:1032B000091500F5081500E0081400CC081400B842
:1032C000081400A4081400900813007D0812006B75
:1032D0000813005808120046081200340811002391
:1032E0000811001208110001081100F0071000E099
:1032F000071000D0071000C0071000B0070F00A192
:1033000007100091070E0083070F0074070F006578
:10331000070E0057070E0049070E003B070D002E51
:10332000070E0020070D0013070D0006070D00F91A
:10333000060C00ED060D00E0060C00D4060C00C8DB
:10334000060C00BC060C00B0060C00A4060B00998D
:10335000060C008D060B0082060B0077060B006C36
:10336000060B0061060A0057060B004C060A0042D5
:10337000060A0038060A002E060A0024060A001A69
:10338000060A001006090007060A00FD050900F4F8
:10339000050900EB050900E2050900D9050900D07F
:1033A000050900C7050900BE050900B5050800ADFF
:1033B000050800A50509009C050800940508008C77
:1033C000050800840508007C050800740508006CE9
:1033D000050700650508005D050700560508004E55
:1033E00005070047050700400508003805070031BC
:1033F0000507002A050700230507001C050600161F
:103400000507000F0507000805060002050700FB79
:10341000040600F5040700EE040600E8040600E2D6
:10342000040700DB040600D5040600CF040600C92B
:10343000040600C3040600BD040600B7040600B17C
:10344000040500AC040600A6040600A00405009BC9
:1034500004060095040500900406008A0405008512
:10346000040500800406007A040500750405007058
:103470000405006B04050066040500610405005C9A
:1034800004050057040500520405004D04050048DA
:10349000040500430405003E0404003A0405003519
:1034A000040500300404002C040500270404002354
:1034B0000405001E0404001A04040016040500118B
:1034C0000404000D040400090405000404040000C1
:1034D000040400FC030400F8030400F4030400F0F7
:1034E000030400EC030400E8030400E4030400E028
:1034F000030400DC030400D8030400D4030400D058
:10350000030400CC030400C8030300C50303002424
:10351000F404D9201BC40C5C0E9804C4095F026536
:10352000077101F405F900FB04B30048048700C1EA
:103530000369005803550003034500BE023A0084A6
:1035400002310053022A002902250004022000E46F
:10355000011C00C8011900AF011700980114008474
:10356000011300710110006101100051010E0043B0
:10357000010D0036010B002B010B0020010B001583
:103580000109000C01090003010800FB000800F319
:10359000000800EB000700E4000600DE000600D88B
:1035A000000600D2000600CC000500C7000500C2DE
:1035B000000500BD000400B9000400B5000400B11E
:1035C000000400AD000400A9000400A5000300A24F
:1035D0000003009F0004009B000300980003009577
:1035E00000020093000300900003008D0002008B96
:1035F00000030088000200860002008400030081AE
:103600000002007F0002007D0002007B00020079C2
:1036100000020077000100760002007400020072D0
:10362000000100710002006F0002006D0001006CDB
:103630000002006A000100690002006700010066E4
:1036400000010065000100640002006200010061E9
:10365000000100600001005F0002005D0001005CED
:103660000001005B0001005A0001005900010058F0
:1036700000010057000100560001005500010054F0
:1036800000010053000000530001005200010051EE
:10369000000100500001004F0001004E0000004EEC
:1036A0000001004D0001004C0001004B0000004BE8
:1036B0000001004A000100490001004800000048E4
:1036C00000010047000100460000004600010045DF
:1036D00000000045000100440001004300000043D9
:1036E00000010042000000420001004100000041D2
:1036F000000100400001003F0000003F0001003ECB
:103700000000003E0001003D0000003D0001003CC3
:103710000000003C0000003C0001003B0000003BBA
:103720000001003A0000003A0001003900000039B1
:1037300000010038000000380000003800010037A8
:10374000000000370001003600000036000000369F
:103750000001003500000035000000350001003494
:10376000000000340000003400010033000000338A
:10377000000000330001003200000032000000327F
:103780000001003100000031000000310001003074
:1037900000000030000000300001002F0000002F6A
:1037A0000000002F0000002F0001002E0000002E5E
:1037B0000000002E0001002D0000002D0000002D53
:1037C0000000002D0001002C0000002C0000002C47
:1037D0000000002C0001002B0000002B0000002B3B
:1037E0000000002B0001002A0000002A0000002A2F
:1037F0000000002A00010029000000290000002923
:103800000000002900000029000100280000002815
:103810000000002800000028000000280001002708
:1038200000000027000000270000002700000027FC
:1038300000010026000000260000002600000026EF
:1038400000000026000100250000002500000025E2
:1038500000000025000000250000002500010024D4
:1038600000000024000000240000002400000024C8
:1038700000010023000000230000002300000023BB
:1038800000000023000000230000002300010022AC
:1038900000000022000000220000002200000022A0
:1038A0000000002200010021000000210000002192
:1038B0000000002100000021000000210000002184
:1038C0000001002000000020000000200000002077
:1038D0000000002000000020000000200000002068
:1038E0000001001F0000001F0000001F0000001F5B
:1038F0000000001F0000001F0000001F0001001E4C
:103900000000001E0000001E0000001E0000003924
:103910003000003325000087190000B00F0000DBE5
:10392000080000BD040000740200003F0100000018
:10393000005A4300005A43000096430000A0C00014
:103940000000000000000053657474696E67732006
:1039500053746F72656400290A002062797465737C
:103960003B20637263200053657474696E67732033
:1039700053746F7265642028004669656C64206228
:1039800061636B6C6173685F64697374616E6365B6
:103990005F6D6D206D69736D617463682E0A0046FA
:1039A00069656C642066635F73657474696E6773C0
:1039B000206D69736D617463682E0A004669656CD9
:1039C0006420706C616E6E65725F736B65775F66A5
:1039D0006163746F72206D69736D617463682E0A20
:1039E000004669656C6420636F6F7264696E617410
:1039F000655F73797374656D206D69736D61746350
:103A0000682E0A004669656C64206D6F746F725F82
:103A100063757272656E745F73657474696E672026
:103A20006D69736D617463682E0A004669656C6424
:103A300020706C616E6E65725F6578747275646516
:103A4000725F616476616E63655F4B206D69736D53
:103A5000617463682E0A004669656C6420746D6346
:103A60005F737465616C74685F656E61626C6564D8
:103A7000206D69736D617463682E0A004669656C18
:103A80006420746D635F6879627269645F746872E0
:103A90006573686F6C64206D69736D617463682E03
:103AA0000A004669656C6420746D635F73746570A9
:103AB0007065725F63757272656E74206D69736D87
:103AC000617463682E0A004669656C6420706172D7
:103AD0007365725F766F6C756D65747269635F652F
:103AE0006E61626C6564206D69736D617463682ECC
:103AF0000A004669656C642066777265747261635A
:103B0000745F73657474696E6773206D69736D613A
:103B10007463682E0A004669656C64207265636F81
:103B2000766572795F656E61626C6564206D69733C
:103B30006D617463682E0A004669656C6420636F6A
:103B40006E74726F6C6C657246616E5F73657474CF
:103B5000696E6773206D69736D617463682E0A0006
:103B60004669656C64206C63645F636F6E74726138
:103B70007374206D69736D617463682E0A00466901
:103B8000656C6420706F7765725F6D6F6E69746FBE
:103B9000725F666C616773206D69736D61746368D1
:103BA0002E0A004669656C642062656450494420B1
:103BB0006D69736D617463682E0A004669656C6493
:103BC000206C70715F6C656E206D69736D617463DC
:103BD000682E0A004669656C6420686F74656E64BF
:103BE000504944206D69736D617463682E0A004604
:103BF00069656C642075695F6D6174657269616C7B
:103C00005F707265736574206D69736D617463684C
:103C10002E0A004669656C6420626C746F75636877
:103C20005F6C6173745F7772697474656E5F6D6FDA
:103C30006465206D69736D617463682E0A0046695E
:103C4000656C6420736572766F5F616E676C657317
:103C5000206D69736D617463682E0A004669656C36
:103C60006420706C616E6E65725F6C6576656C6900
:103C70006E675F616374697665206D69736D6174E9
:103C800063682E0A004669656C642070726F626515
:103C90005F6F6666736574206D69736D61746368C8
:103CA0002E0A004669656C642072756E6F75745FCC
:103CB00073656E736F725F656E61626C6564206DB3
:103CC00069736D617463682E0A004669656C6420CF
:103CD000686F6D655F6F6666736574206D69736D7F
:103CE000617463682E0A004669656C6420657374AC
:103CF000657070657273206D69736D617463682E91
:103D00000A0020436F756E7420583A002053004D0E
:103D10003130362050000042656400453100626554
:103D200064002C2073797374656D2073746F7070E8
:103D3000656421204865617465725F49443A2000DA
:103D400048656174696E67204661696C6564004806
:103D5000656174696E67206661696C656400202D19
:103D600020496E76616C696420657874727564654B
:103D700072206E756D62657220210A0054484552AA
:103D80004D414C2052554E4157415900546865727F
:103D90006D616C2052756E61776179004572723A7F
:103DA000204D415854454D50004D415854454D50BB
:103DB00020747269676765726564004572723A20A3
:103DC0004D494E54454D50004D494E54454D50209F
:103DD000747269676765726564000A0A0020205A78
:103DE0005F4D494E3A002020595F4D494E3A002020
:103DF00020585F4D494E3A00554E4C4F41442046A5
:103E0000494C414D454E54004C4F41442046494C8D
:103E1000414D454E540046494C414D454E5420437A
:103E200048414E4745004C6F616420536574746986
:103E30006E677300526573746F72652044656661C6
:103E4000756C74730053746F726520536574746974
:103E50006E67730050726568656174202420436F3B
:103E60006E66004F6666004F6E0052756E6F757419
:103E70002053656E736F7200436F6E74726F6C6C5B
:103E800065722046616E00416476616E63656420F0
:103E900053657474696E6773004D61696E004D37C8
:103EA000303220542564004D3630302042302054CA
:103EB0002564004D373032203B2564004D373031CA
:103EC00020542564004D373032004D373031004DDD
:103ED000363030204230004D61696E00436F6E74A1
:103EE000696E7565004F6666004F6E0052756E6FA5
:103EF00075742053656E736F72005075726765201C
:103F00006D6F726500524553554D45204F505449D1
:103F10004F4E533A005052494E542050415553454C
:103F2000440020204E6F7A7A6C653A20005061720E
:103F30006B696E672E2E2E00000057616974206633
:103F40006F720066696C616D656E74206368616E86
:103F5000676500746F2073746172740057616974CF
:103F600020666F720066696C616D656E7420756E97
:103F70006C6F616400004E6F7A7A6C6520686561D1
:103F800074696E6700506C65617365207761697450
:103F90002E2E2E0000507265737320627574746F3C
:103FA0006E00746F2068656174206E6F7A7A6C653C
:103FB0000000496E736572742066696C616D656E90
:103FC0007400616E6420707265737320627574741E
:103FD0006F6E00746F20636F6E74696E7565005745
:103FE00061697420666F720066696C616D656E74DC
:103FF000206C6F61640000507265737320427574A9
:10400000746F6E00746F20726573756D65207072C9
:10401000696E7400005761697420666F7220707257
:10402000696E7400746F20726573756D652E2E2E27
:1040300000005761697420666F720066696C616D7B
:10404000656E742070757267650000313530003A16
:10405000200035003A20004245443A4550434F5332
:10406000203130304B0052756E6177617920576195
:104070007463683A204F4E004D61782054656D702E
:1040800000323735003A20004D696E2054656D705E
:104090000035003A200045313A204550434F532027
:1040A0003130304B000000A0C000000000000000D4
:1040B0000000004842000048420000204157617261
:1040C0006E696E673A20486F6D696E672042756D44
:1040D000702044697669736F72203C20310A0002B7
:1040E00002040000A0400000A040000000400000CA
:1040F0005F4300005A4300009643FFFFFF000000AB
:1041000001000000010000800055555500000040EE
:104110000033333300AAAA2A004992240000002069
:1041200000C7711C0099991900D145170055551504
:10413000003BB113002449120011111100000010BE
:10414000000F0F0F00E3380E0043790D00CCCC0CAC
:1041500000C3300C00E8A20B0064210B00AAAA0ADD
:1041600000703D0A009DD80900427B090092240995
:1041700000DCD3080088880800104208000000080E
:1041800000F0C107008787070075500700711C0702
:10419000003EEB0600A1BC060069900600666606BC
:1041A00000703E06006118060017F4050074D10582
:1041B000005BB00500B29005006272050055550520
:1041C0000078390500B81E0500050505004EEC0411
:1041D0000087D40400A1BD040090A7040049920404
:1041E00000C17D0400EE690400C756040044440485
:1041F000005C3204000821040041100400000004A7
:10420000003FF00300F8E0030026D20300C3C3031D
:1042100000CCB503003AA803000A9B0300388E03C4
:1042200000C08103009F750300D0690300505E0346
:10423000001D53030034480300913D030033330352
:104240000016290300381F030097150300300C03E4
:1042500000030303000BFA020049F10200BAE8026E
:10426000005CE002002DD802002DD0020059C802E7
:1042700000B0C0020031B90200DAB10200AAAA02FD
:1042800000A0A30200BC9C0200FA9502005C8F0211
:1042900000DF88020082820200457C02002776024D
:1042A0000027700200436A02007C640200D05E02B4
:1042B000003F590200C8530200FFFDFCFAF8F6F473
:1042C000F2F0EEECEAE9E7E5E3E1E0DEDCDAD9D7AB
:1042D000D5D4D2D0CFCDCBCAC8C7C5C3C2C0BFBD4D
:1042E000BCBAB9B7B6B4B3B2B0AFADACAAA9A8A6C0
:1042F000A5A4A2A1A09E9D9C9A999897959493920B
:10430000908F8E8D8B8A8988878684838281807F37
:104310007E7D7B7A797877767574737271706F6E43
:104320006D6C6B6A696867666564636261605F5E35
:104330005D5C5B5A5958585756555453525150501A
:104340004F4E4D4C4B4A4A494847464645444342E6
:104350004241403F3E3E3D3C3B3B3A3938383736A0
:104360003535343332323130302F2E2E2D2C2B2B4D
:104370002A292928272726252524232322212120ED
:10438000201F1E1E1D1C1C1B1B1A1919181817167E
:1043900016151514131312121111100F0F0E0E0D06
:1043A0000D0C0C0B0A0A0909080807070606050583
:1043B000040403030202010000220A00556E6B6E22
:1043C0006F776E20636F6D6D616E643A202200DB43
:1043D0000FC93F45BCDA3F8FB30240FCF02740567F
:1043E000946140FE4B9B4084A5D840E023184134A3
:1043F0006A5641E859974164DBD5416E271742B4AC
:10440000B75542CE1A9742C8AED542B5885A43D462
:104410000684BFA65FA7BF7443E0BF10B11AC01CDB
:104420002C58C0E8F697C0B849D6C04E4E17C124E4
:10443000D355C1802497C1A0B5D5C1121A17C24463
:10444000AE55C2781797C26CACD5C267885AC320E4
:10445000746F6F206C6F6E67206578747275736906
:104460006F6E2070726576656E7465640A002063F5
:104470006F6C6420657874727573696F6E207072EA
:104480006576656E7465640A00446F6E652E0A0079
:1044900050756C73696E6720202000556E746F75BF
:1044A0006368656420005A5F50524F42455F534530
:1044B00052564F5F4E52206E6F7420736574207594
:1044C000702E0A005761746368696E672070696EA8
:1044D000730A0064697300656E0061626C65640A4A
:1044E00000656E6473746F70206D6F6E69746F72A7
:1044F0002000204D393220580020580020204D61E6
:10450000783A2000200020204D696E3A2000536F39
:10451000667420656E6473746F70733A2000206F48
:104520007574206F662072616E67650A005365724C
:10453000766F20003A200020536572766F200025A8
:10454000290A00252000203B20280020440020418B
:104550000020490020204D3731302053003B2043BC
:104560006F6E74726F6C6C65722046616E0A00200B
:10457000496E76616C6964206578747275646572E1
:1045800020004361703A0047322F47332062616454
:1045900020706172616D65746572730A00220A0091
:1045A000656E7175657565696E672022006F6B00B9
:1045B000526573656E643A20005A5F53544F505FE2
:1045C00050494E005A5F535445505F50494E005A6F
:1045D0005F4D494E5F50494E005A5F454E41424C37
:1045E000455F50494E005A5F4449525F50494E0062
:1045F000595F53544F505F50494E00595F535445D3
:10460000505F50494E00595F4D494E5F50494E0032
:10461000595F454E41424C455F50494E00595F44F9
:1046200049525F50494E00585F53544F505F5049B4
:104630004E00585F535445505F50494E00585F4DEF
:10464000494E5F50494E00585F454E41424C455FD0
:1046500050494E00585F4449525F50494E005353F1
:104660005F50494E00534552564F335F50494E00FC
:10467000534552564F325F50494E00534552564FA4
:10468000315F50494E00534552564F305F50494EAE
:1046900000534453530053445F4445544543545FCF
:1046A00050494E0053434B5F50494E0052414D50CC
:1046B000535F44395F50494E0052414D50535F445F
:1046C000385F50494E0052414D50535F4431305F86
:1046D00050494E004D4F53495F50494E004D49538C
:1046E0004F5F50494E004D4158363637355F535372
:1046F0005F50494E004C45445F50494E004C434486
:104700005F50494E535F5253004C43445F50494EF3
:10471000535F454E41424C45004C43445F50494E27
:10472000535F4437004C43445F50494E535F443617
:10473000004C43445F50494E535F4435004C434462
:104740005F50494E535F4434004845415445525FE1
:104750004245445F50494E004845415445525F3000
:104760005F50494E0046494C5F52554E4F55545F7D
:1047700050494E0046414E325F50494E0046414E30
:10478000315F50494E0046414E5F50494E00453121
:104790005F535445505F50494E0045315F454E418F
:1047A000424C455F50494E0045315F4449525F508D
:1047B000494E0045315F43535F50494E0045305FDD
:1047C000535445505F50494E0045305F454E41427D
:1047D0004C455F50494E0045305F4449525F504957
:1047E0004E0045305F4155544F5F46414E5F504942
:1047F0004E00455F4D5558325F50494E00455F4D64
:104800005558315F50494E00455F4D5558305F5007
:10481000494E00444F474C43445F53434B00444F81
:10482000474C43445F4D4F534900434F4E54524F02
:104830004C4C45525F46414E5F50494E0042544EEB
:104840005F454E430042544E5F454E320042544E47
:104850005F454E31004245455045525F50494E003C
:104860004156525F53535F50494E004156525F5379
:10487000434B5F50494E004156525F4D4F53495F85
:1048800050494E004156525F4D49534F5F50494E7B
:104890000054454D505F4245445F50494E005445D9
:1048A0004D505F315F50494E0054454D505F305F71
:1048B00050494E005458443000525844300050572C
:1048C0004D3A20202534640050574D3A202025349D
:1048D000640050574D3A20202534640050574D3A1B
:1048E00020202534640050574D3A202025346400A0
:1048F00050574D3A20202534640050574D3A20201F
:104900002534640050574D3A202025346400505718
:104910004D3A20202534640050574D3A202025344C
:10492000640050574D3A20202534640050574D3ACA
:1049300020202534640050574D3A2020253464004F
:1049400050574D3A20202534640050574D3A2020CE
:104950002534640050574D3A2020253464003A2015
:104960000020202020434F4D002020206E6F6E2D10
:104970007374616E646172642050574D206D6F6472
:104980006500202020636F6D7061726520696E7410
:1049900065727275707420656E61626C656400206A
:1049A00020206F766572666C6F7720696E74657211
:1049B0007275707420656E61626C6564003A2000E7
:1049C0002020202054494D534B00423A2000202003
:1049D00020205443435200413A20002020202054FC
:1049E000434352002020202043533A20002020201F
:1049F0002057474D3A200050574D3A202025346427
:104A00000050574D3A2020253464004700480000EC
:104A10000088008A008C00B300B400000098009A5F
:104A2000009C00A800AA00AC0028012A012C01204B
:104A300020202054494D455200440045006E00801E
:104A40000081006F00B000B1007000900091007113
:104A500000A000A1007200200121017300206973F1
:104A600020616C736F207469656420746F207468B2
:104A700069732070696E0054494D45523143000AF4
:104A8000202E002020002020506F72743A20002039
:104A9000202000202020416E616C6F6720696E200D
:104AA0003D2025356C64003C756E757365642F750B
:104AB0006E6B6E6F776E3E00202841253264292090
:104AC0002000253364200050494E3A20004F757471
:104AD000707574203D2000496E70757420203D2053
:104AE00000416E616C6F6720696E203D2025356C3A
:104AF000640070726F7465637465642000202841DF
:104B000025326429202000253364200050494E3A84
:104B10002000B9480001B4480101A94843009E485B
:104B200045009148440084483201774833016B487E
:104B3000340160483501554825014D48210145485B
:104B40001F013D4823012A4807011E48330113482D
:104B5000340108482801FD472A01F2472C01E247A9
:104B60002C01D7471C01C9471801BD471A01B3479B
:104B70002C01A84722019A471E018E47240186472F
:104B800009017D47070174472C0165470201584719
:104B90000A01494708013D471701314719012547D7
:104BA0001B0119471D0109471101FD461001F5467A
:104BB0000D01E6464201DD463201D4463301C646C8
:104BC0000A01B9460801AC460901A44634019646DB
:104BD00031019146350186460B017B460601704640
:104BE0000501654604015E463501544637014746D6
:104BF00026013D46030132463601274603011D4684
:104C00003D011046380106462A01FB453C01F045AE
:104C10002A01E6453001D9453E01CF451201C44580
:104C20002E01B94512012E0A006F70656E20666173
:104C3000696C65642C2046696C653A20000000218F
:104C400010422063308440A550C660E77008812977
:104C5000914AA16BB18CC1ADD1CEE1EFF13112100F
:104C60000273325222B5529442F772D662399318C7
:104C7000837BB35AA3BDD39CC3FFF3DEE36224431B
:104C80003420040114E664C774A44485546AA54B17
:104C9000B528850995EEE5CFF5ACC58DD5533672AF
:104CA0002611163006D776F6669556B4465BB77A67
:104CB000A719973887DFF7FEE79DD7BCC7C448E53B
:104CC000588668A7784008611802282338CCC9EDB7
:104CD000D98EE9AFF9488969990AA92BB9F55AD44F
:104CE0004AB77A966A711A500A333A122AFDDBDC07
:104CF000CBBFFB9EEB799B588B3BBB1AABA66C875B
:104D00007CE44CC55C222C033C600C411CAEED8F56
:104D1000FDECCDCDDD2AAD0BBD688D499D977EB6EE
:104D20006ED55EF44E133E322E511E700E9FFFBEA6
:104D3000EFDDDFFCCF1BBF3AAF599F788F8891A979
:104D400081CAB1EBA10CD12DC14EF16FE18010A150
:104D500000C230E3200450254046706760B9839854
:104D600093FBA3DAB33DC31CD37FE35EF3B10290A0
:104D700012F322D2323542145277625672EAB5CB20
:104D8000A5A89589856EF54FE52CD50DC5E234C3F0
:104D900024A01481046674476424540544DBA7FAF4
:104DA000B79987B8975FE77EF71DC73CD7D326F240
:104DB000369106B01657667676154634564CD96D40
:104DC000C90EF92FE9C899E9898AB9ABA944586590
:104DD0004806782768C018E1088238A3287DCB5C94
:104DE000DB3FEB1EFBF98BD89BBBAB9ABB754A54E0
:104DF0005A376A167AF10AD01AB32A923A2EFD0F60
:104E0000ED6CDD4DCDAABD8BADE89DC98D267C072F
:104E10006C645C454CA23C832CE01CC10C1FEF3E33
:104E2000FF5DCF7CDF9BAFBABFD98FF89F176E367F
:104E30007E554E745E932EB23ED10EF01E20453A42
:104E400000205A3A0020593A00583A00202F0020FA
:104E500042403A0020403A0020573A000009121B15
:104E6000242D363F48415A536C657E7719100B024A
:104E70003D342F265158434A757C676E323B2029BA
:104E8000161F040D7A7368615E574C452B2239302A
:104E90000F061D14636A7178474E555C646D767F0A
:104EA0004049525B2C253E3708011A137D746F660A
:104EB00059504B42353C272E1118030A565F444D7A
:104EC000727B60691E170C053A3328214F465D54EA
:104ED0006B627970070E151C232A31384148535AEA
:104EE000656C777E09001B122D243F3658514A43CA
:104EF0007C756E671019020B343D262F737A61683A
:104F0000575E454C3B3229201F160D046A637871A9
:104F10004E475C55222B3039060F141D252C373E89
:104F20000108131A6D647F7649405B523C352E2789
:104F300018110A03747D666F5059424B171E050CF9
:104F4000333A21285F564D447B7269600E071C1569
:104F50002A233831464F545D626B70797C3C3E5E4B
:104F60002B3D3F2F5B5D3B2C2A225C004545505278
:104F70004F4D20496E697469616C697A65640A00F5
:104F800048617264636F6465642044656661756C32
:104F9000742053657474696E6773204C6F61646527
:104FA000640A000000964300009643000020410080
:104FB00000C8410000A0420000A0420000C84333E6
:104FC00033B942DC050000DC05000064000000107D
:104FD0002700003B200020204D36303320002020C9
:104FE0004D34313220530046696C616D656E74201A
:104FF00072756E6F75742073656E736F723A0020F0
:1050000055004C0046696C616D656E74206C6F6173
:10501000642F756E6C6F6164206C656E6774687365
:105020003A0020440020490020204D3330312050E8
:10503000005049442073657474696E67733A0020A8
:10504000460020420020480020204D3134352053B6
:10505000004D6174657269616C206865617475707A
:1050600020706172616D65746572733A0020204D25
:10507000323036205800486F6D65206F6666736564
:10508000743A00204A0020530020204D3230352051
:105090004200416476616E6365643A20423C6D690A
:1050A0006E5F7365676D656E745F74696D655F755E
:1050B000733E20533C6D696E5F6665656472617412
:1050C000653E20543C6D696E5F74726176656C5FFD
:1050D00066656564726174653E204A3C6A756E63FC
:1050E0005F6465763E0020540020520020204D323F
:1050F0003034205000416363656C65726174696F80
:105100006E2028756E6974732F7332293A20503CD3
:105110007072696E745F616363656C3E20523C72AD
:105120006574726163745F616363656C3E20543CB7
:1051300074726176656C5F616363656C3E0020200C
:105140004D3230312058004D6178696D756D2041C8
:105150006363656C65726174696F6E2028756E6932
:1051600074732F7332293A00204500205A002059C9
:105170000020204D3230332058004D6178696D7524
:105180006D206665656472617465732028756E694B
:1051900074732F73293A00537465707320706572AD
:1051A00020756E69743A0020440020204D32303062
:1051B0002053002044697361626C65640A0046698B
:1051C0006C616D656E742073657474696E67733A93
:1051D0000020204D3134392043203B20556E697426
:1051E0007320696E2043656C736975730A0020280B
:1051F0006D6D29002020473231202020203B205592
:105200006E69747320696E206D6D00486F6D696EF4
:1052100067204661696C6564006F70656E0054526A
:1052200049474745524544003A200066696C616D24
:10523000656E74007A5F6D696E00795F6D696E00EE
:10524000785F6D696E005265706F7274696E672069
:10525000656E6473746F70207374617475730A0083
:10526000486F6D6520257325732573204669727319
:1052700074005045544700504C4100000021002468
:105280000027002A002D0030003300010100000437
:105290000107010A0100002200250028002B002E32
:1052A000003100340002010000050108010B01007B
:1052B0000020002300260029002C002F00320000CF
:1052C00001000003010601090105050505070508A0
:1052D000080808020202020A0A0808040404040179
:1052E000010101010101010303030303030303049B
:1052F0000707070C0C0C0C0C0C0C0C02020202062B
:10530000060606060606060B0B0B0B0B0B0B0B011A
:1053100002102020080810204010204080020102C6
:10532000010804020101020408102040808040208E
:1053300010080402018004020180402010080402C9
:105340000108040201010204081020408001020447
:10535000081020408000000A0B02090C0D0E0807FF
:105360000304010000000000000000000000000035
:10537000000000000000000000000000000000002D
:1053800000121110000000000000000000000000EA
:1053900000000000000000000000004D6F76652056
:1053A00025736D6D00004D6F766520302E316D6D6B
:1053B000004D6F766520316D6D004D6F7665203143
:1053C000306D6D004D6F7665204178697300486FD0
:1053D00074656E6420746F6F20636F6C6400457831
:1053E000747275646572004D6F7665205A004D6F5A
:1053F00076652059004D6F766520580077527252BD
:105400004368616E67652046696C616D656E740006
:10541000556E6C6F61642046696C616D656E7400D9
:105420004C6F61642046696C616D656E74005072EA
:10543000656865617420437573746F6D00507265A3
:10544000686561742024004261636B0045455052D9
:105450004F4D206461746173697A65206572726F63
:10546000722E0A00290A002062797465733B20635A
:10547000726320002073746F7265642073657474A6
:10548000696E677320726574726965766564202839
:1054900000202863616C63756C6174656429210A5E
:1054A0000020213D2000454550524F4D204352439E
:1054B000206D69736D61746368202D202873746F8B
:1054C0007265642920002053697A653A2000496E8C
:1054D0006465783A20004669656C64206261636B9C
:1054E0006C6173685F64697374616E63655F6D6D31
:1054F000206D69736D617463682E0A004669656C7E
:10550000642066635F73657474696E6773206D6988
:10551000736D617463682E0A004669656C6420705F
:105520006C616E6E65725F736B65775F66616374E5
:105530006F72206D69736D617463682E0A0046692D
:10554000656C6420636F6F7264696E6174655F730C
:10555000797374656D206D69736D617463682E0A6B
:10556000004669656C64206D6F746F725F6375725D
:1055700072656E745F73657474696E67206D6973AC
:105580006D617463682E0A004669656C6420706CF6
:10559000616E6E65725F65787472756465725F6165
:1055A0006476616E63655F4B206D69736D617463D2
:1055B000682E0A004669656C6420746D635F7374BD
:1055C00065616C74685F656E61626C6564206D69AD
:1055D000736D617463682E0A004669656C6420749B
:1055E0006D635F736774206D69736D617463682E9A
:1055F0000A004669656C6420746D635F6879627245
:1056000069645F7468726573686F6C64206D697338
:105610006D617463682E0A004669656C6420746D60
:10562000635F737465707065725F63757272656EC7
:1056300074206D69736D617463682E0A0046696534
:105640006C64207061727365725F766F6C756D65E6
:10565000747269635F656E61626C6564206D697305
:105660006D617463682E0A004669656C6420667714
:10567000726574726163745F73657474696E677365
:10568000206D69736D617463682E0A004669656CEC
:1056900064207265636F766572795F656E61626CB6
:1056A0006564206D69736D617463682E0A004669D4
:1056B000656C6420636F6E74726F6C6C65724661AA
:1056C0006E5F73657474696E6773206D69736D6165
:1056D0007463682E0A004669656C64206C63645FBD
:1056E000636F6E7472617374206D69736D6174633E
:1056F000682E0A004669656C6420706F7765725F7A
:105700006D6F6E69746F725F666C616773206D692F
:10571000736D617463682E0A004669656C64206C61
:1057200070715F6C656E206D69736D617463682E56
:105730000A004669656C642075695F6D6174657205
:1057400069616C5F707265736574206D69736D61FA
:105750007463682E0A004669656C6420626C746F1D
:105760007563685F6C6173745F7772697474656E7A
:105770005F6D6F6465206D69736D617463682E0A77
:10578000004669656C6420736572766F5F616E6751
:105790006C6573206D69736D617463682E0A0046D1
:1057A00069656C6420706C616E6E65725F6C6576A5
:1057B000656C696E675F616374697665206D697396
:1057C0006D617463682E0A004669656C64207072AE
:1057D0006F62655F6F6666736574206D69736D6176
:1057E0007463682E0A004669656C642072756E6F7A
:1057F00075745F73656E736F725F656E61626C6501
:1058000064206D69736D617463682E0A0046696572
:105810006C6420686F6D655F6F6666736574206D7C
:1058200069736D617463682E0A004669656C642053
:10583000657374657070657273206D69736D6174E2
:1058400063682E0A00204D61726C696E3D563831D6
:10585000290A00454550524F4D2076657273696F95
:105860006E206D69736D61746368202845455052E0
:105870004F4D3D00506C65617365205265736574D2
:10588000005052494E5445522048414C5445440022
:1058900025533A202553004B494C4C45442E2000BB
:1058A0005072696E7465722068616C7465642E2034
:1058B0006B696C6C28292063616C6C6564210A003B
:1058C0006563686F3A004572726F723A00486F7490
:1058D000656E6420746F6F20636F6C640A004D36D0
:1058E00030303A20546F6F20436F6C6400486F74FF
:1058F000656E6420746F6F20636F6C640A00507271
:1059000065737320627574746F6E20746F20726596
:1059100073756D650A00496E736572742066696CF3
:10592000616D656E7420616E6420707265737320A2
:10593000627574746F6E0A005072657373206275BD
:1059400074746F6E20746F2068656174206E6F7A56
:105950007A6C650A0043616E6E6F74206F70656EBD
:105960002073756264697220005072696E742050F1
:105970006175736564005072696E742066726F6D34
:10598000204D6564696100496E73657274206669B3
:105990006C616D656E7420616E64207072657373E6
:1059A00020627574746F6E0A00416E796375626966
:1059B0006320344D41582052656164792E00507245
:1059C000696E74696E672E2E2E007C02D602112439
:1059D0001FBECFEFD1E2DEBFCDBF00E00CBF13E0B2
:1059E000A0E0B2E0E2E8FDE902E00BBF02C00790F0
:1059F0000D92AC33B107D9F726E1ACE3B3E001C0B7
:105A00001D92AC33B207E1F71CE2C6EEDCE200E027
:105A100006C021970109802FFE010F94004BC53E5F
:105A2000D10780E00807A9F70F9444340D94AF4ED6
:105A30000C9400002F923F924F925F926F927F9250
:105A40008F929F92AF92BF92CF92DF92EF92FF928E
:105A50000F931F93CF93DF93CDB7DEB7E0970FB6C9
:105A6000F894DEBF0FBECDBF8FA72091D1152EA712
:105A7000FF24F394F092D1158091BF0E8D3409F478
:105A800076C2843511F40C94E43C873411F00C9404
:105A9000093D2091BD0E3091BE0E2C30310509F428
:105AA0005CC19CF4243031053CF4223031050CF00B
:105AB000FDC037FF29C057C22430310509F404C1A5
:105AC0002530310509F43FC14EC22C31310509F4AE
:105AD000B7C154F42531310511F40C940B3D2B3131
