:100000000C9416390C9447390C9447390C944739A1
:100010000C9447390C9447390C9447390C94473960
:100020000C9447390C9447390C9447390C94473950
:100030000C9447390D94952E0C9447390C944739FC
:100040000C9447390D94E0380C9447390C94473997
:100050000C9447390C9447390C9443C30D94338F57
:100060000C9447390C940F5E0C94055E0C94473940
:100070000C9447390C9447390C9447390C94473900
:100080000C942F520C9447390C9447390C944739EF
:100090000C9447390C9447390C9447390C944739E0
:1000A0000C9447390C9447390C9401520C944739FD
:1000B0000C9447390C9447390C9447390C944739C0
:1000C0000C9447390C9447390C9447390C944739B0
:1000D0000C9447390C9447390C9447390C944739A0
:1000E0000C944739DB531754615444550055DB5584
:1000F0002B574957525777607A607E6081608460E1
:10010000AE6088608B608F609260956099609C6043
:100110009F60AE60A360A660A960F9601B613B614F
:10012000606185613C63AA61CD61F06115623A62EC
:100130005F628462A9623C63CE62F362186347BC6B
:10014000B6BAEFBA83BCEFBAEFBAEFBAEFBAEFBA0A
:10015000EFBAEFBAEFBAEFBAEFBAEFBAEFBAEFBA57
:10016000EFBAEFBAEFBAEFBAEFBAEFBAEFBAEFBA47
:10017000EFBAEFBAEFBAEFBAEFBA7DBCEFBAEFBAA7
:10018000EFBAEFBAEFBAEFBAEFBAEFBA56BCEFBABE
:10019000EFBAEFBAEFBAEFBAEFBAEFBAEFBAEFBA17
:1001A000EFBA9ABCECBAC401DE016C014A01DA0272
:1001B00030015602AC0182017802380380028602C7
:1001C00006025202960154022202F401FC010403C9
:1001D0001E0316031202BE01C8012202CE0236031C
:1001E00030023A01EC017A0170011C02D801FA02D6
:1001F00040038C025003D201AE0208037C01D801F7
:100200001C03640222032E02FC02340154015A032F
:10021000DE02C602084AD73B3BCE016E84BCBFFD5E
:10022000C12F3D6C74319ABD56833DDA3D00C77FC6
:1002300011BED9E4BB4C3E916BAAAABE000000805F
:100240003F05A84CCDB2D44EB93836A9020C50B9EE
:10025000918688083CA6AAAA2ABE000000803F001A
:100260000D94B3850D9419330D94A3930D940354F9
:100270000C94F9600D94098E0D94C3670D94086D6C
:100280000D94FF300D94F07E0C94A3600D94466A9B
:100290000D94D62F0D94D4850C942B570D94393191
:1002A0000D94EA6F0D94FD850D94A9930D9401545E
:1002B0000D94236C0D94AF000D94C32F0D94FF5338
:1002C0000C948F600C94AE600D94E6A50D94598942
:1002D0000D943B6C0C9481600D94AD850D945F681A
:1002E0000D941D8E0C9443D60C9481D00D94DB6F2D
:1002F0000D9453370D94138E0D94788E0D944531D3
:100300000D94622E0D94B9850D9472670C94CD6195
:100310000C947E600D9485680C9488600D94E200C6
:100320000D941D6C0D94DA880C9456BC0D94078DB9
:100330000C94A9620D9409540D94A9840D940D5444
:100340000D9495590D94266D0D94B9840C946DD02F
:100350000D9420310D940B540D94C2850D940E31E3
:100360000D94AD840D94A2780D94416D0D94DD78BB
:100370000D9408300C9474BD0C943B610D94348D35
:100380000D94056C0D94BE810D94D1850D943E7F26
:100390000D94388D0C948EA60D94D8780C9415621B
:1003A0000D94C1840D94558E0C94D1B90D94E76CC5
:1003B0000D94A08E0C9419D00C9447BC0D94AA8572
:1003C0000D9430830C9487D00D94CE780C946154A6
:1003D0000C94AB4E0C9484F30D940E8E0D94D57E3C
:1003E0000C9498A10C9412BD0D94188D0D94B584A5
:1003F0000D9402310D940FA60D941C8D0C9486ACB7
:100400000D94B4780D94296C0C9484600D94148D23
:100410000D94382E0D945F6D0D940B6C0D94F98531
:100420000D94BA7D0D94308D0C9483BC0D94A86707
:100430000C943FA10C943A620D94278E0C94A5CF96
:100440000D94BA780D944B8D0D9407540D94DC6B7C
:100450000D94FC780C9428A10D9457820D94ED9482
:100460000D94468D0C943C630D9447370D94208178
:100470000D9412680D9447500D94FD6B0C94DB5550
:100480000C94FACF0C949CA10C94778E0C94445548
:100490000C94ECBA0C9460610D94176D0D94BB7EB6
:1004A0000D94356C0D94038D0D940D8D0D94B685C2
:1004B0000D9424890D94C9780D94DE670C94EFBADD
:1004C0000D94A17E0C9495600D948C8E0D94640C0B
:1004D0000C9475D00D9444680C94CE620C94A96071
:1004E0000D94476C0D941C700C94A5D10D948D67E0
:1004F0000D94CF850C947A600D94716C0D94506DB1
:100500000D94BF850C9411A10D94D2000D94118D02
:100510000D9416300D94B6790D94418E0D94CA68E1
:100520000C94DB530D94526C0D94FC300D94D36BF2
:100530000D946E6D0C94B6BA0C9484620C949C600D
:100540000C949ABC0D945C780D9472680D94356D82
:100550000D94116C0D94AE780C9446BA0D945F8E88
:100560000C94F3620D9401860D9455780D94E4007B
:100570000D94B1840D94E0530D94B8510C944282C3
:100580000C94F0610C9400550C94B7D30D9408951D
:100590000C9442BA0D94F9670D9462780D943E8DD7
:1005A0000D942B680C945F620C9477600D9433313A
:1005B0000C9452A80D94B0850D94C9840D94249583
:1005C0000D94C5840D942E7C0C94A6600D94F58535
:1005D0000D942F6C0D94B1680C94AA610D94FC6875
:1005E0000C9418630C94FAA00C949F600C94D4B9EA
:1005F0000D94C46B0D94318E0D94D3930D94AF79FB
:100600000C947DBC0C9468820D94228D0D946C78B2
:100610000D946E8E0D94A8780D940A7F0C94495712
:100620000C9485610D94BD840D948C340D942A8DA9
:100630000D940F540C94EABC0D94828E0D94268D6B
:100640000D94C4780D94968E0D94B67A0D94A18471
:100650000D949E680C94B7CF0C94B9CF0C9417549A
:100660000C9452570D943F310C9499600D94428D27
:100670000D94BC850D94E6850D94E3680D94F930D6
:100680000D94398E0C9492600D94877E0D94416C7C
:100690000D94247F0D9464780D94BF780D94A584F7
:1006A0000D944B8E0C941B610D94D3780C9443BA2B
:1006B0000C948B600D9417950D94176C0D94314F1D
:1006C0000C9468C20C944FD20D94EF2F0D940554E6
:1006D0000D94F36F4E414E494E495459494E46CD03
:1006E000CCCC3D0AD7233C17B7D13877CC2B3295E9
:1006F00095E6241FB14F0A000020410000C84200C7
:10070000401C4620BCBE4CCA1B0E5AAEC59D740090
:10071000407A10F35A00A0724E18090010A5D4E8D0
:100720000000E87648170000E40B54020000CA9A63
:100730003B000000E1F505000080969800000040B5
:10074000420F000000A086010000001027000000FA
:1007500000E803000000006400000000000A000040
:100760000000000100000000002C76D888DC674FF4
:100770000823DFC1DFAE59E1B1B796E5E3E453C624
:100780003AE651997696E8E6C28426EB898C9B621C
:10079000ED407C6FFCEFBC9C9F40F2BAA56FA5F4C6
:1007A00090055A2AF75C936B6CF9676DC11BFCE0EE
:1007B000E40D47FEF520E6B500D0ED902E03009441
:1007C0003577050080841E080000204E0A000000D6
:1007D000C80C333333330F986E12831141EF8D21E0
:1007E00014893BE65516CFFEE6DB18D1844B381B47
:1007F000F77C1D901DA4BBE424203284725E22810C
:1008000000C9F124ECA1E53D27434F4D4D554E491C
:10081000434154494F4E0044525952554E0045529F
:10082000524F525300494E464F004543484F0047F0
:10083000322F47332062616420706172616D65748C
:100840006572730A0057617274656E2E2E2E005AFF
:100850002050726F62652050617374204265640A93
:10086000005A2D536F6E6465206175C39F65726871
:10087000616C6200205A3A200020593A20004265FB
:100880006420583A20004D65736820706F696E745B
:10089000206F7574206F662072616E67650A004B69
:1008A0006C69636B207A756D20466F727473657422
:1008B0007A656E004D6F746F72656E20616E67654C
:1008C000736368616C74657400456E642066696C5E
:1008D00065206C6973740A00426567696E206669F9
:1008E0006C65206C6973740A004E6F206D656469D5
:1008F000610A00286E6F2066696C65290043757275
:1009000072656E742066696C653A200053442070ED
:1009100072696E74696E67206279746520004E6F2B
:1009200074205344207072696E74696E670A0053B4
:100930007769746368696E6720746F2042696E61BD
:1009400072792050726F746F636F6C0A0050726915
:100950006E742074696D653A20006F6B006F666677
:10096000002A0825081E081708090844454255476B
:100970003A004D3131322053687574646F776E00E0
:100980004D31313320530042657474206BC3BC6811
:100990006C742E2E2E0042657474206865697A741A
:1009A0002E2E2E00344D4158202D20766733722094
:1009B0004F46462E002F2F20004D31343520533C1A
:1009C000696E6465783E206F7574206F6620726171
:1009D0006E67652028302D31290A003F4A206F7547
:1009E00074206F662072616E67652028302E30316A
:1009F00020746F20302E33290A004D3230362058B3
:100A00000046523A0020466C6F773A2000206F75FE
:100A100074206F662072616E67650A005365727696
:100A20006F20003A200020536572766F200020640A
:100A30003A0020693A0020703A00496E76616C698C
:100A4000642065787472756465720A0020643A00E7
:100A500020693A0020703A0064697300656E0043B3
:100A6000290A0061626C656420286D696E207465D6
:100A70006D702000436F6C642065787472756465D6
:100A8000732061726520004F4646004F4E00466954
:100A90006C616D656E742072756E6F757420004D9B
:100AA00034323120696E636F7272656374207061D5
:100AB00072616D657465722075736167650A004DBA
:100AC00065736820706F696E74206F7574206F662F
:100AD0002072616E67650A00454550524F4D204FA8
:100AE0004B0A004F46460A0043617365206C6967F4
:100AF00068743A20004572726F7220777269746967
:100B00006E6720746F20454550524F4D210A0036C4
:100B10003726033C3D380E2E303E12131A1C180A9D
:100B20002C4309072C07084400015046543A696FCA
:100B30006572726F720A005046543A73756363654A
:100B400073730A005054463A696E76616C69640AA0
:100B5000005046543A737563636573730A005046D8
:100B6000543A696F6572726F720A005046543A695E
:100B70006E76616C69640A005046543A696E76611B
:100B80006C69640A005046543A6661696C0A005008
:100B900046543A737563636573730A005046543A5A
:100BA000627573790A002C003A636F6D7072657319
:100BB000696F6E3A68656174736872696E6B2C0058
:100BC0002E002E005046543A76657273696F6E3A65
:100BD00000556E737570706F727465642042696E33
:100BE0006172792050726F746F636F6C0A00556E7A
:100BF0006B6E6F776E2042696E61727950726F749E
:100C00006F636F6C436F6E74726F6C205061636BB7
:100C100065740A006665004461746173747265618D
:100C20006D2074696D656F75740A0072730052658A
:100C300073656E64207265717565737420006F6BE7
:100C40000029207061796C6F616420636F72727526
:100C500070740A005061636B6574280044617461AC
:100C600073747265616D207061636B65742064617B
:100C7000746120627566666572206F766572727542
:100C80006E0A003F2920636F72727570740A0050FB
:100C900061636B65742068656164657228004461F6
:100CA000746173747265616D207061636B6574202B
:100CB0006F7574206F66206F726465720A006F6BC7
:100CC000002E002E002C002C007373004D343130A8
:100CD000004D313132004D31303800414E474548EA
:100CE000414C54454E005072696E746572207374A5
:100CF0006F707065642064756520746F2065727212
:100D00006F72732E20466978207468652065727250
:100D10006F7220616E6420757365204D39393920FA
:100D2000746F20726573746172742E202854656D1F
:100D30007065726174757265206973207265736580
:100D4000742E205365742069742061667465722066
:100D500072657374617274696E67290A004E6F2040
:100D6000436865636B73756D2077697468206C697F
:100D70006E65206E756D6265722C204C61737420F7
:100D80004C696E653A20004E6F20436865636B7353
:100D9000756D2077697468206C696E65206E756D5D
:100DA0006265722C204C617374204C696E653A2028
:100DB00000636865636B73756D206D69736D617435
:100DC00063682C204C617374204C696E653A200076
:100DD0004C696E65204E756D626572206973206E78
:100DE0006F74204C617374204C696E65204E756D74
:100DF0006265722B312C204C617374204C696E65D6
:100E00003A20004D31313000534420726561642036
:100E10006572726F720A002121204B494C4C20638D
:100E2000617573656420627920746F6F206D7563DE
:100E30006820696E6163746976652074696D6520E8
:100E40002D2063757272656E7420636F6D6D616EB7
:100E5000643A2000627573793A2070617573656435
:100E600020666F7220696E7075740A0062757379FE
:100E70003A2070617573656420666F7220757365C2
:100E8000720A00627573793A2070726F63657373CA
:100E9000696E670A004D656469756D20656E7466DC
:100EA00065726E74004D656469756D2065726B6165
:100EB0006E6E74004D363030004D65737370756E14
:100EC0006B740025532025692F2569002E0A002FF9
:100ED0000050726F62696E67206D65736820706F75
:100EE000696E742000202844525952554E290047FB
:100EF0003239204175746F20426564204C657665F7
:100F00006C696E67003F20284C2C522C462C4229DD
:100F1000206F7574206F6620626F756E64732E0A81
:100F2000003F2856296572626F7365206C6576658F
:100F30006C20696D706C61757369626C6520283016
:100F40002D34292E0A00426164205A2076616C7586
:100F5000650A004E6F2062696C696E656172206778
:100F60007269640A0041627765696368756E67003B
:100F700025533A2025730046696E697368656421BC
:100F80000A003A207A3A2000206F662000476F69F5
:100F90006E6720746F3A20580043570A0020646936
:100FA000723A0020616E676C653A00537461727426
:100FB000207261646975733A004D34382050756E43
:100FC0006B740025533A2025642F256400506F73FD
:100FD0006974696F6E696E67207468652070726FDE
:100FE00062652E2E2E0A003F4C656773206F6620C7
:100FF0006D6F76656D656E7420696D706C6175736B
:1010000069626C652028302D3135292E0A003F2079
:1010100028582C5929206F7574206F6620626F75CF
:101020006E64732E0A005A752077656974206472A5
:101030006175C39F656E003F53616D706C65207371
:10104000697A65206E6F7420706C61757369626C6B
:10105000652028342D3530292E0A004D3438205A89
:101060002D50726F626520526570656174616269AE
:101070006C69747920546573740A003F2856296599
:1010800072626F7365206C6576656C20696D706C3B
:1010900061757369626C652028302D34292E0A0031
:1010A0005374616E64617264204465766961746929
:1010B0006F6E3A20002052616E67653A2000204D25
:1010C00061783A2000204D696E3A2000205369670C
:1010D0006D613A20004D65616E3A2000205200415A
:1010E0006363656C65726174696F6E3A205000507D
:1010F000574D3A20202534640050574D3A20202582
:1011000034640050574D3A20202534640050574D28
:101110003A20202534640050574D3A20202534646D
:101120000050574D3A20202534640050574D3A2046
:10113000202534640050574D3A2020253464005057
:10114000574D3A20202534640050574D3A20202531
:1011500034640050574D3A20202534640050574DD8
:101160003A20202534640050574D3A20202534641D
:101170000050574D3A20202534640050574D3A20F6
:10118000202534640050574D3A2020253464003A1D
:10119000200020202020434F4D002020206E6F6E25
:1011A0002D7374616E646172642050574D206D6FB1
:1011B000646500202020636F6D7061726520696E28
:1011C0007465727275707420656E61626C6564001E
:1011D0002020206F766572666C6F7720696E74656B
:1011E000727275707420656E61626C6564003A207D
:1011F000002020202054494D534B00423A2000202B
:101200002020205443435200413A20002020202037
:1012100054434352002020202043533A20002020F2
:10122000202057474D3A200050574D3A2020253472
:10123000640050574D3A2020253464004700480090
:10124000000088008A008C00B300B4000000980001
:101250009A009C00A800AA00AC0028012A012C01D9
:101260002020202054494D455200440045006E0086
:10127000800081006F00B000B1007000900091000C
:101280007100A000A10072002001210173002069FB
:101290007320616C736F207469656420746F2074AF
:1012A0006869732070696E0054494D45523143009E
:1012B0000A202E0020200000000A0B02090C0D0E4F
:1012C0000807030401000000000000000000000007
:1012D000000000000000000000000000000000000E
:1012E00000000012111000000000000000000000CB
:1012F00000000000000000000000000000000000EE
:10130000000000000000000102102020080810204A
:101310004010204080020102010804020101020481
:101320000810204080804020100804020180040240
:101330000180402010080402010804020101020497
:10134000081020408001020408102040801008048A
:1013500008801020400440801020400480050505CE
:1013600005070508080808020202020A0A0808041C
:10137000040404010101010101010103030303034A
:10138000030303040707070C0C0C0C0C0C0C0C02D9
:1013900002020206060606060606060B0B0B0B0BE0
:1013A0000B0B0B07070A0A0A0A0A0A0505050404BB
:1013B0000408082020506F72743A2000473236200B
:1013C00044C3BC7365206175666865697A656E00A3
:1013D000473236206865697A742042657474005714
:1013E000616974696E6720666F72206865617475E3
:1013F000702E0A004665737465204CC3A46E676541
:10140000205072696D65005072696D696E67206663
:101410006572746967004D616E75656C6C20507201
:10142000696D652E2E2E0047323620616267656237
:10143000726F6368656E00473236207665726C6144
:101440007373656E003F53706563696669656420F8
:10145000582C5920636F6F7264696E617465206FD8
:101460007574206F6620626F756E64732E0A003F7C
:1014700028522965706561742076616C7565206EEF
:101480006F7420706C61757369626C653B206D755B
:101490007374206265206174206C656173742031FF
:1014A0002E0A003F537065636966696564206E6F3C
:1014B0007A7A6C652074656D706572617475726599
:1014C000206E6F7420706C61757369626C652E0A92
:1014D000003F5370656369666965642066696C6185
:1014E0006D656E742073697A65206E6F7420706C00
:1014F00061757369626C652E0A003F53706563699C
:1015000066696564207072696D65206C656E6774CC
:1015100068206E6F7420706C61757369626C652EE3
:101520000A003F537065636966696564206E6F7A6F
:101530007A6C652073697A65206E6F7420706C61B7
:10154000757369626C652E0A003F5265747261633F
:1015500074696F6E204D756C7469706C696572206A
:101560006D75737420626520737065636966696563
:10157000642E0A003F537065636966696564205292
:10158000657472616374696F6E204D756C746970F7
:101590006C696572206E6F7420706C61757369621E
:1015A0006C652E0A003F5370656369666965642047
:1015B0006C6179657220686569676874206E6F7404
:1015C00020706C61757369626C652E0A0043292E68
:1015D0000A003F53706563696669656420626564EB
:1015E0002074656D7065726174757265206E6F74BC
:1015F00020706C61757369626C65202834302D0031
:10160000473236207374617274696E672E2E2E0A0B
:10161000004F46460A004661646520486569676870
:10162000742000426564204C6576656C696E6720A5
:10163000004661696C656420746F20656E61626C40
:101640006520426564204C6576656C696E670A00AA
:10165000496E76616C6964206D6573682E0A00427C
:1016600069747465206E65757374617274656E005B
:10167000445255434B455220474553544F505054C4
:101680000025533A202553004142474542524F43DB
:1016900048454E005072696E7465722068616C74C2
:1016A00065642E206B696C6C28292063616C6C6505
:1016B00064210A00414E474548414C54454E005074
:1016C00072696E7465722073746F707065642064E3
:1016D000756520746F206572726F72732E20466973
:1016E0007820746865206572726F7220616E642064
:1016F000757365204D39393920746F2072657374A4
:101700006172742E202854656D70657261747572F3
:10171000652069732072657365742E20536574208B
:101720006974206166746572207265737461727485
:10173000696E67290A006563686F3A004572726FC7
:10174000723A0042696C696E656172204C6576651B
:101750006C696E6720477269643A0A002121205340
:10176000544F502063616C6C6564206265636175E1
:101770007365206F6620424C546F756368206572F4
:10178000726F72202D207265737461727420776994
:101790007468204D3939390A0021212053544F50A3
:1017A0002063616C6C65642062656361757365209C
:1017B0006F6620424C546F756368206572726F7259
:1017C000202D2072657374617274207769746820AB
:1017D0004D3939390A00486F74656E6420746F6F33
:1017E00020636F6C640A00507265737320627574B5
:1017F000746F6E20746F20726573756D650A004991
:101800006E736572742066696C616D656E742061BB
:101810006E6420707265737320627574746F6E0AE3
:1018200000507265737320627574746F6E20746FEC
:101830002068656174206E6F7A7A6C650A0043488F
:10184000414D4245525F54454D50455241545552C9
:101850004500424142595354455050494E4700417A
:10186000524353004D4F54494F4E5F4D4F444553E3
:1018700000544845524D414C5F50524F54454354DB
:10188000494F4E004C4F4E475F46494C454E414DE7
:1018900045004155544F5245504F52545F53445F99
:1018A0005354415455530053444341524400505201
:1018B0004F4D50545F535550504F525400454D4575
:1018C0005247454E43595F504152534552004341A0
:1018D00053455F4C494748545F4252494748544E2C
:1018E00045535300544F47474C455F4C4947485474
:1018F0005300534F4654574152455F504F5745523E
:10190000004255494C445F50455243454E54004CAB
:101910004556454C494E475F44415441005A5F503B
:10192000524F42450052554E4F5554004155544F69
:101930004C4556454C005052494E545F4A4F420068
:1019400050524F4752455353004155544F52455002
:101950004F52545F54454D5000564F4C554D4554D1
:1019600052494300454550524F4D0042494E415265
:10197000595F46494C455F5452414E5346455200CB
:1019800053455249414C5F584F4E5F584F464600B1
:101990004649524D574152455F4E414D453A4D6182
:1019A000726C696E20344D415820322E312E303009
:1019B00030334245544120284E6F76202038203263
:1019C0003032302031393A31313A35332920534FD2
:1019D000555243455F434F44455F55524C3A6874F6
:1019E0007470733A2F2F6769746875622E636F6D18
:1019F0002F47656D696E695365727665722F4D610B
:101A0000726C696E2050524F544F434F4C5F564595
:101A10005253494F4E3A312E30204D414348494EA2
:101A2000455F545950453A344D4158202D20766732
:101A300033722045585452554445525F434F554EDA
:101A4000543A3120555549443A366161313436377C
:101A5000652D666664352D313165392D3864373131
:101A60002D3336326239653135353636370A00293D
:101A70000A0020746F20003F5A206F7574206F6633
:101A80002072616E6765202800290A0020746F208B
:101A9000003F59206F7574206F662072616E676514
:101AA00020282D00290A0020746F20003F58206F45
:101AB0007574206F662072616E676520282D005056
:101AC000726F6265204F6666736574205800220A43
:101AD00000656E7175657565696E672022006F6BB4
:101AE00000526573656E643A20004D383400446FCF
:101AF0006E65207072696E74696E672066696C65C8
:101B00000A004D3737004D33310043616E6E6F74FC
:101B1000206F70656E20737562646972200025699C
:101B2000730025696D202569730025696820256982
:101B30006D20256973002569642025696820256961
:101B40006D20256973002569792025696420256940
:101B5000682025696D20256973000A5374617473C8
:101B60003A2046696C616D656E7420757365643AE0
:101B700020002C204C6F6E67657374206A6F623A88
:101B80002000546F74616C2074696D653A200053B5
:101B9000746174733A20002C204661696C65643A64
:101BA00020002C2046696E69736865643A200050F5
:101BB00072696E74733A200053746174733A200032
:101BC0006BC3BC686C742E2E2E006865697A742E07
:101BD0002E2E00452025530023646566696E65201E
:101BE00044454641554C545F00626564004B642097
:101BF000004B6920004B702000504944204175740F
:101C00006F74756E652066696E69736865642120FE
:101C100050757420746865206C617374204B702C4F
:101C2000204B6920616E64204B6420636F6E737477
:101C3000616E74732066726F6D2062656C6F7720C1
:101C4000696E746F20436F6E66696775726174693F
:101C50006F6E2E680A00504944204175746F747588
:101C60006E65206661696C6564212074696D656FBD
:101C700075740A00504944204175746F74756E651F
:101C8000206661696C6564212054656D70657261C0
:101C90007475726520746F6F20686967680A002028
:101CA0004B643A2000204B693A2000204B703A20C8
:101CB000000A20436C617373696320504944200A11
:101CC00000204B643A2000204B693A2000204B70E2
:101CD0003A20000A204E6F206F76657273686F6F2E
:101CE000740A002054753A2000204B753A200020D9
:101CF0006D61783A2000206D696E3A200020643AC8
:101D0000200020626961733A2000504944204175E7
:101D1000746F74756E652073746172740A00504933
:101D200044204175746F74756E65206661696C65D9
:101D300064212054656D70657261747572652074DC
:101D40006F6F20686967680A0050494420417574C4
:101D50006F74756E6500504944204175746F7475D9
:101D60006E65206661696C6564212042616420654E
:101D700078747275646572206E756D6265720A00A2
:101D80004C6164656E206D6D00456E746C616465B8
:101D90006E206D6D0046696C616D656E7464757260
:101DA00063686D6573736572004520696E206D6DA3
:101DB000C2B3004D333033205531204525692053BF
:101DC000256900504944204175746F74756E652013
:101DD0002A005049442D44202A005049442D4920CE
:101DE0002A005049442D50202A0020082046616BCB
:101DF000746F72002008206D6178002008206D69E2
:101E00006E0061757300616E004175746F205465DA
:101E10006D706572617475720056206D696E204C2C
:101E200065657266616872740056206D696E200087
:101E300056206D617820450056206D6178205A004B
:101E400056206D617820590056206D617820580029
:101E50005A5F53544F505F50494E005A5F53544598
:101E6000505F50494E005A5F4D494E5F50494E00F9
:101E70005A5F4D41585F50494E005A5F454E4142AE
:101E80004C455F50494E005A5F4449525F50494E9D
:101E900000595F53544F505F50494E00595F53549F
:101EA00045505F50494E00595F4D494E5F50494E75
:101EB00000595F454E41424C455F50494E00595FC5
:101EC0004449525F50494E00585F53544F505F5041
:101ED000494E00585F535445505F50494E00585F7B
:101EE0004D494E5F50494E00585F454E41424C456A
:101EF0005F50494E00585F4449525F50494E00536D
:101F0000535F50494E00534552564F335F50494E30
:101F100000534552564F325F50494E00534552567A
:101F20004F315F50494E00534552564F305F504934
:101F30004E00534453530053445F44455445435467
:101F40005F50494E0053434B5F50494E004E454F42
:101F5000504958454C5F50494E0052414D50535FD7
:101F600044395F50494E0052414D50535F44385FF1
:101F700050494E0052414D50535F4431305F5049FB
:101F80004E004D4F53495F50494E004D49534F5FEE
:101F900050494E004D4158363637355F53535F50E8
:101FA000494E004C45445F50494E004C43445F50FD
:101FB000494E535F5253004C43445F50494E535F68
:101FC000454E41424C45004C43445F50494E535F9F
:101FD0004437004C43445F50494E535F4436004CF5
:101FE00043445F50494E535F4435004C43445F5077
:101FF000494E535F4434004845415445525F424581
:10200000445F50494E004845415445525F305F504F
:10201000494E0046494C5F52554E4F55545F50490A
:102020004E0046414E325F50494E0046414E315FB0
:1020300050494E0046414E5F50494E0045315F5376
:102040005445505F50494E0045315F454E41424C2A
:10205000455F50494E0045315F4449525F50494EFB
:102060000045315F43535F50494E0045305F535444
:1020700045505F50494E0045305F454E41424C450A
:102080005F50494E0045305F4449525F50494E0011
:1020900045305F4155544F5F46414E5F50494E00B9
:1020A000455F4D5558325F50494E00455F4D55587C
:1020B000315F50494E00455F4D5558305F50494E95
:1020C00000444F474C43445F53434B00444F474CFD
:1020D00043445F4D4F534900434F4E54524F4C4C75
:1020E00045525F46414E5F50494E00434153455F64
:1020F0004C494748545F50494E0042544E5F454E4C
:10210000430042544E5F454E320042544E5F454EAE
:1021100031004245455045525F50494E00415652AC
:102120005F53535F50494E004156525F53434B5FDC
:1021300050494E004156525F4D4F53495F50494EF2
:10214000004156525F4D49534F5F50494E00544530
:102150004D505F4245445F50494E0054454D505FDD
:10216000315F50494E0054454D505F305F50494EED
:1021700000545844300052584430002020200020A1
:102180002020416E616C6F6720696E203D202535EF
:102190006C64003C756E757365642F756E6B6E6F45
:1021A000776E3E0020284125326429202000253307
:1021B00064200050494E3A20004F757470757420A9
:1021C0003D2000496E70757420203D2000416E61F5
:1021D0006C6F6720696E203D2025356C640070723D
:1021E0006F7465637465642000202841253264297A
:1021F000202000253364200050494E3A20007621EB
:10220000000171210101662143005B2145004E213F
:1022100044004121320134213301282134011D21A0
:102220003501122125010A21210102211F01FA2075
:102230002301EB200401D8200701CC203301C12069
:102240003401B6202801AB202A01A0202C019020C7
:102250002C0185201C01772018016B201A016120B8
:102260002C015620220148201E013C20240134204C
:1022700009012B20070122202C0113200201062036
:102280000A01F71F0801EB1F1701DF1F1901D31FF8
:102290001B01C71F1D01B71F1101AB1F1001A31F99
:1022A0000D01941F42018B1F3201821F3301741FE5
:1022B0000A01671F08015A1F09014D1F0401451F2C
:1022C0003401371F3101321F3501271F0B011C1F3D
:1022D0000601111F0501061F0401FF1E3501F51E31
:1022E0003701E81E2601DE1E0301D31E3601C81E7B
:1022F0000301BE1E3D01B11E3801A71E0E019C1E2A
:102300003C01911E0E01871E30017A1E3E01701E97
:102310001301661E12015B1E2E01501E1201446F36
:102320006E652E0A0050756C73696E672020200060
:10233000556E746F7563686564200066616C7365C3
:10234000004641494C3A204E6F20747269676765B8
:10235000722064657465637465640A004641494C83
:102360003A204E6F697365206465746563746564B3
:10237000202D20706C656173652072652D72756EFD
:1023800020746573740A0020646574656374656401
:102390002E0A003D20424C546F75636820707265B0
:1023A0002056332E3120286F7220636F6D70617458
:1023B00069626C6529003D205A20536572766F2052
:1023C00050726F6265003D20424C546F7563682007
:1023D00056332E310020282B2F2D20346D73293AAF
:1023E00020003A2033306D73206F72206D6F72655C
:1023F0000A002E2050756C7365207769647468003C
:102400002A2A20506C65617365207472696767655C
:10241000722070726F62652077697468696E20330C
:102420003020736563202A2A0A004641494C3A202D
:10243000424C544F55434820656E61626C65642080
:102440002D2053657420757020746869732064654D
:1024500076696365206173206120536572766F2011
:1024600050726F6265207769746820494E564552F4
:1024700054494E472073657420746F202774727519
:1024800065272E0A0020204445504C4F59454420D2
:1024900073746174653A204C4F5720286C6F6769DC
:1024A000632030290020204445504C4F594544209A
:1024B00073746174653A204849474820286C6F67F7
:1024C0006963203129003D204D656368616E696351
:1024D000616C205377697463682064657465637404
:1024E00065640A005741524E494E473A20494E56BC
:1024F000455254494E472073657474696E67207065
:10250000726F6261626C79206261636B7761726481
:10251000732E0A002E204465706C6F79202620737C
:10252000746F7720342074696D65730A003D204212
:102530004C546F75636820436C6173736963203119
:102540002E322C20312E332C20536D6172742031A9
:102550002E302C20322E302C20322E322C20332EB6
:10256000302C20332E312064657465637465642ECD
:102570000A002E20436865636B20666F7220424C10
:10258000544F5543480A002E205A5F4D494E5F452F
:102590004E4453544F505F494E56455254494E474E
:1025A0003A20002E2050726F6265205A5F4D494ECE
:1025B0005F50494E3A20002C2073746F7720616E73
:1025C000676C653A202020002C206465706C6F7960
:1025D00020616E676C653A2000536572766F2070DB
:1025E000726F626520746573740A2E207573696E4C
:1025F0006720696E6465783A2020005761746368CB
:10260000696E672070696E730A0064697300656E95
:102610000061626C65640A00656E6473746F70209B
:102620006D6F6E69746F722000204D393220580032
:1026300020580020204D61783A2000200020204DB5
:10264000696E3A2000536F667420656E6473746F10
:1026500070733A200025290A00252000203B2028FD
:102660000020440020410020490020204D37313017
:102670002053003B20436F6E74726F6C6C65722048
:1026800046616E0A0020496E76616C696420657847
:1026900074727564657220004572723A20757466B2
:1026A0003820666F6E74206E6F7420696E6974696D
:1026B000616C697A65642E004572723A20757466A1
:1026C0003820666F6E74206E6F7420696E6974694D
:1026D000616C697A65642E004572723A2075746681
:1026E0003820666F6E74206E6F7420696E6974692D
:1026F000616C697A65642E00000C0F00FE070225EC
:1027000003BB01FFFE0AFE08FE05080806000040A4
:10271000F0C88888987810050808060000C0F88876
:1027200088888888F80505050600012030F83020E3
:102730000508080600002070F820202020E0050988
:10274000090600FF2070A8A8B88888702007050532
:10275000070001D86C366CD80509090600FFF8A8F7
:102760008888888888A8F8050A0A0600FE20505044
:10277000505088A8A8887003030306000340A040B7
:10278000FFFFFFFFFFFFFFFFFFFFFFFFFFFFFFFF59
:10279000FFFFFFFFFFFF0000000605FF0107070620
:1027A000020080808080800080030303060105A072
:1027B000A0A005060606000050F85050F850050984
:1027C000090600FF2070A8A07028A8702005070740
:1027D000060000C8C81020409898050707060000AA
:1027E00040A0A040A89068010303060205808080F5
:1027F0000309090601FF20404080808040402003FB
:1028000009090601FF804040202020404080050744
:102810000706000020A8702070A820050505060006
:10282000012020F820200203030601FFC04080059C
:102830000101060003F8020202060100C0C00507FC
:10284000070600000810102040408005070706001A
:1028500000708898A8C8887003070706010040C068
:1028600040404040E005070706000070880810203F
:1028700040F8050707060000F808103008887005C2
:10288000070706000010305090F8101005070706E3
:102890000000F880F008088870050707060000307F
:1028A0004080F0888870050707060000F8081010BF
:1028B000202020050707060000708888708888702F
:1028C0000507070600007088887808106002050573
:1028D000060100C0C000C0C00206060601FFC0C05D
:1028E00000C040800305050601012040804020050E
:1028F0000303060002F800F8030505060101804005
:102900002040800507070600007088102020002066
:102910000507070600007088B8A8B880700507078B
:10292000060000708888F888888805070706000078
:10293000F04848704848F005070706000070888096
:1029400080808870050707060000F048484848481E
:10295000F0050707060000F88080F08080F8050782
:1029600007060000F88080F08080800507070600D9
:1029700000708880809888700507070600008888A6
:1029800088F8888888030707060100E04040404037
:1029900040E0050707060000381010101090600591
:1029A00007070600008890A0C0A0908805070706CA
:1029B0000000808080808080F8050707060000887E
:1029C000D8A8888888880507070600008888C8A8CE
:1029D00098888805070706000070888888888870AE
:1029E000050707060000F08888F08080800507074B
:1029F00006000070888888A8906805070706000010
:102A0000F08888F0A090880507070600007088808D
:102A100070088870050707060000F8202020202095
:102A200020050707060000888888888888700507C1
:102A30000706000088888888505020050707060090
:102A40000088888888A8A85005070706000088889D
:102A500050205088880507070600008888502020ED
:102A60002020050707060000F80810204080F80322
:102A700009090601FFE080808080808080E00507F2
:102A800007060000804040201010080309090601D5
:102A9000FFE020202020202020E005030306000581
:102AA0002050880501010600FEF803030306010516
:102AB0008040200505050600007008788878050725
:102AC000070600008080F0888888F005050506006C
:102AD0000070808088700507070600000808788865
:102AE0008888780505050600007088F08070050765
:102AF00007060000304840E0404040050707060058
:102B0000FE708888887808700507070600008080B6
:102B1000F0888888880307070601004000C040400D
:102B200040E00409090601FE10003010101010905A
:102B30006005070706000080808890E09088030702
:102B400007060100C04040404040E0050505060082
:102B500000D0A8A8A8A8050505060000B0C8888868
:102B60008805050506000070888888700507070637
:102B700000FEF0888888F080800507070600FE7850
:102B8000888888780808050505060000B0C8808098
:102B90008005050506000078807008F00507070627
:102BA00000002020F82020201805050506000088D8
:102BB00088889868050505060000888888502005E3
:102BC00005050600008888A8A85005050506000030
:102BD00088502050880507070600FE888888502006
:102BE0004080050505060000F8102040F80309099B
:102BF0000601FF2040404080404040200109090676
:102C000002FF808080808080808080030909060127
:102C1000FF80404040204040408005030306000202
:102C200048A890FFFFFFFFFFFFFFFFFFFFFFFFFF31
:102C3000FFFFFFFFFFFFFFFFFFFFFFFFFFFFFFFFA4
:102C4000FFFFFFFF0000000605FF01070706020067
:102C5000800080808080800507070600FF2070A824
:102C6000A0A87020050707060000304840E0404853
:102C7000B0050505060000A8508850A805070706FE
:102C800000008850F820F820200107070602008085
:102C900080800080808004080806010070806090B9
:102CA000906010E0030101060107A0060707060077
:102CB000007884B4A4B4847803050506010460A0F8
:102CC0006000E00505050600002850A05028050317
:102CD00003060001F80808030101060103E00607E6
:102CE000070600007884B4A4A484780501010600D6
:102CF00007F80404040601056090906005070706C4
:102D000000002020F8202000F803050506010440FB
:102D1000A02040E0030505060104C0204020C003B8
:102D200003030601052040800507070600FE88888A
:102D30008898E8808005080806000078E8E8E868D8
:102D4000282828020202060203C0C003020206016C
:102D5000FE20C003050506010440C04040E0030515
:102D60000506010540A04000E0050505060000A09D
:102D7000502850A0050A0A06000040C04850605084
:102D8000B0507810050A0A06000040C04850605054
:102D9000A8081038050A0A060000C0204830E05094
:102DA000B05078100507070600002000202040885A
:102DB00070050A0A060000402000708888F888889C
:102DC00088050A0A060000102000708888F88888A4
:102DD00088050A0A060000205000708888F8888854
:102DE00088050A0A06000068B000708888F888889C
:102DF000880509090600005000708888F8888888CE
:102E0000050A0A060000205020708888F888888803
:102E100005070706000078A0A0F0A0A0B8050909E2
:102E20000600FE708880808088701060050A0A069F
:102E30000000402000F88080F08080F8050A0A0633
:102E40000000102000F88080F08080F8050A0A0653
:102E50000000205000F88080F08080F80509090605
:102E600000005000F88080F08080F8030A0A060114
:102E700000804000E04040404040E0030A0A060174
:102E800000204000E04040404040E0030A0A0601C4
:102E90000040A000E04040404040E0030909060136
:102EA00000A000E04040404040E005070706000069
:102EB000704848E8484870050A0A06000068B000F3
:102EC0008888C8A8988888050A0A0600004020005B
:102ED00070888888888870050A0A0600001020001B
:102EE00070888888888870050A0A060000205000CB
:102EF00070888888888870050A0A06000068B00013
:102F0000708888888888700509090600005000705C
:102F1000888888888870050505060001885020503B
:102F2000880509090600FF087098A8A8A8C870803D
:102F3000050A0A0600004020008888888888887072
:102F4000050A0A0600001020008888888888887092
:102F5000050A0A0600002050008888888888887042
:102F6000050909060000500088888888888870054F
:102F70000A0A060000102000888850202020200423
:102F8000070706010080E0909090E08005070706A3
:102F90000000708890A09088B005080806000040E6
:102FA00020007008788878050808060000102000C6
:102FB000700878887805080806000020500070081E
:102FC00078887805080806000068B00070087888DE
:102FD0007805070706000050007008788878050813
:102FE000080600002050207008788878050505063E
:102FF0000000702870A0780507070600FE70888022
:10300000887010600508080600004020007088F0F5
:1030100080700508080600001020007088F080709D
:103020000508080600002050007088F08070050731
:103030000706000050007088F08070030808060141
:1030400000804000C0404040E00308080601002026
:103050004000C0404040E003080806010040A000D6
:10306000C0404040E0030707060100A000C0404008
:1030700040E005090906000050205008788888883B
:103080007005080806000068B000B0C88888880588
:10309000080806000040200070888888700508082D
:1030A0000600001020007088888870050808060057
:1030B00000205000708888887005080806000068A5
:1030C000B0007088888870050707060000500070FF
:1030D000888888700505050600012000F800200595
:1030E00005050600007898A8C8F005080806000045
:1030F0004020008888888870050808060000102095
:10310000008888888870050808060000205000881C
:10311000888888700507070600005000888888881E
:1031200070050A0A0600FE1020008888885020409A
:10313000800509090600FE8080F0888888F080807C
:103140000509090600FE500088888850204080202C
:10315000436F756E7420583A002053004D3130365D
:1031600020500000426574740045310062656400BF
:103170002C2073797374656D2073746F707065643F
:1031800021204865617465725F49443A20004845D2
:10319000495A454E204552464F4C474C4F530048E4
:1031A000656174696E67206661696C656400202DD5
:1031B00020496E76616C6964206578747275646507
:1031C00072206E756D62657220210A002008204E03
:1031D0004943485420455252454943485400546895
:1031E00065726D616C2052756E617761790020089F
:1031F00020C39C42455253434852495454454E00C3
:103200004D415854454D5020747269676765726529
:103210006400200820554E544552534348524954A7
:1032200054454E004D494E54454D502074726967C7
:103230006765726564000A0A0020205A5F4D415894
:103240003A0020205A5F4D494E3A002020595F4DE8
:10325000494E3A002020585F4D494E3A00202F0039
:103260002042403A0020403A0020573A0048656C1E
:103270006C69676B65697400496E74656E73697417
:10328000C3A47420576569C39F00496E74656E734B
:103290006974C3A47420426C617500496E74656ED4
:1032A000736974C3A474204772C3BC6E00496E7402
:1032B000656E736974C3A47420526F74004C6963A3
:1032C00068742D537465756572756E670048656C1A
:1032D0006C69676B656974004B6F6E6669677572C0
:1032E0006174696F6E0042656C6575636874756EB4
:1032F000670042656E75747A6572646566696E69A9
:10330000657274004C696368742D45696E737465E9
:103310006C6C756E67005374616E646172640061F9
:10332000757300616E004C69636874004861757064
:10333000746D656EC3BC003F005A7572C3BC636B8D
:103340000053746F7000447275636B20766F6D204C
:103350004D656469756D004D656469756D206765BF
:1033600074617573636874004D3231004C69636831
:103370007400C39C6265722064656E20447275633C
:103380006B65720046696C616D656E74207765636C
:103390006873656C6E004B6F6E66696775726174F9
:1033A000696F6E0054656D7065726174757200426C
:1033B00065776567756E670053442D447275636B5E
:1033C00020666F72747365747A656E004B65696E02
:1033D000204D656469756D004A7573746965727511
:1033E0006E670053442D447275636B206162627294
:1033F000656368656E0053442D447275636B20707D
:10340000617573696572656E00496E666F003F0095
:1034100053746172746520447275636B004162621B
:1034200072656368656E00447275636B656E004318
:10343000616E6E6F7420656E746572207375626460
:1034400069723A2000022E2E0048617570746D6515
:103450006EC3BC00FFFDFCFAF8F6F4F2F0EEECEA05
:10346000E9E7E5E3E1E0DEDCDAD9D7D5D4D2D0CFA5
:10347000CDCBCAC8C7C5C3C2C0BFBDBCBAB9B7B639
:10348000B4B3B2B0AFADACAAA9A8A6A5A4A2A1A09E
:103490009E9D9C9A99989795949392908F8E8D8BE0
:1034A0008A8988878684838281807F7E7D7B7A7902
:1034B0007877767574737271706F6E6D6C6B6A6904
:1034C0006867666564636261605F5E5D5C5B5A59F4
:1034D00058585756555453525150504F4E4D4C4BCF
:1034E0004A4A4948474646454443424241403F3E96
:1034F0003E3D3C3B3B3A393838373635353433324C
:10350000323130302F2E2E2D2C2B2B2A29292827F3
:103510002726252524232322212120201F1E1E1D8E
:103520001C1C1B1B1A19191818171616151514131D
:103530001312121111100F0F0E0E0D0D0C0C0B0AA1
:103540000A0909080807070606050504040303021B
:103550000201000000004F43000057430000944365
:103560000000A0C0000000000000000045696E736C
:1035700074656C6C2E206765737065692E00290A6E
:10358000002062797465733B206372632000536589
:103590007474696E67732053746F726564202800B9
:1035A0004669656C64206261636B6C6173685F641B
:1035B000697374616E63655F6D6D206D69736D61B4
:1035C0007463682E0A004669656C642066635F73E5
:1035D000657474696E6773206D69736D6174636877
:1035E0002E0A004669656C6420706C616E6E6572AF
:1035F0005F736B65775F666163746F72206D69736B
:103600006D617463682E0A004669656C6420636F9F
:103610006F7264696E6174655F73797374656D2030
:103620006D69736D617463682E0A004669656C6428
:10363000206D6F746F725F63757272656E745F7305
:10364000657474696E67206D69736D617463682E4B
:103650000A004669656C6420706C616E6E65725F0D
:1036600065787472756465725F616476616E6365B6
:103670005F4B206D69736D617463682E0A00466943
:10368000656C6420746D635F737465616C74685FEE
:10369000656E61626C6564206D69736D61746368E9
:1036A0002E0A004669656C6420746D635F687962F8
:1036B0007269645F7468726573686F6C64206D69A9
:1036C000736D617463682E0A004669656C642074CA
:1036D0006D635F737465707065725F637572726538
:1036E0006E74206D69736D617463682E0A0046699B
:1036F000656C64207061727365725F766F6C756D56
:1037000065747269635F656E61626C6564206D6982
:10371000736D617463682E0A004669656C64206687
:1037200077726574726163745F73657474696E67D0
:1037300073206D69736D617463682E0A0046696554
:103740006C64207265636F766572795F656E616225
:103750006C6564206D69736D617463682E0A004640
:1037600069656C6420636F6E74726F6C6C65724611
:10377000616E5F73657474696E6773206D69736DD4
:10378000617463682E0A004669656C64206C63642A
:103790005F636F6E7472617374206D69736D6174B1
:1037A00063682E0A004669656C6420706F776572E5
:1037B0005F6D6F6E69746F725F666C616773206DA9
:1037C00069736D617463682E0A004669656C6420D4
:1037D000626564504944206D69736D617463682E3D
:1037E0000A004669656C64206C70715F6C656E20C0
:1037F0006D69736D617463682E0A004669656C6457
:1038000020686F74656E64504944206D69736D6102
:103810007463682E0A004669656C642075695F6D83
:103820006174657269616C5F707265736574206D37
:1038300069736D617463682E0A004669656C642063
:10384000626C746F7563685F6C6173745F777269C3
:103850007474656E5F6D6F6465206D69736D6174FE
:1038600063682E0A004669656C6420736572766F22
:103870005F616E676C6573206D69736D61746368F9
:103880002E0A004669656C6420706C616E6E65720C
:103890005F6C6576656C696E675F61637469766598
:1038A000206D69736D617463682E0A004669656CEA
:1038B000642070726F62655F6F6666736574206DF9
:1038C00069736D617463682E0A004669656C6420D3
:1038D00072756E6F75745F73656E736F725F656E10
:1038E00061626C6564206D69736D617463682E0A32
:1038F000004669656C6420686F6D655F6F6666730E
:103900006574206D69736D617463682E0A00466981
:10391000656C6420657374657070657273206D6981
:10392000736D617463682E0A0020573A00496E7601
:10393000616C69642065787472756465720A000050
:1039400009121B242D363F48415A536C657E771966
:10395000100B023D342F265158434A757C676E3256
:103960003B2029161F040D7A7368615E574C452B66
:103970002239300F061D14636A7178474E555C6416
:103980006D767F4049525B2C253E3708011A137D26
:10399000746F6659504B42353C272E1118030A5656
:1039A0005F444D727B60691E170C053A3328214F26
:1039B000465D546B627970070E151C232A3138411D
:1039C00048535A656C777E09001B122D243F3658E8
:1039D000514A437C756E671019020B343D262F73D4
:1039E0007A6168575E454C3B3229201F160D046AE8
:1039F0006378714E475C55222B3039060F141D2514
:103A00002C373E0108131A6D647F7649405B523CA7
:103A1000352E2718110A03747D666F5059424B17D3
:103A20001E050C333A21285F564D447B7269600EA7
:103A3000071C152A233831464F545D626B70797C20
:103A40003C3E5E2B3D3F2F5B5D3B2C2A225C0048B9
:103A50006F6D696E67206765736368656974657209
:103A600074006F70656E0054524947474552454493
:103A7000003A200066696C616D656E74007A5F6D56
:103A80006178007A5F6D696E00795F6D696E0078AC
:103A90005F6D696E005265706F7274696E67206544
:103AA0006E6473746F70207374617475730A002090
:103AB000746F6F206C6F6E672065787472757369B0
:103AC0006F6E2070726576656E7465640A0020639F
:103AD0006F6C6420657874727573696F6E20707294
:103AE0006576656E7465640A00566F72686572204B
:103AF00025732573257320686F6D656E000000A027
:103B0000C000000000000000000000484200004823
:103B100042000020415761726E696E673A20486F1B
:103B20006D696E672042756D702044697669736FA8
:103B300072203C20310A000202040000A040000074
:103B4000A040000000400000544300005743000024
:103B50009443FFFFFF00000001000000010000800F
:103B600000555555000000400033333300AAAA2AFF
:103B7000004992240000002000C7711C0099991987
:103B800000D1451700555515003BB11300244912CB
:103B90000011111100000010000F0F0F00E3380E8C
:103BA0000043790D00CCCC0C00C3300C00E8A20B14
:103BB0000064210B00AAAA0A00703D0A009DD809E2
:103BC00000427B090092240900DCD30800888808A1
:103BD000001042080000000800F0C10700878707B6
:103BE0000075500700711C07003EEB0600A1BC06E3
:103BF000006990060066660600703E0600611806C1
:103C00000017F4050074D105005BB00500B2900503
:103C100000627205005555050078390500B81E058B
:103C200000050505004EEC040087D40400A1BD0486
:103C30000090A7040049920400C17D0400EE6904CD
:103C400000C7560400444404005C32040008210408
:103C50000041100400000004003FF00300F8E003FE
:103C60000026D20300C3C30300CCB503003AA80367
:103C7000000A9B0300388E0300C08103009F750378
:103C800000D0690300505E03001D53030034480355
:103C900000913D03003333030016290300381F034E
:103CA0000097150300300C0300030303000BFA0216
:103CB0000049F10200BAE802005CE002002DD802DF
:103CC000002DD0020059C80200B0C0020031B90274
:103CD00000DAB10200AAAA0200A0A30200BC9C0262
:103CE00000FA9502005C8F0200DF880200828202E7
:103CF00000457C02002776020027700200436A021A
:103D0000007C640200D05E02003F590200C85302EA
:103D1000004261627973746570205A00466C757355
:103D20007372617465004CC3BC6674657200426551
:103D300074740044C3BC7365004765736368772E71
:103D40000048617570746D656EC3BC005761726E1A
:103D5000696E673A20436C65616E20436972636CDB
:103D6000652072657175697265732058590A00572C
:103D700061726E696E673A20526164697573204F93
:103D80007574206F662052616E67650A0045455064
:103D9000524F4D206461746173697A652065727257
:103DA0006F722E0A00290A002062797465733B2025
:103DB00063726320002073746F726564207365748E
:103DC00074696E67732072657472696576656420C4
:103DD0002800202863616C63756C61746564292117
:103DE0000A0020213D2000454550524F4D204352AE
:103DF00043206D69736D61746368202D202873748E
:103E00006F7265642920002053697A653A20004961
:103E10006E6465783A20004669656C64206361735E
:103E2000656C696768745F6272696768746E6573F0
:103E300073206D69736D617463682E0A004669654D
:103E40006C64206261636B6C6173685F6469737436
:103E5000616E63655F6D6D206D69736D617463681C
:103E60002E0A004669656C642066635F736574742E
:103E7000696E6773206D69736D617463682E0A00E3
:103E80004669656C6420706C616E6E65725F736B01
:103E900065775F666163746F72206D69736D6174BD
:103EA00063682E0A004669656C6420636F6F7264F4
:103EB000696E6174655F73797374656D206D697384
:103EC0006D617463682E0A0044494749504F54534A
:103ED000204C6F616465640A0044494749504F545F
:103EE00053204C6F6164696E670A004669656C64B3
:103EF000206D6F746F725F63757272656E745F733D
:103F0000657474696E67206D69736D617463682E82
:103F10000A004669656C6420706C616E6E65725F44
:103F200065787472756465725F616476616E6365ED
:103F30005F4B206D69736D617463682E0A0046697A
:103F4000656C6420746D635F737465616C74685F25
:103F5000656E61626C6564206D69736D6174636820
:103F60002E0A004669656C6420746D635F73677424
:103F7000206D69736D617463682E0A004669656C13
:103F80006420746D635F6879627269645F746872DB
:103F90006573686F6C64206D69736D617463682EFE
:103FA0000A004669656C6420746D635F73746570A4
:103FB0007065725F63757272656E74206D69736D82
:103FC000617463682E0A004669656C6420706172D2
:103FD0007365725F766F6C756D65747269635F652A
:103FE0006E61626C6564206D69736D617463682EC7
:103FF0000A004669656C6420667772657472616355
:10400000745F73657474696E6773206D69736D6135
:104010007463682E0A004669656C64207265636F7C
:10402000766572795F656E61626C6564206D697337
:104030006D617463682E0A004669656C6420636F65
:104040006E74726F6C6C657246616E5F73657474CA
:10405000696E6773206D69736D617463682E0A0001
:104060004669656C64206C63645F636F6E74726133
:104070007374206D69736D617463682E0A004669FC
:10408000656C6420706F7765725F6D6F6E69746FB9
:10409000725F666C616773206D69736D61746368CC
:1040A0002E0A004669656C64206C70715F6C656EE9
:1040B000206D69736D617463682E0A004669656CD2
:1040C000642075695F6D6174657269616C5F70729F
:1040D00065736574206D69736D617463682E0A0081
:1040E0004669656C6420626C746F7563685F6C61AF
:1040F00073745F7772697474656E5F6D6F64652049
:104100006D69736D617463682E0A004669656C643D
:1041100020736572766F5F616E676C6573206D6981
:10412000736D617463682E0A004669656C64207063
:104130006C616E6E65725F6C6576656C696E675FEB
:10414000616374697665206D69736D617463682E4F
:104150000A004669656C642070726F62655F6F6605
:1041600066736574206D69736D617463682E0A00EF
:104170004669656C642072756E6F75745F73656EE9
:10418000736F725F656E61626C6564206D69736DDB
:10419000617463682E0A004669656C6420686F6DFF
:1041A000655F6F6666736574206D69736D617463B6
:1041B000682E0A004669656C6420657374657070CA
:1041C000657273206D69736D617463682E0A0020D7
:1041D0004D61726C696E3D563832290A0045455072
:1041E000524F4D2076657273696F6E206D69736DE5
:1041F000617463682028454550524F4D3D00454548
:1042000050524F4D20496E697469616C697A6564DA
:104210000A0048617264636F646564204465666186
:10422000756C742053657474696E6773204C6F618C
:104230006465640A00000096430000964300002075
:10424000410000C8411552A0423256A042B51FC7D6
:10425000430A57CC42DC050000DC05000064000086
:1042600000102700003B20003A0A0020204D363085
:1042700033200020204D34313220530046696C61D8
:104280006D656E742072756E6F75742073656E73D4
:104290006F723A002055004C0046696C616D656E86
:1042A00074206C6F61642F756E6C6F6164206C6537
:1042B0006E677468733A0020204D383531205800FD
:1042C0005A2D50726F6265204F66667365740020C8
:1042D000440020490020204D333034205000204439
:1042E0000020490020204D333031205000504944F7
:1042F0002073657474696E67733A0020460020422B
:104300000020480020204D3134352053004D617489
:10431000657269616C206865617475702070617286
:10432000616D65746572733A00204A00202047323F
:1043300039205720490020204D343230205300418D
:1043400075746F20426564204C6576656C696E6794
:104350003A0020204D323036205800486F6D6520DD
:104360006F66667365743A00204A0020530020206F
:104370004D323035204200416476616E6365643AA7
:1043800020423C6D696E5F7365676D656E745F7426
:10439000696D655F75733E20533C6D696E5F666540
:1043A0006564726174653E20543C6D696E5F747221
:1043B0006176656C5F66656564726174653E204A0E
:1043C0003C6A756E635F6465763E0020540020523F
:1043D0000020204D323034205000416363656C650D
:1043E000726174696F6E2028756E6974732F7332F1
:1043F000293A20503C7072696E745F616363656C2A
:104400003E20523C726574726163745F61636365E0
:104410006C3E20543C74726176656C5F61636365C9
:104420006C3E0020204D3230312058004D617869BB
:104430006D756D20416363656C65726174696F6E43
:104440002028756E6974732F7332293A0020450055
:10445000205A0020590020204D3230332058004D82
:104460006178696D756D20666565647261746573E8
:104470002028756E6974732F73293A005374657020
:10448000732070657220756E69743A0020440020B4
:10449000204D3230302053002044697361626C65D6
:1044A000640A0046696C616D656E7420736574748E
:1044B000696E67733A0020204D3134392043203B28
:1044C00020556E69747320696E2043656C7369753D
:1044D000730A0020286D6D290020204732312020EA
:1044E00020203B20556E69747320696E206D6D002D
:1044F000447275636B2070617573696572742E2EDA
:104500002E00496E736572742066696C616D656E0C
:104510007420616E642070726573732062757474A8
:104520006F6E0A00344D4158202D2076673372207B
:1045300062657265697400447275636B742E2E2E09
:1045400000220A00556E6B6E6F776E20636F6D6D83
:10455000616E643A202200DB0FC93F45BCDA3F8F11
:10456000B30240FCF0274056946140FE4B9B4084D0
:10457000A5D840E0231841346A5641E85997416470
:10458000DBD5416E271742B4B75542CE1A9742C8C1
:10459000AED542B5885A43D40684BFA65FA7BF7480
:1045A00043E0BF10B11AC01C2C58C0E8F697C0B841
:1045B00049D6C04E4E17C124D355C1802497C1A0FF
:1045C000B5D5C1121A17C244AE55C2781797C26C3E
:1045D000ACD5C267885AC320746F6F206C6F6E674A
:1045E00020657874727573696F6E20707265766578
:1045F0006E7465640A0020636F6C64206578747261
:104600007573696F6E2070726576656E7465640A85
:104610000001FFFFFFFFFFFFFFFFFFFFFFFFFF0F97
:10462000FFFFFFFFFFFFFFFFFFFFFFFFFF1E000079
:10463000000000000000000007FFFF38000000003D
:1046400000000000000003FFFF70000000000000F9
:104650000000000001FFFF600000000000000000FB
:10466000000000FFFF6000000000000000000000EC
:10467000007FFFC000000000000000007800003F45
:10468000FFC00FC0FC00000000007818001FFFC032
:104690003FE1FF0000000000783C000FFFC07FF307
:1046A000FF8000000000783C0007FFC0FFFFFFC054
:1046B00000000000783C0003FFC1F87F87E00000A5
:1046C000000078000001FFC1F03F03E0000000009F
:1046D00078000000FFC1E01E01E01F0003E0783C0D
:1046E00003F07FC1E01E01E07FC00FF8783C07FCBB
:1046F0003FC1E01E01E1FFE01FFC783C0FFE1FC13F
:10470000E01E01E3FFF03FFE783C1FFE0FC1E01EFC
:1047100001E3F3F83F3E783C3F3F07C1E01E01E76D
:10472000E0FC7C1F783C3E1F07C1E01E01E7C07C17
:104730007C0F783C3C0F03C1E01E01E7807C780FC2
:10474000783C3C0F03C1E01E01E7803C7800783CD8
:104750003C0F03C1E01E01E7803C7800783C3C0F31
:1047600003C1E01E01E7803C7800783C3C0F03C1A8
:10477000E01E01E7C03C7800783C3C0F03C1E01E1E
:1047800001E3E03C78007C3C3C0F03C1E01E01E308
:10479000FF3FF8007FBC3C0F03C1E01E01E1FF3F7B
:1047A000F8003FBFFC0F03C1E01E01E0FF3FF8002F
:1047B0001FBFFC0F03C1E01E01E07F3FF8000FBFE9
:1047C000FC0F03600000000000000000000000007B
:1047D00007600000000000000000000000000670FC
:1047E0000000000000000000000000000E38000083
:1047F000000000000000000000001C1E000000007F
:104800000000000000000000780FFFFFFFFFFFFF27
:10481000FFFFFFFFFFFFF001FFFFFFFFFFFFFFFFB5
:10482000FFFFFFFF8001FFFFFFFFFFFFFFFFFFFF15
:10483000FFFFFF0FFFFFFFFFFFFFFFFFFFFFFFFF78
:10484000FF1E0000000000000000000007FFFF380E
:104850000000000000000000000003FFFF700000E7
:10486000000000000000000001FFFF6000000000E9
:1048700000000000000000FFFF60000000000000DA
:1048800000000000007FFFC00000000000000000EA
:104890007800003FFFC00FC0FC0000000000781847
:1048A000001FFFC03FE1FF0000000000783C000F48
:1048B000FFC07FF3FF8000000000783C0007FFC0CE
:1048C000FFFFFFC000000000783C0003FFC1F87F3D
:1048D00087E00000000078000001FFC1F03F03E026
:1048E0000000000078000000FFC1E01E01E01F0092
:1048F00003E0783C00007FC1E01E01E07FC00FF8BC
:10490000783C00003FC1E01E01E1FFE01FFC783C65
:1049100000001FC1E01E01E3FFF03FFE783C0000F5
:104920000FC1E01E01E3F3F83F3E783C000007C1F1
:10493000E01E01E7E0FC7C1F783C000007C1E01EA0
:1049400001E7C07C7C0F783C000003C1E01E01E75A
:10495000807C780F783C000003C1E01E01E7803CBA
:104960007800783C000003C1E01E01E7803C78003D
:10497000783C000003C1E01E01E7803C7800783CF1
:10498000000003C1E01E01E7C03C7800783C000055
:1049900003C1E01E01E3E03C78007C3C000003C161
:1049A000E01E01E3FF3FF8007FBC000003C1E01EF2
:1049B00001E1FF3FF8003FBF000003C1E01E01E03E
:1049C000FF3FF8001FBF000003C1E01E01E07F3F72
:1049D000F8000FBF000003600000000000000000AE
:1049E0000000000007600000000000000000000060
:1049F0000000067000000000000000000000000041
:104A00000E380000000000000000000000001C1E26
:104A1000000000000000000000000000780FFFFF11
:104A2000FFFFFFFFFFFFFFFFFFFFF001FFFFFFFFA3
:104A3000FFFFFFFFFFFFFFFF8001FFFFFFFFFFFF03
:104A4000FFFFFFFFFFFFFF0FFFFFFFFFFFFFFFFF66
:104A5000FFFFFFFFFF1E000000000000000000003D
:104A600007FFFF380000000000000000000003FF07
:104A7000FF700000000000000000000001FFFF6068
:104A80000000000000000000000000FFFF600000C8
:104A90000000000000000000007FFFC000000000D8
:104AA000000000007800003FFFC00FC0FC000000C5
:104AB00000007800001FFFC03FE1FF000000000081
:104AC0007800000FFFC07FF3FF8000000000780037
:104AD0000007FFC0FFFFFFC00000000078000003D8
:104AE000FFC1F87F87E00000000078000001FFC1EF
:104AF000F03F03E00000000078000000FFC1E01E6E
:104B000001E01F0003E0780000007FC1E01E01E02B
:104B10007FC00FF8780000003FC1E01E01E1FFE018
:104B20001FFC780000001FC1E01E01E3FFF03FFE04
:104B3000780000000FC1E01E01E3F3F83F3E78006B
:104B4000000007C1E01E01E7E0FC7C1F78000000C8
:104B500007C1E01E01E7C07C7C0F7800000003C1A4
:104B6000E01E01E7807C780F7800000003C1E01EA2
:104B700001E7803C78007800000003C1E01E01E7F7
:104B8000803C78007800000003C1E01E01E7803C13
:104B900078007800000003C1E01E01E7C03C780007
:104BA0007800000003C1E01E01E3E03C78007C00D7
:104BB000000003C1E01E01E3FF3FF8007F0000009A
:104BC00003C1E01E01E1FF3FF8003F00000003C108
:104BD000E01E01E0FF3FF8001F00000003C1E01EDF
:104BE00001E07F3FF8000F000000036000000000BC
:104BF000000000000000000007600000000000004E
:104C0000000000000000067000000000000000002E
:104C1000000000000E38000000000000000000004E
:104C200000001C1E0000000000000000000000004A
:104C3000780FFFFFFFFFFFFFFFFFFFFFFFFFF00108
:104C4000FFFFFFFFFFFFFFFFFFFFFFFF8001FFFFF1
:104C5000FFFFFFFFFFFFFFFFFFFFFF0FFFFFFFFF54
:104C6000FFFFFFFFFFFFFFFFFF1E0000000000002F
:104C70000000000007FFFF380000000000000000F7
:104C8000000003FFFF7000000000000000000000B3
:104C900001FFFF600000000000000000000000FFB6
:104CA000FF6000000000000000000000007FFFC067
:104CB00000000000000000000000003FFFC00FC027
:104CC000FC00000000000000001FFFC03FE1FF00EB
:104CD000000000000000000FFFC07FF3FF80000015
:104CE000000000000007FFC0FFFFFFC00000000041
:104CF00000000003FFC1F87F87E000000000000013
:104D00000001FFC1F03F03E00000000000000000D0
:104D1000FFC1E01E01E01F0003E0000000007FC1B2
:104D2000E01E01E07FC00FF8000000003FC1E01E60
:104D300001E1FFE01FFC000000001FC1E01E01E3D5
:104D4000FFF03FFE000000000FC1E01E01E3F3F89A
:104D50003F3E0000000007C1E01E01E7E0FC7C1FB1
:104D60000000000007C1E01E01E7C07C7C0F0000CE
:104D7000000003C1E01E01E7807C780F0000000006
:104D800003C1E01E01E7803C78000000000003C181
:104D9000E01E01E7803C78000000000003C1E01E37
:104DA00001E7803C78000000000003C1E01E01E73D
:104DB000C03C78000000000003C1E01E01E3E03CBD
:104DC00078000000000003C1E01E01E3FF3FF8008F
:104DD0000000000003C1E01E01E1FF3FF8000000F9
:104DE000000003C1E01E01E0FF3FF80000000000EA
:104DF00003C1E01E01E07F3FF800000000000360F7
:104E0000000000000000000000000000076000003B
:104E1000000000000000000000000670000000001C
:104E200000000000000000000E380000000000003C
:104E30000000000000001C1E000000000000000038
:104E400000000000780FFFFFFFFFFFFFFFFFFFFFE5
:104E5000FFFFF001FFFFFFFFFFFFFFFFFFFFFFFF6F
:104E60008001FFFFFFFFFFFFFFFFFFFFFFFFFF0FBF
:104E7000FFFFFFFFFFFFFFFFFFFFFFFFFF1E000021
:104E8000000000000000000007FFFF3800000000E5
:104E900000000000000003FFFF70000000000000A1
:104EA0000000000001FFFF600000000000000000A3
:104EB000000000FFFF600000000000000000000094
:104EC000007FFFC000000000000000000000003F65
:104ED000FFC00FC0FC00000000000000001FFFC06A
:104EE0003FE1FF00000000000000000FFFC07FF363
:104EF000FF800000000000000007FFC0FFFFFFC0B0
:104F00000000000000000003FFC1F87F87E0000000
:104F1000000000000001FFC1F03F03E000000000BE
:104F200000000000FFC1E01E01E01F0000000000C3
:104F300000007FC1E01E01E07FC000000000000013
:104F40003FC1E01E01E1FFE00000000000001FC1C2
:104F5000E01E01E3FFF00000000000000FC1E01EB2
:104F600001E3F3F800000000000007C1E01E01E7C4
:104F7000E0FC00000000000007C1E01E01E7C07C6B
:104F800000000000000003C1E01E01E7807C00007B
:104F90000000000003C1E01E01E7803C00000000AB
:104FA000000003C1E01E01E7803C0000000000009B
:104FB00003C1E01E01E7803C00000000000003C1C7
:104FC000E01E01E7C03C00000000000003C1E01E3D
:104FD00001E3E03C00000000000003C1E01E01E32B
:104FE000FF3F00000000000003C1E01E01E1FF3FA1
:104FF00000000000000003C1E01E01E0FF3F0000D0
:105000000000000003C1E01E01E07F3F000000003F
:10501000000003600000000000000000000000002D
:1050200007600000000000000000000000000670A3
:105030000000000000000000000000000E3800002A
:10504000000000000000000000001C1E0000000026
:105050000000000000000000780FFFFFFFFFFFFFCF
:10506000FFFFFFFFFFFFF001FFFFFFFFFFFFFFFF5D
:10507000FFFFFFFF8001FFFFFFFFFFFFFFFFFFFFBD
:10508000FFFFFF0FFFFFFFFFFFFFFFFFFFFFFFFF20
:10509000FF1E0000000000000000000007FFFF38B6
:1050A0000000000000000000000003FFFF7000008F
:1050B000000000000000000001FFFF600000000091
:1050C00000000000000000FFFF6000000000000082
:1050D00000000000007FFFC0000000000000000092
:1050E0000000003FFFC00FC0FC00000000000000F7
:1050F000001FFFC03FE1FF00000000000000000FA4
:10510000FFC07FF3FF800000000000000007FFC029
:10511000FFFFFFC00000000000000003FFC1F87F98
:1051200087E00000000000000001FFC1F03F03E045
:105130000000000000000000FFC1E01E01E00000D0
:105140000000000000007FC1E01E01E00000000040
:10515000000000003FC1E01E01E000000000000070
:1051600000001FC1E01E01E0000000000000000080
:105170000FC1E01E01E0000000000000000007C1B8
:10518000E01E01E0000000000000000007C1E01E7A
:1051900001E0000000000000000003C1E01E01E08B
:1051A000000000000000000003C1E01E01E000005C
:1051B00000000000000003C1E01E01E0000000004C
:1051C0000000000003C1E01E01E00000000000003C
:1051D000000003C1E01E01E000000000000000002C
:1051E00003C1E01E01E0000000000000000003C158
:1051F000E01E01E0000000000000000003C1E01E0E
:1052000001E0000000000000000003C1E01E01E01A
:10521000000000000000000003C1E01E01E00000EB
:10522000000000000000036000000000000000001B
:105230000000000007600000000000000000000007
:1052400000000670000000000000000000000000E8
:105250000E380000000000000000000000001C1ECE
:10526000000000000000000000000000780FFFFFB9
:10527000FFFFFFFFFFFFFFFFFFFFF001FFFFFFFF4B
:10528000FFFFFFFFFFFFFFFF8001FFFFFFFFFFFFAB
:10529000FFFFFFFFFFFFFF0FFFFFFFFFFFFFFFFF0E
:1052A000FFFFFFFFFF1E00000000000000000000E5
:1052B00007FFFF380000000000000000000003FFAF
:1052C000FF700000000000000000000001FFFF6010
:1052D0000000000000000000000000FFFF60000070
:1052E0000000000000000000007FFFC00000000080
:1052F000000000000000003FFFC0000000000000B0
:1053000000000000001FFFC00000000000000000BF
:105310000000000FFFC000000000000000000000BF
:105320000007FFC0000000000000000000000003B4
:10533000FFC0000000000000000000000001FFC0EE
:10534000000000000000000000000000FFC000009E
:10535000000000000000000000007FC0000000000E
:1053600000000000000000003FC00000000000003E
:105370000000000000001FC000000000000000004E
:10538000000000000FC0000000000000000000004E
:10539000000007C000000000000000000000000046
:1053A00007C000000000000000000000000003C073
:1053B00000000000000000000000000003C000002A
:1053C0000000000000000000000003C0000000001A
:1053D000000000000000000003C00000000000000A
:1053E00000000000000003C00000000000000000FA
:1053F0000000000003C000000000000000000000EA
:10540000000003C0000000000000000000000000D9
:1054100003C000000000000000000000000003C006
:1054200000000000000000000000000003C00000B9
:105430000000000000000000000003600000000009
:1054400000000000000000000760000000000000F5
:1054500000000000000006700000000000000000D6
:10546000000000000E3800000000000000000000F6
:1054700000001C1E000000000000000000000000F2
:10548000780FFFFFFFFFFFFFFFFFFFFFFFFFF001B0
:10549000FFFFFFFFFFFFFFFFFFFFFFFF8002000096
:1054A00000000000000000000000000000000000FC
:1054B00000000000000000000000000000000004E8
:1054C0007F03E00001F8000F00007F8003F0000C74
:1054D0007F03F00003F8001F80007FC007F0000C7E
:1054E0007F03F80007F8003F80007FC00FF0001C2A
:1054F0007F03FC000FF8003FC0003FE01FF0001CDE
:105500007F03FE001FF8003FC0001FF03FF0003C8B
:105510007F01FF003FF8001FE0000FF87FF0003C24
:105520007F00FF807FF8000FE00007F87FE0007C3D
:105530007F007FC0FFF8000FF00007FC3FC0007C39
:105540007F003FE1FFF80007F80003FE1F8000FC2A
:105550007F001FFFFFF80187F80001FF0F0000FC2C
:105560007F030FFFFFF801C3FC0000FF860001FC72
:105570007F0387FFF3F803E3FC00007F800001FC5A
:105580007F03C3FFE3F803E1FE00007FC00003FCDC
:105590007F03E1FFC3F807F1FE00003FE00003FCDA
:1055A0007FE3F0FF83F807F0FF00001FF00007FC27
:1055B0007FE3F87F03F80FF07F00000FF00007FC97
:1055C0007FE3F81E03F80FE07F80000FF8000FFC68
:1055D0007FE3F80003F81FE3FF800387FC000FFC64
:1055E0007FE3F80003F81FC3FFC007C3FE001FFCE2
:1055F0007FE3F80003F83FC7FFC00FE1FE000000A3
:105600007F03F80003F83F87FFE01FF1FF00000071
:105610007F03F80003F87F8FFFE03FF0FF8000007A
:105620007F03F80003F87F0FFFF07FF07FC00000DA
:105630007F03F80003F8FF0007F0FFE03FC0000021
:105640007F03F80003F8FE0007F8FFC03FE000000A
:105650007F03F80003F9FE0003F8FF801FF000004D
:105660007F03F80003F9FC0003FCFF000FF00000CB
:105670007F03F80003FBFC0001FCFE000FF00000BC
:10568000000000000000000000000000000000001A
:10569000000000000000000000000000000068742E
:1056A0007470733A2F2F6769742E696F2F666A586A
:1056B0007A7200344D415820322E312E3030303342
:1056C000424554410089527550614E4D4C394A252E
:1056D00048114670012C0190012701B0012201C040
:1056E000011D01F00118011002130130020E0160CA
:1056F00002090190020401C002FF000003FA004009
:1057000003F5008003F000D003EB002004E60070F6
:1057100004E100E004DC004005D700C005D20040F1
:1057200006CD00D006C8008007C3003008BE00F0D8
:1057300008B900C009B400B00AAF00B00BAA00D08D
:105740000CA500000EA000500F9B00C0109600504A
:1057500012910000148C00C0158700B0178200B0B1
:10576000197D00D01B7800001E730040206E009051
:10577000226900F024640040275F0090295A00E06D
:105780002B5500102E500020304B0010324600E008
:1057900033410090353C001037370070383200A09C
:1057A000392D00B03A2800A03B2300603C1E0010B9
:1057B0003D1900903D1400103E0F00703E0A00C0DD
:1057C0003E0500003F0000403FFBFF803FF6FFC06A
:1057D0003FF1FF2020506C616E6E65724275666607
:1057E000657242797465733A2000204672656520BF
:1057F0004D656D6F72793A2000436F6D70696C650D
:10580000643A204E6F7620203820323032300A0041
:10581000204C61737420557064617465643A203261
:105820003032302D31312D3038207C204175746874
:105830006F723A202847336D316E315333727633AD
:10584000722C20416E79637562696320344D415832
:10585000290A00344D415820322E312E3030303359
:10586000424554410A004D61726C696E0020536FCD
:105870006674776172652052657365740A002057FB
:1058800061746368646F672052657365740A0020F1
:1058900042726F776E206F75742052657365740A5B
:1058A000002045787465726E616C20526573657472
:1058B0000A00506F77657255700A007374617274D4
:1058C0000A006175746F25632E6700473238585996
:1058D000004D31303031006572726F72207772691D
:1058E00074696E6720746F2066696C650A00446F86
:1058F0006E6520736176696E672066696C652E0A35
:10590000004D323900456E6473746F70700025531A
:1059100020256320256320256320256300205A3A33
:105920000020593A0020583A00656E6473746F7015
:1059300073206869743A200046494C414D454E54E5
:1059400020454E544C4144454E0046494C414D453E
:105950004E54204C4144454E0046494C414D454E25
:1059600054205745434853454C00426574740044E5
:10597000C3BC7365004CC3BC66746572004B6F6E2C
:1059800066696775726174696F6E005374616E64E5
:105990006172647765727465206C6164656E004B3A
:1059A0006F6E6669672E206C6164656E004B6F6E6A
:1059B0006669672E2073706569636865726E00247E
:1059C0002045696E7374656C6C756E67656E0061F9
:1059D000757300616E0052756E6F75742D53656E30
:1059E000736F7200424C546F756368004C69636852
:1059F000742D537465756572756E67004CC3BC6613
:105A0000746572204B6F6E74726F6C6C65720053AC
:105A10006F6E64656E7665727361747A205A0045A4
:105A200072772E2045696E7374656C6C756E676550
:105A30006E0048617570746D656EC3BC004D373083
:105A40003220542564004D36303020423020542519
:105A500064004D373032203B2564004D3730312013
:105A6000542564004D373032004D373031004D360B
:105A700030302042300048617570746D656EC3BC73
:105A800000447275636B2077656974657200617597
:105A90007300616E0052756E6F75742D53656E7371
:105AA0006F72004D65687220656E746C6164656E1E
:105AB00000464F5254532E204F5054494F4E454E9E
:105AC0003A00445255434B20504155534945525496
:105AD00000202044C3BC73653A200024F4D4305025
