:100000000C94732D0C94A42D0C94A42D0C94A42D5D
:100010000C94A42D0C94A42D0C94A42D0C94A42D1C
:100020000C94A42D0C94A42D0C94A42D0C94A42D0C
:100030000C94A42D0C945E8A0C94A42D0C94A42DE5
:100040000C94A42D0D941D300C94A42D0C94A42D6F
:100050000C94A42D0C94A42D0C940DAB0D94593438
:100060000C94A42D0C94684D0C945E4D0C94A42D0E
:100070000C94A42D0C94A42D0C94A42D0C94A42DBC
:100080000C94F6450C94A42D0C94A42D0C94A42D42
:100090000C94A42D0C94A42D0C94A42D0C94A42D9C
:1000A0000C94A42D0C94A42D0C94C8450C94A42D50
:1000B0000C94A42D0C94A42D0C94A42D0C94A42D7C
:1000C0000C94A42D0C94A42D0C94A42D0C94A42D6C
:1000D0000C94A42D0C94A42D0C94A42D0C94A42D5C
:1000E0000C94A42DE9D5CCD5CFD5ECD5D2D5D5D58A
:1000F000D8D5E4D5DBD5F7D5DED5E1D527DF49DF87
:1001000069DF8EDFB3DF6AE1D8DFFBDF1EE043E0AB
:1001100068E08DE0B2E0D7E06AE1FCE021E146E191
:10012000D9E2DCE2E0E2E3E2E6E210E3EAE2EDE279
:10013000F1E2F4E2F7E2FBE2FEE201E310E305E3C1
:1001400008E30BE3D6010C02C602A601D20180012E
:10015000220292019C022602F8019A0146029A02AA
:100160008001B0012A01C802F401C40222010A027E
:100170005C01BC02DC022E02A401B202D00120010B
:10018000CA01C001BC028E012C0202021202EA0264
:10019000300274023002300230023002300230028B
:1001A00030023002300230023002300230023002BF
:1001B00030023002300230023002300230023002AF
:1001C000300230023002300262023002300230026D
:1001D000300230023002300230022C013002300294
:1001E000300230023002300230023002300230027F
:1001F000E0012401084AD73B3BCE016E84BCBFFD21
:10020000C12F3D6C74319ABD56833DDA3D00C77FE6
:1002100011BED9E4BB4C3E916BAAAABE000000807F
:100220003F05A84CCDB2D44EB93836A9020C50B90E
:10023000918688083CA6AAAA2ABE000000803F003A
:100240000D943D110D94F1100D94C61C0C94B04DFD
:100250000C94C5A80D94420E0D94301E0C94759B01
:100260000C948E770C94FEE20C941EE00C9406A87D
:100270000C94E5CF0C94A0D50C940BE30C945DE9A1
:100280000C9453CF0C94F7A70C9427DF0C94C7A7BA
:100290000C94D8DF0C9449DF0C949B9E0C94AF4DCA
:1002A0000C94E3620C94D1D30C94C6A30C94B2E0EA
:1002B0000C9443E00C9485D30D9405110C94FBDF52
:1002C0000C94CCAA0C9471A20C94CC620C94EDE228
:1002D0000C947DD30C9475D30C943ACF0C946C9DF4
:1002E0000C94FCE00C94E59D0C9471D30C948EDF7F
:1002F0000C94F4E20D943D0A0D94201C0C94B3DF91
:100300000D944B0E0D9452070C9412A80C94CBD361
:100310000C94587E0C9468E00C9410E30D946011DA
:100320000C9478650D941C0E0C94D2D50C94F5A801
:100330000C9421E10D94300E0C94E3A80C9415A4B8
:100340000C947B9B0D941A1C0D941F110D94070E99
:100350000C943DE70C94F8A30C947ED00C94CCD56F
:100360000D943E0E0C9459E90C94DED50C94289E05
:100370000D94B03D0C941B790C94EF780C94E8A785
:100380000D9456110D943B070C9405E30C94A39E19
:100390000C94BDAA0D944C110C943D4E0C9463E941
:1003A0000D9433110D940D0E0C94EFA80D94110EB5
:1003B0000C94E9D50C9455E90D94BE090C945BE9B5
:1003C0000D94741E0C94F1E20C9491D30C9469DF9B
:1003D0000C94DBD50C94DA890C94D9E20C94E9A83E
:1003E0000C94F7D50C9457D10D94E7100C948B7D99
:1003F0000D942A0E0D94080A0C94E2A50C94B8D31F
:100400000C94D7E00D9474110C949AD30C94257924
:100410000C94AAA80D94FB100D94140E0C9461E991
:100420000C94E0E20D94211E0C94CBA80C94629DD8
:100430000C943FA70C9419A30C94A6D30C945EA71C
:100440000C9416790D94180E0C9401E30D94260E5D
:100450000C94B34D0C94A1A80D946A110D9417112E
:100460000D94C91C0C9410790C94068A0C9459A311
:100470000C94F7E20C9487A30D941D1C0C949C7AA9
:100480000C94CFD50C94639B0C94EAE20D94340E3B
:100490000C94D5AA0C942A670C949AA30D94963DBB
:1004A0000C9427E60C9421CF0C94DCE20C94877911
:1004B0000C94DDD30C94AC890C94699B0C94DB4DAB
:1004C0000C940ECF0D94571E0C945FE90D945607B3
:1004D0000C946DD30C9497D30C948E790C94ACD56A
:1004E0000C946AE10C9440A30D945D1E0C9481D38E
:1004F0000C948DE00C9408E30C9452A80D944A07D8
:100500000C94469B0C94D7A80C94DDA80C94DFA304
:100510000C94FBE20C9457E90C94679D0C9446E113
:100520000C94B5620C9474A30C94E4D50C9427A39A
:100530000C94127C0D94380E0D94220E0C9434E918
:100540000C9489D30C94D1A80C94E79D0C94365B41
:100550000C9453E90C9420790C94D8D50C94E6E2D1
:100560000C948DD30D9429110C94B9A80C94D5D565
:100570000C940BA00C9479D30D947E110C9494D30D
:100580000C94BFA80C94EB780D94EC100D94030E12
:100590000D94460E0C9411A40C9461A80C9469D38C
:1005A0000C94816A0C94D7D30C946B770C94B3A3FE
:1005B0000C94479E0C94ECD50D940F110C94E47898
:1005C0000C9425A70D944E070C9482890C94ED7819
:1005D0000C94E3E20D94901C0C946F9B0C94E1D569
:1005E0000C945D9D4E414E494E495459494E46CD5D
:1005F000CCCC3D0AD7233C17B7D13877CC2B3295DA
:1006000095E6241FB14F0A000020410000C84200B7
:10061000401C4620BCBE4CCA1B0E5AAEC59D740081
:10062000407A10F35A00A0724E18090010A5D4E8C1
:100630000000E87648170000E40B54020000CA9A54
:100640003B000000E1F505000080969800000040A6
:10065000420F000000A086010000001027000000EB
:1006600000E803000000006400000000000A000031
:100670000000000100000000002C76D888DC674FE5
:100680000823DFC1DFAE59E1B1B796E5E3E453C615
:100690003AE651997696E8E6C28426EB898C9B620D
:1006A000ED407C6FFCEFBC9C9F40F2BAA56FA5F4B7
:1006B00090055A2AF75C936B6CF9676DC11BFCE0DF
:1006C000E40D47FEF520E6B500D0ED902E03009432
:1006D0003577050080841E080000204E0A000000C7
:1006E000C80C333333330F986E12831141EF8D21D1
:1006F00014893BE65516CFFEE6DB18D1844B381B38
:10070000F77C1D901DA4BBE424203284725E2281FC
:1007100000C9F124ECA1E53D27434F4D4D554E490D
:10072000434154494F4E0044525952554E00455290
:10073000524F525300494E464F004543484F002008
:10074000746F6F206C6F6E67206578747275736953
:100750006F6E2070726576656E7465640A00206342
:100760006F6C6420657874727573696F6E20707237
:100770006576656E7465640A00536C6565702E2E2F
:100780002E005A2050726F626520506173742042AF
:1007900065640A005A2050726F626520506173745C
:1007A0002042656400436C69636B20746F2052655E
:1007B00073756D652E2E2E004E6F204D6F76652E53
:1007C00000456E642066696C65206C6973740A006C
:1007D000426567696E2066696C65206C6973740A8E
:1007E000004E6F206D656469610A00286E6F206697
:1007F000696C65290043757272656E742066696C58
:10080000653A20005344207072696E74696E6720E7
:100810006279746520004E6F7420534420707269B1
:100820006E74696E670A002E0A0044656C6574690F
:100830006F6E206661696C65642C2046696C653A50
:10084000200046696C652064656C657465643A00D7
:1008500043616E6E6F74206F70656E207375626495
:10086000697220002569730025696D202569730070
:100870002569682025696D20256973002569642034
:100880002569682025696D2025697300256979200F
:10089000256964202569682025696D202569730014
:1008A0005072696E742074696D653A2000436F6FF1
:1008B0006C696E672E2E2E0048656174696E672E16
:1008C0002E2E0045202553006F6B006F6666003AA0
:1008D0000735072E072707190744454255473A00B1
:1008E0004D3131322053687574646F776E004D312D
:1008F0003133205300416E79637562696320344D52
:100900004158204F46462E004348414D4245525FD4
:1009100054454D504552415455524500424142596B
:100920005354455050494E470041524353004D4F98
:1009300054494F4E5F4D4F44455300544845524D26
:10094000414C5F50524F54454354494F4E004C4F19
:100950004E475F46494C454E414D45004155544F29
:100960005245504F52545F53445F53544154555372
:10097000005344434152440050524F4D50545F5332
:100980005550504F525400454D455247454E4359DE
:100990005F50415253455200434153455F4C4947D4
:1009A00048545F4252494748544E45535300544FB0
:1009B00047474C455F4C494748545300534F4654B2
:1009C000574152455F504F574552004255494C449C
:1009D0005F50455243454E54004C4556454C494E98
:1009E000475F44415441005A5F50524F42450052C4
:1009F000554E4F5554004155544F4C4556454C00AB
:100A00005052494E545F4A4F420050524F47524550
:100A10005353004155544F5245504F52545F544523
:100A20004D5000564F4C554D455452494300454595
:100A300050524F4D0042494E4152595F46494C4534
:100A40005F5452414E534645520053455249414C22
:100A50005F584F4E5F584F4646004649524D5741EA
:100A600052455F4E414D453A4D61726C696E20347E
:100A70004D415820322E312E3030303342455441D2
:100A800020284E6F76202038203230323020313905
:100A90003A31313A30362920534F555243455F435E
:100AA0004F44455F55524C3A68747470733A2F2F17
:100AB0006769746875622E636F6D2F47656D696E27
:100AC000695365727665722F4D61726C696E205044
:100AD000524F544F434F4C5F56455253494F4E3A35
:100AE000312E30204D414348494E455F54595045C1
:100AF0003A416E79637562696320344D41582045EF
:100B0000585452554445525F434F554E543A312044
:100B1000555549443A36616131343764322D666641
:100B200064352D313165392D386437312D33363206
:100B30006239653135353636370A002F2F20004DA2
:100B400031343520533C696E6465783E206F75748E
:100B5000206F662072616E67652028302D31290A6A
:100B600000205200416363656C65726174696F6E49
:100B70003A2050003F4A206F7574206F66207261E2
:100B80006E67652028302E303120746F20302E3370
:100B9000290A004D32303620580046523A0020468D
:100BA0006C6F773A200020643A0020693A00207088
:100BB0003A00496E76616C69642065787472756478
:100BC00065720A0064697300656E0043290A00615A
:100BD000626C656420286D696E2074656D702000FC
:100BE000436F6C64206578747275646573206172FC
:100BF0006520004F4646004F4E0046696C616D65AA
:100C00006E742072756E6F757420004F6666736522
:100C10007473204170706C696564004572723A208B
:100C2000546F6F206661722100546F6F206661728D
:100C30002066726F6D207265666572656E636520F1
:100C4000706F696E740A00454550524F4D204F4BEE
:100C50000A004D383400446F6E65207072696E74FE
:100C6000696E672066696C650A004D3737004D3341
:100C70003100496E76616C696420657874727564C0
:100C800065720A004572726F722077726974696EBC
:100C90006720746F20454550524F4D210A0036376A
:100CA00026033C3D380E2E303E121A1C180A2C43E7
:100CB00009072C07084400014D343130004D313113
:100CC00032004D3130380053544F505045442E209F
:100CD000005072696E7465722073746F7070656411
:100CE0002064756520746F206572726F72732E2098
:100CF00046697820746865206572726F7220616E33
:100D00006420757365204D39393920746F20726500
:100D100073746172742E202854656D7065726174ED
:100D20007572652069732072657365742E20536532
:100D300074206974206166746572207265737461D1
:100D40007274696E67290A004E6F20436865636B91
:100D500073756D2077697468206C696E65206E7597
:100D60006D6265722C204C617374204C696E653A1B
:100D700020004E6F20436865636B73756D20776943
:100D80007468206C696E65206E756D6265722C20CA
:100D90004C617374204C696E653A2000636865632A
:100DA0006B73756D206D69736D617463682C204C75
:100DB000617374204C696E653A20004C696E652041
:100DC0004E756D626572206973206E6F74204C6180
:100DD0007374204C696E65204E756D6265722B319F
:100DE0002C204C617374204C696E653A20004D31A3
:100DF00031300053442072656164206572726F72F5
:100E00000A002121204B494C4C20636175736564B5
:100E100020627920746F6F206D75636820696E6140
:100E200063746976652074696D65202D2063757221
:100E300072656E7420636F6D6D616E643A2000623E
:100E40007573793A2070617573656420666F7220DE
:100E5000696E7075740A00627573793A20706175F5
:100E600073656420666F7220757365720A0062751F
:100E700073793A2070726F63657373696E670A00E5
:100E80004D656469612052656D6F766564004D65DE
:100E900064696120496E736572746564004D363013
:100EA000300020573A0042656420436F6F6C696ED2
:100EB000672E2E2E004265642048656174696E6756
:100EC0002E2E2E0023646566696E652044454641DA
:100ED000554C545F004B6420004B6920004B702040
:100EE00000504944204175746F74756E65206669C1
:100EF0006E6973686564212050757420746865207C
:100F00006C617374204B702C204B6920616E6420DF
:100F10004B6420636F6E7374616E74732066726FBE
:100F20006D2062656C6F7720696E746F20436F6E01
:100F300066696775726174696F6E2E680A00504940
:100F400044204175746F74756E65206661696C65C7
:100F500064212074696D656F75740A0050494420DE
:100F60004175746F74756E65206661696C65642186
:100F70002054656D706572617475726520746F6F51
:100F800020686967680A00204B643A2000204B699A
:100F90003A2000204B703A20000A20436C617373A2
:100FA000696320504944200A002054753A200020EB
:100FB0004B753A2000206D61783A2000206D696EF3
:100FC0003A200020643A200020626961733A2000D0
:100FD000504944204175746F74756E652073746157
:100FE00072740A00504944204175746F74756E65BF
:100FF000206661696C6564212054656D706572615D
:101000007475726520746F6F20686967680A005094
:101010004944204175746F74756E650050494420D1
:101020004175746F74756E65206661696C656421C5
:1010300020426164206578747275646572206E75F3
:101040006D6265720A004572723A207574663820C6
:10105000666F6E74206E6F7420696E697469616C5E
:10106000697A65642E004572723A2075746638207C
:10107000666F6E74206E6F7420696E697469616C3E
:10108000697A65642E004572723A2075746638205C
:10109000666F6E74206E6F7420696E697469616C1E
:1010A000697A65642E00000C0F00FE07022503BB61
:1010B000017FFE08FE08FE05080806000040F0C893
:1010C0008888987810050808060000C0F888888885
:1010D0008888F80505050600012030F8302005084D
:1010E000080600002070F820202020E005090906ED
:1010F00000FF2070A8A8B8888870200705050700A1
:1011000001D86C366CD80509090600FFF8A8888854
:10111000888888A8F8050A0A0600FE20505050501A
:1011200088A8A8887003030306000340A040FFFFBF
:10113000FFFFFFFFFFFFFFFFFFFFFFFFFFFFFFFFBF
:10114000FFFFFFFF0000000605FF01070706020082
:1011500080808080800080030303060105A0A0A09A
:1011600005060606000050F85050F850050909061B
:1011700000FF2070A8A07028A870200507070600AF
:1011800000C8C8102040989805070706000040A036
:10119000A040A8906801030306020580808003092F
:1011A000090601FF2040408080804040200309095B
:1011B0000601FF80404020202040408005070706B0
:1011C000000020A8702070A8200505050600012059
:1011D00020F820200203030601FFC0408005010122
:1011E000060003F8020202060100C0C00507070658
:1011F000000008101020404080050707060000701E
:101200008898A8C8887003070706010040C04040BE
:101210004040E0050707060000708808102040F8ED
:10122000050707060000F808103008887005070752
:1012300006000010305090F8101005070706000057
:10124000F880F00808887005070706000030408025
:10125000F0888870050707060000F80810102020A5
:1012600020050707060000708888708888700507C9
:1012700007060000708888780810600205050601DE
:1012800000C0C000C0C00206060601FFC0C000C00A
:10129000408003050506010120408040200503032E
:1012A000060002F800F80305050601018040204011
:1012B0008005070706000070881020200020050721
:1012C000070600007088B8A8B880700507070600F8
:1012D00000708888F8888888050707060000F048AD
:1012E00048704848F0050707060000708880808035
:1012F0008870050707060000F04848484848F00590
:101300000707060000F88080F08080F805070706D0
:101310000000F88080F080808005070706000070DC
:10132000888080988870050707060000888888F8FC
:10133000888888030707060100E04040404040E0FD
:101340000507070600003810101010906005070709
:101350000600008890A0C0A090880507070600003E
:10136000808080808080F805070706000088D8A864
:10137000888888880507070600008888C8A8988894
:101380008805070706000070888888888870050728
:1013900007060000F08888F08080800507070600B7
:1013A0000070888888A89068050707060000F08804
:1013B00088F0A090880507070600007088807008F4
:1013C0008870050707060000F8202020202020054F
:1013D0000707060000888888888888700507070640
:1013E000000088888888505020050707060000887C
:1013F000888888A8A850050707060000888850201C
:101400005088880507070600008888502020202083
:10141000050707060000F80810204080F8030909B6
:101420000601FFE080808080808080E0050707065D
:101430000000804040201010080309090601FFE069
:1014400020202020202020E0050303060005205056
:10145000880501010600FEF803030306010580402C
:10146000200505050600007008788878050707063E
:1014700000008080F0888888F0050505060000706F
:10148000808088700507070600000808788888882B
:10149000780505050600007088F0807005070706CE
:1014A0000000304840E04040400507070600FE705D
:1014B0008888887808700507070600008080F08813
:1014C0008888880307070601004000C0404040E0CC
:1014D0000409090601FE100030101010109060057C
:1014E000070706000080808890E0908803070706C1
:1014F0000100C04040404040E0050505060000D026
:10150000A8A8A8A8050505060000B0C88888880511
:10151000050506000070888888700507070600FE2C
:10152000F0888888F080800507070600FE788888A4
:1015300088780808050505060000B0C88080800589
:10154000050506000078807008F005070706000012
:101550002020F8202020180505050600008888882E
:10156000986805050506000088888850200505054F
:101570000600008888A8A8500505050600008850C8
:101580002050880507070600FE8888885020408084
:10159000050505060000F8102040F80309090601BA
:1015A000FF2040404080404040200109090602FFE2
:1015B0008080808080808080800309090601FF8010
:1015C000404040204040408005030306000248A8F8
:1015D00090FF42656400456E636C6F7375726500C1
:1015E0002568753A25303268750025303268753ABD
:1015F000253032687500256875642025303268759D
:101600003A2530326875001FE03FF03FF03FF01F91
:10161000E01FE03FF03FF03FF00FC0078003001FE6
:10162000E02010201020101020102020102010305A
:10163000300840048003003FFFF83E00F839F038DE
:1016400031E01831E01821E1E820F3E8207FE820BC
:1016500077E828EE282FDC082FFC082F9E082F0F94
:1016600008300F18300F18381F383E00F83FFFF8C9
:101670003FFFF83E00F8383F38307E18307C18289D
:101680007C082C38082F39C82FFFE82FC7E82FFF18
:10169000E82739E8203868207C28307C1830FC188E
:1016A00039F8383E00F83FFFF83FFFF83E00F838C1
:1016B0000F38341FD8361F982F1F082F9E082FFC75
:1016C000082FDC0827EFC82077E8207FE820F3E820
:1016D00021F1E833F0D837F05839E0383E00F83FD0
:1016E000FFF83FFFF83E80F83980383781D837C39C
:1016F000D827C7E823C7F821FF88206C08206C088A
:10170000206C0823FF083FC7882FC7C83787D83702
:1017100003D83803383E02F83FFFF81FFFF81FFFD9
:10172000F80410400208200208200410400820801D
:101730001041001041000820800410400000001FEC
:10174000FFF81FFFF82100140706003372D1C0898B
:10175000003F0B152109002D3A15220900214A15D9
:10176000240900213A1527A600000000000000FF10
:10177000FFFFFFFFC00000000000000B1870E1C376
:10178000801B0CF0E0E7003B27F07076003B33F164
:101790003030007B3333B818007BB033B80C007B9B
:1017A000B0373C6E000330377CE7000330360DC3A2
:1017B00080000000000000FFFFFFFFFFC0000000EE
:1017C00000000007000008400009649D2F0E000F74
:1017D00054A12950000954A12950000957BDEF5EBA
:1017E00000000080000000000780000000000000F2
:1017F0000000000000000000004C6F6164206D6D6F
:1018000000556E6C6F6164206D6D0046696C2E2012
:101810004469612E004520696E206D6DC2B3004D94
:101820003330332055312045256920532569005038
:101830004944204175746F74756E65202A005049C3
:10184000442D44202A005049442D49202A00504963
:10185000442D50202A00200820466163740020088F
:10186000204D6178002008204D696E004F666600AB
:101870004F6E004175746F74656D700056547261DF
:1018800076204D696E00566D696E00566D61782048
:101890004500566D6178205A00566D6178205900D8
:1018A000566D6178205800FFFDFCFAF8F6F4F2F06E
:1018B000EEECEAE9E7E5E3E1E0DEDCDAD9D7D5D41E
:1018C000D2D0CFCDCBCAC8C7C5C3C2C0BFBDBCBABA
:1018D000B9B7B6B4B3B2B0AFADACAAA9A8A6A5A427
:1018E000A2A1A09E9D9C9A99989795949392908F6F
:1018F0008E8D8B8A8988878684838281807F7E7D96
:101900007B7A797877767574737271706F6E6D6C9F
:101910006B6A696867666564636261605F5E5D5C8F
:101920005B5A5958585756555453525150504F4E70
:101930004D4C4B4A4A49484746464544434242413A
:10194000403F3E3E3D3C3B3B3A39383837363535F3
:10195000343332323130302F2E2E2D2C2B2B2A299E
:101960002928272726252524232322212120201F3B
:101970001E1E1D1C1C1B1B1A1919181817161615CC
:101980001514131312121111100F0F0E0E0D0D0C52
:101990000C0B0A0A090908080707060605050404CE
:1019A0000303020201000000005A4300005A4300F2
:1019B0000096430000A0C00000000000000000539B
:1019C000657474696E67732053746F72656400295F
:1019D0000A002062797465733B20637263200053B0
:1019E000657474696E67732053746F726564202820
:1019F000004669656C64206261636B6C6173685F4B
:101A000064697374616E63655F6D6D206D69736D7C
:101A1000617463682E0A004669656C642066635FC2
:101A200073657474696E6773206D69736D61746337
:101A3000682E0A004669656C6420706C616E6E6584
:101A4000725F736B65775F666163746F72206D6937
:101A5000736D617463682E0A004669656C64206367
:101A60006F6F7264696E6174655F73797374656DAD
:101A7000206D69736D617463682E0A004669656C38
:101A800064206D6F746F725F63757272656E745FE0
:101A900073657474696E67206D69736D61746368D2
:101AA0002E0A004669656C6420706C616E6E65720A
:101AB0005F65787472756465725F616476616E6388
:101AC000655F4B206D69736D617463682E0A004613
:101AD00069656C6420746D635F737465616C7468B0
:101AE0005F656E61626C6564206D69736D617463BE
:101AF000682E0A004669656C6420746D635F6879BE
:101B0000627269645F7468726573686F6C64206D7B
:101B100069736D617463682E0A004669656C6420A0
:101B2000746D635F737465707065725F63757272F4
:101B3000656E74206D69736D617463682E0A00466A
:101B400069656C64207061727365725F766F6C7525
:101B50006D65747269635F656E61626C6564206D4A
:101B600069736D617463682E0A004669656C642050
:101B70006677726574726163745F73657474696E9D
:101B80006773206D69736D617463682E0A0046691E
:101B9000656C64207265636F766572795F656E61EE
:101BA000626C6564206D69736D617463682E0A00F0
:101BB0004669656C6420636F6E74726F6C6C6572DD
:101BC00046616E5F73657474696E6773206D6973C7
:101BD0006D617463682E0A004669656C64206C63ED
:101BE000645F636F6E7472617374206D69736D618D
:101BF0007463682E0A004669656C6420706F7765AF
:101C0000725F6D6F6E69746F725F666C616773206F
:101C10006D69736D617463682E0A004669656C6452
:101C200020626564504944206D69736D6174636816
:101C30002E0A004669656C64206C70715F6C656E7D
:101C4000206D69736D617463682E0A004669656C66
:101C50006420686F74656E64504944206D69736DCB
:101C6000617463682E0A004669656C642075695F5B
:101C70006D6174657269616C5F7072657365742003
:101C80006D69736D617463682E0A004669656C64E2
:101C900020626C746F7563685F6C6173745F7772D8
:101CA000697474656E5F6D6F6465206D69736D61D5
:101CB0007463682E0A004669656C642073657276E9
:101CC0006F5F616E676C6573206D69736D617463BE
:101CD000682E0A004669656C6420706C616E6E65E2
:101CE000725F6C6576656C696E675F616374697657
:101CF00065206D69736D617463682E0A00466965BD
:101D00006C642070726F62655F6F666673657420C5
:101D10006D69736D617463682E0A004669656C6451
:101D20002072756E6F75745F73656E736F725F6529
:101D30006E61626C6564206D69736D617463682E99
:101D40000A004669656C6420686F6D655F6F666642
:101D5000736574206D69736D617463682E0A004643
:101D600069656C6420657374657070657273206D4D
:101D700069736D617463682E0A002100486F746591
:101D80006E6420746F6F20636F6C64004261636BDC
:101D90000050726F63656564004D6F74696F6E000B
:101DA00044697361626C6520537465707065727309
:101DB000004D3834004C6576656C20436F726E655B
:101DC000727300486F6D65205A004732385A0048D8
:101DD0006F6D652059004732385900486F6D652096
:101DE000580047323858004175746F20486F6D6550
:101DF00000473238004D61696E0050726568656158
:101E000074202420456E64005072656865617420FA
:101E100024204265640054656D706572617475724A
:101E20006500436F6F6C646F776E00507265686514
:101E3000617420240046616E205370656564004221
:101E40006564004E6F7A7A6C65004D61696E00467C
:101E50006C6F770046616E20537065656400426563
:101E600064004E6F7A7A6C65005370656564004D4E
:101E700061696E00486F6D696E67204661696C65C7
:101E800064006F70656E005452494747455245449F
:101E9000003A200066696C616D656E74007A5F6D52
:101EA000696E00795F6D696E00785F6D696E0052D2
:101EB00065706F7274696E6720656E6473746F709D
:101EC000207374617475730A00486F6D6520257303
:101ED00025732573204669727374000000A0C0004A
:101EE00000000000000000000048420000484200DE
:101EF0000020415761726E696E673A20486F6D69C4
:101F00006E672042756D702044697669736F722028
:101F10003C20310A000202040000A0400000A04062
:101F20000000004000005F4300005A430000964359
:101F3000FFFFFF00000001000000010000800055CD
:101F40005555000000400033333300AAAA2A004947
:101F500092240000002000C7711C0099991900D13B
:101F6000451700555515003BB113002449120011C7
:101F7000111100000010000F0F0F00E3380E004396
:101F8000790D00CCCC0C00C3300C00E8A20B00642F
:101F9000210B00AAAA0A00703D0A009DD809004240
:101FA0007B090092240900DCD3080088880800100F
:101FB00042080000000800F0C1070087870700758D
:101FC000500700711C07003EEB0600A1BC0600692B
:101FD00090060066660600703E060061180600174F
:101FE000F4050074D105005BB00500B290050062F5
:101FF0007205005555050078390500B81E05000525
:102000000505004EEC040087D40400A1BD04009037
:10201000A7040049920400C17D0400EE690400C7D2
:10202000560400444404005C3204000821040041CA
:10203000100400000004003FF00300F8E003002655
:10204000D20300C3C30300CCB503003AA803000ABF
:102050009B0300388E0300C08103009F750300D0EE
:10206000690300505E03001D5303003448030091D0
:102070003D03003333030016290300381F03009784
:10208000150300300C0300030303000BFA020049A0
:10209000F10200BAE802005CE002002DD802002D37
:1020A000D0020059C80200B0C0020031B90200DA03
:1020B000B10200AAAA0200A0A30200BC9C0200FA7E
:1020C0009502005C8F0200DF8802008282020045D8
:1020D0007C02002776020027700200436A02007C1F
:1020E000640200D05E02003F590200C853020001A2
:1020F000FFFFFFFFFFFFFFFFFFFFFFFFFF0FFFFFE0
:10210000FFFFFFFFFFFFFFFFFFFFFF1E00000000BC
:1021100000000000000007FFFF3800000000000082
:102120000000000003FFFF7000000000000000003E
:10213000000001FFFF600000000000000000000040
:1021400000FFFF6000000000000000000000007FB2
:10215000FFC000000000000000007800003FFFC04A
:102160000FC0FC00000000007818001FFFC03FE116
:10217000FF0000000000783C000FFFC07FF3FF80ED
:1021800000000000783C0007FFC0FFFFFFC0000018
:102190000000783C0003FFC1F87F87E000000000EA
:1021A00078000001FFC1F03F03E00000000078006C
:1021B0000000FFC1E01E01E01F0003E0783C03F0D7
:1021C0007FC1E01E01E07FC00FF8783C07FC3FC1F3
:1021D000E01E01E1FFE01FFC783C0FFE1FC1E01E86
:1021E00001E3FFF03FFE783C1FFE0FC1E01E01E35C
:1021F000F3F83F3E783C3F3F07C1E01E01E7E0FCBB
:102200007C1F783C3E1F07C1E01E01E7C07C7C0FAD
:10221000783C3C0F03C1E01E01E7807C780F783CDE
:102220003C0F03C1E01E01E7803C7800783C3C0F86
:1022300003C1E01E01E7803C7800783C3C0F03C1FD
:10224000E01E01E7803C7800783C3C0F03C1E01EB3
:1022500001E7C03C7800783C3C0F03C1E01E01E37D
:10226000E03C78007C3C3C0F03C1E01E01E3FF3FF3
:10227000F8007FBC3C0F03C1E01E01E1FF3FF80006
:102280003FBFFC0F03C1E01E01E0FF3FF8001FBF8E
:10229000FC0F03C1E01E01E07F3FF8000FBFFC0F01
:1022A0000360000000000000000000000000076064
:1022B00000000000000000000000000006700000A8
:1022C000000000000000000000000E3800000000C8
:1022D00000000000000000001C1E000000000000C4
:1022E000000000000000780FFFFFFFFFFFFFFFFF6F
:1022F000FFFFFFFFF001FFFFFFFFFFFFFFFFFFFFFB
:10230000FFFF8001FFFFFFFFFFFFFFFFFFFFFFFF5A
:10231000FF0FFFFFFFFFFFFFFFFFFFFFFFFFFF1E9E
:102320000000000000000000000007FFFF38000070
:10233000000000000000000003FFFF70000000002C
:1023400000000000000001FFFF600000000000002E
:102350000000000000FFFF6000000000000000001F
:102360000000007FFFC000000000000000007800B7
:10237000003FFFC00FC0FC00000000007818001FE5
:10238000FFC03FE1FF0000000000783C000FFFC0ED
:102390007FF3FF8000000000783C0007FFC0FFFFD4
:1023A000FFC000000000783C0003FFC1F87F87E019
:1023B0000000000078000001FFC1F03F03E00000D2
:1023C000000078000000FFC1E01E01E01F0003E0F4
:1023D000783C00007FC1E01E01E07FC00FF8783C30
:1023E00000003FC1E01E01E1FFE01FFC783C00005F
:1023F0001FC1E01E01E3FFF03FFE783C00000FC16B
:10240000E01E01E3F3F83F3E783C000007C1E01E08
:1024100001E7E0FC7C1F783C000007C1E01E01E7FB
:10242000C07C7C0F783C000003C1E01E01E7807C8B
:10243000780F783C000003C1E01E01E7803C780083
:10244000783C000003C1E01E01E7803C7800783C46
:10245000000003C1E01E01E7803C7800783C0000EA
:1024600003C1E01E01E7C03C7800783C000003C1D6
:10247000E01E01E3E03C78007C3C000003C1E01E6C
:1024800001E3FF3FF8007FBC000003C1E01E01E153
:10249000FF3FF8003FBF000003C1E01E01E0FF3F27
:1024A000F8001FBF000003C1E01E01E07F3FF800FD
:1024B0000FBF0000036000000000000000000000EB
:1024C00000000760000000000000000000000000A5
:1024D00006700000000000000000000000000E3840
:1024E0000000000000000000000000001C1E0000B2
:1024F00000000000000000000000780FFFFFFFFF59
:10250000FFFFFFFFFFFFFFFFF001FFFFFFFFFFFFE8
:10251000FFFFFFFFFFFF8001FFFFFFFFFFFFFFFF48
:10252000FFFFFFFFFF0FFFFFFFFFFFFFFFFFFFFFAB
:10253000FFFFFF1E0000000000000000000007FF7A
:10254000FF380000000000000000000003FFFF70E3
:102550000000000000000000000001FFFF6000001C
:10256000000000000000000000FFFF60000000000D
:10257000000000000000007FFFC00000000000001D
:1025800000007800003FFFC00FC0FC00000000000A
:102590007800001FFFC03FE1FF000000000078004E
:1025A000000FFFC07FF3FF800000000078000007ED
:1025B000FFC0FFFFFFC00000000078000003FFC164
:1025C000F87F87E00000000078000001FFC1F03FC5
:1025D00003E00000000078000000FFC1E01E01E001
:1025E0001F0003E0780000007FC1E01E01E07FC013
:1025F0000FF8780000003FC1E01E01E1FFE01FFC82
:10260000780000001FC1E01E01E3FFF03FFE7800EC
:1026100000000FC1E01E01E3F3F83F3E7800000028
:1026200007C1E01E01E7E0FC7C1F7800000007C145
:10263000E01E01E7C07C7C0F7800000003C1E01EB3
:1026400001E7807C780F7800000003C1E01E01E7FD
:10265000803C78007800000003C1E01E01E7803C68
:1026600078007800000003C1E01E01E7803C78009C
:102670007800000003C1E01E01E7C03C780078004C
:10268000000003C1E01E01E3E03C78007C00000094
:1026900003C1E01E01E3FF3FF8007F00000003C11B
:1026A000E01E01E1FF3FF8003F00000003C1E01E13
:1026B00001E0FF3FF8001F00000003C1E01E01E041
:1026C0007F3FF8000F0000000360000000000000E2
:1026D0000000000000000760000000000000000093
:1026E0000000000006700000000000000000000074
:1026F00000000E3800000000000000000000000094
:102700001C1E000000000000000000000000780F08
:10271000FFFFFFFFFFFFFFFFFFFFFFFFF001FFFFD6
:10272000FFFFFFFFFFFFFFFFFFFF8001FFFFFFFF36
:10273000FFFFFFFFFFFFFFFFFF0FFFFFFFFFFFFF99
:10274000FFFFFFFFFFFFFF1E000000000000000072
:10275000000007FFFF38000000000000000000003C
:1027600003FFFF700000000000000000000001FFF8
:10277000FF600000000000000000000000FFFF609C
:1027800000000000000000000000007FFFC000000B
:102790000000000000000000003FFFC00FC0FC0070
:1027A000000000000000001FFFC03FE1FF0000002C
:1027B00000000000000FFFC07FF3FF80000000005A
:1027C00000000007FFC0FFFFFFC000000000000086
:1027D0000003FFC1F87F87E0000000000000000157
:1027E000FFC1F03F03E00000000000000000FFC157
:1027F000E01E01E01F0003E0000000007FC1E01EBA
:1028000001E07FC00FF8000000003FC1E01E01E1C1
:10281000FFE01FFC000000001FC1E01E01E3FFF00D
:102820003FFE000000000FC1E01E01E3F3F83F3E51
:102830000000000007C1E01E01E7E0FC7C1F000073
:10284000000007C1E01E01E7C07C7C0F0000000013
:1028500003C1E01E01E7807C780F0000000003C187
:10286000E01E01E7803C78000000000003C1E01E8C
:1028700001E7803C78000000000003C1E01E01E792
:10288000803C78000000000003C1E01E01E7C03C6E
:1028900078000000000003C1E01E01E3E03C780086
:1028A0000000000003C1E01E01E3FF3FF80000004C
:1028B000000003C1E01E01E1FF3FF800000000003E
:1028C00003C1E01E01E0FF3FF8000000000003C16B
:1028D000E01E01E07F3FF800000000000360000000
:1028E0000000000000000000000007600000000081
:1028F0000000000000000000067000000000000062
:102900000000000000000E38000000000000000081
:10291000000000001C1E000000000000000000007D
:102920000000780FFFFFFFFFFFFFFFFFFFFFFFFF2C
:10293000F001FFFFFFFFFFFFFFFFFFFFFFFF800131
:10294000FFFFFFFFFFFFFFFFFFFFFFFFFF0FFFFF87
:10295000FFFFFFFFFFFFFFFFFFFFFF1E0000000064
:1029600000000000000007FFFF380000000000002A
:102970000000000003FFFF700000000000000000E6
:10298000000001FFFF6000000000000000000000E8
:1029900000FFFF6000000000000000000000007F5A
:1029A000FFC000000000000000000000003FFFC06A
:1029B0000FC0FC00000000000000001FFFC03FE14E
:1029C000FF00000000000000000FFFC07FF3FF8049
:1029D0000000000000000007FFC0FFFFFFC0000074
:1029E000000000000003FFC1F87F87E00000000046
:1029F00000000001FFC1F03F03E000000000000004
:102A00000000FFC1E01E01E01F0000000000000008
:102A10007FC1E01E01E07FC00000000000003FC158
:102A2000E01E01E1FFE00000000000001FC1E01E09
:102A300001E3FFF00000000000000FC1E01E01E311
:102A4000F3F800000000000007C1E01E01E7E0FC11
:102A500000000000000007C1E01E01E7C07C00008C
:102A60000000000003C1E01E01E7807C00000000C0
:102A7000000003C1E01E01E7803C000000000000F0
:102A800003C1E01E01E7803C00000000000003C11C
:102A9000E01E01E7803C00000000000003C1E01ED2
:102AA00001E7C03C00000000000003C1E01E01E39C
:102AB000E03C00000000000003C1E01E01E3FF3F16
:102AC00000000000000003C1E01E01E1FF3F000024
:102AD0000000000003C1E01E01E0FF3F0000000015
:102AE000000003C1E01E01E07F3F00000000000085
:102AF000036000000000000000000000000007600C
:102B0000000000000000000000000000067000004F
:102B1000000000000000000000000E38000000006F
:102B200000000000000000001C1E0000000000006B
:102B3000000000000000780FFFFFFFFFFFFFFFFF16
:102B4000FFFFFFFFF001FFFFFFFFFFFFFFFFFFFFA2
:102B5000FFFF8001FFFFFFFFFFFFFFFFFFFFFFFF02
:102B6000FF0FFFFFFFFFFFFFFFFFFFFFFFFFFF1E46
:102B70000000000000000000000007FFFF38000018
:102B8000000000000000000003FFFF7000000000D4
:102B900000000000000001FFFF60000000000000D6
:102BA0000000000000FFFF600000000000000000C7
:102BB0000000007FFFC000000000000000000000D7
:102BC000003FFFC00FC0FC00000000000000001F1D
:102BD000FFC03FE1FF00000000000000000FFFC049
:102BE0007FF3FF800000000000000007FFC0FFFF30
:102BF000FFC00000000000000003FFC1F87F87E075
:102C00000000000000000001FFC1F03F03E00000F1
:102C1000000000000000FFC1E01E01E00000000015
:102C2000000000007FC1E01E01E000000000000085
:102C300000003FC1E01E01E00000000000000000B5
:102C40001FC1E01E01E000000000000000000FC1F5
:102C5000E01E01E0000000000000000007C1E01ECF
:102C600001E0000000000000000007C1E01E01E0DC
:102C7000000000000000000003C1E01E01E00000B1
:102C800000000000000003C1E01E01E000000000A1
:102C90000000000003C1E01E01E000000000000091
:102CA000000003C1E01E01E0000000000000000081
:102CB00003C1E01E01E0000000000000000003C1AD
:102CC000E01E01E0000000000000000003C1E01E63
:102CD00001E0000000000000000003C1E01E01E070
:102CE000000000000000000003C1E01E01E0000041
:102CF00000000000000003C1E01E01E00000000031
:102D00000000000003600000000000000000000060
:102D1000000007600000000000000000000000004C
:102D200006700000000000000000000000000E38E7
:102D30000000000000000000000000001C1E000059
:102D400000000000000000000000780FFFFFFFFF00
:102D5000FFFFFFFFFFFFFFFFF001FFFFFFFFFFFF90
:102D6000FFFFFFFFFFFF8001FFFFFFFFFFFFFFFFF0
:102D7000FFFFFFFFFF0FFFFFFFFFFFFFFFFFFFFF53
:102D8000FFFFFF1E0000000000000000000007FF22
:102D9000FF380000000000000000000003FFFF708B
:102DA0000000000000000000000001FFFF600000C4
:102DB000000000000000000000FFFF6000000000B5
:102DC000000000000000007FFFC0000000000000C5
:102DD00000000000003FFFC00000000000000000F5
:102DE0000000001FFFC00000000000000000000005
:102DF000000FFFC0000000000000000000000007FE
:102E0000FFC0000000000000000000000003FFC041
:102E1000000000000000000000000001FFC00000F2
:102E200000000000000000000000FFC000000000E3
:102E300000000000000000007FC000000000000053
:102E40000000000000003FC0000000000000000083
:102E5000000000001FC00000000000000000000093
:102E600000000FC000000000000000000000000093
:102E700007C000000000000000000000000007C0C4
:102E800000000000000000000000000003C000007F
:102E90000000000000000000000003C0000000006F
:102EA000000000000000000003C00000000000005F
:102EB00000000000000003C000000000000000004F
:102EC0000000000003C0000000000000000000003F
:102ED000000003C00000000000000000000000002F
:102EE00003C000000000000000000000000003C05C
:102EF00000000000000000000000000003C000000F
:102F00000000000000000000000003C000000000FE
:102F1000000000000000000003600000000000004E
:102F2000000000000000076000000000000000003A
:102F3000000000000670000000000000000000001B
:102F400000000E380000000000000000000000003B
:102F50001C1E000000000000000000000000780FB0
:102F6000FFFFFFFFFFFFFFFFFFFFFFFFF001FFFF7E
:102F7000FFFFFFFFFFFFFFFFFFFF800000000000DB
:102F80000000000000000000000000000000000041
:102F9000000000000000000000000000047F03E0CB
:102FA0000001F8000F00007F8003F0000C7F03F0A9
:102FB0000003F8001F80007FC007F0000C7F03F8BB
:102FC0000007F8003F80007FC00FF0001C7F03FC6B
:102FD000000FF8003FC0003FE01FF0001C7F03FE21
:102FE000001FF8003FC0001FF03FF0003C7F01FFD2
:102FF000003FF8001FE0000FF87FF0003C7F00FF6B
:10300000807FF8000FE00007F87FE0007C7F007F02
:10301000C0FFF8000FF00007FC3FC0007C7F003FBE
:10302000E1FFF80007F80003FE1F8000FC7F001F8F
:10303000FFFFF80187F80001FF0F0000FC7F030F7E
:10304000FFFFF801C3FC0000FF860001FC7F03873F
:10305000FFF3F803E3FC00007F800001FC7F03C363
:10306000FFE3F803E1FE00007FC00003FC7F03E103
:10307000FFC3F807F1FE00003FE00003FC7FE3F030
:10308000FF83F807F0FF00001FF00007FC7FE3F864
:103090007F03F80FF07F00000FF00007FC7FE3F8DC
:1030A0001E03F80FE07F80000FF8000FFC7FE3F8AD
:1030B0000003F81FE3FF800387FC000FFC7FE3F8A9
:1030C0000003F81FC3FFC007C3FE001FFC7FE3F827
:1030D0000003F83FC7FFC00FE1FE0000007F03F8C8
:1030E0000003F83F87FFE01FF1FF0000007F03F8B7
:1030F0000003F87F8FFFE03FF0FF8000007F03F8C0
:103100000003F87F0FFFF07FF07FC000007F03F81F
:103110000003F8FF0007F0FFE03FC000007F03F866
:103120000003F8FE0007F8FFC03FE000007F03F84F
:103130000003F9FE0003F8FF801FF000007F03F892
:103140000003F9FC0003FCFF000FF000007F03F810
:103150000003FBFC0001FCFE000FF000000000007B
:10316000000000000000000000000000000000005F
:10317000000000000000000000000068747470731C
:103180003A2F2F6769742E696F2F666A587A72001A
:10319000344D415820322E312E3030303342455498
:1031A0004100672D532B3F292B2717250323EF20A1
:1031B00070012C0190012701B0012201C0011D0105
:1031C000F00118011002130130020E016002090122
:1031D00090020401C002FF000003FA004003F50062
:1031E0008003F000D003EB002004E6007004E1004F
:1031F000E004DC004005D700C005D2004006CD0049
:10320000D006C8008007C3003008BE00F008B9002F
:10321000C009B400B00AAF00B00BAA00D00CA500E2
:10322000000EA000500F9B00C0109600501291009D
:1032300000148C00C0158700B0178200B0197D0003
:10324000D01B7800001E730040206E0090226900A1
:10325000F024640040275F0090295A00E02B5500BD
:10326000102E500020304B0010324600E033410059
:1032700090353C001037370070383200A0392D00EF
:10328000B03A2800A03B2300603C1E00103D19000E
:10329000903D1400103E0F00703E0A00C03E050035
:1032A000003F0000403FFBFF803FF6FFC03FF1FFC3
:1032B0002020506C616E6E65724275666665724262
:1032C000797465733A20002046726565204D656DFE
:1032D0006F72793A2000436F6D70696C65643A20B3
:1032E0004E6F7620203820323032300A00204C6178
:1032F000737420557064617465643A2032303230E2
:103300002D31312D3038207C20417574686F723A30
:10331000202847336D316E315333727633722C204F
:10332000416E79637562696320344D4158290A0002
:10333000344D415820322E312E30303033424554F6
:10334000410A004D61726C696E0020536F6674779C
:103350006172652052657365740A00205761746359
:1033600068646F672052657365740A002042726F4B
:10337000776E206F75742052657365740A0020455E
:10338000787465726E616C2052657365740A0050C2
:103390006F77657255700A0073746172740A006108
:1033A00075746F25632E67004732385859004D31C8
:1033B000303031006572726F722077726974696E95
:1033C0006720746F2066696C650A00446F6E652023
:1033D000736176696E672066696C652E0A004D32EE
:1033E0003900456E6473746F707300255320256334
:1033F00020256320256320256300205A3A002059A8
:103400003A0020583A00656E6473746F70732068D8
:1034100069743A2000534420496E697420466169FA
:103420006C0053442063617264206F6B0A006F70FC
:10343000656E526F6F74206661696C65640A007610
:103440006F6C756D652E696E6974206661696C6557
:10345000640A004E6F20534420636172640A004D79
:103460003234004D3233202573002E0A006F706510
:103470006E206661696C65642C2046696C653A2033
:103480000046696C652073656C65637465640A0049
:103490002053697A653A200046696C65206F706533
:1034A0006E65643A2000454E4420535542524F55B4
:1034B00054494E450A002220706F7300222070612B
:1034C00072656E743A2200535542524F5554494E1C
:1034D000452043414C4C207461726765743A220068
:1034E00053756263616C6C204F766572666C6F77A2
:1034F000004578636565646564206D617820535587
:1035000042524F5554494E452064657074683A31B3
:103510000A0057726974696E6720746F2066696C5F
:10352000653A2000667265736800646F696E6700B3
:103530002066696C653A20004E6F7720000224F403
:10354000D43050C38E20C2A24017828B7011127AE1
:10355000910D816CD90AA861E108C75866076151CD
:1035600043061E4B5D05C145A7041A411104093DE0
:103570009803713931034036DB0265339102D43050
:103580005402802E1D02632CEE01752AC501B0285D
:10359000A001102781018F2564012B244B01E0221B
:1035A0003401AC211F018D200D01801FFC00841E01
:1035B000ED00971DDF00B81CD200E61BC600201BE3
:1035C000BC00641AB200B219A8000A19A0006A1857
:1035D0009900D117910040178B00B5168400311661
:1035E0007E00B31579003A157300C7146F005814A4
:1035F0006A00EE1366008813630025135E00C7128D
:103600005B006C12570015125400C111510070116B
:103610004F0021114B00D61049008D104700461075
:10362000440002104200C00F4000800F3E00420FD5
:103630003C00060F3B00CB0E3800930E37005C0EAB
:103640003500270E3400F30D3200C10D3100900D0E
:103650003000600D2E00320D2D00050D2C00D90C10
:103660002B00AE0C2900850C29005C0C2700350CC2
:1036700027000E0C2600E80B2400C40B2400A00B2E
:1036800023007D0B23005A0B2100390B2100180B5E
:103690002000F80A1F00D90A1E00BB0A1E009D0A5E
:1036A0001D00800A1D00630A1C00470A1B002C0A2B
:1036B0001B00110A1A00F7091A00DD091900C409D4
:1036C0001900AB091900920917007B09180063095A
:1036D00017004C09160036091600200916000A09C1
:1036E0001500F5081500E0081400CC081400B8080F
:1036F0001400A4081400900813007D0812006B0841
:10370000130058081200460812003408110023085C
:1037100011001208110001081100F0071000E00765
:103720001000D0071000C0071000B0070F00A1075D
:10373000100091070E0083070F0074070F00650744
:103740000E0057070E0049070E003B070D002E071D
:103750000E0020070D0013070D0006070D00F906E7
:103760000C00ED060D00E0060C00D4060C00C806A7
:103770000C00BC060C00B0060C00A4060B00990659
:103780000C008D060B0082060B0077060B006C0602
:103790000B0061060A0057060B004C060A004206A1
:1037A0000A0038060A002E060A0024060A001A0635
:1037B0000A001006090007060A00FD050900F405C5
:1037C0000900EB050900E2050900D9050900D0054B
:1037D0000900C7050900BE050900B5050800AD05CB
:1037E0000800A50509009C050800940508008C0543
:1037F0000800840508007C050800740508006C05B5
:103800000700650508005D050700560508004E0520
:103810000700470507004005080038050700310587
:1038200007002A050700230507001C0506001605EA
:1038300007000F0507000805060002050700FB0446
:103840000600F5040700EE040600E8040600E204A2
:103850000700DB040600D5040600CF040600C904F7
:103860000600C3040600BD040600B7040600B10448
:103870000500AC040600A6040600A00405009B0495
:10388000060095040500900406008A0405008504DE
:103890000500800406007A04050075040500700424
:1038A00005006B04050066040500610405005C0466
:1038B000050057040500520405004D0405004804A6
:1038C0000500430405003E0404003A0405003504E5
:1038D0000500300404002C04050027040400230420
:1038E00005001E0404001A04040016040500110457
:1038F00004000D040400090405000404040000048D
:103900000400FC030400F8030400F4030400F003C3
:103910000400EC030400E8030400E4030400E003F3
:103920000400DC030400D8030400D4030400D00323
:103930000400CC030400C8030300C503030024F4FF
:1039400004D9201BC40C5C0E9804C4095F026507EF
:103950007101F405F900FB04B30048048700C103BA
:1039600069005803550003034500BE023A00840273
:10397000310053022A002902250004022000E4013C
:103980001C00C8011900AF01170098011400840140
:103990001300710110006101100051010E0043017C
:1039A0000D0036010B002B010B0020010B0015014F
:1039B00009000C01090003010800FB000800F300E6
:1039C0000800EB000700E4000600DE000600D80057
:1039D0000600D2000600CC000500C7000500C200AA
:1039E0000500BD000400B9000400B5000400B100EA
:1039F0000400AD000400A9000400A5000300A2001B
:103A000003009F0004009B00030098000300950042
:103A1000020093000300900003008D0002008B0061
:103A20000300880002008600020084000300810079
:103A300002007F0002007D0002007B00020079008E
:103A4000020077000100760002007400020072009C
:103A50000100710002006F0002006D0001006C00A7
:103A600002006A00010069000200670001006600B0
:103A700001006500010064000200620001006100B5
:103A80000100600001005F0002005D0001005C00B9
:103A900001005B0001005A000100590001005800BC
:103AA00001005700010056000100550001005400BC
:103AB00001005300000053000100520001005100BA
:103AC0000100500001004F0001004E0000004E00B8
:103AD00001004D0001004C0001004B0000004B00B4
:103AE00001004A00010049000100480000004800B0
:103AF00001004700010046000000460001004500AB
:103B000000004500010044000100430000004300A4
:103B1000010042000000420001004100000041009D
:103B20000100400001003F0000003F0001003E0096
:103B300000003E0001003D0000003D0001003C008F
:103B400000003C0000003C0001003B0000003B0086
:103B500001003A0000003A0001003900000039007D
:103B60000100380000003800000038000100370074
:103B7000000037000100360000003600000036006B
:103B80000100350000003500000035000100340060
:103B90000000340000003400010033000000330056
:103BA000000033000100320000003200000032004B
:103BB0000100310000003100000031000100300040
:103BC000000030000000300001002F0000002F0036
:103BD00000002F0000002F0001002E0000002E002A
:103BE00000002E0001002D0000002D0000002D001F
:103BF00000002D0001002C0000002C0000002C0013
:103C000000002C0001002B0000002B0000002B0006
:103C100000002B0001002A0000002A0000002A00FA
:103C200000002A00010029000000290000002900EE
:103C300000002900000029000100280000002800E1
:103C400000002800000028000000280001002700D4
:103C500000002700000027000000270000002700C8
:103C600001002600000026000000260000002600BB
:103C700000002600010025000000250000002500AE
:103C800000002500000025000000250001002400A0
:103C90000000240000002400000024000000240094
:103CA0000100230000002300000023000000230087
:103CB0000000230000002300000023000100220078
:103CC000000022000000220000002200000022006C
:103CD000000022000100210000002100000021005E
:103CE0000000210000002100000021000000210050
:103CF0000100200000002000000020000000200043
:103D00000000200000002000000020000000200033
:103D100001001F0000001F0000001F0000001F0026
:103D200000001F0000001F0000001F0001001E0017
:103D300000001E0000001E0000001E0000003930C0
:103D400000003325000087190000B00F0000DB08D9
:103D50000000BD040000740200003F010000546830
:103D600065726D6973746F727300426F6172642063
:103D7000496E666F005072696E74657220496E6696
:103D80006F004D61696E003F004261636B005374C8
:103D90006F70005072696E742066726F6D204D6591
:103DA000646961004368616E6765204D656469619F
:103DB000004D32310041626F7574205072696E742B
:103DC0006572004368616E67652046696C616D6568
:103DD0006E7400436F6E66696775726174696F6EA9
:103DE0000054656D7065726174757265004D6F7415
:103DF000696F6E00526573756D65205072696E74DF
:103E0000004E6F204D656469610054756E65005306
:103E1000746F70205072696E740050617573652004
:103E20005072696E7400496E666F205363726565E7
:103E30006E003F005374617274205072696E74009A
:103E400043616E63656C005072696E740043616E0D
:103E50006E6F7420656E746572207375626469722A
:103E60003A2000022E2E004D61696E003F004E6523
:103E7000787420506F696E7400446F6E65004E65F3
:103E8000787400486F6D696E672058595A0049640C
:103E90006C6520506572696F640041637469766572
:103EA000205370656564004175746F204D6F6465C3
:103EB0000049646C65205370656564004265640068
:103EC0004E6F7A7A6C650046616E2053706565644A
:103ED00000436F6E66696775726174696F6E004C3E
:103EE0006F61642053657474696E67730052657303
:103EF000746F72652044656661756C7473005374E9
:103F00006F72652053657474696E677300507265D3
:103F100068656174202420436F6E66004F666600FA
:103F20004F6E0052756E6F75742053656E736F72AD
:103F300000436F6E74726F6C6C65722046616E0028
:103F4000416476616E6365642053657474696E675D
:103F500073004D61696E0020436F756E7420583A8E
:103F6000002053004D31303620500000426564007F
:103F7000453100626564002C2073797374656D208F
:103F800073746F7070656421204865617465725F39
:103F900049443A200048656174696E67204661694A
:103FA0006C65640048656174696E67206661696C60
:103FB000656400202D20496E76616C696420657807
:103FC000747275646572206E756D62657220210A67
:103FD00000544845524D414C2052554E415741598D
:103FE00000546865726D616C2052756E61776179FD
:103FF000004572723A204D415854454D50004D4194
:104000005854454D50207472696767657265640045
:104010004572723A204D494E54454D50004D494E1F
:1040200054454D5020747269676765726564000A73
:104030000A0020205A5F4D494E3A002020595F4D1A
:10404000494E3A002020585F4D494E3A00220A005E
:10405000556E6B6E6F776E20636F6D6D616E643A37
:10406000202200DB0FC93F45BCDA3F8FB30240FC82
:10407000F0274056946140FE4B9B4084A5D840E019
:10408000231841346A5641E859974164DBD5416EA3
:10409000271742B4B75542CE1A9742C8AED542B59B
:1040A000885A43D40684BFA65FA7BF7443E0BF10FD
:1040B000B11AC01C2C58C0E8F697C0B849D6C04EFB
:1040C0004E17C124D355C1802497C1A0B5D5C112C4
:1040D0001A17C244AE55C2781797C26CACD5C267E6
:1040E000885AC320746F6F206C6F6E672065787478
:1040F000727573696F6E2070726576656E74656433
:104100000A0020636F6C6420657874727573696F40
:104110006E2070726576656E7465640A0057617210
:104120006E696E673A20436C65616E204369726305
:104130006C652072657175697265732058590A0043
:104140005761726E696E673A2052616469757320B7
:104150004F7574206F662052616E67650A00554E78
:104160004C4F41442046494C414D454E54004C4F24
:1041700041442046494C414D454E540046494C412E
:104180004D454E54204348414E4745004D3730324F
:1041900020542564004D36303020423020542564B0
:1041A000004D373032203B2564004D3730312054EC
:1041B0002564004D373032004D373031004D3630F8
:1041C00030204230004D61696E00436F6E74696E3D
:1041D0007565004F6666004F6E0052756E6F7574A0
:1041E0002053656E736F72005075726765206D6F36
:1041F000726500524553554D45204F5054494F4E1E
:10420000533A005052494E542050415553454400B2
:1042100020204E6F7A7A6C653A20005061726B698B
:104220006E672E2E2E0000005761697420666F7233
:104230000066696C616D656E74206368616E6765A8
:1042400000746F2073746172740057616974206622
:104250006F720066696C616D656E7420756E6C6F4F
:10426000616400004E6F7A7A6C65206865617469DC
:104270006E6700506C6561736520776169742E2EDE
:104280002E0000507265737320627574746F6E0037
:10429000746F2068656174206E6F7A7A6C650000B7
:1042A000496E736572742066696C616D656E740029
:1042B000616E6420707265737320627574746F6EC2
:1042C00000746F20636F6E74696E75650057616965
:1042D0007420666F720066696C616D656E74206C27
:1042E0006F61640000507265737320427574746F5F
:1042F0006E00746F20726573756D65207072696EE3
:104300007400005761697420666F72207072696E64
:104310007400746F20726573756D652E2E2E00000B
:104320005761697420666F720066696C616D656EB5
:1043300074207075726765000031353000350042B9
:1043400045443A204550434F53203130304B0052C2
:10435000756E617761792057617463683A204F4EBA
:10436000004D61782054656D7000323735004D691D
:104370006E2054656D7000350045313A204550433C
:104380004F53203130304B0050535500532D3330B4
:10439000302D31320050726F746F636F6C00312EAC
:1043A0003000426175640032353030303000416E8B
:1043B0007963756269632052414D505320312E3428
:1043C00000457874727564657273003100687474A6
:1043D00070733A2F2F6769742E696F2F666A587A47
:1043E0007200416E79637562696320344D415800F3
:1043F000323032302D31312D303800344D4158209B
:10440000322E312E3030303342455441004D6172EE
:104410006C696E00446F6E652E0A0050756C73698E
:104420006E6720202000556E746F75636865642088
:10443000005A5F50524F42455F534552564F5F4EB0
:1044400052206E6F74207365742075702E0A0057A9
:1044500061746368696E672070696E730A006469CD
:104460007300656E0061626C65640A00656E64735A
:10447000746F70206D6F6E69746F722000204D39FB
:104480003220580020580020204D61783A2000202A
:104490000020204D696E3A2000536F667420656ECF
:1044A0006473746F70733A2000206F7574206F66A8
:1044B0002072616E67650A00536572766F20003A5C
:1044C000200020536572766F200025290A002520E0
:1044D00000203B20280020440020410020490020EB
:1044E000204D3731302053003B20436F6E74726F84
:1044F0006C6C65722046616E0A0020496E76616CB4
:10450000696420657874727564657220005A5F531F
:10451000544F505F50494E005A5F535445505F50BE
:10452000494E005A5F4D494E5F50494E005A5F4513
:104530004E41424C455F50494E005A5F4449525FDC
:1045400050494E00595F53544F505F50494E0059E7
:104550005F535445505F50494E00595F4D494E5F7F
:1045600050494E00595F454E41424C455F50494EBF
:1045700000595F4449525F50494E00585F53544FB1
:10458000505F50494E00585F535445505F50494E5C
:1045900000585F4D494E5F50494E00585F454E41AF
:1045A000424C455F50494E00585F4449525F504964
:1045B0004E0053535F50494E00534552564F335FA0
:1045C00050494E00534552564F325F50494E0053AA
:1045D0004552564F315F50494E00534552564F3069
:1045E0005F50494E00534453530053445F44455475
:1045F0004543545F50494E0053434B5F50494E0072
:1046000052414D50535F44395F50494E0052414D25
:1046100050535F44385F50494E0052414D50535FF4
:104620004431305F50494E004D4F53495F50494E21
:10463000004D49534F5F50494E004D415836363773
:10464000355F53535F50494E004C45445F50494ECF
:10465000004C43445F50494E535F5253004C434417
:104660005F50494E535F454E41424C45004C4344D8
:104670005F50494E535F4437004C43445F50494EAE
:10468000535F4436004C43445F50494E535F4435BA
:10469000004C43445F50494E535F44340048454109
:1046A0005445525F4245445F50494E00484541548D
:1046B00045525F305F50494E0046494C5F52554E5F
:1046C0004F55545F50494E0046414E325F50494E5F
:1046D0000046414E315F50494E0046414E5F5049C1
:1046E0004E0045315F535445505F50494E004531AF
:1046F0005F454E41424C455F50494E0045315F4455
:1047000049525F50494E0045315F43535F50494E17
:104710000045305F535445505F50494E0045305F6F
:10472000454E41424C455F50494E0045305F44493B
:10473000525F50494E0045305F4155544F5F4641EE
:104740004E5F50494E00455F4D5558325F50494EBF
:1047500000455F4D5558315F50494E00455F4D55FE
:1047600058305F50494E00444F474C43445F5343D9
:104770004B00444F474C43445F4D4F534900434F18
:104780004E54524F4C4C45525F46414E5F50494E3D
:104790000042544E5F454E430042544E5F454E32F8
:1047A0000042544E5F454E31004245455045525FF0
:1047B00050494E004156525F53535F50494E00419D
:1047C00056525F53434B5F50494E004156525F4D26
:1047D0004F53495F50494E004156525F4D49534F28
:1047E0005F50494E0054454D505F4245445F50492B
:1047F0004E0054454D505F315F50494E0054454D79
:10480000505F305F50494E00545844300052584475
:10481000300050574D3A20202534640050574D3A0F
:1048200020202534640050574D3A20202534640060
:1048300050574D3A20202534640050574D3A2020DF
:104840002534640050574D3A2020253464005057D9
:104850004D3A20202534640050574D3A202025340D
:10486000640050574D3A20202534640050574D3A8B
:1048700020202534640050574D3A20202534640010
:1048800050574D3A20202534640050574D3A20208F
:104890002534640050574D3A202025346400505789
:1048A0004D3A20202534640050574D3A20202534BD
:1048B00064003A200020202020434F4D002020207B
:1048C0006E6F6E2D7374616E646172642050574D0B
:1048D000206D6F646500202020636F6D70617265CC
:1048E00020696E7465727275707420656E61626C99
:1048F0006564002020206F766572666C6F77206992
:104900006E7465727275707420656E61626C656438
:10491000003A20002020202054494D534B00423AB9
:104920002000202020205443435200413A20002000
:1049300020202054434352002020202043533A207B
:10494000002020202057474D3A200050574D3A2054
:10495000202534640050574D3A2020253464004708
:10496000004800000088008A008C00B300B40000FA
:104970000098009A009C00A800AA00AC0028012A18
:10498000012C012020202054494D4552004400456F
:10499000006E00800081006F00B000B100700090D8
:1049A0000091007100A000A100720020012101739C
:1049B0000020697320616C736F20746965642074D2
:1049C0006F20746869732070696E0054494D4552B8
:1049D0003143000A202E0020200000000A0B0209AB
:1049E0000C0D0E0807030401000000000000000089
:1049F00000000000000000000000000000000000B7
:104A00000000000000001211100000000000000073
:104A10000000000000000000000000000000000096
:104A2000000000000000000000000102102020082B
:104A300008102040102040800201020108040201F9
:104A40000102040810204080804020100804020168
:104A500080040201804020100804020108040201C1
:104A60000102040810204080010204081020408048
:104A7000100804088010204004408010204004806A
:104A800005050505070508080808020202020A0ACA
:104A900008080404040401010101010101010303E8
:104AA000030303030303040707070C0C0C0C0C0C93
:104AB0000C0C0202020206060606060606060B0B90
:104AC0000B0B0B0B0B0B07070A0A0A0A0A0A050550
:104AD0000504040408082020506F72743A20002056
:104AE000202000202020416E616C6F6720696E20BD
:104AF0003D2025356C64003C756E757365642F75BB
:104B00006E6B6E6F776E3E0020284125326429203F
:104B10002000253364200050494E3A20004F757420
:104B2000707574203D2000496E70757420203D2002
:104B300000416E616C6F6720696E203D2025356CE9
:104B4000640070726F74656374656420002028418E
:104B500025326429202000253364200050494E3A34
:104B600020000D48000108480101FD474300F247BD
:104B70004500E5474400D8473201CB473301BF47E2
:104B80003401B4473501A9472501A14721019947BF
:104B90001F01914723017E47070172473301674791
:104BA00034015C47280151472A0146472C0136470A
:104BB0002C012B471C011D47180111471A010747FB
:104BC0002C01FC462201EE461E01E2462401DA4693
:104BD0000901D1460701C8462C01B9460201AC467D
:104BE0000A019D460801914617018546190179463B
:104BF0001B016D461D015D461101514610014946DC
:104C00000D013A46420131463201284633011A4627
:104C10000A010D46080100460901F8453401EA453C
:104C20003101E5453501DA450B01CF450601C445A3
:104C30000501B9450401B2453501A84537019B4539
:104C4000260191450301864536017B4503017145E7
:104C50003D01644538015A450E014F453C0144452C
:104C60000E013A4530012D453E01234512011845FC
:104C70002E010D451201416D6178204500416D61A5
:104C800078205A00416D6178205900416D6178208B
:104C90005800412D54726176656C00412D52657447
:104CA0007261637400416363656C004520737465D1
:104CB00070732F6D6D005A2053746570732F6D6D76
:104CC00000592053746570732F6D6D005820537414
:104CD0006570732F6D6D00416476616E636564204D
:104CE00053657474696E6773003F0043616E63655A
:104CF0006C00496E6974004D34323800496E697435
:104D000069616C697A6520454550524F4D0046698E
:104D10006C616D656E740054656D7065726174755B
:104D200072650053746570732F6D6D004A756E6304
:104D300074696F6E2044657600416363656C6572CB
:104D40006174696F6E0056656C6F636974790053A6
:104D5000657420486F6D65204F66667365747300D7
:104D6000436F6E66696775726174696F6E000000EB
:104D70002110422063308440A550C660E77008814E
:104D800029914AA16BB18CC1ADD1CEE1EFF13112C5
:104D9000100273325222B5529442F772D66239939E
:104DA00018837BB35AA3BDD39CC3FFF3DEE3622415
:104DB000433420040114E664C774A44485546AA5EE
:104DC0004BB528850995EEE5CFF5ACC58DD55336A5
:104DD000722611163006D776F6669556B4465BB73E
:104DE0007AA719973887DFF7FEE79DD7BCC7C44875
:104DF000E5588668A7784008611802282338CCC98E
:104E0000EDD98EE9AFF9488969990AA92BB9F55A04
:104E1000D44AB77A966A711A500A333A122AFDDBDD
:104E2000DCCBBFFB9EEB799B588B3BBB1AABA66CD4
:104E3000877CE44CC55C222C033C600C411CAEED2D
:104E40008FFDECCDCDDD2AAD0BBD688D499D977EE4
:104E5000B66ED55EF44E133E322E511E700E9FFF7D
:104E6000BEEFDDDFFCCF1BBF3AAF599F788F889133
:104E7000A981CAB1EBA10CD12DC14EF16FE1801017
:104E8000A100C230E3200450254046706760B9831A
:104E90009893FBA3DAB33DC31CD37FE35EF3B10267
:104EA0009012F322D2323542145277625672EAB52A
:104EB000CBA5A89589856EF54FE52CD50DC5E234B7
:104EC000C324A01481046674476424540544DBA7FA
:104ED000FAB79987B8975FE77EF71DC73CD7D32607
:104EE000F2369106B01657667676154634564CD98A
:104EF0006DC90EF92FE9C899E9898AB9ABA9445857
:104F0000654806782768C018E1088238A3287DCB59
:104F10005CDB3FEB1EFBF98BD89BBBAB9ABB754AA6
:104F2000545A376A167AF10AD01AB32A923A2EFDE9
:104F30000FED6CDD4DCDAABD8BADE89DC98D267CF6
:104F4000076C645C454CA23C832CE01CC10C1FEF39
:104F50003EFF5DCF7CDF9BAFBABFD98FF89F176E46
:104F6000367E554E745E932EB23ED10EF01E204515
:104F70003A00205A3A0020593A00583A00436170EA
:104F80003A0047322F4733206261642070617261BA
:104F90006D65746572730A00220A00656E7175652D
:104FA0007565696E672022006F6B00526573656ED0
:104FB000643A2000202F002042403A0020403A006E
:104FC00020573A000009121B242D363F48415A53FE
:104FD0006C657E7719100B023D342F265158434AD9
:104FE000757C676E323B2029161F040D7A73686149
:104FF0005E574C452B2239300F061D14636A7178B9
:10500000474E555C646D767F4049525B2C253E3798
:1050100008011A137D746F6659504B42353C272E98
:105020001118030A565F444D727B60691E170C0508
:105030003A3328214F465D546B627970070E151C78
:10504000232A31384148535A656C777E09001B1278
:105050002D243F3658514A437C756E671019020B58
:10506000343D262F737A6168575E454C3B322920C8
:105070001F160D046A6378714E475C55222B303938
:10508000060F141D252C373E0108131A6D647F7618
:1050900049405B523C352E2718110A03747D666F18
:1050A0005059424B171E050C333A21285F564D4488
:1050B0007B7269600E071C152A233831464F545DF8
:1050C000626B70797C3C3E5E2B3D3F2F5B5D3B2CE1
:1050D0002A225C005072696E742041626F7274659E
:1050E00064004D323520500A4D32340050617573E2
:1050F000696E672E2E2E005045544700504C4100DB
:1051000000002100240027002A002D003000330079
:1051100001010000040107010A010000220025002E
:1051200028002B002E003100340002010000050190
:1051300008010B01000020002300260029002C009C
:105140002F003200000100000301060109010505DE
:105150000505070508080808020202020A0A0808ED
:10516000040404040101010101010101030303031B
:1051700003030303040707070C0C0C0C0C0C0C0CAA
:105180000202020206060606060606060B0B0B0BBB
:105190000B0B0B0B010210202008081020401020E0
:1051A00040800201020108040201010204081020EB
:1051B00040808040201008040201800402018040E9
:1051C0002010080402010804020101020408102052
:1051D0004080010204081020408000000A0B0209F0
:1051E0000C0D0E0807030401000000000000000081
:1051F00000000000000000000000000000000000AF
:10520000000000000000121110000000000000006B
:10521000000000000000000000000000000000008E
:10522000004D6F76652025736D6D004D6F7665209E
:10523000302E316D6D004D6F766520316D6D004DF6
:105240006F76652031306D6D004D6F766520417849
:105250006973004578747275646572004D6F766588
:10526000205A004D6F76652059004D6F76652058A5
:1052700000FC50F7504368616E67652046696C61B9
:105280006D656E7400556E6C6F61642046696C616B
:105290006D656E74004C6F61642046696C616D656C
:1052A0006E74005072656865617420437573746F25
:1052B0006D00507265686561742024004261636B03
:1052C00000454550524F4D206461746173697A65A1
:1052D000206572726F722E0A00290A0020627974AA
:1052E00065733B2063726320002073746F72656482
:1052F0002073657474696E67732072657472696572
:10530000766564202800202863616C63756C617485
:10531000656429210A0020213D2000454550524F57
:105320004D20435243206D69736D61746368202D75
:10533000202873746F7265642920002053697A6590
:105340003A2000496E6465783A20004669656C64CD
:10535000206261636B6C6173685F64697374616E12
:1053600063655F6D6D206D69736D617463682E0A8E
:10537000004669656C642066635F73657474696E6A
:105380006773206D69736D617463682E0A004669E6
:10539000656C6420706C616E6E65725F736B6577AF
:1053A0005F666163746F72206D69736D61746368A9
:1053B0002E0A004669656C6420636F6F7264696EC3
:1053C0006174655F73797374656D206D69736D6168
:1053D0007463682E0A0044494749504F5453204C87
:1053E0006F616465640A0044494749504F54532033
:1053F0004C6F6164696E670A004669656C64206D74
:105400006F746F725F63757272656E745F736574CB
:1054100074696E67206D69736D617463682E0A002C
:105420004669656C6420706C616E6E65725F65784C
:105430007472756465725F616476616E63655F4BFB
:10544000206D69736D617463682E0A004669656C2E
:105450006420746D635F737465616C74685F656EFE
:1054600061626C6564206D69736D617463682E0A96
:10547000004669656C6420746D635F736774206DAA
:1054800069736D617463682E0A004669656C6420F7
:10549000746D635F6879627269645F746872657362
:1054A000686F6C64206D69736D617463682E0A00A7
:1054B0004669656C6420746D635F737465707065B4
:1054C000725F63757272656E74206D69736D61745D
:1054D00063682E0A004669656C64207061727365AA
:1054E000725F766F6C756D65747269635F656E610E
:1054F000626C6564206D69736D617463682E0A0067
:105500004669656C64206677726574726163745F66
:1055100073657474696E6773206D69736D6174630C
:10552000682E0A004669656C64207265636F766553
:1055300072795F656E61626C6564206D69736D611F
:105540007463682E0A004669656C6420636F6E742C
:10555000726F6C6C657246616E5F73657474696EB0
:105560006773206D69736D617463682E0A00466904
:10557000656C64206C63645F636F6E7472617374D6
:10558000206D69736D617463682E0A004669656CED
:105590006420706F7765725F6D6F6E69746F725F94
:1055A000666C616773206D69736D617463682E0A40
:1055B000004669656C64206C70715F6C656E206D6F
:1055C00069736D617463682E0A004669656C6420B6
:1055D00075695F6D6174657269616C5F7072657326
:1055E0006574206D69736D617463682E0A00466985
:1055F000656C6420626C746F7563685F6C61737452
:105600005F7772697474656E5F6D6F6465206D6934
:10561000736D617463682E0A004669656C6420735B
:105620006572766F5F616E676C6573206D69736D0F
:10563000617463682E0A004669656C6420706C6151
:105640006E6E65725F6C6576656C696E675F6163CF
:1056500074697665206D69736D617463682E0A00E4
:105660004669656C642070726F62655F6F66667311
:105670006574206D69736D617463682E0A004669F4
:10568000656C642072756E6F75745F73656E736F91
:10569000725F656E61626C6564206D69736D6174C3
:1056A00063682E0A004669656C6420686F6D655FEB
:1056B0006F6666736574206D69736D617463682EBF
:1056C0000A004669656C6420657374657070657264
:1056D00073206D69736D617463682E0A00204D61DB
:1056E000726C696E3D563832290A00454550524F5A
:1056F0004D2076657273696F6E206D69736D61748C
:1057000063682028454550524F4D3D00506C6561FF
:105710007365205265736574005052494E5445526A
:105720002048414C5445440025533A202553004B12
:10573000494C4C45442E20005072696E74657220AD
:1057400068616C7465642E206B696C6C2829206319
:10575000616C6C6564210A006563686F3A0045728C
:10576000726F723A00486F74656E6420746F6F20B8
:10577000636F6C640A005072657373206275747491
:105780006F6E20746F20726573756D650A00496EC7
:10579000736572742066696C616D656E7420616EEC
:1057A0006420707265737320627574746F6E0A0082
:1057B000507265737320627574746F6E20746F20FD
:1057C00068656174206E6F7A7A6C650A0043616E59
:1057D0006E6F74206F70656E2073756264697220DD
:1057E000005072696E742050617573656400507268
:1057F000696E742066726F6D204D65646961004941
:105800006E736572742066696C616D656E7420617B
:105810006E6420707265737320627574746F6E0AA3
:1058200000416E79637562696320344D415820529E
:10583000656164792E005072696E74696E672E2EF0
:105840002E00454550524F4D20496E697469616C78
:10585000697A65640A0048617264636F64656420F4
:1058600044656661756C742053657474696E677302
:10587000204C6F616465640A000000964300009646
:1058800043000020410000C8410000A0420000A0E9
:10589000420000C8433333B942DC050000DC050098
:1058A0000064000000102700003B200020204D363F
:1058B0003033200020204D34313220530046696CB3
:1058C000616D656E742072756E6F75742073656E90
:1058D000736F723A002055004C0046696C616D652B
:1058E0006E74206C6F61642F756E6C6F6164206CD8
:1058F000656E677468733A002044002049002020D8
:105900004D33303120500050494420736574746920
:105910006E67733A00204600204200204800202095
:105920004D3134352053004D6174657269616C20CE
:1059300068656174757020706172616D65746572FF
:10594000733A0020204D323036205800486F6D6584
:10595000206F66667365743A00204A002053002069
:10596000204D323035204200416476616E636564BB
:105970003A20423C6D696E5F7365676D656E745F5A
:1059800074696D655F75733E20533C6D696E5F662B
:10599000656564726174653E20543C6D696E5F7428
:1059A000726176656C5F66656564726174653E20E0
:1059B0004A3C6A756E635F6465763E002054002041
:1059C000520020204D323034205000416363656C1A
:1059D00065726174696F6E2028756E6974732F73B8
:1059E00032293A20503C7072696E745F616363655E
:1059F0006C3E20523C726574726163745F616363D4
:105A0000656C3E20543C74726176656C5F616363C3
:105A1000656C3E0020204D3230312058004D6178B9
:105A2000696D756D20416363656C65726174696F42
:105A30006E2028756E6974732F7332293A002045E1
:105A400000205A0020590020204D323033205800C9
:105A50004D6178696D756D20666565647261746508
:105A6000732028756E6974732F73293A0053746517
:105A700070732070657220756E69743A002044005E
:105A800020204D3230302053002044697361626C15
:105A900065640A0046696C616D656E742073657497
:105AA00074696E67733A0020204D313439204320E9
:105AB0003B20556E69747320696E2043656C736971
:105AC00075730A0020286D6D29002020473231208F
:105AD0002020203B20556E69747320696E206D6D07
