:100000000C94DD300C940E310C940E310C940E31A6
:100010000C940E310C940E310C940E310C940E3164
:100020000C940E310C940E310C940E310C940E3154
:100030000C940E310C94C88D0C940E310C940E312E
:100040000C940E310D9487330C940E310C940E31B8
:100050000C940E310C940E310C9477AE0D94C33782
:100060000C940E310C94D2500C94C8500C940E3158
:100070000C940E310C940E310C940E310C940E3104
:100080000C9460490C940E310C940E310C940E318A
:100090000C940E310C940E310C940E310C940E31E4
:1000A0000C940E310C940E310C9432490C940E3198
:1000B0000C940E310C940E310C940E310C940E31C4
:1000C0000C940E310C940E310C940E310C940E31B4
:1000D0000C940E310C940E310C940E310C940E31A4
:1000E0000C940E3153D936D939D956D93CD93FD988
:1000F00042D94ED945D961D948D94BD991E2B3E219
:10010000D3E2F8E21DE3D4E442E365E388E3ADE340
:10011000D2E3F7E31CE441E4D4E466E48BE4B0E426
:1001200043E646E64AE64DE650E67AE654E657E60A
:100130005BE65EE661E665E668E66BE67AE66FE654
:1001400072E675E6D6010C02C602A601D201800154
:10015000220292019C022602F8019A0146029A02AA
:100160008001B0012A01C802F401C40222010A027E
:100170005C01BC02DC022E02A401B202D00120010B
:10018000CA01C001BC028E012C0202021202EA0264
:10019000300274023002300230023002300230028B
:1001A00030023002300230023002300230023002BF
:1001B00030023002300230023002300230023002AF
:1001C000300230023002300262023002300230026D
:1001D000300230023002300230022C013002300294
:1001E000300230023002300230023002300230027F
:1001F000E0012401084AD73B3BCE016E84BCBFFD21
:10020000C12F3D6C74319ABD56833DDA3D00C77FE6
:1002100011BED9E4BB4C3E916BAAAABE000000807F
:100220003F05A84CCDB2D44EB93836A9020C50B90E
:10023000918688083CA6AAAA2ABE000000803F003A
:100240000D94A7140D945B140D9430200C941A5146
:100250000C942FAC0D94AC110D949A210C94DF9E4C
:100260000C94F87A0C9468E60C9488E30C9470ABC8
:100270000C944FD30C940AD90C9475E60C94C7ECEB
:100280000C94BDD20C9461AB0C9491E20C9431AB04
:100290000C9442E30C94B3E20C9405A20C94195113
:1002A0000C944D660C943BD70C9430A70C941CE432
:1002B0000C94ADE30C94EFD60D946F140C9465E39D
:1002C0000C9436AE0C94DBA50C9436660C9457E671
:1002D0000C94E7D60C94DFD60C94A4D20C94D6A040
:1002E0000C9466E40C944FA10C94DBD60C94F8E2C9
:1002F0000C945EE60D94A70D0D948A1F0C941DE3DB
:100300000D94B5110D94BC0A0C947CAB0C9435D7AC
:100310000C94C2810C94D2E30C947AE60D94CA1426
:100320000C94E2680D9486110C943CD90C945FAC4B
:100330000C948BE40D949A110C944DAC0C947FA703
:100340000C94E59E0D94841F0D9489140D947111E5
:100350000C94A7EA0C9462A70C94E8D30C9436D9B9
:100360000D94A8110C94C3EC0C9448D90C9492A150
:100370000D941A410C94857C0C94597C0C9452ABCE
:100380000D94C0140D94A50A0C946FE60C940DA264
:100390000C9427AE0D94B6140C94A7510C94CDEC8C
:1003A0000D949D140D9477110C9459AC0D947B1100
:1003B0000C9453D90C94BFEC0D94280D0C94C5ECFF
:1003C0000D94DE210C945BE60C94FBD60C94D3E2E6
:1003D0000C9445D90C94448D0C9443E60C9453AC86
:1003E0000C9461D90C94C1D40D9451140C94F580E3
:1003F0000D9494110D94720D0C944CA90C9422D769
:100400000C9441E40D94DE140C9404D70C948F7C6E
:100410000C9414AC0D9465140D947E110C94CBECDB
:100420000C944AE60D948B210C9435AC0C94CCA022
:100430000C94A9AA0C9483A60C9410D70C94C8AA67
:100440000C94807C0D9482110C946BE60D949011A9
:100450000C941D510C940BAC0D94D4140D94811478
:100460000D9433200C947A7C0C94708D0C94C3A65C
:100470000C9461E60C94F1A60D94871F0C94067EF3
:100480000C9439D90C94CD9E0C9454E60D949E1185
:100490000C943FAE0C94946A0C9404A70D94004104
:1004A0000C9491E90C948BD20C9446E60C94F17C5C
:1004B0000C9447D70C94168D0C94D39E0C944551F4
:1004C0000C9478D20D94C1210C94C9EC0D94C00AFF
:1004D0000C94D7D60C9401D70C94F87C0C9416D9B4
:1004E0000C94D4E40C94AAA60D94C7210C94EBD6DA
:1004F0000C94F7E30C9472E60C94BCAB0D94B40A24
:100500000C94B09E0C9441AC0C9447AC0C9449A74D
:100510000C9465E60C94C1EC0C94D1A00C94B0E45E
:100520000C941F660C94DEA60C944ED90C9491A6E4
:100530000C947C7F0D94A2110D948C110C949EEC64
:100540000C94F3D60C943BAC0C9451A10C94A05E8B
:100550000C94BDEC0C948A7C0C9442D90C9450E61B
:100560000C94F7D60D9493140C9423AC0C943FD9AF
:100570000C9475A30C94E3D60D94E8140C94FED659
:100580000C9429AC0C94557C0D9456140D946D115B
:100590000D94B0110C947BA70C94CBAB0C94D3D6D8
:1005A0000C94EB6D0C9441D70C94D57A0C941DA748
:1005B0000C94B1A10C9456D90D9479140C944E7CE2
:1005C0000C948FAA0D94B80A0C94EC8C0C94577C64
:1005D0000C944DE60D94FA1F0C94D99E0C944BD9B3
:1005E0000C94C7A04E414E494E495459494E46CDF0
:1005F000CCCC3D0AD7233C17B7D13877CC2B3295DA
:1006000095E6241FB14F0A000020410000C84200B7
:10061000401C4620BCBE4CCA1B0E5AAEC59D740081
:10062000407A10F35A00A0724E18090010A5D4E8C1
:100630000000E87648170000E40B54020000CA9A54
:100640003B000000E1F505000080969800000040A6
:10065000420F000000A086010000001027000000EB
:1006600000E803000000006400000000000A000031
:100670000000000100000000002C76D888DC674FE5
:100680000823DFC1DFAE59E1B1B796E5E3E453C615
:100690003AE651997696E8E6C28426EB898C9B620D
:1006A000ED407C6FFCEFBC9C9F40F2BAA56FA5F4B7
:1006B00090055A2AF75C936B6CF9676DC11BFCE0DF
:1006C000E40D47FEF520E6B500D0ED902E03009432
:1006D0003577050080841E080000204E0A000000C7
:1006E000C80C333333330F986E12831141EF8D21D1
:1006F00014893BE65516CFFEE6DB18D1844B381B38
:10070000F77C1D901DA4BBE424203284725E2281FC
:1007100000C9F124ECA1E53D27434F4D4D554E490D
:10072000434154494F4E0044525952554E00455290
:10073000524F525300494E464F004543484F002008
:10074000746F6F206C6F6E67206578747275736953
:100750006F6E2070726576656E7465640A00206342
:100760006F6C6420657874727573696F6E20707237
:100770006576656E7465640A0057617274656E2EE5
:100780002E2E005A2050726F6265205061737420C3
:100790004265640A005A2D536F6E6465206175C30B
:1007A0009F657268616C62004B6C69636B207A753F
:1007B0006D20466F72747365747A656E004D6F7448
:1007C0006F72656E20616E6765736368616C7465D6
:1007D0007400456E642066696C65206C6973740AE8
:1007E00000426567696E2066696C65206C69737488
:1007F0000A004E6F206D656469610A00286E6F20E3
:1008000066696C65290043757272656E742066694D
:100810006C653A20005344207072696E74696E678B
:10082000206279746520004E6F74205344207072EA
:10083000696E74696E670A002E0A0044656C6574FF
:10084000696F6E206661696C65642C2046696C6511
:100850003A200046696C652064656C657465643A8D
:100860000043616E6E6F74206F70656E20737562E9
:1008700064697220002569730025696D20256973FC
:10088000002569682025696D202569730025696444
:10089000202569682025696D2025697300256979FF
:1008A00020256964202569682025696D20256973E4
:1008B000005072696E742074696D653A20006BC3D4
:1008C000BC686C742E2E2E006865697A742E2E2EEC
:1008D0000045202553006F6B006F6666003A0735B0
:1008E000072E072707190744454255473A004D315F
:1008F00031322053687574646F776E004D31313337
:10090000205300416E79637562696320344D41580C
:10091000204F46462E004348414D4245525F5445C4
:100920004D5045524154555245004241425953544D
:10093000455050494E470041524353004D4F544992
:100940004F4E5F4D4F44455300544845524D414C26
:100950005F50524F54454354494F4E004C4F4E4701
:100960005F46494C454E414D45004155544F524517
:10097000504F52545F53445F5354415455530053A6
:1009800044434152440050524F4D50545F535550D0
:10099000504F525400454D455247454E43595F50C4
:1009A000415253455200434153455F4C49474854D7
:1009B0005F4252494748544E45535300544F4747AE
:1009C0004C455F4C494748545300534F4654574198
:1009D00052455F504F574552004255494C445F5075
:1009E000455243454E54004C4556454C494E475F91
:1009F00044415441005A5F50524F42450052554EB7
:100A00004F5554004155544F4C4556454C0050529B
:100A1000494E545F4A4F420050524F47524553533C
:100A2000004155544F5245504F52545F54454D501C
:100A300000564F4C554D4554524943004545505280
:100A40004F4D0042494E4152595F46494C455F5413
:100A500052414E534645520053455249414C5F580E
:100A60004F4E5F584F4646004649524D57415245FA
:100A70005F4E414D453A4D61726C696E20344D4177
:100A80005820322E312E3030303342455441202808
:100A90004E6F7620203820323032302031393A31D2
:100AA000313A32392920534F555243455F434F4421
:100AB000455F55524C3A68747470733A2F2F6769CA
:100AC000746875622E636F6D2F47656D696E69532B
:100AD00065727665722F4D61726C696E2050524F4F
:100AE000544F434F4C5F56455253494F4E3A312E67
:100AF00030204D414348494E455F545950453A4195
:100B00006E79637562696320344D415820455854AD
:100B100052554445525F434F554E543A3120555536
:100B200049443A36616131343764322D6666643542
:100B30002D313165392D386437312D3336326239F4
:100B4000653135353636370A002F2F20004D3134C8
:100B50003520533C696E6465783E206F7574206F54
:100B6000662072616E67652028302D31290A0020C9
:100B70005200416363656C65726174696F6E3A20FF
:100B800050003F4A206F7574206F662072616E6757
:100B9000652028302E303120746F20302E33290A02
:100BA000004D32303620580046523A0020466C6FD5
:100BB000773A200020643A0020693A0020703A0019
:100BC000496E76616C6964206578747275646572CB
:100BD0000A0064697300656E0043290A0061626C53
:100BE000656420286D696E2074656D702000436F08
:100BF0006C64206578747275646573206172652019
:100C0000004F4646004F4E0046696C616D656E743C
:100C10002072756E6F75742000486F6D6576657211
:100C20007361747A20616B746976004572723A2040
:100C3000546F6F206661722100546F6F206661727D
:100C40002066726F6D207265666572656E636520E1
:100C5000706F696E740A00454550524F4D204F4BDE
:100C60000A004D383400446F6E65207072696E74EE
:100C7000696E672066696C650A004D3737004D3331
:100C80003100496E76616C696420657874727564B0
:100C900065720A004572726F722077726974696EAC
:100CA0006720746F20454550524F4D210A0036375A
:100CB00026033C3D380E2E303E121A1C180A2C43D7
:100CC00009072C07084400014D343130004D313103
:100CD00032004D31303800414E474548414C544573
:100CE0004E005072696E7465722073746F70706517
:100CF000642064756520746F206572726F72732E44
:100D00002046697820746865206572726F72206170
:100D10006E6420757365204D39393920746F2072E7
:100D20006573746172742E202854656D70657261EC
:100D3000747572652069732072657365742E205313
:100D400065742069742061667465722072657374BD
:100D5000617274696E67290A004E6F20436865638B
:100D60006B73756D2077697468206C696E65206E91
:100D7000756D6265722C204C617374204C696E65D0
:100D80003A20004E6F20436865636B73756D207762
:100D9000697468206C696E65206E756D6265722C71
:100DA000204C617374204C696E653A20006368655D
:100DB000636B73756D206D69736D617463682C204E
:100DC0004C617374204C696E653A20004C696E6505
:100DD000204E756D626572206973206E6F74204CB1
:100DE000617374204C696E65204E756D6265722B5F
:100DF000312C204C617374204C696E653A20004D93
:100E00003131300053442072656164206572726F25
:100E1000720A002121204B494C4C20636175736597
:100E20006420627920746F6F206D75636820696E2D
:100E30006163746976652074696D65202D20637522
:100E40007272656E7420636F6D6D616E643A20001E
:100E5000627573793A2070617573656420666F728C
:100E600020696E7075740A00627573793A2070613A
:100E70007573656420666F7220757365720A00620F
:100E80007573793A2070726F63657373696E670A60
:100E9000004D656469756D20656E746665726E746B
:100EA000004D656469756D2065726B616E6E7400CE
:100EB0004D3630300020573A0042657474206BC3C1
:100EC000BC686C742E2E2E004265747420686569AF
:100ED0007A742E2E2E0023646566696E6520444563
:100EE0004641554C545F004B6420004B6920004B39
:100EF000702000504944204175746F74756E6520F0
:100F000066696E6973686564212050757420746821
:100F100065206C617374204B702C204B6920616ECE
:100F200064204B6420636F6E7374616E747320660B
:100F3000726F6D2062656C6F7720696E746F2043ED
:100F40006F6E66696775726174696F6E2E680A00EC
:100F5000504944204175746F74756E6520666169EF
:100F60006C6564212074696D656F75740A00504961
:100F700044204175746F74756E65206661696C6597
:100F800064212054656D706572617475726520749A
:100F90006F6F20686967680A00204B643A20002060
:100FA0004B693A2000204B703A20000A20436C61C4
:100FB0007373696320504944200A002054753A2015
:100FC00000204B753A2000206D61783A2000206D9A
:100FD000696E3A200020643A200020626961733A09
:100FE0002000504944204175746F74756E652073FC
:100FF000746172740A00504944204175746F7475AD
:101000006E65206661696C6564212054656D70654C
:1010100072617475726520746F6F20686967680A01
:1010200000504944204175746F74756E65005049D5
:1010300044204175746F74756E65206661696C65D6
:101040006421204261642065787472756465722041
:101050006E756D6265720A004572723A207574662B
:101060003820666F6E74206E6F7420696E697469C3
:10107000616C697A65642E004572723A20757466F7
:101080003820666F6E74206E6F7420696E697469A3
:10109000616C697A65642E004572723A20757466D7
:1010A0003820666F6E74206E6F7420696E69746983
:1010B000616C697A65642E00000C0F00FE07022542
:1010C00003BB01FFFE0AFE08FE05080806000040FB
:1010D000F0C88888987810050808060000C0F888CD
:1010E00088888888F80505050600012030F830203A
:1010F0000508080600002070F820202020E00509DF
:10110000090600FF2070A8A8B88888702007050588
:10111000070001D86C366CD80509090600FFF8A84D
:101120008888888888A8F8050A0A0600FE2050509A
:10113000505088A8A8887003030306000340A0400D
:10114000FFFFFFFFFFFFFFFFFFFFFFFFFFFFFFFFAF
:10115000FFFFFFFFFFFF0000000605FF0107070676
:10116000020080808080800080030303060105A0C8
:10117000A0A005060606000050F85050F8500509DA
:10118000090600FF2070A8A07028A8702005070796
:10119000060000C8C8102040989805070706000000
:1011A00040A0A040A890680103030602058080804B
:1011B0000309090601FF2040408080804040200351
:1011C00009090601FF80404020202040408005079B
:1011D0000706000020A8702070A82005050506005D
:1011E000012020F820200203030601FFC0408005F3
:1011F0000101060003F8020202060100C0C0050753
:101200000706000008101020404080050707060070
:1012100000708898A8C8887003070706010040C0BE
:1012200040404040E0050707060000708808102095
:1012300040F8050707060000F80810300888700518
:10124000070706000010305090F810100507070639
:101250000000F880F00808887005070706000030D5
:101260004080F0888870050707060000F808101015
:101270002020200507070600007088887088887085
:1012800005070706000070888878081060020505C9
:10129000060100C0C000C0C00206060601FFC0C0B3
:1012A00000C0408003050506010120408040200564
:1012B0000303060002F800F803050506010180405B
:1012C00020408005070706000070881020200020BD
:1012D0000507070600007088B8A8B88070050707E2
:1012E000060000708888F8888888050707060000CF
:1012F000F04848704848F0050707060000708880ED
:1013000080808870050707060000F0484848484874
:10131000F0050707060000F88080F08080F80507D8
:1013200007060000F88080F080808005070706002F
:1013300000708880809888700507070600008888FC
:1013400088F8888888030707060100E0404040408D
:1013500040E00507070600003810101010906005E7
:1013600007070600008890A0C0A090880507070620
:101370000000808080808080F805070706000088D4
:10138000D8A8888888880507070600008888C8A824
:101390009888880507070600007088888888887004
:1013A000050707060000F08888F0808080050707A1
:1013B00006000070888888A8906805070706000066
:1013C000F08888F0A09088050707060000708880E4
:1013D00070088870050707060000F82020202020EC
:1013E0002005070706000088888888888870050718
:1013F00007060000888888885050200507070600E7
:101400000088888888A8A8500507070600008888F3
:101410005020508888050707060000888850202043
:101420002020050707060000F80810204080F80378
:1014300009090601FFE080808080808080E0050748
:10144000070600008040402010100803090906012B
:10145000FFE020202020202020E0050303060005D7
:101460002050880501010600FEF80303030601056C
:10147000804020050505060000700878887805077B
:10148000070600008080F0888888F00505050600C2
:1014900000708080887005070706000008087888BB
:1014A0008888780505050600007088F080700507BB
:1014B00007060000304840E04040400507070600AE
:1014C000FE7088888878087005070706000080800D
:1014D000F0888888880307070601004000C0404064
:1014E00040E00409090601FE1000301010101090B1
:1014F0006005070706000080808890E09088030759
:1015000007060100C04040404040E00505050600D8
:1015100000D0A8A8A8A8050505060000B0C88888BE
:10152000880505050600007088888870050707068D
:1015300000FEF0888888F080800507070600FE78A6
:10154000888888780808050505060000B0C88080EE
:101550008005050506000078807008F0050707067D
:1015600000002020F820202018050505060000882E
:101570008888986805050506000088888850200539
:1015800005050600008888A8A85005050506000086
:1015900088502050880507070600FE88888850205C
:1015A0004080050505060000F8102040F8030909F1
:1015B0000601FF20404040804040402001090906CC
:1015C00002FF80808080808080808003090906017E
:1015D000FF80404040204040408005030306000259
:1015E00048A890FFFFFFFFFFFFFFFFFFFFFFFFFF88
:1015F000FFFFFFFFFFFFFFFFFFFFFFFFFFFFFFFFFB
:10160000FFFFFFFF0000000605FF010707060200BD
:10161000800080808080800507070600FF2070A87A
:10162000A0A87020050707060000304840E04048A9
:10163000B0050505060000A8508850A80507070654
:1016400000008850F820F8202001070706020080DB
:10165000808000808080040808060100708060900F
:10166000906010E0030101060107A00607070600CD
:10167000007884B4A4B4847803050506010460A04E
:101680006000E00505050600002850A0502805036D
:1016900003060001F80808030101060103E006073C
:1016A000070600007884B4A4A4847805010106002C
:1016B00007F804040406010560909060050707061A
:1016C00000002020F8202000F80305050601044052
:1016D000A02040E0030505060104C0204020C0030F
:1016E00003030601052040800507070600FE8888E1
:1016F0008898E8808005080806000078E8E8E8682F
:10170000282828020202060203C0C00302020601C2
:10171000FE20C003050506010440C04040E003056B
:101720000506010540A04000E0050505060000A0F3
:10173000502850A0050A0A06000040C048506050DA
:10174000B0507810050A0A06000040C048506050AA
:10175000A8081038050A0A060000C0204830E050EA
:10176000B0507810050707060000200020204088B0
:1017700070050A0A060000402000708888F88888F2
:1017800088050A0A060000102000708888F88888FA
:1017900088050A0A060000205000708888F88888AA
:1017A00088050A0A06000068B000708888F88888F2
:1017B000880509090600005000708888F888888824
:1017C000050A0A060000205020708888F88888885A
:1017D00005070706000078A0A0F0A0A0B805090939
:1017E0000600FE708880808088701060050A0A06F6
:1017F0000000402000F88080F08080F8050A0A068A
:101800000000102000F88080F08080F8050A0A06A9
:101810000000205000F88080F08080F8050909065B
:1018200000005000F88080F08080F8030A0A06016A
:1018300000804000E04040404040E0030A0A0601CA
:1018400000204000E04040404040E0030A0A06011A
:101850000040A000E04040404040E003090906018C
:1018600000A000E04040404040E0050707060000BF
:10187000704848E8484870050A0A06000068B00049
:101880008888C8A8988888050A0A060000402000B1
:1018900070888888888870050A0A06000010200071
:1018A00070888888888870050A0A06000020500021
:1018B00070888888888870050A0A06000068B00069
:1018C00070888888888870050909060000500070B3
:1018D0008888888888700505050600018850205092
:1018E000880509090600FF087098A8A8A8C8708094
:1018F000050A0A06000040200088888888888870C9
:10190000050A0A06000010200088888888888870E8
:10191000050A0A0600002050008888888888887098
:1019200005090906000050008888888888887005A5
:101930000A0A060000102000888850202020200479
:10194000070706010080E0909090E08005070706F9
:101950000000708890A09088B0050808060000403C
:10196000200070087888780508080600001020001C
:101970007008788878050808060000205000700874
:1019800078887805080806000068B0007008788834
:101990007805070706000050007008788878050869
:1019A0000806000020502070087888780505050694
:1019B0000000702870A0780507070600FE70888078
:1019C000887010600508080600004020007088F04C
:1019D00080700508080600001020007088F08070F4
:1019E0000508080600002050007088F08070050788
:1019F0000706000050007088F08070030808060198
:101A000000804000C0404040E0030808060100207C
:101A10004000C0404040E003080806010040A0002C
:101A2000C0404040E0030707060100A000C040405E
:101A300040E0050909060000502050087888888891
:101A40007005080806000068B000B0C888888805DE
:101A50000808060000402000708888887005080883
:101A600006000010200070888888700508080600AD
:101A700000205000708888887005080806000068FB
:101A8000B000708888887005070706000050007055
:101A9000888888700505050600012000F8002005EB
:101AA00005050600007898A8C8F00508080600009B
:101AB00040200088888888700508080600001020EB
:101AC0000088888888700508080600002050008873
:101AD0008888887005070706000050008888888875
:101AE00070050A0A0600FE102000888888502040F1
:101AF000800509090600FE8080F0888888F08080D3
:101B00000509090600FE5000888888502040804260
:101B100065747400476568C3A475736500256875AE
:101B20003A25303268750025303268753A253032F2
:101B3000687500256875642025303268753A25304F
:101B4000326875001FE03FF03FF03FF01FE01FE0FC
:101B50003FF03FF03FF00FC0078003001FE0201070
:101B600020102010102010202010201030300840AD
:101B7000048003003FFFF83E00F839F03831E018E8
:101B800031E01821E1E820F3E8207FE82077E82819
:101B9000EE282FDC082FFC082F9E082F0F08300F8F
:101BA00018300F18381F383E00F83FFFF83FFFF895
:101BB0003E00F8383F38307E18307C18287C082CDE
:101BC00038082F39C82FFFE82FC7E82FFFE827393B
:101BD000E8203868207C28307C1830FC1839F83828
:101BE0003E00F83FFFF83FFFF83E00F8380F38346A
:101BF0001FD8361F982F1F082F9E082FFC082FDC98
:101C00000827EFC82077E8207FE820F3E821F1E8F3
:101C100033F0D837F05839E0383E00F83FFFF83F4E
:101C2000FFF83E80F83980383781D837C3D827C7C6
:101C3000E823C7F821FF88206C08206C08206C0876
:101C400023FF083FC7882FC7C83787D83703D8383E
:101C500003383E02F83FFFF81FFFF81FFFF804109B
:101C60004002082002082004104008208010410093
:101C70001041000820800410400000001FFFF81FE2
:101C8000FFF82100140706003372D1C089003F0B12
:101C9000152109002D3A15220900214A15240900B1
:101CA000213A1527A600000000000000FFFFFFFFFB
:101CB000FFC00000000000000B1870E1C3801B0C87
:101CC000F0E0E7003B27F07076003B33F130300066
:101CD0007B3333B818007BB033B80C007BB0373C93
:101CE0006E000330377CE7000330360DC380000000
:101CF00000000000FFFFFFFFFFC000000000000029
:101D000007000008400009649D2F0E000F54A12910
:101D100050000954A12950000957BDEF5E00000092
:101D200080000000000780000000000000000000AC
:101D30000000000000004C6164656E206D6D004580
:101D40006E746C6164656E206D6D0046696C616DCA
:101D5000656E7464757263686D6573736572004552
:101D600020696E206D6DC2B3004D33303320553184
:101D70002045256920532569005049442041757448
:101D80006F74756E65202A005049442D44202A0046
:101D90005049442D49202A005049442D50202A0002
:101DA00020082046616B746F72002008206D6178F6
:101DB000002008206D696E0061757300616E00413E
:101DC00075746F2054656D7065726174757200561C
:101DD000206D696E204C656572666168727400568C
:101DE000206D696E200056206D61782045005620D8
:101DF0006D6178205A0056206D6178205900562078
:101E00006D6178205800FFFDFCFAF8F6F4F2F0EE70
:101E1000ECEAE9E7E5E3E1E0DEDCDAD9D7D5D4D2D4
:101E2000D0CFCDCBCAC8C7C5C3C2C0BFBDBCBAB96D
:101E3000B7B6B4B3B2B0AFADACAAA9A8A6A5A4A2D8
:101E4000A1A09E9D9C9A99989795949392908F8E1D
:101E50008D8B8A8988878684838281807F7E7D7B43
:101E60007A797877767574737271706F6E6D6C6B4A
:101E70006A696867666564636261605F5E5D5C5B3A
:101E80005A5958585756555453525150504F4E4D19
:101E90004C4B4A4A494847464645444342424140E2
:101EA0003F3E3E3D3C3B3B3A39383837363535349A
:101EB0003332323130302F2E2E2D2C2B2B2A292944
:101EC00028272726252524232322212120201F1EE1
:101ED0001E1D1C1C1B1B1A19191818171616151570
:101EE00014131312121111100F0F0E0E0D0D0C0CF6
:101EF0000B0A0A0909080807070606050504040372
:101F000003020201000000005A4300005A4300008F
:101F100096430000A0C000000000000000004569DA
:101F20006E7374656C6C2E206765737065692E0026
:101F3000290A002062797465733B20637263200074
:101F400053657474696E67732053746F726564208F
:101F500028004669656C64206261636B6C6173681C
:101F60005F64697374616E63655F6D6D206D697325
:101F70006D617463682E0A004669656C642066634F
:101F80005F73657474696E6773206D69736D6174D6
:101F900063682E0A004669656C6420706C616E6E21
:101FA00065725F736B65775F666163746F72206DD6
:101FB00069736D617463682E0A004669656C6420FC
:101FC000636F6F7264696E6174655F737973746552
:101FD0006D206D69736D617463682E0A00466965D2
:101FE0006C64206D6F746F725F63757272656E746E
:101FF0005F73657474696E67206D69736D61746376
:10200000682E0A004669656C6420706C616E6E65AE
:10201000725F65787472756465725F616476616E13
:1020200063655F4B206D69736D617463682E0A0090
:102030004669656C6420746D635F737465616C746C
:10204000685F656E61626C6564206D69736D617453
:1020500063682E0A004669656C6420746D635F686E
:1020600079627269645F7468726573686F6C64200A
:102070006D69736D617463682E0A004669656C64EE
:1020800020746D635F737465707065725F637572E1
:1020900072656E74206D69736D617463682E0A00D9
:1020A0004669656C64207061727365725F766F6CEF
:1020B000756D65747269635F656E61626C656420DD
:1020C0006D69736D617463682E0A004669656C649E
:1020D000206677726574726163745F736574746986
:1020E0006E6773206D69736D617463682E0A0046B4
:1020F00069656C64207265636F766572795F656E81
:1021000061626C6564206D69736D617463682E0A29
:10211000004669656C6420636F6E74726F6C6C65E9
:102120007246616E5F73657474696E6773206D6962
:10213000736D617463682E0A004669656C64206C77
:1021400063645F636F6E7472617374206D69736D25
:10215000617463682E0A004669656C6420706F774D
:1021600065725F6D6F6E69746F725F666C616773C5
:10217000206D69736D617463682E0A004669656C31
:102180006420626564504944206D69736D617463B5
:10219000682E0A004669656C64206C70715F6C651E
:1021A0006E206D69736D617463682E0A00466965FF
:1021B0006C6420686F74656E64504944206D697367
:1021C0006D617463682E0A004669656C64207569E8
:1021D0005F6D6174657269616C5F7072657365745F
:1021E000206D69736D617463682E0A004669656CC1
:1021F0006420626C746F7563685F6C6173745F7781
:1022000072697474656E5F6D6F6465206D69736D5E
:10221000617463682E0A004669656C642073657298
:10222000766F5F616E676C6573206D69736D617445
:1022300063682E0A004669656C6420706C616E6E7E
:1022400065725F6C6576656C696E675F6163746902
:102250007665206D69736D617463682E0A00466946
:10226000656C642070726F62655F6F66667365741B
:10227000206D69736D617463682E0A004669656C30
:10228000642072756E6F75745F73656E736F725FC5
:10229000656E61626C6564206D69736D61746368FD
:1022A0002E0A004669656C6420686F6D655F6F6615
:1022B00066736574206D69736D617463682E0A00BE
:1022C0004669656C6420657374657070657273200F
:1022D0006D69736D617463682E0A002100486F7424
:1022E000656E64207A75206B616C74005A7572C3D8
:1022F000BC636B00576569746572004265776567FA
:10230000756E67004D6F746F72656E206465616BEA
:10231000746976696572656E004D38340045636B8B
:10232000656E206E6976656C6C696572656E0048D5
:102330006F6D65205A004732385A00486F6D65202E
:1023400059004732385900486F6D652058004732B0
:102350003858004175746F20486F6D6500473238FA
:102360000048617570746D656EC3BC0024204578AB
:1023700074722E20566F7277C3A4726D656E00243E
:10238000204265747420566F7277C3A4726D656EB7
:102390000054656D706572617475720041626BC343
:1023A000BC686C656E002420566F7277C3A4726D92
:1023B000656E004CC3BC667465720042657474003F
:1023C00044C3BC73650048617570746D656EC3BCB1
:1023D00000466C75737372617465004CC3BC66749F
:1023E000657200426574740044C3BC736500476540
:1023F000736368772E0048617570746D656EC3BC39
:1024000000486F6D696E67206765736368656974FE
:10241000657274006F70656E0054524947474552AB
:102420004544003A200066696C616D656E74007AFF
:102430005F6D696E00795F6D696E00785F6D696EC2
:10244000005265706F7274696E6720656E64737494
:102450006F70207374617475730A00566F726865CB
:10246000722025732573257320686F6D656E0000DB
:1024700000A0C00000000000000000000048420072
:10248000004842000020415761726E696E673A2031
:10249000486F6D696E672042756D7020446976697A
:1024A000736F72203C20310A000202040000A04039
:1024B0000000A0400000004000005F4300005A43BD
:1024C00000009643FFFFFF00000001000000010034
:1024D000008000555555000000400033333300AAFA
:1024E000AA2A004992240000002000C7711C00990C
:1024F000991900D1451700555515003BB11300241B
:1025000049120011111100000010000F0F0F00E31D
:10251000380E0043790D00CCCC0C00C3300C00E821
:10252000A20B0064210B00AAAA0A00703D0A009DBC
:10253000D80900427B090092240900DCD3080088F6
:102540008808001042080000000800F0C10700875A
:1025500087070075500700711C07003EEB0600A1BD
:10256000BC06006990060066660600703E060061C3
:1025700018060017F4050074D105005BB00500B221
:10258000900500627205005555050078390500B8C0
:102590001E0500050505004EEC040087D40400A1CB
:1025A000BD040090A7040049920400C17D0400EE20
:1025B000690400C7560400444404005C3204000867
:1025C00021040041100400000004003FF00300F863
:1025D000E0030026D20300C3C30300CCB503003AD6
:1025E000A803000A9B0300388E0300C08103009FEC
:1025F000750300D0690300505E03001D53030034CF
:10260000480300913D0300333303001629030038CB
:102610001F030097150300300C0300030303000B96
:10262000FA020049F10200BAE802005CE002002D63
:10263000D802002DD0020059C80200B0C0020031FB
:10264000B90200DAB10200AAAA0200A0A30200BCEB
:102650009C0200FA9502005C8F0200DF8802008273
:10266000820200457C0200277602002770020043A8
:102670006A02007C640200D05E02003F590200C87A
:1026800053020001FFFFFFFFFFFFFFFFFFFFFFFF00
:10269000FF0FFFFFFFFFFFFFFFFFFFFFFFFFFF1E1B
:1026A0000000000000000000000007FFFF380000ED
:1026B000000000000000000003FFFF7000000000A9
:1026C00000000000000001FFFF60000000000000AB
:1026D0000000000000FFFF6000000000000000009C
:1026E0000000007FFFC00000000000000000780034
:1026F000003FFFC00FC0FC00000000007818001F62
:10270000FFC03FE1FF0000000000783C000FFFC069
:102710007FF3FF8000000000783C0007FFC0FFFF50
:10272000FFC000000000783C0003FFC1F87F87E095
:102730000000000078000001FFC1F03F03E000004E
:10274000000078000000FFC1E01E01E01F0003E070
:10275000783C03F07FC1E01E01E07FC00FF8783CB9
:1027600007FC3FC1E01E01E1FFE01FFC783C0FFECB
:102770001FC1E01E01E3FFF03FFE783C1FFE0FC1CA
:10278000E01E01E3F3F83F3E783C3F3F07C1E01E07
:1027900001E7E0FC7C1F783C3E1F07C1E01E01E71B
:1027A000C07C7C0F783C3C0F03C1E01E01E7807CBD
:1027B000780F783C3C0F03C1E01E01E7803C7800B5
:1027C000783C3C0F03C1E01E01E7803C7800783C78
:1027D0003C0F03C1E01E01E7803C7800783C3C0FD1
:1027E00003C1E01E01E7C03C7800783C3C0F03C108
:1027F000E01E01E3E03C78007C3C3C0F03C1E01E9E
:1028000001E3FF3FF8007FBC3C0F03C1E01E01E184
:10281000FF3FF8003FBFFC0F03C1E01E01E0FF3F98
:10282000F8001FBFFC0F03C1E01E01E07F3FF8006E
:102830000FBFFC0F0360000000000000000000005C
:102840000000076000000000000000000000000021
:1028500006700000000000000000000000000E38BC
:102860000000000000000000000000001C1E00002E
:1028700000000000000000000000780FFFFFFFFFD5
:10288000FFFFFFFFFFFFFFFFF001FFFFFFFFFFFF65
:10289000FFFFFFFFFFFF8001FFFFFFFFFFFFFFFFC5
:1028A000FFFFFFFFFF0FFFFFFFFFFFFFFFFFFFFF28
:1028B000FFFFFF1E0000000000000000000007FFF7
:1028C000FF380000000000000000000003FFFF7060
:1028D0000000000000000000000001FFFF60000099
:1028E000000000000000000000FFFF60000000008A
:1028F000000000000000007FFFC00000000000009A
:1029000000007800003FFFC00FC0FC000000000086
:102910007818001FFFC03FE1FF0000000000783C76
:10292000000FFFC07FF3FF8000000000783C00072D
:10293000FFC0FFFFFFC000000000783C0003FFC1A4
:10294000F87F87E00000000078000001FFC1F03F41
:1029500003E00000000078000000FFC1E01E01E07D
:102960001F0003E0783C00007FC1E01E01E07FC053
:102970000FF8783C00003FC1E01E01E1FFE01FFCC2
:10298000783C00001FC1E01E01E3FFF03FFE783CF1
:1029900000000FC1E01E01E3F3F83F3E783C000069
:1029A00007C1E01E01E7E0FC7C1F783C000007C186
:1029B000E01E01E7C07C7C0F783C000003C1E01EF4
:1029C00001E7807C780F783C000003C1E01E01E73E
:1029D000803C7800783C000003C1E01E01E7803CA9
:1029E0007800783C000003C1E01E01E7803C7800DD
:1029F000783C000003C1E01E01E7C03C7800783C51
:102A0000000003C1E01E01E3E03C78007C3C0000D4
:102A100003C1E01E01E3FF3FF8007FBC000003C1DB
:102A2000E01E01E1FF3FF8003FBF000003C1E01ED0
:102A300001E0FF3FF8001FBF000003C1E01E01E0FE
:102A40007F3FF8000FBF000003600000000000009F
:102A5000000000000000076000000000000000000F
:102A600000000000067000000000000000000000F0
:102A700000000E3800000000000000000000000010
:102A80001C1E000000000000000000000000780F85
:102A9000FFFFFFFFFFFFFFFFFFFFFFFFF001FFFF53
:102AA000FFFFFFFFFFFFFFFFFFFF8001FFFFFFFFB3
:102AB000FFFFFFFFFFFFFFFFFF0FFFFFFFFFFFFF16
:102AC000FFFFFFFFFFFFFF1E0000000000000000EF
:102AD000000007FFFF3800000000000000000000B9
:102AE00003FFFF700000000000000000000001FF75
:102AF000FF600000000000000000000000FFFF6019
:102B000000000000000000000000007FFFC0000087
:102B10000000000000007800003FFFC00FC0FC0074
:102B2000000000007800001FFFC03FE1FF00000030
:102B300000007800000FFFC07FF3FF80000000005E
:102B400078000007FFC0FFFFFFC000000000780012
:102B50000003FFC1F87F87E000000000780000015B
:102B6000FFC1F03F03E00000000078000000FFC15B
:102B7000E01E01E01F0003E0780000007FC1E01EBE
:102B800001E07FC00FF8780000003FC1E01E01E1C6
:102B9000FFE01FFC780000001FC1E01E01E3FFF012
:102BA0003FFE780000000FC1E01E01E3F3F83F3E56
:102BB0007800000007C1E01E01E7E0FC7C1F780000
:102BC000000007C1E01E01E7C07C7C0F7800000018
:102BD00003C1E01E01E7807C780F7800000003C18C
:102BE000E01E01E7803C78007800000003C1E01E91
:102BF00001E7803C78007800000003C1E01E01E797
:102C0000803C78007800000003C1E01E01E7C03C72
:102C100078007800000003C1E01E01E3E03C78008A
:102C20007C00000003C1E01E01E3FF3FF8007F00CD
:102C3000000003C1E01E01E1FF3FF8003F0000007B
:102C400003C1E01E01E0FF3FF8001F00000003C1C8
:102C5000E01E01E07F3FF8000F000000036000006D
:102C600000000000000000000000076000000000FD
:102C700000000000000000000670000000000000DE
:102C80000000000000000E380000000000000000FE
:102C9000000000001C1E00000000000000000000FA
:102CA0000000780FFFFFFFFFFFFFFFFFFFFFFFFFA9
:102CB000F001FFFFFFFFFFFFFFFFFFFFFFFF8001AE
:102CC000FFFFFFFFFFFFFFFFFFFFFFFFFF0FFFFF04
:102CD000FFFFFFFFFFFFFFFFFFFFFF1E00000000E1
:102CE00000000000000007FFFF38000000000000A7
:102CF0000000000003FFFF70000000000000000063
:102D0000000001FFFF600000000000000000000064
:102D100000FFFF6000000000000000000000007FD6
:102D2000FFC000000000000000000000003FFFC0E6
:102D30000FC0FC00000000000000001FFFC03FE1CA
:102D4000FF00000000000000000FFFC07FF3FF80C5
:102D50000000000000000007FFC0FFFFFFC00000F0
:102D6000000000000003FFC1F87F87E000000000C2
:102D700000000001FFC1F03F03E000000000000080
:102D80000000FFC1E01E01E01F0003E000000000A2
:102D90007FC1E01E01E07FC00FF8000000003FC1CE
:102DA000E01E01E1FFE01FFC000000001FC1E01E6B
:102DB00001E3FFF03FFE000000000FC1E01E01E351
:102DC000F3F83F3E0000000007C1E01E01E7E0FC11
:102DD0007C1F0000000007C1E01E01E7C07C7C0FE3
:102DE0000000000003C1E01E01E7807C780F0000B6
:102DF000000003C1E01E01E7803C780000000000F5
:102E000003C1E01E01E7803C78000000000003C120
:102E1000E01E01E7803C78000000000003C1E01ED6
:102E200001E7C03C78000000000003C1E01E01E3A0
:102E3000E03C78000000000003C1E01E01E3FF3F1A
:102E4000F8000000000003C1E01E01E1FF3FF800B0
:102E50000000000003C1E01E01E0FF3FF800000099
:102E6000000003C1E01E01E07F3FF8000000000009
:102E70000360000000000000000000000000076088
:102E800000000000000000000000000006700000CC
:102E9000000000000000000000000E3800000000EC
:102EA00000000000000000001C1E000000000000E8
:102EB000000000000000780FFFFFFFFFFFFFFFFF93
:102EC000FFFFFFFFF001FFFFFFFFFFFFFFFFFFFF1F
:102ED000FFFF8001FFFFFFFFFFFFFFFFFFFFFFFF7F
:102EE000FF0FFFFFFFFFFFFFFFFFFFFFFFFFFF1EC3
:102EF0000000000000000000000007FFFF38000095
:102F0000000000000000000003FFFF700000000050
:102F100000000000000001FFFF6000000000000052
:102F20000000000000FFFF60000000000000000043
:102F30000000007FFFC00000000000000000000053
:102F4000003FFFC00FC0FC00000000000000001F99
:102F5000FFC03FE1FF00000000000000000FFFC0C5
:102F60007FF3FF800000000000000007FFC0FFFFAC
:102F7000FFC00000000000000003FFC1F87F87E0F1
:102F80000000000000000001FFC1F03F03E000006E
:102F9000000000000000FFC1E01E01E01F00000073
:102FA000000000007FC1E01E01E07FC000000000C3
:102FB00000003FC1E01E01E1FFE000000000000052
:102FC0001FC1E01E01E3FFF00000000000000FC180
:102FD000E01E01E3F3F800000000000007C1E01E5E
:102FE00001E7E0FC00000000000007C1E01E01E76F
:102FF000C07C00000000000003C1E01E01E7807CEF
:1030000000000000000003C1E01E01E7803C00005A
:103010000000000003C1E01E01E7803C000000004A
:10302000000003C1E01E01E7803C0000000000003A
:1030300003C1E01E01E7C03C00000000000003C126
:10304000E01E01E3E03C00000000000003C1E01EC0
:1030500001E3FF3F00000000000003C1E01E01E1AA
:10306000FF3F00000000000003C1E01E01E0FF3F41
:1030700000000000000003C1E01E01E07F3F0000EF
:1030800000000000036000000000000000000000DD
:1030900000000760000000000000000000000000C9
:1030A00006700000000000000000000000000E3864
:1030B0000000000000000000000000001C1E0000D6
:1030C00000000000000000000000780FFFFFFFFF7D
:1030D000FFFFFFFFFFFFFFFFF001FFFFFFFFFFFF0D
:1030E000FFFFFFFFFFFF8001FFFFFFFFFFFFFFFF6D
:1030F000FFFFFFFFFF0FFFFFFFFFFFFFFFFFFFFFD0
:10310000FFFFFF1E0000000000000000000007FF9E
:10311000FF380000000000000000000003FFFF7007
:103120000000000000000000000001FFFF60000040
:10313000000000000000000000FFFF600000000031
:10314000000000000000007FFFC000000000000041
:1031500000000000003FFFC00FC0FC0000000000A6
:103160000000001FFFC03FE1FF0000000000000062
:10317000000FFFC07FF3FF80000000000000000789
:10318000FFC0FFFFFFC00000000000000003FFC100
:10319000F87F87E00000000000000001FFC1F03F61
:1031A00003E00000000000000000FFC1E01E01E09D
:1031B00000000000000000007FC1E01E01E00000F0
:1031C0000000000000003FC1E01E01E00000000020
:1031D000000000001FC1E01E01E000000000000030
:1031E00000000FC1E01E01E0000000000000000030
:1031F00007C1E01E01E0000000000000000007C160
:10320000E01E01E0000000000000000003C1E01E1D
:1032100001E0000000000000000003C1E01E01E02A
:10322000000000000000000003C1E01E01E00000FB
:1032300000000000000003C1E01E01E000000000EB
:103240000000000003C1E01E01E0000000000000DB
:10325000000003C1E01E01E00000000000000000CB
:1032600003C1E01E01E0000000000000000003C1F7
:10327000E01E01E0000000000000000003C1E01EAD
:1032800001E0000000000000000003C1E01E01E0BA
:1032900000000000000000000360000000000000CB
:1032A00000000000000007600000000000000000B7
:1032B0000000000006700000000000000000000098
:1032C00000000E38000000000000000000000000B8
:1032D0001C1E000000000000000000000000780F2D
:1032E000FFFFFFFFFFFFFFFFFFFFFFFFF001FFFFFB
:1032F000FFFFFFFFFFFFFFFFFFFF8001FFFFFFFF5B
:10330000FFFFFFFFFFFFFFFFFF0FFFFFFFFFFFFFBD
:10331000FFFFFFFFFFFFFF1E000000000000000096
:10332000000007FFFF380000000000000000000060
:1033300003FFFF700000000000000000000001FF1C
:10334000FF600000000000000000000000FFFF60C0
:1033500000000000000000000000007FFFC000002F
:103360000000000000000000003FFFC0000000005F
:10337000000000000000001FFFC00000000000006F
:1033800000000000000FFFC000000000000000006F
:1033900000000007FFC00000000000000000000067
:1033A0000003FFC00000000000000000000000015A
:1033B000FFC0000000000000000000000000FFC08F
:1033C0000000000000000000000000007FC00000BE
:1033D000000000000000000000003FC000000000EE
:1033E00000000000000000001FC0000000000000FE
:1033F0000000000000000FC00000000000000000FE
:103400000000000007C000000000000000000000F5
:10341000000007C0000000000000000000000000E5
:1034200003C000000000000000000000000003C016
:1034300000000000000000000000000003C00000C9
:103440000000000000000000000003C000000000B9
:10345000000000000000000003C0000000000000A9
:1034600000000000000003C0000000000000000099
:103470000000000003C00000000000000000000089
:10348000000003C000000000000000000000000079
:1034900003C000000000000000000000000003C0A6
:1034A00000000000000000000000000003600000B9
:1034B00000000000000000000000076000000000A5
:1034C0000000000000000000067000000000000086
:1034D0000000000000000E380000000000000000A6
:1034E000000000001C1E00000000000000000000A2
:1034F0000000780FFFFFFFFFFFFFFFFFFFFFFFFF51
:10350000F001FFFFFFFFFFFFFFFFFFFFFFFF800056
:1035100000000000000000000000000000000000AB
:10352000000000000000000000000000000000009B
:10353000047F03E00001F8000F00007F8003F0002B
:103540000C7F03F00003F8001F80007FC007F0002D
:103550000C7F03F80007F8003F80007FC00FF000E9
:103560001C7F03FC000FF8003FC0003FE01FF0008D
:103570001C7F03FE001FF8003FC0001FF03FF0005B
:103580003C7F01FF003FF8001FE0000FF87FF000D4
:103590003C7F00FF807FF8000FE00007F87FE0002D
:1035A0007C7F007FC0FFF8000FF00007FC3FC000E9
:1035B0007C7F003FE1FFF80007F80003FE1F80005A
:1035C000FC7F001FFFFFF80187F80001FF0F0000DC
:1035D000FC7F030FFFFFF801C3FC0000FF86000122
:1035E000FC7F0387FFF3F803E3FC00007F8000010A
:1035F000FC7F03C3FFE3F803E1FE00007FC000038C
:10360000FC7F03E1FFC3F807F1FE00003FE0000389
:10361000FC7FE3F0FF83F807F0FF00001FF00007D6
:10362000FC7FE3F87F03F80FF07F00000FF0000746
:10363000FC7FE3F81E03F80FE07F80000FF8000F17
:10364000FC7FE3F80003F81FE3FF800387FC000F13
:10365000FC7FE3F80003F81FC3FFC007C3FE001F91
:10366000FC7FE3F80003F83FC7FFC00FE1FE000056
:10367000007F03F80003F83F87FFE01FF1FF000021
:10368000007F03F80003F87F8FFFE03FF0FF80002A
:10369000007F03F80003F87F0FFFF07FF07FC0008A
:1036A000007F03F80003F8FF0007F0FFE03FC000D1
:1036B000007F03F80003F8FE0007F8FFC03FE000BA
:1036C000007F03F80003F9FE0003F8FF801FF000FD
:1036D000007F03F80003F9FC0003FCFF000FF0007B
:1036E000007F03F80003FBFC0001FCFE000FF0006C
:1036F00000000000000000000000000000000000CA
:103700000000000000000000000000000000006851
:10371000747470733A2F2F6769742E696F2F666AFD
:10372000587A7200344D415820322E312E303030CC
:10373000334245544100FB32E730D32EBF2CAB2A35
:103740009728832670012C0190012701B0012201E6
:10375000C0011D01F00118011002130130020E0119
:103760006002090190020401C002FF000003FA0098
:103770004003F5008003F000D003EB002004E600D6
:103780007004E100E004DC004005D700C005D20071
:103790004006CD00D006C8008007C3003008BE0038
:1037A000F008B900C009B400B00AAF00B00BAA001D
:1037B000D00CA500000EA000500F9B00C01096007A
:1037C0005012910000148C00C0158700B0178200C1
:1037D000B0197D00D01B7800001E730040206E00E1
:1037E00090226900F024640040275F0090295A006D
:1037F000E02B5500102E500020304B0010324600B8
:10380000E033410090353C0010373700703832000B
:10381000A0392D00B03A2800A03B2300603C1E00D8
:10382000103D1900903D1400103E0F00703E0A003C
:10383000C03E0500003F0000403FFBFF803FF6FF19
:10384000C03FF1FF2020506C616E6E65724275665C
:1038500066657242797465733A2000204672656528
:10386000204D656D6F72793A2000436F6D70696C01
:1038700065643A204E6F7620203820323032300A8C
:1038800000204C61737420557064617465643A2043
:10389000323032302D31312D3038207C204175745A
:1038A000686F723A202847336D316E315333727628
:1038B00033722C20416E79637562696320344D4107
:1038C00058290A00344D415820322E312E303030E4
:1038D00033424554410A004D61726C696E002053B9
:1038E0006F6674776172652052657365740A002093
:1038F0005761746368646F672052657365740A006A
:103900002042726F776E206F7574205265736574F4
:103910000A002045787465726E616C20526573658B
:10392000740A00506F77657255700A007374617283
:10393000740A006175746F25632E6700473238582A
:1039400059004D31303031006572726F72207772DC
:103950006974696E6720746F2066696C650A00443B
:103960006F6E6520736176696E672066696C652E7F
:103970000A004D323900456E6473746F7070002513
:103980005320256320256320256320256300205ACA
:103990003A0020593A0020583A00656E6473746FFB
:1039A0007073206869743A2000534420496E69742A
:1039B000206665686C67657363682E0053442063F6
:1039C000617264206F6B0A006F70656E526F6F7466
:1039D000206661696C65640A00766F6C756D652E92
:1039E000696E6974206661696C65640A004E6F20B7
:1039F000534420636172640A004D3234004D323307
:103A0000202573002E0A006F70656E206661696C58
:103A100065642C2046696C653A200046696C652017
:103A200073656C65637465640A002053697A653A4E
:103A3000200046696C65206F70656E65643A2000F1
:103A4000454E4420535542524F5554494E450A0065
:103A50002220706F73002220706172656E743A22AA
:103A600000535542524F5554494E452043414C4C0A
:103A7000207461726765743A220053756263616CE9
:103A80006C20C3BC62657273636872697474656E1E
:103A9000004578636565646564206D6178205355E1
:103AA00042524F5554494E452064657074683A310E
:103AB0000A0057726974696E6720746F2066696CBA
:103AC000653A2000667265736800646F696E67000E
:103AD0002066696C653A20004E6F7720000224F45E
:103AE000D43050C38E20C2A24017828B7011127A3C
:103AF000910D816CD90AA861E108C7586607615128
:103B000043061E4B5D05C145A7041A411104093D3A
:103B10009803713931034036DB0265339102D430AA
:103B20005402802E1D02632CEE01752AC501B028B7
:103B3000A001102781018F2564012B244B01E02275
:103B40003401AC211F018D200D01801FFC00841E5B
:103B5000ED00971DDF00B81CD200E61BC600201B3D
:103B6000BC00641AB200B219A8000A19A0006A18B1
:103B70009900D117910040178B00B51684003116BB
:103B80007E00B31579003A157300C7146F005814FE
:103B90006A00EE1366008813630025135E00C712E7
:103BA0005B006C12570015125400C11151007011C6
:103BB0004F0021114B00D61049008D1047004610D0
:103BC000440002104200C00F4000800F3E00420F30
:103BD0003C00060F3B00CB0E3800930E37005C0E06
:103BE0003500270E3400F30D3200C10D3100900D69
:103BF0003000600D2E00320D2D00050D2C00D90C6B
:103C00002B00AE0C2900850C29005C0C2700350C1C
:103C100027000E0C2600E80B2400C40B2400A00B88
:103C200023007D0B23005A0B2100390B2100180BB8
:103C30002000F80A1F00D90A1E00BB0A1E009D0AB8
:103C40001D00800A1D00630A1C00470A1B002C0A85
:103C50001B00110A1A00F7091A00DD091900C4092E
:103C60001900AB091900920917007B0918006309B4
:103C700017004C09160036091600200916000A091B
:103C80001500F5081500E0081400CC081400B80869
:103C90001400A4081400900813007D0812006B089B
:103CA00013005808120046081200340811002308B7
:103CB00011001208110001081100F0071000E007C0
:103CC0001000D0071000C0071000B0070F00A107B8
:103CD000100091070E0083070F0074070F0065079F
:103CE0000E0057070E0049070E003B070D002E0778
:103CF0000E0020070D0013070D0006070D00F90642
:103D00000C00ED060D00E0060C00D4060C00C80601
:103D10000C00BC060C00B0060C00A4060B009906B3
:103D20000C008D060B0082060B0077060B006C065C
:103D30000B0061060A0057060B004C060A004206FB
:103D40000A0038060A002E060A0024060A001A068F
:103D50000A001006090007060A00FD050900F4051F
:103D60000900EB050900E2050900D9050900D005A5
:103D70000900C7050900BE050900B5050800AD0525
:103D80000800A50509009C050800940508008C059D
:103D90000800840508007C050800740508006C050F
:103DA0000700650508005D050700560508004E057B
:103DB00007004705070040050800380507003105E2
:103DC00007002A050700230507001C050600160545
:103DD00007000F0507000805060002050700FB04A1
:103DE0000600F5040700EE040600E8040600E204FD
:103DF0000700DB040600D5040600CF040600C90452
:103E00000600C3040600BD040600B7040600B104A2
:103E10000500AC040600A6040600A00405009B04EF
:103E2000060095040500900406008A040500850438
:103E30000500800406007A0405007504050070047E
:103E400005006B04050066040500610405005C04C0
:103E5000050057040500520405004D040500480400
:103E60000500430405003E0404003A04050035043F
:103E70000500300404002C0405002704040023047A
:103E800005001E0404001A040400160405001104B1
:103E900004000D04040009040500040404000004E7
:103EA0000400FC030400F8030400F4030400F0031E
:103EB0000400EC030400E8030400E4030400E0034E
:103EC0000400DC030400D8030400D4030400D0037E
:103ED0000400CC030400C8030300C503030024F45A
:103EE00004D9201BC40C5C0E9804C4095F0265074A
:103EF0007101F405F900FB04B30048048700C10315
:103F000069005803550003034500BE023A008402CD
:103F1000310053022A002902250004022000E40196
:103F20001C00C8011900AF0117009801140084019A
:103F30001300710110006101100051010E004301D6
:103F40000D0036010B002B010B0020010B001501A9
:103F500009000C01090003010800FB000800F30040
:103F60000800EB000700E4000600DE000600D800B1
:103F70000600D2000600CC000500C7000500C20004
:103F80000500BD000400B9000400B5000400B10044
:103F90000400AD000400A9000400A5000300A20075
:103FA00003009F0004009B0003009800030095009D
:103FB000020093000300900003008D0002008B00BC
:103FC00003008800020086000200840003008100D4
:103FD00002007F0002007D0002007B0002007900E9
:103FE00002007700010076000200740002007200F7
:103FF0000100710002006F0002006D0001006C0002
:1040000002006A000100690002006700010066000A
:10401000010065000100640002006200010061000F
:104020000100600001005F0002005D0001005C0013
:1040300001005B0001005A00010059000100580016
:104040000100570001005600010055000100540016
:104050000100530000005300010052000100510014
:104060000100500001004F0001004E0000004E0012
:1040700001004D0001004C0001004B0000004B000E
:1040800001004A000100490001004800000048000A
:104090000100470001004600000046000100450005
:1040A00000004500010044000100430000004300FF
:1040B00001004200000042000100410000004100F8
:1040C0000100400001003F0000003F0001003E00F1
:1040D00000003E0001003D0000003D0001003C00EA
:1040E00000003C0000003C0001003B0000003B00E1
:1040F00001003A0000003A000100390000003900D8
:1041000001003800000038000000380001003700CE
:1041100000003700010036000000360000003600C5
:1041200001003500000035000000350001003400BA
:1041300000003400000034000100330000003300B0
:1041400000003300010032000000320000003200A5
:10415000010031000000310000003100010030009A
:10416000000030000000300001002F0000002F0090
:1041700000002F0000002F0001002E0000002E0084
:1041800000002E0001002D0000002D0000002D0079
:1041900000002D0001002C0000002C0000002C006D
:1041A00000002C0001002B0000002B0000002B0061
:1041B00000002B0001002A0000002A0000002A0055
:1041C00000002A0001002900000029000000290049
:1041D000000029000000290001002800000028003C
:1041E000000028000000280000002800010027002F
:1041F0000000270000002700000027000000270023
:104200000100260000002600000026000000260015
:104210000000260001002500000025000000250008
:1042200000002500000025000000250001002400FA
:1042300000002400000024000000240000002400EE
:1042400001002300000023000000230000002300E1
:1042500000002300000023000000230001002200D2
:1042600000002200000022000000220000002200C6
:1042700000002200010021000000210000002100B8
:1042800000002100000021000000210000002100AA
:10429000010020000000200000002000000020009D
:1042A000000020000000200000002000000020008E
:1042B00001001F0000001F0000001F0000001F0081
:1042C00000001F0000001F0000001F0001001E0072
:1042D00000001E0000001E0000001E00000039301B
:1042E00000003325000087190000B00F0000DB0834
:1042F0000000BD040000740200003F01000054688B
:1043000065726D6973746F72656E00426F6172647D
:104310002D496E666F00447275636B65722D496E30
:10432000666F0048617570746D656EC3BC003F00B8
:104330005A7572C3BC636B0053746F70004472751E
:10434000636B20766F6D204D656469756D004D65FA
:104350006469756D20676574617573636874004D79
:10436000323100C39C6265722064656E20447275B0
:10437000636B65720046696C616D656E742077656C
:10438000636873656C6E004B6F6E6669677572610A
:1043900074696F6E0054656D70657261747572003A
:1043A0004265776567756E670053442D4472756387
:1043B0006B20666F72747365747A656E004B656905
:1043C0006E204D656469756D004A75737469657218
:1043D000756E670053442D447275636B2061626291
:1043E00072656368656E0053442D447275636B207B
:1043F00070617573696572656E00496E666F003F26
:104400000053746172746520447275636B0041627D
:104410006272656368656E00447275636B656E00F9
:1044200043616E6E6F7420656E7465722073756281
:104430006469723A2000022E2E0048617570746D16
:10444000656EC3BC003F004EC3A4636873746520EF
:104450004B6F6F7264696E61746500466572746952
:1044600067005765697465720058595A20686F6D06
:10447000656E00417573736368616C742044656C8C
:104480006179004CC3BC66746572204D6F746F72A5
:104490006C617374004D6F746F726C617374204D36
:1044A0006F647573004CC3BC66746572204C65659F
:1044B000726C61756600426574740044C3BC7365B8
:1044C000004CC3BC66746572004B6F6E666967759D
:1044D000726174696F6E004B6F6E6669672E206C37
:1044E0006164656E005374616E64617264776572B5
:1044F0007465206C6164656E004B6F6E6669672E33
:104500002073706569636865726E00242045696E6A
:104510007374656C6C756E67656E006175730061B0
:104520006E0052756E6F75742D53656E736F7200E9
:104530004CC3BC66746572204B6F6E74726F6C6C8A
:104540006572004572772E2045696E7374656C6CD8
:10455000756E67656E0048617570746D656EC3BC7D
:104560000020436F756E7420583A002053004D317F
:104570003036205000004265747400453100626599
:1045800064002C2073797374656D2073746F707080
:10459000656421204865617465725F49443A200072
:1045A0004845495A454E204552464F4C474C4F537B
:1045B0000048656174696E67206661696C656400B6
:1045C000202D20496E76616C69642065787472755F
:1045D000646572206E756D62657220210A00200884
:1045E000204E4943485420455252454943485400BF
:1045F000546865726D616C2052756E6177617900E7
:10460000200820C39C4245525343485249545445C4
:104610004E004D415854454D50207472696767658E
:1046200072656400200820554E5445525343485249
:10463000495454454E004D494E54454D50207472D6
:1046400069676765726564000A0A0020205A5F4D39
:10465000494E3A002020595F4D494E3A00202058DB
:104660005F4D494E3A00220A00556E6B6E6F776EB1
:1046700020636F6D6D616E643A202200DB0FC93FCD
:1046800045BCDA3F8FB30240FCF0274056946140AE
:10469000FE4B9B4084A5D840E0231841346A564124
:1046A000E859974164DBD5416E271742B4B75542AC
:1046B000CE1A9742C8AED542B5885A43D40684BFB5
:1046C000A65FA7BF7443E0BF10B11AC01C2C58C02E
:1046D000E8F697C0B849D6C04E4E17C124D355C18D
:1046E000802497C1A0B5D5C1121A17C244AE55C2D5
:1046F000781797C26CACD5C267885AC320746F6FA5
:10470000206C6F6E6720657874727573696F6E20A8
:1047100070726576656E7465640A0020636F6C6400
:1047200020657874727573696F6E20707265766536
:104730006E7465640A005761726E696E673A204351
:104740006C65616E20436972636C6520726571757A
:10475000697265732058590A005761726E696E67F5
:104760003A20526164697573204F7574206F66201A
:1047700052616E67650A0046494C414D454E5420D2
:10478000454E544C4144454E0046494C414D454EE2
:1047900054204C4144454E0046494C414D454E54F1
:1047A000205745434853454C004D3730322054255F
:1047B00064004D36303020423020542564004D379F
:1047C0003032203B2564004D3730312054256400C1
:1047D0004D373032004D373031004D3630302042C9
:1047E000300048617570746D656EC3BC00447275AD
:1047F000636B207765697465720061757300616E23
:104800000052756E6F75742D53656E736F72004D27
:1048100065687220656E746C6164656E00464F5207
:1048200054532E204F5054494F4E454E3A00445257
:1048300055434B2050415553494552540020204484
:10484000C3BC73653A2000447275636B206973744E
:104850000070617573696572742E2E2E00005761A9
:10486000727465206175662064656E0053746172B0
:1048700074206465730046696C616D656E7477655C
:10488000636873656C732E2E2E00576172746520F9
:1048900061756600456E746E61686D650064657370
:1048A0002046696C616D656E74732E2E2E0044C3B4
:1048B000BC7365206865697A7420617566006269F9
:1048C0007474652077617274656E2E2E2E00004B15
:1048D0006E6F7066206472C3BC636B656E20756D0D
:1048E0000044C3BC7365206175667A756865697A32
:1048F000656E000046696C616D656E742065696E59
:104900006C6567656E00756E64204B6E6F70662017
:104910006472C3BC636B656E00756D20666F7274E4
:104920007A757365747A656E00576172746520617B
:104930007566004C6164656E206465730046696C41
:10494000616D656E74732E2E2E004B6E6F70662037
:104950006472C3BC636B656E20756D0044727563D1
:104960006B20666F72747A757365747A656E000079
:1049700057617274652061756600466F7274736565
:10498000747A656E2064657300447275636B732E70
:104990002E2E00576172746520617566005370C3D6
:1049A000BC6C756E67006465722044C3BC73652E71
:1049B0002E2E003135300035004245443A20455016
:1049C000434F53203130304B0052756E617761791F
:1049D0002057617463683A20414E004D617820543D
:1049E000656D7000323735004D696E2054656D700D
:1049F00000350045313A204550434F532031303087
:104A00004B004E65747A7465696C00532D333030F9
:104A10002D31320050726F746F6B6F6C6C00312EE1
:104A20003000426175647261746500323530303037
:104A30003000416E7963756269632052414D505375
:104A400020312E340045787472756465720031002F
:104A500068747470733A2F2F6769742E696F2F66AC
:104A60006A587A7200416E79637562696320344DC9
:104A7000415800323032302D31312D303800344D34
:104A8000415820322E312E303030334245544100CF
:104A90004D61726C696E00446F6E652E0A00507530
:104AA0006C73696E6720202000556E746F756368A3
:104AB000656420005A5F50524F42455F534552563D
:104AC0004F5F4E52206E6F74207365742075702E88
:104AD0000A005761746368696E672070696E730AB3
:104AE0000064697300656E0061626C65640A00654C
:104AF0006E6473746F70206D6F6E69746F722000D6
:104B0000204D393220580020580020204D61783A3D
:104B10002000200020204D696E3A2000536F6674FB
:104B200020656E6473746F70733A2000206F757423
:104B3000206F662072616E67650A00536572766F3A
:104B400020003A200020536572766F200025290A44
:104B500000252000203B2028002044002041002088
:104B6000490020204D3731302053003B20436F6EE9
:104B700074726F6C6C65722046616E0A0020496E1B
:104B800076616C6964206578747275646572200062
:104B90005A5F53544F505F50494E005A5F5354452B
:104BA000505F50494E005A5F4D494E5F50494E008C
:104BB0005A5F454E41424C455F50494E005A5F4452
:104BC00049525F50494E00595F53544F505F50490E
:104BD0004E00595F535445505F50494E00595F4D48
:104BE000494E5F50494E00595F454E41424C455F2A
:104BF00050494E00595F4449525F50494E00585F3A
:104C000053544F505F50494E00585F535445505FC6
:104C100050494E00585F4D494E5F50494E00585F15
:104C2000454E41424C455F50494E00585F44495201
:104C30005F50494E0053535F50494E005345525602
:104C40004F335F50494E00534552564F325F5049E3
:104C50004E00534552564F315F50494E0053455216
:104C6000564F305F50494E00534453530053445FF6
:104C70004445544543545F50494E0053434B5F50A5
:104C8000494E0052414D50535F44395F50494E00E8
:104C900052414D50535F44385F50494E0052414D90
:104CA00050535F4431305F50494E004D4F53495F80
:104CB00050494E004D49534F5F50494E004D4158A9
:104CC000363637355F53535F50494E004C45445F8D
:104CD00050494E004C43445F50494E535F5253007D
:104CE0004C43445F50494E535F454E41424C450052
:104CF0004C43445F50494E535F4437004C43445F3C
:104D000050494E535F4436004C43445F50494E5324
:104D10005F4435004C43445F50494E535F44340078
:104D20004845415445525F4245445F50494E004812
:104D300045415445525F305F50494E0046494C5FF3
:104D400052554E4F55545F50494E0046414E325FCA
:104D500050494E0046414E315F50494E0046414E4B
:104D60005F50494E0045315F535445505F50494EA6
:104D70000045315F454E41424C455F50494E00452C
:104D8000315F4449525F50494E0045315F43535FA4
:104D900050494E0045305F535445505F50494E00D6
:104DA00045305F454E41424C455F50494E004530CD
:104DB0005F4449525F50494E0045305F4155544F62
:104DC0005F46414E5F50494E00455F4D5558325F3A
:104DD00050494E00455F4D5558315F50494E004592
:104DE0005F4D5558305F50494E00444F474C434447
:104DF0005F53434B00444F474C43445F4D4F53492F
:104E000000434F4E54524F4C4C45525F46414E5F0B
:104E100050494E0042544E5F454E430042544E5F4F
:104E2000454E320042544E5F454E3100424545509A
:104E300045525F50494E004156525F53535F5049AF
:104E40004E004156525F53434B5F50494E0041560E
:104E5000525F4D4F53495F50494E004156525F4D8E
:104E600049534F5F50494E0054454D505F424544B1
:104E70005F50494E0054454D505F315F50494E00E0
:104E800054454D505F305F50494E005458443000F7
:104E9000525844300050574D3A2020253464005079
:104EA000574D3A20202534640050574D3A20202594
:104EB00034640050574D3A20202534640050574D3B
:104EC0003A20202534640050574D3A202025346480
:104ED0000050574D3A20202534640050574D3A2059
:104EE000202534640050574D3A202025346400506A
:104EF000574D3A20202534640050574D3A20202544
:104F000034640050574D3A20202534640050574DEA
:104F10003A20202534640050574D3A20202534642F
:104F20000050574D3A20202534640050574D3A2008
:104F300020253464003A200020202020434F4D00DB
:104F40002020206E6F6E2D7374616E646172642018
:104F500050574D206D6F646500202020636F6D7089
:104F600061726520696E7465727275707420656E09
:104F700061626C6564002020206F766572666C6FDC
:104F80007720696E7465727275707420656E6162E7
:104F90006C6564003A20002020202054494D534B7A
:104FA00000423A2000202020205443435200413A3E
:104FB0002000202020205443435200202020204362
:104FC000533A20002020202057474D3A20005057C8
:104FD0004D3A20202534640050574D3A2020253486
:104FE000640047004800000088008A008C00B3007D
:104FF000B400000098009A009C00A800AA00AC0031
:1050000028012A012C012020202054494D4552001E
:10501000440045006E00800081006F00B000B100C8
:105020007000900091007100A000A10072002001AA
:105030002101730020697320616C736F20746965AE
:105040006420746F20746869732070696E0054491D
:105050004D45523143000A202E0020200000000A56
:105060000B02090C0D0E08070304010000000000EC
:105070000000000000000000000000000000000030
:1050800000000000000000000012111000000000ED
:105090000000000000000000000000000000000010
:1050A00000000000000000000000000000010210ED
:1050B0002020080810204010204080020102010832
:1050C00004020101020408102040808040201008E2
:1050D000040201800402018040201008040201083B
:1050E000040201010204081020408001020408109B
:1050F00020408010080408801020400440801020C8
:105100004004800505050507050808080802020295
:10511000020A0A0808040404040101010101010152
:10512000010303030303030303040707070C0C0C29
:105130000C0C0C0C0C020202020606060606060601
:10514000060B0B0B0B0B0B0B0B07070A0A0A0A0AC1
:105150000A05050504040408082020506F72743AFB
:10516000200020202000202020416E616C6F6720ED
:10517000696E203D2025356C64003C756E75736545
:10518000642F756E6B6E6F776E3E0020284125325E
:105190006429202000253364200050494E3A200025
:1051A0004F7574707574203D2000496E70757420C1
:1051B000203D2000416E616C6F6720696E203D20AC
:1051C00025356C640070726F7465637465642000CB
:1051D00020284125326429202000253364200050F6
:1051E000494E3A2000904E00018B4E0101804E4303
:1051F00000754E4500684E44005B4E32014E4E3302
:1052000001424E3401374E35012C4E2501244E21EA
:10521000011C4E1F01144E2301014E0701F54D33B1
:1052200001EA4D3401DF4D2801D44D2A01C94D2C2E
:1052300001B94D2C01AE4D1C01A04D1801944D1A21
:10524000018A4D2C017F4D2201714D1E01654D24B7
:10525000015D4D0901544D07014B4D2C013C4D02A0
:10526000012F4D0A01204D0801144D1701084D1959
:1052700001FC4C1B01F04C1D01E04C1101D44C1001
:1052800001CC4C0D01BD4C4201B44C3201AB4C334E
:10529000019D4C0A01904C0801834C09017B4C3460
:1052A000016D4C3101684C35015D4C0B01524C06CF
:1052B00001474C05013C4C0401354C35012B4C3762
:1052C000011E4C2601144C0301094C3601FE4B0310
:1052D00001F44B3D01E74B3801DD4B0E01D24B3C55
:1052E00001C74B0E01BD4B3001B04B3E01A64B1226
:1052F000019B4B2E01904B120141206D617820459E
:105300000041206D6178205A0041206D617820595C
:105310000041206D617820580041204C656572661F
:105320006168727400412045696E7A756700426554
:105330007363686C65756E6967756E6700452053A9
:10534000746570732F6D6D005A2053746570732FE0
:105350006D6D00592053746570732F6D6D0058206A
:1053600053746570732F6D6D004572772E204569FB
:105370006E7374656C6C756E67656E003F0041629C
:105380006272656368656E0042657374C3A4746974
:1053900067656E004D343238005765726B7365690E
:1053A0006E7374656C6C756E67656E0046696C61D2
:1053B0006D656E740054656D706572617475720010
:1053C00053746570732F6D6D004A756E6374696FE9
:1053D0006E204465760042657363686C65756E691E
:1053E00067756E6700476573636877696E646967A0
:1053F0006B656974005365747A6520486F6D6576D6
:1054000065727361747A004B6F6E6669677572615D
:1054100074696F6E0000002110422063308440A543
:1054200050C660E770088129914AA16BB18CC1AD6B
:10543000D1CEE1EFF13112100273325222B5529403
:1054400042F772D662399318837BB35AA3BDD39CBB
:10545000C3FFF3DEE36224433420040114E664C78F
:1054600074A44485546AA54BB528850995EEE5CF0B
:10547000F5ACC58DD55336722611163006D776F6A3
:10548000669556B4465BB77AA719973887DFF7FE5B
:10549000E79DD7BCC7C448E5588668A7784008612F
:1054A0001802282338CCC9EDD98EE9AFF9488969AB
:1054B000990AA92BB9F55AD44AB77A966A711A5043
:1054C0000A333A122AFDDBDCCBBFFB9EEB799B58FB
:1054D0008B3BBB1AABA66C877CE44CC55C222C03CF
:1054E0003C600C411CAEED8FFDECCDCDDD2AAD0B4B
:1054F000BD688D499D977EB66ED55EF44E133E32E3
:105500002E511E700E9FFFBEEFDDDFFCCF1BBF3A9A
:10551000AF599F788F8891A981CAB1EBA10CD12D89
:10552000C14EF16FE18010A100C230E3200450258C
:105530004046706760B9839893FBA3DAB33DC31C00
:10554000D37FE35EF3B1029012F322D232354214DC
:105550005277625672EAB5CBA5A89589856EF54F4C
:10556000E52CD50DC5E234C324A01481046674472C
:105570006424540544DBA7FAB79987B8975FE77EA0
:10558000F71DC73CD7D326F2369106B0165766767C
:1055900076154634564CD96DC90EF92FE9C899E9EC
:1055A000898AB9ABA94458654806782768C018E1CC
:1055B000088238A3287DCB5CDB3FEB1EFBF98BD840
:1055C0009BBBAB9ABB754A545A376A167AF10AD01C
:1055D0001AB32A923A2EFD0FED6CDD4DCDAABD8B8C
:1055E000ADE89DC98D267C076C645C454CA23C836C
:1055F0002CE01CC10C1FEF3EFF5DCF7CDF9BAFBAE0
:10560000BFD98FF89F176E367E554E745E932EB2BB
:105610003ED10EF01E20453A00205A3A0020593A59
:1056200000583A004361703A0047322F47332062F6
:10563000616420706172616D65746572730A002225
:105640000A00656E7175657565696E672022006F69
:105650006B00526573656E643A2000202F00204273
:10566000403A0020403A0020573A000009121B241B
:105670002D363F48415A536C657E7719100B023D19
:10568000342F265158434A757C676E323B202916C9
:105690001F040D7A7368615E574C452B2239300F19
:1056A000061D14636A7178474E555C646D767F40C1
:1056B00049525B2C253E3708011A137D746F6659D9
:1056C000504B42353C272E1118030A565F444D7249
:1056D0007B60691E170C053A3328214F465D546BD9
:1056E000627970070E151C232A31384148535A65D8
:1056F0006C777E09001B122D243F3658514A437C9B
:10570000756E671019020B343D262F737A61685746
:105710005E454C3B3229201F160D046A6378714E9A
:10572000475C55222B3039060F141D252C373E01BE
:1057300008131A6D647F7649405B523C352E27185A
:10574000110A03747D666F5059424B171E050C33C6
:105750003A21285F564D447B7269600E071C152A5A
:10576000233831464F545D626B70797C3C3E5E2B32
:105770003D3F2F5B5D3B2C2A225C00447275636BBE
:10578000206162676562726F6368656E004D3235D5
:1057900020500A4D32340050617573652E2E2E0054
:1057A0005045544700504C41000000210024002780
:1057B000002A002D00300033000101000004010721
:1057C000010A0100002200250028002B002E0031D4
:1057D00000340002010000050108010B0100002057
:1057E000002300260029002C002F003200000100B9
:1057F000000301060109010505050507050808085C
:1058000008020202020A0A08080404040401010151
:105810000101010101030303030303030304070759
:10582000070C0C0C0C0C0C0C0C02020202060606F7
:1058300006060606060B0B0B0B0B0B0B0B010210DF
:10584000202008081020401020408002010201089A
:10585000040201010204081020408080402010084A
:1058600004020180040201804020100804020108A3
:105870000402010102040810204080010204081003
:1058800020408000000A0B02090C0D0E08070304DB
:105890000100000000000000000000000000000007
:1058A00000000000000000000000000000000012E6
:1058B00011100000000000000000000000000000C7
:1058C00000000000000000000000202573206D6D26
:1058D0000020302C312020206D6D0020312C302014
:1058E00020206D6D0031302C302020206D6D004166
:1058F000636873656E206265776567656E004265F3
:1059000077656765204578747275646572004265D5
:1059100077656765205A004265776567652059009D
:10592000426577656765205800A557A05746696CA2
:10593000616D656E74207765636873656C6E004693
:10594000696C616D656E7420656E746C6164656E02
:105950000046696C616D656E74206C6164656E00F3
:1059600062656E75747A65726465662E2048656935
:105970007A656E002420566F7277C3A4726D656ECF
:10598000005A7572C3BC636B00454550524F4D20A1
:105990006461746173697A65206572726F722E0A30
:1059A00000290A002062797465733B2063726320CA
:1059B000002073746F7265642073657474696E6718
:1059C00073207265747269657665642028002028EA
:1059D00063616C63756C6174656429210A00202120
:1059E0003D2000454550524F4D20435243206D69A4
:1059F000736D61746368202D202873746F72656401
:105A00002920002053697A653A2000496E64657840
:105A10003A20004669656C64206261636B6C617357
:105A2000685F64697374616E63655F6D6D206D6935
:105A3000736D617463682E0A004669656C64206644
:105A4000635F73657474696E6773206D69736D61EC
:105A50007463682E0A004669656C6420706C616E20
:105A60006E65725F736B65775F666163746F7220DA
:105A70006D69736D617463682E0A004669656C64B4
:105A800020636F6F7264696E6174655F737973749C
:105A9000656D206D69736D617463682E0A004449F9
:105AA0004749504F5453204C6F616465640A004469
:105AB000494749504F5453204C6F6164696E670ADF
:105AC000004669656C64206D6F746F725F637572F8
:105AD00072656E745F73657474696E67206D697347
